:020000040000FA
:0600000002011A02205863
:03002B0002252586
:030033000225079C
:030053000220CEBA
:03006B000224DE8E
:10008300021F07E5C754F84401F5C77901220000B0
:100093000080FB120086B90003020104E4791B7897
:1000A30002B800028004F709D8FCE4791D7802B88D
:1000B30000028004F709D8FCE490028178F5790DF9
:1000C3008002F0A3D8FCD9FA781A90014A7A01BACF
:1000D30000028007E493A3F608DAF97A757B0F90A0
:1000E300014B78D779018015E493A3AD82AE838A5F
:1000F300828B83F0A3AA82AB838D828E83D8E9D9C6
:10010300E77582997583C3740312012C7582917507
:100113008300740012012C75D00075813F7518811E
:10012300751902759F00020096C09FF59FE473D076
:100133009F22D083D082C09FE493C0E0740193C018
:10014300E0740293F59F2201AD03BF03E903B303F8
:10015300FF0000B4000028002800283075A000A08C
:1001630000A000A00000080008E001F0001000104B
:10017300001000100010001000500050005000103C
:10018300001000D0070000000000000F0001000570
:1001930000307507001000010081FF00000000FF20
:1001A300020202F290010000E59002F890010000C3
:1001B300CD0F02EA90010000B20202F890010000A4
:1001C300CE0F02E890010000C802FFFF0100FF20EC
:1001D30002F290010000E29002F890010000FC0F8F
:1001E30002EE90000000000002EC90030000A50363
:1001F300990B990B990B990B990B990B990B990BDC
:10020300990B990B990B990B990BBB0DD90DB50D47
:10021300FFFF01E803053F10020AFF00FEFF120182
:1002230035C1BA03120135D7BA0312013506BB0330
:100233001201353CBB0312013553BB031201356A6E
:10024300BB03120135A1BB03120135F4BB03120139
:10025300350BBC0312013544FE021201355BFE026D
:100263001201358CFE02120135C7FE02120135F16F
:10027300FE021201351BFF0212013532FF02120189
:100283003549FF0212013560FF0212013589FF0271
:100293001201359CFF02120135B2FF02120135DC57
:1002A300FF021201352F8E02120135338F02120124
:1002B30035608F02120135B68F02120135D98F02D4
:1002C300120135ED8F02120135EF8F021201351243
:1002D3009002120135219102120135E591021201BA
:1002E30035BA92021201352B9302120135B79302EC
:1002F300120135BA93021201354294021201357D7F
:100303009402120135E49402120135E794021201BA
:10031300351E9502120135479502120135F29502F9
:100323001201357C9602120135CB9602120135D8A3
:100333009602120135DB96021201353B9702120138
:1003430035469702120135C59702120135C8970247
:10035300120135DB9702120135DE97021201356D6A
:1003630098021201358798021201359798021201FB
:1003730035C79802120135D49802120135D7980275
:10038300120135589902120135469A02120135F8C5
:100393009A02120135F9AF02120135F1B0021201CE
:1003A3003525B102120135A7B102120135C7B102D9
:1003B3001201350FB20212013562B202120135C6C3
:1003C300B20212013553B3021201350DB402120108
:1003D300351CB702120135A7B802120135CAB8029B
:1003E3001201354A9603120135E797031201354B83
:1003F3009803120135AA9803120135B89803120124
:1004030035E1980312013515F4021201353DF4026A
:100413001201356BF402120135A2F4021201350008
:10042300F5021201354BF50212013596F502120160
:1004330035D6F5021201351CF6021201354AF602D1
:1004430012013507F70212013511F7021201351EA9
:10045300F70212013551F7021201351DF80212019C
:100463003529F80212013541F8021201354BF80221
:10047300120135C9F80212013570BF031201357E2E
:10048300BF0312013596BF03120135AEBF0312013C
:1004930035C6BF0312013593D6011201353FD7018B
:1004A300120135BAD701120135DBD8011201351714
:1004B300D901120135C0D901120135A7DA011201A0
:1004C300350BDC0112013562DC01120135E3DC017D
:1004D300120135D3DD0112013520DE01120135A6EB
:1004E300DE01120135D8DE01120135ECE001120103
:1004F300352EE1011201354CE101120135EEE10126
:10050300120135B6E201120135C3E4011201358F40
:100513009D03120135A59D03120135CB9D031201E5
:1005230035E79E03120135F19E0312013526A00320
:100533001201351EA103120135558903120135F944
:1005430089031201352C8A03120135768A031201BD
:1005530035398C03120135AEA50112013527A601E9
:1005630012013537A60112013525A7011201352FD6
:10057300A70112013554A7011201355FA70112012A
:100583003549A801120135ACA80112013562A90150
:1005930012013549AB0112013502AD01120135DEFD
:1005A300AD0112013592AE01120135CFB101120135
:1005B300357DB201120135ECB3011201356CB50181
:1005C30012013513B6011201355CB60112013593E0
:1005D300B60112013530B701120135BBB701120163
:1005E3003598B801120135EDB8011201354CBA0145
:1005F3001201355CBA0112013589BA01120135E0E5
:10060300BA0112013589BB0112013590BC011201F7
:10061300355ABD01120135BABE01120135FDBE01C5
:10062300120135A2BF01120135C8BF01120135D62F
:10063300C101120135DBC101120135E0C301120111
:10064300352DC401120135A0C401120135D3C401F3
:1006530012013575C5011201351EC6011201355649
:10066300C60112013559C601120135A1C601120195
:1006730035E3C6011201353AC701120135DCA70380
:10068300120135EFA703120135FDA703120135450A
:10069300A8031201355BA803120135A2A8031201B6
:1006A30035B6A90312013543AA031201358EAA03F5
:1006B300120135542500120135642500120135C796
:1006C30025001201350C2600120135C22600120145
:1006D300359D2700120135C62700120135F6270084
:1006E300120135362A001201351D2C00120135F591
:1006F3002D00120135392F00120135A031001201EE
:1007030035AE32001201350034001201350A3500CE
:100713001201354C3500120135843500120135A61E
:100723003500120135093600120135CB3A001201AA
:1007330035603B00120135B43B00120135DB3B0051
:10074300120135193C00120135383C001201359273
:100753003C00120135923D00120135173E00120193
:100763003588E80212013592E8021201353AE902AE
:100773001201357DE90212013598E902120135288B
:10078300EA0212013550EA0212013588EA02120127
:1007930035BFEA02120135E8EA0212013522EB0203
:1007A30012013537EB0212013504EC021201352731
:1007B300EC0212013549EC021201355EEC02120122
:1007C30035E4EC021201351EED0212013596ED02FD
:1007D300120135DFED0212013509EE021201353443
:1007E300EE02120135E3FE01120135DCE4011201D0
:1007F300350AE50112013565E60112013545E701C8
:1008030012013564E701120135E1E70112013524D4
:10081300E8011201359FE9011201350EEA011201C7
:100823003539EC01120135BDEE011201356EEF01D0
:1008330012013564F00112013504F1011201350290
:10084300F2011201358DF20112013522BC031201AE
:10085300358BBC03120135DFBC031201350EBD031A
:100863001201352FBD03120135D68D031201354315
:100873008E031201358A8E03120135A28F031201F2
:10088300359E9003120135819103120135FBDA0283
:100893001201353DDB0212013516DC02120135105F
:1008A300DD02120135F2DD021201355BDE021201B7
:1008B3003577DF02120135E3DF02120135E6DF028D
:1008C3001201350FE00212013589E0021201352EC3
:1008D300E10212013543E10212013589E1021201FD
:1008E30035A2E102120135A5E10212013528A10367
:1008F30012013564A103120135A2A1031201356C63
:10090300A203120135DBA20312013516A303120160
:100913003554A30312013584A303120135ABA3039A
:1009230012013519A4031201355BA4031201350228
:100933009101120135C59201120135909401120102
:1009430035CC9401120135F99401120135BB95019F
:1009530012013502960112013546960112013558EE
:100963009601120135989601120135C596011201BF
:10097300351397011201354D970112013570970117
:10098300120135C297011201355098011201352623
:100993009901120135109A01120135DF9B011201F1
:1009A30035E0A0011201352FA10112013576A10115
:1009B300120135A9A3011201357CAD03120135EEF5
:1009C300AD0312013544AE0312013588AE031201A3
:1009D30035A8AE03120135F5AE031201353DAF0361
:1009E30012013590AF03120135E1AF031201357ED9
:1009F3003E00120135C73E00120135F43E001201DC
:100A030035273F00120135373F00120135433F00C0
:100A1300120135543F001201353B40001201359954
:100A23004000120135CE400012013511420012017F
:100A330035634200120135B342001201350643000B
:100A43001201350544001201358045001201355766
:100A5300460012013567460012013589460012012E
:100A6300358C46001201355A47001201352B4800D8
:100A7300120135FA48001201354E4900120135AE14
:100A83004900120135124A00120135C34A0012010E
:100A9300358E4B00120135304C00120135A54C0048
:100AA300120135114D00120135664D0012013597C3
:100AB3004D00120135324E0012013516500012015D
:100AC30035655000120135A850001201352A510036
:100AD300120135C851001201350F5200120135338E
:100AE30052001201357A5200120135A85200120148
:100AF30035F052001201356A5300120135AE53002E
:100B0300120135BB54001201356A5500120135CB71
:100B130055001201352756001201354056001201C7
:100B230035F5B90212013548BA0212013554BA0239
:100B330012013529BB0212013550BB021201358B5C
:100B4300BB02120135F7BB0212013533BC0212019D
:100B5300356CBC0212013584BC02120135D9BC02CA
:100B6300120135F2BC021201353BBD021201354EB2
:100B7300BD0212013568BD021201357EBD021201AC
:100B830035B1BE02120135F8BF02120135FAC002B7
:100B9300120135F4C1021201354925001201355104
:100BA300F902120135C0FC02120135F9FD021201EE
:100BB300350EF30112013584F5011201358AF50171
:100BC300120135F2F70112013559FA01120135000C
:100BD30080031201359680031201354D8103120102
:100BE300357781031201356A830312013592840339
:100BF300120135CD6B00120135016C00120135EE87
:100C030075001201354277001201354D780012014B
:100C130035CD7900120135AE7A00120135E87A003C
:100C23001201350B7B001201354D7B001201359704
:100C33007B00120135A17B001201354B7C001201B0
:100C430035247D00120135787D00120135DA7D00EF
:100C53001201352D7E001201355C7E00120135999B
:100C63007E00120135F599031201356B9A031201C7
:100C730035819A03120135C29A03120135FC9A0396
:100C8300120135759B03120135B09B031201352305
:100C93009C03120135619C031201356A9C03120106
:100CA30035769C03120135929C03120135BD9C03DA
:100CB300120135D39C03120135FC9C031201355FED
:100CC3009D03120135C9E102120135DCE102120173
:100CD30035F6E1021201351FE20212013562E2022A
:100CE300120135A1E202120135DFE202120135449D
:100CF300E30212013559E30212013570E3021201D6
:100D0300357EE3021201358DE302120135A2E302BF
:100D1300120135B7E302120135C2E302120135CEE7
:100D2300E302120135DBE302120135EEE3021201A5
:100D330035F9E3021201351EE402120135C5E4025E
:100D4300120135DAE402120135EFE402120135092A
:100D5300E50212013524E50212013541E5021201D3
:100D6300354CE50212013508E602120135F4E602BC
:100D730012013519E70212013524E7021201353950
:100D8300E7021201354DE702120135AEE702120107
:100D930035B4E702120135BAE702120135C0E702A2
:100DA300120135D8E7021201350BE8021201356949
:100DB3009B021201358B9B021201356B9C021201BF
:100DC30035429F021201356EA00212013592A10233
:100DD30012013544A202120135E5A20212013505C2
:100DE3008002120135898002120135388102120115
:100DF30035978202120135B88402120135A48502A7
:100E0300120135D98502120135FB8502120135AA7B
:100E13008602120135A28802120135CB8802120123
:100E2300355D89021201358F89021201359C8902D1
:100E3300120135F38902120135198A02120135862E
:100E43008C02120135898D02120135E18D021201E6
:100E53003527C80112013531C90112013518CA01FC
:100E630012013522CA0112013544CA01120135505B
:100E7300CA01120135E9CB0112013518CC01120167
:100E83003534CD011201358DCD01120135F3CE017B
:100E9300120135D2CF011201352ED0011201359B3B
:100EA300D001120135D6D00112013515D10112013D
:100EB30035CED301120135E8D30112013574D401C3
:100EC30012013582D401120135DBD401120135E957
:100ED300D4011201355CD501120135C0D5011201CF
:100EE300350AD60112013546B4031201356BB4033A
:100EF300120135DDB403120135AFD302120135B847
:100F0300D302120135C1D30212013598D402120162
:100F13003549D6021201357FD602120135B9D60200
:100F2300120135EFD60212013529D7021201355DC0
:100F3300D70212013589D702120135D2D702120125
:100F4300350CD80212013555D802120135ADD8023D
:100F5300120135E2D8021201353DD902120135776B
:100F6300D902120135C8D902120135FED902120184
:100F73003538DA021201355BDA02120135F7C103A3
:100F830012013523C2031201357EC20312013588D3
:100F9300C20312013598C203120135BFC302120105
:100FA30035C9C30212013507C40212013550C40208
:100FB3001201358AC402120135E0C402120135015F
:100FC300C50212013586C7021201358FC70212010D
:100FD30035DAC70212013503C8021201350DC80202
:100FE30012013579C8021201350FC90212013559B0
:100FF300C90212013589C90212013512CA0212014E
:101003003552CA021201358ACA021201359CCA023C
:10101300120135BBCA02120135C4CA021201358F4F
:10102300CB0212013579BE0312013557B203120107
:10103300358DB203120135C3B2031201350CB4036B
:10104300120135A2C203120135B8C203120135C21F
:10105300C2031201350CC303120135C98403120103
:1010630035DE84031201358E8503120135CE8503E7
:10107300120135E785031201351B8603120135681A
:1010830086031201359C8603120135DE86031201A5
:1010930035E288031201354889031201353AC30347
:1010A30012013528B90312013551B9031201357AFA
:1010B300B90312013515BA031201352DBA03120112
:1010C300356FBA031201355CEE021201359BEE0255
:1010D30012013524EF0212013539EF021201358472
:1010E300EF02120135B8EF02120135F7EF021201D8
:1010F3003506F002120135B8F00212013511F10282
:1011030012013560F102120135B6F102120135AB5D
:10111300F202120135A0F302120135DDF3021201CE
:1011230035717F00120135725600120135F25800F5
:10113300120135655A00120135625B00120135EB6D
:101143005B001201356F5C00120135945C001201E3
:1011530035E45C00120135796000120135ED600061
:10116300120135D9610012013513620012013553A2
:101173006200120135FE63001201352F6400120173
:1011830035826400120135CB6400120135396500E4
:101193001201356B65001201358365001201359824
:1011A3006600120135A86600120135C667001201F8
:1011B30035E867001201351E6800120135C7690062
:1011C300120135406A001201357F6A00120135961B
:1011D3006B0012013541C10312013552C1031201E3
:1011E30035F1C30312013530C403120135EEFF029A
:1011F3001201355FC0031201356FC0031201358739
:10120300C0031201353BC10312013575BD03120141
:1012130035FABD0312013560BE03120135EBB50388
:1012230012013514B6031201357AB6031201359A49
:10123300B603120135EBB60312013544B7031201AD
:10124300357EB70312013581B703120135A3A40319
:10125300120135B8A403120135CEA503120135508E
:10126300A603120135C4A603120135DEA60312013B
:1012730035F5A60312013508A70312013520A7038C
:1012830012013535A70312013556A703120135A7FD
:10129300A7031201354392031201355A9203120137
:1012A30035D39203120135A893031201357A9503BE
:1012B300120135DF9503120135369603120135F815
:1012C3007F0012013522B003120135ADB1031201C3
:1012D300350EB20312013554B2031201358BB70335
:1012E300120135DBB70312013564B803120135CAA5
:1012F300B803120135B8AA03120135E2AA03120199
:1013030035A8AB0312013583AC031201350AAD03D3
:10131300120135B9CB0212013576CC02120135B177
:10132300CC02120135D9CC021201353BCD02120198
:101333003587CD02120135E7CD021201357ACE028F
:1013430012013579CF0212013508D1021201358B12
:10135300D102120135F2D10212013509D202120172
:101363003513D30212013551D302120135BFA50241
:10137300120135B4A6021201357CA702120135B55C
:10138300A90212013580AA02120135A3AA02120191
:1013930035D8AC021201352AAD02120135BEAD02B9
:1013A300120135E7AE0212013584AF021201357026
:1013B300C4031201353AC4031201359CC40312015C
:1013C30035D17F00E066701008A3E066700A08A3B9
:1013D300E066700408A3E06622C3E7960809E7966F
:1013E3000809E7960809E79622C3E09608A3E09662
:1013F30008A3E09608A3E09622C008C3E096F50888
:1014030008A3E096420808A3E096420808A3E096E2
:1014130045087001D3D00822080808EAC0E0EBC0F1
:10142300E086F0E7A4FA180986F0E7A42AFA180977
:1014330086F0E7A42AFA180986F0E7A42AFA19869F
:10144300F0E7A4FBE5F02AFA190886F0E7A42BFBE2
:10145300E5F03AFA190886F0E7A42BFBE5F03AFA2F
:1014630018180986F0E7A4C5F02BFBE43AFA19082B
:10147300E7C5F0C6A426F6E5F03BFBE43AFA188686
:10148300F0E7A4F6E5F00826F6E43B08F6E43A08AC
:10149300F6D0E0FBD0E0FA22E4CFC0E0E4CEC0E037
:1014A300E4CDC0E0E4CCC0E075F020E626F608E623
:1014B30033F608E633F608E633F6181818EC33FC6F
:1014C300ED33FDEE33FEEF33FFC3EC9709ED9709E0
:1014D300EE9709EF97191919400FFFEC97FC09EDE7
:1014E30097FD09EE97FE191906D5F0BFECF709ED44
:1014F300F709EEF709EFF7191919D0E0FCD0E0FD71
:10150300D0E0FED0E0FF226016080808C6C313C669
:1015130018C613C618C613C618C613C6D5E0EA22E2
:101523007009080808226016181818C6C333C608BD
:10153300C633C608C633C608C633C6D5E0EA22E6B4
:1015430027F60809E637F60809E637F60809E63705
:10155300F622E026F608A3E036F608A3E036F608FE
:10156300A3E036F622E026F008A3E036F008A3E075
:1015730036F008A3E036F022C3E697F60809E697AB
:10158300F60809E697F60809E697F622C3E096F00F
:1015930008A3E096F008A3E096F008A3E096F022F3
:1015A300E657F60809E657F60809E657F60809E686
:1015B30057F622E056F608A3E056F608A3E056F6DF
:1015C30008A3E056F622E056F008A3E056F008A37D
:1015D300E056F008A3E056F022E066F608A3E066C2
:1015E300F608A3E066F608A3E066F622E0F608A391
:1015F300E0F608A3E0F608A3E0F622E6F008A3E687
:10160300F008A3E6F008A3E6F022E0FAA3E0FBA3C8
:10161300E0FCA3E0FD22EAF0A3EBF0A3ECF0A3EDE2
:10162300F022E0F8A3E0F9A3E0FAA3E0FB22E8F05C
:10163300A3E9F0A3EAF0A3EBF022CAC0E0E6F0A32B
:1016430008DAFAD0E0FA22CAC0E0E0A3C582CCC52A
:1016530082C583CDC583F0A3C582CCC582C583CDA6
:10166300C583DAE6D0E0CA22C3E498F8E499F91214
:1016730016AC8026C3E49AFAE49BFBE920E7E9125F
:1016830016ACE498F8E499F922C3E498F8E499F9DC
:101693001216ACE498F8E499F9C3E49AFAE49BFBD4
:1016A30022EB20E7CFE920E7E0B90010BB0008E810
:1016B3008AF084F8AAF022E4FBC8FA22EB70227BBA
:1016C30010C833C8C933C9335007C39AC3DBF28088
:1016D300069A50012ADBEAC833F4C8C933F4C9FABD
:1016E3002275F008E4C833C8C933C933C99AC99B02
:1016F3005004C92AC93BD5F0ECFBC833F4C8E4C98C
:10170300FA22600D08C6A2E713C618C613C6D5E0B1
:10171300F322600C08C6C313C618C613C6D5E0F47B
:1017230022700422600D18C6C333C608C633C6D55B
:10173300E0F41822251810AF08F518400C1519808D
:1017430008F51840021519D2AF2200C0D025181091
:10175300AF08F518500C05198008F5185002051943
:10176300D2AFD0D0222518F58210AF08F518400C5F
:1017730015198008F51840021519D2AF851983226F
:101783002518F582E43519F583222518F8E435196F
:10179300F9222518FAE43519FB222518FCE435193A
:1017A300FD22E4732518C582C0E0E51934FFC58323
:1017B300C0E0E518C3958224F810AF088583198526
:1017C30082188008858319858218D2AFCEF0A3E5ED
:1017D30020F0A37808E608F0A3DEFAEFF0A3E58192
:1017E30024FAF8E608F0A3E608F0A3E608F0A30855
:1017F30008E608F0A3E608F0A315811581D0E0FE02
:10180300D0E0F8158115811581E8C0E0EEC0E02233
:101813002518C582C0E0E51934FFC583C0E0E5188B
:10182300C3958224F910AF0885831985821880082F
:10183300858319858218D2AFCEF0A3E520F0A37873
:1018430008E608F0A3DEFAEFF0A3E58124FBF8E64F
:1018530008F0A3E608F0A30808E608F0A3E608F0FA
:10186300A315811581D0E0FED0E0F815811581E83C
:10187300C0E0EEC0E022851983851882E0A3FEE074
:10188300A3F5207808E0A3F608DFFAE0A3FFE0A3BE
:10189300C0E0E0A3C0E0E0A3C0E0E0A3C0E0E0A3B9
:1018A300C0E010AF088582188583198008858218E7
:1018B300858319D2AFD083D0820201328519838503
:1018C3001882E0A3FEE0A3F5207808E0A3F608DF82
:1018D300FAE0A3FFE0A3C0E0E0A3C0E0E0A3C0E020
:1018E300E0A3C0E010AF08858218858319800885BE
:1018F3008218858319D2AFD083D08222C0D0251815
:10190300C582C0E0E51934FFC583C0E0E518C3957F
:101913008224F310AF088583198582188008858394
:1019230019858218D2AFC8F0A3E9F0A3EAF0A3EBBC
:10193300F0A37908E709F0A3D8FAECF0A3EDF0A33C
:10194300EEF0A3EFF0A3D0E0F0A3D0E0F0A3D0E05B
:10195300F0A3E520F0A3E5F0F0A322851983851811
:1019630082E0C0E0A3E0F9A3E0FAA3E0FBA37808D8
:10197300E0F608A3DFFAE0FCA3E0FDA3E0FEA3E0AA
:10198300FFA3E0C0E0A3E0C0E0A3E0F5D0A3E0F54F
:1019930020A3E0A3F5F010AF088583198582188092
:1019A30008858319858218D2AFD082D083D0E0F81E
:1019B300D0E03274048006740280027401C0E0F443
:1019C30004121768D0E012163D22740480047402D6
:1019D3008000CCC0E0EDC0E0E518C39CCCAD19504D
:1019E300011D10AF068C188D1980068C188D19D225
:1019F300AF12164AD0E0FDD0E0FC22D083D082E9BA
:101A0300C0E0E493A3C386F0C5F095F0F908E4932E
:101A1300A386F0C5F095F0700BE493A3C39940053A
:101A2300E9048002A3E475F002A42582F582E5F0BF
:101A33003583F583D0E0F9E493A3C0E0E493C0E0F9
:101A430022D083D082ECC0E0EDC0E0E493A3FCE4B9
:101A530093A3FDED4C600D121A90EC24FFFCED34C2
:101A6300FFFD80EFE493A3FCE493A3FDED4C600D35
:101A7300121ACFEC24FFFCED34FFFD80EFD0E0FD24
:101A8300D0E0FCE493A3C0E0E493C0E022C0E0C351
:101A9300E49396087401939618400FE493667008D4
:101AA30008740193661870007019A3A3C3E4939696
:101AB300087401939618A3A3400DD0E0D0E0D0E0C2
:101AC300021A80A3A3A3A3A3A3D0E022C0E0C0F083
:101AD30088F0E4936670080874019366187000A890
:101AE300F0A3A3700BD0F0D0E0D0E0D0E0021A80D6
:071AF300A3A3D0F0D0E02214
:101AFC0074F5121813EAFEEBFFEE2434F8EF340001
:101B0C00F988088909EE2435121C28F8EE243712BE
:101B1C001C28F50AEC850AF0A4FCAAF0850AF0ED65
:101B2C00A42AFDE82CF8E43DF97A257B001216ACCA
:101B3C00EA850882850983F074075AF87401B800A5
:101B4C00028004C333D8FCFBEA131313541FF8EEC2
:101B5C0028F8EF3400F9E8245DF582E9121C2B5BC0
:101B6C006003EA801CEE2436121C28F5F0EA84A8E7
:101B7C00F0EE28F8EF3400F9E82438F582E9121C6D
:101B8C002BF97F040218BF74F5121813EAFEEBFF51
:101B9C00EE2434121C28C0E0EE2435F582EF34001C
:101BAC00F583D0E0F08E828F83A3A3A3A3A3E0FAE6
:101BBC00A3E0FB8E828F83A3A3A3A3A3A3A3E0FC28
:101BCC00A3E0FDECC39AF50AED9BF50BEE247FF533
:101BDC0008EF3400F509850882F583E06401702B69
:101BEC00EE2480F582EF3400F5831219D1121C31EA
:101BFC00740212174DE960137CBF7D07EEFAEFFB00
:101C0C00120AAF850882850983E4F0AC0AAD0BEEAD
:101C1C00FAEFFB121AFC1224CA021B8EF582EF3467
:101C2C0000F583E022C082C083851882851983E089
:101C3C00F8A3E0F9C3EA9CEB9D5010C3EC98ED9926
:101C4C00401BC3EA98EB995014800EC3EA98EB99A9
:101C5C004007C3EC98ED994004790180027900D0DB
:101C6C0083D0822274ED121813900479E06408601A
:101C7C0005E06407702C9061C8E060269004A7E032
:101C8C00F874FF68601CE875F005A4C8AAF02AF97E
:101C9C0074A928FE740439FF8E828F83A3A3A3E05A
:101CAC0070057900021E10EE2468F510EF3400F573
:101CBC0011906060E0851082851183F0750AFB75C8
:101CCC000B07750800750900E5D914F50EE5D95414
:101CDC0003F50F601CEE2482F50CEF3400F50D7447
:101CEC0003650F6058E50E6013EE2467121C287014
:101CFC000B793DEEFAEFFB120AD980A69007F6E0BD
:101D0C0064016026850C82850D83E0600478048074
:101D1C00027800850E08E508C398FA95E0FB1209D5
:101D2C00418A088B09EA45097006120D91021CAE16
:101D3C00850C82850D83E070048A0A8B0B780080F9
:101D4C0016E5D9C0E08812E50A2512F582E50B34B8
:101D5C0000F583D0E0F008E8C3950E40E4850C82D2
:101D6C00850D83E0602874FC250EF50E780A121997
:101D7C00BAAC0EA90FEEFAEFFB120B93740212170A
:101D8C004DE9700AAA08AB091212E3021CFD740398
:101D9C00650F6058850E0C750D00780C1219BAACD5
:101DAC000AAD0BAA08AB09120B57740212174D851A
:101DBC001082851183E0F87480687005750C7F8043
:101DCC0002880CE50CF50A780A1219BEE50FF50A23
:101DDC00780A1219BEA90EAC08AD099004A7E0FA56
:101DEC007B001207E5740212174D8013900479E002
:101DFC006408700BAC0AAD0BEEFAEFFB120BC312BE
:101E0C000D9D79017F0C0218BF74F312181374FC2A
:101E1C00121737EAFEEBFF8908A2AFE433F509C2CB
:101E2C00AFEE2463F50AEF3400F50B8010AA0AAB71
:101E3C000B120B0F1212E39007C6E004F0850A8216
:101E4C00850B83E0F8A3E0F9E849602FE82402FA57
:101E5C00E93400FBEA2402F50CEB3400F50D780CA8
:101E6C001219BA8A828B83E0FCA3E0F9EEFAEFFB3D
:101E7C00120B03740212174DE960B29007C6E060B2
:101E8C00579007C7E0F89007C6E0C398500C74024F
:101E9C00650870449007C8E0603E8E828F83A3A3D0
:101EAC00A3A3E0851882851983121EF474021217FD
:101EBC0083E8121EF49007C5E028F0740212178311
:101ECC00AC82AD83851882851983AA82AB83790194
:101EDC001207F19007C6E4F0E509A2E092AF740492
:101EEC0012174D7F060218BFF0A3E4F09007C6E06E
:101EFC00F8220000851B87851CC622C0E074EF12F7
:101F0C0018FFA2AFE433FEC2AF759B00906182E074
:101F1C00A2E05012E591A2E0500C7591FE7401659F
:101F2C001B7003121C70E0A2E55051E591A2E55024
:101F3C004B7591DF900479E064076005E0640870EC
:101F4C00237401651B703579019004A7E0FA75F0D4
:101F5C0005A4CAA8F028FB74A92AFA74043BFB1246
:101F6C001E158018E0640D701390049BE004F0645F
:101F7C00287002E4F07A00E0F9120DA3906182E07F
:101F8C00A2E6400302202EE591A2E6400302202E99
:101F9C007591BF900479E064057008120C95120CD1
:101FAC00A18003120C9B751B00120D13E990047A8F
:101FBC00F07900120CF5120A137A017B0090047868
:101FCC00E0F9120FFB907803E0644270559007FA29
:101FDC00E014F0704DC2AF121FE600781ED0E0F690
:101FEC0018D0E0F6E59F540770057509FF8003755E
:101FFC00097FC4C0E0781DE6F50808E65509F50927
:10200C00740B7808121715D0E02508F8906270E070
:10201C00A2E740F8E8C333906272F0906270E0D2AD
:10202C00E0F0906181E0A2E35009E5E9A2E35003FE
:10203C0075E9F7A3E0A2E75009E591A2E750037513
:10204C00917FEEA2E092AF7F0402195EC0E0C0D097
:10205C00C082C083906183E0A2E05009E5BFA2E09A
:10206C00500375BFFEE0A2E15009E5BFA2E15003A9
:10207C0075BFFDE0A2E25009E5BFA2E2500375BFB7
:10208C00FBE0A2E35009E5BFA2E3500375BFF7E004
:10209C00A2E45009E5BFA2E4500375BFEFE0A2E54E
:1020AC005009E5BFA2E5500375BFDFE0A2E6500979
:1020BC00E5BFA2E6500375BFBFD083D082D0D0D08D
:1020CC00E032C0E074F21218FFE5A7A2E4500FE56D
:1020DC00A1A2E4500953A7EF75A1EF122122E5A7A5
:1020EC00A2E5500CE5A1A2E5500653A7DF75A1DFD0
:1020FC00E5A7A2E15009E5A1A2E1500375A1FDE518
:10210C00A7A2E2500CE5A1A2E2500653A7FB75A1D1
:10211C00FB7F0102195E74F8121813751B019004F1
:10212C0079E0640670077A007B00120C7DA2AFE4A4
:10213C0033FED2AF90047FE0640170187A207B00EC
:10214C00900478E0F912107F7A207B00900478E0FC
:10215C00F9121001906182E0D2E6F09007F7E0608E
:10216C002185C61C801690047EE064017008E5C6CB
:10217C0054F84405F5C653BEFC121F007401651BD0
:10218C0060E4EEA2E092AF7F010218BF74E912186E
:10219C001374FA121737EAFEEBFF8C088D099004C2
:1021AC0079E024F7C3940550067510010222C3127E
:1021BC000C1D8A0A8B0BEA450B70030222C0120C11
:1021CC00B38A0C8B0D120CB3EA650C7003EB650D26
:1021DC0060ECEEFCEFFD851882851983AA82AB8337
:1021EC00120CB9850A82850B83A3A3780C1215EF08
:1021FC009090BA780C1215B68518828519837814CC
:10220C001215EF9090BA78141215B6780C79141246
:10221C0013DC501F780C791412157B909062780C9B
:10222C001213FC4047850C10850D11850E12850F7D
:10223C0013804590906285141085151185161285B2
:10224C0017137810790C12157B78101213FC501C94
:10225C007510007511007512007513017810791442
:10226C0012157B7810790C121542800C75100175C3
:10227C001100751200751300740978101215239053
:10228C0090D2780C1215EF7810790C12149B9004E4
:10229C0079E06408600AE064066005E0640570207B
:1022AC0090905A78101213FC50169090527810128D
:1022BC001555800C75100075110075120075130002
:1022CC0085088285098378101215FE740612174D45
:1022DC007F100218BF74F7121813120CCB9007F56D
:1022EC00E064017010906245E4F0A3F053F4F34302
:1022FC00FE0C5390F3120C6BE5C654804449F5C6A2
:10230C00E59E547F644970F8906185740FF09007D6
:10231C00F3E0F47002A3E0602C75080175090090DD
:10232C0007F3E07808121724E508F4FAA3E0600834
:10233C0014600A14600C800DEA52808008EA5290F6
:10234C008003EA52A079007F020218BF74F71218BA
:10235C0013E9FEEAFF74016E700C7A807B00900426
:10236C0078E0F9120FFB90254CE493F46008E493A9
:10237C00F91209F5800953C680E59E547F70FA1254
:10238C000C719007F5E064017003120A2B9007F3AF
:10239C00E0F47002A3E0602A75080175090090074B
:1023AC00F3E07808121724AA08A3E0600814600A66
:1023BC0014600C800DEA42808008EA42908003EAA7
:1023CC0042A0120C1D8A088B09A808A909E84960CB
:1023DC0017E5E170FCE82414F582E93400F583E09C
:1023EC00F874FF68600288E174016F700A7A0190DA
:1023FC000478E0F912104F02235374F11218138A67
:10240C00088B098C0A8D0B9090BA78081215B6744B
:10241C000F121783780C1215EF9090BA780C1215D6
:10242C00B67808790C1213DC909062501078087909
:10243C000C12157B78081213FC4014800E780C7962
:10244C000812157B780C1213FC5004790180027968
:10245C00007F080218BF74ED1218138A088B098CC0
:10246C000A8D0B9090BA78081215B6741312178354
:10247C00780C1215EF9090BA780C1215B6780C797E
:10248C00081213DC40117808790C12157BAA08ABE2
:10249C0009AC0AAD0B802275100075110075120085
:1024AC007513017810790C12157B781079081215B8
:1024BC0042AA10AB11AC12AD137F0C0218BFC08234
:1024CC00C083E9906000F0D083D08222C2AF0200BA
:1024DC000022C0E074F21218FFA2AFE433FED2AFB8
:1024EC00E589A2E1500312123B758900C2C5751A29
:1024FC0000EEA2E092AF7F0102195EC0E074F2120E
:10250C0018FFA2AFE433FED2AFE58BA2E05003126A
:10251C00123B758B00C2E880D5C0E0C0D0E8C0E0AB
:10252C00E9C0E0E5A8D2AFC2C7751A00A2E7A2E7DE
:10253C0092AFD0E0F9D0E0F8D0D0D0E03202013246
:10254C00FFFFFFFFFFFFFFFFC082C083E9900FFB7F
:10255C00F0D083D08202013274F61217A7E99003EF
:10256C0065F07CA57D037AFF7BFF12073D7A008A1C
:10257C00087509007402780812172474662508F887
:10258C00740335091225B3A3F00AEAC3940340DFA0
:10259C0079051206CB900365E0F91205ED7A557BAF
:1025AC00071208F3023BAFF98882898374FF122566
:1025BC00C0E4F022F0A3123A5AA32274F41217A723
:1025CC008A088B09EB54806030900365E0F9120F98
:1025DC00E38A0A8B0BAE0AAF0BEE4F60138E828F21
:1025EC0083E064B070031206DDEEFAEFFB120FD13C
:1025FC00AA08E5096480FB80047A007B0002279816
:10260C0074F21217A774FC121737EAFEEBFFEE4FA9
:10261C0060387402121783EEF0A3EF122A1DECF04F
:10262C00A3ED122A1DAA82AB831205E7E9F5087007
:10263C00717412121783123601E50A450B60638E12
:10264C00828F831226B8EE4F700575080280537A7C
:10265C00067B001210378A0C8B0DA80CA90DE849CB
:10266C007005750813803B88828983E41225C0EEBF
:10267C00F0A3EF123AA2E50AF0A3E50BF090037376
:10268C001227909003736017E0FCA3E08003EAFC30
:10269C00EBFD8C828D8312279070F38C828D8312CC
:1026AC003504A908740412174D023C8DA3A3A3A3EF
:1026BC00E0FEA3E0FF2274F21217A7890AE975F075
:1026CC0045A4FEAFF0900372E4F0900368122790DB
:1026DC00602812103D790089087509007402780889
:1026EC0012172474682508F58274033509F583E400
:1026FC00F0A3F009E9C3940340DDEEFAEFFB1210EE
:10270C00378A088B09EA45096075EEFCEFFD790004
:10271C00120FB97D008D0C750D007402780C121718
:10272C00247468250CF87403350DF9E50AF5F0ED01
:10273C00A475F017A4FAABF0E5082AFAE5093BFBFF
:10274C0088828983EAF0A3EBF07E00801BEE75F0A3
:10275C0017A4FAABF088828983E02AFCA3E03B8CB7
:10276C0082F583E4F0A3F00EEEC3950A40DF0DED85
:10277C00C3940340A0E50A900372F07900800279BB
:10278C0013023C8DE0FAA3E0FBEA4B227F04021813
:10279C007974F41217A77900EAA2E0501B75083E71
:1027AC0075099078081219BA7C047D007AFD7B0FAC
:1027BC001206C5740212174D80D2C082C0839003DA
:1027CC0073123A9449601C88828983A3A3E06A70CF
:1027DC0003A3E06B8882898370E7A3A3A3A31232BF
:1027EC00A880047A007B0002255D74EE1217A77492
:1027FC00FC121737EAFEEBFF851882851983E4F08B
:10280C00A3F0EE24021234EFEE2405122A0BEE2470
:10281C0004F50EEF122DE7E024FE603924FC60462F
:10282C0024FE605224FE605E24FE700302291024F4
:10283C00FE700302298824FE700302299724FE707F
:10284C00030229A624FC70030229B524FE7003029E
:10285C0029C4022A0190038C7417F0A3E4122A25D0
:10286C0012025D022A01851882851983AC82AD8320
:10287C001206E30229D1851882851983AC82AD83B7
:10288C001206E90229D1850C08850D09740212176C
:10289C0083AC82AD838508828509831232A8120627
:1028AC000B8A0C8B0DAC0CAD0DEC4D6042E4F50CB1
:1028BC00F50D780C1219BA750C8C750D03780C1279
:1028CC0019BA750C8D750D03780C1219BA7408129F
:1028DC0017831219D179161232A212072574081215
:1028EC00174DE9F50C700B12329E120275800F75A4
:1028FC000C01850882850983122A13123504850C74
:10290C00080229D47402121783AC82AD83850C8221
:10291C00850D831232A812060B8A108B11AC10ADE8
:10292C0011EC4D6043850C82850D83A3A31219D144
:10293C0075108C75110378101219BA75108D7511EC
:10294C000378101219BA74081217831219D1791658
:10295C001232A2120725740812174DE9F509700BF3
:10296C0012329E12027B800F750901850C82850D37
:10297C0083122A13123504850908804C8518828528
:10298C001983AC82AD831206EF803A8518828519C3
:10299C0083AC82AD831206F5802B85188285198352
:1029AC00AC82AD831206FB801C851882851983AC22
:1029BC0082AD83120701800D851882851983AC8244
:1029CC00AD83120707E9F508E50860298E828F832D
:1029DC00A3E06414601F850E82850F83E090038C46
:1029EC00122A1D123D5C90038D123504E508A312CA
:1029FC002A25120257EEFAEFFB1206890233F6F57E
:102A0C000CEF3400F50D22123D6085188285198378
:102A1C0022F085188285198322F07C8C7D03850A2F
:102A2C0082850B83E0FAA3E0FB2274EE1217A774E5
:102A3C00FC1217378A0A8B0B8C0E8D0FEA2405F5C6
:102A4C0008EB3400F5097C157D0079007A8C7B034A
:102A5C00120FB9E5082402F50CE509122A0E8518A7
:102A6C008285198385821085831178101219BA8595
:102A7C000882850983A3A3A3A3122F301219BAE5E8
:102A8C00082405F510E5093400F51178101219BA6F
:102A9C00850C82850D831232921232A812060574AF
:102AAC000612174D8A108B11AE10AF11E50A2402D5
:102ABC00F50AE50B1234F2EE4F7003022BFF801770
:102ACC0074021217831232A888828983EAF0A3EB6E
:102ADC00F090038CE004F090038CE0C39405400369
:102AEC00022BFFE4F510F51178101219BA75107558
:102AFC0075110378101219BA7510767511037810C8
:102B0C001219BA74061217831219D17910EEFCEF50
:102B1C00FD1232A2120725740812174DE9705E855A
:102B2C000882850983A3A3A3A3A3A3A3E0F890031E
:102B3C0075E0687048122F301219BA7C767D03E567
:102B4C00082408FAE5093400FB120FB374021217BB
:102B5C004DE960298E828F83A3A3A3A31232A89080
:102B6C00038CE0F51074027810121724748D251064
:102B7C00F58274033511F583EAF0A3EBF0740212BD
:102B8C00178385821085831178101219BA7402127A
:102B9C0017831219D1850C82850D83123D71120693
:102BAC0011740412174D8A108B11AE10AF119003D3
:102BBC008CE0F51075110074027810121724748CC7
:102BCC002510F874033511F988828983A312279094
:102BDC007003022AC3E82403F8E93400F9EE4F60CD
:102BEC0003022ACC8882898374FFF0A3F090038CB3
:102BFC00E004F090038CE0600A12329E12026979B4
:102C0C0000800B8508828509831234FB790A023314
:102C1C00F674EA1217A774FE1217378C128D13EA8A
:102C2C002405F50CEB123D7B1226BC7508007509CA
:102C3C0000EA2402F510EB3400F511851882851991
:102C4C008385820A85830B780A1219BA850C8285D2
:102C5C000D83A3A3A3A3122DF11219BAE50C24051D
:102C6C00F50AE50D1234F2780A1219BA850C828530
:102C7C000D83123D6F120605740612174D8A0A8BCE
:102C8C000BEA450B7003022DB2EA2404F50EEB128D
:102C9C002DE71226BC8A828B83A3A3A3E0F98510AF
:102CAC00828511831232A81205F3E9F5096003023B
:102CBC002DB2E4F514F51578141219BA751475754E
:102CCC00150378141219BA75147675150378141245
:102CDC0019BA74061217831219D17913AC0AAD0BF9
:102CEC008510828511831232A812072574081217D9
:102CFC004DE9F5096003022DB2900375E0F8E50883
:102D0C007009E0240290038DF0801790038DE0FC95
:102D1C00E82402FAE43400FBEA6C7001EB60030275
:102D2C002DB6850882AA82122F279414122F1F50B9
:102D3C0075850E82850F83E0C0E012315ED0E0F025
:102D4C000508850E82850F83A3E0C0E085080A7410
:102D5C008E250AF58274033400F583D0E0F0050863
:102D6C00900375122DF11219BA7C767D0385080A31
:102D7C00748E250AFA74033400FB120FA17402122C
:102D8C00174D900375E02508F50874FF6E700374F9
:102D9C00FF6F6012EE24010EEF3400FFE508C394C0
:102DAC00145003022C47E5086013123184851082FD
:102DBC008511831232A812026F79008014E5097014
:102DCC000375090A851282851383EEF0A3EFF0A92F
:102DDC0009740212174D7F0E0218793400F50F8515
:102DEC000E82F58322123AB12274EE1217A774FEEA
:102DFC001217378C0E8D0FEA2405F50CEB122A0EE8
:102E0C00750B0090038CE4F0F50AEA2402F508EB4C
:102E1C003400F509804990038CE0FA900375E0F8D2
:102E2C00122F279417122F1F400D90038CE0F8746B
:102E3C0016C398900375F0122F301219BA7C767D58
:102E4C0003748D2AFA74033400FB120FA17402125E
:102E5C00174D900375E0F890038CE028F0050AE517
:102E6C000C2416F582E50D3400F583E0F8E50AC371
:102E7C00984003022F0890038CE0C39416507DE514
:102E8C000AC333F8E433F9E50C28FEE50D39FF8568
:102E9C001882851983AC82AD838E828F831232A8FF
:102EAC0012060B8A108B11AC10AD11EC4D70057520
:102EBC000B018043E4F510F51178101219BA751056
:102ECC007575110378101219BA751076751103788F
:102EDC00101219BA74061217831219D179168508B3
:102EEC00828509831232A8120725740812174DE93E
:102EFC00F50B7003022E221234F780107C8C7D03AC
:102F0C008508828509831232A8120281A90B7402EA
:102F1C000233F8E99400C365D03322EA28F8E4348C
:102F2C0000F9E822E0F51075110078102274EA120D
:102F3C0017A774FC1217378A0C8B0D8C128D13EAA1
:102F4C002405F50AEB1234F2750800750900E50A40
:102F5C002402F510E50B3400F51174021217838569
:102F6C00820E85830F780E1219BA850A82850B831F
:102F7C00A3A3A3A3123A611219BAE50A2405F50E0C
:102F8C00E50B3400F50F780E1219BA8510828511F5
:102F9C00831233F01232A2120605740612174D8AF0
:102FAC000E8B0FAE0EAF0FE50C2402F50EE50D34B3
:102FBC0000F50F80408882898374FFF00508123178
:102FCC006A74FFF00508900375E0F50C750D007838
:102FDC000C1219BA7C767D0385080C748E250CFABC
:102FEC0074033400FB120FA1740212174D90037579
:102FFC00E02508F508EE4F60718E828F83A3A3A3A2
:10300C00E0F9850E82850F831232A81205F3E9F5DB
:10301C0009EE2404122A0BE97044E4F514F5157832
:10302C00141219BA75147575150378141219BA752A
:10303C00147675150378141219BA740812178312C2
:10304C0019D17911EEFCEFFD850E82850F831232BA
:10305C00A8120725740812174DE9F5096027850C8D
:10306C0082850D8312317A123504E5087003023122
:10307C0044123184850E82850F831232A812028786
:10308C007900023159850882AA82EA900375700989
:10309C00E0240490038DF08022E0F890038DE0F59D
:1030AC0014E82404FCE43400FDEC65147001ED70AC
:1030BC00C0122F279412122F1F50B6850C82850D2B
:1030CC0083E0C0E012315ED0E0F00508850C82850B
:1030DC000D83A3E0C0E012316AD0E01231968582F4
:1030EC000C85830D780C1219BA74041217831219FB
:1030FC00D1851082851183123D7112061174041250
:10310C00174D8A0C8B0DAE0CAF0D85080C748E25EB
:10311C000CF874033400F9EE4F7003022FC18518BC
:10312C0082851983E088828983123196A3E0C0E0FE
:10313C0012316AD0E0022FCFE509700375090A85B8
:10314C000A82850B8312317A123504A909740402A0
:10315C002DDF748E2AF58274033400F583228508E2
:10316C000C748E250CF58274033400F58322123D09
:10317C00608512828513832290038DE0F5F0E508BB
:10318C008490038CF07C8C7D0322F00508851882DA
:10319C008519832274EC1217A774FE1217378A084C
:1031AC008B098C0E8D0FEA2405FEEB3400FF85187D
:1031BC0082851983AC82AD838E828F831232A812E2
:1031CC00060B8A0A8B0BEE2418122A0BEA450B709D
:1031DC000302326D1233D85032851882851983124E
:1031EC0032A81207198A108B11EA4511606E7912F8
:1031FC00AC0AAD0B8508828509831232A885108232
:10320C008511831217A5E9F50A705BE4F50AF50B35
:10321C00780A1219BA8E828F83A3A3E0F50A780A72
:10322C001219BAEE24031234EF780A1219BA8E82EC
:10323C008F831232921232A812072B740612174D7A
:10324C00E9F50A7021850C82850D83E0701F8508D5
:10325C00828509831232A812028D8011750A0E80A4
:10326C0009750A018004E50A60031234F7850C82A3
:10327C00850D83E0600479008002A90A740212179C
:10328C004D7F0C021879E0FCA3E0FD8508828509CE
:10329C0083227C8C7D03850A82850B83E0FAA3E074
:1032AC00FB2274EE1217A774FE1217378A088B09CB
:1032BC008C0C8D0DEA2405FEEB3400FF750E008599
:1032CC001882851983AC82AD838E828F831232A8CB
:1032DC0012060B8A0A8B0BEA450B70030233C412DD
:1032EC0033D850358518828519831232A8120719E4
:1032FC008A0E8B0FEA450F605E7912AC0AAD0B8516
:10330C0008828509831232A8850E82850F831217D5
:10331C00A5E9F50E60030233C7850882850983127F
:10332C003601AA0AFB12070D8A108B11A810A911DD
:10333C00E849701E7AFF7BFF12070D8A108B11A8CB
:10334C0010A911E849606C88828983E50AF0A3E52D
:10335C000BF0750A008007750E0E805F050A90034E
:10336C0072E0FAE50AC39A504AE50A75F017A4FA16
:10337C00ABF088828983A3A3E02AFAA3E03BFB8A03
:10338C00828B831233F0EC4D70D2750A17750B00DB
:10339C00780A1219BAEEFCEFFD120FA17402121783
:1033AC004DEEFCEFFD8508828509831232A81202CE
:1033BC00938014750E098003750E01123D58850C0F
:1033CC0082850D83123504A90E022F1AE5082402FA
:1033DC00F508E5093400F5098A828B83A3A3A3E0E1
:1033EC00A2E522A3E0FCA3E0FD22740412174D7F9A
:1033FC000A02187974EC1217A78C108D11EA2405A7
:10340C00F50CEB122A0E750F00EA2402F50AEB12EA
:10341C0034F2850A82F5831232A812070D8A088BC2
:10342C0009EA450970030234E4750E008071850CBD
:10343C0082850D83E06401704F8E828F83A3A3126B
:10344C0019D18E828F83A3A3A3A3E0F51275130069
:10345C0078121219BAEE2405F512EF3400F5137830
:10346C00121219BA1232A212072B740612174DE956
:10347C00F50F6014850C82850D83E4F0123D5885A0
:10348C0010828511831235047C177D007900EEFAC9
:10349C00EFFB120FB98E828F83E4F0A3F0050E9030
:1034AC000372E0F8E50EC398501FE50E75F017A4F3
:1034BC00F8A9F0850882850983A3A3123D85FCA396
:1034CC00E0FDEC4D600302343A8508828509837473
:1034DC00FFF0A3F0E50F70061232A2120299A90FA9
:1034EC0002328DF50AEF3400F50B228E828F831297
:1034FC003D60850E82850F83E8F0A3E9F02274F617
:10350C001217A77C008C0875090074027808121732
:10351C002412353C6A7003A3E06B7006E8FAE9FBF1
:10352C00800B0CECC3940340DC7A007B00023BAFB5
:10353C0074662508F874033509F988828983E022BA
:10354C0074F71217A77F00EF75F003A4F8A9F0EC3D
:10355C0028F8ED39F988828983E06A7003A3E06B5F
:10356C007006E8FAE9FB800B0FEFC3940440D87A9D
:10357C00007B007F0102187974F61217A71206D788
:10358C008A828B83E582458370067A007B008007F4
:10359C00A3A3A3A31232A8023BAF74F21217A7E99C
:1035AC00FE740E1217831236017410121783123A1E
:1035BC007C8C828D83E064027036A3123D66F50C20
:1035CC00A3E0F9A80C740268700374296970217562
:1035DC000C02750D00780C1219BA78081219BA7809
:1035EC000A1219BAEEF912074F740612174D80021F
:1035FC007901023C8DE0F50AA3E0F50B2274E81288
:10360C0017A774FB121737E9851882851983F08A7E
:10361C00168B17ECFEEDFF751000741D121783123C
:10362C003D5C741D1217831235048E828F83A3A305
:10363C00A3E0A2E4502D741D1217831232A81207B6
:10364C00198A828B83E58245837003023A4B790A8F
:10365C00EEFCEFFDAA16AB171217A5E9F5106003E7
:10366C00023A4E741F121783123A7C74211217837C
:10367C001236017423121783E0F50EA3E0F50F8EBA
:10368C00828F83E0640260030239F9A3123D5C85EA
:10369C000882850983A3858212858313EE24061282
:1036AC002A0B88828983E0FAA3E0F9EA2400F51456
:1036BC00E439F5157814121A44010000280128ED9C
:1036CC003607000228B23703281F370029E93801D2
:1036DC002914390229B5380329E93804299339F911
:1036EC0039E50E450F60030239F4850C82850D8394
:1036FC00123A94FAE9FB8A828B83E0850A82850B65
:10370C0083123AA81219BA8A828B83A3E0FCA3E035
:10371C0002397DE50E450F60030239F4850A828576
:10372C000B837401F0123A84850882850983F07C3E
:10373C00007D008E828F83A3A3A3A3E02401FAA3B0
:10374C00E03400FB12060BEA4B60418A828B83E06B
:10375C002402F8850A82850B83E028F0EA2404F819
:10376C00EB3400F988828983E085128285138312F9
:10377C003ABA123AA81219BA8A828B831233EFE53D
:10378C00082403FAE5093400FB023982850A828594
:10379C000B83E02404F07C047D007900AA12AB13A7
:1037AC00120FB9023A4EE50E450F60030239F412BE
:1037BC003A84FEA3E0FF850A82850B837404F0EE45
:1037CC00850882850983F0EF851282851383F07456
:1037DC0003121783AC82AD83EEFAEFFB12060B8A51
:1037EC000C8B0DEA450D70030238968A828B83A3ED
:1037FC00A31226B8740112178385820E85830F7865
:10380C000E1219BA74051217831219D17CFF7DFFA1
:10381C00120611740412174D8B0FEA450F70338585
:10382C000C82850D83123A611219BA850C82850DB2
:10383C0083A31219D17C027D007AF47B9012038948
:10384C00740412174DE9700A740112178374FFF097
:10385C00A3F08E828F83E064027039750C02750DB3
:10386C0000780C1219BA8E828F831233EFE508247C
:10387C0004FAE5093400FB120FA1740212174D85EE
:10388C000A82850B83E0240280097401121783EEEF
:10389C00F0A3EFF07401121783123A72F074011254
:1038AC001783A3123A6A0239EEE50E450F60030244
:1038BC0039F4850C82850D831233F0AA16AB1712DE
:1038CC000743850A82850B837402F0EA850882859A
:1038DC000983F0851282851383EB0239F1E50E45DD
:1038EC000F60030239F4123A84F8A3E0F9850A82D6
:1038FC00850B837402F0E8850882850983F0E985DD
:10390C0012828513830239F1850C82850D83123264
:10391C00A8120F9BEAFC8C82A882C3950EE4950F2B
:10392C00405FE8650E7002E50F70047C0080228514
:10393C001882851983E0FAE50E2AFAE50F3400FBAC
:10394C00C3EA98EB94005003E08005E50ECCC39CD1
:10395C00FCEC850A82850B83F08C0A750B00780AC7
:10396C001219BA850C82850D83E0250EFCA3E03577
:10397C000FFDAA08AB09120FA1740212174D023ADF
:10398C004E751007023A4EE50E450F705B850C82A2
:10399C00850D83123D5C850A82850B837407F08844
:1039AC00828983123A6A123A5AE08512828513830D
:1039BC00F0E82402FAE93400FB8A828B83123A6A1B
:1039CC00123A99123A72A3123AA2123A76F0E824F9
:1039DC0005F8E93400F988828983123A76A3123A01
:1039EC00BAA3A3A3A3F0805A75100B8055741D12B3
:1039FC0017831232A81206D78A828B83E5824583FD
:103A0C00603D123D5C880C890DE8450D6031780EE7
:103A1C001219BA780A1219BA78081219BA7406125D
:103A2C001783E0F9EEFCEFFDAA16AB17850C828527
:103A3C000D831217A5740612174DE9F51080037546
:103A4C00100EA910740512174D7F10021879F0880A
:103A5C00828983A322E0F50E750F00780E22E08593
:103A6C00088285098322123AC122123AC1A3A322E9
:103A7C00E0F508A3E0F50922850C82850D83E0F8BA
:103A8C00A3E0F5838882E022123D60E822A3A3F034
:103A9C008A828B83A3221225C2A3A322F08A828B53
:103AAC0083123AB122E0F50A750B00780A22123A19
:103ABC005A123AC122E0850882850983A3A3227495
:103ACC00EE1217A774FE1217378A0A8B0BECFAED5D
:103ADC00FB7414121783E0F510A3E0F511741612A1
:103AEC001783E0FE7418121783E0F50EA3E0F50FB0
:103AFC00851882851983AC82AD8312060B8A0C8BD8
:103B0C000DEA450D60498518828519831232A81279
:103B1C0006D78A828B83E5824583602FA3A3123A52
:103B2C007CE50845096024780E1219BA7810121930
:103B3C00BAEEF9AC0CAD0DAA0AAB0B85088285095F
:103B4C00831217A5740412174D8006790E80027922
:103B5C0001022F1A74F61217A774FE121737740C81
:103B6C00121783123A94851882851983F074011206
:103B7C001783E9F0E4F508F50978081219BA750805
:103B8C000278081219BA7404121783858208858387
:103B9C000978081219BA12072B740612174D740201
:103BAC0012174D7F0202187974F71217A7EAFEEB71
:103BBC00FF89087CA57D03120743EA5402600BA918
:103BCC0008EEFAEFFB1205FF8002790102357F74D3
:103BDC00F61217A774FF6A700374FF6B701B7B00DF
:103BEC00EB75F003A4F8A9F0EC28F8ED391225B325
:103BFC000BEBC39404501480E71207138A088B094B
:103C0C00A808A909E84960031225B4809674F61235
:103C1C0017A71207138A828B83E58245836006A35C
:103C2C00A3E0FA80027A007B00023BAF74F2121719
:103C3C00A78A088B09ECFEEDFF740E121783E0F5D2
:103C4C000A1207138A0C8B0DA80CA90DE8497026D3
:103C5C00EEFCEFFD7AFF7BFF1207138A0C8B0DA88D
:103C6C000CA90DE84970047911801688828983E5C6
:103C7C0008F0A3E509F088828983A3A3E50AF0790B
:103C8C00007F0602187974EE1217A7EAFEEBFF8C80
:103C9C00088D09890C7414121783123D5C7416126A
:103CAC0017831232A8750D00E8496003023D507469
:103CBC0002650C6003023D4B7412121783123D66B1
:103CCC00FCA3E0F9EC2400F50EE439F50FEAF4F866
:103CDC00EBF4F9EC58F8E50F59F9E849705CE50894
:103CEC002406F8ED3400F9880A890B8882F58312D2
:103CFC003D711207438A108B11E50E65107004E5B7
:103D0C000F65116042780E1219BA850A82850B83F1
:103D1C00123D71120749740212174DE9F50D702707
:103D2C00780E1219BA850882850983A3A3123D6FF8
:103D3C0012075B740212174D800D750D808008758B
:103D4C000D0D8003750D0BA90D0233FB8E828F8335
:103D5C00123D6022E0F8A3E0F922123D60888289CE
:103D6C0083E022A3A3E0FCA3E0FDEEFAEFFB2234F8
:103D7C0000F50D850C82F58322E028FEA3E039FFC7
:103D8C008E828F83E02274F21217A7EAFEEBFF8972
:103D9C000B7401650B600E7402650B706B7901126C
:103DAC000911E97063EEFAEFFB12070D8A088B0913
:103DBC00EA45096048750A00800B7C177D00790084
:103DCC00120FB9050A900372E0F8E50AC398502265
:103DDC00E50A75F017A4F8A9F0850882850983A374
:103DEC00A3E028FAA3E039FB8A828B83123A944928
:103DFC0070C885088285098374FFF0A3F07CA57DCB
:103E0C0003EEFAEFFB12073D023C8D74F21217A77A
:103E1C008A088B09ECFEEDFF740E12178312360123
:103E2C00900FFBE0F4603D7A097B00120FCBEA4B5C
:103E3C0060328A828B8374B1F0A3E4123A9BA31292
:103E4C003A99A3E508F0A3E509123E73EEF0A3EF4F
:103E5C00123E73A3A3E50AF0A3E50BF0900FFBE071
:103E6C00F9120FD7023C8DF08A828B83A3A3A3A3F4
:103E7C00A322C082C0839061907404F0A37448F0B4
:103E8C00A3E4F09061807440F09061BC7407F090F2
:103E9C0061877469F09061B67416F07900120A1992
:103EAC007902120A1F90254CE493F46006E493F90E
:103EBC001209F57905120D8502429FC082C083E973
:103ECC00540FF9906185E0696012E5C6548044494D
:103EDC00F5C6E59E547F644970F8E9F053C680E559
:103EEC009E547F70FA02429F74F71217A7E5A8FE42
:103EFC0053A87E120A01C2BA539AFEC289759B005E
:103F0C00C2C2120A0775A91175B905120A0DD2BAE7
:103F1C00439A0174805E42A80251C3C082C0839050
:103F2C006181E4F0A3F0A3F002429F75E900759162
:103F3C000075BF00020132C082C083906181E4F041
:103F4C00A374C0F0A3E480DFC082C08374F812179E
:103F5C003790047B125612700302403390047BE0BE
:103F6C00544060237908851882851983AA82AB8313
:103F7C00120B2D851882851983AA82AB831207CD6B
:103F8C0090047BE054BFF0E054806010790C7A1BF5
:103F9C007B08120B2D90047BE0547FF0E0A2E050E4
:103FAC000F7900120A191207D390047BE054FEF02B
:103FBC00E05402600F7901120A191207D390047BA6
:103FCC00E054FDF0E05404600F7900120A1F120750
:103FDC00D990047BE054FBF0E05408600F79011297
:103FEC000A1F1207D990047BE054F7F0E0541060DC
:103FFC000F7902120A1F1207D990047BE054EFF0DC
:10400C00E05420600F7903120A1F1207D990047B29
:10401C00E054DFF0A3E05401600D120A2B1207DF0D
:10402C0090047CE054FEF0740812174D02429FC0BD
:10403C0082C083E9600514602A804F90619A7433C2
:10404C00F0A37455F09061A0743AF09007F5E06419
:10405C00017009C29190047D7467802D90047D7469
:10406C0061802690619A743FF0A3745AF09061A01D
:10407C00747FF09007F5E064017009D29190047D93
:10408C007471800590047D746AF002429FC082C0F6
:10409C0083E9600B14600D14601714600C80209081
:1040AC002550801590255180109007F5E064017023
:1040BC00059025528003902553E493906186F0027D
:1040CC00429F74EE1217A774F41217378518828565
:1040DC001983AC82AD837583907582DE74041216DD
:1040EC004A90255093F460030241F8907808E0C39D
:1040FC00940250030241D87404121783AC82AD832E
:10410C0075839075821D740812164AFC7EFF7FFF22
:10411C008E0C7D008C8285820E800F74086D606D14
:10412C0074096D6068740A6D60638D08750900749C
:10413C000278081217241242021215EFA909E50A97
:10414C00C9F888107418780812150AE5104508FA91
:10415C00E9FBE50EC333F8E433F97404121783E575
:10416C008228F582E583391248F4C3E89AE99B402A
:10417C0008E8C39AF8E99B8006EAC398F8EB99F92A
:10418C00C3E89EE99F5006E8FEE9FF8D0C0DEDC3D8
:10419C009413408774FF6E700374FF6F6024850C5A
:1041AC0008740278081217241242021215EF8518AF
:1041BC0082851983E582250EF582E583124D0DE586
:1041CC0008F00CECC39404500302411875080175F7
:1041DC00090078081219BA7402121783AC82AD83E5
:1041EC007A547B09121211740212174D740C1217A7
:1041FC004D7F0A02187974482508F58274783509C0
:10420C00F583780822C082C083906186E0F89025FF
:10421C0053E493687009902552E493906186F09072
:10422C0061AE7468F0A3746AF090624574FBF0A3FD
:10423C0004F053F4FD43FE029007F57401F0906115
:10424C00A0E0643A7004790080027901120A190224
:10425C00429F7F04021879C082C0839007D3E06428
:10426C000170139007D9E0F87401686019E87006C2
:10427C00A3E0640160109007EAE06401700C900701
:10428C00F0E064017004790C800279008005E0F99B
:10429C001224CAD083D08202013212499A94062287
:1042AC00E0C4333354C022C082C0839007DD742530
:1042BC00F09007DB7401F0A3E4F07A01FB120D011E
:1042CC001242FF2416F582E8124D0D744FF0A374C0
:1042DC000AF09007DAE0640170169007D9E07010CC
:1042EC007901120D61120D31120D5B7900120D6DF9
:1042FC0002429F9007C91246832274F61217A774C4
:10430C00FA1217379007D2E064017008120A37903E
:10431C0007D2E4F075E1F11242FF2415F582E812A0
:10432C004D0D7401F09007D4E06401705390902C03
:10433C00C082851882851983AC82AD83758390D039
:10434C0082740612164A75D90D9007CB1242AC44F2
:10435C0003F5D97800880874CC12529C7407124269
:10436C00A640F278008808851882851983E58212A8
:10437C00529CE5831242A640EC75E19579018002CE
:10438C007900120D0790101D1243FC74D5F0A37424
:10439C000BF0A31243FC1243FC12455074DBF0A348
:1043AC00740B1245659007CBE0F97ACC7B07120CA5
:1043BC00E39007DDE0F91224CA7901120D0D9090FB
:1043CC00C612160D120D2590904A12160D120CEFF6
:1043DC007900120D791242FF2414F582E8124D0D6A
:1043EC007416F09004797405F00412174D024A0407
:1043FC0074CFF0A3740BF0A32274F41217A78908DE
:10440C00A8081251089007E2E0F97AE37B07120C36
:10441C00E39007F0E0701A7900120D439007B8E0B2
:10442C0070047900800279017AB97B07120CE9805B
:10443C00057901120D4375E1F175D9239007E2124C
:10444C0042AC4405F5D97800880A74E3250AF58254
:10445C0074071242A640F175D90075D90075D900C0
:10446C0075D90075D90075D9007A0012555E2422D1
:10447C001248B340F67A0012555E2426F582E912F2
:10448C004A0C0AEAC3940340EEEE242B124A097A32
:10449C000012555E242C1248B940F67A0012555E73
:1044AC00242E1248B940F67A0012555E2430124878
:1044BC00B940F67A0012555E24321248B940F67AA9
:1044CC00008A0AEE250AF8EF124E251248C594050B
:1044DC0040EFEE2437F582EF12505C541FF8EE24B7
:1044EC002AF582EF12505CC43354E048F5D975E1DB
:1044FC009590101D749FF0A3740BF0A374A5F0A3FA
:10450C00740B12454774ABF0A3740B1245659007FE
:10451C00EFE0F91224CA9090C612160D120D2590D8
:10452C00904A12160D120CEF90600DE4F079011206
:10453C000D799004797406F002425EF0A312455096
:10454C0012455022124554227499F0A3740BF0A317
:10455C007499F0A3740BF0A32212456922F0901009
:10456C002B124575A3124575221245547499F0A36C
:10457C00740BF02274EC1217A79007E012511F78FD
:10458C00101215EF9007F1E0FAF875F005A4C8AC1D
:10459C00F02CF974D728F582740439F583E0FEA366
:1045AC00E0FFEEC333FEEF33FF8E0CF50D750E00FE
:1045BC00750F0085100885110985120A85130B905B
:1045CC0090CE780812155578081219B68510088502
:1045DC00110985120A85130B7808790C121542788B
:1045EC0010790C12149BE4F50EF50F7808790C1267
:1045FC00157B8A0C750D007403780C12172478083F
:10460C00790C1215429090BA78081215B6AA08AB1C
:10461C0009AC0AAD0B122462740412174D8A088B74
:10462C0009A808A909C3EE98EF995006E82EF8E9F5
:10463C003FF9E890600EF0E9A3F0EEA3F0EFA3F0E1
:10464C0090600D74C1F07F0C021879C082C0839009
:10465C0007C91246779007DD02429AC082C0839048
:10466C0007E01246779007EF02429A12468324061F
:10467C00F582E8124AA522E0F8A3E0C82202013232
:10468C0074F21217A71247F6F50AEF124B83600467
:10469C00780480027800E8240EF8EAC398500302EC
:1046AC00475375080C9007FBE4F0EE2476F582EF87
:1046BC0012505C9007FCF07902EE2477FCEF34008A
:1046CC00FD7AFD7B07120B1B7902EE2479FCEF348B
:1046DC0000FD120B1B7902EE247BFCEF3400FD1263
:1046EC000B1B7902EE247DFCEF3400FD120B1BEE4C
:1046FC00247412480C120B1B850A82850B83E06014
:10470C001E7508FB75090778081219BA7C0C790319
:10471C00EEFAEFFB120B8D740212174D7508107424
:10472C00012508F5D975D90378008009880A74FB2E
:10473C00250A1247EBE8C3950840F175E195790419
:10474C00120D2B7901800279007F0602187974F220
:10475C001217A71247F6F508EF3400F50985088201
:10476C00F583E06004780480027800E8240AF8EA13
:10477C00C3984060750A089007FB7401F079057CBA
:10478C00BF7D077AFC7B07120B1BEE248012480CB2
:10479C00120B1B850882850983E0601E7508FB756A
:1047AC00090778081219BA7C087903EEFAEFFB12A4
:1047BC000B8D740212174D750A0C124A828003126B
:1047CC0047E5E8C3950A40F775E1957904120D2B7E
:1047DC00790180027900024755880874FB2508F599
:1047EC00827407125060F5D908221247FA22EAFEA9
:1047FC00EBFF9061D0E0F87480C398FAEE2482222B
:10480C00FCEF3400FD8E828F83A3A3A3A3A31256C7
:10481C00218C828D83E028F0A3E039F07902227498
:10482C00F61217A7EAFEEBFF9061D0E0707475D911
:10483C001875D90375D9037A008A08EE2508125524
:10484C0063249B1248CC40F17A008A08EE250812AA
:10485C00556324A31248B940F17A008A08EE250862
:10486C0012556324931248CC40F17A008A08EE2545
:10487C000812556324871248B340F175E195790805
:10488C00EE2493FAEF3400FB120B217904EE24870B
:10489C00FAEF3400FB120B217904120D2B1248D5C0
:1048AC0080027900024A041248BF9404221248BFC5
:1048BC00940222F582E91251B8E0F5D90AEAC32232
:1048CC001248BF94082275E195EE246FF582EF1221
:1048DC0051B4125621EE2471F582EF1251B4E8F066
:1048EC00A3E9F07901223400F5831256212274F6E3
:1048FC001217A7EAFEEBFF9007FB74061249A412ED
:10490C0019BA7C017903120B8D740212174D75D9EB
:10491C000675D903780012498A40FB75E19590041D
:10492C0079E064087017EE246FF582EF1248F2EE0E
:10493C002471F582EF124D0DE8F0A3E9F079010234
:10494C004A0474F61217A7EAFEEBFF9061D0E070F0
:10495C00299007FB740A1249A41219BA7C01790335
:10496C00120B8D740212174D75D90675D903780088
:10497C0012498A40FB1248D280027900807A88085A
:10498C0074FB2508F582740712499A94052212517A
:10499C00B8E0F5D908E8C322F07508FB750907786B
:1049AC00082274F61217A7EAFEEBFF9061D0E070B4
:1049BC004279019007FB740BF0900479E064077066
:1049CC00197508FB75090778081219BA7C010909D1
:1049DC00120B8D740212174D7905740129F5D975D6
:1049EC00D903780080031247E5E8C39940F81248D0
:1049FC00D2800279008001F07F02021879F582EFF3
:104A0C00125060F5D92274F51217A7124AAD600442
:104A1C00780480027800E8240BF8EAC398405275B9
:104A2C000A099007FB7408F0F9124A8E120B1B85C9
:104A3C000882850983E0601E7508FB7509077808F4
:104A4C001219BA7C097903EEFAEFFB120B8D740282
:104A5C0012174D750A0D124A8280031247E5E8C3FE
:104A6C00950A40F775E1957904120D2B1248D58003
:104A7C00027900024D037401250AF5D975D9037822
:104A8C000022EE24E4FCEF3400FD7AFC7B0722EEDE
:104A9C00241DF582EF124AA5221251B8E4F0A3F0BE
:104AAC00221247FAF8EF124AB6223400F988088924
:104ABC00098882F583E02274F31217A78A088B0900
:104ACC00124C19FAE5082482F50AEB124B836004A8
:104ADC00780480027800E82408F8EAC398500302AE
:104AEC004B7C750C069007FB740CF0900496E090D0
:104AFC0007FCF07402C0E0F97C977D047AFD7B071B
:104B0C00120B1BD0E0F97C997D04120B1B850A82D9
:104B1C00850B83E0601E750AFB750B07780A12196A
:104B2C00BA7C067903AA08AB09120B8D7402121712
:104B3C004D750C0A7401250CF5D975D903780080D4
:104B4C0009880A74FB250A1247EBE8C3950C40F15F
:104B5C0075E1957904120D2BE508246FF582E509B2
:104B6C001248F2E5082471F582E5091248E7800243
:104B7C0079007F050218793400F50B850A82F583DC
:104B8C00E02274F61217A7EAFEEBFF124C19FCEEAA
:104B9C002482F8EF124C9C60047A0480027A00EABA
:104BAC002404FAECC39A40607A029007FBEAF0EE18
:104BBC0024F6F582EF124C23601B7508FB75090770
:104BCC0078081219BA7C027903EEFA120B8D740272
:104BDC0012174D7A0674012AF5D975D9037800801D
:104BEC00031247E5E8C39A40F875E195EE24731279
:104BFC0052A1EE247F1252A1124A9B7904120D2B62
:104C0C00EE240D1248D880027900024A049061D03B
:104C1C00E0F87480C398221250609007FCF08882F0
:104C2C008983E02274F61217A7124C19FEEA24822B
:104C3C00F8EB124C9C60047C0480027C00EC240495
:104C4C00FCEEC39C40457C029007FB7407F0EA2401
:104C5C00F7F582EB124C2360177508FB7509077882
:104C6C00081219BA7903120B8D740212174D7C06B7
:104C7C0074012CF5D975D903780080031247E5E847
:104C8C00C39C40F875E195790180027900024A04D1
:104C9C003400F988828983E02274F51217A7E9FEA3
:104CAC00A2AFE433F50AC2AF7F00EA246EF8EB340E
:104CBC0000F980010F88828983E0F508EFC395081D
:104CCC0050188F08EA2508FCEB3400FDEC246AF53B
:104CDC0082ED12505C6E70DC8017EA2508FAEB341A
:104CEC0000FBEA246AF582EB124D0DEE124C2904FE
:104CFC00F0E50AA2E092AF7F03021879246AF582EC
:104D0C00E91251B42274F61217A7A2AFE433FFC212
:104D1C00AFEA246EF8EB125350E014F07E008019C9
:104D2C008E08EA2508F8EB125565246B125059C011
:104D3C00E0E8124D08D0E0F00E8C828D83E0F8EEA6
:104D4C00C39840DCEA246DF582EB124D0D74FF1212
:104D5C004D86EFA2E092AF024A04C082C083E5A860
:104D6C00F8C2AFEA246AF582EB124D0DE9124D86BA
:104D7C00E8A2E7A2E792AF02429FF0EA2469124D43
:104D8C008E22F582EB1251B8E4F02274F21217A7BE
:104D9C008C828D83A3A3A3A3E0541FF0EA243612C4
:104DAC0053468E828F83E4F0F50C850C8285820A43
:104DBC00EC250AF8ED124AB6C0E0EA250AF8EB1227
:104DCC004E25D0E0F0750D00850882850983E0F54D
:104DDC000A750B00E50D780A121705E50AA2E050DA
:104DEC0023E50C33333354F8250DC0E08E828F83CA
:104DFC00E0F8124FF92438124D0AD0E0F08E828F71
:104E0C0083E004F0050DE50DC3940840BB050CE5EB
:104E1C000CC3940540940247553400F9E8245DF521
:104E2C0082E91251B42274F41217A79004A5E0641D
:104E3C00037003024FDF7E00EEF875F005A4C8AADC
:104E4C00F02AF974AB28F582740439F583E0600319
:104E5C00024FD574A928FA740439FB8A828B83A378
:104E6C00A374011255B8A3A3A3E4F0EA2404F8EB4D
:104E7C00125565FCE9FDEE8C828D83F0EA246212FA
:104E8C004FE62467F582EB124D0D740112500BE4C2
:104E9C00F0A312500BA3A3125006240F124FE624BA
:104EAC0035F582EB1252A4F508F509F50AF50BEA73
:104EBC002418124FEE1215FEEA241C124FF4241D76
:104ECC00125002247F124FF42473124FF42468F50D
:104EDC0082EB124D0D7480124D86EA246E124FF443
:104EEC0024EC124FF424ED124FF424EE124FF42460
:104EFC00EF124FF424F012500224F212500224F557
:104F0C00124FF42482124FF424D2124FF424D312F1
:104F1C004FF424D4124FEE1215FEEA24D8124FEEA1
:104F2C001215FEEA24DE124FF424E0124FF424DCB6
:104F3C00124FF424E1124FF424E2124FF424F8122D
:104F4C00500224FA12500224FC12500224FEF58264
:104F5C00EB124AA1FE8E08EA2508F8EB12556512F1
:104F6C004D0874FFF00EEEC3940440E97E008E826F
:104F7C00A88274BF28F582740712505CC0E0124FEF
:104F8C00F9245D124D0AD0E0F00EEEC3940540DE1C
:104F9C007E008E82A882748D28F582740412505C77
:104FAC00C0E0124FF924E4124D0AD0E0F00EEEC32B
:104FBC00940840DE9004A5E004F0640170198C8222
:104FCC008D83E09004A7F0800E0EEEC39403500383
:104FDC00024E447A007B0002425E1251B17401F021
:104FEC00EA221251B1780822124D8EEA22EA28F8F0
:104FFC00EB3400F9E8221251B1E4F0A3F0EA22F00C
:10500C008A828B83A3A3A3A3A322C082C083EA2496
:10501C0003F582EB12505C6008E4F09004A6E014F7
:10502C00F09004A5E014F070069004A774FFF08AC9
:10503C00828B83A3A3E4F09007C4E0700D9004A6C8
:10504C00E0640170057900120CF502429FF582E9CB
:10505C00125060221251B8E022C082C0837B00EB58
:10506C00F875F005A4C8AAF02AF974A528F87404F8
:10507C00125270A3A3A3A3E4F088828983A3A3A3F1
:10508C00A3A3A3F00BEBC3940340D49004A5E4F0CA
:10509C00A3F0A374FFF075E1F102429F74F51217AF
:1050AC00A7750800750900750A00A80A1251088E28
:1050BC00828F83A3A3A3E0602BE5084509601D85BF
:1050CC00088285098312511F1219CD12511B121619
:1050DC000D122406740412174DE97008EEF8EFF95E
:1050EC0088088909050AE50AC3940340BD8508822E
:1050FC00850983A3A3A3A3E0F9024D03E875F0058A
:10510C00A4C8AAF02AF974A928FE740439FF228EC7
:10511C00828F83E0F8A3E0F5838882A3A32274F73F
:10512C001217A778FF79FF7F00EFFC75F005A4CC70
:10513C00AEF02EFD74A92CFC74043DFD8C828D8385
:10514C00A3A3A3E0603EEC2473F582ED12505CFE49
:10515C0074FF68700374FF69700774016E701C80B3
:10516C000D74016E700DEC24791251A45016EC24C0
:10517C0079800BEC242E1251A45009EC242EF582CC
:10518C00ED1248F20FEFC39403409EC3EA98EB99DB
:10519C004004E8FAE9FB801FF582ED1251B4C3E03C
:1051AC0098A3E09922F582EB1251B8223400F583D2
:1051BC0022A2E092AF79007F0102187974F61217DF
:1051CC00A7EAFEEBFFEE2463F508EF3400F5098047
:1051DC0016AA08AB09120B0F1212E39007C5E004D4
:1051EC00F09007C6E004F0850882850983125612F8
:1051FC0070DFEEFAEFFB120ABBEEFAEFFB120C17A4
:10520C00024A0474F71217A7EAFEEBFF8E828F8313
:10521C00A3A3A3A3E0FA7B00120827EEFAEFFB127C
:10522C000AD3120BF98090C082C0837B00EBF87517
:10523C00F005A4C8AAF02AF974A928F8740412522B
:10524C0070E06014E8246E125059600CE8246A1265
:10525C0050597004790180090BEBC3940340CE794B
:10526C000002429F39F988828983A3A3A32274F692
:10527C001217A778008808748D12529C740412526D
:10528C00A408E8C3940840ED90048D7401024A030D
:10529C002508F58222F582EF124D912274F7121730
:1052AC00A774FC121737851882851983E4F0A3F0D4
:1052BC00A3F0A3F0120B27E9851882851983F0124D
:1052CC000B277401121783E9F0120B2774021217C3
:1052DC0083E9F085188285198312160D7404121750
:1052EC004D0251C374F61217A7EA240D125346EC63
:1052FC002403F8ED3400F988088909EC2407F8ED4B
:10530C001253501248F6850882850983E0FAA3E00F
:10531C00FB1216AC8E828F83E8F0A3E91256188527
:10532C000882850983E0FAA3E0FB1216AC8B09EA2C
:10533C004509600312535C024A04F8EB3400F9E8A7
:10534C00FEE9FF223400F9E8FCE9FD8C828D832212
:10535C008E828F83E02401F0A3E03400F02274F6F7
:10536C001217A7EA242EF582EB12505CFCA3E0FD89
:10537C00EA246F125346780079FAECFAEDFB121618
:10538C00AC8E828F83E8F0A3E9F0780079FAECFA1E
:10539C00EDFB1216AC8B09EA4509600312535C0253
:1053AC004A0474F01217A7EAFEEBFF74101217836D
:1053BC0078081215EF120CAD8A0C8B0D8C0E8D0F1C
:1053CC009090CA780C1215559090BA780C1215B6AC
:1053DC00780C1219B612511B12160D1224067404F5
:1053EC0012174DE960030254968E828F83E02402DB
:1053FC00F8A3E0125565FAE9FB8A828B83780812D0
:10540C0015689090BA78081215EF8A828B83780809
:10541C001215C9EE240BF582EF124D0DC082C0831C
:10542C008E828F83A3A3A3A3A3E02401F8A3E0346B
:10543C0000F9D083D082E0687003A3E0697004792E
:10544C00018049EE2407F8EF3400F9888289831231
:10545C005360EE247312549D7014EE24741254A6EF
:10546C007003A3E06D70078A828B83125360EE2465
:10547C007F12549D7014EE24801254A67003A3E086
:10548C006D70078A828B8312536079007F08021833
:10549C0079F582EF125060640122FAEF3400FB8A36
:1054AC00828B83E0FCA3E0FD88828983E06C22740C
:1054BC00F31217A7E9FEECFFEA2462F582EB125413
:1054CC00A060030255599061D0E0F508EA2482F5FA
:1054DC0082EB12505CF50C60047804800278007446
:1054EC0080C39508FC95E0FDEF28F8E4125565247F
:1054FC0002F8E93400F9EC98ED99A2D265D033406A
:10550C0048740D121783E0F50AA3E0F50BE50C6067
:10551C0015780A1219BAEFFCEEF9120B8D740212FF
:10552C00174D74042FFF74012FF5D98ED978008094
:10553C000C8808E50A12529CE50B1247EFE8C39F52
:10554C0040EF75E195790080067907800279FF02BA
:10555C004B7E8A0AEE250AF8EF3400F9E82274F73C
:10556C001217A7A2AFE433F508C2AFEA2402F8EB96
:10557C003400F98A828B83E0FEA3E0FFEE4F600ECD
:10558C0088828983E0FAA3E0F5838A8280048A8288
:10559C008B83ECF0A3EDF0888289831255BEF0E585
:1055AC00080251BD8C828D83E8F0A3E9F08A828BCE
:1055BC008322ECF0A3EDF08C828D83E4F0A32274B3
:1055CC00F71217A7EAFCEBFD7A007B00A2AFE433DD
:1055DC00FEC2AF8C828D831256126022E8FAE9FB70
:1055EC008A828B831248F61255B0E4F0A312561837
:1055FC00E849700A8C828D83A3A3E4F0A3F0EEA299
:10560C00E092AF0251C3125621E84922F08C828DF0
:10561C008312562122E0F8A3E0F922C082C08380D5
:10562C0003125655E9F874FF28190470F4ECFAEDDE
:10563C00FB02429FC082C0838003125655E9F87466
:10564C00FF28190470F402429F8C828D83E08A82B9
:10565C008B83F08C828D83A3AC82AD838A828B8307
:10566C00A3AA82AB832274F01217A774FA1217370D
:10567C00890BECFEEDFF750A008A088B097808127D
:10568C0019FE000410B158B556D356ED56055723E4
:10569C00573B575E5776578A57B45731584258592B
:1056AC00587358B1589458CA577401650B6003026B
:1056BC0058AC8E828F83E0F8C3940340030258AC3D
:1056CC00E890103F0258A97402650B60030258ACB5
:1056DC008E828F83126068901040E8F0A3E9025824
:1056EC00A97401650B60030258AC1258DE4003022A
:1056FC0058ACE8900DBF0258A97401650B60030209
:10570C0058AC8E828F83E0F8C3940540030258ACEA
:10571C00E8900DC00258A97401650B60030258ACE7
:10572C001258DE40030258ACE8900DC10258A9741F
:10573C0010650B60030258AC7508107509007808E9
:10574C001219BA7AC27B0D120FA1740212174D02F4
:10575C0058D27401650B60030258AC1258DE40033A
:10576C000258ACE8900DD20258A97401650B600385
:10577C000258AC8E828F83E09010430258A97404B7
:10578C00650B60030258AC8E828F83780C1215EF78
:10579C0090904E780C1213FC50030258AC900DD420
:1057AC00780C1215FE0258D2E960030258AC1205AF
:1057BC0021E970051211938056900E67806374076F
:1057CC00650B60030258AC75080675090078081261
:1057DC0019BA8E828F83A3AC82AD83740212179593
:1057EC00120FA7740212174D7C007D00AA18AB197A
:1057FC008E828F83E0F9121133E9F508C3940A40C5
:10580C00030258CF120521E9700CA90812119979DD
:10581C0050121367806D74682508F582E4340EF518
:10582C0083740180787401650B70751258DE5070AA
:10583C00E8900DD380677401650B70648E828F8342
:10584C00E0F8C3940A5059E89010428050740165F6
:10585C000B704D8E828F83E0F874F928C3940A5034
:10586C003FE890104480367401650B7033900E66DF
:10587C00E0F88E828F83E0900E66F0E87048E0646A
:10588C00017043121187803E7401650B70128E8279
:10589C008F83E0F8C394045007E8901045F08026FD
:1058AC00750A188021C3EA9427EB940050157402F2
:1058BC00650B700F8E828F831263F8120407E9F563
:1058CC000A8003750A02A90A740612174D7F080292
:1058DC0018798E828F83E0F8C3940222740E12170B
:1058EC004D7F0402187974F21217A774DA12173765
:1058FC00890AECFEEDFF909044742012179D7406FB
:10590C0012164A742012179D121133E9F5087434DB
:10591C00121783E0F50BE9C3940A4003025A2612CE
:10592C001175E9F50990103FE06402700474018070
:10593C0001E4F50C780C1219BEAD0BAC09A908EEFC
:10594C00FAEFFB1211BD740112174D7C147D007916
:10595C0000740C121795120FB975F006E508A4F532
:10596C000B740C12179D7A107424250BF912136109
:10597C00E970357C1079FF740C12179512101FE921
:10598C007026741C121783AC82AD837A047425259F
:10599C000BF9121361740C12179DE509A2E0E433A4
:1059AC00F9EEFAEFFB12049DAC18AD197A0C747079
:1059BC002508F9121361E9704DAA18AB1912116977
:1059CC00750800E50875F003A4F8A9F08518828520
:1059DC001983E58228F8E58312620C1263F2601DCC
:1059EC0088828983A3A3E0F50C750D00780C12193D
:1059FC00BAEEFAEFFB120731740212174D0508E5E7
:105A0C0008C3940440BDE509A2E15046900DBEE0E8
:105A1C00F9EEFAEFFB12073780387408650B703219
:105A2C0090103FE06402702A7C007D00A90AEEFA17
:105A3C00EFFB1211B7126BBB601812606D88828974
:105A4C0083E5824583600B7C007900EEFAEFFB1254
:105A5C0017A5790074260269AE74F01217A774F0BA
:105A6C00121737EAFEEBFF8C088D09750A0AE960FC
:105A7C000C14600914603B14607D025B5B12118195
:105A8C00E9F50AC3940A4003025B5BE5084509701B
:105A9C0003025B5B750C06750D00780C1219BAEEDF
:105AAC00FCEFFDAA08AB09120FA1740212174D02EC
:105ABC005B5B750C00750E06750F00780E1219BA2B
:105ACC00EEFCEFFDE50C75F00EA4F8A9F074E028DF
:105ADC00FA740D39FB120FB3740212174DE9700BE7
:105AEC00050CE50CC3940A506680CA850C0AE50ABD
:105AFC00C3940A505A8049750C00AC18AD197A1031
:105B0C0075F006E50CA42423F9121361E9701C7CD2
:105B1C001079FFAA18AB1912101FE9700EEEFCEFEA
:105B2C00FDAA18AB19120479E9600B050CE50CC33E
