:020000040000FA
:0600000002011A0221BFFB
:03002B0002292582
:0300530002223254
:03006B000228F375
:1000830002202BE5C754F84401F5C779012200008B
:100093000080FB120086B90003020104E479217891
:1000A30008B800028004F709D8FCE479297802B87B
:1000B30000028004F709D8FCE490028178C579072F
:1000C3008002F0A3D8FCD9FA781A90014A7A01BACF
:1000D30000028007E493A3F608DAF97A457B0990D6
:1000E300014B783D79048015E493A3AD82AE838AF6
:1000F300828B83F0A3AA82AB838D828E83D8E9D9C6
:10010300E775829F7583A4740312012C7582917520
:100113008300740012012C75D00075813F7518811E
:10012300751902759F00020096C09FF59FE473D076
:100133009F22D083D082C09FE493C0E0740193C018
:10014300E0740293F59F2201FF0000B40000280031
:100153002800283075A000A000A000A0000008001F
:1001630008E001F000100010001000100010001053
:100173000050005000500010001000D00700000095
:100183000000000F0001000500307507001000019A
:100193000081FF00000000FF8506A3068B06FF0217
:1001A300020208025000A0000000E80302B8810127
:1001B3000000A78102AE810100009C0902AC81010D
:1001C3000000B30202AE810100009D0902DE81013D
:1001D3000000C90202AE810100009E0902B0810144
:1001E3000000CB0202AE810100009F0902C4810816
:1001F3000000CC0202AE81010000A00902B481011B
:100203000000A109FF0100FF2002B881010000A145
:100213008102AE81010000050A02B68100000000E0
:100223000002AA8103000019035B0C5B0C5B0C5BEF
:100233000C5B0C5B0C5B0C5B0C5B0C5B0C5B0C5B83
:100243000C5B0CEF0E070FE90EFFFF020202020226
:1002530002020202010D000000100102B881010038
:1002630000A48102AE81010000480A02BE810100A0
:10027300005D0702AE81010000490A02C08101004E
:1002830000158102AE810100004A0A02C281010009
:1002930000F98002AE810100004B0A02E4810100F3
:1002A30000938002AE810100004C0A02CE8101005E
:1002B30000818002AE810100004D0A02CC81010061
:1002C30000B78002AE810100004E0A02CA8101001C
:1002D30000A58002AE810100004F0A02C88101001F
:1002E30000078102AE81010000500A02C6810100AD
:1002F30000510A01E803053F100AFA00FF0001302C
:100303007503020106000000000000000000000069
:1003130000000000000000000000000000000000DA
:1003230000FFFF0600800CE803140953696D706C2D
:1003330065424C455065726970686572616C05125F
:1003430050002003020A000201050302F0FF536973
:100353006D706C6520424C4520506572697068650C
:1003630072616C2113000027130A43686172616391
:100373007465726973746963203100024368617242
:10038300616374657269737469632032000843683A
:1003930061726163746572697374696320330010F9
:1003A300436861726163746572697374696320344D
:1003B300000243686172616374657269737469638F
:1003C30020350002B8810100009B8102AE8101004B
:1003D30000660B02D2810300002F09022281010073
:1003E30000670B02AE81010000780B02D48101008B
:1003F300003009022281010000790B02AE81010065
:10040300008A0B02D6810200003109022281010019
:10041300008B0B02AE810100009C0B02D88100000F
:1004230000320902AA81030000330902228101007C
:10043300009D0B02AE81010000AE0B02DA810400C5
:10044300003909022281010000AF0B104B657920AE
:1004530050726573732053746174650002B881012F
:1004630000009E8102AE81010000480C02E281007F
:1004730000003E0902AA810300003F090222810114
:100483000000490C12013543FE021201355AFE02E7
:100493001201358BFE02120135C6FE02120135F040
:1004A300FE021201351AFF0212013531FF02120159
:1004B3003548FF021201355FFF0212013588FF0242
:1004C3001201359BFF02120135B1FF02120135C43F
:1004D300FF02120135EBFF02120135B7A702120129
:1004E30035BBA802120135F3A80212013516A90281
:1004F30012013521A90212013544A9021201355313
:10050300AA0212013528AB02120135A3AB02120174
:10051300352BAC0212013566AC021201359DAC02DB
:100523001201352BAD0212013504AE0212013564FE
:10053300AE021201356FAE02120135EEAE021201A8
:1005430035F1AE02120135F4AE0212013583AF026A
:1005530012013586AF02120135B6AF02120135E042
:10056300AF02120135CEB00212013580B102120181
:10057300358DDB02120135B5DB02120135E3DB02F7
:100583001201351ADC0212013578DC02120135C37F
:10059300DC021201350EDD021201354EDD021201BD
:1005A3003594DD02120135C2DD021201357FDE0210
:1005B30012013589DE0212013596DE02120135C9B8
:1005C300DE0212013595DF02120135A1DF021201AD
:1005D30035B9DF02120135C3DF02120135A2A103CF
:1005E300120135B0A103120135C8A103120135E090
:1005F300A103120135CC700012013578710012018C
:1006030035F3710012013514730012013550730074
:10061300120135F97300120135E0740012013544FB
:1006230076001201359B76001201351C770012010A
:10063300350C7800120135597800120135DF780046
:10064300120135117900120135257B00120135673E
:100653007B00120135857B00120135087C001201F5
:1006630035DC7C00120135A47D00120135CAC902B4
:100673001201359DCA0212013546CB02120135998A
:10068300CB0212013549CC02120135D5CC0212013D
:1006930035C1CD02120135F0CD0212013503CF026F
:1006A3001201354BCF0212013520D0021201355C05
:1006B300D00212013578D002120135BCA303120116
:1006C300350080031201351680031201353C800387
:1006D30012013558810312013562810312013597E6
:1006E30082031201358F830312013566D60212018C
:1006F3003596D702120135C9D70212013513D80234
:10070300120135DAD90212013524AA011201358EFC
:10071300AA01120135EDAB01120135FDAB01120146
:10072300352AAC0112013581AC011201352AAD0124
:1007330012013531AE01120135FBAE011201355BF9
:10074300B0011201359EB00112013543B10112010E
:100753003590B101120135B6B101120135C4B301AF
:10076300120135C9B301120135CEB5011201351B92
:10077300B6011201358EB601120135C1B60112015F
:100783003563B7011201350CB80112013544B801C4
:1007930012013547B8011201358FB801120135CF67
:1007A300B80112013526B901120135288A03120155
:1007B30035408A03120135888A031201359E8A0364
:1007C300120135E58A03120135F98B0312013586CF
:1007D3008C03120135D18C03120135542900120107
:1007E300356029001201359B2900120135E02900EB
:1007F300120135A02A00120135262B001201358B78
:100803002B00120135B72B00120135F02B0012011A
:10081300352E2E00120135123000120135F8310049
:100823001201353B33001201358935001201359B26
:100833003600120135E63700120135F63800120191
:10084300351339001201354E390012013570390064
:10085300120135D33900120135943E0012013529B6
:100863003F001201357A3F00120135A13F0012010A
:1008730035F33F001201351140001201356B400082
:10088300120135544100120135CA42001201354E9E
:1008930043001201354AE00212013554E00212010D
:1008A3003597E002120135B2E00212013542E1024E
:1008B3001201356AE102120135A7E102120135DEA8
:1008C300E10212013507E2021201357CE202120154
:1008D3003591E202120135A6E202120135D7E20296
:1008E300120135EBE20212013510E3021201354A1F
:1008F300E30212013576E302120135AEE30212017F
:10090300352DE40212013576E402120135A0E4022A
:10091300120135CBE4021201359D9D03120135E42A
:100923009A02120135129B02120135609C021201D8
:1009330035409D021201355F9D02120135DC9D0297
:100943001201351F9E02120135759F0212013536C1
:10095300A002120135BDA2021201355EA3021201EB
:100963003554A40212013551A502120135ABA6027A
:1009730012013536A702120135199B031201358284
:100983009B03120135D69B03120135FD9B03120114
:10099300352E9C031201357FE902120135ECE90281
:1009A30012013533EA021201354BEB0212013547CE
:1009B300EC021201352AED02120135F1B1021201E6
:1009C3003533B20212013505B302120135DEB3022B
:1009D300120135D8B402120135BAB502120135231A
:1009E300B602120135D9B6021201354DB702120112
:1009F30035B9B702120135E2B7021201355CB8020C
:100A0300120135F5B8021201355AB9021201356FD8
:100A1300B902120135B5B902120135CEB90212017C
:100A23003533BA0212013536BA021201352F870364
:100A33001201355787031201359587031201355388
:100A43008803120135BA8803120135D688031201CF
:100A530035FE88031201352E89031201353D8903C2
:100A6300120135BA8903120135E0890312013513E6
:100A7300BA01120135F1BB0112013523BE01120186
:100A8300355FBE011201358CBE0112013576BF01FF
:100A9300120135C1BF011201350CC0011201351E0F
:100AA300C0011201355EC00112013593C00112016C
:100AB30035E1C00112013510C10112013533C10105
:100AC30012013580C10112013505C2011201351F22
:100AD300C4011201355EC6011201359FC601120120
:100AE3003541C80112013582C801120135F5C8012B
:100AF3001201354BC901120135CF8D02120135CDDB
:100B03008E02120135669502120135879702120192
:100B130035529902120135BA9A02120135B54300D2
:100B2300120135644400120135914400120135D796
:100B33004400120135174600120135AD470012017A
:100B430035274800120135424800120135BD4800DF
:100B5300120135174A00120135774B001201357D1A
:100B63004C00120135DE4D00120135F74D00120124
:100B730035554E00120135434F00120135764F00B3
:100B8300120135E64F00120135605000120135AAFB
:100B930050001201357451001201354952001201FF
:100BA30035285300120135B3530012013521540087
:100BB300120135955400120135C054001201357FDE
:100BC3005500120135E45600120135015700120198
:100BD30035205700120135115800120135365800DF
:100BE300120135605800120135DB5800120135350A
:100BF30059001201359E5A001201354C5B00120157
:100C0300358D5B0012013510E6011201355EE601F8
:100C13001201356AE60112013548E70112013579FF
:100C2300E701120135AAE7011201352AE801120191
:100C33003562E801120135B4E801120135F1E8012A
:100C43001201350EEB0112013534ED011201351F8E
:100C5300EF0112013509F101120135492900120191
:100C6300351196011201354196011201351A9D0184
:100C73001201359F9E011201359CA4011201358496
:100C8300A501120135C1A501120135E4A501120127
:100C93003515A6011201351EA60112013528A6013C
:100CA30012013516A7011201350CA801120135BD39
:100CB3005B00120135BC5F00120135C25F001201F7
:100CC30035FD6600120135166C0012013575FA0206
:100CD3001201350BFB0212013521FB02120135977C
:100CE300FB021201350BFC0212013549FC02120111
:100CF30035BDFC0212013536FD021201353FFD02FE
:100D03001201354BFD0212013560FD021201359EC1
:100D1300FD02120135B4FD0212013513FE02120168
:100D230035ECED02120135F9ED0212013513EE0235
:100D330012013552EE0212013590EE02120135F521
:100D4300EE021201350AEF0212013515EF0212010C
:100D53003522EF0212013539EF0212013547EF0256
:100D630012013552EF021201355EEF021201356DA9
:100D7300EF0212013578EF021201359BEF021201E7
:100D83003542F00212013552F0021201356CF002C5
:100D930012013589F002120135A5F002120135CA9C
:100DA300F002120135D5F002120135EAF002120108
:100DB30035FEF0021201355FF10212013565F102D1
:100DC3001201356BF10212013571F10212013589FD
:100DD300F102120135BCF102120135E6D70112010D
:100DE300356AD80112013519D90112013578DA01B2
:100DF30012013599DC0112013585DD01120135BA85
:100E0300DD01120135DCDD011201358BDE0112013A
:100E13003583E001120135ACE0011201353EE101F9
:100E230012013570E1011201357DE101120135D462
:100E3300E101120135FAE10112013567E401120102
:100E4300356AE501120135C2E50112013575C901A3
:100E53001201357FCA0112013566CB0112013570CB
:100E6300CB0112013592CB011201359ECB01120148
:100E73003537CD0112013566CD0112013582CE0120
:100E8300120135DBCE0112013541D00112013520AB
:100E9300D1011201357CD101120135E9D1011201D1
:100EA3003524D20112013563D2011201351CD5015B
:100EB30012013536D501120135C2D501120135D0E3
:100EC300D50112013529D60112013537D601120198
:100ED30035AAD6011201350ED70112013558D701B3
:100EE300120135E4F30112013506F4011201352C28
:100EF300F60112013541F90112013559FA011201C6
:100F0300350CFB01120135EEFB01120135D79703B6
:100F1300120135FC97031201356E98031201355007
:100F2300C20212013559C20212013562C202120114
:100F33003539C302120135EAC40212013520C50254
:100F43001201355AC50212013590C502120135CA84
:100F5300C502120135FEC5021201352AC60212016D
:100F63003573C602120135ADC602120135F6C6024B
:100F73001201354EC70212013583C702120135DE55
:100F8300C70212013518C80212013569C8021201DD
:100F9300359FC802120135D9C80212013507C902AB
:100FA3001201352AC90212013579A203120135A5AE
:100FB300A20312013500A3031201350AA303120190
:100FC300351AA303120135EDD002120135F7D00211
:100FD30012013535D1021201357ED102120135B825
:100FE300D1021201350ED2021201352FD2021201A3
:100FF3003538D20212013583D202120135ACD20246
:10100300120135B6D20212013522D302120135B8CC
:10101300D30212013502D40212013532D402120175
:1010230035BBD402120135FBD40212013533D5028C
:1010330012013545D50212013564D5021201356D11
:10104300D5021201353CD602120135BA9F031201B3
:10105300353994031201356F9403120135A59403B6
:10106300120135EE950312013524A3031201353A1B
:10107300A30312013544A3031201358EA303120106
:101083003540A403120135F3E40212013508E502E9
:10109300120135B8E502120135F8E50212013511E6
:1010A300E60212013545E60212013592E60212010B
:1010B30035C6E60212013508E7021201350CE902D2
:1010C30012013572E902120135B1A003120135DABA
:1010D300A00312013503A1031201351BA103120161
:1010E300355DA103120135FB8C03120135208D03FD
:1010F3001201354A8D0312013540A503120135E76C
:1011030081011201354B8401120135FC8501120165
:1011130035FE86011201358787011201350B8801DF
:10112300120135308801120135698B01120135DD59
:101133008B01120135CE8C01120135088D0112018C
:1011430035488D01120135FB8E011201354E8F0199
:10115300120135978F0112013505900112013537C0
:1011630090011201354F9001120135649101120172
:10117300357491011201358F9201120135B192013B
:10118300120135E792011201358B9401120135CA20
:101193009401120135EC9501120135A5A503120145
:1011A30035F7A40312013536A503120135B6A5039D
:1011B30012013512FF0112013522FF0112013537E9
:1011C300FF01120135EBFF01120135B69E03120137
:1011D300353B9F03120135A19F03120135749C0314
:1011E3001201359B9C03120135F19C031201350357
:1011F3009D03120135539D03120135919D03120185
:1012030035949D0312013570F60212013581F60201
:10121300120135FEF602120135D3F702120135A58C
:10122300F902120135FFF90212013556FA021201D1
:1012330035F87F001201350492031201358F9303B1
:10124300120135F093031201353694031201357CF4
:101253009903120135CC9903120135559A031201F2
:1012630035BB9A03120135C78F03120135F18F0382
:10127300120135B790031201359291031201355AC9
:10128300BA0212013517BB0212013552BB02120119
:10129300357ABB02120135DCBB0212013528BC02D0
:1012A30012013588BC021201351BBD021201351A29
:1012B300BE02120135A9BF021201352CC002120170
:1012C3003593C002120135AAC002120135B4C1021E
:1012D300120135F2C102120135008002120135609C
:1012E3008302120135E884021201353F850212019F
:1012F300355E8502120135DC85021201356C8702E9
:101303001201355088021201355C8C021201352C12
:101313008D0212013539F20212013595F4021201E0
:1013230035A7F50212013547F602120135998303F9
:10133300120135DE8303120135FB8303120135B13C
:101343008403120135048503120135E2850312017A
:1013530035F686031201352896031201356D96037F
:10136300120135C196031201353F97031201359ED1
:101373009703120135BD7F0012013587A503E0668F
:10138300701008A3E066700A08A3E066700408A35F
:10139300E06622C3E7960809E7960809E796080975
:1013A300E79622C3E09608A3E09608A3E09608A375
:1013B300E09622C008C3E096F50808A3E096420829
:1013C30008A3E096420808A3E09645087001D3D02D
:1013D3000822080808EAC0E0EBC0E086F0E7A4FAB8
:1013E300180986F0E7A42AFA180986F0E7A42AFA6E
:1013F300180986F0E7A42AFA1986F0E7A4FBE5F0BA
:101403002AFA190886F0E7A42BFBE5F03AFA190843
:1014130086F0E7A42BFBE5F03AFA18180986F0E703
:10142300A4C5F02BFBE43AFA1908E7C5F0C6A426D5
:10143300F6E5F03BFBE43AFA1886F0E7A4F6E5F0AC
:101443000826F6E43B08F6E43A08F6D0E0FBD0E0E1
:10145300FA22E4CFC0E0E4CEC0E0E4CDC0E0E4CCC7
:10146300C0E075F020E626F608E633F608E633F624
:1014730008E633F6181818EC33FCED33FDEE33FEB3
:10148300EF33FFC3EC9709ED9709EE9709EF97192F
:101493001919400FFFEC97FC09ED97FD09EE97FE34
:1014A300191906D5F0BFECF709EDF709EEF709EFC7
:1014B300F7191919D0E0FCD0E0FDD0E0FED0E0FF31
:1014C300226016080808C6C313C618C613C618C672
:1014D30013C618C613C6D5E0EA2270090808082205
:1014E3006016181818C6C333C608C633C608C633F1
:1014F300C608C633C6D5E0EA22E627F60809E6376A
:10150300F60809E637F60809E637F622E026F60874
:10151300A3E036F608A3E036F608A3E036F622E0A9
:1015230026F008A3E036F008A3E036F008A3E0367F
:10153300F022C3E697F60809E697F60809E697F658
:101543000809E697F622C3E096F008A3E096F008B0
:10155300A3E096F008A3E096F022E657F60809E622
:1015630057F60809E657F60809E657F622E056F655
:1015730008A3E056F608A3E056F608A3E056F622C1
:10158300E056F008A3E056F008A3E056F008A3E005
:1015930056F022E0F608A3E0F608A3E0F608A3E07D
:1015A300F622E6F008A3E6F008A3E6F008A3E6F0C7
:1015B30022E0FAA3E0FBA3E0FCA3E0FD22EAF0A310
:1015C300EBF0A3ECF0A3EDF022E0F8A3E0F9A3E045
:1015D300FAA3E0FB22E8F0A3E9F0A3EAF0A3EBF01F
:1015E30022CAC0E0E6F0A308DAFAD0E0FA22CAC0C1
:1015F300E0E0A3C582CCC582C583CDC583F0A3C576
:1016030082CCC582C583CDC583DAE6D0E0CA22C3C6
:10161300E498F8E499F91216538026C3E49AFAE49D
:101623009BFBE920E7E9121653E498F8E499F922C1
:10163300C3E498F8E499F9121653E498F8E499F995
:10164300C3E49AFAE49BFB22EB20E7CFE920E7E02F
:10165300B90010BB0008E88AF084F8AAF022E4FB82
:10166300C8FA22EB70227B10C833C8C933C9335080
:1016730007C39AC3DBF280069A50012ADBEAC83318
:10168300F4C8C933F4C9FA2275F008E4C833C8C9E9
:1016930033C933C99AC99B5004C92AC93BD5F0EC55
:1016A300FBC833F4C8E4C9FA22600D08C6A2E713E5
:1016B300C618C613C6D5E0F322600C08C6C313C60A
:1016C30018C613C6D5E0F422700422600D18C6C3F1
:1016D30033C608C633C6D5E0F41822251810AF0860
:1016E300F518400C15198008F51840021519D2AFEA
:1016F3002200C0D0251810AF08F518500C0519802A
:1017030008F51850020519D2AFD0D0222518F5825A
:1017130010AF08F518400C15198008F5184002158C
:1017230019D2AF851983222518F582E43519F5837B
:10173300222518F8E43519F9222518FAE43519FB9E
:10174300222518FCE43519FD22E4732518C582C04F
:10175300E0E51934FFC583C0E0E518C3958224F89A
:1017630010AF0885831985821880088583198582BF
:1017730018D2AFCEF0A3E520F0A37808E608F0A3D3
:10178300DEFAEFF0A3E58124FAF8E608F0A3E60811
:10179300F0A3E608F0A30808E608F0A3E608F0A320
:1017A30015811581D0E0FED0E0F8158115811581F2
:1017B300E8C0E0EEC0E0222518C582C0E0E5193498
:1017C300FFC583C0E0E518C3958224F910AF0885EF
:1017D30083198582188008858319858218D2AFCE34
:1017E300F0A3E520F0A37808E608F0A3DEFAEFF013
:1017F300A3E58124FBF8E608F0A3E608F0A30808B4
:10180300E608F0A3E608F0A315811581D0E0FED029
:10181300E0F815811581E8C0E0EEC0E02285198368
:10182300851882E0A3FEE0A3F5207808E0A3F6087C
:10183300DFFAE0A3FFE0A3C0E0E0A3C0E0E0A3C0C1
:10184300E0E0A3C0E0E0A3C0E010AF088582188504
:1018530083198008858218858319D2AFD083D082FB
:10186300020132851983851882E0A3FEE0A3F520E7
:101873007808E0A3F608DFFAE0A3FFE0A3C0E0E006
:10188300A3C0E0E0A3C0E0E0A3C0E010AF088582FE
:10189300188583198008858218858319D2AFD08370
:1018A300D08222C0D02518C582C0E0E51934FFC517
:1018B30083C0E0E518C3958224F310AF088583192C
:1018C3008582188008858319858218D2AFC8F0A352
:1018D300E9F0A3EAF0A3EBF0A37908E709F0A3D8B2
:1018E300FAECF0A3EDF0A3EEF0A3EFF0A3D0E0F059
:1018F300A3D0E0F0A3D0E0F0A3E520F0A3E5F0F05F
:10190300A322851983851882E0C0E0A3E0F9A3E050
:10191300FAA3E0FBA37808E0F608A3DFFAE0FCA350
:10192300E0FDA3E0FEA3E0FFA3E0C0E0A3E0C0E08E
:10193300A3E0F5D0A3E0F520A3E0A3F5F010AF08F2
:101943008583198582188008858319858218D2AF0B
:10195300D082D083D0E0F8D0E032740480067402E1
:1019630080027401C0E0F40412170FD0E01215E4F2
:10197300227404800474028000CCC0E0EDC0E0E572
:1019830018C39CCCAD1950011D10AF068C188D19CE
:1019930080068C188D19D2AF1215F1D0E0FDD0E07E
:1019A300FC22D083D082E9C0E0E493A3C386F0C5D0
:1019B300F095F0F908E493A386F0C5F095F0700B69
:1019C300E493A3C3994005E9048002A3E475F002FC
:1019D300A42582F582E5F03583F583D0E0F9E4931D
:1019E300A3C0E0E493C0E022D083D082ECC0E0ED5A
:1019F300C0E0E493A3FCE493A3FDED4C600D121A45
:101A030037EC24FFFCED34FFFD80EFE493A3FCE40B
:101A130093A3FDED4C600D121A76EC24FFFCED341C
:101A2300FFFD80EFD0E0FDD0E0FCE493A3C0E0E451
:101A330093C0E022C0E0C3E4939608740193961820
:101A4300400FE49366700808740193661870007081
:101A530019A3A3C3E49396087401939618A3A34010
:101A63000DD0E0D0E0D0E0021A27A3A3A3A3A3A341
:101A7300D0E022C0E0C0F088F0E4936670080874F8
:101A8300019366187000A8F0A3A3700BD0F0D0E008
:0E1A9300D0E0D0E0021A27A3A3D0F0D0E022CA
:101AA40074F51217BAEAFEEBFFEE2434F8EF3400B3
:101AB400F988088909EE2435F582EF3400F583E0CE
:101AC400F8EE2437F582EF3400F583E0F50AEC856F
:101AD4000AF0A4FCAAF0850AF0EDA42AFDE82CF88B
:101AE400E43DF97A257B00121653EA8508828509BC
:101AF40083F0F8740758F97401B900028004C33301
:101B0400D9FCFAE8131313541FF8EE28F8EF340045
:101B1400F9E8245DF582E93400F583E05A6008EEC3
:101B24002434F582EF802CEE2434F582EF3400F572
:101B340083E0C0E0EE2436F582EF3400F583E0F56F
:101B4400F0D0E084A8F0EE28F8EF3400F9E8243867
:101B5400F582E93400F583E0F97F0402186674F530
:101B64001217BAEAFEEBFFEE2434F582EF3400F5E7
:101B740083E0C0E0EE2435F582EF3400F583D0E055
:101B8400F08E828F83A3A3A3A3A3A3A3C082C08345
:101B94008E828F83A3A3A3A3A3E0F8A3E0F9D08349
:101BA400D082E0C398F508A3E099F509EE247FF507
:101BB40082EF3400F583E064017069EE2480F582DD
:101BC400EF3400F583E0F8A3E0F98E828F83A3A3BA
:101BD400A3A3A3A3A3E0FCA3E0FD8E828F83A3A30E
:101BE400A3A3A3E0FAA3E0FBC3EA9CEB9D5010C3BC
:101BF400EC98ED99402EC3EA98EB995027800EC3D8
:101C0400EA98EB994007C3EC98ED9940177CDC7D8A
:101C140004EEFAEFFB120BB9EE247FF582EF3400E9
:101C2400F583E4F0EE2434F8EF3400F9E8FCE9FD40
:101C3400EE2435F582EF3400F583E0F8EE2437F531
:101C440082EF3400F583E0F50AE508850AF0A4F58F
:101C540008AAF0850AF0E509A42AF509E82508F898
:101C6400E43509F97A257B00121653EA8C828D83B8
:101C7400F0F8740758F97401B900028004C333D929
:101C8400FCFAE8131313541FF8EE28F8EF3400F9A4
:101C9400E8245DF582E93400F583E05A6008EE2417
:101CA40034F582EF802CEE2434F582EF3400F58392
:101CB400E0C0E0EE2436F582EF3400F583E0F5F081
:101CC400D0E084A8F0EE28F8EF3400F9E82438F5E1
:101CD40082E93400F583E0F91228DF021B5DC0823B
:101CE400C083851882851983E0F8A3E0F9C3EA9CD0
:101CF400EB9D5010C3EC98ED99401BC3EA98EB9907
:101D04005014800EC3EA98EB994007C3EC98ED9900
:101D14004004790180027900D083D08222EAC39CF6
:101D2400FAEB9DFB2274EF1217BA9003A2E0640849
:101D34006005E06407702A9061C8E060249003D0D5
:101D4400E0F4601DE0F875F003A4C8AAF02AF97461
:101D5400D228FE740339FF8E828F83A3A3A3E0707D
:101D640003021E59906060E0C0E0EE2468F582EF43
:101D74003400F583D0E0F0750C45750D0575080049
:101D8400750900E5D914F50AE5D95403F50E601771
:101D94007403650E605CE50A6010EE2467F582EF5B
:101DA4003400F583E07003021E3E900540E06401B8
:101DB400602AEE2482F582EF3400F583E060047833
:101DC4000480027800850A08E508C398FA95E0FBC8
:101DD400120A818A088B09EA45097005120DBD8033
:101DE40074EE2482F582EF3400F583E070048A0CEB
:101DF4008B0DE50A6012850C82850D83F50BE5D900
:101E0400F0A3150BE50B70F6EE2482F582EF340097
:101E1400F583E0604474FC250AF50A780C12196114
:101E2400AC0AA90EEEFAEFFB120C5574021216F46A
:101E3400E97026AA08AB09121255793D8E828F8368
:101E4400A3A3A3A3E0FA7B00120955EEFAEFFB1259
:101E54000BD1120C67790080747403650E6056858B
:101E64000A107511007810121961AC0CAD0DAA0896
:101E7400AB09120C3174021216F4EE2468F582EFE9
:101E84003400F583E064807004747F8001E0F50C15
:101E9400780C121965E50EF50C780C121965A90A6F
:101EA400AC08AD099003D0E0FA7B00120919740262
:101EB4001216F480139003A2E06408600BAC0CAD1E
:101EC4000DEEFAEFFB120CC1120DC979017F0A0263
:101ED400186674F51217BA74FC1216DEEAFEEBFFEC
:101EE4008908A2AFE433F509C2AF806AEE2463F82F
:101EF400EF3400F97A007B00A2AFE433F50AC2AFF5
:101F040088828983E0FCA3E0FDEC4D603A888289F5
:101F140083E0FAA3E0FB8A828B83E0FCA3E0FD88E4
:101F2400828983ECF0A3EDF08A828B83E4F0A3F042
:101F340088828983E0FCA3E0FDEC4D700A888289E5
:101F440083A3A3E4F0A3F0E50AA2E092AF12125532
:101F54009004E3E004F0EE2463F582EF3400F583AB
:101F6400E0F8A3E0F9E849603DEE2463F582EF343C
:101F740000F583E02402FAA3E03400FBEA2402F52E
:101F84000AEB3400F50B780A1219618A828B83E01C
:101F9400FCA3E0F9EEFAEFFB120BF574021216F44F
:101FA400E97003021EF09004E3E060639004E4E04F
:101FB400F89004E3E0C398500C74026508705090E4
:101FC40004E5E0604A8E828F83A3A3A3A3E085186F
:101FD40082851983F0A3E4F09004E3E0F87402121C
:101FE400172AE8F0A3E4F09004E3E0F89004E2E0B8
:101FF40028F0740212172AAC82AD838518828519E1
:1020040083AA82AB8379011209259004E3E4F0E505
:1020140009A2E092AF74041216F4021B5D000000E2
:102024008521878522C622C0E0C0D0E8C0E0E9C08F
:10203400E0EAC0E0EBC0E0ECC0E0EDC0E0EEC0E000
:10204400C008C009C00AC00BC082C083C0F0A2AFE0
:10205400E433FEC2AF759B00906182E0A2E05012AF
:10206400E591A2E0500C7591FE7401652170031294
:102074001D29E0A2E55051E591A2E5504B7591DF91
:102084009003A2E064076005E064087023740165AE
:1020940021703579019003D0E0FA75F003A4CAA841
:1020A400F028FB74D22AFA74033BFB121ED6801864
:1020B400E0640D70139003C4E004F064287002E43B
:1020C400F07A00E0F9120DCF906182E0A2E64003BD
:1020D400022172E591A2E640030221727591BF903C
:1020E40003A2E064057008120CF7120D03800312BA
:1020F4000CFD752100120D5DE99003A3F079001227
:102104000D51120B2F7A017B009003A1E0F91210FC
:1021140021907803E064427055900544E014F07017
:102124004DC2AF12212A00782AD0E0F618D0E0F68A
:10213400E59F540770057509FF800375097FC4C0C6
:10214400E07829E6F50808E65509F509740B7808DE
:102154001216BCD0E02508F8906270E0A2E740F8BF
:10216400E8C333906272F0906270E0D2E0F0906164
:1021740081E0A2E35009E5E9A2E3500375E9F7A37E
:10218400E0A2E75009E591A2E7500375917FEEA222
:10219400E092AFD0F0D083D082D00BD00AD009D057
:1021A40008D0E0FED0E0FDD0E0FCD0E0FBD0E0FAC7
:1021B400D0E0F9D0E0F8D0D0D0E032C0E0C0D0C058
:1021C40082C083906183E0A2E05009E5BFA2E050A1
:1021D4000375BFFEE0A2E15009E5BFA2E15003751B
:1021E400BFFDE0A2E25009E5BFA2E2500375BFFBC8
:1021F400E0A2E35009E5BFA2E3500375BFF7E0A2F4
:10220400E45009E5BFA2E4500375BFEFE0A2E55036
:1022140009E5BFA2E5500375BFDFE0A2E65009E57A
:10222400BFA2E6500375BFBFD083D0828088C0E0D0
:10223400C0D0E8C0E0E9C0E0EAC0E0EBC0E0ECC038
:10224400E0EDC0E0C0F0E5A7A2E6500FE5A1A2E6EC
:10225400500953A7BF75A1BF122297E5A7A2E55065
:102264000CE5A1A2E5500653A7DF75A1DFE5A7A2FF
:10227400E15009E5A1A2E1500375A1FDE5A7A2E2A1
:10228400500CE5A1A2E2500653A7FB75A1FBD0F0C8
:102294000221A874F81217BA7521019003A2E06410
:1022A400067015120C858A828B83A3A3A3A3A3A310
:1022B400E0FAA3E0FB120CE5A2AFE433FED2AF9048
:1022C40003A8E0640170187A207B009003A1E0F970
:1022D4001210AB7A207B009003A1E0F91210279032
:1022E4006182E0D2E6F0900541E0602185C622805B
:1022F400169003A7E064017008E5C654F84405F598
:10230400C653BEFC1220247401652160E4EEA2E0F1
:1023140092AF7F01021866008E238F248582288560
:102324008327851882851983E0CEA3E0CF85288290
:10233400852783EBC9EAC8EDCBECCA75F010C3E876
:1023440033C8E933C9EA33CAEB33CBC3EA9EF52673
:10235400EB9FF525B35004AB25AA26EC33CCED3323
:10236400CDD5F0DAAE23AF242274E91217BA74F88B
:102374001216DE851882851983ECF0A3EDF08A0825
:102384008B099003A2E024F7C39405500675080155
:10239400022504120C858A0A8B0BAE0AAF0BEE4F92
:1023A4007003022501AC08AD09740212172AAA822F
:1023B400AB83120D158E828F83A3A3750CFF750D4D
:1023C400FF750EFF750F00780C121570740212174A
:1023D4002A7510FF7511FF7512FF7513007810121E
:1023E4001570780C7910121396502A780C79101203
:1023F40015357508017509C8750A00750B0078084C
:10240400790C1213965052850C08850D09850E0A15
:10241400850F0B80507514017515C8751600751756
:102424000085100885110985120A85130B7808792F
:102434000C12153578147908121396401C7508008F
:10244400750900750A00750B0178087910121535A5
:102454007808790C1214FC800C7508017509007554
:102464000A00750B00740978081214DD750C19F54F
:102474000DF50EF50F7808790C1214558E828F83A2
:10248400A3A3A3A3A3A3E0F8A3E0F97AD07B031248
:102494001653880C890DE4F50EF50F7808790C12A3
:1024A40014FC740612172AE0F8A3E0F97AD07B032F
:1024B400121653E8FA8A0CE4F50D7808790C121315
:1024C4009650077808790C1215359003A2E0640839
:1024D400600AE064066005E06405702D750C0D78F3
:1024E4000C79081213964021750CF4750DFF750EC6
:1024F400FF750FFF7808790C1214FC800C75080026
:10250400750900750A00750B00851882851983E02A
:10251400F8A3E0F583888278081215A574081216CA
:10252400F47F1002186674F71217BA120D2790057B
:102534003FE064017010906245E4F0A3F053F4F3BB
:1025440043FE0C5390F3120CD3E5C654804449F572
:10255400C6E59E547F644970F8906185740FF090CD
:10256400053DE0F47002A3E0604E90053EE0600893
:1025740014601B14602E80407508017509009005D5
:102584003DE078081216CBE508F45280802A7508DD
:102594000175090090053DE078081216CBE508F4B2
:1025A4005290801475080175090090053DE0780883
:1025B4001216CBE508F452A079007F020218667463
:1025C400F71217BAE9FEEAFF74016E700C7A807B89
:1025D400009003A1E0F912102190294CE493F460D7
:1025E40008E493F9120B23800953C680E59E547FB7
:1025F40070FA120CD990053FE064017003120B3B92
:1026040090053DE0F47002A3E0604B90053EE0606D
:102614000814601A14602C803D7508017509009037
:10262400053DE078081216CBE5084280802875083D
:102634000175090090053DE078081216CBE50842C3
:1026440090801375080175090090053DE078081223
:1026540016CBE50842A0120D27120C858A088B09B7
:10266400A808A909E8496015E5E170FCE82414F517
:1026740082E93400F583E0F46003E0F5E174016F6E
:10268400700A7A019003A1E0F91210750225BE7454
:10269400ED1217BA8A088B098C0A8D0B7413121762
:1026A4002A780C1215967808790C12139675100175
:1026B4007511C875120075130050127808790C1240
:1026C40015357810790812139650168010780C7905
:1026D400081215357810790C12139640047901808C
:1026E4000279007F0C02186674ED1217BA8A088BFF
:1026F400098C0A8D0B741312172A780C121596780C
:102704000C790812139640117808790C121535AA21
:1027140008AB09AC0AAD0B80227510007511007569
:1027240012007513017810790C1215357810790898
:102734001214FCAA10AB11AC12AD1380A68A828BC2
:10274400837508FF7509FF750AFF750B0078081279
:1027540015837F0402186674F51217BA8C828D8370
:1027640078081215968A828B837808121549EA2410
:1027740004F8EB3400F98C828D83A3A3A3A3E0FCBB
:10278400A3E0FD88828983C3E09CF0A3E09DF088E8
:10279400828983C3E09420A3E0944E40268A828BEE
:1027A400837508FF7509FF750AFF750BFF7808121A
:1027B40015228A828B83A3A3A3A3E02420F0A3E0A1
:1027C400344EF002274174F51217BAE9FE9004F76B
:1027D400E0FAA3E0FBEEC333F8E433F974C928F557
:1027E40082748039F583E02AF508A3E03BF5097883
:1027F400081219617A407B427C0F7D0012231C74FD
:10280400021216F48A088B098C0A8D0B741078084E
:102814001214C4AA08AB097F0402186674F11217D3
:10282400BA8A0C8B0D8C0E8D0F740F12172AE0FAD6
:10283400A3E0FB741112172AE0F508A3E0F5097868
:1028440008121961EA2401F508EB3400F509E4F5EE
:102854000AF50B780C79081213D5750871750902FD
:10286400780C79081213D5AA0CAB0DAC0EAD0F126F
:10287400231C74021216F48B09EA450960047A01D8
:1028840080027A00EC2AFCED3400FD741312172A3E
:10289400E0F8A3E0F9E8FEE9FFECF8EDF97A717BE2
:1028A40002121653880889098E828F8378081215BC
:1028B400A5ECF8EDF97A717B021216538A088B099C
:1028C400740578081216CB8E828F83A3A3A3A3E585
:1028D40008F0A3E509F07F08021866C082C083E906
:1028E400906000F0D083D08222C2AF02000022C0E8
:1028F400E074F21218A6A2AFE433FED2AFE589A2C7
:10290400E04006E589A2E150031211F575890075CE
:102914008900C2C5751A00EEA2E092AF7F010219C8
:1029240005C0E0C0D0E8C0E0E9C0E0E5A8D2AFC28D
:10293400C7751A00A2E7A2E792AFD0E0F9D0E0F899
:10294400D0D0D0E032020132FFFFFFFFFFFFFFFFD4
:10295400C082C083E9900A04F0022BE374F71217D3
:102964004EE99002E1F07C197D037AFF7BFF1208A7
:102974006B9002E274FFF0A3F0A3E4F0A3F07905F6
:102984001207F39002E1E0F91207157A897B081225
:102994000A337F0102182074F412174E8A088B0937
:1029A400EB548060309002E1E0F91210098A0A8B3E
:1029B4000BAE0AAF0BEE4F60138E828F83E064B0D0
:1029C400700312080BEEFAEFFB120FF7AA08E509E1
:1029D4006480FB80047A007B00022BB274F212172D
:1029E4004E74FC1216DEEAFEEBFFEE4F6038740202
:1029F40012172AEEF0A3EF122E17ECF0A3ED122E0D
:102A040017AA82AB8312070FE9F5087073741212C8
:102A1400172A1239CBE50A450B60658E828F831223
:102A24002A8EEE4F700575080280557A067B0012D7
:102A3400105D8A0C8B0DA80CA90DE849700575086A
:102A440013803D88828983E4122A98A3A3EEF0A31D
:102A5400EF123E64E50AF0A3E50BF09002E7122BB7
:102A6400209002E76017E0FCA3E08003EAFCEBFDA2
:102A74008C828D83122B2070F38C828D831238F01C
:102A8400A90874041216F4024066A3A3A3A3E0FEEB
:102A9400A3E0FF22F0A3F0888289832274F2121744
:102AA4004E890AE975F017A4FEAFF09002E6E4F04F
:102AB4009002E4122B20600A1210639002E4E4F006
:102AC400A3F0EEFAEFFB12105D8A088B09EA4509C0
:102AD400602FEEFCEFFD7900120FE59002E4E508AB
:102AE400F0A3E509F07B008008122B0AE4F0A3F0C0
:102AF4000BEBC3950A40F2E50A9002E6F0790080F8
:102B0400027913024066EB75F017A4F8A9F090025D
:102B1400E4E028FAA3E0398A82F58322123686EAB1
:102B24004B2274F412174E750800750900740C12C8
:102B3400172A123E38FEE9FF800CE5082401F50847
:102B4400E5093400F509C3E5089CE5099D50328583
:102B5400080A85090B7403780A1216CBEA250AF8C9
:102B6400EB350BF988828983A3A3A3A3A3A312390A
:102B7400CBEE650A7003EF650B70BFE8FAE9FB80E2
:102B8400047A007B00802774F412174E7900EAA2BD
:102B9400E0501B75084475098178081219617C049A
:102BA4007D007A067B0A1207ED74021216F47F0484
:102BB400021820C082C0839002E7122BEA601C88AE
:102BC400828983A3A3E06A7003A3E06B888289836C
:102BD40070E8A3A3A3A312368280047A007B00D0FA
:102BE40083D082020132124139E8492274EE12176D
:102BF4004E74FC1216DEEAFEEBFF851882851983FB
:102C0400E4F0A3F0EE24021238D4EE2405122E05CB
:102C1400EE2404F50EEF1231EAE024FE603924FCC0
:102C2400604624FE605224FE605E24FE7003022D82
:102C34000A24FE7003022D8224FE7003022D9124C7
:102C4400FE7003022DA024FC7003022DAF24FE703D
:102C540003022DBE022DFB9003007417F0A3E412AF
:102C64002E1F12048D022DFB851882851983AC82D8
:102C7400AD83120811022DCB851882851983AC828D
:102C8400AD83120817022DCB850C08850D0974023B
:102C940012172AAC82AD8385088285098312368295
:102CA4001207338A0C8B0DAC0CAD0DEC4D6042E475
:102CB400F50CF50D780C121961750C00750D03787F
:102CC4000C121961750C01750D03780C12196174DD
:102CD4000812172A121978791612367C12085374BE
:102CE400081216F4E9F50C700B1236781204A5805C
:102CF4000F750C01850882850983122E0D1238F098
:102D0400850C08022DCE740212172AAC82AD83857D
:102D14000C82850D831236821207338A108B11AC14
:102D240010AD11EC4D6043850C82850D83A3A31275
:102D34001978751000751103781012196175100156
:102D44007511037810121961740812172A12197870
:102D5400791612367C12085374081216F4E9F50930
:102D6400700B1236781204AB800F750901850C8242
:102D7400850D83122E0D1238F0850908804C8518B4
:102D840082851983AC82AD8312081D803A8518822E
:102D9400851983AC82AD83120823802B8518828524
:102DA4001983AC82AD83120829801C851882851989
:102DB40083AC82AD8312082F800D85188285198318
:102DC400AC82AD83120835E9F508E50860298E82E6
:102DD4008F83A3E06414601F850E82850F83E090C7
:102DE4000300122E171241359003011238F0E50842
:102DF400A3122E1F120487EEFAEFFB1207B102375B
:102E0400DCF50CEF3400F50D22124139851882856A
:102E1400198322F085188285198322F07C007D03B2
:102E2400850A82850B831236862274EE12174E743D
:102E3400FC1216DE8A0A8B0B8C0E8D0FEA2405F524
:102E440008EB3400F5097C157D0079007A007B03DA
:102E5400120FE5E5082402F50CE509122E08851881
:102E640082851983858210858311781012196185F2
:102E74000882850983A3A3A3A3123332121961E53F
:102E8400082405F510E5093400F5117810121961CC
:102E9400850C82850D8312368C12072D740612164A
:102EA400F48A108B11AE10AF11E50A2402F50AE57D
:102EB4000B1238D7EE4F7003022FF48017740212EE
:102EC400172A12368288828983EAF0A3EBF09003F2
:102ED40000E004F0900300E0C394054003022FF4E3
:102EE400E4F510F51178101219617510E9751102E5
:102EF40078101219617510EA7511027810121961AF
:102F0400740612172A1219787910EEFCEFFD1236A6
:102F14007C12085374081216F4E9705E85088285E1
:102F24000983A3A3A3A3A3A3A3E0F89002E9E06801
:102F340070481233321219617CEA7D02E5082408D4
:102F4400FAE5093400FB120FDF74021216F4E9608B
:102F5400298E828F83A3A3A3A3123682900300E059
:102F6400F510740278101216CB74012510F58274D2
:102F7400033511F583EAF0A3EBF0740212172A85E6
:102F840082108583117810121961740212172A12A3
:102F94001978850C82850D8312414A12073974040D
:102FA4001216F48A108B11AE10AF11900300E0F5E5
:102FB40010751100740278101216CB74002510F8E5
:102FC40074033511F988828983A3122B20700302BC
:102FD4002EB8E82403F8E93400F9EE4F6003022E1A
:102FE400C18882898374FFF0A3F0900300E004F0A9
:102FF400900300E0600A1236781204997900800B7D
:103004008508828509831238E7790A0237DC74EA75
:1030140012174E74FE1216DE8C128D13EA2405F577
:103024000CEB1242B4122A92750800750900EA24C6
:1030340002F510EB3400F511851882851983858219
:103044000A85830B780A121961850C82850D83A386
:10305400A3A3A31231F4121961E50C2405F50AE5C2
:103064000D1238D7780A121961850C82850D8312E6
:10307400414812072D74061216F48A0A8B0BEA458E
:103084000B70030231A5EA2404F50EEB1231EA12A7
:103094002A928A828B83A3A3A3E0F98510828511E7
:1030A4008312368212071BE9F50960030231A5E495
:1030B400F514F51578141219617514E9751502786B
:1030C400141219617514EA751502781412196174D1
:1030D4000612172A1219787913AC0AAD0B851082DF
:1030E40085118312368212085374081216F4E9F516
:1030F4000960030231A59002E9E0F8E5087009E0EF
:103104002402900301F08017900301E0FCE82402FC
:10311400FAE43400FBEA6C7001EB60030231A98528
:103124000882AA8212332994141233215073850E13
:1031340082850F83E0C0E074022A1231E1D0E0F00E
:103144000508850E82850F83A3E0C0E085080A7414
:1031540002250A1231E1D0E0F005089002E91231AB
:10316400F41219617CEA7D0285080A7402250AFAC0
:1031740074033400FB120FCD74021216F49002E9AA
:10318400E02508F50874FF6E700374FF6F6012EE9B
:1031940024010EEF3400FFE508C3941450030230F9
:1031A4003CE508601312356D851082851183123653
:1031B4008212049F79008014E509700375090A8559
:1031C4001282851383EEF0A3EFF0A909740212169C
:1031D400F47F0E02182085080C7402250CF5827405
:1031E400033400F583223400F50F850E82F5832223
:1031F400123E772274EE12174E74FE1216DE8C0EF7
:103204008D0FEA2405F50CEB122E08750B009003C4
:1032140000E4F0F50AEA2402F508EB3400F509802D
:1032240049900300E0FA9002E9E0F8123329941778
:10323400123321400D900300E0F87416C3989002F5
:10324400E9F01233321219617CEA7D0274012AFA20
:1032540074033400FB120FCD74021216F49002E9C9
:10326400E0F8900300E028F0050AE50C2416F58246
:10327400E50D1231E5E0F8E50AC398400302330A8C
:10328400900300E0C39416507DE50AC333F8E43399
:10329400F9E50C28FEE50D39FF851882851983AC04
:1032A40082AD838E828F831236821207338A108B0B
:1032B40011AC10AD11EC4D7005750B018043E4F5B4
:1032C40010F51178101219617510E9751102781052
:1032D4001219617510EA75110278101219617406D9
:1032E40012172A12197879168508828509831236ED
:1032F4008212085374081216F4E9F50B70030232B3
:10330400251238E380107C007D03850882850983BB
:103314001236821204B1A90B74020237DEE994005A
:10332400C365D03322EA28F8E43400F9E822E0F552
:103334001075110078102274EA12174E74FC1216DC
:10334400DE8A0C8B0D8C128D13EA2405F50AEB1220
:1033540038D7750800750900E50A2402F510E50B55
:103364003400F511740212172A85820E85830F78B2
:103374000E121961850A82850B83A3A3A3A3123EAF
:1033840023121961E50A2405F50EE50B3400F50F47
:10339400780E1219618510828511831238DD123678
:1033A4007C12072D74061216F48A0E8B0FAE0EAF24
:1033B4000FE50C2402F50EE50D3400F50F8040886E
:1033C40082898374FFF005081231DA74FFF005086E
:1033D4009002E9E0F50C750D00780C1219617CEA95
:1033E4007D0285080C7402250CFA74033400FB1268
:1033F4000FCD74021216F49002E9E02508F508EEE8
:103404004F60718E828F83A3A3A3E0F9850E82851A
:103414000F8312368212071BE9F509EE2404122EDB
:1034240005E97044E4F514F515781412196175145E
:10343400E975150278141219617514EA7515027884
:1034440014121961740812172A1219787911EEFCF2
:10345400EFFD850E82850F8312368212085374089D
:103464001216F4E9F5096027850C82850D8312355F
:10347400631238F0E508700302354912356D850E84
:1034840082850F831236821204B7790002355E8575
:103494000882AA82EA9002E97009E02404900301F8
:1034A400F08022E0F8900301E0F514E82404FCE441
:1034B4003400FDEC65147001ED70C01233299412D0
:1034C40012332150B6850C82850D83E0C0E074026E
:1034D4002A1231E1D0E0F00508850C82850D83A322
:1034E400E0C0E01231DAD0E012357F85820C8583AA
:1034F4000D780C121961740412172A1219788510A8
:103504008285118312414A12073974041216F48A0F
:103514000C8B0DAE0CAF0D85080C7402250CF874E1
:10352400033400F9EE4F70030233C3851882851902
:1035340083E08882898312357FA3E0C0E01231DA08
:10354400D0E00233D1E509700375090A850A828542
:103554000B831235631238F0A90974040231D212B4
:10356400413985128285138322900301E0F5F0E549
:103574000884900300F07C007D0322F00508851880
:10358400828519832274EC12174E74FE1216DE8A99
:10359400088B098C0E8D0FEA2405FEEB3400FF85A1
:1035A4001882851983AC82AD838E828F8312368212
:1035B4001207338A0A8B0BEE2418122E05EA450BE8
:1035C40070030236531237C5503285188285198329
:1035D4001236821208478A108B11EA4511606B7902
:1035E40012AC0AAD0B8508828509831236828510D8
:1035F4008285118312174CE9F50A7058E4F50AF52F
:103604000B780A1219618E828F83A3A3E0F50A78DE
:103614000A121961EE24031238D4780A1219618E41
:10362400828F8312368C12085974061216F4E9F547
:103634000A7021850C82850D83E0701F85088285C0
:1036440009831236821204BD8011750A0E80097531
:103654000A018004E50A60031238E3850C82850DB3
:1036640083E0600479008002A90A74021216F47FD0
:103674000C0218207C007D03850A82850B83123698
:103684008622E0FAA3E0FB22E0FCA3E0FD850882A9
:103694008509831236862274EE12174E74FE1216B2
:1036A400DE8A088B098C0C8D0DEA2405FEEB3400B0
:1036B400FF750E00851882851983AC82AD838E82D6
:1036C4008F831236821207338A0A8B0BEA450B70FA
:1036D400030237B11237C550358518828519831214
:1036E40036821208478A0E8B0FEA450F605E791204
:1036F400AC0AAD0B850882850983123682850E8259
:10370400850F8312174CE9F50E60030237B4850860
:10371400828509831239CBAA0AFB12083B8A108BD3
:1037240011A810A911E849701E7AFF7BFF12083B0B
:103734008A108B11A810A911E849606C88828983CA
:10374400E50AF0A3E50BF0750A008007750E0E80FC
:103754005F050A9002E6E0FAE50AC39A504AE50AD0
:1037640075F017A4FAABF088828983A3A3E02AFA40
:10377400A3E03BFB8A828B831238DDEC4D70D2755B
:103784000A17750B00780A121961EEFCEFFD120F8F
:10379400CD74021216F4EEFCEFFD850882850983D0
:1037A4001236821204C38014750E098003750E014B
:1037B400124131850C82850D831238F0A90E023333
:1037C4001CE5082402F508E5093400F5098A828B12
:1037D40083A3A3A3E0A2E52274041216F47F0A02D1
:1037E400182074EC12174E8C108D11EA2405F50C78
:1037F400EB122E08750F00EA2402F50AEB1238D7F3
:10380400850A82F58312368212083B8A088B09EAFC
:10381400450970030238C9750E008071850C8285D4
:103824000D83E06401704F8E828F83A3A3121978F5
:103834008E828F83A3A3A3A3E0F5127513007812DD
:10384400121961EE2405F512EF3400F51378121203
:10385400196112367C12085974061216F4E9F50F30
:103864006014850C82850D83E4F012413185108249
:103874008511831238F07C177D007900EEFAEFFB96
:10388400120FE58E828F83E4F0A3F0050E9002E61A
:10389400E0F8E50EC398501EE50E75F017A4F8A9DC
:1038A400F0850882850983A3A31242BE1238DDEC99
:1038B4004D600302382085088285098374FFF0A3D4
:1038C400F0E50F700612367C1204C9A90F02367394
:1038D400F50AEF3400F50B22A3E0FCA3E0FD228EF1
:1038E400828F83124139850E82850F83E8F0A3E924
:1038F400F022C082C0839002E2E06A7003A3E06B0E
:1039040070067AE27B0280047A007B00022BE3C01B
:1039140082C08378008C828D83E06A7003A3E06B9D
:103924007010E875F003A4F8A9F0EC28FAED39FB5F
:103934008015088C828D83A3A3A3E06A7003A3E09F
:103944006B60DF7A007B00022BE374F612174E12D1
:1039540008058A828B83E582458370067A007B00A2
:103964008007A3A3A3A3123682023FE274F21217C4
:103974004EE9FE740E12172A1239CB741012172A4C
:10398400123E438C828D83E064027036A312413F61
:10399400F50CA3E0F9A80C7402687003742969702B
:1039A40021750C02750D00780C1219617808121932
:1039B40061780A121961EEF912087D74061216F480
:1039C40080027901024066E0F50AA3E0F50B227457
:1039D400E812174E74FB1216DEE9851882851983E6
:1039E400F08A168B17ECFEEDFF751000741D12178C
:1039F4002A124135741D12172A1238F08E828F83D1
:103A0400A3A3A3E0A2E4502D741D12172A12368238
:103A14001208478A828B83E58245837003023E1431
:103A2400790AEEFCEFFDAA16AB1712174CE9F51054
:103A34006003023E17741F12172A123E43742112A8
:103A4400172A1239CB742312172AE0F50EA3E0F5D6
:103A54000F8E828F83E064026003023DC2A3124191
:103A640035850882850983A3858212858313EE2414
:103A740006122E0588828983E0FAA3E0F9EA24007D
:103A8400F514E439F51578141219EB010000280136
:103A940028B73A070002287C3B0328E93A0029B3F7
:103AA4003C0129DE3C02297F3C0329B33C04295D07
:103AB4003DC23DE50E450F6003023DBD850C828588
:103AC4000D83123E38FAE9FB8A828B83E0850A82F1
:103AD400850B83123E6E1219618A828B83A3E0FCEC
:103AE400A3E0023D47E50E450F6003023DBD850A94
:103AF40082850B837401F0123E4B8508828509830D
:103B0400F07C007D008E828F83A3A3A3A3E0240115
:103B1400FAA3E03400FB120733EA4B60418A828B3C
:103B240083E02402F8850A82850B83E028F0EA24E6
:103B340004F8EB3400F988828983E08512828513C6
:103B440083123E80123E6E1219618A828B83123870
:103B5400DCE5082403FAE5093400FB023D4C850A40
:103B640082850B83E02404F07C047D007900AA1292
:103B7400AB13120FE5023E17E50E450F6003023D3D
:103B8400BD123E4BFEA3E0FF850A82850B837404BD
:103B9400F0EE850882850983F0EF85128285138310
:103BA400F0740312172AAC82AD83EEFAEFFB12070E
:103BB400338A0C8B0DEA450D7003023C608A828BBC
:103BC40083A3A3122A8E740112172A85820E858379
:103BD4000F780E121961740512172A1219787CFFD6
:103BE4007DFF12073974041216F48B0FEA450F7027
:103BF40033850C82850D83123E23121961850C8254
:103C0400850D83A31219787C027D007AB27B811220
:103C1400056574041216F4E9700A740112172A7403
:103C2400FFF0A3F08E828F83E064027039750C027A
:103C3400750D00780C1219618E828F831238DCE5C1
:103C4400082404FAE5093400FB120FCD740212169D
:103C5400F4850A82850B83E024028009740112171B
:103C64002AEEF0A3EFF0740112172A123E34F07416
:103C74000112172AA3123E2C023DB7E50E450F6030
:103C840003023DBD850C82850D831238DDAA16AB77
:103C940017120871850A82850B837402F0EA85087D
:103CA40082850983F0851282851383EB023DBAE590
:103CB4000E450F6003023DBD123E4BF8A3E0F985AB
:103CC4000A82850B837402F0E8850882850983F0F3
:103CD400E9851282851383023DBA850C82850D83A2
:103CE400123682120FC7EAFC8C82A882C3950EE4B6
:103CF400950F405FE8650E7002E50F70047C00804C
:103D040022851882851983E0FAE50E2AFAE50F3434
:103D140000FBC3EA98EB94005003E08005E50ECC69
:103D2400C39CFCEC850A82850B83F08C0A750B001E
:103D3400780A121961850C82850D83E0250EFCA397
:103D4400E0350FFDAA08AB09120FCD74021216F468
:103D5400023E17751007023E17E50E450F705A858F
:103D64000C82850D83124135850A82850B83740785
:103D7400122A9A123E2C122A9AA3E08512828513E3
:103D840083F0E82402FAE93400FB8A828B83123E32
:103D94002C123E5B123E34A3123E64123E3DF0E808
:103DA4002405F8E93400F988828983123E3DA31280
:103DB4003E80A3A3A3A3F0805A75100B8055741DF5
:103DC40012172A1236821208058A828B83E58245ED
:103DD40083603D124135880C890DE8450D603178CA
:103DE4000E121961780A12196178081219617406A1
:103DF40012172AE0F9EEFCEFFDAA16AB17850C8228
:103E0400850D8312174C74061216F4E9F51080031D
:103E140075100EA91074051216F47F10021820E014
:103E2400F50E750F00780E22E0850882850983223D
:103E3400123E8A22124139E822123E8AA3A322E0CA
:103E4400F508A3E0F50922850C82850D83E0F8A32B
:103E5400E0F5838882E022A3A3F08A828B83A322E5
:103E6400F088828983A3A3A3A322F08A828B83127E
:103E74003E7722E0F50A750B00780A22F0888289E1
:103E840083A3123E8A22E0850882850983A3A322A4
:103E940074EE12174E74FE1216DE8A0A8B0BECFABD
:103EA400EDFB741412172AE0F510A3E0F511741653
:103EB40012172AE0FE741812172AE0F50EA3E0F593
:103EC4000F851882851983AC82AD831207338A0C5F
:103ED4008B0DEA450D604985188285198312368257
:103EE4001208058A828B83E5824583602FA3A3127F
:103EF4003E43E50845096024780E121961781012D2
:103F04001961EEF9AC0CAD0DAA0AAB0B85088285DC
:103F1400098312174C74041216F48006790E800279
:103F2400790102331C74F612174E74FE1216DE74F5
:103F34000C12172A123E38851882851983F07401F1
:103F440012172AE9F0E4F508F509780812196175E1
:103F540008027808121961740412172A85820885E8
:103F64008309780812196112085974061216F47438
:103F7400021216F4806874F712174EEAFEEBFF89FA
:103F8400087C197D03120871EA5402600BA908EE3B
:103F9400FAEFFB1207278002790102299674F612C0
:103FA400174E74FF6A700374FF6B70168C828D83D6
:103FB400123FE7E4F08C828D83A3A3A3123FE7A30F
:103FC40080181208418A088B09A808A909E84960E1
:103FD4000D8882898374FF122A98A3A3E4F07F02D8
:103FE40002182074FFF0A3F08C828D83A3A32274A3
:103FF400F612174E1208418A828B83E5824583604C
:1040040006A3A3E0FA80027A007B0080D174F21246
:10401400174E8A088B09ECFEEDFF740E12172AE086
:10402400F50A1208418A0C8B0DA80CA90DE84970F9
:1040340026EEFCEFFD7AFF7BFF1208418A0C8B0D04
:10404400A80CA90DE8497004791180168882898327
:10405400E508F0A3E509F088828983A3A3E50AF0C3
:1040640079007F0602182074EE12174EEAFEEBFF69
:104074008C088D09890C741412172A124135741690
:1040840012172A123682750D00E84960030241298D
:104094007402650C6003024124741212172A12413F
:1040A4003FFCA3E0F9EC2400F50EE439F50FEAF443
:1040B400F8EBF4F9EC58F8E50F59F9E849705CE5C8
:1040C400082406F8ED3400F9880A890B8882F58300
:1040D40012414A1208718A108B11E50E65107004A2
:1040E400E50F65116042780E121961850A82850B0D
:1040F4008312414A12087774021216F4E9F50D701E
:1041040027780E121961850882850983A3A31241B9
:104114004812088F74021216F4800D750D80800801
:10412400750D0D8003750D0BA90D0237E18E828F7D
:104134008312413922E0F8A3E0F92212413988823E
:104144008983E022A3A3E0FCA3E0FDEEFAEFFB22C7
:1041540074E812174E74E71216DE851882851983E7
:10416400EAF0A3EBF08C168D17890E75080075091B
:1041740000743112172AE0F512A3E0F51374331218
:10418400172AE0F514A3E0F515743512172AE0F5A3
:104194000FE50975F003A4F8A9F085188285198341
:1041A4001242BEE0F47003A3E0F470030242A1EEF5
:1041B4002402F50CEF1242B4E070030242A185160A
:1041C4000A85170B780A121961AC14AD15AA12AB43
:1041D400131207F974021216F48A0A8B0BEA450BC0
:1041E40070030242A1E4F510F511781012196174FC
:1041F4000612172A858210858311781012196174AA
:104204000912172A85821085831178101219618585
:104214001282851383A3A3A3A31219787914AC0A79
:10422400AD0B8E828F8312368212085374081216D5
:10423400F4E97069850A82850B83A3A3A3A31241C1
:1042440035740212172A1238F0850C82850D83E02A
:10425400A2E05018A90E740212172AAC82AD838E04
:10426400828F8312368212074BE94208850C8285BD
:104274000D83E0A2E15026E50FF50A780A121965CC
:10428400A90E740312172AAC82AD838E828F831217
:10429400368212074574011216F4E942080509E54D
:1042A40009C394025003024195A9087419023E1BE4
:1042B4003400F50D850C82F58322E028FEA3E03955
:1042C400FF8E828F832274F212174EEAFEEBFF896F
:1042D4000B7401650B600E7402650B706A79011230
:1042E4000A51E97062EEFAEFFB12083B8A088B0967
:1042F400EA45096047750A00800B7C177D00790048
:10430400120FE5050A9002E6E0F8E50AC398502189
:10431400E50A75F017A4F8A9F0850882850983A336
:10432400A3E028FAA3E039FB8A828B83122BEA707C
:10433400C985088285098374FFF0A3F07C197D0385
:10434400EEFAEFFB12086B02406674F212174E8A03
:10435400088B09ECFEEDFF740E12172A1239CB906C
:104364000A04E0F4603D7A097B00120FF1EA4B6025
:10437400328A828B8374B1F0A3E4123E5DA3123EB1
:104384005BA3E508F0A3E5091243AAEEF0A3EF123C
:1043940043AAA3A3E50AF0A3E50BF0900A04E0F90D
:1043A400120FFD024066F08A828B83A3A3A3A3A30A
:1043B40022C082C0839061907404F0A37448F0A377
:1043C4007402F09061807440F09061BC7403F090CA
:1043D40061877419F0906265741BF0906249E0C3C0
:1043E400941390619C400A7409F090606674018093
:1043F40007740DF0906066E4F090619A7433F0A352
:104404007455F09061A0743AF090053FE064017037
:1044140009C2919003A6746780059003A67461F0A5
:10442400902952E493906186F090294CE493F460CF
:1044340027E493540FF8906185E0686012E5C65450
:10444400804449F5C6E59E547F644970F8E8F0530A
:10445400C680E59E547F70FA7905120DB1024610AC
:10446400C082C083E9540FF9906185E0696012E568
:10447400C654804449F5C6E59E547F644970F8E902
:10448400F053C680E59E547F70FA024610C082C085
:1044940083E5A8F853A87E906181E4F0A3F0A3F02B
:1044A400C2BA539AFEC289759B00C2C275E90075EF
:1044B400910075BF0075A91175B905906181F0A3CC
:1044C40074C0F0A3E4F0D2BA439A0174805842A8AD
:1044D400024610C082C08374F81216DE9003A4E072
:1044E400F8A3E0F9E84970030246059003A4E054F8
:1044F4004060237908851882851983AA82AB8312C8
:104504000C13851882851983AA82AB831209019042
:1045140003A4E054BFF0E054806010790C7A657B0A
:1045240005120C139003A4E0547FF0E0A2E0503194
:1045340090619A7433F0A37455F09061A0743AF0CA
:1045440090053FE064017009C2919003A6746780EE
:10455400059003A67461F01209079003A4E054FEC9
:10456400F0E05402603190619A743FF0A3745AF001
:104574009061A0747FF090053FE064017009D291CE
:104584009003A6747180059003A6746AF01209075B
:104594009003A4E054FDF0E054046013902950E427
:1045A40093906186F012090D9003A4E054FBF0E0AF
:1045B40054086013902951E493906186F012090D18
:1045C4009003A4E054F7F0E054106013902952E4EF
:1045D40093906186F012090D9003A4E054EFF0E08B
:1045E4005420600A12090D9003A4E054DFF0A3E004
:1045F4005401600D120B3B1209139003A5E054FE05
:10460400F074081216F4024610F0A3F0D083D0829E
:1046140002013274EC12174E74F41216DE851882FD
:10462400851983AC82AD8375838175828774041286
:1046340015F190295093F460030247A3907808E0A1
:10464400C394025003024783740412172AAC82AD48
:104654008375838175822A74081215F18518828501
:104664001983858212858313740412172AAC82ADD0
:1046740083750EFF750FFF7FFF7E00750C48750D67
:1046840078801574086E700302471774096E7003FE
:10469400024717740A6E607B850C82850D83780847
:1046A4001215968C828D83A909E50AC9F8881074BD
:1046B4001878081214C4E5104508F8C3E098A3E07C
:1046C40099850C82850D83780812159640188C8282
:1046D4008D83741878081214C4E5104508F8E0C3F3
:1046E40098F8A3E0801C741878081214C4E51045E7
:1046F40008FAE9FB8C828D83E0F8A3E0F9EAC39819
:10470400F8EB99F9C3E8950EE9950F5006880E89E0
:104714000FEEFF0EE50C2404F50CE50D3400F50D49
:10472400EEC39413500302468774FF650E7004743D
:10473400FF650F60238F08740278081216CB744843
:104744002508F58274783509F5837808121596855D
:104754001282851383E508F0EC2402FCED3400FD9D
:10476400851282851383A3858212858313740C12A8
:10477400172AE5826C7003E5836D60030246757544
:1047840008017509007808121961740212172AAC1D
:1047940082AD837A547B0A1211D174021216F47416
:1047A4000C1216F47F0C021820C082C0839061AEF4
:1047B4007468F0A3746AF090624574FBF0A304F08B
:1047C40053F4FD43FE0290053F7401F09061A0E0B4
:1047D400643A90619A70237433F0A37455F0906135
:1047E400A0743AF0740164017009C2919003A67434
:1047F4006780289003A674618021743FF0A3745AE3
:10480400F09061A0747FF0740164017009D29190FA
:1048140003A6747180059003A6746A02460F7F088C
:10482400021820C082C0839004F1E06401700A90F1
:1048340004F6E06004790C80027900024610C0821C
:10484400C08375E1F19004F4E0605B1460091460C6
:104854005F14605714705E120B4D9004EAE0F97A0D
:10486400EB7B04120D337AD67BBE7C897D8E120DD0
:10487400697A557B557C557D00120D3F9004F5E017
:10488400F9120D4B7901120DA59004E8E0F8A3E0AC
:10489400C82416F582E83400F5837465F0A3740B1C
:1048A400F07900024610120B5380AF120B5980AA04
:1048B400120B5F80A5791280EA74F012174E75D935
:1048C4000D9004D5E0A2E0E4331313F89004EAE079
:1048D400C4333354C0484401F5D978E87904888254
:1048E4008983A3A3A3E0F5D988828983A3A882A995
:1048F40083E864EE7003E9640470E378D57904888E
:10490400828983A3E0F5D988828983A3A882A983B5
:10491400E864DB7003E9640470E575E1959004D5FF
:10492400E0F97AD67B04120D39900A2674F9F0A3C3
:10493400740AF0A3745BF0A3740CF0A3745BF0A38B
:10494400740CF0A3745BF0A3740CF0A374FFF0A3D5
:10495400740AF0A3745BF0A3740CF0A37417F0A3AF
:10496400740BF0900A34745BF0A3740CF0A3745BC2
:10497400F0A3740CF0A3745BF0A3740CF0A3745B49
:10498400F0A3740CF0A3745BF0A3740CF0A3745B39
:10499400F0A3740CF09004F4E064019004E8701245
:1049A400E0F8A3E0F5838882A3A3750800750908DD
:1049B4008010E0F8A3E0F5838882A3A3750804754A
:1049C4000900750A00750B00780812150F750CFFA5
:1049D400750DFF750EFF750F007808790C12155DC3
:1049E4009004E8E0F8A3E0C8240EF582E83400F56A
:1049F4008378081215A59004E8E0F8A3E0C824140D
:104A0400F582E83400F5837413F09003A27402F085
:104A140002482274F712174E9004FAE02407F5D9DD
:104A24009004EAE0C4333354C0F5D978E8790488B3
:104A3400828983A3A3A3E0F5D988828983A3A8826A
:104A4400A983E864EE7003E9640470E39004FAE077
:104A5400601F78E87904FAE82413F582E93400F554
:104A640083E0F5D988828983A3A882A9831AEA708E
:104A7400E690051AE02407F5D99004EAE0C433333C
:104A840054C04404F5D978E8790488828983A3A3BF
:104A9400A3E0F5D988828983A3A882A983E864EE78
:104AA4007003E9640470E390051AE0601F78E87904
:104AB40004FAE82433F582E93400F583E0F5D98873
:104AC400828983A3A882A9831AEA70E675E1959086
:104AD4000A267405F0A3740BF0A3745BF0A3740CA2
:104AE400F0A3745BF0A3740CF0A3745BF0A3740CD8
:104AF400F0A374FFF0A3740AF0A3745BF0A3740C26
:104B0400F0A37417F0A3740BF0900A34745BF0A351
:104B1400740CF0A3745BF0A3740CF0A3745BF0A3A7
:104B2400740CF0A3745BF0A3740CF0A3745BF0A397
:104B3400740CF0A3745BF0A3740CF09004E8E0F838
:104B4400A3E0C8240EF582E83400F58374FFF0A3D3
:104B5400F0A3F0A3F09004E8E0F8A3E0C82414F56F
:104B640082E83400F5837412F09003A27401F0FF1C
:104B740002182074F712174E9004FAE02407F5D9AE
:104B84009004EAE0C4333354C04402F5D978E87998
:104B94000488828983A3A3A3E0F5D988828983A3A7
:104BA400A882A983E864EE7003E9640470E39004C6
:104BB400FAE0601F78E87904FAE82413F582E9340E
:104BC40000F583E0F5D988828983A3A882A9831A92
:104BD400EA70E675E195900A267411F0A3740BF05F
:104BE400A37411F0A3740BF0A37411F0A3740BF06D
:104BF400A37411F0A3740BF0A37411F0A3740BF05D
:104C0400A37411F0A3740BF0A37417F0A3740BF046
:104C1400900A34745BF0A3740CF0A3745BF0A37477
:104C24000CF0A3745BF0A3740CF0A3745BF0A37496
:104C34000CF0A3745BF0A3740CF0A3745BF0A37486
:104C44000CF09004E8E0F8A3E0C8240EF582E83400
:104C540000F58374FFF0A3F0A3F0A3F09004E8E060
:104C6400F8A3E0C82414F582E83400F5837414F042
:104C74009003A27404F0024F3E74F712174E90048E
:104C8400FAE02407F5D99004EAE0C4333354C0446D
:104C940006F5D978E8790488828983A3A3A3E0F58B
:104CA400D988828983A3A882A983E864EE7003E982
:104CB400640470E39004FAE0601F78E87904FAE889
:104CC4002413F582E93400F583E0F5D988828983D9
:104CD400A3A882A9831AEA70E690051AE02407F5CE
:104CE400D99004EAE0C4333354C04404F5D978E8D5
:104CF400790488828983A3A3A3E0F5D98882898370
:104D0400A3A882A983E864EE7003E9640470E390C5
:104D1400051AE0601F78E87904FAE82433F582E99B
:104D24003400F583E0F5D988828983A3A882A98316
:104D34001AEA70E675E195900A26740BF0A3740BD9
:104D4400F0A3745BF0A3740CF0A3745BF0A3740C75
:104D5400F0A3745BF0A3740CF0A3745BF0A3740C65
:104D6400F0A3745BF0A3740CF0A37417F0A3740B9A
:104D7400F0900A34745BF0A3740CF0A3745BF0A39A
:104D8400740CF0A3745BF0A3740CF0A3745BF0A335
:104D9400740CF0A3745BF0A3740CF0A3745BF0A325
:104DA400740CF09004E8E0F8A3E0C8240EF582E85F
:104DB4003400F58374FFF0A3F0A3F0A3F09004E8AB
:104DC400E0F8A3E0C82414F582E83400F5837415F0
:104DD400F09003A27403F0024F3EC082C08390049B
:104DE400E8E0F8A3E0C82406F582E83400F583E49B
:104DF40002460D74F712174E9003D0E0F875F003D5
:104E0400A4C8AAF02AF974D228F8740339F9E8245A
:104E140005FAE93400FB8A828B83E0FCA3E0FD8879
:104E2400828983A3A3A3A3A3A3A3A3A3ECF0A3EDC9
:104E3400F088828983A3A3A3A3A3A3A3E024FFF8F8
:104E4400A3E034FFF98A828B83E8F0A3E9F0024FF0
:104E54003E74F712174EEAFEEBFF9061D0E0600358
:104E6400024F3275D90E75D90375D904EE248BF52A
:104E740082EF3400F583E5822408F8E5833400F9F1
:104E8400E0F5D9A3E865827003E9658370F2EE2446
:104E940083F582EF3400F583E5822404F8E5833456
:104EA40000F9E0F5D9A3E865827003E9658370F23F
:104EB40075E1957908EE248BFAEF3400FB120C07A8
:104EC4007904EE2483FAEF3400FB120C077C00EE25
:104ED400F8EFF9ECFAC3E49AFA95E0FBEE2AFAEF5C
:104EE4003BFBEA248AF582EB3400F583E0C0E0E87A
:104EF40024AAF582E93400F583D0E0F00C88828995
:104F040083A3A882A983ECC3940840C7EE246FF559
:104F140082EF3400F583E0F8A3E0F9EE2471F58222
:104F2400EF3400F583E8F0A3E9F079018002790019
:104F34008008F0EEA2E092AF79007F01021820C051
:104F440082C08375D90275D90375D90575E195EACF
:104F5400246FF582EB3400F583E0F8A3E0F9EA244A
:104F640071F582EB3400F583E8F0A3E9F0790102EE
:104F7400461074F612174EEAFEEBFF9005457406D0
:104F8400F075084575090578081219617C017903E3
:104F9400120C4F74021216F475D90675D903758272
:104FA40045758305E0F5D9A3E582644A7004E58379
:104FB400640570F075E1959003A2E06408701EEE3C
:104FC400246FF582EF3400F583E0F8A3E0F9EE24D2
:104FD40071F582EF3400F583E8F0A3E9F07901027A
:104FE400524474F612174EEAFEEBFF9061D0E07063
:104FF400667801900545740BF09003A2E064077095
:105004001975084575090578081219617C01790339
:10501400120C4F74021216F47805740128F5D97530
:10502400D903758245758305E8FAE0F5D9A31AEA30
:1050340070F875E195EE246FF582EF3400F583E0A6
:10504400F8A3E0F9EE2471F582EF3400F583E8F07B
:10505400A3E9F079018002790002524474F712172F
:105064004EEAFEEBFF75D90375D90375D90DEE240D
:10507400DDF582EF3400F583E0F5D975E195790427
:10508400120D6FEE246FF582EF3400F583E0F8A380
:10509400E0F9EE2471F582EF3400F583E8F0A3E93A
:1050A400F07901024F3E74F612174EEAFEEBFF90C0
:1050B40061D0E0F87480C398FAEE2482F582EF346C
:1050C40000F583E06004780480027800E8240BF89B
:1050D400EAC398500302516F7D09900545EDF0EE47
:1050E40024E2F8EF3400F97A467B057C088882894B
:1050F40083E08A828B83F088828983A3A882A98330
:105104008A828B83A3AA82AB831CEC70E0EE248298
:10511400F582EF3400F583E0601D750845750905D7
:1051240078081219617C097903EEFAEFFB120C4F2F
:1051340074021216F47D0D74012DF5D975D9037519
:1051440082457583058D08E0F5D9A31508E5087037
:10515400F675E1957904120D6FEE241DF582EF3496
:1051640000F583E4F0A3F07901800279000252444F
:1051740074F612174EEAFEEBFF9061D0E0F87480EB
:10518400C398FAEE2482F582EF3400F583E06004DC
:10519400780480027800E82408F8EAC398500302EF
:1051A40052427806900545740CF09003BFE09005D8
:1051B40046F09003C0E0900547F09003C1E09005ED
:1051C40048F09003C2E0900549F09003C3E09005D5
:1051D4004AF0EE2482F582EF3400F583E0601B751B
:1051E400084575090578081219617C067903EEFAF9
:1051F400120C4F74021216F4780A740128F5D9754A
:10520400D9037582457583058808E0F5D9A3150887
:10521400E50870F675E1957904120D6FEE246FF5CB
:1052240082EF3400F583E0F8A3E0F9EE2471F5820F
:10523400EF3400F583E8F0A3E9F079018002790006
:105244007F0202182074F612174EEAFEEBFF9061FB
:10525400D0E0F87480C398FAEE2482F582EF34002B
:10526400F583E06004780480027800E82404F8EA16
:10527400C39850030253237802900545E8F0EE24C6
:10528400F4F582EF3400F583E0900546F0EE2482D5
:10529400F582EF3400F583E0601B75084575090558
:1052A40078081219617C027903EEFA120C4F740229
:1052B4001216F47806740128F5D975D90375824558
:1052C4007583058808E0F5D9A31508E50870F67517
:1052D400E195EE2473F582EF3400F583E4F0EE24D7
:1052E4007FF582EF3400F583E4F0EE241DF582EFC0
:1052F4003400F583E4F0A3F07904120D6FEE240D6D
:10530400F582EF3400F583E0F8A3E0F9EE2471F5BB
:1053140082EF3400F583E8F0A3E9F07901800279A3
:105324000002524474F612174E9061D0E0F8748073
:10533400C398FCEA2482F582EB3400F583E0600430
:10534400780480027800E82404F8ECC398405B7980
:10535400029005457407F0EA24F5F582EB3400F574
:1053640083E0900546F0EA2482F582EB3400F5836D
:10537400E0601875084575090578081219617C0202
:1053840009120C4F74021216F47906740129F5D926
:1053940075D903758245758305E9F8E0F5D9A31835
:1053A400E870F875E195790180027900025244743D
:1053B400F512174EE9FCA2AFE433F50AC2AF7D0043
:1053C40080010DEA246EF582EB3400F583E0F8EDFC
:1053D400C398501A8D08EA2508F8EB3400F9E8243C
:1053E4006AF582E93400F583E06C70D68024EA24FF
:1053F4006EF8EB3400F9E0FEEA2EFAEB3400FBEA37
:10540400246AF582EB3400F583ECF088828983E02A
:1054140004F0E50AA2E092AF7F0302182074F612AA
:10542400174EA2AFE433FDC2AFEA246EF582EB342B
:1054340000F583E014F07C0060368C08EA2508F857
:10544400EB3400F9E8246BF582E93400F583E0C01D
:10545400E0E8246AF582E93400F583D0E0F00CEA50
:10546400246EF582EB3400F583E0F8ECC39840CA6F
:10547400EA246DF582EB3400F58374FFF0EA2469C5
:10548400F582EB3400F583E4F0EDA2E092AF025232
:1054940044C082C083E5A8F8C2AFEA246AF582EB6F
:1054A4003400F583E9F0EA2469F582EB3400F583EE
:1054B400E4F0E8A2E7A2E792AF02461074F31217F1
:1054C4004EEAFEEBFFECFAEDFB8A828B83A3A3A3E7
:1054D400A3E0541FF0EE2436F582EF3400F583E4A4
:1054E400F0F50AEEFCEFFD8A828B83E0C0E0EC2449
:1054F4005DF582ED3400F583D0E0F0750B00E50A2C
:1055040033333354F8F50C8A828B83E0F50875093C
:1055140000E50B78081216ACE508A2E0502FEE2443
:1055240036F8EF3400F988828983E0F508EE25081F
:10553400F508EF3400F509E5082438F582E5093467
:1055440000F583E50CF088828983E004F0050B05FF
:105554000CE50BC3940840AF050A8A828B83A3AA87
:1055640082AB838C828D83A3AC82AD83E50AC39422
:105574000550030254EB7F0502182074F712174EEE
:105584009003CEE0640170030256DD7A009003D4E8
:10559400E060030256DD7401F0A3E4F0A3F090048C
:1055A4003404F0900439F09003D7E4F0A3F0A3F0AE
:1055B400A3F09003E104F0900407E4F09003EAF010
:1055C400A3F0A3F0A3F0A3F0A3F0A3F0900451F090
:1055D400900445F090043A7480F0A3E4F090044001
:1055E400F09004BCF0A3F0A3F0A3F0A3F0A3F0A305
:1055F400F0A3F09004C5F0900454F09004A4F0A338
:10560400F0A3F0A3F0A3F0A3F0A3F0A3F0A3F0A3FE
:10561400F09004B0F09004B2F09004AEF09004C89E
:10562400F0A3F0A3F0A3F0A3F0A3F0A3F0A3F07809
:10563400CE7903E8246EF582E93400F58374FFF033
:105644000A88828983A3A882A983EAC3940440E3D5
:105654007ACE7B0378DC790488828983E0C0E0EA2F
:105664002461F582EB3400F583D0E0F088828983ED
:10567400A3A882A9838A828B83A3AA82AB83E864CA
:10568400E17003E9640470D07ACE7B0378B57903C2
:1056940088828983A3E0C0E0EA24E6F582EB340043
:1056A400F583D0E0F088828983A3A882A9838A82C3
:1056B4008B83A3AA82AB83E864BD7003E96403709F
:1056C400CF9003CEE004F0640170089003D6E0901C
:1056D40003D0F07AD27B0380047A007B00024F3E31
:1056E400C082C0839003D5E4F09003D4F09003CE3D
:1056F400F0A3F0A374FFF075E1F1024610C082C07C
:1057040083780079009003D5E0600478D279038827
:10571400828983A3A3A3A3E0F902461074F61217A7
:105724004EEAFEEBFFEE2463F582EF3400F583E0EE
:10573400F8A3E0F9E84970030257C5EE2463F8EFD3
:105744003400F97A007B00A2AFE433F508C2AF88D5
:10575400828983E0FCA3E0FDEC4D603A8882898372
:10576400E0FAA3E0FB8A828B83E0FCA3E0FD88825D
:105774008983ECF0A3EDF08A828B83E4F0A3F088B4
:10578400828983E0FCA3E0FDEC4D700A8882898362
:10579400A3A3E4F0A3F0E508A2E092AF121255909F
:1057A40004E2E004F09004E3E004F0EE2463F58204
:1057B400EF3400F583E0F8A3E0F9E8496003025709
:1057C4003F8E828F83A3A3A3E0600F8E828F83A377
:1057D400A3A3E4F09003CFE014F09003CEE014F020
:1057E40070069003D074FFF08E828F83A3A3E4F03D
:1057F4009004E1E0700D9003CFE06401700579003E
:10580400120D51EEFAEFFB120C7F02524474F712A0
:10581400174EEAFEEBFF8E828F83A3A3A3A3E0FAC5
:105824007B00120955EEFAEFFB120BD1120C670242
:105834004F3EC082C08378B5790388828983A3E40C
:10584400F088828983A3A882A983E864BD7003E9F0
:10585400640370E69003B6740102460F74F61217DF
:105864004EEAFEEBFFEC2403F8ED3400F9880889D6
:1058740009EC2407F8ED3400F9E8FCE9FD8C828D8D
:1058840083E0F8A3E0F9850882850983E0FAA3E0C0
:10589400FB121653EE240DF582EF3400F583E8F085
:1058A400A3E9F08C828D83E0F8A3E0F98508828572
:1058B4000983E0FAA3E0FB1216538B09EA45096059
:1058C40013EE240DF582EF3400F583E02401F0A3F8
:1058D400E03400F002524474F612174EEAFEEBFF75
:1058E400EE242EF582EF3400F583E0FCA3E0FD788E
:1058F4000079FAECFAEDFB121653EE246FF582EF01
:105904003400F583E8F0A3E9F0780079FAECFAEDD5
:10591400FB1216538B09EA45096013EE246FF582D6
:10592400EF3400F583E02401F0A3E03400F00252E8
:105934004474EC12174EEAFEEBFF741412172A7823
:1059440008121596120D0F8A0C8B0D8C0E8D0F7587
:105954001002751100751200751300780C7910127D
:1059640014FC7510FF7511FF7512FF780C79101275
:10597400155D780C12195D8E828F83E0F8A3E0F533
:10598400838882A3A31215B412269374041216F406
:10599400E96003025A998E828F83E02402F8A3E01F
:1059A4003400F9E8FAE9FB8A828B8378081215221D
:1059B4008A828B837508FF7509FF750AFF750B00D2
:1059C4007808121583EE240BF582EF3400F583C0BA
:1059D40082C0838E828F83A3A3A3A3A3E02401F8B0
:1059E400A3E03400F9D083D082E0687003A3E069B7
:1059F40070057901025A9B8E828F83A3A3A3A3A36C
:105A0400A3A3E02401F0A3E03400F0EE2473F582B4
:105A1400EF3400F583E064017036EE2474F582EF10
:105A24003400F583E0F8A3E0F98E828F83A3A3A367
:105A3400A3A3A3A3E0687003A3E0697013EE247426
:105A4400F582EF3400F583E02401F0A3E03400F0A4
:105A5400EE247FF582EF3400F583E064017036EEC6
:105A64002480F582EF3400F583E0F8A3E0F98E8218
:105A74008F83A3A3A3A3A3A3A3E0687003A3E069F4
:105A84007013EE2480F582EF3400F583E02401F0F6
:105A9400A3E03400F079000247A874F612174EE927
:105AA400FEECFFEA2462F582EB3400F583E0640146
:105AB4006003025B479061D0E0F508EA2482F58236
:105AC400EB3400F583E0600478048002780074808D
:105AD400C39508FC95E0FDEF28F8E43400F9E824C8
:105AE40002F8E93400F9EC98ED99A2D265D033407C
:105AF4004E740A12172AE0F508A3E0F509EA248295
:105B0400F582EB3400F583E060157808121961EF33
:105B1400FCEEF9120C4F74021216F474042FFF7485
:105B2400012FF5D98ED9EF600F850882850983F896
:105B3400E0F5D9A318E870F875E195790080067945
