:020000040000FA
:0600000002011A02212B8F
:03002B000226B6F4
:030033000226980A
:0300530002219EE9
:03006B0002266FFB
:10008300021F97E5C754F84401F5C7790122000020
:100093000080FB120086B90003020104E4791B7897
:1000A30002B800028004F709D8FCE4791D7802B88D
:1000B30000028004F709D8FCE490028178F5790DF9
:1000C3008002F0A3D8FCD9FA781A90014A7A01BACF
:1000D30000028007E493A3F608DAF97A757B0F90A0
:1000E300014B78D979018015E493A3AD82AE838A5D
:1000F300828B83F0A3AA82AB838D828E83D8E9D9C6
:10010300E77582087583D2740312012C7582917589
:100113008300740012012C75D00075813F7518811E
:10012300751902759F00020096C09FF59FE473D076
:100133009F22D083D082C09FE493C0E0740193C018
:10014300E0740293F59F2201AF03C103EB03B503F0
:10015300FF0000B4000028002800283075A000A08C
:1001630000A000A00000080008E001F0001000104B
:10017300001000100010001000500050005000103C
:10018300001000D0070000000000000F0001000570
:1001930000307507001000010081FF00000000FF20
:1001A30002020282840100007284027C8401000046
:1001B300CD0F027884010000B202027C84010000AA
:1001C300CE0F028084010000C802FFFF0100FF2060
:1001D3000282840100007584027C84010000FC0F0C
:1001E3000288840000000000027A84030000A50353
:1001F3001D0B1D0B1D0B1D0B1D0B1D0B1D0B1D0BBC
:100203001D0B1D0B1D0B1D0B1D0B030D210DFD0CDC
:10021300FFFF01E803053F10020AFA00FF00FEFF9B
:1002230012013576C8031201358CC803120135BBA0
:10023300C803120135F1C80312013508C9031201BD
:10024300351FC90312013556C903120135A9C90364
:10025300120135C0C90312013545FE011201355C97
:10026300FE011201358DFE01120135C8FE01120196
:1002730035F2FE011201351CFF0112013533FF0176
:100283001201354AFF0112013561FF011201358A5E
:10029300FF011201359DFF01120135B3FF01120168
:1002A30035DDFF0112013535AA0212013539AB02E2
:1002B30012013566AB02120135BCAB02120135DF08
:1002C300AB02120135F3AB02120135F5AB02120199
:1002D3003518AC0212013527AD02120135EBAD0220
:1002E300120135C0AE0212013531AF02120135BD24
:1002F300AF02120135C0AF0212013548B00212013C
:100303003583B002120135EAB002120135EDB002B5
:1003130012013524B1021201354DB102120135F833
:10032300B10212013582B202120135D1B2021201B9
:1003330035DEB202120135E1B20212013541B302D8
:100343001201354CB302120135CBB302120135CE83
:10035300B302120135E1B302120135E4B302120113
:100363003573B4021201358DB4021201359DB40206
:10037300120135CDB402120135DAB402120135DDB2
:10038300B4021201355EB5021201354CB6021201F8
:1003930035FEB602120135FFCB02120135F7CC024E
:1003A3001201352BCD02120135ADCD02120135CD2F
:1003B300CD0212013515CE0212013568CE021201AB
:1003C30035CCCE0212013559CF0212013513D002BA
:1003D30012013522D302120135ADD402120135D0F8
:1003E300D4021201356DAB031201350AAD031201BC
:1003F300356EAD03120135CDAD03120135DBAD030F
:1004030012013504AE0312013552FA021201357A94
:10041300FA02120135A8FA02120135DFFA021201BB
:10042300353DFB0212013588FB02120135D3FB0275
:1004330012013513FC0212013559FC0212013587F2
:10044300FC0212013544FD021201354EFD02120178
:10045300355BFD021201358EFD021201355AFE0293
:1004630012013566FE021201357EFE021201358845
:10047300FE0212013506FF021201353ECE031201C0
:10048300354CCE0312013564CE031201357CCE0305
:1004930012013594CE03120135FCEF01120135A888
:1004A300F00112013523F10112013544F201120169
:1004B3003580F20112013529F30112013510F401DF
:1004C30012013574F501120135CBF5011201354CDA
:1004D300F6011201353CF70112013589F7011201CA
:1004E300350FF80112013541F80112013555FA01B2
:1004F30012013597FA01120135B5FA011201355788
:10050300FB011201351FFC011201352CFE01120102
:100513003518AF031201352EAF0312013554AF0363
:1005230012013570B0031201357AB003120135AFF1
:10053300B103120135A7B2031201357996031201F3
:10054300351D97031201355097031201359A97030E
:100553001201355D9903120135C3B0011201353C17
:10056300B1011201354CB1011201353AB201120148
:100573003544B20112013569B20112013574B20179
:100583001201355EB301120135C1B3011201357792
:10059300B4011201355EB60112013517B80112011B
:1005A30035F3B801120135A7B901120135E4BC01D5
:1005B30012013592BD0112013501BF0112013581CE
:1005C300C00112013528C10112013571C1011201A7
:1005D30035A8C10112013545C201120135D0C2014E
:1005E300120135ADC30112013502C4011201356197
:1005F300C50112013571C5011201359EC5011201F4
:1006030035F5C5011201359EC601120135A5C70195
:100613001201356FC801120135CFC901120135121C
:10062300CA01120135B7CA01120135DDCA0112012F
:1006330035EBCC01120135F0CC01120135F5CE01B9
:1006430012013542CF01120135B5CF01120135E850
:10065300CF011201358AD00112013533D1011201C4
:10066300356BD1011201356ED101120135B6D101BD
:10067300120135F8D1011201354FD2011201352C87
:10068300B6031201353FB6031201354DB60312010D
:100693003595B603120135ABB603120135F2B60335
:1006A30012013506B80312013593B803120135DE82
:1006B300B803120135C86100120135D86100120177
:1006C300353B62001201358062001201353663004A
:1006D3001201351164001201353A64001201356AC2
:1006E3006400120135AA66001201359168001201F7
:1006F30035696A00120135AD6B00120135146E00C5
:10070300120135226F001201357470001201357E1B
:100713007100120135C07100120135F87100120128
:10072300351A72001201357D72001201353F7700D0
:10073300120135D477001201352878001201354FA4
:1007430078001201358D7800120135AC7800120162
:1007530035067900120135067A001201358B7A00CD
:100763001201350080031201350A8003120135B2EC
:100773008003120135F58003120135108103120144
:1007830035A08103120135C88103120135008203AC
:100793001201353782031201356082031201359A43
:1007A3008203120135AF82031201357C83031201E8
:1007B300359F8303120135C18303120135D68303A9
:1007C3001201355C84031201359684031201350E40
:1007D3008503120135578503120135818503120103
:1007E30035AC85031201352ACB0312013500800293
:1007F3001201352E800212013589810212013569F9
:100803008202120135888202120135058302120128
:1008130035488302120135C3840212013532850241
:100823001201355D8702120135E189021201359209
:100833008A02120135888B02120135288C021201BB
:1008430035268D02120135B18D02120135D7C90348
:1008530012013540CA0312013594CA03120135C38C
:10086300CA03120135E4CA03120135FA9A031201CD
:1008730035679B03120135AE9B03120135C69C03FA
:10088300120135C29D03120135A59E031201353BAA
:10089300ED021201357DED0212013556EE02120111
:1008A3003550EF0212013532F0021201359BF0028E
:1008B300120135B7F10212013523F2021201352676
:1008C300F2021201354FF202120135C9F20212018E
:1008D300356EF30212013583F302120135C9F302B7
:1008E300120135E2F302120135E5F302120135B1CB
:1008F300B203120135EDB2031201352BB30312011A
:1009030035F5B30312013564B4031201359FB40303
:10091300120135DDB4031201350DB503120135346F
:10092300B503120135A2B503120135E4B503120173
:1009330035928401120135B1860112013594880183
:10094300120135D08801120135FD8801120135C429
:1009530089011201350F8A011201355A8A011201E8
:10096300356C8A01120135AC8A01120135E08A0126
:100973001201352E8B011201355F8B011201358275
:100983008B01120135098C01120135F18C01120121
:1009930035DE8D01120135D78E01120135E6900146
:1009A300120135889601120135D896011201354F8F
:1009B300990112013501BE03120135B6BF031201BD
:1009C30035C44400120135734500120135A04500BA
:1009D300120135EA4500120135204700120135B6F0
:1009E30048001201352B49001201356C49001201F0
:1009F30035BE49001201352F4B00120135744D00ED
:100A03001201356E4E001201358D4E00120135ACC8
:100A13004E00120135AF4E00120135E04F001201B6
:100A230035D85000120135C451001201353452003B
:100A3300120135A652001201352D5300120135085B
:100A43005400120135DD5400120135BC550012016A
:100A530035475600120135B55600120135295700A6
:100A63001201355457001201351358001201350095
:100A73005B00120135495B001201358C5B001201EA
:100A830035055C001201359D5C001201358E5D0059
:100A9300120135B35D00120135F95D0012013523F2
:100AA3005E001201356B5E00120135E65E00120135
:100AB30035405F00120135A960001201355761000E
:100AC300120135986100120135619C02120135AFA4
:100AD3009C02120135BB9C02120135999D02120141
:100AE30035CA9D02120135FB9D021201357B9E0220
:100AF300120135B39E02120135059F0212013542E0
:100B03009F021201355FA10212013585A302120172
:100B13003570A5021201355AA702120135EF7F0085
:100B2300120135D485031201351F8A03120135637F
:100B33008B03120135A8E10112013560E4011201B2
:100B43003566E40112013520E701120135EDE901B3
:100B53001201355F9103120135039203120135D55A
:100B63009203120135FF92031201354D95031201D1
:100B730035E426001201352E27001201356F3500AA
:100B8300120135F436001201351738001201358889
:100B93003E00120135833F00120135C03F001201B0
:100BA30035E33F001201352540001201352F400087
:100BB3001201351D4100120135134200120135ACFB
:100BC30042001201359FA70312013535A803120114
:100BD300354BA803120135C1A80312013535A9030A
:100BE30012013573A903120135E7A9031201356018
:100BF300AA0312013569AA0312013575AA0312016A
:100C0300358AAA03120135C8AA03120135DEAA03E5
:100C13001201353DAB0312013509F40212013516F9
:100C2300F40212013530F4021201356FF40212019D
:100C330035ADF40212013512F50212013527F50222
:100C43001201353EF5021201354CF5021201355BF6
:100C5300F50212013570F50212013585F502120114
:100C63003590F5021201359CF502120135A9F50202
:100C7300120135B8F502120135C3F502120135E848
:100C8300F5021201358FF602120135A4F6021201A4
:100C930035B9F602120135D3F602120135EEF6022A
:100CA3001201350BF70212013516F702120135D284
:100CB300F702120135BEF802120135E3F802120100
:100CC30035EEF80212013503F90212013517F90264
:100CD30012013578F9021201357EF90212013584C9
:100CE300F9021201358AF902120135A2F902120141
:100CF30035D5F9021201356FB70212013591B702EA
:100D030012013571B80212013548BB021201357464
:100D1300BC0212013598BD021201354ABE0212010E
:100D230035EBBE02120135378E02120135BB8E023E
:100D33001201356A8F02120135C99002120135EA98
:100D43009202120135D693021201350B940212015D
:100D5300352D9402120135DC9402120135D496022A
:100D6300120135FD96021201358F9702120135C12A
:100D73009702120135CE970212013525980212010E
:100D8300354B9802120135B89A02120135BB9B020A
:100D9300120135139C021201353CD3011201354671
:100DA300D4011201352DD50112013537D5011201B8
:100DB3003559D50112013565D501120135FED6012C
:100DC3001201352DD70112013549D801120135A27F
:100DD300D80112013508DA01120135E7DA011201EF
:100DE3003543DB01120135B0DB01120135EBDB01C9
:100DF3001201352ADC01120135E3DE01120135FD52
:100E0300DE0112013589DF0112013597DF0112017D
:100E130035F0DF01120135FEDF0112013571E0010A
:100E2300120135D5E0011201351FE101120135FB35
:100E3300C10312013520C20312013592C20312010C
:100E430035EFE502120135F8E50212013501E6023C
:100E5300120135D8E60212013589E802120135BFC5
:100E6300E802120135F9E8021201352FE9021201F5
:100E73003569E9021201359DE902120135C9E9021A
:100E830012013512EA021201354CEA0212013595BC
:100E9300EA02120135EDEA0212013522EB021201D8
:100EA300357DEB02120135B7EB0212013508EC0276
:100EB3001201353EEC0212013578EC021201359B2A
:100EC300EC02120135C5D003120135F1D003120132
:100ED300354CD10312013556D10312013566D103C6
:100EE300120135FBD50212013505D6021201354335
:100EF300D6021201358CD602120135C6D602120172
:100F0300351CD7021201353DD702120135C2D90271
:100F1300120135CBD90212013516DA021201353F1F
:100F2300DA0212013549DA02120135B5DA02120189
:100F3300354BDB0212013595DB02120135C5DB02AD
:100F43001201354EDC021201358EDC02120135C668
:100F5300DC02120135D8DC02120135F7DC02120182
:100F63003500DD02120135CFDD0212013547CD0315
:100F73001201350CC00312013542C003120135784A
:100F8300C003120135C1C10312013570D10312012F
:100F93003586D10312013590D103120135DAD1031D
:100FA300120135F27A00120135077B00120135B7C1
:100FB3007B00120135F77B00120135107C00120112
:100FC30035447C00120135917C00120135C57C004B
:100FD300120135077D001201350B7F0012013571B7
:100FE3007F001201358EFF02120135DDC6031201A7
:100FF3003506C7031201352FC703120135CAC703CC
:10100300120135E2C70312013524C803120135A6C4
:101013008B03120135E58B031201356E8C0312012C
:1010230035838C03120135CE8C03120135028D03F7
:10103300120135418D03120135508D031201350222
:101043008E031201355B8E03120135AA8E03120142
:1010530035008F03120135F58F03120135EA900332
:101063001201352791031201357E7F001201356885
:101073009B01120135E89D011201355B9F011201AD
:101083003558A001120135E1A00112013565A10116
:101093001201358AA101120135DAA1011201356F5E
:1010A300A501120135E3A501120135CFA6011201F5
:1010B3003509A70112013549A701120135F4A80129
:1010C30012013525A90112013578A901120135C193
:1010D300A9011201352FAA0112013561AA011201DA
:1010E3003579AA011201358EAB011201359EAB0190
:1010F300120135BCAC01120135DEAC01120135140D
:10110300AD01120135BDAE0112013536AF01120139
:101113003575AF011201358CB0011201350FD003C3
:1011230012013520D00312013560D2031201359F1D
:10113300D203120135DE7F001201352DCF031201D8
:10114300353DCF0312013555CF0312013509D003C5
:1011530012013543CC03120135C8CC031201352EDD
:10116300CD03120135A0C303120135C9C303120114
:10117300352FC4031201354FC403120135A0C40334
:10118300120135F9C40312013533C5031201353693
:10119300C503120135679F031201359E9F03120198
:1011A300350EA00312013523A00312013539A10323
:1011B300120135BBA10312013581A203120135A02F
:1011C300A203120135C7A203120135FCA2031201C7
:1011D3003514A30312013565A3031201359AA30342
:1011E300120135ABA30312013528A403120135FD07
:1011F300A403120135CFA60312013529A703120157
:101203003580A703120135F87F00120135CCBB03EB
:1012130012013557BD03120135B8BD03120135FE66
:10122300BD0312013540C50312013590C5031201F8
:101233003519C6031201357FC60312013508B903F8
:1012430012013532B903120135F8B903120135D34E
:10125300BA031201355ABB03120135F9DD0212013B
:1012630035B6DE02120135F1DE0212013519DF0255
:101273001201357BDF02120135C7DF021201352768
:10128300E002120135BAE002120135B9E10212019E
:101293003548E302120135CBE30212013532E40291
:1012A30012013549E40212013553E5021201359169
:1012B300E502120135C5C102120135BAC20212019B
:1012C3003582C302120135BBC50212013586C6023F
:1012D300120135A9C602120135DEC80212013530EA
:1012E300C902120135C4C902120135EDCA02120145
:1012F300358ACB02120135DFD203120135A9D2039D
:101303001201350BD30312013533D303E766701093
:101313000809E766700A0809E76670040809E766C2
:1013230022E066701008A3E066700A08A3E0667006
:101333000408A3E06622C3E7960809E7960809E7CD
:10134300960809E79622C3E09608A3E09608A3E06F
:101353009608A3E09622C008C3E096F50808A3E028
:1013630096420808A3E096420808A3E09645087051
:1013730001D3D00822080808EAC0E0EBC0E086F0F9
:10138300E7A4FA180986F0E7A42AFA180986F0E711
:10139300A42AFA180986F0E7A42AFA1986F0E7A422
:1013A300FBE5F02AFA190886F0E7A42BFBE5F03AEF
:1013B300FA190886F0E7A42BFBE5F03AFA181809A6
:1013C30086F0E7A4C5F02BFBE43AFA1908E7C5F069
:1013D300C6A426F6E5F03BFBE43AFA1886F0E7A448
:1013E300F6E5F00826F6E43B08F6E43A08F6D0E022
:1013F300FBD0E0FA22E4CFC0E0E4CEC0E0E4CDC00D
:10140300E0E4CCC0E075F020E626F608E633F60803
:10141300E633F608E633F6181818EC33FCED33FD23
:10142300EE33FEEF33FFC3EC9709ED9709EE97090F
:10143300EF97191919400FFFEC97FC09ED97FD0978
:10144300EE97FE191906D5F0BFECF709EDF709EE93
:10145300F709EFF7191919D0E0FCD0E0FDD0E0FE51
:10146300D0E0FF226016080808C6C313C618C613C7
:10147300C618C613C618C613C6D5E0EA22700908F3
:101483000808226016181818C6C333C608C633C620
:1014930008C633C608C633C6D5E0EA22E627F608EF
:1014A30009E637F60809E637F60809E637F622E0D3
:1014B30026F608A3E036F608A3E036F608A3E036DE
:1014C300F622E026F008A3E036F008A3E036F008A1
:1014D300A3E036F022C3E697F60809E697F6080973
:1014E300E697F60809E697F622C3E096F008A3E02C
:1014F30096F008A3E096F008A3E096F022E657F6EC
:101503000809E657F60809E657F60809E657F622EA
:10151300E056F608A3E056F608A3E056F608A3E063
:1015230056F622E056F008A3E056F008A3E056F082
:1015330008A3E056F022E667F60809E667F608090D
:10154300E667F60809E667F622E0F608A3E0F60880
:10155300A3E0F608A3E0F622E6F008A3E6F008A36A
:10156300E6F008A3E6F022E0FAA3E0FBA3E0FCA385
:10157300E0FD22EAF0A3EBF0A3ECF0A3EDF022E010
:10158300F8A3E0F9A3E0FAA3E0FB22E8F0A3E9F073
:10159300A3EAF0A3EBF022CAC0E0E6F0A308DAFA6C
:1015A300D0E0FA22CAC0E0E0A3C582CCC582C583DD
:1015B300CDC583F0A3C582CCC582C583CDC583DAEF
:1015C300E6D0E0CA22C3E498F8E499F91216098038
:1015D30026C3E49AFAE49BFBE920E7E9121609E43F
:1015E30098F8E499F922C3E498F8E499F9121609F2
:1015F300E498F8E499F9C3E49AFAE49BFB22EB201C
:10160300E7CFE920E7E0B90010BB0008E88AF084DF
:10161300F8AAF022E4FBC8FA22EB70227B10C8334D
:10162300C8C933C9335007C39AC3DBF280069A5043
:10163300012ADBEAC833F4C8C933F4C9FA2275F0C6
:1016430008E4C833C8C933C933C99AC99B5004C90C
:101653002AC93BD5F0ECFBC833F4C8E4C9FA2260CD
:101663000D08C6A2E713C618C613C6D5E0F3226059
:101673000C08C6C313C618C613C6D5E0F4227004FB
:1016830022600D18C6C333C608C633C6D5E0F418A6
:1016930022251810AF08F518400C15198008F51805
:1016A30040021519D2AF2200C0D0251810AF08F59B
:1016B30018500C05198008F51850020519D2AFD03F
:1016C300D0222518F58210AF08F518400C151980A3
:1016D30008F51840021519D2AF851983222518F58C
:1016E30082E43519F583222518F8E43519F9222502
:1016F30018FAE43519FB222518FCE43519FD22E418
:10170300732518C582C0E0E51934FFC583C0E0E541
:1017130018C3958224F810AF088583198582188031
:1017230008858319858218D2AFCEF0A3E520F0A3F4
:101733007808E608F0A3DEFAEFF0A3E58124FAF8CF
:10174300E608F0A3E608F0A3E608F0A30808E60815
:10175300F0A3E608F0A315811581D0E0FED0E0F8F0
:10176300158115811581E8C0E0EEC0E0222518C57A
:1017730082C0E0E51934FFC583C0E0E518C3958254
:1017830024F910AF08858319858218800885831989
:10179300858218D2AFCEF0A3E520F0A37808E6083F
:1017A300F0A3DEFAEFF0A3E58124FBF8E608F0A34B
:1017B300E608F0A30808E608F0A3E608F0A31581FD
:1017C3001581D0E0FED0E0F815811581E8C0E0EE88
:1017D300C0E022851983851882E0A3FEE0A3F520EB
:1017E3007808E0A3F608DFFAE0A3FFE0A3C0E0E097
:1017F300A3C0E0E0A3C0E0E0A3C0E0E0A3C0E0102A
:10180300AF08858218858319800885821885831916
:10181300D2AFD083D082020132851983851882E04A
:10182300A3FEE0A3F5207808E0A3F608DFFAE0A31F
:10183300FFE0A3C0E0E0A3C0E0E0A3C0E0E0A3C0FA
:10184300E010AF0885821885831980088582188582
:101853008319D2AFD083D08222C0D02518C582C0CD
:10186300E0E51934FFC583C0E0E518C3958224F38E
:1018730010AF0885831985821880088583198582AE
:1018830018D2AFC8F0A3E9F0A3EAF0A3EBF0A37971
:1018930008E709F0A3D8FAECF0A3EDF0A3EEF0A368
:1018A300EFF0A3D0E0F0A3D0E0F0A3D0E0F0A3E505
:1018B30020F0A3E5F0F0A322851983851882E0C008
:1018C300E0A3E0F9A3E0FAA3E0FBA37808E0F608BD
:1018D300A3DFFAE0FCA3E0FDA3E0FEA3E0FFA3E0A7
:1018E300C0E0A3E0C0E0A3E0F5D0A3E0F520A3E0CF
:1018F300A3F5F010AF0885831985821880088583C6
:1019030019858218D2AFD082D083D0E0F8D0E032EC
:1019130074048006740280027401C0E0F404121699
:10192300C5D0E012159A227404800474028000CC9E
:10193300C0E0EDC0E0E518C39CCCAD1950011D100B
:10194300AF068C188D1980068C188D19D2AF12151D
:10195300A7D0E0FDD0E0FC22D083D082E9C0E0E450
:1019630093A3C386F0C5F095F0F908E493A386F03A
:10197300C5F095F0700BE493A3C3994005E9048087
:1019830002A3E475F002A42582F582E5F03583F520
:1019930083D0E0F9E493A3C0E0E493C0E022D083D2
:1019A300D082ECC0E0EDC0E0E493A3FCE493A3FD9C
:1019B300ED4C600D1219EDEC24FFFCED34FFFD80BE
:1019C300EFE493A3FCE493A3FDED4C600D121A2CFA
:1019D300EC24FFFCED34FFFD80EFD0E0FDD0E0FC14
:1019E300E493A3C0E0E493C0E022C0E0C3E4939691
:1019F300087401939618400FE49366700808740105
:101A030093661870007019A3A3C3E4939608740136
:101A1300939618A3A3400DD0E0D0E0D0E00219DDE7
:101A2300A3A3A3A3A3A3D0E022C0E0C0F088F0E463
:101A3300936670080874019366187000A8F0A3A356
:101A4300700BD0F0D0E0D0E0D0E00219DDA3A3D03A
:041A5300F0D0E022CD
:101A580074F5121770EAFEEBFFEE2434F8EF340049
:101A6800F988088909EE2435F582EF3400F583E01A
:101A7800F8EE2437F582EF3400F583E0F50AEC85BB
:101A88000AF0A4FCAAF0850AF0EDA42AFDE82CF8D7
:101A9800E43DF97A257B00121609EA850882850952
:101AA80083F0F8740758F97401B900028004C3334D
:101AB800D9FCFAE8131313541FF8EE28F8EF340092
:101AC800F9E8245DF582E93400F583E05A6008EE10
:101AD8002434F582EF802CEE2434F582EF3400F5BF
:101AE80083E0C0E0EE2436F582EF3400F583E0F5BC
:101AF800F0D0E084A8F0EE28F8EF3400F9E82438B4
:101B0800F582E93400F583E0F97F0402181C74F5C6
:101B1800121770EAFEEBFFEE2434F582EF3400F57D
:101B280083E0C0E0EE2435F582EF3400F583D0E0A1
:101B3800F08E828F83A3A3A3A3A3A3A3C082C08391
:101B48008E828F83A3A3A3A3A3E0F8A3E0F9D08395
:101B5800D082E0C398F508A3E099F509EE247FF553
:101B680082EF3400F583E064017069EE2480F58229
:101B7800EF3400F583E0F8A3E0F98E828F83A3A306
:101B8800A3A3A3A3A3E0FCA3E0FD8E828F83A3A35A
:101B9800A3A3A3E0FAA3E0FBC3EA9CEB9D5010C308
:101BA800EC98ED99402EC3EA98EB995027800EC324
:101BB800EA98EB994007C3EC98ED9940177CBF7DF4
:101BC80007EEFAEFFB120A63EE247FF582EF34008A
:101BD800F583E4F0EE2434F8EF3400F9E8FCE9FD8D
:101BE800EE2435F582EF3400F583E0F8EE2437F57E
:101BF80082EF3400F583E0F50AE508850AF0A4F5DC
:101C080008AAF0850AF0E509A42AF509E82508F8E4
:101C1800E43509F97A257B00121609EA8C828D834E
:101C2800F0F8740758F97401B900028004C333D975
:101C3800FCFAE8131313541FF8EE28F8EF3400F9F0
:101C4800E8245DF582E93400F583E05A6008EE2463
:101C580034F582EF802CEE2434F582EF3400F583DE
:101C6800E0C0E0EE2436F582EF3400F583E0F5F0CD
:101C7800D0E084A8F0EE28F8EF3400F9E82438F52D
:101C880082E93400F583E0F912265B021B1174EF38
:101C9800121770900479E064086005E06407702A00
:101CA8009061C8E060249004A7E0F4601DE0F87536
:101CB800F005A4C8AAF02AF974A928FE740439FF0B
:101CC8008E828F83A3A3A3E07003021DC690606079
:101CD800E0C0E0EE2468F582EF3400F583D0E0F050
:101CE800750CFB750D07750800750900E5D914F525
:101CF8000AE5D95403F50E60177403650E605CE5B8
:101D08000A6010EE2467F582EF3400F583E0700373
:101D1800021DAB9007F6E06401602AEE2482F5828A
:101D2800EF3400F583E06004780480027800850AC7
:101D380008E508C398FA95E0FB1209438A088B095D
:101D4800EA45097005120CD98074EE2482F582EFF9
:101D58003400F583E070048A0C8B0DE50A60128567
:101D68000C82850D83F50BE5D9F0A3150BE50B70F7
:101D7800F6EE2482F582EF3400F583E0604474FCCB
:101D8800250AF50A780C121917AC0AA90EEEFAEF13
:101D9800FB120B1774021216AAE97026AA08AB09DF
:101DA80012122B793D8E828F83A3A3A3A3E0FA7B23
:101DB80000120829EEFAEFFB120A87120B77790056
:101DC80080747403650E6056850A107511007810CA
:101DD800121917AC0CAD0DAA08AB09120AF374025C
:101DE8001216AAEE2468F582EF3400F583E06480C9
:101DF8007004747F8001E0F50C780C12191BE50E55
:101E0800F50C780C12191BA90AAC08AD099004A7A7
:101E1800E0FA7B001207E774021216AA80139004F6
:101E280079E06408700BAC0CAD0DEEFAEFFB120B09
:101E380047120CE579017F0A02181C74F512177015
:101E480074FC121694EAFEEBFF8908A2AFE433F59E
:101E580009C2AF806AEE2463F8EF3400F97A007B98
:101E680000A2AFE433F50AC2AF88828983E0FCA3FD
:101E7800E0FDEC4D603A88828983E0FAA3E0FB8AB2
:101E8800828B83E0FCA3E0FD88828983ECF0A3EDDC
:101E9800F08A828B83E4F0A3F088828983E0FCA334
:101EA800E0FDEC4D700A88828983A3A3E4F0A3F0D7
:101EB800E50AA2E092AF12122B9007C6E004F0EEFA
:101EC8002463F582EF3400F583E0F8A3E0F9E849EC
:101ED800603DEE2463F582EF3400F583E02402FAD6
:101EE800A3E03400FBEA2402F50AEB3400F50B7892
:101EF8000A1219178A828B83E0FCA3E0F9EEFAEF45
:101F0800FB120AB774021216AAE97003021E5D904A
:101F180007C6E060639007C7E0F89007C6E0C3987B
:101F2800500C7402650870509007C8E0604A8E82B1
:101F38008F83A3A3A3A3E0851882851983F0A3E464
:101F4800F09007C6E0F874021216E0E8F0A3E4F097
:101F58009007C6E0F89007C5E028F074021216E072
:101F6800AC82AD83851882851983AA82AB837901F7
:101F78001207F39007C6E4F0E509A2E092AF7404F3
:101F88001216AA021B110000851B87851CC622C0D9
:101F9800E0C0D0E8C0E0E9C0E0EAC0E0EBC0E0ECB7
:101FA800C0E0EDC0E0EEC0E0C008C009C00AC00B48
:101FB800C082C083C0F0A2AFE433FEC2AF759B00FD
:101FC800906182E0A2E05012E591A2E0500C759178
:101FD800FE7401651B7003121C96E0A2E55051E5E2
:101FE80091A2E5504B7591DF900479E06407600594
:101FF800E0640870237401651B703579019004A7AB
:10200800E0FA75F005A4CAA8F028FB74A92AFA74A6
:10201800043BFB121E438018E0640D701390049B70
:10202800E004F064287002E4F07A00E0F9120CEBA6
:10203800906182E0A2E640030220DEE591A2E6403C
:10204800030220DE7591BF900479E06405700812E0
:102058000BEF120BFB8003120BF5751B00120C5BC8
:10206800E990047AF07900120C3D1209D37A017BC9
:1020780000900478E0F9120F43907803E06442700E
:10208800559007FAE014F0704DC2AF122096007810
:102098001ED0E0F618D0E0F6E59F540770057509E4
:1020A800FF800375097FC4C0E0781DE6F50808E6DF
:1020B8005509F509740B7808121672D0E02508F84E
:1020C800906270E0A2E740F8E8C333906272F09043
:1020D8006270E0D2E0F0906181E0A2E35009E5E9A6
:1020E800A2E3500375E9F7A3E0A2E75009E591A23E
:1020F800E7500375917FEEA2E092AFD0F0D083D085
:1021080082D00BD00AD009D008D0E0FED0E0FDD0B4
:10211800E0FCD0E0FBD0E0FAD0E0F9D0E0F8D0D095
:10212800D0E032C0E0C0D0C082C083906183E0A21A
:10213800E05009E5BFA2E0500375BFFEE0A2E15000
:1021480009E5BFA2E1500375BFFDE0A2E25009E531
:10215800BFA2E2500375BFFBE0A2E35009E5BFA2AE
:10216800E3500375BFF7E0A2E45009E5BFA2E450CD
:102178000375BFEFE0A2E55009E5BFA2E55003757E
:10218800BFDFE0A2E65009E5BFA2E6500375BFBF76
:10219800D083D0828088C0E0C0D0E8C0E0E9C0E049
:1021A800EAC0E0EBC0E0ECC0E0EDC0E0C0F0E5A7BD
:1021B800A2E6500FE5A1A2E6500953A7BF75A1BF3B
:1021C800122203E5A7A2E5500CE5A1A2E5500653AB
:1021D800A7DF75A1DFE5A7A2E15009E5A1A2E150BB
:1021E8000375A1FDE5A7A2E2500CE5A1A2E2500605
:1021F80053A7FB75A1FBD0F002211474F8121770D5
:10220800751B01900479E064067015120B9B8A8295
:102218008B83A3A3A3A3A3A3E0FAA3E0FB120BDD84
:10222800A2AFE433FED2AF90047FE0640170187A65
:10223800207B00900478E0F9120FC77A207B009089
:102248000478E0F9120F49906182E0D2E6F0900735
:10225800F7E0602185C61C801690047EE06401705A
:1022680008E5C654F84405F5C653BEFC121F907421
:1022780001651B60E4EEA2E092AF7F0102181C74B6
:10228800E912177074F8121694851882851983EC70
:10229800F0A3EDF08A088B09900479E024F7C39441
:1022A80005500675080102241E120B9B8A0A8B0B27
:1022B800AE0AAF0BEE4F700302241BAC08AD0974D5
:1022C800021216E0AA82AB83120C0D8E828F83A3B2
:1022D800A3750CFF750DFF750EFF750F00780C12B6
:1022E800151374021216E07510FF7511FF7512FFB1
:1022F8007513007810121513780C791012133950D1
:102308002A780C79101214D87508017509C8750A4D
:1023180000750B007808790C1213395052850C0897
:10232800850D09850E0A850F0B80507514017515EA
:10233800C875160075170085100885110985120AD9
:1023480085130B7808790C1214D8781479081213AD
:1023580039401C750800750900750A00750B01786D
:102368000879101214D87808790C12149F800C750B
:102378000801750900750A00750B007409780812C0
:102388001480750C19F50DF50EF50F7808790C12F7
:1023980013F88E828F83A3A3A3A3A3A3E0F8A3E0DB
:1023A800F97AD07B03121609880C890DE4F50EF52D
:1023B8000F7808790C12149F74061216E0E0F8A33F
:1023C800E0F97AD07B03121609E8FA8A0CE4F50DD5
:1023D8007808790C12133950077808790C1214D838
:1023E800900479E06408600AE064066005E064052A
:1023F800702D750C0D780C79081213394021750C65
:10240800F4750DFF750EFF750FFF7808790C12141F
:102418009F800C750800750900750A00750B00850A
:102428001882851983E0F8A3E0F58388827808127A
:10243800155B74081216AA7F1002181C74F712177D
:1024480070120C1F9007F5E064017010906245E46B
:10245800F0A3F053F4F343FE0C5390F3120BCBE5C7
:10246800C654804449F5C6E59E547F644970F89087
:102478006185740FF09007F3E0F47002A3E0604EFA
:102488009007F4E0600814601B14602E8040750803
:10249800017509009007F3E07808121681E508F441
:1024A8005280802A7508017509009007F3E07808C2
:1024B800121681E508F45290801475080175090018
:1024C8009007F3E07808121681E508F452A0790025
:1024D8007F0202181C74F7121770E9FEEAFF7401F4
:1024E8006E700C7A807B00900478E0F9120F4390AC
:1024F80026DCE493F46008E493F91209C7800953D1
:10250800C680E59E547F70FA120BD19007F5E064FF
:102518000170031209DF9007F3E0F47002A3E06092
:102528004B9007F4E0600814601A14602C803D7525
:1025380008017509009007F3E07808121681E5088C
:10254800428080287508017509009007F3E0780833
:10255800121681E5084290801375080175090090EC
:1025680007F3E07808121681E50842A0120C1F1242
:102578000B9B8A088B09A808A909E8496015E5E1B9
:1025880070FCE82414F582E93400F583E0F4600374
:10259800E0F5E174016F700A7A01900478E0F912AD
:1025A8000F970224D874ED1217708A088B098C0AC9
:1025B8008D0B74131216E0780C12154C7808790CF0
:1025C8001213397510017511C87512007513005072
:1025D800127808790C1214D8781079081213395027
:1025E800168010780C79081214D87810790C121308
:1025F8003940047901800279007F0C02181C74EDBF
:102608001217708A088B098C0A8D0B74131216E046
:10261800780C12154C780C79081213394011780887
:10262800790C1214D8AA08AB09AC0AAD0B80227534
:1026380010007511007512007513017810790C12CD
:1026480014D87810790812149FAA10AB11AC12ADE7
:102658001380A6C082C083E9906000F0D083D08246
:1026680022C2AF02000022C0E074F212185CA2AFCE
:10267800E433FED2AFE589A2E150031211837589D4
:1026880000C2C5751A00EEA2E092AF7F010218BB26
:10269800C0E074F212185CA2AFE433FED2AFE58B4F
:1026A800A2E05003121183758B00C2E880D5C0E008
:1026B800C0D0E8C0E0E9C0E0E5A8D2AFC2C7751A4B
:1026C80000A2E7A2E792AFD0E0F9D0E0F8D0D0D0EE
:0226D800E032EE
:1026DC00FFFFFFFFFFFFFFFFC082C083784C79082C
:1026EC0088828983A3A3A3A3A3A3E4F0888289830C
:1026FC00A3A3A3A3A374FFF0E82418F8E93400F90A
:10270C00E864AC7003E9640870D690084E74FFF06E
:10271C0090084DE4F090084CF090084FF0A3F002B4
:10272C003FDC74EC12170490084FE0F508A3E0F5B9
:10273C0009E508450970061209D302356A85088235
:10274C00850983E014601814601524FE601124C4FC
:10275C007003022F7024C07003022F7002356AE0E0
:10276C00F9120B898A0A8B0BAE0AAF0B9004A6E008
:10277C007003022B6E120A7BE9F875F005A4C8AA47
:10278C00F02AF974A928F50C740439F50D850C821E
:10279C00F583E0F50AA3E0F50BAC0AFDEEFAEFFBCE
:1027AC00120B83E9F50E7402650E7003022B168E64
:1027BC00828F83E024FE600A24FE7003022A00024A
:1027CC00356AEE65087003EF650960211209F19016
:1027DC0007DAE0640170169007D9E07010790112E5
:1027EC000CA9120C79120CA37900120CAFE50E6037
:1027FC0021E5082415F582E5093400F583E0601223
:10280C009007D5E0F8A3E0F9A3E0687003A3E069B2
:10281C007042120C078A0C8B0D8C0E8D0F751003E9
:10282C00751100751200751300780C791012149F35
:10283C007510FF7511FF7512FF780C7910121500C9
:10284C008E828F83A3A3E50CF0A3E50DF0A3E50E18
:10285C00F0A3E4F0E5082415F582E5093400F583CE
:10286C00E064016003022918850A82850B83A3A307
:10287C00750CF1750DFF750EFF750FFF780C1214AA
:10288C00B2780C1219138E828F83A3A3C082C083DB
:10289C009007D7E0F508A3E085080CF50DE4F50EDC
:1028AC00F50FD083D082780C1214B2AA0CAB0DACFD
:1028BC000EAD0F1225AD74041216AAE9701F8E828C
:1028CC008F83A3A3C082C0839007D7E0F508A3E051
:1028DC00F509E4F50AF50BD083D0828014850A82C1
:1028EC00850B83A3A37508F17509FF750AFF750B9A
:1028FC00FF78081214B2750CFF750DFF750EFF757D
:10290C000F007808790C121500022E68EE240EF5D3
:10291C0082EF3400F58312192A8E828F83A3A312BF
:10292C00156A1225AD74041216AAE964016003023B
:10293C00348B850A82850B83A3A3750CF1750DFF6F
:10294C00750EFF750FFF780C1214B2780C12191358
:10295C008E828F83A3A3C082C0839007D7E0F50833
:10296C00A3E085080CF50DE4F50EF50FD083D082AD
:10297C00780C1214B2AA0CAB0DAC0EAD0F1225AD27
:10298C0074041216AAE9701F8E828F83A3A3C082CF
:10299C00C0839007D7E0F508A3E0F509E4F50AF544
:1029AC000BD083D0828014850A82850B83A3A375F8
:1029BC0008F17509FF750AFF750BFF78081214B240
:1029CC00750CFF750DFF750EFF750F007808790CEF
:1029DC00121500EE240EF582EF3400F58378081200
:1029EC00155B9007DDE06427700474258002E00419
:1029FC00F002348BEE65087003EF650960319007C7
:102A0C00F1E0F91209F7850882850983E064027008
:102A1C001E9007DAE0640170169007D9E070107907
:102A2C0000120CA9120C79120CA37901120CAFE54F
:102A3C000E60129007EBE0F8A3E0F9A3E0687003D6
:102A4C00A3E0697039120C078A0C8B0D8C0E8D0F5C
:102A5C00751003751100751200751300780C791040
:102A6C0012149F7510FF7511FF7512FF780C7910F9
:102A7C001215008E828F83A3A3780C12155B850A26
:102A8C0082850B83A3A3750CF1750DFF750EFF7575
:102A9C000FFF780C1214B2780C1219138E828F83DC
:102AAC00A3A3C082C0839007EDE0F508A3E08508DE
:102ABC000CF50DE4F50EF50FD083D082780C1214C2
:102ACC00B2AA0CAB0DAC0EAD0F1225AD74041216E0
:102ADC00AAE9701F8E828F83A3A3C082C083900744
:102AEC00EDE0F508A3E0F509E4F50AF50BD083D089
:102AFC00828014850A82850B83A3A37508F175095E
:102B0C00FF750AFF750BFF023274850882850983F5
:102B1C00E0640270139007DAE06401700B9007D93F
:102B2C00E070057900120CA9E50C2404FEE50D34C7
:102B3C0000FF8E828F83E0F9120BBF8E828F83E0B1
:102B4C009004A7F07902FA75F005A4CAA8F028FB46
:102B5C0074A92AFA74043BFB121E43AA0AAB0B029B
:102B6C003567EE65087003EF65098E828F8360030D
:102B7C00022D8AE024FE600A24FE7003022CC70298
:102B8C003563EE2415F582EF3400F583E0604C904C
:102B9C0007D5E0F8A3E0F9A3E0687003A3E069604F
:102BAC003A120C078A088B098C0A8D0B750C0A7566
:102BBC000D00750E00750F007808790C12149F78B3
:102BCC00081219138E828F83A3A312156A1225ADD6
:102BDC0074041216AAE96003023563120C078A0802
:102BEC008B098C0A8D0B750C03750D00750E007519
:102BFC000F007808790C12149F750CFF750DFF757A
:102C0C000EFF7808790C1215008E828F83A3A3789F
:102C1C000812155BEE2415F582EF3400F583E064A1
:102C2C000170328E828F83A3A3C082C0839007D79A
:102C3C00E0F508A3E0F509E4F50AD083D082780822
:102C4C001214B2EE240EF582EF3400F583780812DC
:102C5C00155B023563EE240EF582EF3400F583121A
:102C6C00192A8E828F83A3A312156A1225AD7404C0
:102C7C001216AAE9640160030235638E828F83A366
:102C8C00A3C082C0839007D7E0F508A3E0F509E460
:102C9C00F50AD083D08278081214B2EE240EF58295
:102CAC00EF3400F583780812155B9007DDE064279C
:102CBC00700474258002E0040235629007EBE0F8A2
:102CCC00A3E0F9A3E0687003A3E0696037120C0776
:102CDC008A088B098C0A8D0B750C0A750D00750E04
:102CEC0000750F007808790C12149F7808121913CC
:102CFC008E828F83A3A312156A1225AD740412164B
:102D0C00AAE97077EE2402F508EF3400F509120CED
:102D1C00078A0C8B0D8C0E8D0F75100375110075B9
:102D2C001200751300780C791012149F7510FF7532
:102D3C0011FF7512FF780C79101215008508828529
:102D4C000983780C12155B850882850983C082C0C3
:102D5C00839007EDE0F508A3E0F509E4F50AF50B1F
:102D6C00D083D08278081214B2EE240EF582EF34A0
:102D7C0000F583780812155B1209FD023563E02417
:102D8C00FE600A24FE7003022E7A02356A1209F1E3
:102D9C009007DAE0640170169007D9E070107901A1
:102DAC00120CA9120C79120CA37900120CAF90071B
:102DBC00D5E0F8A3E0F9A3E0687003A3E0696037FD
:102DCC00120C078A088B098C0A8D0B750C0A750D71
:102DDC0000750E00750F007808790C12149F780896
:102DEC001219138E828F83A3A312156A1225AD7448
:102DFC00041216AAE97074EE2402F508EF3400F5FB
:102E0C0009120C078A0C8B0D8C0E8D0F7510037527
:102E1C001100751200751300780C791012149F753F
:102E2C0010FF7511FF7512FF780C791012150085C3
:102E3C000882850983780C12155B850882850983C5
:102E4C00C082C0839007D7E0F508A3E0F509E4F54C
:102E5C000AF50BD083D08278081214B2EE240EF54A
:102E6C0082EF3400F583780812155B02348B9007DF
:102E7C00F1E0F91209F7850882850983E064027094
:102E8C001E9007DAE0640170169007D9E070107993
:102E9C0000120CA9120C79120CA37901120CAF9030
:102EAC0007EBE0F8A3E0F9A3E0687003A3E0696026
:102EBC0037120C078A088B098C0A8D0B750C0A7556
:102ECC000D00750E00750F007808790C12149F78A0
:102EDC00081219138E828F83A3A312156A1225ADC3
:102EEC0074041216AAE97079EE2402F8EF3400F992
:102EFC0088088909120C078A0C8B0D8C0E8D0F75A6
:102F0C001003751100751200751300780C791012EE
:102F1C00149F7510FF7511FF7512FF780C79101244
:102F2C001500850882850983780C12155B8508824B
:102F3C00850983C082C0839007EDE0F508A3E0F516
:102F4C0009E4F50AF50BD083D08278081214B2EE9E
:102F5C00240EF582EF3400F583780812155B120904
:102F6C00FD02355D9004A6E07003023381120A7BEA
:102F7C00E9F875F005A4C8AAF02AF974A928F51087
:102F8C00740439F511851082F583E0F508A3E0F59A
:102F9C00099004A7E0F875F005A4C8AAF02AF97402
:102FAC00A928F50C740439F50D90084DE054077000
:102FBC000302328FA3E0F9120B898A0A8B0BAE0A3B
:102FCC00AF0BAC08AD09120B83E9F50E7402650E5C
:102FDC00700302328F850C82850D83A3A3A3A3E01B
:102FEC00F875F08AA4C8AAF02AF974B128F50A7405
:102FFC000839F50BAA0AFB120BB3AA0AAB0B120B7E
:10300C00AD75128075130078121219177C007D6053
:10301C00E50A2406FAE50B3401FB120AF3740212DA
:10302C0016AAA80AA90B906195E0C0E0E82486F5E1
:10303C0082E93401F583D0E0F0906196E0C0E0E8DD
:10304C002487F582E93401F583D0E0F0906197E0B4
:10305C00C0E0E82488F582E93401F583D0E0F090F3
:10306C006198E0C0E0E82489F582E93401F583D069
:10307C00E0F08E828F83E024FE600A24FE7003024F
:10308C00319A02328F1209F19007DAE06401701163
:10309C009007D9E0700B120C79120CA37900120C6A
:1030AC00AFE50E60129007D5E0F8A3E0F9A3E06855
:1030BC007003A3E0697036120C078A0C8B0D8C0E12
:1030CC008D0F751003751100751200780C791012A4
:1030DC00149F7510FF7511FF7512FF780C79101283
:1030EC0015008E828F83A3A3780C12155B85088242
:1030FC00850983A3A3750CF1750DFF750EFF750F74
:10310C00FF780C1214B2780C1219138E828F83A3D1
:10311C00A3C082C0839007D7E0F50CA3E0F50DE4C3
:10312C00F50EF50FD083D082780C1214B2AA0CAB2A
:10313C000DAC0EAD0F1225AD74041216AAE9701F5A
:10314C008E828F83A3A3C082C0839007D7E0F5083B
:10315C00A3E0F509E4F50AF50BD083D08280148541
:10316C000882850983A3A37508F17509FF750AFF09
:10317C00750BFF78081214B2750CFF750DFF750EE8
:10318C00FF750F007808790C12150002347C90073B
:10319C00F1E0F91209F7E50E60129007EBE0F8A3E5
:1031AC00E0F9A3E0687003A3E0697036120C078A9B
:1031BC000C8B0D8C0E8D0F75100375110075120094
:1031CC00780C791012149F7510FF7511FF7512FF92
:1031DC00780C79101215008E828F83A3A3780C12B1
:1031EC00155B850882850983A3A3750CF1750DFF0A
:1031FC00750EFF750FFF780C1214B2780C121913A0
:10320C008E828F83A3A3C082C0839007EDE0F50C60
:10321C00A3E0F50DE4F50EF50FD083D082780C12F7
:10322C0014B2AA0CAB0DAC0EAD0F1225AD7404127A
:10323C0016AAE9701F8E828F83A3A3C082C08390CD
:10324C0007EDE0F508A3E0F509E4F50AF50BD083EA
:10325C00D0828014850882850983A3A37508F17533
:10326C0009FF750AFF750BFF78081214B2750CFF75
:10327C00750DFF750EFF750F007808790C1215008F
:10328C0002354BE510650C7004E511650D700302F9
:10329C00335F850C82850D83A3A3A3E070030233F7
:1032AC0043850C82850D83A3A3A3A3E0F875F08A54
:1032BC00A4C8AAF02AF974B128FE740839FFEEFAF2
:1032CC00EFFB120BB3EEFAEFFB120BAD750A807528
:1032DC000B00780A1219177C007D60EE2406FAEFB9
:1032EC003401FB120AF374021216AA906195E0C025
:1032FC00E0EE2486F582EF3401F583D0E0F09061A6
:10330C0096E0C0E0EE2487F582EF3401F583D0E03F
:10331C00F0906197E0C0E0EE2488F582EF3401F57F
:10332C0083D0E0F0906198E0C0E0EE2489F582EF64
:10333C003401F583D0E0F0E5102404FEE5113400EF
:10334C00FF8E828F83E0F9120BBF8E828F83E09009
:10335C0004A7F079029004A7E0FA75F005A4CAA8B6
:10336C00F028FB74A92AFA74043BFB121E43AA082A
:10337C00AB0902356790084DE05407700302356ABB
:10338C00A3E0F9120B898A088B09AE08AF098E826B
:10339C008F83E024FE600A24FE700302349302350E
:1033AC006A1209F19007DAE0640170169007D9E00F
:1033BC0070107901120CA9120C79120CA37900125D
:1033CC000CAF9007D5E0F8A3E0F9A3E0687003A375
:1033DC00E0696037120C078A088B098C0A8D0B7513
:1033EC000C0A750D00750E00750F007808790C121B
:1033FC00149F78081219138E828F83A3A312156A57
:10340C001225AD74041216AAE97074EE2402F508A4
:10341C00EF3400F509120C078A0C8B0D8C0E8D0FF6
:10342C00751003751100751200751300780C791066
:10343C0012149F7510FF7511FF7512FF780C79101F
:10344C00121500850882850983780C12155B850896
:10345C0082850983C082C0839007D7E0F508A3E07A
:10346C00F509E4F50AF50BD083D08278081214B272
:10347C00EE240EF582EF3400F583780812155B907C
:10348C00084E74020235629007F1E0F91209F790C8
:10349C0007EBE0F8A3E0F9A3E0687003A3E0696030
:1034AC0037120C078A088B098C0A8D0B750C0A7560
:1034BC000D00750E00750F007808790C12149F78AA
:1034CC00081219138E828F83A3A312156A1225ADCD
:1034DC0074041216AAE97076EE2402F8EF3400F99F
:1034EC0088088909120C078A0C8B0D8C0E8D0F75B0
:1034FC001003751100751200751300780C791012F9
:10350C00149F7510FF7511FF7512FF780C7910124E
:10351C001500850882850983780C12155B85088255
:10352C00850983C082C0839007EDE0F508A3E0F520
:10353C0009E4F50AF50BD083D08278081214B2EEA8
:10354C00240EF582EF3400F583780812155B12090E
:10355C00FD90084E7404F0EEFAEFFB120B7D7F0C1D
:10356C000217D674F0121704EAFEEBFFEE2402F8F1
:10357C00EF3400F988088909EE2406F8EF3400F9D5
:10358C00880A890B8882F58312192E850882850991
:10359C008312156A120BE374021216AA850A82852D
:1035AC000B8312192E85088285098312156A120B5A
:1035BC00D774021216AAEE240EF582EF3400F583AE
:1035CC0012156A120BE98E828F83E06440701CEE38
:1035DC002412F8EF3400F988828983E0906064F05B
:1035EC0088828983A3E09060658006906064E4F033
:1035FC00A3F090084FEEF0A3EFF0EE2416F582EF57
:10360C003400F583E0F8A3E0F5838882121702906A
:10361C006054E4F0A3F0A3F0A3F0A3F0A3F0A3F0A4
:10362C00A3F0A3F0A3F0A3F0A3F0906182E0C2E6B4
:10363C00F07591BFEE2415F582EF3400F583E0644C
:10364C00017003120C1FE5E170FCEE2414F582EFFF
:10365C003400F583E0F46003E0F5E1EE2415F58227
:10366C00EF3400F5837401F090047FE06401707313
:10367C00120C078A088B098C0A8D0B780812191307
:10368C008E828F83A3A312156A1226067404121657
:10369C00AA8A088B098C0A8D0B750C05750D0075A3
:1036AC000E00750F007808790C12137874037808E3
:1036BC00121467E50824F4F508E5093401F50990BE
:1036CC0007F7E06003120F6DE4F50AF50B780812AA
:1036DC0019137A207B00900478E0F9120FBB740464
:1036EC001216AA7F080217D674EA121704EAFEEB28
:1036FC00FF8C148D15EE4F7003023810120C078AD4
:10370C00088B098C0A8D0B750C01750D00750E005C
:10371C00750F007808790C12149F750CFF750DFF4E
:10372C00750EFF7808790C1215008E828F83E06479
:10373C000270149007D5E0F8A3E0F9A3E0687003D9
:10374C00A3E06970248017E06404701D9007EBE01F
:10375C00F8A3E0F9A3E0687003A3E069700B8E8214
:10376C008F83A3A3780812155B75101A7511007559
:10377C0012007513007808121913851482851583AD
:10378C00A3A312156A12260674041216AA8A0C8BAD
:10379C000D8C0E8D0F7810790C1213394066851430
:1037AC0082851583A3A3750CE7750DFF750EFF7548
:1037BC000FFF780C1214B2780C1219138E828F83AF
:1037CC00A3A312156A1225AD74041216AAE970345B
:1037DC00750C07750D00750E00750F007808790CC7
:1037EC0012149F78081219138E828F83A3A31215BB
:1037FC006A1225AD74041216AAE9700479008006C9
:10380C007901800279027F0E0217D674F012170428
:10381C00890874FF650860030239A590084DE054CF
:10382C00077003023E817A00784C7908888289837C
:10383C00A3A3A3A3A3E06404703FEA75F018A4F853
:10384C00A9F0745228F582740839F583E06401708C
:10385C00377A00784C790888828983A3A3A3A3A321
:10386C00E0640460030238FA88828983A3A3A3A3CB
:10387C00A3A3E06401707780630AE82418F8E934A4
:10388C0000F9EAC3940440A47A00784C7908888241
:10389C008983A3A3A3A3A3E064017067EA75F0185E
:1038AC00A4F8A9F0745228F582740839F583E06401
:1038BC000170627A00784C790888828983A3A3A36B
:1038CC00A3A3E06401600302398188828983A3A3E6
:1038DC00A3A3A3A3E064016003023981EA75F01885
:1038EC00A4F8A9F0745128FA740839023E7E0AE84B
:1038FC002418F8E93400F9EAC3940450030238633D
:10390C00023E810AE82418F8E93400F9EAC3940469
:10391C00500302389A7A00784C790888828983A3FC
:10392C00A3A3A3A3E064027061EA75F018A4F8A93C
:10393C00F0745228F582740839F583E064017059EB
:10394C007A00784C790888828983A3A3A3A3A3E087
:10395C006402707A88828983A3A3A3A3A3A3E064DF
:10396C0001706BEA75F018A4F8A9F0745128FA7478
:10397C000839FB806F0AE82418F8E93400F9EAC327
:10398C00940450030238C5023E810AE82418F8E971
:10399C003400F9EAC3940440827A00784C790888A0
:1039AC00828983A3A3A3A3A3E06508703A888289C4
:1039BC0083A3A3A3A3A3A3E06401702BEA75F0185F
:1039CC00A4F8A9F0745128FE740839FF802C0AE879
:1039DC002418F8E93400F9EAC3940450030239526C
:1039EC007A007B00023E850AE82418F8E93400F9D5
:1039FC00EAC3940440A97E007F007A00784C7908D1
:103A0C0088828983A3A3A3A3A3E06508701BEA752E
:103A1C00F018A4F8A9F0745228F582740839F583CB
:103A2C00E0640170137A0180110AE82418F8E93473
:103A3C0000F9EAC3940440C87A00E5081460101435
:103A4C007003023BBC24FE7003023CCF023E817B20
:103A5C0000784C790888828983A3A3A3A3A3E0648C
:103A6C00027052EB75F018A4F8A9F0745228F58284
:103A7C00740839F583E06401704A7B00784C79084E
:103A8C0088828983A3A3A3A3A3E064026003023BFF
:103A9C002A88828983A3A3A3A3A3A3E06401707ED5
:103AAC00EB75F018A4F8A9F0745128F50A740839CC
:103ABC00F50B023B420BE82418F8E93400F9EBC390
:103ACC00940440917B00784C790888828983A3A365
:103ADC00A3A3A3E064046003023B83EB75F018A47A
:103AEC00F8A9F0745228F582740839F583E0640162
:103AFC006003023B957B00784C790888828983A30C
:103B0C00A3A3A3A3E064046003023BA0888289837F
:103B1C00A3A3A3A3A3A3E064017079023D230BE844
:103B2C002418F8E93400F9EBC394045003023A8CDE
:103B3C00750A00750B00EAA2E05035850A82850BE8
:103B4C0083A3A3750CF6750DFF750EFF750FFF782B
:103B5C000C1214B2780C1219138E828F83A3A31239
:103B6C00156A1225AD74041216AAE97003023E7B85
:103B7C00AA0AAB0B023E850BE82418F8E93400F9CD
:103B8C00EBC394045003023AD6EAA2E0501BEEFABF
:103B9C00EFFB80190BE82418F8E93400F9EBC39417
:103BAC00045003023B07023DC87A007B00023E85AD
:103BBC007B00784C790888828983A3A3A3A3A3E014
:103BCC0064047040EB75F018A4F8A9F0745228F551
:103BDC0082740839F583E0640170387B00784C7985
:103BEC000888828983A3A3A3A3A3E06404600302CF
:103BFC003C8188828983A3A3A3A3A3A3E06401705F
:103C0C0074023D230BE82418F8E93400F9EBC39453
:103C1C000440A37B00784C790888828983A3A3A3F2
:103C2C00A3A3E064017063EB75F018A4F8A9F07419
:103C3C005228F582740839F583E06401705B7B00CF
:103C4C00784C790888828983A3A3A3A3A3E0640199
:103C5C00705288828983A3A3A3A3A3A3E0640170F9
:103C6C0043EB75F018A4F8A9F0745128F50A740800
:103C7C0039F50B80440BE82418F8E93400F9EBC350
:103C8C0094045003023BED023DC80BE82418F8E9FC
:103C9C003400F9EBC394044080EAA2E0501EEEFA23
:103CAC00EFFB801C0BE82418F8E93400F9EBC39403
:103CBC00044091750A00750B00023DCE7A007B0022
:103CCC00023E857B00784C790888828983A3A3A364
:103CDC00A3A3E064017055EB75F018A4F8A9F07477
:103CEC005228F582740839F583E06401704D7B002D
:103CFC00784C790888828983A3A3A3A3A3E06401E9
:103D0C006003023DB688828983A3A3A3A3A3A3E087
:103D1C0064016003023DB6EB75F018A4F8A9F074C9
:103D2C005128F50A740839F50B023DCE0BE824181E
:103D3C00F8E93400F9EBC39404408E7B00784C799D
:103D4C000888828983A3A3A3A3A3E064026003026F
:103D5C003E0DEB75F018A4F8A9F0745228F5827496
:103D6C000839F583E064016003023E1F7B00784C48
:103D7C00790888828983A3A3A3A3A3E064026003C8
:103D8C00023E2688828983A3A3A3A3A3A3E0640194
:103D9C006003023E26EB75F018A4F8A9F0745128C4
:103DAC00F50A740839F50B023E3E0BE82418F8E9C5
:103DBC003400F9EBC394045003023D00750A0075FE
:103DCC000B00EAA2E04003023B7C850A82850B8350
:103DDC00A3A3750CF6750DFF750EFF750FFF780C10
:103DEC001214B2780C1219138E828F83A3A312159E
:103DFC006A1225AD74041216AAE96003023B7C809A
:103E0C006E0BE82418F8E93400F9EBC39404500362
:103E1C00023D4DEAA2E0505D80550BE82418F8E90C
:103E2C003400F9EBC394045003023D7E750A00750F
:103E3C000B00EAA2E04003023B7C850A82850B83DF
:103E4C00A3A3750CF6750DFF750EFF750FFF780C9F
:103E5C001214B2780C1219138E828F83A3A312152D
:103E6C006A1225AD74041216AAE96003023B7CEEBB
:103E7C00FAEFFB80047A007B000236EF74F612171F
:103E8C00048909750800784C790888828983A3A372
:103E9C00A3A3A3A3E06003023F64E50875F018A494
:103EAC00F8A9F0745128FE740839FF8E828F83A311
:103EBC007401F08E828F83E509F0120C078E828FCD
:103ECC0083A3A31215768E828F83A3A3A3A3A3A38C
:103EDC00E4F0A3F0EE240EF582EF3400F58374FFCA
:103EEC00F0A3F0A3F0A3F0EE2414F582EF3400F568
:103EFC00837401F0EE2415F582EF3400F583740120
:103F0C00F0EE2416F582EF3400F583E4F0A3F09084
:103F1C00084DE04509F090084CE004F06401600C99
:103F2C00748065096006744065097019E50875F0C0
:103F3C0018A4F8A9F0745128F8740839F990084FAE
:103F4C00E8F0A3E9F0E50875F018A4F8A9F07451AD
:103F5C0028FA740839FB80180508E82418F8E934A5
:103F6C0000F9E508C394045003023E967A007B00E6
:103F7C0080007F020217D6C082C0838A828B83E0C6
:103F8C00F8A3E0F98A828B83E4F0A3F0888289831A
:103F9C00A3F088828983E0F4F890084DE058F09003
:103FAC00084CE014F0700B90084FE4F0A3F0900470
:103FBC0079F0801CC082C08390084CE0600A9008A5
:103FCC004FE0FAA3E0FB80047A007B008002E0F96A
:103FDC00D083D082020132C082C083E9FB7A0078A0
:103FEC004C790888828983A3A3A3A3A3E06B7016E2
:103FFC00EA75F018A4F8A9F0745228F582740839FF
:10400C00F583E0F980110AE82418F8E93400F9EA9C
:10401C00C3940440CE790080B7C082C08390084C12
:10402C00023FDA74F6121704EAFEEBFF9061D0E05F
:10403C00C0E0EE2400F582EF3401F583D0E0F0907F
:10404C0061D7E0F89061D5E0C398547FC0E0EE24CE
:10405C0001F582EF3401F583D0E0F09061D6E0C336
:10406C0098547FC0E0EE2402F582EF3401F583D042
:10407C00E0F0701A9061C5E0A2E45012E0A2E750A3
:10408C000DEE2402F582EF3401F5837480F0120CEE
:10409C00D3EE2401F582EF3401F583E07034EE2485
:1040AC0002F582EF3401F583E070279061C5E0A240
:1040BC00E4501FE0A2E7501AEE2402F582EF34011F
:1040CC00F5837480F0EE2401F582EF3401F58374EE
:1040DC0080F075E1957800EE2400F582EF3401F55F
:1040EC0083E060279061D3E0C0E08808EE2508F5F6
:1040FC0082EF3400F583D0E0F008EE2400F582EF77
:10410C003401F583E0F9E8C39940D975E191023F98
:10411C007E74F6121704EAFEEBFF9061C8E0C0E073
:10412C00EE2403F582EF3401F583D0E0F09061CFFB
:10413C00E0F89061CDE0C398547FC0E0EE2404F524
:10414C0082EF3401F583D0E0F09061CEE0C3985457
:10415C007FC0E0EE2405F582EF3401F583D0E0F06A
:10416C00701A9061C5E0A2E05012E0A2E3500DEE8F
:10417C002405F582EF3401F5837480F0120CD9EE2E
:10418C002404F582EF3401F583E07034EE2405F558
:10419C0082EF3401F583E070279061C5E0A2E05016
:1041AC001FE0A2E3501AEE2405F582EF3401F583EB
:1041BC007480F0EE2404F582EF3401F5837480F002
:1041CC00120CDF7A00EE2403F582EF3401F583E064
:1041DC00602F9061CBE0C0E08A08EE2508F8EF3440
:1041EC0000F9E82480F582E93400F583D0E0F00A88
:1041FC00EE2403F582EF3401F583E0F8EAC398402E
:10420C00D175E181023F7E74F41217048908A80865
:10421C00E875F08AA4C8AAF02AF974B128FE7408CB
:10422C0039FFEEFAEFFB120BB3EEFAEFFB120BAD0C
:10423C00750A80750B00780A1219177C007D60EEE8
:10424C002406FAEF3401FB120AF374021216AA9038
:10425C006195E0C0E0EE2486F582EF3401F583D061
:10426C00E0F0906196E0C0E0EE2487F582EF340137
:10427C00F583D0E0F0906197E0C0E0EE2488F58201
:10428C00EF3401F583D0E0F0906198E0C0E0EE24CB
:10429C0089F582EF3401F583D0E0F07F040217D664
:1042AC0074F21217048908A808E875F08AA4C8AA41
:1042BC00F02AF974B128F8740839F99061C6E0FD58
:1042CC00E054F0F075E1817C00E82403F582E934D8
:1042DC0001F583E0602B8C0AE8250AFAE93400FB2F
:1042EC00EA2480F582EB3400F583E09061CAF00C8F
:1042FC00E82403F582E93401F583E0FAECC39A4033
:10430C00D5E82405F582E93401F583E06004906179
:10431C00CEF0E82404F582E93401F583E0600490E2
:10432C0061CDF0ED9061C6F0A808E875F08AA4C8DC
:10433C00AAF02AF974B128F8740839F9E0FCE054B1
:10434C000FF075E1917A00E82400F582E93401F56B
:10435C0083E060238A0AE8250AF582E93400F583B4
:10436C00E09061D2F00AE82400F582E93401F5838B
:10437C00E0FBEAC39B40DDE82402F582E93401F559
:10438C0083E060049061D6F0E82401F582E9340101
:10439C00F583E060049061D5F0EC9061C6F085087F
:1043AC0082AE82EEF875F08AA4C8AAF02AF974B12C
:1043BC0028F50A740839F50B750C80750D00780C0E
:1043CC00121917E50A2406FCE50B3401FD7A007B73
:1043DC0060120AF374021216AAA80AA90BE8248622
:1043EC00F582E93401F583E0906195F0E82487F5D6
:1043FC0082E93401F583E0906196F0E82488F58237
:10440C00E93401F583E0906197F0E82489F582E9BD
:10441C003401F583E0906198F0EE75F005A4CEA818
:10442C00F028FF74A92EF58274043FF583E0F8A3FD
:10443C00E0F5838882E06480704190101D7435F043
:10444C00A3740BF0A3741DF0A3740BF0A37435F0DC
:10445C00A3740BF0A37435F0A3740BF0A3741DF0CC
:10446C00A3740BF0A37435F0A3740BF0A3743BF09E
:10447C00A3740BF090047974088005900479740788
:10448C00F090102B741DF0A3740BF0A3741DF0A30B
:10449C00740BF0A3741DF0A3740BF0A3741DF0A3A4
:1044AC00740BF0A3741DF0A3740BF0A3741DF0A394
:1044BC00740BF07F060217D6C082C0839061907493
:1044CC0004F0A37448F0A37402F09061807440F07F
:1044DC009061BC7403F09061877419F090626574FC
:1044EC001BF0906249E0C3941390619C400A7409DC
:1044FC00F090606674018007740DF0906066E4F0D3
:10450C0090619A7433F0A37455F09061A0743AF0F2
:10451C009007F5E064017009C29190047D74678086
:10452C000590047D7461F09026E2E493906186F02E
:10453C009026DCE493F46027E493540FF8906185A3
:10454C00E0686012E5C654804449F5C6E59E547F88
:10455C00644970F8E8F053C680E59E547F70FA7990
:10456C0005120CCD024965C082C083E9540FF99045
:10457C006185E0696012E5C654804449F5C6E59E44
:10458C00547F644970F8E9F053C680E59E547F70FF
:10459C00FA024965C082C083E5A8F853A87E9061F1
:1045AC0081E4F0A3F0A3F0C2BA539AFEC289759BC2
:1045BC0000C2C275E90075910075BF0075A911752F
:1045CC00B905906181F0A374C0F0A3E4F0D2BA43B2
:1045DC009A0174805842A8024965F0024965C0826C
:1045EC00C08374F812169490047BE0F8A3E0F9E809
:1045FC0049700302471890047BE05440602379080B
:10460C00851882851983AA82AB83120AD5851882F4
:10461C00851983AA82AB831207CF90047BE054BF29
:10462C00F0E054806010790C7A1B7B08120AD5904C
:10463C00047BE0547FF0E0A2E0503190619A743337
:10464C00F0A37455F09061A0743AF09007F5E06413
:10465C00017009C29190047D7467800590047D748B
:10466C0061F01207D590047BE054FEF0E054026038
:10467C003190619A743FF0A3745AF09061A0747FEA
:10468C00F09007F5E064017009D29190047D74718B
:10469C00800590047D746AF01207D590047BE05479
:1046AC00FDF0E0540460139026E0E493906186F0F2
:1046BC001207DB90047BE054FBF0E054086013908D
:1046CC0026E1E493906186F01207DB90047BE054C2
:1046DC00F7F0E0541060139026E2E493906186F0BA
:1046EC001207DB90047BE054EFF0E05420600A12D8
:1046FC0007DB90047BE054DFF0A3E05401600D1263
:10470C0009DF1207E190047CE054FEF074081216E5
:10471C00AA02496574EC12170474F41216948518E5
:10472C0082851983AC82AD8375838475825674043B
:10473C001215A79026E093F460030248AC90780819
:10474C00E0C39402500302488C74041216E0AC824D
:10475C00AD837583837582F174081215A785188251
:10476C0085198385821285831374041216E0AC823A
:10477C00AD83750EFF750FFF7FFF7E00750C4875BE
:10478C000D78801574086E700302482074096E70E1
:10479C0003024820740A6E607B850C82850D837839
:1047AC000812154C8C828D83A909E50AC9F888106A
:1047BC0074187808121467E5104508F8C3E098A33C
:1047CC00E099850C82850D83780812154C40188C65
:1047DC00828D8374187808121467E5104508F8E088
:1047EC00C398F8A3E0801C74187808121467E510BD
:1047FC004508FAE9FB8C828D83E0F8A3E0F9EAC363
:10480C0098F8EB99F9C3E8950EE9950F5006880EC8
:10481C00890FEEFF0EE50C2404F50CE50D3400F5C4
:10482C000DEEC39413500302479074FF650E700491
:10483C0074FF650F60238F08740278081216817458
:10484C00482508F58274783509F583780812154CDB
:10485C00851282851383E508F0EC2402FCED34000C
:10486C00FD851282851383A3858212858313740CB4
:10487C001216E0E5826C7003E5836D600302477EDF
:10488C00750801750900780812191774021216E0E0
:10489C00AC82AD837AB87B0912115974021216AA34
:1048AC00740C1216AA7F0C0217D6C082C0839061BA
:1048BC00AE7468F0A3746AF090624574FBF0A304C4
:1048CC00F053F4FD43FE029007F57401F09061A0E3
:1048DC00E0643A90619A70237433F0A37455F090AD
:1048EC0061A0743AF0740164017009C29190047D66
:1048FC007467802890047D74618021743FF0A374E8
:10490C005AF09061A0747FF0740164017009D29127
:10491C0090047D7471800590047D746A0245E6C034
:10492C0082C0839007D3E0640170119007D9E064D2
:10493C00016019E07006A3E0640160109007EAE0E2
:10494C006401700C9007F0E064017004790C800233
:10495C0079008005E0F912265BD083D08202013207
:10496C00C082C0839007DD7425F09007DB7401F0E2
:10497C00A3E4F07A01FB120C499007C9E0F8A3E01C
:10498C00C82416F582E83400F5837403F0A3740A86
:10499C00F09007DAE0640170169007D9E070107996
:1049AC0001120CA9120C79120CA37900120CB5028D
:1049BC004965C082C08374FA1216949007D2E064E1
:1049CC000170081209EB9007D2E4F075E1F1900741
:1049DC00C9E0F8A3E0C82415F582E83400F5837427
:1049EC0001F09007D4E064017076908408C0828551
:1049FC001882851983AC82AD83758384D08274064A
:104A0C001215A775D90D9007CBE0C4333354C044AD
:104A1C0003F5D978C9790788828983A3A3A3E0F524
:104A2C00D988828983A3A882A983E864CF7003E91B
:104A3C00640770E3851882851983A882A98388820C
:104A4C008983E0F5D9A3A882A98374061216E0E540
:104A5C0082687003E5836970E575E19579018002E0
:104A6C007900120C4F90101D7453F0A3740BF0A32B
:104A7C007459F0A3740BF0A37453F0A3740BF0A34C
:104A8C007453F0A3740BF0A3741DF0A3740BF0A378
:104A9C00741DF0A3740BF0A3745FF0A3740BF0906F
:104AAC00102B741DF0A3740BF0A3741DF0A3740BE6
:104ABC00F0A3741DF0A3740BF0A3741DF0A3740B7E
:104ACC00F0A3741DF0A3740BF0A3741DF0A3740B6E
:104ADC00F09007CBE0F97ACC7B07120C2B9007DD1A
:104AEC00E0F912265B7901120C557AD67BBE7C89D3
:104AFC007D8E120C6D7A557B557C557D00120C37D2
:104B0C007900120CC19007C9E0F8A3E0C82414F591
:104B1C0082E83400F5837416F09004797405F0047F
:104B2C0002471A74F71217048908A808E875F005EB
:104B3C00A4C8AAF02AF974A928FE740439FF9007B6
:104B4C00E2E0F97AE37B07120C2B9007F0E0701A85
:104B5C007900120C8B9007B8E07004790080027910
:104B6C00017AB97B07120C3180057901120C8B7517
:104B7C00E1F175D9239007E2E0C4333354C0440506
:104B8C00F5D978E0790788828983A3A3A3E0F5D9C6
:104B9C0088828983A3A882A983E864E67003E96408
:104BAC000770E375D90075D90075D90075D90075F2
:104BBC00D90075D900EEF8EFF9E82404FAE93400CD
:104BCC00FBE82422F582E93400F583E0F5D98882EC
:104BDC008983A3A882A983EA687002EB6970E2EE6C
:104BEC00F8EFF9E824031AE93400FBE82426F582EF
:104BFC00E93400F583E0F5D988828983A3A882A9DA
:104C0C0083EA687002EB6970E2EE242BF582EF34D4
:104C1C0000F583E0F5D9EE242CF582EF3400F58312
:104C2C00E0F5D9EE242DF582EF3400F583E0F5D9CB
:104C3C00EE242EF582EF3400F583E0F5D9EE242F27
:104C4C00F582EF3400F583E0F5D9EE2430F582EFF0
:104C5C003400F583E0F5D9EE2431F582EF3400F51C
:104C6C0083E0F5D9EE2432F582EF3400F583E0F5DC
:104C7C00D9EE2433F582EF3400F583E0F5D9EEF864
:104C8C00EFF9E82405FAE93400FBE8245DF582E944
:104C9C003400F583E0F5D988828983A3A882A9839F
:104CAC00EA687002EB6970E2EE2437F582EF3400AB
:104CBC00F583E0541FF8EE242AF582EF3400F583D7
:104CCC00E0C43354E048F5D975E19590101D742378
:104CDC00F0A3740BF0A37429F0A3740BF0A3741D50
:104CEC00F0A3740BF0A3741DF0A3740BF0A3741D4C
:104CFC00F0A3740BF0A3741DF0A3740BF0A3742F2A
:104D0C00F0A3740BF090102B741DF0A3740BF0A394
:104D1C00741DF0A3740BF0A3741DF0A3740BF0A31B
:104D2C00741DF0A3740BF0A3741DF0A3740BF0A30B
:104D3C00741DF0A3740BF09007EFE0F912265B7A68
:104D4C00D67BBE7C897D8E120C6D7A557B557C553D
:104D5C007D00120C3790600DE4F07901120CC190BB
:104D6C0004797406F002532874E81217049007E0D3
:104D7C00E0F8A3E0F5838882A3A3780C12154C907D
:104D8C0007F1E0FAF875F005A4C8ACF02CF974D76B
:104D9C0028F582740439F583E0FEA3E0FFEEC333FB
:104DAC00FEEF33FF8E14F515751600751700850C84
:104DBC0008850D09850E0A850F0B751004751100F9
:104DCC007512007513007808791012149F78081268
:104DDC001913850C08850D09850E0A850F0B7808AB
:104DEC00791412149F780C79141213F8E4F516F553
:104DFC0017780879141214D88A0C750D007403787E
:104E0C000C121681E50D3395E0F50EF50F78087947
:104E1C000C12149F750CFF750DFF750EFF78087939
:104E2C000C121500AA08AB09AC0A7D0012260674F8
:104E3C00041216AA8A088B09A808A909C3EE98EFD0
:104E4C00995006E82EF8E93FF9E890600EF0E9A3D6
:104E5C00F0EEA3F0EFA3F090600D74C1F07F1002A0
:104E6C0017D6C082C0839007C9E0F8A3E0C8240617
:104E7C00F582E83400F583E4F0A3F09007DD0249F5
:104E8C0060C082C0839007E0E0F8A3E0C82406F578
:104E9C0082E83400F583E4F0A3F09007EF02496058
:104EAC0002013274F61217049061D0E0F87480C3DA
:104EBC0098FCEA2482F582EB3400F583E0600478F8
:104ECC000480027800E8240EF8ECC3985003024FDB
:104EDC00DB7C0C9007FBE4F0EA2476F582EB3400E3
:104EEC00F583E09007FCF0EA2477F8EB3400F988BE
:104EFC00828983E09007FDF088828983A3E0900784
:104F0C00FEF0EA2479F8EB3400F988828983E0908A
:104F1C0007FFF088828983A3E0900800F0EA247BE5
:104F2C00F8EB3400F988828983E0900801F08882DC
:104F3C008983A3E0900802F0EA247DF8EB3400F9B1
:104F4C0088828983E0900803F088828983A3E090AB
:104F5C000804F0EA2474F8EB3400F98A828B83A3FA
:104F6C00A3A3A3A3E0FEA3E0FF88828983E02EF035
:104F7C00A3E03FF088828983E0900805F08882895D
:104F8C0083A3E0900806F0EA2482F582EB3400F566
:104F9C0083E060177508FB750907780812191779F3
:104FAC0003120B1174021216AA7C1074012CF5D981
:104FBC0075D9037582FB758307ECFEE0F5D9A31E4A
:104FCC00EE70F875E1957904120C73790180027911
:104FDC00000254D874F61217049061D0E0F8748073
:104FEC00C398FCEA2482F582EB3400F583E060047C
:104FFC00780480027800E8240AF8ECC39850030285
:10500C0050D37508089007FB7401F07CBF7D0778BE
:10501C00FC79077E058C828D83E088828983F08CF5
:10502C00828D83A3AC82AD8388828983A3A882A955
:10503C00831EEE70E0EA2480FCEB3400FD8A828B48
:10504C0083A3A3A3A3A3E0FEA3E0FF8C828D83E044
:10505C002EF0A3E03FF08C828D83E088828983F070
:10506C008C828D83A3AC82AD8388828983A308A9AB
:10507C00838C828D83E088828983F0EA2482F58296
:10508C00EB3400F583E0601A7508FB7509077808A6
:10509C001219177C087903120B1174021216AA75D7
:1050AC00080C74012508F5D975D9037582FB758335
:1050BC0007AE08E0F5D9A31EEE70F875E1957904FA
:1050CC00120C737901800279000254D874F712170C
:1050DC0004EAFEEBFF9061D0E060030251BF75D98A
:1050EC001875D90375D903EEF8EFF9E82408FAE935
:1050FC003400FBE8249BF582E93400F583E0F5D914
:10510C0088828983A3A882A983EA687002EB6970FC
:10511C00E2EE24A3F582EF3400F583E0F5D9EE241A
:10512C00A4F582EF3400F583E0F5D9EE2493F582F3
:10513C00EF3400F583E5822408F8E5833400F9E0C8
:10514C00F5D9A3E865827003E9658370F2EE2487D4
:10515C00F582EF3400F583E5822404F8E58334000E
:10516C00F9E0F5D9A3E865827003E9658370F275FF
:10517C00E1957908EE2493FAEF3400FB120AC97911
:10518C0004EE2487FAEF3400FB120AC97904120CDE
:10519C0073EE246FF582EF3400F583E0F8A3E0F9A9
:1051AC00EE2471F582EF3400F583E8F0A3E9F07991
:1051BC00018002790002532874F6121704EAFEEB00
:1051CC00FF9007FB7406F07508FB75090778081249
:1051DC0019177C017903120B1174021216AA75D9D6
:1051EC000675D9037582FB758307E0F5D9A3E582B3
:1051FC0064007004E583640870F075E1959004799F
:10520C00E06408701EEE246FF582EF3400F583E045
:10521C00F8A3E0F9EE2471F582EF3400F583E8F0A1
:10522C00A3E9F079010254D874F6121704EAFEEBE4
:10523C00FF9061D0E0705E9007FB740AF07508FB7C
:10524C0075090778081219177C017903120B117470
:10525C00021216AA75D90675D9037582FB758307D8
:10526C00E0F5D9A3E58264007004E583640870F06E
:10527C0075E195EE246FF582EF3400F583E0F8A329
:10528C00E0F9EE2471F582EF3400F583E8F0A3E940
:10529C00F07901800279000254D874F6121704EAEE
:1052AC00FEEBFF9061D0E0706678019007FB740B09
:1052BC00F0900479E0640770197508FB750907789C
:1052CC00081219177C017903120B1174021216AA19
:1052DC007805740128F5D975D9037582FB75830798
:1052EC00E8FAE0F5D9A31AEA70F875E195EE246FA7
:1052FC00F582EF3400F583E0F8A3E0F9EE2471F5C4
:10530C0082EF3400F583E8F0A3E9F07901800279AB
:10531C00000254D8F0EEA2E092AF79007F010217A0
:10532C00D674F6121704EAFEEBFF9061D0E0F87425
:10533C0080C398FAEE2482F582EF3400F583E060A6
:10534C0004780480027800E8240BF8EAC398500330
:10535C000254037D099007FB7408F0EE24E4F8EF87
:10536C003400F97AFC7B077C0888828983E08A8286
:10537C008B83F088828983A3A882A9838A828B83FA
:10538C00A3AA82AB831CEC70E0EE2482F582EF348E
:10539C0000F583E0601D7508FB7509077808121984
:1053AC00177C097903EEFAEFFB120B11740212163B
:1053BC00AA7D0D74012DF5D975D9037582FB758302
:1053CC00078D08E0F5D9A31508E50870F675E19589
:1053DC007904120C73EE246FF582EF3400F583E040
:1053EC00F8A3E0F9EE2471F582EF3400F583E8F0D0
:1053FC00A3E9F07901800279000254D874F61217EF
:10540C0004EAFEEBFF9061D0E0F87480C398FAEEEA
:10541C002482F582EF3400F583E060047804800286
:10542C007800E82408F8EAC39850030254D67806AA
:10543C009007FB740CF0900496E09007FCF090043D
:10544C0097E09007FDF0900498E09007FEF0900430
:10545C0099E09007FFF090049AE0900800F0EE2499
:10546C0082F582EF3400F583E0601B7508FB75094B
:10547C000778081219177C067903EEFA120B1174CF
:10548C00021216AA780A740128F5D975D903758207
:10549C00FB7583078808E0F5D9A31508E50870F6B5
:1054AC0075E1957904120C73EE246FF582EF3400DC
:1054BC00F583E0F8A3E0F9EE2471F582EF3400F502
:1054CC0083E8F0A3E9F07901800279007F020217EA
:1054DC00D674F6121704EAFEEBFF9061D0E0F87474
:1054EC0080C398FAEE2482F582EF3400F583E060F5
:1054FC0004780480027800E82404F8EAC398500386
:10550C000255B778029007FBE8F0EE24F6F582EF2F
:10551C003400F583E09007FCF0EE2482F582EF3442
:10552C0000F583E0601B7508FB75090778081219F4
:10553C00177C027903EEFA120B1174021216AA7878
:10554C0006740128F5D975D9037582FB7583078814
:10555C0008E0F5D9A31508E50870F675E195EE2479
:10556C0073F582EF3400F583E4F0EE247FF582EFDF
:10557C003400F583E4F0EE241DF582EF3400F5835E
:10558C00E4F0A3F07904120C73EE240DF582EF34E1
:10559C0000F583E0F8A3E0F9EE2471F582EF340016
:1055AC00F583E8F0A3E9F07901800279000254D880
:1055BC0074F61217049061D0E0F87480C398FCEA7A
:1055CC002482F582EB3400F583E0600478048002D9
:1055DC007800E82404F8ECC398405B79029007FB50
:1055EC007407F0EA24F7F582EB3400F583E09007BA
:1055FC00FCF0EA2482F582EB3400F583E060187548
:10560C0008FB75090778081219177C0209120B118F
:10561C0074021216AA7906740129F5D975D9037585
:10562C0082FB758307E9F8E0F5D9A318E870F875E3
:10563C00E1957901800279000254D874F5121704AF
:10564C00E9FCA2AFE433F50AC2AF7D0080010DEA9C
:10565C00246EF582EB3400F583E0F8EDC398501A14
:10566C008D08EA2508F8EB3400F9E8246AF582E99C
:10567C003400F583E06C70D68024EA246EF8EB34A9
:10568C0000F9E0FEEA2EFAEB3400FBEA246AF5821C
:10569C00EB3400F583ECF088828983E004F0E50AB2
:1056AC00A2E092AF7F030217D674F6121704A2AFD2
:1056BC00E433FDC2AFEA246EF582EB3400F583E0EF
:1056CC0014F07C0060368C08EA2508F8EB3400F9FD
:1056DC00E8246BF582E93400F583E0C0E0E8246A45
:1056EC00F582E93400F583D0E0F00CEA246EF58203
:1056FC00EB3400F583E0F8ECC39840CAEA246DF56E
:10570C0082EB3400F58374FFF0EA2469F582EB3404
:10571C0000F583E4F0EDA2E092AF0254D8C082C051
:10572C0083E5A8F8C2AFEA246AF582EB3400F5836E
:10573C00E9F0EA2469F582EB3400F583E4F0E8A2A1
:10574C00E7A2E792AF02496574F3121704EAFEEB85
:10575C00FFECFAEDFB8A828B83A3A3A3A3E0541F77
:10576C00F0EE2436F582EF3400F583E4F0F50AEE22
:10577C00FCEFFD8A828B83E0C0E0EC245DF582EDCA
:10578C003400F583D0E0F0750B00E50A3333335465
:10579C00F8F50C8A828B83E0F508750900E50B7827
:1057AC0008121662E508A2E0502FEE2436F8EF340A
:1057BC0000F988828983E0F508EE2508F508EF34B6
:1057CC0000F509E5082438F582E5093400F583E590
:1057DC000CF088828983E004F0050B050CE50BC303
:1057EC00940840AF050A8A828B83A3AA82AB838C70
:1057FC00828D83A3AC82AD83E50AC394055003026A
:10580C00577F7F050217D674F71217049004A5E092
:10581C0064037003025AF97C0078A57904888289A4
:10582C0083A3A3A3A3A3A3E06003025AE7ECF87538
:10583C00F005A4C8AAF02AF974A928FA740439FB53
:10584C008A828B83A3A37401F08A828B83A3A3A384
:10585C00E4F0EC8A828B83A3A3A3A3F0EA2462F581
:10586C0082EB3400F5837401F0EA2467F582EB34A3
:10587C0000F5837401F08A828B83A3A3A3A3A3E412
:10588C00F0A3F08A828B83A3A3A3A3A3A3A3F0A367
:10589C00F0EA240FF582EB3400F5837401F0EA246E
:1058AC0035F582EB3400F583E4F0EA2418F582EB4D
:1058BC003400F583E4F0A3F0A3F0A3F0EA241CF584
:1058CC0082EB3400F583E4F0EA241DF582EB34001E
:1058DC00F583E4F0A3F0EA247FF582EB3400F58342
:1058EC00E4F0EA2473F582EB3400F583E4F0EA2467
:1058FC0068F582EB3400F5837480F0EA2469F58254
:10590C00EB3400F583E4F0EA246EF582EB3400F519
:10591C0083E4F0EA24ECF582EB3400F583E4F0EA5E
:10592C0024EDF582EB3400F583E4F0EA24EEF58205
:10593C00EB3400F583E4F0EA24EFF582EB3400F568
:10594C0083E4F0EA24F0F582EB3400F583E4F0A371
:10595C00F0EA24F2F582EB3400F583E4F0A3F0EAEC
:10596C0024F5F582EB3400F583E4F0EA2482F58229
:10597C00EB3400F583E4F0EA24D2F582EB3400F545
:10598C0083E4F0EA24D3F582EB3400F583E4F0EA07
:10599C0024D4F582EB3400F583E4F0A3F0A3F0A358
:1059AC00F0EA24D8F582EB3400F583E4F0A3F0A3FD
:1059BC00F0A3F0EA24DEF582EB3400F583E4F0EAA0
:1059CC0024E0F582EB3400F583E4F0EA24DCF58284
:1059DC00EB3400F583E4F0EA24E1F582EB3400F5D6
:1059EC0083E4F0EA24E2F582EB3400F583E4F0EA98
:1059FC0024F8F582EB3400F583E4F0A3F0EA24FA02
:105A0C00F582EB3400F583E4F0A3F0EA24FCF58294
:105A1C00EB3400F583E4F0A3F0EA24FEF582EB34DA
:105A2C0000F583E4F0A3F0EAF8EBF9E82404FCE9D0
:105A3C003400FDE8246AF582E93400F58374FFF044
:105A4C0088828983A3A882A983EC687002ED6970AF
:105A5C00E2EAF8EBF97CBF7D078C828D83E0C0E035
:105A6C00E8245DF582E93400F583D0E0F08C828D7A
:105A7C0083A3AC82AD8388828983A3A882A983EC9B
:105A8C0064C47003ED640770D0EAF8EBF97C8C7D8C
:105A9C00048C828D83A3E0C0E0E824E4F582E93431
:105AAC0000F583D0E0F08C828D83A3AC82AD83882B
:105ABC00828983A3A882A983EC64947003ED6404A7
:105ACC0070CF9004A5E004F0640170258A828B836A
:105ADC00A3A3A3A3E09004A7F080160CE82405F878
:105AEC00E93401F9ECC3940350030258297A007B82
:105AFC0000025328C082C0838A828B83A3A3A3E0B5
:105B0C00600F8A828B83A3A3A3E4F09004A6E01415
:105B1C00F09004A5E014F070069004A774FFF08ACE
:105B2C00828B83A3A3E4F09007C4E0700D9004A6CD
