:020000040000FA
:06000000020107022A675D
:03002B00022EDFC3
:03003300022EC1D9
:03003B00022F0091
:03004300022E7515
:03005300022ADAA4
:03006B00022E9BC7
:100083000228D3E5C754F84401F5C77901220000DB
:100093000080FB120086B900030200F1E4792178A5
:1000A30008B800028004F709D8FCE479297802B87B
:1000B30000028004F709D8FCE4900281788379096F
:1000C3008002F0A3D8FCD9FA7A037B0B900137782E
:1000D3008979048015E493A3AD82AE838A828B83EE
:1000E300F0A3AA82AB838D828E83D8E9D9E7758288
:1000F3005C7583C77403120119758291758300744B
:100103000012011975D00075813F751881751902A8
:10011300759F00020096C09FF59FE473D09F22D085
:1001230083D082C09FE493C0E0740193C0E0740263
:1001330093F59F22FF0000B4000028002800283018
:1001430075A000A000A000A00000080008E001F0D6
:10015300001000100010001000100010005000509C
:1001630000500010001000D0070000000000000F36
:100173000001000500307507001000010081FF0039
:10018300000000FFBD06DB06C306FF0202020802F1
:100193005000A0000000E803029784010000FD83E3
:1001A3000291840100005A0B028984010000B3020A
:1001B3000291840100005B0B028584010000C902E7
:1001C3000291840100005C0B028384010000CB02D6
:1001D3000291840100005D0B027F84080000CC02C1
:1001E3000291840100005E0B027D840100005F0B1D
:1001F300FF0100FF200297840100007184029184B3
:10020300010000C30B0277840000000000028B840E
:1002130003000019038D0C8D0C8D0C8D0C8D0C8D32
:100223000C8D0C8D0C8D0C8D0C8D0C8D0C8D0C0F81
:100233000F270F090FFFFF0202020202020202024E
:10024300010D000000100102978401000074840274
:100253009184010000060C027B840100005D07020B
:100263009184010000070C0279840100007A830263
:100273009184010000080C029B840100005F83024B
:100283009184010000090C029D84010000DE8202BA
:1002930091840100000A0C02AD84010000BA8202BD
:1002A30091840100000B0C02AF84010000A88202BC
:1002B30091840100000C0C02B184010000CC820285
:1002C30091840100000D0C0295840100005183020A
:1002D30091840100000E0C0287840100000F0C01C1
:1002E300E803053F100AFA00FF000130750302011D
:1002F30006000000000000000000000000000000F5
:1003030000000000000000000000000000FFFF06E6
:1003130000800CE803140953696D706C65424C4509
:100323005065726970686572616C05125000200334
:10033300020A000201060302F0FF53696D706C6547
:1003430020424C45205065726970686572616CB9D2
:10035300130000BF130A43686172616374657269B5
:100363007374696320310002436861726163746569
:100373007269737469632032000800010203040583
:10038300436861726163746572697374696320336E
:1003930000104368617261637465726973746963A1
:1003A3002034000243686172616374657269737417
:1003B30069632035000A4368617261637465726919
:1003C300737469632036000297840100006E84020F
:1003D3009184010000240D02A184030000C50A02D8
:1003E3008F84010000250D029184010000360D0267
:1003F300A384010000C60A028F84010000370D02A6
:100403009184010000480D02A584030000490D02F8
:100413008F840100004F0D029184010000600D02E2
:10042300A784000000C70A028B84030000C80A02E5
:100433008F84010000610D029184010000720D029E
:10044300A984040000CE0A028F84010000730D0208
:100453009184010000840D02AB84030000D30A02DF
:100463008F84010000850D3031323334353637380F
:100473003941424344454600286E756C6C20706FC9
:10048300696E74657229003031323334353637384A
:1004930039616263646566003F3F3F000000807F0F
:1004A3000000803F00000000F9021550B743BA5125
:1004B3000000204100E7DB2E0000A040120122E7EC
:1004C300B603120122FEB6031201222FB703120153
:1004D300226AB70312012294B703120122BEB703A3
:1004E300120122D5B703120122ECB7031201220332
:1004F300B8031201222CB8031201223FB8031201E0
:100503002255B80312012268B8031201228FB803DF
:10051300120122E8CE02120122ECCF0212012224A0
:10052300D00212012247D00212012252D00212013C
:100533002275D00212012284D10212012259D20261
:10054300120122D4D2021201225CD3021201229799
:10055300D302120122CED3021201225CD402120171
:100563002235D50212012295D502120122A0D5020D
:100573001201221FD60212012222D60212012225C3
:10058300D602120122B4D602120122B7D6021201F8
:1005930022E7D60212012211D702120122FFD7024B
:1005A300120122B1D802120122BE8403120122E6F3
:1005B30084031201221485031201224B85031201C5
:1005C30022A98503120122F485031201223F860327
:1005D3001201227F8603120122C58603120122F330
:1005E3008603120122B08703120122BA8703120184
:1005F30022C78703120122FA8703120122C6880346
:10060300120122D28803120122EA8803120122F482
:100613008803120122287F00120122367F00120173
:10062300224E7F00120122667F00120122A8DC0104
:1006330012012254DD01120122CFDD01120122F049
:10064300DE011201222CDF01120122D5DF0112018A
:1006530022BCE00112012220E20112012277E20111
:10066300120122F8E201120122E8E301120122350C
:10067300E401120122BBE401120122EDE4011201A3
:100683002201E70112012243E70112012261E7017E
:10069300120122E4E701120122B8E80112012280CB
:1006A300E90112012287F0021201225AF10212011A
:1006B3002203F20212012256F20212012206F3026F
:1006C30012012292F3021201227EF402120122ADE0
:1006D300F402120122C0F50212012208F6021201ED
:1006E30022DDF60212012219F70212012235F70266
:1006F3001201220FC603120122CDA203120122E32B
:10070300A20312012209A30312012225A403120149
:10071300222FA40312012264A5031201225CA60363
:10072300120122AAF702120122DAF8021201220DA3
:10073300F90212012257F9021201221EFB021201D1
:100743002257BD01120122C1BD0112012220BF01A6
:1007530012012230BF011201225DBF01120122B436
:10076300BF011201225DC00112012264C101120105
:10077300222EC2011201228EC301120122D1C30112
:1007830012012276C401120122C3C401120122E91B
:10079300C401120122F7C601120122FCC601120193
:1007A3002201C9011201224EC901120122C1C9014C
:1007B300120122F4C90112012296CA011201223F39
:1007C300CB0112012277CB011201227ACB01120154
:1007D30022C2CB0112012202CC0112012259CC0107
:1007E3001201221CAD0312012234AD031201227C3B
:1007F300AD0312012292AD03120122D9AD031201FE
:1008030022EDAE031201227AAF03120122C5AF0318
:10081300120122742F00120122802F00120122BB29
:100823002F00120122003000120122C030001201F9
:1008330022463100120122AB3100120122D73100CE
:100843001201221032001201224E34001201223210
:1008530036001201221838001201225B39001201FE
:1008630022A93B00120122BB3C00120122063E00DA
:10087300120122163F00120122333F001201226EA1
:100883003F00120122903F00120122F33F001201A8
:1008930022B444001201224945001201229A450064
:1008A300120122C145001201221346001201223116
:1008B30046001201228B46001201227447001201E6
:1008C30022EA48001201226E49001201227B8903A9
:1008D300120122858903120122C88903120122E32E
:1008E3008903120122738A031201229B8A031201D4
:1008F30022D88A031201220F8B03120122388B03A1
:10090300120122AD8B03120122C28B03120122D7E3
:100913008B03120122088C031201221C8C03120187
:1009230022418C031201227B8C03120122A78C0328
:10093300120122DF8C031201225E8D03120122A712
:100943008D03120122D18D03120122FC8D031201AA
:10095300222AC003120122E7B60212012215B702AE
:1009630012012263B80212012243B9021201226268
:10097300B902120122DFB90212012222BA021201C4
:100983002278BB0212012239BC02120122C0BE022C
:1009930012012261BF0212012257C0021201225426
:1009A300C102120122AEC20212012239C302120194
:1009B30022CFBE0312012238BF031201228CBF03D0
:1009C300120122B3BF03120122E4BF031201222446
:1009D3008E03120122918E03120122D88E0312017B
:1009E30022F08F03120122EC9003120122CF910314
:1009F300120122BF7600120122017700120122D3D5
:100A03007700120122AC7800120122A679001201AC
:100A130022887A00120122F17A00120122A77B00B8
:100A23001201221B7C00120122877C00120122B0DA
:100A33007C001201222A7D00120122C37D001201D3
:100A430022287E001201223D7E00120122837E00B5
:100A53001201229C7E00120122017F001201220456
:100A63007F00120122D1FC02120122F9FC021201C1
:100A73002237FD02120122F5FD021201225CFE0261
:100A830012012278FE02120122A0FE02120122D0DC
:100A9300FE02120122DFFE021201225CFF0212019A
:100AA3002282FF0212012246CD0112012224CF012C
:100AB30012012256D10112012292D101120122BF49
:100AC300D101120122A9D201120122F4D201120191
:100AD300223FD30112012251D30112012291D301EA
:100AE300120122C6D30112012214D401120122439E
:100AF300D40112012266D401120122B3D4011201DE
:100B03002238D50112012252D70112012291D901B3
:100B1300120122D2D90112012274DB01120122B582
:100B2300DB0112012228DC011201227EDC01120109
:100B330022D2A902120122D0AA0212012269B10211
:100B43001201228AB30212012255B502120122BDFB
:100B5300B602120122D54900120122844A00120171
:100B630022CA4A001201220A4C00120122A04D009F
:100B73001201221A4E00120122354E00120122B038
:100B83004E001201220A50001201226A5100120182
:100B930022705200120122D15300120122EA5300A3
:100BA3001201224854001201223655001201226913
:100BB3005500120122D95500120122535600120189
:100BC300229D56001201226757001201223C580051
:100BD3001201221B5900120122A6590012012214EC
:100BE3005A00120122885A00120122B35A0012013C
:100BF30022725B00120122D75C00120122F45C0016
:100C0300120122135D00120122045E001201222947
:100C13005E00120122535E00120122CE5E00120119
:100C230022285F001201229160001201223F61001D
:100C33001201228061001201222F8E021201227DF5
:100C43008E02120122898E02120122678F02120183
:100C530022988F02120122C98F02120122499002A7
:100C6300120122819002120122D39002120122105A
:100C730091021201222D93021201225395021201B5
:100C8300223E9702120122289902120122692F00A3
:100C9300120122E19801120122119901120122EAA3
:100CA3009F011201226FA1011201226CA7011201FF
:100CB3002254A80112012291A801120122B4A80111
:100CC300120122E5A801120122EEA801120122F865
:100CD300A801120122E6A901120122DCAA011201D4
:100CE30022B06100120122AF6500120122B5650036
:100CF300120122F06C00120122097200120122D5A6
:100D0300A903120122CFAA0312012243AB0312014A
:100D13002281AB03120122F5AB031201226EAC0355
:100D230012012277AC0312012283AC031201229831
:100D3300AC03120122D6AC03120122ECAC03120164
:100D4300229192031201229E9203120122B892036E
:100D5300120122F792031201223593031201229A00
:100D63009303120122AF9303120122BA93031201D8
:100D730022C79303120122DE9303120122EC930391
:100D8300120122F793031201220394031201221288
:100D930094031201221D94031201224094031201B1
:100DA30022E79403120122F79403120122119503FF
:100DB3001201222E95031201224A95031201226F7A
:100DC30095031201227A95031201228F95031201D2
:100DD30022A395031201220496031201220A960309
:100DE3001201221096031201221696031201222EDB
:100DF3009603120122619603120122058002120159
:100E03002289800212012238810212012297820272
:100E1300120122B88402120122A48502120122D9EE
:100E23008502120122FB8502120122AA8602120107
:100E330022A28802120122CB88021201225D8902BA
:100E43001201228F89021201229C8902120122F3CC
:100E53008902120122198A02120122868C021201CE
:100E630022898D02120122E18D0212012299EB01E6
:100E7300120122A3EC011201228AED011201229434
:100E8300ED01120122B6ED01120122C2ED011201A0
:100E9300225BEF011201228AEF01120122A6F00167
:100EA300120122FFF00112012265F2011201224414
:100EB300F301120122A0F3011201220DF401120128
:100EC3002248F40112012287F40112012240F701A2
:100ED3001201225AF701120122E6F701120122F44C
:100EE300F7011201224DF8011201225BF8011201F0
:100EF30022CEF80112012232F9011201227CF901FA
:100F0300120122BAC302120122DCC302120122021D
:100F1300C60212012217C9021201222FCA021201AC
:100F230022E2CA02120122C4CB02120122A1B80397
:100F3300120122C6B80312012238B9031201220D8D
:100F4300E90212012216E9021201221FE90212012B
:100F530022F6E902120122A7EB02120122DDEB02C3
:100F630012012217EC021201224DEC021201228718
:100F7300EC02120122BBEC02120122E7EC02120185
:100F83002230ED021201226AED02120122B3ED02B8
:100F93001201220BEE0212012240EE021201229BE9
:100FA300EE02120122D5EE0212012226EF021201F5
:100FB300225CEF0212012296EF02120122C4EF0219
:100FC300120122E7EF021201224FFF011201227BDD
:100FD300FF01120122D6FF01120122E0FF011201DB
:100FE30022F0FF0112012218E10212012222E10282
:100FF30012012260E102120122A9E102120122E39D
:10100300E10212012239E2021201225AE202120122
:1010130022DFE402120122E8E40212012233E50294
:101023001201225CE50212012266E502120122D2BC
:10103300E50212012268E602120122B2E60212015F
:1010430022E2E6021201226BE702120122ABE7025F
:10105300120122E3E702120122F5E7021201221430
:10106300E8021201221DE802120122E3E802120142
:101073002247C203120122F8B4031201222EB50340
:1010830012012264B503120122ADB60312012293A9
:10109300C603120122A9C603120122B3C603120119
:1010A30022FDC603120122119B03120122269B0378
:1010B300120122D99B03120122199C03120122322D
:1010C3009C03120122669C03120122B39C031201AA
:1010D30022E79C03120122299D03120122259F036B
:1010E3001201225BBD0312012284BD03120122AD52
:1010F300BD0312012248BE031201228ABE0312015C
:1011030022EFAF0312012214B0031201223EB003F7
:10111300120122FFC703120122B784011201221B0D
:101123008701120122CC8801120122CE890112010A
:1011330022578A01120122DB8A01120122008B014C
:10114300120122398E01120122AD8E011201229E5B
:101153008F01120122D88F0112012218900112016E
:1011630022CB91011201221E9201120122679201E8
:10117300120122D592011201220793011201221FAB
:1011830093011201223494011201224494011201A9
:10119300225F9501120122819501120122B7950167
:1011A3001201225B97011201229A9701120122BCBC
:1011B300980112012226C40312012237C40312012B
:1011C30022B6C703120122F5C703120122E4C803A2
:1011D300120122DCC403120122ECC4031201220710
:1011E300C5031201226FC50312012243C103120179
:1011F30022C8C1031201222EC203120122E3BB0340
:101203001201220CBC0312012277BC03120122C873
:10121300BC0312012221BD03120122DE9603120137
:10122300221597031201228597031201229A97032D
:10123300120122B09803120122329903120122F8FB
:101243009903120122179A031201223E9A031201F3
:1012530022739A031201228B9A03120122DC9A034E
:10126300120122329F03120122439F03120122C063
:101273009F0312012295A00312012267A203120108
:101283002266A603120122F6A60312012274A70303
:10129300120122FDA70312012292A8031201221CAC
:1012A300A90312012226A90312012235A90312015F
:1012B300224BA9031201225EA903120122BEA90334
:1012C300120122D2A9031201223EC303120122A555
:1012D300C303120122BAC303120122E5C30312019D
:1012E3002203C40312012246BA0312012296BA034F
:1012F3001201221FBB0312012285BB03120122BB71
:10130300B203120122E5B203120122ABB3031201AD
:101313002286B40312012222D902120122DFD9024A
:101323001201221ADA0212012242DA02120122A463
:10133300DA02120122F0DA0212012250DB02120158
:1013430022E3DB02120122E2DC0212012271DE023D
:10135300120122F4DE021201225BDF021201227269
:10136300DF021201227CE002120122BAE002120122
:1013730022039C02120122639F02120122EBA002AC
:1013830012012242A10212012261A102120122DFF3
:10139300A1021201226FA30212012253A40212011D
:1013A300225FA8021201222FA90212012200800348
:1013B300120122418203120122E082031201225C04
:1013C300840312012205FA011201224AFA011201D1
:1013D3002267FA0112012249FB01120122BAFB0121
:1013E30012012208FD0112012216FF0112012246F9
:1013F300C803120122F4AC0112012204B20112014A
:101403002272C80312012279C503120122A3C50364
:10141300120122CAFF021201229EC803120122C630
:10142300C803E066701008A3E066700A08A3E066CC
:10143300700408A3E06622C008C3E096F50808A379
:10144300E096420808A3E096420808A3E096420803
:10145300A2D265D033E5087001D3D00822C3E79642
:101463000809E7960809E7960809E79622C3E09674
:1014730008A3E09608A3E09608A3E09622C008C359
:10148300E096F50808A3E096420808A3E096420810
:1014930008A3E09645087001D3D00822080808E69F
:1014A30030E711121D591214B7080808C64480C644
:1014B30018181822181818E9799EC608CAC608CB46
:1014C300C608CCC6C370207996CACBCC7019798E66
:1014D300CBCC70137986CC700EF9802ACA33CACB71
:1014E30033CBCC33CC331930E7F2CCCBCA335014E3
:1014F3007004EA30E00DE4CA3ACACB3BCBCC3CCC17
:10150300500209C3E913C6CC182313C6CB18C6CAA5
:1015130018C6F92212155720F01430E72B74FFFC7C
:10152300FBFA747F8022E4FCFBFA7480801AB48097
:1015330008BC00F2BB00EF800F50EBF9E4C39AFA4A
:10154300E49BFBE49CFCE499C6CC18C6CB18C6CA42
:1015530018C6F922E4C9C608CAC608CBC6D33303E2
:1015630008CCC63392F0C3947F402E94184019C917
:10157300B90704CACBCC225025C309CA33CACB331B
:10158300CBCC33CC33D9F422F4600DC9CCC313CB09
:1015930013CBCA13CAD9F6CC22E4FCFBFA2214FCFF
:1015A300FBFA22E62618461846184622E72719476B
:1015B3001947194722181818E60846087009E6263D
:1015C300087005E633F4220822191919E7094709B7
:1015D3007009E727097005E733F4220922E6084674
:1015E30008C3134608336002E633F422E7094709C8
:1015F300C3134709336002E733F4221215E0602571
:101603001215EF60201215A670030215AF08080823
:10161300E76670101819E766700A1819E766700410
:101623001819E76622F4221215E0601C1215EF6008
:10163300171215A670071215AF7001D322C0D0126E
:1016430015AF7006D0D0B322C32233D0D05014309C
:10165300E0F6C3E7960809E7960809E7960809E75D
:1016630096B32220E0D5E6970809E6970809E6979E
:101673000809E697B3221215E0601B1215EF6016F6
:101683001215A670071215AF600CB322C0D0121545
:10169300AF7005D0D022C32233D0D0501330E0EB4B
:1016A300C3E7960809E7960809E7960809E796222B
:1016B30020E0E4E6970809E6970809E6970809E6B3
:1016C3009722001215E0604F1215EF6012E7548065
:1016D30066F61215B870111215AF703B090909F4BB
:1016E300F618F618F618F6221215CC70151215A670
:1016F30008080860EAE6447FF618768018E4F618CE
:10170300F6221215A660161215AF7012E4F608F64B
:1017130008F608E65480F609090918181822EAC0E1
:10172300E0EBC0E0ECC0E0EDC0E0E687F0A4FBAC8A
:10173300F008E687F0A42CFCE435F0FA1809E687F4
:10174300F0A42C4B60027401CA35F0FCE433FB09AE
:10175300E687F0D2F7A42CCB35F0FC1908E687F026
:10176300A42BCC35F0FBE433FD0819E687F0D2E770
:10177300A42C4ACB35F0CD3400FC09E687F0D2E740
:10178300A42DCC35F0FDE433FA0918E687F0D2F73F
:10179300A42CCD35F0CA3400FC08E687F0D2E7D29A
:1017A300F7A42ACC35F07A7E20E70B0ACB33CBCDD6
:1017B30033CDCC33CC33CB3350147004ED30E00E47
:1017C300D2F1E4CD3DCDCC3CCC3B5005DA05C2F1A2
:1017D300EB547FC63308E63392F0FBE73309E73374
:1017E300C39A502D2B70190C0D4C4D70151806E62D
:1017F30008C333700D20F10AA2F013F6E418800B2E
:101803004024E4F630F002768018F618F618F680D5
:1018130024D33B14501074FFA2F013F6187680E41F
:1018230018F618F6800FA2F013F618E63303F6182D
:10183300ECF618EDF6D0E0FDD0E0FCD0E0FBD0E014
:10184300FA221215EF60461215E0603DE968700850
:10185300F618F618F618F622748067F71218790945
:101863000909748067F7221215E0601D1215EF70E5
:1018730005191919801A1215B8701F1215CCC370E7
:1018830003E66733191919400718181822080808BE
:1018930074FFF618F618F618F6221215CC60171214
:1018A30015AF702192F01215A67019501720F0147D
:1018B300080808090909E7F61819E7F61819E7F6F9
:1018C3001819E7F6221215A660E6E869701F0808E2
:1018D300E62480F608E436F618547FB47F0CE65409
:1018E300806007F6E418F618F622181822E9C6CC29
:1018F30008C6CD08C6CE08C6CFC0E0E8C0E0EAC03F
:10190300E0EBC0E009E9F809E7FA09E7FBE6F918B3
:10191300E6F8C3EC98ED99EE9AEBC2E7F5F0EFC267
:10192300E795F0500E600CEBCFFBEACEFAE9CDF968
:10193300E8CCF8EAA2E7D2E7FAEB33FB13F5F0EED3
:10194300A2E7D2E7FEEF33FFC5F013A2E730E601CB
:10195300B313C5F0C3C0E0C0F07F00C39BFB605E60
:101963009418600F401D14601AD0E023F9D0E0F8FA
:10197300021A4B8AF0E9486003D2F0E4AFF0FAF9B7
:10198300F8803BEB30E40D89F0EA6003D2F0E4AF7A
:10199300F0F9CAF8EB30E30D88F0EF6002D2F0AF54
:1019A300F0E4CAC9F8EB54076014FBC3EA13FAE97D
:1019B30013F9E813F8EF135002D2E0FFDBEDD0E0A8
:1019C300C0E030E739C3E49FFFF5F0EC98FC42F048
:1019D300ED99FD42F0EE9AFE42F0D0E0F9D0E0F846
:1019E300E5F0607AE923F9EE20E742D8028067C385
:1019F300EF33FFEC33FCED33FDEE33FE80EAEC28EE
:101A0300FCED39FDEE3AFED0E023F9D0E0F84002D8
:101A1300801BC3EE13FEED13FDEC13FCEF1350021A
:101A2300D2E0FF08B800067F7F74FF802EEF3350AB
:101A3300178CF020F00260100CBC000C0DBD0008E8
:101A43000EBE000408E860DFE933E813FFEE23135A
:101A5300FE4F4D4C8008E95480FFE4FEFDFCEE335D
:101A6300EF33F47004FCFD7E80D0E0FBD0E0FAD0CD
:101A7300E0F8D0E0CFC618CEC618CDC618CCC6F94C
:101A8300221215E07004181818221215EF700D7445
:101A9300FFF61819F61819F61819F622E754806696
:101AA300F61215A6700F1215AF70F014F608F608AB
:101AB300F608F680D11215AF700CF608F60876809A
:101AC30008E6447F80EC1215CF700C1215BB60BF83
:101AD300E65480F6E480BB1215BB70051919198012
:101AE300A5E869700C763F18768018F618F6E8F9C1
:101AF30022E6CDC0E018ECC0E0E633CD33CDD313FE
:101B0300F6E719FCE7191933CC33C3947F400ECDA4
:101B13009D502408E65480F6E418F6800FF4043D43
:101B230014501408E6447FF6187680E418F618F685
:101B3300D0E0FCD0E0FD22CCD313CCFD18E4C6CB1F
:101B4300C0E018E4C6CAC0E00808ED08C633E613CF
:101B5300F618E433C675F003C3CA97CA09CB97CB0B
:101B6300199C40047D08802EBD0003021C2D16B66F
:101B7300FF050606081618C3CA33CACB33CB33CACC
:101B830027CA09CB37CB193CC37D08803E187D0893
:101B930020E75CC633C6CA33CACB33CB33DDF1D5BA
:101BA300F0EB30E77BCA97CA09CB974ACB199C4025
:101BB3006F4B7025E620E0218066187D08C3CA9725
:101BC300CA09CB97CB199CD3C633C6CA33CACB3306
:101BD300CB3350C9DDE7D5F0E1D3E4C636C608C63A
:101BE30036C608C636C608C636C61818188031C3A6
:101BF300CA97CA09CB97CB199CB34097C633C6CAB9
:101C030033CACB33CB33DD34D5F02EC6A2E0C64086
:101C1300C8CA27CA09CB37194A70BECB3CB480B9AE
:101C23000808E63308E633601F181818D0E0FAD026
:101C3300E0FBD0E0FCD0E0FD22187D08CA27CA09EA
:101C4300CB37CB193CD3808013F618E4B67F11F65B
:101C530018B6FF0EF618C60470D20808768080CA3C
:101C6300F618F618F680C5080808EAC0E0EBC0E0ED
:101C730086F0E7A4FA180986F0E7A42AFA18098679
:101C8300F0E7A42AFA180986F0E7A42AFA1986F0DD
:101C9300E7A4FBE5F02AFA190886F0E7A42BFBE595
:101CA300F03AFA190886F0E7A42BFBE5F03AFA18A4
:101CB300180986F0E7A4C5F02BFBE43AFA1908E704
:101CC300C5F0C6A426F6E5F03BFBE43AFA1886F025
:101CD300E7A4F6E5F00826F6E43B08F6E43A08F64E
:101CE300D0E0FBD0E0FA22E4CFC0E0E4CEC0E0E4F1
:101CF300CDC0E0E4CCC0E075F020E626F608E6337C
:101D0300F608E633F608E633F6181818EC33FCED5C
:101D130033FDEE33FEEF33FFC3EC9709ED9709EE86
:101D23009709EF97191919400FFFEC97FC09ED97E5
:101D3300FD09EE97FE191906D5F0BFECF709EDF78B
:101D430009EEF709EFF7191919D0E0FCD0E0FDD03F
:101D5300E0FED0E0FF22181818E4C396F608E496D4
:101D6300F608E496F608E496F6226016080808C614
:101D7300C313C618C613C618C613C618C613C6D5CA
:101D8300E0EA227009080808226016181818C6C36A
:101D930033C608C633C608C633C608C633C6D5E03D
:101DA300EA22E627F60809E637F60809E637F608D1
:101DB30009E637F622E026F608A3E036F608A3E0A4
:101DC30036F608A3E036F622E026F008A3E036F064
:101DD30008A3E036F008A3E036F022C3E697F6083E
:101DE30009E697F60809E697F60809E697F622C387
:101DF300E096F008A3E096F008A3E096F008A3E0CD
:101E030096F022E657F60809E657F60809E657F66C
:101E13000809E657F622E056F608A3E056F608A3AB
:101E2300E056F608A3E056F622E056F008A3E05683
:101E3300F008A3E056F008A3E056F022E0F608A36A
:101E4300E0F608A3E0F608A3E0F622E6F008A3E62E
:101E5300F008A3E6F008A3E6F022E0FAA3E0FBA370
:101E6300E0FCA3E0FD22EAF0A3EBF0A3ECF0A3ED8A
:101E7300F022E0F8A3E0F9A3E0FAA3E0FB22E8F004
:101E8300A3E9F0A3EAF0A3EBF022CAC0E0E6F0A3D3
:101E930008DAFAD0E0FA22CAC0E0E0A3C582CCC5D2
:101EA30082C583CDC583F0A3C582CCC582C583CD4E
:101EB300C583DAE6D0E0CA22C3E498F8E499F912BC
:101EC3001EFC8026C3E49AFAE49BFBE920E7E912AF
:101ED3001EFCE498F8E499F922C3E498F8E499F92C
:101EE300121EFCE498F8E499F9C3E49AFAE49BFB24
:101EF30022EB20E7CFE920E7E0B90010BB0008E8B8
:101F03008AF084F8AAF022E4FBC8FA22EB70227B61
:101F130010C833C8C933C9335007C39AC3DBF2802F
:101F2300069A50012ADBEAC833F4C8C933F4C9FA64
:101F33002275F008E4C833C8C933C933C99AC99BA9
:101F43005004C92AC93BD5F0ECFBC833F4C8E4C933
:101F5300FA22600D08C6A2E713C618C613C6D5E059
:101F6300F322600C08C6C313C618C613C6D5E0F423
:101F730022700422600D18C6C333C608C633C6D503
:101F8300E0F41822251810AF08F518400C15198035
:101F930008F51840021519D2AF2200C0D025181039
:101FA300AF08F518500C05198008F51850020519EB
:101FB300D2AFD0D0222518F58210AF08F518400C07
:101FC30015198008F51840021519D2AF8519832217
:101FD3002518F582E43519F583222518F8E4351917
:101FE300F9222518FAE43519FB222518FCE43519E2
:101FF300FD22E4732518C582C0E0E51934FFC583CB
:10200300C0E0E518C3958224F810AF0885831985CD
:1020130082188008858319858218D2AFCEF0A3E594
:1020230020F0A37808E608F0A3DEFAEFF0A3E58139
:1020330024FAF8E608F0A3E608F0A3E608F0A308FC
:1020430008E608F0A3E608F0A315811581D0E0FEA9
:10205300D0E0F8158115811581E8C0E0EEC0E022DB
:102063002518C582C0E0E51934FFC583C0E0E51833
:10207300C3958224F910AF088583198582188008D7
:10208300858319858218D2AFCEF0A3E520F0A3781B
:1020930008E608F0A3DEFAEFF0A3E58124FBF8E6F7
:1020A30008F0A3E608F0A30808E608F0A3E608F0A2
:1020B300A315811581D0E0FED0E0F815811581E8E4
:1020C300C0E0EEC0E022851983851882E0A3FEE01C
:1020D300A3F5207808E0A3F608DFFAE0A3FFE0A366
:1020E300C0E0E0A3C0E0E0A3C0E0E0A3C0E0E0A361
:1020F300C0E010AF0885821885831980088582188F
:10210300858319D2AFD083D08202011F85198385BD
:102113001882E0A3FEE0A3F5207808E0A3F608DF29
:10212300FAE0A3FFE0A3C0E0E0A3C0E0E0A3C0E0C7
:10213300E0A3C0E010AF0885821885831980088565
:102143008218858319D2AFD083D08222C0D02518BC
:10215300C582C0E0E51934FFC583C0E0E518C39527
:102163008224F310AF08858319858218800885833C
:1021730019858218D2AFC8F0A3E9F0A3EAF0A3EB64
:10218300F0A37908E709F0A3D8FAECF0A3EDF0A3E4
:10219300EEF0A3EFF0A3D0E0F0A3D0E0F0A3D0E003
:1021A300F0A3E520F0A3E5F0F0A3228519838518B9
:1021B30082E0C0E0A3E0F9A3E0FAA3E0FBA3780880
:1021C300E0F608A3DFFAE0FCA3E0FDA3E0FEA3E052
:1021D300FFA3E0C0E0A3E0C0E0A3E0F5D0A3E0F5F7
:1021E30020A3E0A3F5F010AF08858319858218803A
:1021F30008858319858218D2AFD082D083D0E0F8C6
:10220300D0E03274048006740280027401C0E0F4EA
:1022130004121FB8D0E0121E8D22740480047402CD
:102223008000CCC0E0EDC0E0E518C39CCCAD1950F4
:10223300011D10AF068C188D1980068C188D19D2CC
:10224300AF121E9AD0E0FDD0E0FC22D083D082E909
:10225300C0E0E493A3C386F0C5F095F0F908E493D6
:10226300A386F0C5F095F0700BE493A3C3994005E2
:10227300E9048002A3E475F002A42582F582E5F067
:102283003583F583D0E0F9E493A3C0E0E493C0E0A1
:1022930022D083D082ECC0E0EDC0E0E493A3FCE461
:1022A30093A3FDED4C600D1222E0EC24FFFCED3412
:1022B300FFFD80EFE493A3FCE493A3FDED4C600DDD
:1022C30012231FEC24FFFCED34FFFD80EFD0E0FD73
:1022D300D0E0FCE493A3C0E0E493C0E022C0E0C3F9
:1022E300E49396087401939618400FE4936670087C
:1022F30008740193661870007019A3A3C3E493963E
:10230300087401939618A3A3400DD0E0D0E0D0E069
:102313000222D0A3A3A3A3A3A3D0E022C0E0C0F0D2
:1023230088F0E4936670080874019366187000A837
:10233300F0A3A3700BD0F0D0E0D0E0D0E00222D025
:07234300A3A3D0F0D0E022BB
:10234C0074F5122063EAFEEBFFEE2434F8EF340050
:10235C00F988088909EE2435F582EF3400F583E01D
:10236C00F8EE2437F582EF3400F583E0F50AEC85BE
:10237C000AF0A4FCAAF0850AF0EDA42AFDE82CF8DA
:10238C00E43DF97A257B00121EFCEA85088285095A
:10239C0083F0F8740758F97401B900028004C33350
:1023AC00D9FCFAE8131313541FF8EE28F8EF340095
:1023BC00F9E8245DF582E93400F583E05A6008EE13
:1023CC002434F582EF802CEE2434F582EF3400F5C2
:1023DC0083E0C0E0EE2436F582EF3400F583E0F5BF
:1023EC00F0D0E084A8F0EE28F8EF3400F9E82438B7
:1023FC00F582E93400F583E0F97F0402210F74F5CE
:10240C00122063EAFEEBFFEE2434F582EF3400F584
:10241C0083E0C0E0EE2435F582EF3400F583D0E0A4
:10242C00F08E828F83A3A3A3A3A3A3A3C082C08394
:10243C008E828F83A3A3A3A3A3E0F8A3E0F9D08398
:10244C00D082E0C398F508A3E099F509EE247FF556
:10245C0082EF3400F583E064017069EE2480F5822C
:10246C00EF3400F583E0F8A3E0F98E828F83A3A309
:10247C00A3A3A3A3A3E0FCA3E0FD8E828F83A3A35D
:10248C00A3A3A3E0FAA3E0FBC3EA9CEB9D5010C30B
:10249C00EC98ED99402EC3EA98EB995027800EC327
:1024AC00EA98EB994007C3EC98ED9940177CDC7DDA
:1024BC0004EEFAEFFB120BEBEE247FF582EF340007
:1024CC00F583E4F0EE2434F8EF3400F9E8FCE9FD90
:1024DC00EE2435F582EF3400F583E0F8EE2437F581
:1024EC0082EF3400F583E0F50AE508850AF0A4F5DF
:1024FC0008AAF0850AF0E509A42AF509E82508F8E8
:10250C00E43509F97A257B00121EFCEA8C828D8356
:10251C00F0F8740758F97401B900028004C333D978
:10252C00FCFAE8131313541FF8EE28F8EF3400F9F3
:10253C00E8245DF582E93400F583E05A6008EE2466
:10254C0034F582EF802CEE2434F582EF3400F583E1
:10255C00E0C0E0EE2436F582EF3400F583E0F5F0D0
:10256C00D0E084A8F0EE28F8EF3400F9E82438F530
:10257C0082E93400F583E0F9122E61022405C08251
:10258C00C083851882851983E0F8A3E0F9C3EA9C1F
:10259C00EB9D5010C3EC98ED99401BC3EA98EB9956
:1025AC005014800EC3EA98EB994007C3EC98ED9950
:1025BC004004790180027900D083D08222EAC39C46
:1025CC00FAEB9DFB2274EF1220639003A2E06408E7
:1025DC006005E06407702A9061C8E060249003D025
:1025EC00E0F4601DE0F875F003A4C8AAF02AF974B1
:1025FC00D228FE740339FF8E828F83A3A3A3E070CD
:10260C0003022701906060E0C0E0EE2468F582EFE1
:10261C003400F583D0E0F0750C45750D0575080098
:10262C00750900E5D914F50AE5D95403F50E6017C0
:10263C007403650E605CE50A6010EE2467F582EFAA
:10264C003400F583E070030226E6900540E0640157
:10265C00602AEE2482F582EF3400F583E060047882
:10266C000480027800850A08E508C398FA95E0FB17
:10267C00120AB98A088B09EA45097005120DDD802A
:10268C0074EE2482F582EF3400F583E070048A0C3A
:10269C008B0DE50A6012850C82850D83F50BE5D94F
:1026AC00F0A3150BE50B70F6EE2482F582EF3400E7
:1026BC00F583E0604474FC250AF50A780C12220AB2
:1026CC00AC0AA90EEEFAEFFB120C877402121F9DD6
:1026DC00E97026AA08AB091212ED793D8E828F8320
:1026EC00A3A3A3A3E0FA7B0012098DEEFAEFFB1271
:1026FC000C03120C99790080747403650E60568576
:10270C000A10751100781012220AAC0CAD0DAA0833
:10271C00AB09120C637402121F9DEE2468F582EF54
:10272C003400F583E064807004747F8001E0F50C64
:10273C00780C12220EE50EF50C780C12220EA90A5A
:10274C00AC08AD099003D0E0FA7B00120951740279
:10275C00121F9D80139003A2E06408600BAC0CADBB
:10276C000DEEFAEFFB120CF3120DE979017F0A0260
:10277C00210F74F512206374FC121F87EAFEEBFF25
:10278C008908A2AFE433F509C2AF806AEE2463F87E
:10279C00EF3400F97A007B00A2AFE433F50AC2AF44
:1027AC0088828983E0FCA3E0FDEC4D603A88828945
:1027BC0083E0FAA3E0FB8A828B83E0FCA3E0FD8834
:1027CC00828983ECF0A3EDF08A828B83E4F0A3F092
:1027DC0088828983E0FCA3E0FDEC4D700A88828935
:1027EC0083A3A3E4F0A3F0E50AA2E092AF1212EDEA
:1027FC009004E3E004F0EE2463F582EF3400F583FB
:10280C00E0F8A3E0F9E849603DEE2463F582EF348B
:10281C0000F583E02402FAA3E03400FBEA2402F57D
:10282C000AEB3400F50B780A12220A8A828B83E0B9
:10283C00FCA3E0F9EEFAEFFB120C277402121F9DB9
:10284C00E970030227989004E3E060639004E4E0ED
:10285C00F89004E3E0C398500C7402650870509033
:10286C0004E5E0604A8E828F83A3A3A3A3E08518BE
:10287C0082851983F0A3E4F09004E3E0F87402126B
:10288C001FD3E8F0A3E4F09004E3E0F89004E2E056
:10289C0028F07402121FD3AC82AD8385188285197F
:1028AC0083AA82AB83790112095D9004E3E4F0E51D
:1028BC0009A2E092AF7404121F9D022405000000CF
:1028CC008521878522C622C0E0C0D0E8C0E0E9C0DF
:1028DC00E0EAC0E0EBC0E0ECC0E0EDC0E0EEC0E050
:1028EC00C008C009C00AC00BC082C083C0F0A2AF30
:1028FC00E433FEC2AF759B00906182E0A2E05012FF
:10290C00E591A2E0500C7591FE74016521700312E3
:10291C0025D1E0A2E55051E591A2E5504B7591DF30
:10292C009003A2E064076005E064087023740165FD
:10293C0021703579019003D0E0FA75F003A4CAA890
:10294C00F028FB74D22AFA74033BFB12277E801802
:10295C00E0640D70139003C4E004F064287002E48A
:10296C00F07A00E0F9120DEF906182E0A2E64003EC
:10297C00022A1AE591A2E64003022A1A7591BF9029
:10298C0003A2E064057008120D1D120D29800312BC
:10299C000D23752100120D7DE99003A3F07900122F
:1029AC000D71120B617A017B009003A1E0F91210FA
:1029BC0047907803E064427055900544E014F07041
:1029CC004DC2AF1229D200782AD0E0F618D0E0F62A
:1029DC00E59F540770057509FF800375097FC4C016
:1029EC00E07829E6F50808E65509F509740B78082E
:1029FC00121F65D0E02508F8906270E0A2E740F85D
:102A0C00E8C333906272F0906270E0D2E0F09061B3
:102A1C0081E0A2E35009E5E9A2E3500375E9F7A3CD
:102A2C00E0A2E75009E591A2E7500375917FEEA271
:102A3C00E092AFD0F0D083D082D00BD00AD009D0A6
:102A4C0008D0E0FED0E0FDD0E0FCD0E0FBD0E0FA16
:102A5C00D0E0F9D0E0F8D0D0D0E032C0E0C0D0C0A7
:102A6C0082C083906183E0A2E05009E5BFA2E050F0
:102A7C000375BFFEE0A2E15009E5BFA2E15003756A
:102A8C00BFFDE0A2E25009E5BFA2E2500375BFFB17
:102A9C00E0A2E35009E5BFA2E3500375BFF7E0A243
:102AAC00E45009E5BFA2E4500375BFEFE0A2E55086
:102ABC0009E5BFA2E5500375BFDFE0A2E65009E5CA
:102ACC00BFA2E6500375BFBFD083D0828088C0E020
:102ADC00C0D0E8C0E0E9C0E0EAC0E0EBC0E0ECC088
:102AEC00E0EDC0E0C0F0E5A7A2E6500FE5A1A2E63C
:102AFC00500953A7BF75A1BF122B3FE5A7A2E55004
:102B0C000CE5A1A2E5500653A7DF75A1DFE5A7A24E
:102B1C00E15009E5A1A2E1500375A1FDE5A7A2E2F0
:102B2C00500CE5A1A2E2500653A7FB75A1FBD0F017
:102B3C00022A5074F81220637521019003A2E064FC
:102B4C00067015120CB78A828B83A3A3A3A3A3A32D
:102B5C00E0FAA3E0FB120D0BA2AFE433FED2AF9070
:102B6C0003A8E0640170187A207B009003A1E0F9BF
:102B7C001210CB7A207B009003A1E0F912104D903B
:102B8C006182E0D2E6F0900541E0602185C62280AA
:102B9C00169003A7E064017008E5C654F84405F5E7
:102BAC00C653BEFC1228CC7401652160E4EEA2E091
:102BBC0092AF7F0102210F008E238F2485822885FE
:102BCC008327851882851983E0CEA3E0CF852882E0
:102BDC00852783EBC9EAC8EDCBECCA75F010C3E8C6
:102BEC0033C8E933C9EA33CAEB33CBC3EA9EF526C3
:102BFC00EB9FF525B35004AB25AA26EC33CCED3373
:102C0C00CDD5F0DAAE23AF242274ED1220638A08FE
:102C1C008B098C0A8D0B7413121FD3780C121E3F68
:102C2C007808790C1214607510017511C8751200B2
:102C3C0075130050127808790C121DDE7810790883
:102C4C0012146050168010780C7908121DDE781062
:102C5C00790C12146040047901800279007F0C0217
:102C6C00210F74ED1220638A088B098C0A8D0B746A
:102C7C0013121FD3780C121E3F780C7908121460B3
:102C8C0040117808790C121DDEAA08AB09AC0AAD0C
:102C9C000B802275100075110075120075130178E8
:102CAC0010790C121DDE78107908121DA5AA10AB34
:102CBC0011AC12AD1380A68A828B837508FF75093F
:102CCC00FF750AFF750B007808121E2C7F04022179
:102CDC000F74F51220638C828D837808121E3F8A44
:102CEC00828B837808121DF2EA2404F8EB3400F985
:102CFC008C828D83A3A3A3A3E0FCA3E0FD8882892F
:102D0C0083C3E09CF0A3E09DF088828983C3E094A8
:102D1C0020A3E0944E40268A828B837508FF7509A8
:102D2C00FF750AFF750BFF7808121DCB8A828B8307
:102D3C00A3A3A3A3E02420F0A3E0344EF0022CC301
:102D4C0074F5122063E9FE9004F7E0FAA3E0FBEEC1
:102D5C00C333F8E433F9742228F582748339F5838C
:102D6C00E02AF508A3E03BF509780812220A7A401C
:102D7C007B427C0F7D00122BC47402121F9D8A08AB
:102D8C008B098C0A8D0B74107808121D6DAA08AB78
:102D9C00097F0402210F74F11220638A0C8B0D8CB5
:102DAC000E8D0F740F121FD3E0FAA3E0FB741112F7
:102DBC001FD3E0F508A3E0F509780812220AEA24EB
:102DCC0001F508EB3400F509E4F50AF50B780C79FC
:102DDC0008121C6A750871750902780C7908121CA6
:102DEC006AAA0CAB0DAC0EAD0F122BC47402121FE1
:102DFC009D8B09EA450960047A0180027A00EC2A6D
:102E0C00FCED3400FD7413121FD3E0F8A3E0F9E8D5
:102E1C00FEE9FFECF8EDF97A717B02121EFC8808D2
:102E2C0089098E828F837808121E4EECF8EDF97AA0
:102E3C00717B02121EFC8A088B0974057808121F1C
:102E4C00748E828F83A3A3A3A3E508F0A3E509F0F6
:102E5C007F0802210FC082C083E9906000F0D0830C
:102E6C00D08222C2AF02000022C0E074F212214FC5
:102E7C00A2AFE433FED2AFC2C0E5D1A2E4500653F8
:102E8C00D1EF1212C3EEA2E092AF7F010221AEC0CD
:102E9C00E074F212214FA2AFE433FED2AFE589A267
:102EAC00E15003121215758900C2C5EEA2E092AF73
:102EBC007F010221AEC0E074F212214FA2AFE433C5
:102ECC00FED2AFE58BA2E05003121215758B00C237
:102EDC00E880D8C0E0C0D0E8C0E0E9C0E0E5A8D206
:102EEC00AFC2C7A2E7A2E792AFD0E0F9D0E0F8D02A
:102EFC00D0D0E032C0E0C0D0E8C0E0E9C0E0C0080B
:102F0C00C009C082C083A2AFE433F9D2AF9009F9F3
:102F1C00E0F8A3E0687008539AFBA374018025C203
:102F2C00E99009F9E0F50874012508F07479250891
:102F3C00F582E43409F583E0F5C19009F9E0C39416
:102F4C00804002E4F0E9A2E092AFD083D082D009B5
:102F5C00D008D0E0F9D0E0F8D0D0D0E03202011F98
:102F6C00FFFFFFFFFFFFFFFFC082C083E9900BC292
:102F7C00F002320374F7121FF7E99002E1F07C19AA
:102F8C007D037AFF7BFF1208A39002E274FFF0A38B
:102F9C00F0A3E4F0A3F0790512082B9002E1E0F91C
:102FAC0012074D7AC17B08120A6B7F010220C9748B
:102FBC00F4121FF78A088B09EB548060309002E101
:102FCC00E0F912102F8A0A8B0BAE0AAF0BEE4F6092
:102FDC00138E828F83E064B07003120843EEFAEF15
:102FEC00FB12101DAA08E5096480FB80047A007BA3
:102FFC00000231D274F2121FF774FC121F87EAFE22
:10300C00EBFFEE4F60387402121FD3EEF0A3EF12F9
:10301C003437ECF0A3ED123437AA82AB8312074796
:10302C00E9F50870737412121FD3123FEBE50A45D1
:10303C000B60658E828F831230AEEE4F7005750873
:10304C000280557A067B001210838A0C8B0DA80C1B
:10305C00A90DE8497005750813803D88828983E4C1
:10306C001230B8A3A3EEF0A3EF124484E50AF0A348
:10307C00E50BF09002E71231409002E76017E0FC9C
:10308C00A3E08003EAFCEBFD8C828D83123140704F
:10309C00F38C828D83123F10A9087404121F9D02B9
:1030AC004686A3A3A3A3E0FEA3E0FF22F0A3F0882F
:1030BC008289832274F2121FF7890AE975F017A42A
:1030CC00FEAFF09002E6E4F09002E4123140600AA8
:1030DC001210899002E4E4F0A3F0EEFAEFFB121068
:1030EC00838A088B09EA4509602FEEFCEFFD790015
:1030FC001210059002E4E508F0A3E509F07B0080CE
:10310C000812312AE4F0A3F00BEBC3950A40F2E568
:10311C000A9002E6F0790080027913024686EB757C
:10312C00F017A4F8A9F09002E4E028FAA3E0398A99
:10313C0082F58322123CA6EA4B2274F4121FF77517
:10314C000800750900740C121FD3124458FEE9FFD5
:10315C00800CE5082401F508E5093400F509C3E500
:10316C00089CE5099D503285080A85090B74037883
:10317C000A121F74EA250AF8EB350BF98882898349
:10318C00A3A3A3A3A3A3123FEBEE650A7003EF6501
:10319C000B70BFE8FAE9FB80047A007B008027748F
:1031AC00F4121FF77900EAA2E0501B750833750979
:1031BC0084780812220A7C047D007AC47B0B1208E6
:1031CC00257402121F9D7F040220C9C082C0839007
:1031DC0002E712320A601C88828983A3A3E06A701A
:1031EC0003A3E06B8882898370E8A3A3A3A3123C9A
:1031FC00A280047A007B00D083D08202011F124788
:10320C0059E8492274EE121FF774FC121F87EAFE6C
:10321C00EBFF851882851983E4F0A3F0EE240212EB
:10322C003EF4EE2405123425EE2404F50EEF12388C
:10323C000AE024FE603924FC604624FE605224FE21
:10324C00605E24FE700302332A24FE70030233A254
:10325C0024FE70030233B124FE70030233C024FC3D
:10326C0070030233CF24FE70030233DE02341B9052
:10327C0003007417F0A3E412343F1204C502341B8C
:10328C00851882851983AC82AD831208490233EB11
:10329C00851882851983AC82AD8312084F0233EBFB
:1032AC00850C08850D097402121FD3AC82AD838581
:1032BC000882850983123CA212076B8A0C8B0DAC19
:1032CC000CAD0DEC4D6042E4F50CF50D780C1222B2
:1032DC000A750C00750D03780C12220A750C017519
:1032EC000D03780C12220A7408121FD312222179B2
:1032FC0016123C9C12088B7408121F9DE9F50C7079
:10330C000B123C981204DD800F750C018508828528
:10331C00098312342D123F10850C080233EE74020F
:10332C00121FD3AC82AD83850C82850D83123CA217
:10333C0012076B8A108B11AC10AD11EC4D604385EC
:10334C000C82850D83A3A312222175100075110325
:10335C00781012220A751001751103781012220AC6
:10336C007408121FD31222217916123C9C12088B5E
:10337C007408121F9DE9F509700B123C981204E3B6
:10338C00800F750901850C82850D8312342D123F37
:10339C0010850908804C851882851983AC82AD8311
:1033AC00120855803A851882851983AC82AD831238
:1033BC00085B802B851882851983AC82AD8312083B
:1033CC0061801C851882851983AC82AD83120867D5
:1033DC00800D851882851983AC82AD8312086DE946
:1033EC00F508E50860298E828F83A3E06414601FC2
:1033FC00850E82850F83E0900300123437124755F7
:10340C00900301123F10E508A312343F1204BFEEE3
:10341C00FAEFFB1207E9023DFCF50CEF3400F50D59
:10342C002212475985188285198322F085188285C6
:10343C00198322F07C007D03850A82850B83123C64
:10344C00A62274EE121FF774FC121F878A0A8B0BCC
:10345C008C0E8D0FEA2405F508EB3400F5097C156C
:10346C007D0079007A007B03121005E5082402F533
:10347C000CE50912342885188285198385821085FC
:10348C008311781012220A850882850983A3A3A3CD
:10349C00A312395212220AE5082405F510E5093465
:1034AC0000F511781012220A850C82850D83123CCE
:1034BC00AC1207657406121F9D8A108B11AE10AFEB
:1034CC0011E50A2402F50AE50B123EF7EE4F7003E4
:1034DC0002361480177402121FD3123CA288828900
:1034EC0083EAF0A3EBF0900300E004F0900300E01B
:1034FC00C394054003023614E4F510F5117810124C
:10350C00220A7510E9751102781012220A7510EA58
:10351C00751102781012220A7406121FD31222217E
:10352C007910EEFCEFFD123C9C12088B7408121FF4
:10353C009DE9705E850882850983A3A3A3A3A3A339
:10354C00A3E0F89002E9E068704812395212220A9E
:10355C007CEA7D02E5082408FAE5093400FB120F29
:10356C00FF7402121F9DE960298E828F83A3A3A38F
:10357C00A3123CA2900300E0F51074027810121F05
:10358C007474012510F58274033511F583EAF0A3E8
:10359C00EBF07402121FD385821085831178101200
:1035AC00220A7402121FD3122221850C82850D83EC
:1035BC0012476A1207717404121F9D8A108B11AE88
:1035CC0010AF11900300E0F5107511007402781023
:1035DC00121F7474002510F874033511F988828950
:1035EC0083A312314070030234D8E82403F8E93481
:1035FC0000F9EE4F60030234E18882898374FFF096
:10360C00A3F0900300E004F0900300E0600A123C89
:10361C00981204D17900800B850882850983123FAA
:10362C0007790A023DFC74EA121FF774FE121F8719
:10363C008C128D13EA2405F50CEB1248D41230B21F
:10364C00750800750900EA2402F510EB3400F51139
:10365C0085188285198385820A85830B780A122244
:10366C000A850C82850D83A3A3A3A31238141222FE
:10367C000AE50C2405F50AE50D123EF7780A12222C
:10368C000A850C82850D8312476812076574061231
:10369C001F9D8A0A8B0BEA450B70030237C5EA247F
:1036AC0004F50EEB12380A1230B28A828B83A3A374
:1036BC00A3E0F9851082851183123CA2120753E90D
:1036CC00F50960030237C5E4F514F51578141222D8
:1036DC000A7514E9751502781412220A7514EA7524
:1036EC001502781412220A7406121FD312222179A1
:1036FC0013AC0AAD0B851082851183123CA2120803
:10370C008B7408121F9DE9F50960030237C59002FE
:10371C00E9E0F8E5087009E02402900301F0801755
:10372C00900301E0FCE82402FAE43400FBEA6C703C
:10373C0001EB60030237C9850882AA8212394994C9
:10374C00141239415073850E82850F83E0C0E074EA
:10375C00022A123801D0E0F00508850E82850F830D
:10376C00A3E0C0E085080A7402250A123801D0E0F3
:10377C00F005089002E912381412220A7CEA7D0244
:10378C0085080A7402250AFA74033400FB120FED43
:10379C007402121F9D9002E9E02508F50874FF6E73
:1037AC00700374FF6F6012EE24010EEF3400FFE51E
:1037BC0008C39414500302365CE5086013123B8D69
:1037CC00851082851183123CA21204D779008014D3
:1037DC00E509700375090A851282851383EEF0A33F
:1037EC00EFF0A9097402121F9D7F0E0220C98508F3
:1037FC000C7402250CF58274033400F5832234001A
:10380C00F50F850E82F583221244972274EE121F57
:10381C00F774FE121F878C0E8D0FEA2405F50CEB46
:10382C00123428750B00900300E4F0F50AEA240228
:10383C00F508EB3400F5098049900300E0FA90029A
:10384C00E9E0F81239499417123941400D90030000
:10385C00E0F87416C3989002E9F012395212220A59
:10386C007CEA7D0274012AFA74033400FB120FED1A
:10387C007402121F9D9002E9E0F8900300E028F01A
:10388C00050AE50C2416F582E50D123805E0F8E57D
:10389C000AC398400302392A900300E0C3941650DF
:1038AC007DE50AC333F8E433F9E50C28FEE50D3960
:1038BC00FF851882851983AC82AD838E828F83122B
:1038CC003CA212076B8A108B11AC10AD11EC4D7031
:1038DC0005750B018043E4F510F511781012220ADE
:1038EC007510E9751102781012220A7510EA75111B
:1038FC0002781012220A7406121FD3122221791692
:10390C00850882850983123CA212088B7408121F49
:10391C009DE9F50B7003023845123F0380107C00C3
:10392C007D03850882850983123CA21204E9A90B48
:10393C007402023DFEE99400C365D03322EA28F8F4
:10394C00E43400F9E822E0F51075110078102274C7
:10395C00EA121FF774FC121F878A0C8B0D8C128DC8
:10396C0013EA2405F50AEB123EF7750800750900F9
:10397C00E50A2402F510E50B3400F5117402121F50
:10398C00D385820E85830F780E12220A850A8285D2
:10399C000B83A3A3A3A312444312220AE50A240512
:1039AC00F50EE50B3400F50F780E12220A85108205
:1039BC00851183123EFD123C9C1207657406121F82
:1039CC009D8A0E8B0FAE0EAF0FE50C2402F50EE5A3
:1039DC000D3400F50F80408882898374FFF0050850
:1039EC001237FA74FFF005089002E9E0F50C750D3A
:1039FC0000780C12220A7CEA7D0285080C740225E0
:103A0C000CFA74033400FB120FED7402121F9D901C
:103A1C0002E9E02508F508EE4F60718E828F83A3D2
:103A2C00A3A3E0F9850E82850F83123CA2120753E3
:103A3C00E9F509EE2404123425E97044E4F514F593
:103A4C0015781412220A7514E975150278141222CD
:103A5C000A7514EA751502781412220A7408121FDA
:103A6C00D31222217911EEFCEFFD850E82850F8396
:103A7C00123CA212088B7408121F9DE9F5096027ED
:103A8C00850C82850D83123B83123F10E508700371
:103A9C00023B69123B8D850E82850F83123CA2126C
:103AAC0004EF7900023B7E850882AA82EA9002E943
:103ABC007009E02404900301F08022E0F8900301E7
:103ACC00E0F514E82404FCE43400FDEC651470010A
:103ADC00ED70C0123949941212394150B6850C82DE
:103AEC00850D83E0C0E074022A123801D0E0F005A5
:103AFC0008850C82850D83A3E0C0E01237FAD0E074
:103B0C00123B9F85820C85830D780C12220A74045B
:103B1C00121FD312222185108285118312476A123B
:103B2C0007717404121F9D8A0C8B0DAE0CAF0D85A2
:103B3C00080C7402250CF874033400F9EE4F700372
:103B4C000239E3851882851983E088828983123BC8
:103B5C009FA3E0C0E01237FAD0E00239F1E509701A
:103B6C000375090A850A82850B83123B83123F1069
:103B7C00A90974040237F2124759851282851383FE
:103B8C0022900301E0F5F0E50884900300F07C003E
:103B9C007D0322F005088518828519832274EC12A6
:103BAC001FF774FE121F878A088B098C0E8D0FEA83
:103BBC002405FEEB3400FF851882851983AC82AD99
:103BCC00838E828F83123CA212076B8A0A8B0BEEB8
:103BDC002418123425EA450B7003023C73123DE5A0
:103BEC005032851882851983123CA212087F8A10E4
:103BFC008B11EA4511606B7912AC0AAD0B8508820A
:103C0C00850983123CA2851082851183121FF5E968
:103C1C00F50A7058E4F50AF50B780A12220A8E821E
:103C2C008F83A3A3E0F50A780A12220AEE2403126A
:103C3C003EF4780A12220A8E828F83123CAC120850
:103C4C00917406121F9DE9F50A7021850C82850D71
:103C5C0083E0701F850882850983123CA21204F54B
:103C6C008011750A0E8009750A018004E50A60034B
:103C7C00123F03850C82850D83E06004790080027D
:103C8C00A90A7402121F9D7F0C0220C97C007D03BF
:103C9C00850A82850B83123CA622E0FAA3E0FB2264
:103CAC00E0FCA3E0FD850882850983123CA6227402
:103CBC00EE121FF774FE121F878A088B098C0C8D6D
:103CCC000DEA2405FEEB3400FF750E008518828585
:103CDC001983AC82AD838E828F83123CA212076B48
:103CEC008A0A8B0BEA450B7003023DD1123DE5505D
:103CFC0035851882851983123CA212087F8A0E8B97
:103D0C000FEA450F605E7912AC0AAD0B850882850F
:103D1C000983123CA2850E82850F83121FF5E9F5EB
:103D2C000E6003023DD4850882850983123FEBAAFD
:103D3C000AFB1208738A108B11A810A911E849709C
:103D4C001E7AFF7BFF1208738A108B11A810A91121
:103D5C00E849606C88828983E50AF0A3E50BF0756D
:103D6C000A008007750E0E805F050A9002E6E0FAE5
:103D7C00E50AC39A504AE50A75F017A4FAABF08825
:103D8C00828983A3A3E02AFAA3E03BFB8A828B837C
:103D9C00123EFDEC4D70D2750A17750B00780A12A5
:103DAC00220AEEFCEFFD120FED7402121F9DEEFCC9
:103DBC00EFFD850882850983123CA21204FB801456
:103DCC00750E098003750E01124751850C82850D05
:103DDC0083123F10A90E02393CE5082402F508E5D0
:103DEC00093400F5098A828B83A3A3A3E0A2E52200
:103DFC007404121F9D7F0A0220C974EC121FF78CE9
:103E0C00108D11EA2405F50CEB123428750F00EA1D
:103E1C002402F50AEB123EF7850A82F583123CA2C6
:103E2C001208738A088B09EA45097003023EE9758A
:103E3C000E008071850C82850D83E06401704F8EBD
:103E4C00828F83A3A31222218E828F83A3A3A3A389
:103E5C00E0F512751300781212220AEE2405F51201
:103E6C00EF3400F513781212220A123C9C120891BE
:103E7C007406121F9DE9F50F6014850C82850D8365
:103E8C00E4F0124751851082851183123F107C1784
:103E9C007D007900EEFAEFFB1210058E828F83E421
:103EAC00F0A3F0050E9002E6E0F8E50EC398501E64
:103EBC00E50E75F017A4F8A9F0850882850983A38F
:103ECC00A31248DE123EFDEC4D6003023E40850815
:103EDC008285098374FFF0A3F0E50F7006123C9CF9
:103EEC00120501A90F023C93F50AEF3400F50B22E1
:103EFC00A3E0FCA3E0FD228E828F83124759850E2E
:103F0C0082850F83E8F0A3E9F022C082C08390027F
:103F1C00E2E06A7003A3E06B70067AE27B02800435
:103F2C007A007B00023203C082C08378008C828DC1
:103F3C0083E06A7003A3E06B7010E875F003A4F8DB
:103F4C00A9F0EC28FAED39FB8015088C828D83A33F
:103F5C00A3A3E06A7003A3E06B60DF7A007B00022E
:103F6C00320374F6121FF712083D8A828B83E582A6
:103F7C00458370067A007B008007A3A3A3A3123CA1
:103F8C00A202460274F2121FF7E9FE740E121FD33E
:103F9C00123FEB7410121FD31244638C828D83E09A
:103FAC0064027036A312475FF50CA3E0F9A80C74F9
:103FBC00026870037429697021750C02750D007804
:103FCC000C12220A780812220A780A12220AEEF936
:103FDC001208B57406121F9D80027901024686E014
:103FEC00F50AA3E0F50B2274E8121FF774FB121FFD
:103FFC0087E9851882851983F08A168B17ECFEEDFC
:10400C00FF751000741D121FD3124755741D121F1B
:10401C00D3123F108E828F83A3A3A3E0A2E4502D72
:10402C00741D121FD3123CA212087F8A828B83E567
:10403C008245837003024434790AEEFCEFFDAA1624
:10404C00AB17121FF5E9F5106003024437741F1209
:10405C001FD31244637421121FD3123FEB7423122B
:10406C001FD3E0F50EA3E0F50F8E828F83E0640280
:10407C0060030243E2A3124755850882850983A396
:10408C00858212858313EE24061234258882898357
:10409C00E0FAA3E0F9EA2400F514E439F5157814F4
:1040AC00122294010000280128D740070002289C06
:1040BC0041032809410029D3420129FE4202299FCC
:1040CC00420329D34204297D43E243E50E450F60A8
:1040DC00030243DD850C82850D83124458FAE9FBFB
:1040EC008A828B83E0850A82850B8312448E12228E
:1040FC000A8A828B83A3E0FCA3E0024367E50E45AA
:10410C000F60030243DD850A82850B837401F01274
:10411C00446B850882850983F07C007D008E828F3C
:10412C0083A3A3A3A3E02401FAA3E03400FB1207AA
:10413C006BEA4B60418A828B83E02402F8850A8209
:10414C00850B83E028F0EA2404F8EB3400F988822C
:10415C008983E08512828513831244A012448E1247
:10416C00220A8A828B83123EFCE5082403FAE509B5
:10417C003400FB02436C850A82850B83E02404F037
:10418C007C047D007900AA12AB131210050244378F
:10419C00E50E450F60030243DD12446BFEA3E0FF06
:1041AC00850A82850B837404F0EE85088285098369
:1041BC00F0EF851282851383F07403121FD3AC8247
:1041CC00AD83EEFAEFFB12076B8A0C8B0DEA450DF3
:1041DC0070030242808A828B83A3A31230AE7401D7
:1041EC00121FD385820E85830F780E12220A740556
:1041FC00121FD31222217CFF7DFF1207717404124F
:10420C001F9D8B0FEA450F7033850C82850D831231
:10421C00444312220A850C82850D83A31222217C31
:10422C00027D007A937B8412059D7404121F9DE914
:10423C00700A7401121FD374FFF0A3F08E828F8367
:10424C00E064027039750C02750D00780C12220AAC
:10425C008E828F83123EFCE5082404FAE5093400B3
:10426C00FB120FED7402121F9D850A82850B83E0F1
:10427C00240280097401121FD3EEF0A3EFF0740135
:10428C00121FD3124454F07401121FD3A312444CC6
:10429C000243D7E50E450F60030243DD850C828592
:1042AC000D83123EFDAA16AB171208A9850A82854A
:1042BC000B837402F0EA850882850983F0851282EB
:1042CC00851383EB0243DAE50E450F60030243DDF1
:1042DC0012446BF8A3E0F9850A82850B837402F013
:1042EC00E8850882850983F0E985128285138302AB
:1042FC0043DA850C82850D83123CA2120FE7EAFC8F
:10430C008C82A882C3950EE4950F405FE8650E7011
:10431C0002E50F70047C008022851882851983E0E9
:10432C00FAE50E2AFAE50F3400FBC3EA98EB940089
:10433C005003E08005E50ECCC39CFCEC850A82851D
:10434C000B83F08C0A750B00780A12220A850C82FA
:10435C00850D83E0250EFCA3E0350FFDAA08AB0903
:10436C00120FED7402121F9D0244377510070244A0
:10437C0037E50E450F705A850C82850D8312475513
:10438C00850A82850B8374071230BA12444C1230A2
:10439C00BAA3E0851282851383F0E82402FAE9348B
:1043AC0000FB8A828B8312444C12447B124454A32C
:1043BC0012448412445DF0E82405F8E93400F988CD
:1043CC0082898312445DA31244A0A3A3A3A3F0800B
:1043DC005A75100B8055741D121FD3123CA2120873
:1043EC003D8A828B83E5824583603D124755880C5C
:1043FC00890DE8450D6031780E12220A780A1222D6
:10440C000A780812220A7406121FD3E0F9EEFCEFA8
:10441C00FDAA16AB17850C82850D83121FF5740649
:10442C00121F9DE9F510800375100EA9107405126A
:10443C001F9D7F100220C9E0F50E750F00780E222B
:10444C00E0850882850983221244AA22124759E882
:10445C00221244AAA3A322E0F508A3E0F5092285C1
:10446C000C82850D83E0F8A3E0F5838882E022A31B
:10447C00A3F08A828B83A322F088828983A3A3A3CF
:10448C00A322F08A828B8312449722E0F50A750BE3
:10449C0000780A22F088828983A31244AA22E0853C
:1044AC000882850983A3A32274EE121FF774FE12EF
:1044BC001F878A0A8B0BECFAEDFB7414121FD3E0E6
:1044CC00F510A3E0F5117416121FD3E0FE74181248
:1044DC001FD3E0F50EA3E0F50F851882851983AC88
:1044EC0082AD8312076B8A0C8B0DEA450D604985F2
:1044FC001882851983123CA212083D8A828B83E5AF
:10450C00824583602FA3A3124463E5084509602408
:10451C00780E12220A781012220AEEF9AC0CAD0DAC
:10452C00AA0AAB0B850882850983121FF574041245
:10453C001F9D8006790E8002790102393C74F612B7
:10454C001FF774FE121F87740C121FD31244588568
:10455C001882851983F07401121FD3E9F0E4F50871
:10456C00F509780812220A750802780812220A74D2
:10457C0004121FD3858208858309780812220A1237
:10458C0008917406121F9D7402121F9D806874F7A7
:10459C00121FF7EAFEEBFF89087C197D031208A9AC
:1045AC00EA5402600BA908EEFAEFFB12075F8002D7
:1045BC007901022FB674F6121FF774FF6A70037438
:1045CC00FF6B70168C828D83124607E4F08C828D03
:1045DC0083A3A3A3124607A380181208798A088B19
:1045EC0009A808A909E849600D8882898374FF121B
:1045FC0030B8A3A3E4F07F020220C974FFF0A3F04B
:10460C008C828D83A3A32274F6121FF71208798A69
:10461C00828B83E58245836006A3A3E0FA80027A4D
:10462C00007B0080D174F2121FF78A088B09ECFE14
:10463C00EDFF740E121FD3E0F50A1208798A0C8B69
:10464C000DA80CA90DE8497026EEFCEFFD7AFF7B56
:10465C00FF1208798A0C8B0DA80CA90DE84970047F
:10466C007911801688828983E508F0A3E509F08822
:10467C00828983A3A3E50AF079007F060220C9741E
:10468C00EE121FF7EAFEEBFF8C088D09890C7414EF
:10469C00121FD31247557416121FD3123CA2750D5C
:1046AC0000E84960030247497402650C6003024745
:1046BC00447412121FD312475FFCA3E0F9EC2400E0
:1046CC00F50EE439F50FEAF4F8EBF4F9EC58F8E5EB
:1046DC000F59F9E849705CE5082406F8ED3400F947
:1046EC00880A890B8882F58312476A1208A98A10F6
:1046FC008B11E50E65107004E50F65116042780EA4
:10470C0012220A850A82850B8312476A1208AF743B
:10471C0002121F9DE9F50D7027780E12220A8508EA
:10472C0082850983A3A31247681208C77402121F5B
:10473C009D800D750D808008750D0D8003750D0B1A
:10474C00A90D023E018E828F8312475922E0F8A3F5
:10475C00E0F92212475988828983E022A3A3E0FC66
:10476C00A3E0FDEEFAEFFB2274E8121FF774E712D8
:10477C001F87851882851983EAF0A3EBF08C168DC0
:10478C0017890E7508007509007431121FD3E0F5F6
:10479C0012A3E0F5137433121FD3E0F514A3E0F564
:1047AC00157435121FD3E0F50FE50975F003A4F865
:1047BC00A9F08518828519831248DEE0F47003A3F2
:1047CC00E0F470030248C1EE2402F50CEF1248D459
:1047DC00E070030248C185160A85170B780A12226D
:1047EC000AAC14AD15AA12AB131208317402121FC5
:1047FC009D8A0A8B0BEA450B70030248C1E4F51045
:10480C00F511781012220A7406121FD385821085B6
:10481C008311781012220A7409121FD38582108515
:10482C008311781012220A851282851383A3A3A305
:10483C00A31222217914AC0AAD0B8E828F83123C09
:10484C00A212088B7408121F9DE97069850A828573
:10485C000B83A3A3A3A31247557402121FD3123FB9
:10486C0010850C82850D83E0A2E05018A90E74020D
:10487C00121FD3AC82AD838E828F83123CA212079F
:10488C0083E94208850C82850D83E0A2E15026E580
:10489C000FF50A780A12220EA90E7403121FD3AC5C
:1048AC0082AD838E828F83123CA212077D7401121B
:1048BC001F9DE942080509E509C39402500302470C
:1048CC00B5A908741902443B3400F50D850C82F52A
:1048DC008322E028FEA3E039FF8E828F832274F2BC
:1048EC00121FF7EAFEEBFF890B7401650B600E7467
:1048FC0002650B706A7901120A89E97062EEFAEFAF
:10490C00FB1208738A088B09EA45096047750A008F
:10491C00800B7C177D007900121005050A9002E6C9
:10492C00E0F8E50AC3985021E50A75F017A4F8A938
:10493C00F0850882850983A3A3E028FAA3E039FB5C
:10494C008A828B8312320A70C98508828509837426
:10495C00FFF0A3F07C197D03EEFAEFFB1208A30223
:10496C00468674F2121FF78A088B09ECFEEDFF7471
:10497C000E121FD3123FEB900BC2E0F4603D7A098C
:10498C007B00121017EA4B60328A828B8374B1F071
:10499C00A3E412447DA312447BA3E508F0A3E5092C
:1049AC001249CAEEF0A3EF1249CAA3A3E50AF0A379
:1049BC00E50BF0900BC2E0F9121023024686F08A48
:1049CC00828B83A3A3A3A3A322C082C083906190F4
:1049DC007404F0A37448F0A37402F09061807440E6
:1049EC00F09061BC7403F09061877419F09062656B
:1049FC00741BF0906249E0C3941390619C400A745C
:104A0C0009F090606674018007740DF0906066E4A4
:104A1C00F090619A7433F0A37455F09061A0743ADD
:104A2C00F090053FE064017009C2919003A6746791
:104A3C0080059003A67461F0902F72E493906186C8
:104A4C00F0902F6CE493F46027E493540FF890618A
:104A5C0085E0686012E5C654804449F5C6E59E546D
:104A6C007F644970F8E8F053C680E59E547F70FA75
:104A7C007905120DD1024C03C082C083E5A8F8530E
:104A8C00A87E906181E4F0A3F0A3F0C2BA539AFE21
:104A9C00C289759B00C2C275E90075910075BF0093
:104AAC0075A91175B905906181F0A374C0F0A3E4E8
:104ABC00F0D2BA439A0174805842A8024C03C082C7
:104ACC00C08374F8121F879003A4E0F8A3E0F9E800
:104ADC00497003024BF89003A4E05440602379081A
:104AEC00851882851983AA82AB83120C458518829E
:104AFC00851983AA82AB831209399003A4E054BFB1
:104B0C00F0E054806010790C7A657B05120C4590AE
:104B1C0003A4E0547FF0E0A2E0503190619A74332A
:104B2C00F0A37455F09061A0743AF090053FE064E6
:104B3C00017009C2919003A6746780059003A67456
:104B4C0061F012093F9003A4E054FEF0E0540260BF
:104B5C003190619A743FF0A3745AF09061A0747F05
:104B6C00F090053FE064017009D2919003A6747136
:104B7C0080059003A6746AF012093F9003A4E054D8
:104B8C00FDF0E054046013902F70E493906186F074
:104B9C001209459003A4E054FBF0E0540860139014
:104BAC002F71E493906186F01209459003A4E054B0
:104BBC00F7F0E054106013902F72E493906186F03C
:104BCC001209459003A4E054EFF0E05420600A125F
:104BDC0009459003A4E054DFF0A3E05401600D12EA
:104BEC000B6D12094B9003A5E054FEF07408121FD4
:104BFC009D024C03F0A3F0D083D08202011F74EC11
:104C0C00121FF774F4121F87851882851983AC82E2
:104C1C00AD8375838475825A7404121E9A902F701A
:104C2C0093F46003024D96907808E0C3940250030D
:104C3C00024D767404121FD3AC82AD8375838475D8
:104C4C0082067408121E9A85188285198385821231
:104C5C008583137404121FD3AC82AD83750EFF755C
:104C6C000FFF7FFF7E00750C48750D78801574085A
:104C7C006E7003024D0A74096E7003024D0A740AB9
:104C8C006E607B850C82850D837808121E3F8C82AA
:104C9C008D83A909E50AC9F8881074187808121DC3
:104CAC006DE5104508F8C3E098A3E099850C828562
:104CBC000D837808121E3F40188C828D83741878EF
:104CCC0008121D6DE5104508F8E0C398F8A3E080C4
:104CDC001C74187808121D6DE5104508FAE9FB8C58
:104CEC00828D83E0F8A3E0F9EAC398F8EB99F9C355
:104CFC00E8950EE9950F5006880E890FEEFF0EE52C
:104D0C000C2404F50CE50D3400F50DEEC394135092
:104D1C0003024C7A74FF650E700474FF650F6023F8
:104D2C008F0874027808121F7474482508F5827471
:104D3C00783509F5837808121E3F85128285138316
:104D4C00E508F0EC2402FCED3400FD85128285139D
:104D5C0083A3858212858313740C121FD3E5826C96
:104D6C007003E5836D6003024C68750801750900DA
:104D7C00780812220A7402121FD3AC82AD837ADC3B
:104D8C007B0B1211F17402121F9D740C121F9D7F6C
:104D9C000C0220C9C082C0839061AE7468F0A37409
:104DAC006AF090624574FBF0A304F053F4FD43FEEB
:104DBC000290053F7401F09061A0E0643A90619A12
:104DCC0070237433F0A37455F09061A0743AF074AE
:104DDC000164017009C2919003A674678028900346
:104DEC00A674618021743FF0A3745AF09061A07492
:104DFC007FF0740164017009D2919003A6747180E4
:104E0C00059003A6746A024C027F080220C9C08276
:104E1C00C0839004F1E06401700A9004F6E0600431
:104E2C00790C80027900024C03C082C08375E1F1D9
:104E3C009004F4E0605B14600914605F1460571414
:104E4C00705E120B7F9004EAE0F97AEB7B04120D92
:104E5C00537AD67BBE7C897D8E120D897A557B5513
:104E6C007C557D00120D5F9004F5E0F9120D6B7905
:104E7C0001120DC59004E8E0F8A3E0C82416F582F1
:104E8C00E83400F5837497F0A3740BF07900024CAE
:104E9C0003120B8580AF120B8B80AA120B9180A58D
:104EAC00791280EA74F0121FF775D90D9004D5E0D1
:104EBC00A2E0E4331313F89004EAE0C4333354C093
:104ECC00484401F5D978E8790488828983A3A3A39F
:104EDC00E0F5D988828983A3A882A983E864EE705F
:104EEC0003E9640470E378D5790488828983A3E0AC
:104EFC00F5D988828983A3A882A983E864DB70032F
:104F0C00E9640470E575E1959004D5E0F97AD67BF7
:104F1C0004120D59900BE47431F0A3740BF0A374CC
:104F2C008DF0A3740CF0A3748DF0A3740CF0A37427
:104F3C008DF0A3740CF0A37437F0A3740BF0A3746E
:104F4C008DF0A3740CF0A3744FF0A3740BF0900BC2
:104F5C00F2748DF0A3740CF0A3748DF0A3740CF0A8
:104F6C00A3748DF0A3740CF0A3748DF0A3740CF0E7
:104F7C00A3748DF0A3740CF0A3748DF0A3740CF0D7
:104F8C009004F4E064019004E87012E0F8A3E0F5FA
:104F9C00838882A3A37508007509088010E0F8A324
:104FAC00E0F5838882A3A3750804750900750A00CF
:104FBC00750B007808121DB8750CFF750DFF750E7A
:104FCC00FF750F007808790C121E069004E8E0F8C3
:104FDC00A3E0C8240EF582E83400F5837808121E8D
:104FEC004E9004E8E0F8A3E0C82414F582E83400FD
:104FFC00F5837413F09003A27402F0024E1574F74B
:10500C00121FF79004FAE02407F5D99004EAE0C4E3
:10501C00333354C0F5D978E8790488828983A3A303
:10502C00A3E0F5D988828983A3A882A983E864EEDA
:10503C007003E9640470E39004FAE0601F78E87987
:10504C0004FAE82413F582E93400F583E0F5D988F5
:10505C00828983A3A882A9831AEA70E690051AE0D4
:10506C002407F5D99004EAE0C4333354C04404F562
:10507C00D978E8790488828983A3A3A3E0F5D98839
:10508C00828983A3A882A983E864EE7003E964048F
:10509C0070E390051AE0601F78E87904FAE824338D
:1050AC00F582E93400F583E0F5D988828983A3A8D9
:1050BC0082A9831AEA70E675E195900BE4743DF0D1
:1050CC00A3740BF0A3748DF0A3740CF0A3748DF087
:1050DC00A3740CF0A3748DF0A3740CF0A37437F0CC
:1050EC00A3740BF0A3748DF0A3740CF0A3744FF0A5
:1050FC00A3740BF0900BF2748DF0A3740CF0A374EA
:10510C008DF0A3740CF0A3748DF0A3740CF0A37445
:10511C008DF0A3740CF0A3748DF0A3740CF0A37435
:10512C008DF0A3740CF09004E8E0F8A3E0C8240E12
:10513C00F582E83400F58374FFF0A3F0A3F0A3F03C
:10514C009004E8E0F8A3E0C82414F582E83400F5F4
:10515C00837412F09003A27401F0FF0220C974F75B
:10516C00121FF79004FAE02407F5D99004EAE0C482
:10517C00333354C04402F5D978E8790488828983A2
:10518C00A3A3A3E0F5D988828983A3A882A983E885
:10519C0064EE7003E9640470E39004FAE0601F7835
:1051AC00E87904FAE82413F582E93400F583E0F594
:1051BC00D988828983A3A882A9831AEA70E675E14B
:1051CC0095900BE47449F0A3740BF0A37449F0A30D
:1051DC00740BF0A37449F0A3740BF0A37449F0A3FF
:1051EC00740BF0A37449F0A3740BF0A37449F0A3EF
:1051FC00740BF0A3744FF0A3740BF0900BF2748D3E
:10520C00F0A3740CF0A3748DF0A3740CF0A3748D44
:10521C00F0A3740CF0A3748DF0A3740CF0A3748D34
:10522C00F0A3740CF0A3748DF0A3740CF09004E84C
:10523C00E0F8A3E0C8240EF582E83400F58374FF8F
:10524C00F0A3F0A3F0A3F09004E8E0F8A3E0C824E6
:10525C0014F582E83400F5837414F09003A27404FE
:10526C00F002553174F7121FF79004FAE02407F599
:10527C00D99004EAE0C4333354C04406F5D978E835
:10528C00790488828983A3A3A3E0F5D988828983D2
:10529C00A3A882A983E864EE7003E9640470E39028
:1052AC0004FAE0601F78E87904FAE82413F582E93F
:1052BC003400F583E0F5D988828983A3A882A98379
:1052CC001AEA70E690051AE02407F5D99004EAE092
:1052DC00C4333354C04404F5D978E87904888289FE
:1052EC0083A3A3A3E0F5D988828983A3A882A98389
:1052FC00E864EE7003E9640470E390051AE0601F43
:10530C0078E87904FAE82433F582E93400F583E08F
:10531C00F5D988828983A3A882A9831AEA70E675D5
:10532C00E195900BE47443F0A3740BF0A3748DF02F
:10533C00A3740CF0A3748DF0A3740CF0A3748DF013
:10534C00A3740CF0A3748DF0A3740CF0A3748DF003
:10535C00A3740CF0A3744FF0A3740BF0900BF274C5
:10536C008DF0A3740CF0A3748DF0A3740CF0A374E3
:10537C008DF0A3740CF0A3748DF0A3740CF0A374D3
:10538C008DF0A3740CF0A3748DF0A3740CF0900446
:10539C00E8E0F8A3E0C8240EF582E83400F5837445
:1053AC00FFF0A3F0A3F0A3F09004E8E0F8A3E0C8AA
:1053BC002414F582E83400F5837415F09003A2747C
:1053CC0003F0025531C082C0839004E8E0F8A3E0FA
:1053DC00C82406F582E83400F583E4024C0074F727
:1053EC00121FF79003D0E0F875F003A4C8AAF02AB6
:1053FC00F974D228F8740339F9E82405FAE9340071
:10540C00FB8A828B83E0FCA3E0FD88828983A3A3C3
:10541C00A3A3A3A3A3A3A3ECF0A3EDF08882898399
:10542C00A3A3A3A3A3A3A3E024FFF8A3E034FFF951
:10543C008A828B83E8F0A3E9F002553174F7121FCE
:10544C00F7EAFEEBFF9061D0E0600302552575D9B9
:10545C000E75D90375D904EE248BF582EF3400F563
:10546C0083E5822408F8E5833400F9E0F5D9A3E854
:10547C0065827003E9658370F2EE2483F582EF3464
:10548C0000F583E5822404F8E5833400F9E0F5D9CE
:10549C00A3E865827003E9658370F275E19579087C
:1054AC00EE248BFAEF3400FB120C397904EE2483D2
:1054BC00FAEF3400FB120C397C00EEF8EFF9ECFA41
:1054CC00C3E49AFA95E0FBEE2AFAEF3BFBEA248A56
:1054DC00F582EB3400F583E0C0E0E824AAF582E91C
:1054EC003400F583D0E0F00C88828983A3A882A9CC
:1054FC0083ECC3940840C7EE246FF582EF3400F5BB
:10550C0083E0F8A3E0F9EE2471F582EF3400F58323
:10551C00E8F0A3E9F07901800279008008F0EEA2AE
:10552C00E092AF79007F010220C9C082C08375D997
:10553C000275D90375D90575E195EA246FF582EBEF
:10554C003400F583E0F8A3E0F9EA2471F582EB343A
:10555C0000F583E8F0A3E9F07901024C0374F6122C
:10556C001FF7EAFEEBFF9005457406F075084575CC
:10557C000905780812220A7C017903120C81740245
:10558C00121F9D75D90675D903758245758305E083
:10559C00F5D9A3E582644A7004E583640570F0755F
:1055AC00E1959003A2E06408701EEE246FF582EF83
:1055BC003400F583E0F8A3E0F9EE2471F582EF34C2
:1055CC0000F583E8F0A3E9F0790102583774F6127C
:1055DC001FF7EAFEEBFF9061D0E070667801900552
:1055EC0045740BF09003A2E06407701975084575BB
:1055FC000905780812220A7C017903120C817402C5
:10560C00121F9D7805740128F5D975D9037582454B
:10561C00758305E8FAE0F5D9A31AEA70F875E195F7
:10562C00EE246FF582EF3400F583E0F8A3E0F9EE99
:10563C002471F582EF3400F583E8F0A3E9F07901E9
:10564C008002790002583774F7121FF7EAFEEBFF5D
:10565C0075D90375D90375D90DEE24DDF582EF34B8
:10566C0000F583E0F5D975E1957904120D8FEE24E0
:10567C006FF582EF3400F583E0F8A3E0F9EE2471C6
:10568C00F582EF3400F583E8F0A3E9F079010255D7
:10569C003174F6121FF7EAFEEBFF9061D0E0F8745C
:1056AC0080C398FAEE2482F582EF3400F583E06033
:1056BC0004780480027800E8240BF8EAC3985003BD
:1056CC000257627D09900545EDF0EE24E2F8EF34C7
:1056DC0000F97A467B057C0888828983E08A828B74
:1056EC0083F088828983A3A882A9838A828B83A36F
:1056FC00AA82AB831CEC70E0EE2482F582EF3400BE
:10570C00F583E0601D750845750905780812220AB5
:10571C007C097903EEFAEFFB120C817402121F9DC7
:10572C007D0D74012DF5D975D903758245758305E9
:10573C008D08E0F5D9A31508E50870F675E19579A3
:10574C0004120D8FEE241DF582EF3400F583E4F086
:10575C00A3F079018002790002583774F6121FF712
:10576C00EAFEEBFF9061D0E0F87480C398FAEE2467
:10577C0082F582EF3400F583E060047804800278CF
:10578C0000E82408F8EAC3985003025835780690CC
:10579C000545740CF09003BFE0900546F09003C0F3
:1057AC00E0900547F09003C1E0900548F09003C2EB
:1057BC00E0900549F09003C3E090054AF0EE248296
:1057CC00F582EF3400F583E0601B7508457509051B
:1057DC00780812220A7C067903EEFA120C81740204
:1057EC00121F9D780A740128F5D975D90375824565
:1057FC007583058808E0F5D9A31508E50870F675DA
:10580C00E1957904120D8FEE246FF582EF3400F5DB
:10581C0083E0F8A3E0F9EE2471F582EF3400F58310
:10582C00E8F0A3E9F07901800279007F020220C937
:10583C0074F6121FF7EAFEEBFF9061D0E0F874806B
:10584C00C398FAEE2482F582EF3400F583E060040D
:10585C00780480027800E82404F8EAC39850030224
:10586C0059167802900545E8F0EE24F4F582EF34F1
:10587C0000F583E0900546F0EE2482F582EF3400CB
:10588C00F583E0601B750845750905780812220A36
:10589C007C027903EEFA120C817402121F9D7806B9
:1058AC00740128F5D975D903758245758305880867
:1058BC00E0F5D9A31508E50870F675E195EE2473AB
:1058CC00F582EF3400F583E4F0EE247FF582EF34BB
:1058DC0000F583E4F0EE241DF582EF3400F583E44B
:1058EC00F0A3F07904120D8FEE240DF582EF340045
:1058FC00F583E0F8A3E0F9EE2471F582EF3400F5BE
:10590C0083E8F0A3E9F0790180027900025837743A
:10591C00F6121FF79061D0E0F87480C398FCEA246B
:10592C0082F582EB3400F583E06004780480027821
:10593C0000E82404F8ECC398405B790290054574A8
:10594C0007F0EA24F5F582EB3400F583E090054688
:10595C00F0EA2482F582EB3400F583E060187508D8
:10596C0045750905780812220A7C0209120C81740B
:10597C0002121F9D7906740129F5D975D903758218
:10598C0045758305E9F8E0F5D9A318E870F875E1D9
:10599C009579018002790002583774F5121FF7E9E6
:1059AC00FCA2AFE433F50AC2AF7D0080010DEA24FE
:1059BC006EF582EB3400F583E0F8EDC398501A8D48
:1059CC0008EA2508F8EB3400F9E8246AF582E93492
:1059DC0000F583E06C70D68024EA246EF8EB34007A
:1059EC00F9E0FEEA2EFAEB3400FBEA246AF582EBCE
:1059FC003400F583ECF088828983E004F0E50AA298
:105A0C00E092AF7F030220C974F6121FF7A2AFE435
:105A1C0033FDC2AFEA246EF582EB3400F583E0145B
:105A2C00F07C0060368C08EA2508F8EB3400F9E8C5
:105A3C00246BF582E93400F583E0C0E0E8246AF5D4
:105A4C0082E93400F583D0E0F00CEA246EF582EBA9
:105A5C003400F583E0F8ECC39840CAEA246DF58273
:105A6C00EB3400F58374FFF0EA2469F582EB340023
:105A7C00F583E4F0EDA2E092AF025837C082C08308
:105A8C00E5A8F8C2AFEA246AF582EB3400F583E9A5
:105A9C00F0EA2469F582EB3400F583E4F0E8A2E740
:105AAC00A2E792AF024C0374F3121FF7EAFEEBFF6E
:105ABC00ECFAEDFB8A828B83A3A3A3A3E0541FF023
:105ACC00EE2436F582EF3400F583E4F0F50AEEFCB3
:105ADC00EFFD8A828B83E0C0E0EC245DF582ED342F
:105AEC0000F583D0E0F0750B00E50A33333354F83E
:105AFC00F50C8A828B83E0F508750900E50B7808B4
:105B0C00121F55E508A2E0502FEE2436F8EF3400B2
:105B1C00F988828983E0F508EE2508F508EF340052
