:020000040000FA
:100000000206B5020803FFFFFFFFFF02080BFFFF18
:10001000FFFFFF020813FFFFFFFFFF02081BFFFFA8
:10002000FFFFFF020823FFFFFFFFFF02082BFFFF78
:10003000FFFFFF020833FFFFFFFFFF02083BFFFF48
:10004000FFFFFF020843FFFFFFFFFF02084BFFFF18
:10005000FFFFFF020853FFFFFFFFFF02085BFFFFE8
:10006000FFFFFF020863FFFFFFFFFF02086BFFFFB8
:10007000FFFFFF020873FFFFFFFFFF02087BFFFF88
:10008000FFFFFF020883FFFFFFFFFF02088BC08214
:10009000C0839001B6E4F0A3F09001B8F0A374021D
:1000A000F09001B5E4F0D083D0822274F71205CD30
:1000B00074FF12067B80117A00795C1202EF120045
:1000C0008E9001BAE4F0A3F07C017D00AA1CAB1D68
:1000D00079001205048B09EA4509607D9001B5E0BD
:1000E000600514604380DA851C82851D83E0645CB2
:1000F00060C5E0645D700D9001B57401F09001B4CD
:10010000E4F080BDE0645E70157A00795E1202EF63
:1001100012008E12024FE960A802080080A3E0647A
:100120005F709E1203188099851C82851D83E0C034
:10013000E09001B4E0F8748128F582E43401F5839D
:10014000D0E0F09001B4E004F0C394235003020027
:10015000C19001B5E4F01201657900740112063313
:100160007F0202039B74F71205CD900182E0FA90A2
:100170000181E0F9EAF89001B6E0687003A3E06954
:1001800060047A02806D79207A837B01120362E930
:10019000F89001A3E06860047A0380579001B8E00A
:1001A000F8A3E05401F9E84970169001B8E0F508A9
:1001B000A3E0F509740978081206C4A9081204ED31
:1001C00075080875090078081206A47C837D0190E3
:1001D00001B8E0FAA3E0FB12048774021206339020
:1001E00001B8E02408F0A3E03400F09001B6120258
:1001F000E57A00795D1202EF02016074F51205CD17
:1002000074FE12067B8A088B09750A02750B00784A
:100210000A1206A474021206E0EB5407FB740B7872
:10022000081206C4A9081204027402120633851CBF
:1002300082851D83E0FA74011203F6E0F8E4C8F940
:10024000EA28E439FB74021206337F0402039BC0E0
:1002500008C0097A007B0A1201FB8A088B0974AA7C
:100260006508700474556509701B7A007B101201D3
:10027000FB8A088B0974016508700474BE650970F7
:1002800004790180027900D009D00822C082C0839D
:10029000A2D9500EC2D99001BA1202E59001BC1247
:1002A00002E543FE019001BCC3E0942DA3E094015C
:1002B00040139001BCE4F0A3F0D2F0A290A29030E1
:1002C000F001B392909001BAC3E09421A3E0944E60
:1002D00040109001BAE4F0A3F012024FE96003026B
:1002E00008000200A6E02401F0A3E03400F022742C
:1002F000F81205CDE9FEEAFF9001BE7455F0A3F0B7
:10030000EEA3F0EFA3F07C047D007ABE7B017900C0
:100310001205227F0102039B74F71205CD74FB12B4
:10032000067B7A007B091201FB851C82851D837484
:1003300055F074011203F67455F074021203F6744A
:100340005FF074031203F6EBF074041203F6EAF0A4
:100350007C057D00AA1CAB1D7900120522740502E4
:10036000015D74F81205CDE9FD79007C008007EE8F
:10037000F918E870150CECC39D501D8A828B83E040
:10038000C969F9A3AA82AB837808E9C313FEE9A27D
:10039000E050DC748C6E80D8020313851D83851CAD
:1003A00082E0A3FEE0A3F5207808E0A3F608DFFAD8
:1003B000E0A3FFE0A3C0E0E0A3C0E0E0A3C0E0E072
:1003C000A3C0E010AF0885821C85831D800885824C
:1003D0001C85831DD2AFD083D08222251CF58210CC
:1003E000AF08F51C400C151D8008F51C4002151DBA
:1003F000D2AF851D8322251CF582E4351DF58322AD
:10040000020074F51205CD8908740F5508F50A75B8
:100410000B00740B780A120691EA2400F8EB348082
:10042000F9E82400E9350BF9E5C7F509A2AFE43393
:10043000F50AC2AFE508C4540FFAE5C754F84AF507
:10044000C7740B1203F6E0FAA3E0FB801C888289D4
:1004500083E08C828D83F088828983A3A882A9831C
:100460008C828D83A3AC82AD83EAFEEBFFEE24FF8A
:100470001AEF34FFFBEE4F70D48509C7E50AA2E0FE
:1004800092AF7F0402039B74F71205CDED9001C279
:10049000F0ECA3F0A37462F0A37473F0A3E0541F14
:1004A000F074091203F6E0F508A3E0F509E5083356
:1004B0003354FC9001C7F0740678081206C4E508AE
:1004C0009001C6F09001C87412F0A37442F053D1A9
:1004D000FE75D601EA906271F0EBA3F0906270E0D5
:1004E000D2E1F0E0A2E740FB7F0202039BC082C0A2
:1004F00083E9C333906272F0906270E0D2E0F0D092
:1005000083D08222C082C083E586A2E2500BE5C17F
:100510008A828B83F07A0180027A007B00D083D0BC
:100520008222C082C0837800790080195386FDEA58
:1005300028F582EB39F583E0F5C1E586A2E150FAB2
:1005400008E8700109C3E89CE99D40E0ECFAEDFB86
:1005500080CBC2AF53BEFBE59DA2E650FAE5C65480
:10056000804449F5C6E59E547F644970F853C67FC0
:10057000E59EA2E740FA53C680E59E547F70FA4399
:10058000BE049062707408F07401F5D575D4C2127F
:10059000008E1205C3794E12064EE960F87586800A
:1005A00075C48053F1FE43F30C53FF3F85FFFF7585
:1005B000C2D875C50B75C4027586C01200AB120295
:1005C0008C80F875CBF675CDFA75CC4422251CC508
:1005D00082C0E0E51D34FFC583C0E0E51CC3958201
:1005E00024F910AF0885831D85821C800885831D32
:1005F00085821CD2AFCEF0A3E520F0A37808E608F0
:10060000F0A3DEFAEFF0A3E58124FBF8E608F0A3FF
:10061000E608F0A30808E608F0A3E608F0A31581B1
:100620001581D0E0FED0E0F815811581E8C0E0EE3C
:10063000C0E02200C0D0251C10AF08F51C500C05EE
:100640001D8008F51C5002051DD2AFD0D022E9F85C
:1006500075B60FE5B4A2E750FAE8C395BB5003792D
:100660000122790022E4900180784B79018002F028
:10067000A3D8FCD9FA1205521206E8251C10AF08BF
:10068000F51C400C151D8008F51C4002151DD2AF4D
:1006900022700422600D18C6C333C608C633C6D5FF
:1006A000E0F4182274028000C0E0F4041203DBD0EE
:1006B000E01206D32275D00075813F751C80751D30
:1006C00001020665600C08C6C313C618C613C6D55A
:1006D000E0F422CAC0E0E6F0A308DAFAD0E0FA2299
:1006E000251CFCE4351DFD2200000080FBFFFFFF00
:1006F000FFFFFFFFFFFFFFFFFFFFFFFFFFFFFFFF0A
:10070000FFFFFFFFFFFFFFFFFFFFFFFFFFFFFFFFF9
:10071000FFFFFFFFFFFFFFFFFFFFFFFFFFFFFFFFE9
:10072000FFFFFFFFFFFFFFFFFFFFFFFFFFFFFFFFD9
:10073000FFFFFFFFFFFFFFFFFFFFFFFFFFFFFFFFC9
:10074000FFFFFFFFFFFFFFFFFFFFFFFFFFFFFFFFB9
:10075000FFFFFFFFFFFFFFFFFFFFFFFFFFFFFFFFA9
:10076000FFFFFFFFFFFFFFFFFFFFFFFFFFFFFFFF99
:10077000FFFFFFFFFFFFFFFFFFFFFFFFFFFFFFFF89
:10078000FFFFFFFFFFFFFFFFFFFFFFFFFFFFFFFF79
:10079000FFFFFFFFFFFFFFFFFFFFFFFFFFFFFFFF69
:1007A000FFFFFFFFFFFFFFFFFFFFFFFFFFFFFFFF59
:1007B000FFFFFFFFFFFFFFFFFFFFFFFFFFFFFFFF49
:1007C000FFFFFFFFFFFFFFFFFFFFFFFFFFFFFFFF39
:1007D000FFFFFFFFFFFFFFFFFFFFFFFFFFFFFFFF29
:1007E000FFFFFFFFFFFFFFFFFFFFFFFFFFFFFFFF19
:1007F000FFFFFFFFFFFFFFFFFFFFFFFFFFFFFFFF09
:04000005000006B53C
:00000001FF
