:020000040000FA
:06000000020107022207C5
:03002B0002248F1D
:0300330002247133
:03003B000224B0EC
:030043000224256F
:0300530002227A0C
:03006B0002244B21
:10008300022073E5C754F84401F5C7790122000043
:100093000080FB120086B900030200F1E4791A78AC
:1000A30002B800028004F709D8FCE4791C7802B88E
:1000B30000028004F709D8FCE490028178227910C9
:1000C3008002F0A3D8FCD9FA7AA27B119001377889
:1000D300E379018015E493A3AD82AE838A828B8397
:1000E300F0A3AA82AB838D828E83D8E9D9E7758288
:1000F300307583DA74031201197582917583007464
:100103000012011975D00075813F751881751902A8
:10011300759F00020096C09FF59FE473D09F22D085
:1001230083D082C09FE493C0E0740193C0E0740263
:1001330093F59F22A503B703E103AB03FF0000B4CC
:10014300000028002800283075A000A000A000A00F
:100153000000080008E001F000100010001000107B
:10016300001000100050005000500010001000D08C
:10017300070000000000000F0001000500307507B4
:10018300001000010081FF00000000FF020202A333
:1001930086010000888602A186010000FA11029FF1
:1001A30086010000B20202A186010000FB11029544
:1001B30086010000C802FFFF0100FF2002A38601A1
:1001C30000008E8602A1860100002912029B860090
:1001D30000000000029786030000A5030D0B0D0B22
:1001E3000D0B0D0B0D0B0D0B0D0B0D0B0D0B0D0B4C
:1001F3000D0B0D0B0D0BE10CFF0CDB0CFFFF01E8EE
:1002030003053F10020AFA000100FF00FEFF000091
:100213000000020000001201227CD7031201229287
:10022300D703120122C1D703120122F7D703120108
:10023300220ED80312012225D8031201225CD8030F
:10024300120122AFD803120122C6D8031201227F62
:10025300CF0312012296CF03120122C7CF0312014B
:100263002202D0031201222CD00312012256D00302
:100273001201226DD00312012284D0031201229BAA
:10028300D003120122C4D003120122D7D0031201DA
:1002930022EDD00312012217D103120122AAAA02CE
:1002A300120122AEAB02120122DBAB021201223198
:1002B300AC0212012254AC0212012268AC021201F8
:1002C300226AAC021201228DAC021201229CAD0201
:1002D30012012260AE0212012235AF02120122A6E0
:1002E300AF0212012232B00212012235B002120112
:1002F30022BDB002120122F8B0021201225FB10244
:1003030012012262B10212012299B102120122C228
:10031300B1021201226DB202120122F7B2021201DE
:100323002246B30212012253B30212012256B30230
:10033300120122B6B302120122C1B30212012240FA
:10034300B40212012243B40212012256B402120172
:100353002259B402120122E8B40212012202B502A8
:1003630012012212B50212012242B5021201224FDA
:10037300B50212012252B502120122D3B5021201B3
:1003830022C1B60212012273B702120122C1CD02A9
:10039300120122B9CE02120122EDCE021201226F06
:1003A300CF021201228FCF02120122D7CF021201F4
:1003B300222AD0021201228ED0021201221BD10264
:1003C300120122D5D102120122E4D4021201226FBA
:1003D300D60212012292D6021201222BAB03120182
:1003E30022C8AC031201222CAD031201228BAD03F0
:1003F30012012299AD03120122C2AD031201228B15
:100403008B03120122B38B03120122E18B0312012E
:1004130022188C03120122768C03120122C18C0351
:100423001201220C8D031201224C8D031201229220
:100433008D03120122C08D031201227D8E0312014E
:1004430022878E03120122948E03120122C78E0388
:10045300120122938F031201229F8F03120122B7ED
:100463008F03120122C18F031201223F9003120155
:1004730022C3E003120122D1E003120122E9E003C7
:1004830012012201E10312012219E10312012200E8
:100493008002120122AC8002120122278102120182
:1004A300224882021201228482021201222D830237
:1004B300120122148402120122788502120122CF32
:1004C3008502120122508602120122408702120184
:1004D300228D87021201221388021201224588020B
:1004E300120122598A021201229B8A02120122B9A5
:1004F3008A021201225B8B02120122238C02120157
:1005030022308E0212012271B20312012287B2033A
:10051300120122ADB203120122C9B303120122D385
:10052300B30312012208B50312012200B60312011C
:100533002211FB02120122B5FB02120122E8FB0287
:1005430012012232FC02120122F5FD02120122DC09
:10055300B20112012255B30112012265B301120146
:100563002253B4011201225DB40112012282B401AB
:100573001201228DB40112012277B501120122DA90
:10058300B50112012290B60112012277B8011201BE
:100593002230BA011201220CBB01120122C0BB019D
:1005A300120122FDBE01120122ABBF011201221A68
:1005B300C1011201229AC20112012241C301120197
:1005C300228AC301120122C1C3011201225EC401A6
:1005D300120122E9C401120122C6C5011201221B24
:1005E300C6011201227AC7011201228AC701120130
:1005F30022B7C7011201220EC801120122B7C80196
:10060300120122BEC90112012288CA01120122E885
:10061300CB011201222BCC01120122D0CC011201F9
:1006230022F6CC0112012204CF0112012209CF01CB
:100633001201220ED1011201225BD101120122CE3D
:10064300D10112012201D201120122A3D20112010E
:10065300224CD30112012284D30112012287D30138
:10066300120122CFD30112012211D40112012268F7
:10067300D40112012224C30312012237C30312013E
:100683002245C3031201228DC303120122A3C30314
:10069300120122EAC303120122FEC4031201228BB8
:1006A300C503120122D6C503120122DB5F0012012A
:1006B30022EB5F001201224E6000120122936000C0
:1006C3001201224961001201222462001201224D0B
:1006D30062001201227D6200120122BD6400120138
:1006E30022A466001201227C6800120122C0690064
:1006F300120122276C00120122356D00120122879C
:100703006E00120122916F00120122D36F001201B9
:10071300220B70001201222D700012012290700032
:10072300120122527500120122E775001201223BC9
:100733007600120122627600120122A076001201D5
:1007430022BF7600120122197700120122197800C4
:100753001201229E78001201223DF5021201224766
:10076300F502120122EFF50212012232F602120102
:10077300224DF602120122DDF60212012205F702D2
:100783001201223DF70212012274F7021201229D87
:10079300F702120122D7F702120122ECF70212012B
:1007A30022B9F802120122DCF802120122FEF80239
:1007B30012012213F90212012299F902120122D322
:1007C300F9021201224BFA0212012294FA021201D7
:1007D30022BEFA02120122E9FA02120122ACDC0360
:1007E300120122498E02120122778E02120122D2B5
:1007F3008F02120122B29002120122D19002120141
:10080300224E91021201229191021201220C9302B3
:100813001201227B9302120122A695021201222ABF
:100823009802120122DB9802120122D199021201CD
:1008330022719A021201226F9B02120122FA9B0279
:10084300120122DDD80312012246D9031201229A92
:10085300D903120122C9D903120122EAD9031201D1
:1008630022E195031201224E96031201229596036B
:10087300120122AD9703120122A998031201228CBF
:10088300990312012205790012012247790012010E
:1008930022207A001201221A7B00120122FC7B0023
:1008A300120122657C00120122817D00120122EDDA
:1008B3007D00120122F07D00120122197E00120137
:1008C30022937E00120122387F001201224D7F0005
:1008D300120122937F00120122AC7F00120122AF8A
:1008E3007F001201220AB60312012246B603120147
:1008F3002284B6031201224EB703120122BDB703AD
:10090300120122F8B70312012236B803120122663C
:10091300B8031201228DB803120122FBB80312019E
:10092300223DB903120122AB8601120122CA8801BA
:10093300120122AD8A01120122E98A011201221653
:100943008B01120122DD8B01120122288C0112017D
:1009530022738C01120122858C01120122C58C01A4
:10096300120122F98C01120122478D011201227812
:100973008D011201229B8D01120122228E0112018F
:10098300220A8F01120122F78F01120122F0900136
:10099300120122FF9201120122A19801120122F1F8
:1009A3009801120122689B0112012285CB031201D7
:1009B300223ACD03120122044300120122B3430061
:1009C300120122FD4300120122334500120122C904
:1009D30046001201223E47001201227F4700120106
:1009E30022D14700120122424900120122874B0003
:1009F300120122814C00120122A04C00120122BFDD
:100A03004C00120122C24C00120122F34D001201CC
:100A130022EB4E00120122D74F0012012247500051
:100A2300120122B950001201224051001201221B6F
:100A33005200120122F05200120122CF5300120180
:100A4300225A5400120122C854001201223C5500BC
:100A530012012267550012012226560012012213A9
:100A630059001201225C59001201229F5900120100
:100A730022185A00120122B05A00120122A15B006F
:100A8300120122C65B001201220C5C001201223605
:100A93005C001201227E5C00120122F95C0012014B
:100AA30022535D00120122BC5E001201226A5F0024
:100AB300120122AB5F0012012215F201120122631F
:100AC300F2011201226FF2011201224DF301120110
:100AD300227EF301120122AFF3011201222FF4014E
:100AE30012012267F401120122B9F401120122F664
:100AF300F40112012213F70112012239F901120143
:100B03002224FB011201220EFD01120122192500EC
:100B13001201220080031201224B84031201228F4F
:100B23008503120122C1E30112012279E6011201B8
:100B3300227FE60112012239E90112012206EC01AA
:100B4300120122C790031201226B91031201223D6D
:100B53009203120122679203120122B59403120138
:100B6300222425001201226E2500120122AF330038
:100B7300120122343500120122573600120122C815
:100B83003C00120122C33D00120122003E0012016B
:100B930022233E00120122653E001201226F3E0015
:100BA3001201225D3F00120122534000120122EC88
:100BB3004000120122EDBC03120122E7BD03120122
:100BC300225BBE0312012299BE031201220DBF0351
:100BD30012012286BF031201228FBF031201229B3F
:100BE300BF03120122B0BF03120122EEBF031201A1
:100BF3002204C003120122F4EE0212012201EF02C9
:100C03001201221BEF021201225AEF021201229853
:100C1300EF02120122FDEF0212012212F002120171
:100C23002229F00212012237F00212012246F002B9
:100C33001201225BF00212012270F0021201227BE8
:100C4300F00212012287F00212012294F002120133
:100C530022A3F002120122AEF002120122D3F0020B
:100C63001201227AF1021201228FF102120122A44F
:100C7300F102120122BEF102120122D9F102120184
:100C830022F6F10212012201F202120122BDF20246
:100C9300120122A9F302120122CEF302120122D978
:100CA300F302120122EEF30212012202F4021201F4
:100CB3002263F40212012269F4021201226FF40288
:100CC30012012275F4021201228DF402120122C0D4
:100CD300F4021201226BC3021201228DC30212011C
:100CE300226DC40212012244C70212012270C802FB
:100CF30012012294C90212012246CA02120122E7FA
:100D0300CA02120122809C02120122049D021201D6
:100D130022B39D02120122129F0212012233A10269
:100D23001201221FA20212012254A20212012276F0
:100D3300A20212012225A3021201221DA502120101
:100D43002246A502120122D8A5021201220AA602F6
:100D530012012217A6021201226EA6021201229488
:100D6300A60212012201A90212012204AA021201FF
:100D7300225CAA0212012255D5011201225FD6017B
:100D830012012246D70112012250D7011201227209
:100D9300D7011201227ED70112012217D9011201B4
:100DA3002246D90112012262DA01120122BBDA01C1
:100DB30012012221DC0112012200DD011201225C59
:100DC300DD01120122C9DD0112012204DE0112013B
:100DD3002243DE01120122FCE00112012216E1018D
:100DE300120122A2E101120122B0E1011201220942
:100DF300E20112012217E2011201228AE201120129
:100E030022EEE20112012238E30112012229D10369
:100E13001201224ED103120122C0D103120122A8D2
:100E2300E702120122B1E702120122BAE70212011C
:100E33002291E80212012242EA0212012278EA0216
:100E4300120122B2EA02120122E8EA02120122226C
:100E5300EB0212012256EB0212012282EB02120173
:100E630022CBEB0212012205EC021201224EEC020C
:100E7300120122A6EC02120122DBEC02120122363D
:100E8300ED0212012270ED02120122C1ED021201E4
:100E930022F7ED0212012231EE0212012254EE0278
:100EA30012012235E30312012261E303120122BC82
:100EB300E303120122C6E303120122D6E303120164
:100EC30022B3DF02120122BDDF02120122FBDF0285
:100ED30012012244E0021201227EE002120122D416
:100EE300E002120122F5E0021201227AE30212016A
:100EF3002283E302120122CEE302120122F7E3026C
:100F030012012201E4021201226DE4021201220302
:100F1300E5021201224DE5021201227DE5021201D2
:100F23002206E60212012246E6021201227EE602B0
:100F330012012290E602120122AFE602120122B848
:100F4300E6021201227EE702120122CCDF03120124
:100F53002290CD03120122C6CD03120122FCCD0340
:100F630012012245CF0312012292FF02120122A88D
:100F7300FF02120122B2FF021201220AA703120189
:100F8300221FA703120122D2A70312012212A803D0
:100F93001201222BA8031201225FA803120122AC23
:100FA300A803120122E0A80312012222A9031201BD
:100FB300221EAB0312012218E6031201226BD40393
:100FC30012012294D403120122BDD4031201225828
:100FD300D50312012270D503120122B2D5031201E7
:100FE30022B2E103120122EAE1031201221CE2030D
:100FF30012012248E20312012234C0031201225CCF
:10100300C0031201226AC10312012202C2031201A8
:101013002214C2031201221CC20312012243C2037F
:10102300120122C9C203120122D2C2031201224EAB
:101033009A03120122B89A03120122D39C031201CC
:1010430022E0E3031201220FE4031201221CE40352
:101053001201226BE40312012282E403120122D261
:1010630085031201221186031201229A86031201BB
:1010730022AF8603120122FA86031201222E87036E
:101083001201226D87031201227C87031201222E93
:101093008803120122878803120122D688031201D2
:1010A300222C8903120122218A03120122168B03A7
:1010B300120122538B0312012271DB03120122B8A6
:1010C300E503120122819D0112012201A0011201F7
:1010D3002274A10112012271A201120122FAA201BA
:1010E3001201227EA301120122A3A301120122F302
:1010F300A30112012288A701120122FCA7011201F8
:1011030022E8A80112012222A90112012262A901E7
:101113001201220DAB011201223EAB0112012291F9
:10112300AB01120122DAAB0112012248AC01120118
:10113300227AAC0112012292AC01120122A7AD0165
:10114300120122B7AD01120122D5AE01120122F71D
:10115300AE011201222DAF01120122D6B0011201FC
:10116300224FB1011201228EB101120122A5B20157
:101173001201227FE20312012290E203120122777D
:10118300E603120122B6E603120122E9FF0112016E
:101193002285E40312012295E403120122B0E40341
:1011A30012012218E503120122C5DD031201224AAE
:1011B300DE03120122B0DE03120122F7D50312016E
:1011C3002220D6031201228BD603120122DCD6037E
:1011D30012012235D703120122AF9E03120122E628
:1011E3009E03120122569F031201226B9F031201D9
:1011F3002281A00312012203A103120122C9A10328
:10120300120122E8A1031201220FA20312012244B8
:10121300A2031201225CA203120122ADA203120156
:1012230022D6AE03120122E7AE0312012264AF03FA
:1012330012012239B0031201220BB203120122C49C
:10124300C80312012254C903120122D2C903120195
:101253002267CA03120122F1CA03120122FBCA0345
:101263001201220FCB0312012222CB03120122828D
:10127300CB0312012285B903120122A0B903120183
:1012830022CFB903120122FEB9031201222ABA03A3
:1012930012012273BA03120122C4BA0312012205F6
:1012A300BB0312012244BB0312012290BB031201B0
:1012B30022F5BB0312012249BC03120122C9DE033A
:1012C3001201223ADF0312012258DF03120122CE58
:1012D300D2031201221ED303120122A7D303120148
:1012E300220DD40312012200C6031201222AC603CF
:1012F300120122F0C603120122CBC70312012252AC
:10130300C803120122BDD7021201227AD8021201A8
:1013130022B5D802120122DDD8021201223FD902DE
:101323001201228BD902120122EBD9021201227E71
:10133300DA021201227DDB021201220CDD0212010C
:10134300228FDD02120122F6DD021201220DDE02DE
:1013530012012217DF0212012255DF02120122E4D9
:10136300B702120122E7B802120122EEBA021201F9
:101373002227BD02120122F2BD0212012215BE0272
:101383001201224AC0021201229CC0021201223021
:10139300C10212012259C202120122F6C202120133
:1013A30022FCFF01120122C0E603120122D37F00B7
:1013B300120122E2A20312012222E5031201224CAE
:1013C300E50312012206E7031201223CE70312019F
:1013D3002264E703E76670100809E766700A0809E4
:1013E300E76670040809E76622E066701008A3E068
:1013F30066700A08A3E066700408A3E06622C3E0EF
:101403009608A3E09608A3E09608A3E096A2D26507
:10141300D03322C3E7960809E7960809E796080937
:10142300E79622C3E09608A3E09608A3E09608A3F4
:10143300E09622C008C3E096F50808A3E0964208A8
:1014430008A3E096420808A3E09645087001D3D0AC
:101453000822080808EAC0E0EBC0E086F0E7A4FA37
:10146300180986F0E7A42AFA180986F0E7A42AFAED
:10147300180986F0E7A42AFA1986F0E7A4FBE5F039
:101483002AFA190886F0E7A42BFBE5F03AFA1908C3
:1014930086F0E7A42BFBE5F03AFA18180986F0E783
:1014A300A4C5F02BFBE43AFA1908E7C5F0C6A42655
:1014B300F6E5F03BFBE43AFA1886F0E7A4F6E5F02C
:1014C3000826F6E43B08F6E43A08F6D0E0FBD0E061
:1014D300FA22E4CFC0E0E4CEC0E0E4CDC0E0E4CC47
:1014E300C0E075F020E626F608E633F608E633F6A4
:1014F30008E633F6181818EC33FCED33FDEE33FE33
:10150300EF33FFC3EC9709ED9709EE9709EF9719AE
:101513001919400FFFEC97FC09ED97FD09EE97FEB3
:10152300191906D5F0BFECF709EDF709EEF709EF46
:10153300F7191919D0E0FCD0E0FDD0E0FED0E0FFB0
:1015430022E4C396F608E496F608E496F608E496D1
:10155300F6226016080808C6C313C618C613C618B1
:10156300C613C618C613C6D5E0EA227009080808D0
:10157300226016181818C6C333C608C633C608C671
:1015830033C608C633C6D5E0EA22E627F60809E6DD
:1015930037F60809E637F60809E637F622E026F6B5
:1015A30008A3E036F608A3E036F608A3E036F622F1
:1015B300E026F008A3E036F008A3E036F008A3E045
:1015C30036F022C3E697F60809E697F60809E69788
:1015D300F60809E697F622C3E096F008A3E096F032
:1015E30008A3E096F008A3E096F022E657F6080970
:1015F300E657F60809E657F60809E657F622E056D5
:10160300F008A3E056F008A3E056F008A3E056F074
:1016130022E667F60809E667F60809E667F60809A9
:10162300E667F622E0F608A3E0F608A3E0F608A3CF
:10163300E0F622E6F008A3E6F008A3E6F008A3E646
:10164300F022E0FAA3E0FBA3E0FCA3E0FD22EAF032
:10165300A3EBF0A3ECF0A3EDF022E0F8A3E0F9A3F1
:10166300E0FAA3E0FB22E8F0A3E9F0A3EAF0A3EB9E
:10167300F022CAC0E0E6F0A308DAFAD0E0FA22CA00
:10168300C0E0E0A3C582CCC582C583CDC583F0A3EA
:10169300C582CCC582C583CDC583DAE6D0E0CA2234
:1016A300C3E498F8E499F91216E48026C3E49AFA9D
:1016B300E49BFBE920E7E91216E4E498F8E499F9DE
:1016C30022C3E498F8E499F91216E4E498F8E4994B
:1016D300F9C3E49AFAE49BFB22EB20E7CFE920E786
:1016E300E0B90010BB0008E88AF084F8AAF022E40D
:1016F300FBC8FA22EB70227B10C833C8C933C93345
:101703005007C39AC3DBF280069A50012ADBEAC86A
:1017130033F4C8C933F4C9FA2275F008E4C833C8EE
:10172300C933C933C99AC99B5004C92AC93BD5F0E7
:10173300ECFBC833F4C8E4C9FA22600D08C6A2E77B
:1017430013C618C613C6D5E0F322600C08C6C3132C
:10175300C618C613C6D5E0F422700422600D18C65D
:10176300C333C608C633C6D5E0F41822251810AF14
:1017730008F518400C15198008F51840021519D200
:10178300AF2200C0D0251810AF08F518500C05196A
:101793008008F51850020519D2AFD0D0222518F5CC
:1017A3008210AF08F518400C15198008F51840028F
:1017B3001519D2AF851983222518F582E43519F559
:1017C30083222518F8E43519F9222518FAE4351986
:1017D300FB222518FCE43519FD22E4732518C58284
:1017E300C0E0E51934FFC583C0E0E518C395822442
:1017F300F810AF08858319858218800885831985B9
:101803008218D2AFCEF0A3E520F0A37808E608F063
:10181300A3DEFAEFF0A3E58124FAF8E608F0A3E6E5
:1018230008F0A3E608F0A30808E608F0A3E608F02A
:10183300A315811581D0E0FED0E0F815811581153F
:1018430081E8C0E0EEC0E0222518C582C0E0E519BA
:1018530034FFC583C0E0E518C3958224F910AF08AF
:101863008583198582188008858319858218D2AFEC
:10187300CEF0A3E520F0A37808E608F0A3DEFAEFA4
:10188300F0A3E58124FBF8E608F0A3E608F0A3083B
:1018930008E608F0A3E608F0A315811581D0E0FE61
:1018A300D0E0F815811581E8C0E0EEC0E02285198B
:1018B30083851882E0A3FEE0A3F5207808E0A3F671
:1018C30008DFFAE0A3FFE0A3C0E0E0A3C0E0E0A3E9
:1018D300C0E0E0A3C0E0E0A3C0E010AF0885821839
:1018E3008583198008858218858319D2AFD083D068
:1018F3008202011F851983851882E0A3FEE0A3F508
:10190300207808E0A3F608DFFAE0A3FFE0A3C0E035
:10191300E0A3C0E0E0A3C0E0E0A3C0E010AF08850F
:1019230082188583198008858218858319D2AFD0E0
:1019330083D08222C0D02518C582C0E0E51934FFC8
:10194300C583C0E0E518C3958224F310AF088583EF
:10195300198582188008858319858218D2AFC8F04B
:10196300A3E9F0A3EAF0A3EBF0A37908E709F0A356
:10197300D8FAECF0A3EDF0A3EEF0A3EFF0A3D0E0E0
:10198300F0A3D0E0F0A3D0E0F0A3E520F0A3E5F0CE
:10199300F0A322851983851882E0C0E0A3E0F9A3B0
:1019A300E0FAA3E0FBA37808E0F608A3DFFAE0FC83
:1019B300A3E0FDA3E0FEA3E0FFA3E0C0E0A3E0C03B
:1019C300E0A3E0F5D0A3E0F520A3E0A3F5F010AF8A
:1019D300088583198582188008858319858218D222
:1019E300AFD082D083D0E0F8D0E0327404800674A4
:1019F3000280027401C0E0F4041217A0D0E01216B2
:101A030075227404800474028000CCC0E0EDC0E051
:101A1300E518C39CCCAD1950011D10AF068C188D71
:101A23001980068C188D19D2AF121682D0E0FDD022
:101A3300E0FC22D083D082E9C0E0E493A3C386F024
:101A4300C5F095F0F908E493A386F0C5F095F0701E
:101A53000BE493A3C3994005E9048002A3E475F062
:101A630002A42582F582E5F03583F583D0E0F9E41D
:101A730093A3C0E0E493C0E022D083D082ECC0E023
:101A8300EDC0E0E493A3FCE493A3FDED4C600D12E1
:101A93001AC8EC24FFFCED34FFFD80EFE493A3FCB4
:101AA300E493A3FDED4C600D121B07EC24FFFCED4A
:101AB30034FFFD80EFD0E0FDD0E0FCE493A3C0E071
:101AC300E493C0E022C0E0C3E493960874019396C4
:101AD30018400FE493667008087401936618700049
:101AE3007019A3A3C3E49396087401939618A3A350
:101AF300400DD0E0D0E0D0E0021AB8A3A3A3A3A383
:101B0300A3D0E022C0E0C0F088F0E4936670080838
:101B130074019366187000A8F0A3A3700BD0F0D0E3
:0F1B2300E0D0E0D0E0021AB8A3A3D0F0D0E022C7
:101B340074F512184BEAFEEBFFEE2434F8EF340090
:101B4400F988088909EE2435F582EF3400F583E03D
:101B5400F8EE2437F582EF3400F583E0F50AEC85DE
:101B64000AF0A4FCAAF0850AF0EDA42AFDE82CF8FA
:101B7400E43DF97A257B001216E4EA85088285099A
:101B840083F0F8740758F97401B900028004C33370
:101B9400D9FCFAE8131313541FF8EE28F8EF3400B5
:101BA400F9E8245DF582E93400F583E05A6008EE33
:101BB4002434F582EF802CEE2434F582EF3400F5E2
:101BC40083E0C0E0EE2436F582EF3400F583E0F5DF
:101BD400F0D0E084A8F0EE28F8EF3400F9E82438D7
:101BE400F582E93400F583E0F97F040218F774F50F
:101BF40012184BEAFEEBFFEE2434F582EF3400F5C5
:101C040083E0C0E0EE2435F582EF3400F583D0E0C4
:101C1400F08E828F83A3A3A3A3A3A3A3C082C083B4
:101C24008E828F83A3A3A3A3A3E0F8A3E0F9D083B8
:101C3400D082E0C398F508A3E099F509EE247FF576
:101C440082EF3400F583E064017069EE2480F5824C
:101C5400EF3400F583E0F8A3E0F98E828F83A3A329
:101C6400A3A3A3A3A3E0FCA3E0FD8E828F83A3A37D
:101C7400A3A3A3E0FAA3E0FBC3EA9CEB9D5010C32B
:101C8400EC98ED99402EC3EA98EB995027800EC347
:101C9400EA98EB994007C3EC98ED9940177CBF7D17
:101CA40007EEFAEFFB120A53EE247FF582EF3400BD
:101CB400F583E4F0EE2434F8EF3400F9E8FCE9FDB0
:101CC400EE2435F582EF3400F583E0F8EE2437F5A1
:101CD40082EF3400F583E0F50AE508850AF0A4F5FF
:101CE40008AAF0850AF0E509A42AF509E82508F808
:101CF400E43509F97A257B001216E4EA8C828D8397
:101D0400F0F8740758F97401B900028004C333D998
:101D1400FCFAE8131313541FF8EE28F8EF3400F913
:101D2400E8245DF582E93400F583E05A6008EE2486
:101D340034F582EF802CEE2434F582EF3400F58301
:101D4400E0C0E0EE2436F582EF3400F583E0F5F0F0
:101D5400D0E084A8F0EE28F8EF3400F9E82438F550
:101D640082E93400F583E0F9122411021BED74EFCB
:101D740012184B900479E064086005E06407702A47
:101D84009061C8E060249004A7E0F4601DE0F87559
:101D9400F005A4C8AAF02AF974A928FE740439FF2E
:101DA4008E828F83A3A3A3E07003021EA2906060BF
:101DB400E0C0E0EE2468F582EF3400F583D0E0F073
:101DC400750CFB750D07750800750900E5D914F548
:101DD4000AE5D95403F50E60177403650E605CE5DB
:101DE4000A6010EE2467F582EF3400F583E0700397
:101DF400021E879007F6E06401602AEE2482F582D1
:101E0400EF3400F583E06004780480027800850AEA
:101E140008E508C398FA95E0FB1209398A088B098A
:101E2400EA45097005120CB78074EE2482F582EF3E
:101E34003400F583E070048A0C8B0DE50A6012858A
:101E44000C82850D83F50BE5D9F0A3150BE50B701A
:101E5400F6EE2482F582EF3400F583E0604474FCEE
:101E6400250AF50A780C1219F2AC0AA90EEEFAEF5B
:101E7400FB120B077402121785E97026AA08AB0936
:101E84001212D5793D8E828F83A3A3A3A3E0FA7B9C
:101E94000012081FEEFAEFFB120A77120B677900A3
:101EA40080747403650E6056850A107511007810ED
:101EB4001219F2AC0CAD0DAA08AB09120AE37402B4
:101EC400121785EE2468F582EF3400F583E0648010
:101ED4007004747F8001E0F50C780C1219F6E50E9D
:101EE400F50C780C1219F6A90AAC08AD099004A7F0
:101EF400E0FA7B001207DD74021217858013900448
:101F040079E06408700BAC0CAD0DEEFAEFFB120B2C
:101F140037120CC379017F0A0218F774F512184BB3
:101F240074FC12176FEAFEEBFF8908A2AFE433F5E5
:101F340009C2AF806AEE2463F8EF3400F97A007BBB
:101F440000A2AFE433F50AC2AF88828983E0FCA320
:101F5400E0FDEC4D603A88828983E0FAA3E0FB8AD5
:101F6400828B83E0FCA3E0FD88828983ECF0A3EDFF
:101F7400F08A828B83E4F0A3F088828983E0FCA357
:101F8400E0FDEC4D700A88828983A3A3E4F0A3F0FA
:101F9400E50AA2E092AF1212D59007C6E004F0EE73
:101FA4002463F582EF3400F583E0F8A3E0F9E8490F
:101FB400603DEE2463F582EF3400F583E02402FAF9
:101FC400A3E03400FBEA2402F50AEB3400F50B78B5
:101FD4000A1219F28A828B83E0FCA3E0F9EEFAEF8D
:101FE400FB120AA77402121785E97003021F3990C5
:101FF40007C6E060639007C7E0F89007C6E0C3989F
:10200400500C7402650870509007C8E0604A8E82D4
:102014008F83A3A3A3A3E0851882851983F0A3E487
:10202400F09007C6E0F874021217BBE8F0A3E4F0DE
:102034009007C6E0F89007C5E028F074021217BBB9
:10204400AC82AD83851882851983AA82AB8379011A
:102054001207E99007C6E4F0E509A2E092AF740420
:10206400121785021BED0000851A87851BC622C046
:10207400E0C0D0E8C0E0E9C0E0EAC0E0EBC0E0ECDA
:10208400C0E0EDC0E0EEC0E0C008C009C00AC00B6B
:10209400C082C083C0F0A2AFE433FEC2AF759B0020
:1020A400906182E0A2E05012E591A2E0500C75919B
:1020B400FE7401651A7003121D72E0A2E55051E529
:1020C40091A2E5504B7591DF900479E064076005B7
:1020D400E0640870237401651A703579019004A7CF
:1020E400E0FA75F005A4CAA8F028FB74A92AFA74CA
:1020F400043BFB121F1F8018E0640D701390049BB7
:10210400E004F064287002E4F07A00E0F9120CC9EB
:10211400906182E0A2E640030221BAE591A2E64082
:10212400030221BA7591BF900479E0640570081226
:102134000BD3120BDF8003120BD9751A00120C3962
:10214400E990047AF07900120C1B1209C37A017B1E
:1021540000900478E0F9120F21907803E064427053
:10216400559007FAE014F0704DC2AF122172007856
:102174001DD0E0F618D0E0F6E59F54077005750908
:10218400FF800375097FC4C0E0781CE6F50808E603
:102194005509F509740B780812174DD0E02508F895
:1021A400906270E0A2E740F8E8C333906272F09066
:1021B4006270E0D2E0F0906181E0A2E35009E5E9C9
:1021C400A2E3500375E9F7A3E0A2E75009E591A261
:1021D400E7500375917FEEA2E092AFD0F0D083D0A8
:1021E40082D00BD00AD009D008D0E0FED0E0FDD0D8
:1021F400E0FCD0E0FBD0E0FAD0E0F9D0E0F8D0D0B9
:10220400D0E032C0E0C0D0C082C083906183E0A23D
:10221400E05009E5BFA2E0500375BFFEE0A2E15023
:1022240009E5BFA2E1500375BFFDE0A2E25009E554
:10223400BFA2E2500375BFFBE0A2E35009E5BFA2D1
:10224400E3500375BFF7E0A2E45009E5BFA2E450F0
:102254000375BFEFE0A2E55009E5BFA2E5500375A1
:10226400BFDFE0A2E65009E5BFA2E6500375BFBF99
:10227400D083D0828088C0E0C0D0E8C0E0E9C0E06C
:10228400EAC0E0EBC0E0ECC0E0EDC0E0C0F0E5A7E0
:10229400A2E6500FE5A1A2E6500953A7BF75A1BF5E
:1022A4001222DFE5A7A2E5500CE5A1A2E5500653F2
:1022B400A7DF75A1DFE5A7A2E15009E5A1A2E150DE
:1022C4000375A1FDE5A7A2E2500CE5A1A2E2500628
:1022D40053A7FB75A1FBD0F00221F074F812184B40
:1022E400751A01900479E064067015120B8B8A82CA
:1022F4008B83A3A3A3A3A3A3E0FAA3E0FB120BC1C4
:10230400A2AFE433FED2AF90047FE0640170187A88
:10231400207B00900478E0F9120F9F7A207B0090D4
:102324000478E0F9120F27906182E0D2E6F090077A
:10233400F7E0602185C61B801690047EE06401707E
:1023440008E5C654F84405F5C653BEFC12206C7467
:1023540001651A60E4EEA2E092AF7F010218F774FF
:10236400ED12184B8A088B098C0A8D0B7413121703
:10237400BB780C1216277808790C12141675100104
:102384007511C875120075130050127808790C1273
:1023940015C67810790812141650168010780C7926
:1023A400081215C67810790C1214164004790180AD
:1023B4000279007F0C0218F774ED12184B8A088B0F
:1023C400098C0A8D0B74131217BB780C121627781C
:1023D4000C790812141640117808790C1215C6AA43
:1023E40008AB09AC0AAD0B8022751000751100759D
:1023F40012007513017810790C1215C6781079083B
:1024040012158DAA10AB11AC12AD1380A6C082C0F8
:1024140083E9906000F0D083D08222C2AF02000032
:1024240022C0E074F2121937A2AFE433FED2AFC275
:10243400C0E5D1A2E4500653D1EF12126FEEA2E030
:1024440092AF7F01021996C0E074F2121937A2AF5D
:10245400E433FED2AFE589A2E150031211D37589AA
:1024640000C2C5EEA2E092AF7F01021996C0E074EB
:10247400F2121937A2AFE433FED2AFE58BA2E050DB
:10248400031211D3758B00C2E880D8C0E0C0D0E835
:10249400C0E0E9C0E0E5A8D2AFC2C7A2E7A2E792D4
:1024A400AFD0E0F9D0E0F8D0D0D0E032C0E0C0D076
:1024B400E8C0E0E9C0E0C008C009C082C083A2AFA0
:1024C400E433F9D2AF901073E0F8A3E068700853D6
:1024D4009AFBA374018025C2E9901073E0F5087497
:1024E400012508F074F32508F582E4340FF583E040
:1024F400F5C1901073E0C394804002E4F0E9A2E0D7
:1025040092AFD083D082D009D008D0E0F9D0E0F8DF
:10251400D0D0D0E03202011FFFFFFFFFFFFFFFFF1B
:10252400C082C083784C790888828983A3A3A3A33B
:10253400A3A3E4F088828983A3A3A3A3A374FFF0D5
:10254400E82418F8E93400F9E864AC7003E9640895
:1025540070D690084E74FFF090084DE4F090084C4B
:10256400F090084FF0A3F0023E1C74EC1217DF90B9
:10257400084FE0F508A3E0F509E5084509700612DF
:1025840009C30233AA850882850983E014601814FC
:10259400601524FE601124C47003022DB024C070A1
:1025A40003022DB00233AAE0F9120B798A0A8B0BCD
:1025B400AE0AAF0B9004A6E070030229AE120A6BB8
:1025C400E9F875F005A4C8AAF02AF974A928F50C4D
:1025D400740439F50D850C82F583E0F50AA3E0F562
:1025E4000BAC0AFDEEFAEFFB120B73E9F50E740265
:1025F400650E70030229568E828F83E024FE600AE2
:1026040024FE70030228400233AAEE65087003EF2B
:10261400650960211209E19007DAE06401701690FF
:1026240007D9E070107901120C87120C57120C8133
:102634007900120C8DE50E6021E5082415F582E57C
:10264400093400F583E060129007D5E0F8A3E0F9BF
:10265400A3E0687003A3E0697042120BEB8A0C8B51
:102664000D8C0E8D0F751003751100751200751306
:1026740000780C791012158D7510FF7511FF751205
:10268400FF780C79101215EE8E828F83A3A3E50CCC
:10269400F0A3E50DF0A3E50EF0A3E4F0E50824159E
:1026A400F582E5093400F583E064016003022758EC
:1026B400850A82850B83A3A3750CF1750DFF750E36
:1026C400FF750FFF780C1215A0780C1219EE8E828C
:1026D4008F83A3A3C082C0839007D7E0F508A3E04B
:1026E40085080CF50DE4F50EF50FD083D082780C37
:1026F4001215A0AA0CAB0DAC0EAD0F12236374041B
:10270400121785E9701F8E828F83A3A3C082C083B2
:102714009007D7E0F508A3E0F509E4F50AF50BD036
:1027240083D0828014850A82850B83A3A37508F164
:102734007509FF750AFF750BFF78081215A0750C53
:10274400FF750DFF750EFF750F007808790C1215D3
:10275400EE022CA8EE240EF582EF3400F583121A53
:10276400058E828F83A3A312164512236374041269
:102774001785E9640160030232CB850A82850B83E5
:10278400A3A3750CF1750DFF750EFF750FFF780C83
:102794001215A0780C1219EE8E828F83A3A3C08227
:1027A400C0839007D7E0F508A3E085080CF50DE495
:1027B400F50EF50FD083D082780C1215A0AA0CABBD
:1027C4000DAC0EAD0F1223637404121785E9701F4C
:1027D4008E828F83A3A3C082C0839007D7E0F508BD
:1027E400A3E0F509E4F50AF50BD083D082801485C3
:1027F4000A82850B83A3A37508F17509FF750AFF87
:10280400750BFF78081215A0750CFF750DFF750E7A
:10281400FF750F007808790C1215EEEE240EF58280
:10282400EF3400F58378081216369007DDE064274C
:10283400700474258002E004F00232CBEE65087067
:1028440003EF650960319007F1E0F91209E78508A3
:1028540082850983E06402701E9007DAE0640170E7
:10286400169007D9E070107900120C87120C5712D9
:102874000C817901120C8DE50E60129007EBE0F8E3
:10288400A3E0F9A3E0687003A3E0697039120BEBCD
:102894008A0C8B0D8C0E8D0F75100375110075123B
:1028A40000751300780C791012158D7510FF7511D1
:1028B400FF7512FF780C79101215EE8E828F83A3A8
:1028C400A3780C121636850A82850B83A3A3750C94
:1028D400F1750DFF750EFF750FFF780C1215A078BA
:1028E4000C1219EE8E828F83A3A3C082C08390073B
:1028F400EDE0F508A3E085080CF50DE4F50EF50F01
:10290400D083D082780C1215A0AA0CAB0DAC0EADFE
:102914000F1223637404121785E9701F8E828F834C
:10292400A3A3C082C0839007EDE0F508A3E0F509F6
:10293400E4F50AF50BD083D0828014850A82850BD6
:1029440083A3A37508F17509FF750AFF750BFF02D0
:1029540030B4850882850983E0640270139007DA35
:10296400E06401700B9007D9E070057900120C87C0
:10297400E50C2404FEE50D3400FF8E828F83E0F91C
:10298400120BAF8E828F83E09004A7F07902FA7560
:10299400F005A4CAA8F028FB74A92AFA74043BFB26
:1029A400121F1FAA0AAB0B0233A7EE65087003EFD0
:1029B40065098E828F836003022BCAE024FE600ABD
:1029C40024FE7003022B070233A3EE2415F582EFD5
:1029D4003400F583E0604C9007D5E0F8A3E0F9A358
:1029E400E0687003A3E069603A120BEB8A088B0974
:1029F4008C0A8D0B750C0A750D00750E00750F0091
:102A04007808790C12158D78081219EE8E828F834E
:102A1400A3A31216451223637404121785E96003F5
:102A24000233A3120BEB8A088B098C0A8D0B750CED
:102A340003750D00750E00750F007808790C1215DA
:102A44008D750CFF750DFF750EFF7808790C121546
:102A5400EE8E828F83A3A37808121636EE2415F522
:102A640082EF3400F583E0640170328E828F83A399
:102A7400A3C082C0839007D7E0F508A3E0F509E47A
:102A8400F50AD083D08278081215A0EE240EF582C0
:102A9400EF3400F58378081216360233A3EE240EC1
:102AA400F582EF3400F583121A058E828F83A3A377
:102AB4001216451223637404121785E96401600336
:102AC4000233A38E828F83A3A3C082C0839007D7CF
:102AD400E0F508A3E0F509E4F50AD083D08278088C
:102AE4001215A0EE240EF582EF3400F58378081257
:102AF40016369007DDE06427700474258002E00434
:102B04000233A29007EBE0F8A3E0F9A3E0687003B6
:102B1400A3E0696037120BEB8A088B098C0A8D0BD2
:102B2400750C0A750D00750E00750F007808790C88
:102B340012158D78081219EE8E828F83A3A31216B4
:102B4400451223637404121785E97077EE2402F5A5
:102B540008EF3400F509120BEB8A0C8B0D8C0E8DEB
:102B64000F751003751100751200751300780C7938
:102B74001012158D7510FF7511FF7512FF780C7901
:102B8400101215EE850882850983780C1216368595
:102B94000882850983C082C0839007EDE0F508A30D
:102BA400E0F509E4F50AF50BD083D0827808121514
:102BB400A0EE240EF582EF3400F583780812163661
:102BC4001209ED0233A3E024FE600A24FE7003021E
:102BD4002CBA0233AA1209E19007DAE064017016F4
:102BE4009007D9E070107901120C87120C57120C5F
:102BF400817900120C8D9007D5E0F8A3E0F9A3E0E9
:102C0400687003A3E0696037120BEB8A088B098CA8
:102C14000A8D0B750C0A750D00750E00750F007882
:102C240008790C12158D78081219EE8E828F83A301
:102C3400A31216451223637404121785E97074EE07
:102C44002402F508EF3400F509120BEB8A0C8B0D06
:102C54008C0E8D0F7510037511007512007513001D
:102C6400780C791012158D7510FF7511FF7512FF10
:102C7400780C79101215EE850882850983780C1278
:102C84001636850882850983C082C0839007D7E001
:102C9400F508A3E0F509E4F50AF50BD083D08278B2
:102CA400081215A0EE240EF582EF3400F58378089F
:102CB4001216360232CB9007F1E0F91209E78508C3
:102CC40082850983E06402701E9007DAE064017073
:102CD400169007D9E070107900120C87120C571265
:102CE4000C817901120C8D9007EBE0F8A3E0F9A3B5
:102CF400E0687003A3E0696037120BEB8A088B0964
:102D04008C0A8D0B750C0A750D00750E00750F007D
:102D14007808790C12158D78081219EE8E828F833B
:102D2400A3A31216451223637404121785E970795C
:102D3400EE2402F8EF3400F988088909120BEB8AB3
:102D44000C8B0D8C0E8D0F75100375110075120010
:102D5400751300780C791012158D7510FF7511FF1D
:102D64007512FF780C79101215EE85088285098397
:102D7400780C121636850882850983C082C0839038
:102D840007EDE0F508A3E0F509E4F50AF50BD083B7
:102D9400D08278081215A0EE240EF582EF3400F5E7
:102DA4008378081216361209ED02339D9004A6E0CA
:102DB40070030231C1120A6BE9F875F005A4C8AAC0
:102DC400F02AF974A928F510740439F511851082D4
:102DD400F583E0F508A3E0F5099004A7E0F875F0A1
:102DE40005A4C8AAF02AF974A928F50C740439F5C5
:102DF4000D90084DE0540770030230CFA3E0F912A0
:102E04000B798A0A8B0BAE0AAF0BAC08AD09120B17
:102E140073E9F50E7402650E70030230CF850C82DF
:102E2400850D83A3A3A3A3E0F875F08AA4C8AAF030
:102E34002AF974B128F50A740839F50BAA0AFB12A9
:102E44000BA3AA0AAB0B120B9D75128075130078A5
:102E5400121219F27C007D60E50A2406FAE50B34AF
:102E640001FB120AE37402121785A80AA90B9061E8
:102E740095E0C0E0E82486F582E93401F583D0E0EA
:102E8400F0906196E0C0E0E82487F582E93401F52A
:102E940083D0E0F0906197E0C0E0E82488F582E90F
:102EA4003401F583D0E0F0906198E0C0E0E8248933
:102EB400F582E93401F583D0E0F08E828F83E0243B
:102EC400FE600A24FE7003022FDA0230CF1209E1F9
:102ED4009007DAE0640170119007D9E0700B120CCE
:102EE40057120C817900120C8DE50E60129007D5F3
:102EF400E0F8A3E0F9A3E0687003A3E06970361278
:102F04000BEB8A0C8B0D8C0E8D0F75100375110055
:102F1400751200780C791012158D7510FF7511FF5C
:102F24007512FF780C79101215EE8E828F83A3A38D
:102F3400780C121636850882850983A3A3750CF1D3
:102F4400750DFF750EFF750FFF780C1215A0780C28
:102F54001219EE8E828F83A3A3C082C0839007D7F9
:102F6400E0F50CA3E0F50DE4F50EF50FD083D08267
:102F7400780C1215A0AA0CAB0DAC0EAD0F12236386
:102F84007404121785E9701F8E828F83A3A3C082F5
:102F9400C0839007D7E0F508A3E0F509E4F50AF546
:102FA4000BD083D0828014850882850983A3A375FE
:102FB40008F17509FF750AFF750BFF78081215A053
:102FC400750CFF750DFF750EFF750F007808790CF1
:102FD4001215EE0232BC9007F1E0F91209E7E50E92
:102FE40060129007EBE0F8A3E0F9A3E0687003A394
:102FF400E0697036120BEB8A0C8B0D8C0E8D0F75FD
:103004001003751100751200780C791012158D7566
:1030140010FF7511FF7512FF780C79101215EE8EE2
:10302400828F83A3A3780C121636850882850983C0
:10303400A3A3750CF1750DFF750EFF750FFF780CCA
:103044001215A0780C1219EE8E828F83A3A3C0826E
:10305400C0839007EDE0F50CA3E0F50DE4F50EF563
:103064000FD083D082780C1215A0AA0CAB0DAC0E35
:10307400AD0F1223637404121785E9701F8E828FBB
:1030840083A3A3C082C0839007EDE0F508A3E0F515
:1030940009E4F50AF50BD083D08280148508828573
:1030A4000983A3A37508F17509FF750AFF750BFF62
:1030B40078081215A0750CFF750DFF750EFF750FBE
:1030C400007808790C1215EE02338BE510650C704C
:1030D40004E511650D700302319F850C82850D8313
:1030E400A3A3A3E07003023183850C82850D83A31F
:1030F400A3A3A3E0F875F08AA4C8AAF02AF974B1CE
:1031040028FE740839FFEEFAEFFB120BA3EEFAEF78
:10311400FB120B9D750A80750B00780A1219F27C5C
:10312400007D60EE2406FAEF3401FB120AE3740218
:10313400121785906195E0C0E0EE2486F582EF34A5
:1031440001F583D0E0F0906196E0C0E0EE2487F5CD
:1031540082EF3401F583D0E0F0906197E0C0E0EEB7
:103164002488F582EF3401F583D0E0F0906198E093
:10317400C0E0EE2489F582EF3401F583D0E0F0E578
:10318400102404FEE5113400FF8E828F83E0F912CF
:103194000BAF8E828F83E09004A7F079029004A78E
:1031A400E0FA75F005A4CAA8F028FB74A92AFA74F9
:1031B400043BFB121F1FAA08AB090233A790084D5A
:1031C400E0540770030233AAA3E0F9120B798A08CA
:1031D4008B09AE08AF098E828F83E024FE600A2437
:1031E400FE70030232D30233AA1209E19007DAE037
:1031F400640170169007D9E070107901120C8712DF
:103204000C57120C817900120C8D9007D5E0F8A3AD
:10321400E0F9A3E0687003A3E0696037120BEB8A5E
:10322400088B098C0A8D0B750C0A750D00750E0040
:10323400750F007808790C12158D78081219EE8E26
:10324400828F83A3A3121645122363740412178575
:10325400E97074EE2402F508EF3400F509120BEB63
:103264008A0C8B0D8C0E8D0F751003751100751261
:1032740000751300780C791012158D7510FF7511F7
:10328400FF7512FF780C79101215EE8508828509F6
:1032940083780C121636850882850983C082C08320
:1032A4009007D7E0F508A3E0F509E4F50AF50BD09B
:1032B40083D08278081215A0EE240EF582EF340034
:1032C400F583780812163690084E74020233A290E1
:1032D40007F1E0F91209E79007EBE0F8A3E0F9A39E
:1032E400E0687003A3E0696037120BEB8A088B096E
:1032F4008C0A8D0B750C0A750D00750E00750F0088
:103304007808790C12158D78081219EE8E828F8345
:10331400A3A31216451223637404121785E9707669
:10332400EE2402F8EF3400F988088909120BEB8ABD
:103334000C8B0D8C0E8D0F7510037511007512001A
:10334400751300780C791012158D7510FF7511FF27
:103354007512FF780C79101215EE850882850983A1
:10336400780C121636850882850983C082C0839042
:1033740007EDE0F508A3E0F509E4F50AF50BD083C1
:10338400D08278081215A0EE240EF582EF3400F5F1
:103394008378081216361209ED90084E7404F0EE84
:1033A400FAEFFB120B6D7F0C0218B174F01217DFE9
:1033B400EAFEEBFFEE2402F8EF3400F988088909ED
:1033C400EE2406F8EF3400F9880A890B8882F58325
:1033D400121A09850882850983121645120BC774CF
:1033E40002121785850A82850B83121A09850882C1
:1033F400850983121645120BBB7402121785EE243D
:103404000EF582EF3400F583121645120BCD8E8231
:103414008F83E06440701CEE2412F8EF3400F988C6
:10342400828983E0906064F088828983A3E090605D
:10343400658006906064E4F0A3F090084FEEF0A37A
:10344400EFF0EE2416F582EF3400F583E0F8A3E004
:10345400F58388821217DD906054E4F0A3F0A3F0A2
:10346400A3F0A3F0A3F0A3F0A3F0A3F0A3F0A3F0C0
:10347400A3F0906182E0C2E6F07591BFEE2415F5E9
:1034840082EF3400F583E064017003120BFDE5E183
:1034940070FCEE2414F582EF3400F583E0F460034D
:1034A400E0F5E1EE2415F582EF3400F5837401F0C4
:1034B40090047FE064017073120BEB8A088B098C13
:1034C4000A8D0B78081219EE8E828F83A3A312162D
:1034D400451223BC74041217858A088B098C0A8D43
:1034E4000B750C05750D00750E00750F00780879C5
:1034F4000C12145574037808121555E50824F4F5D4
:1035040008E5093401F5099007F7E06003120F4B51
:10351400E4F50AF50B78081219EE7A207B00900482
:1035240078E0F9120F9374041217857F080218B11A
:1035340074EA1217DFEAFEEBFF8C148D15EE4F7060
:1035440003023650120BEB8A088B098C0A8D0B751B
:103554000C01750D00750E00750F007808790C12BA
:10356400158D750CFF750DFF750EFF7808790C121B
:1035740015EE8E828F83E0640270149007D5E0F814
:10358400A3E0F9A3E0687003A3E06970248017E066
:103594006404701D9007EBE0F8A3E0F9A3E0687001
:1035A40003A3E069700B8E828F83A3A3780812169D
:1035B4003675101A7511007512007513007808120B
:1035C40019EE851482851583A3A31216451223BC14
:1035D40074041217858A0C8B0D8C0E8D0F7810795C
:1035E4000C1214164066851482851583A3A3750CEA
:1035F400E7750DFF750EFF750FFF780C1215A07897
:103604000C1219EE8E828F83A3A312164512236324
:103614007404121785E97034750C07750D00750E66
:1036240000750F007808790C12158D78081219EEC0
:103634008E828F83A3A31216451223637404121778
:1036440085E97004790080067901800279027F0E91
:103654000218B174F01217DF890874FF650860035B
:103664000237E590084DE054077003023CC17A002C
:10367400784C790888828983A3A3A3A3A3E0640474
:10368400703FEA75F018A4F8A9F0745228F5827412
:103694000839F583E0640170377A00784C7908883A
:1036A400828983A3A3A3A3A3E06404600302373A3B
:1036B40088828983A3A3A3A3A3A3E0640170778072
:1036C400630AE82418F8E93400F9EAC3940440A42E
:1036D4007A00784C790888828983A3A3A3A3A3E002
:1036E40064017067EA75F018A4F8A9F0745228F51B
:1036F40082740839F583E0640170627A00784C7949
:103704000888828983A3A3A3A3A3E06401600302BE
:1037140037C188828983A3A3A3A3A3A3E064016020
:10372400030237C1EA75F018A4F8A9F0745128FA15
:10373400740839023CBE0AE82418F8E93400F9EAAE
:10374400C3940450030236A3023CC10AE82418F8C7
:10375400E93400F9EAC3940450030236DA7A0078B3
:103764004C790888828983A3A3A3A3A3E06402708D
:1037740061EA75F018A4F8A9F0745228F582740867
:1037840039F583E0640170597A00784C79088882AD
:103794008983A3A3A3A3A3E06402707A88828983A4
:1037A400A3A3A3A3A3A3E06401706BEA75F018A418
:1037B400F8A9F0745128FA740839FB806F0AE824D8
:1037C40018F8E93400F9EAC39404500302370502F7
:1037D4003CC10AE82418F8E93400F9EAC394044027
:1037E400827A00784C790888828983A3A3A3A3A34F
:1037F400E06508703A88828983A3A3A3A3A3A3E006
:103804006401702BEA75F018A4F8A9F0745128FE2D
:10381400740839FF802C0AE82418F8E93400F9EA1E
:10382400C3940450030237927A007B00023CC50A19
:10383400E82418F8E93400F9EAC3940440A97E00A6
:103844007F007A00784C790888828983A3A3A3A394
:10385400A3E06508701BEA75F018A4F8A9F0745287
:1038640028F582740839F583E0640170137A0180C5
:10387400110AE82418F8E93400F9EAC3940440C8AA
:103884007A00E5081460101470030239FC24FE70F9
:1038940003023B0F023CC17B00784C790888828983
:1038A40083A3A3A3A3A3E064027052EB75F018A44E
:1038B400F8A9F0745228F582740839F583E064019C
:1038C400704A7B00784C790888828983A3A3A3A3D8
:1038D400A3E06402600302396A88828983A3A3A3F4
:1038E400A3A3A3E06401707EEB75F018A4F8A9F01B
:1038F400745128F50A740839F50B0239820BE8244F
:1039040018F8E93400F9EBC3940440917B00784C37
:10391400790888828983A3A3A3A3A3E06404600332
:103924000239C3EB75F018A4F8A9F0745228F58293
:10393400740839F583E0640160030239D57B0078AB
:103944004C790888828983A3A3A3A3A3E0640460B9
:10395400030239E088828983A3A3A3A3A3A3E06419
:10396400017079023B630BE82418F8E93400F9EBA1
:10397400C3940450030238CC750A00750B00EAA204
:10398400E05035850A82850B83A3A3750CF6750D6B
:10399400FF750EFF750FFF780C1215A0780C121925
:1039A400EE8E828F83A3A31216451223637404122E
:1039B4001785E97003023CBBAA0AAB0B023CC50B9A
:1039C400E82418F8E93400F9EBC3940450030239ED
:1039D40016EAA2E0501BEEFAEFFB80190BE824185C
:1039E400F8E93400F9EBC394045003023947023C6C
:1039F400087A007B00023CC57B00784C79088882F9
:103A04008983A3A3A3A3A3E064047040EB75F01817
:103A1400A4F8A9F0745228F582740839F583E06497
:103A24000170387B00784C790888828983A3A3A32A
:103A3400A3A3E064046003023AC188828983A3A338
:103A4400A3A3A3A3E064017074023B630BE82418EE
:103A5400F8E93400F9EBC3940440A37B00784C7973
:103A64000888828983A3A3A3A3A3E064017063EB02
:103A740075F018A4F8A9F0745228F582740839F581
:103A840083E06401705B7B00784C790888828983C9
:103A9400A3A3A3A3A3E06401705288828983A3A390
:103AA400A3A3A3A3E064017043EB75F018A4F8A9E1
:103AB400F0745128F50A740839F50B80440BE82496
:103AC40018F8E93400F9EBC394045003023A2D02C8
:103AD4003C080BE82418F8E93400F9EBC3940440DB
:103AE40080EAA2E0501EEEFAEFFB801C0BE82418DB
:103AF400F8E93400F9EBC394044091750A00750B9E
:103B040000023C0E7A007B00023CC57B00784C79B5
:103B14000888828983A3A3A3A3A3E064017055EB5F
:103B240075F018A4F8A9F0745228F582740839F5D0
:103B340083E06401704D7B00784C79088882898326
:103B4400A3A3A3A3A3E064016003023BF6888289D4
:103B540083A3A3A3A3A3A3E064016003023BF6EB46
:103B640075F018A4F8A9F0745128F50A740839F509
:103B74000B023C0E0BE82418F8E93400F9EBC3946B
:103B840004408E7B00784C790888828983A3A3A3A0
:103B9400A3A3E064026003023C4DEB75F018A4F8A3
:103BA400A9F0745228F582740839F583E064016041
:103BB40003023C5F7B00784C790888828983A3A345
:103BC400A3A3A3E064026003023C6688828983A302
:103BD400A3A3A3A3A3E064016003023C66EB75F016
:103BE40018A4F8A9F0745128F50A740839F50B02E1
:103BF4003C7E0BE82418F8E93400F9EBC394045034
:103C040003023B40750A00750B00EAA2E040030280
:103C140039BC850A82850B83A3A3750CF6750DFF49
:103C2400750EFF750FFF780C1215A0780C1219EEA3
:103C34008E828F83A3A31216451223637404121772
:103C440085E960030239BC806E0BE82418F8E93476
:103C540000F9EBC394045003023B8DEAA2E0505DEB
:103C640080550BE82418F8E93400F9EBC3940450A8
:103C740003023BBE750A00750B00EAA2E040030292
:103C840039BC850A82850B83A3A3750CF6750DFFD9
:103C9400750EFF750FFF780C1215A0780C1219EE33
:103CA4008E828F83A3A31216451223637404121702
:103CB40085E960030239BCEEFAEFFB80047A007BED
:103CC4000002352F74F61217DF8909750800784C45
:103CD400790888828983A3A3A3A3A3A3E060030232
:103CE4003DA4E50875F018A4F8A9F0745128FE74F1
:103CF4000839FF8E828F83A37401F08E828F83E54F
:103D040009F0120BEB8E828F83A3A31216518E82BD
:103D14008F83A3A3A3A3A3A3E4F0A3F0EE240EF53F
:103D240082EF3400F58374FFF0A3F0A3F0A3F0EE68
:103D34002414F582EF3400F5837401F0EE2415F5B4
:103D440082EF3400F5837401F0EE2416F582EF342B
:103D540000F583E4F0A3F090084DE04509F09008E5
:103D64004CE004F06401600C7480650960067440E2
:103D740065097019E50875F018A4F8A9F0745128BC
:103D8400F8740839F990084FE8F0A3E9F0E50875EC
:103D9400F018A4F8A9F0745128FA740839FB8018B3
:103DA4000508E82418F8E93400F9E508C394045038
:103DB40003023CD67A007B0080007F020218B1C067
:103DC40082C0838A828B83E0F8A3E0F98A828B83A2
:103DD400E4F0A3F088828983A3F088828983E0F4E5
:103DE400F890084DE058F090084CE014F0700B90F7
:103DF400084FE4F0A3F0900479F0801CC082C083E3
:103E040090084CE0600A90084FE0FAA3E0FB8004BD
:103E14007A007B008002E0F9D083D08202011FC0C7
:103E240082C083E9FB7A00784C790888828983A36D
:103E3400A3A3A3A3E06B7016EA75F018A4F8A9F085
:103E4400745228F582740839F583E0F980110AE880
:103E54002418F8E93400F9EAC3940440CE790080C8
:103E6400B7C082C08390084C023E1A74F61217DF62
:103E7400EAFEEBFF9061D0E0C0E0EE2400F582EFB3
:103E84003401F583D0E0F09061D7E0F89061D5E09B
:103E9400C398547FC0E0EE2401F582EF3401F5832A
:103EA400D0E0F09061D6E0C398547FC0E0EE2402E5
:103EB400F582EF3401F583D0E0F0701A9061C5E02B
:103EC400A2E45012E0A2E7500DEE2402F582EF3492
:103ED40001F5837480F0120CB1EE2401F582EF3405
:103EE40001F583E07034EE2402F582EF3401F583AA
:103EF400E070279061C5E0A2E4501FE0A2E7501AE9
:103F0400EE2402F582EF3401F5837480F0EE24018F
:103F1400F582EF3401F5837480F075E1957800EE55
:103F24002400F582EF3401F583E060279061D3E04B
:103F3400C0E08808EE2508F582EF3400F583D0E070
:103F4400F008EE2400F582EF3401F583E0F9E8C3CC
:103F54009940D975E191023DBE74F61217DFEAFE6D
:103F6400EBFF9061C8E0C0E0EE2403F582EF34017A
:103F7400F583D0E0F09061CFE0F89061CDE0C39894
:103F8400547FC0E0EE2404F582EF3401F583D0E0E1
:103F9400F09061CEE0C398547FC0E0EE2405F58232
:103FA400EF3401F583D0E0F0701A9061C5E0A2E02F
:103FB4005012E0A2E3500DEE2405F582EF3401F532
:103FC400837480F0120CB7EE2404F582EF3401F50B
:103FD40083E07034EE2405F582EF3401F583E0705C
:103FE400279061C5E0A2E0501FE0A2E3501AEE243E
:103FF40005F582EF3401F5837480F0EE2404F58234
:10400400EF3401F5837480F0120CBD7A00EE2403C2
:10401400F582EF3401F583E0602F9061CBE0C0E0DE
:104024008A08EE2508F8EF3400F9E82480F582E9DF
:104034003400F583D0E0F00AEE2403F582EF340176
:10404400F583E0F8EAC39840D175E181023DBE747E
:10405400F41217DF8908A808E875F08AA4C8AAF042
:104064002AF974B128FE740839FFEEFAEFFB120B3B
:10407400A3EEFAEFFB120B9D750A80750B00780A0C
:104084001219F27C007D60EE2406FAEF3401FB1273
:104094000AE37402121785906195E0C0E0EE24866D
:1040A400F582EF3401F583D0E0F0906196E0C0E052
:1040B400EE2487F582EF3401F583D0E0F090619728
:1040C400E0C0E0EE2488F582EF3401F583D0E0F01F
:1040D400906198E0C0E0EE2489F582EF3401F58325
:1040E400D0E0F07F040218B174F21217DF8908A837
:1040F40008E875F08AA4C8AAF02AF974B128F874FB
:104104000839F99061C6E0FDE054F0F075E1817C76
:1041140000E82403F582E93401F583E0602B8C0A7E
:10412400E8250AFAE93400FBEA2480F582EB34003E
:10413400F583E09061CAF00CE82403F582E93401C8
:10414400F583E0FAECC39A40D5E82405F582E93416
:1041540001F583E060049061CEF0E82404F582E97F
:104164003401F583E060049061CDF0ED9061C6F018
:10417400A808E875F08AA4C8AAF02AF974B128F846
:10418400740839F9E0FCE0540FF075E1917A00E825
:104194002400F582E93401F583E060238A0AE825E6
:1041A4000AF582E93400F583E09061D2F00AE8244C
:1041B40000F582E93401F583E0FBEAC39B40DDE8C6
:1041C4002402F582E93401F583E060049061D6F0BD
:1041D400E82401F582E93401F583E060049061D5B7
:1041E400F0EC9061C6F0850882AE82EEF875F08A34
:1041F400A4C8AAF02AF974B128F50A740839F50B91
:10420400750C80750D00780C1219F2E50A2406FC71
:10421400E50B3401FD7A007B60120AE37402121785
:1042240085A80AA90BE82486F582E93401F583E020
:10423400906195F0E82487F582E93401F583E090F4
:104244006196F0E82488F582E93401F583E0906111
:1042540097F0E82489F582E93401F583E0906198C8
:10426400F0EE75F005A4CEA8F028FF74A92EF5820F
:1042740074043FF583E0F8A3E0F5838882E064806A
:10428400704190124A7425F0A3740BF0A3740DF0DE
:10429400A3740BF0A37425F0A3740BF0A37425F09E
:1042A400A3740BF0A3740DF0A3740BF0A37425F0A6
:1042B400A3740BF0A3742BF0A3740BF09004797423
:1042C4000880059004797407F0901258740DF0A3D7
:1042D400740BF0A3740DF0A3740BF0A3740DF0A38E
:1042E400740BF0A3740DF0A3740BF0A3740DF0A37E
:1042F400740BF0A3740DF0A3740BF07F060218B1D5
:10430400C082C0839061907404F0A37448F0A374D5
:1043140002F09061807440F09061BC7403F090618D
:10432400877419F0906265741BF0906249E0C3943D
:104334001390619C400A7409F090606674018007D0
:10434400740DF0906066E4F090619A7433F0A37495
:1043540055F09061A0743AF09007F5E0640170099B
:10436400C29190047D7467800590047D7461F0901F
:104374002522E493906186F090251CE493F4602751
:10438400E493540FF8906185E0686012E5C65480A8
:104394004449F5C6E59E547F644970F8E8F053C675
:1043A40080E59E547F70FA7905120CAB024778C001
:1043B40082C083E5A8F853A87E906181E4F0A3F05D
:1043C400A3F0C2BA539AFEC289759B00C2C275E9B2
:1043D4000075910075BF0075A91175B905906181CB
:1043E400F0A374C0F0A3E4F0D2BA439A01748058E5
:1043F40042A8024778F0024778C082C08374F8125A
:10440400176F90047BE0F8A3E0F9E84970030245D4
:104414002B90047BE0544060237908851882851929
:1044240083AA82AB83120AC5851882851983AA825E
:10443400AB831207C590047BE054BFF0E054806066
:1044440010790C7A1B7B08120AC590047BE0547F18
:10445400F0E0A2E0503190619A7433F0A37455F007
:104464009061A0743AF09007F5E064017009C2917C
:1044740090047D7467800590047D7461F01207CB0D
:1044840090047BE054FEF0E05402603190619A7431
:104494003FF0A3745AF09061A0747FF09007F5E0A8
:1044A40064017009D29190047D7471800590047D3B
:1044B400746AF01207CB90047BE054FDF0E05404DE
:1044C4006013902520E493906186F01207D1900444
:1044D4007BE054FBF0E054086013902521E49390B2
:1044E4006186F01207D190047BE054F7F0E0541099
:1044F4006013902522E493906186F01207D1900412
:104504007BE054EFF0E05420600A1207D190047B62
:10451400E054DFF0A3E05401600D1209CF1207D775
:1045240090047CE054FEF0740812178502477874F6
:10453400EC1217DF74F412176F851882851983AC97
:1045440082AD8375838675828074041216829025E9
:104554002093F460030246BF907808E0C3940250AD
:104564000302469F74041217BBAC82AD8375838625
:1045740075820F74081216828518828519838582C4
:104584001285831374041217BBAC82AD83750EFFBE
:10459400750FFF7FFF7E00750C48750D78801574CC
:1045A400086E700302463374096E70030246337456
:1045B4000A6E607B850C82850D8378081216278C21
:1045C400828D83A909E50AC9F8881074187808123D
:1045D4001555E5104508F8C3E098A3E099850C82C9
:1045E400850D83780812162740188C828D837418E1
:1045F4007808121555E5104508F8E0C398F8A3E0CB
:10460400801C74187808121555E5104508FAE9FB62
:104614008C828D83E0F8A3E0F9EAC398F8EB99F96A
:10462400C3E8950EE9950F5006880E890FEEFF0E2C
:10463400E50C2404F50CE50D3400F50DEEC39413DC
:1046440050030245A374FF650E700474FF650F6088
:10465400238F087402780812175C74482508F582C1
:1046640074783509F5837808121627851282851324
:1046740083E508F0EC2402FCED3400FD851282850C
:104684001383A3858212858313740C1217BBE582EE
:104694006C7003E5836D600302459175080175092B
:1046A4000078081219F274021217BBAC82AD837A37
:1046B400487B091211AF7402121785740C12178506
:1046C4007F0C0218B1C082C0839061AE7468F0A3FD
:1046D400746AF090624574FBF0A304F053F4FD4354
:1046E400FE029007F57401F09061A0E0643A9061D5
:1046F4009A70237433F0A37455F09061A0743AF067
:10470400740164017009C29190047D7467802890DB
:10471400047D74618021743FF0A3745AF09061A009
:10472400747FF0740164017009D29190047D7471F6
:10473400800590047D746A0243F9C082C0839007A7
:10474400D3E0640170119007D9E064016019E0704E
:1047540006A3E0640160109007EAE06401700C9025
:1047640007F0E064017004790C800279008005E0B0
:10477400F9122411D083D08202011FC082C0839019
:1047840007DD7425F09007DB7401F0A3E4F07A01EF
:10479400FB120C279007C9E0F8A3E0C82416F582A1
:1047A400E83400F58374F3F0A37409F09007DAE0B9
:1047B400640170169007D9E070107901120C871209
:1047C4000C57120C817900120C93024778C082C0F6
:1047D4008374FA12176F9007D2E06401700812090B
:1047E400DB9007D2E4F075E1F19007C9E0F8A3E0AB
:1047F400C82415F582E83400F5837401F09007D4D9
:10480400E064017076908644C0828518828519839D
:10481400AC82AD83758386D082740612168275D9F4
:104824000D9007CBE0C4333354C04403F5D978C9A1
:10483400790788828983A3A3A3E0F5D98882898331
:10484400A3A882A983E864CF7003E9640770E385B1
:104854001882851983A882A98388828983E0F5D97F
:10486400A3A882A98374061217BBE582687003E5C6
:10487400836970E575E195790180027900120C2D48
:1048840090124A7443F0A3740BF0A37449F0A37418
:104894000BF0A37443F0A3740BF0A37443F0A3745C
:1048A4000BF0A3740DF0A3740BF0A3740DF0A374B8
:1048B4000BF0A3744FF0A3740BF0901258740DF026
:1048C400A3740BF0A3740DF0A3740BF0A3740DF098
:1048D400A3740BF0A3740DF0A3740BF0A3740DF088
:1048E400A3740BF0A3740DF0A3740BF09007CBE04A
:1048F400F97ACC7B07120C099007DDE0F912241138
:104904007901120C337AD67BBE7C897D8E120C4BD6
:104914007A557B557C557D00120C157900120C9F3D
:104924009007C9E0F8A3E0C82414F582E83400F540
:10493400837416F09004797405F00402452D74F71D
:104944001217DF8908A808E875F005A4C8AAF02A98
:10495400F974A928FE740439FF9007E2E0F97AE3B8
:104964007B07120C099007F0E0701A7900120C69A9
:104974009007B8E070047900800279017AB97B0766
:10498400120C0F80057901120C6975E1F175D923B8
:104994009007E2E0C4333354C04405F5D978E07994
:1049A4000788828983A3A3A3E0F5D988828983A396
:1049B400A882A983E864E67003E9640770E375D903
:1049C4000075D90075D90075D90075D90075D9005D
:1049D400EEF8EFF9E82404FAE93400FBE82422F5C0
:1049E40082E93400F583E0F5D988828983A3A8821B
:1049F400A983EA687002EB6970E2EEF8EFF9E82443
:104A0400031AE93400FBE82426F582E93400F5832F
:104A1400E0F5D988828983A3A882A983EA68700211
:104A2400EB6970E2EE242BF582EF3400F583E0F5B8
:104A3400D9EE242CF582EF3400F583E0F5D9EE2489
:104A44002DF582EF3400F583E0F5D9EE242EF582BE
:104A5400EF3400F583E0F5D9EE242FF582EF34002E
:104A6400F583E0F5D9EE2430F582EF3400F583E0E8
:104A7400F5D9EE2431F582EF3400F583E0F5D9EE73
:104A84002432F582EF3400F583E0F5D9EE2433F5D2
:104A940082EF3400F583E0F5D9EEF8EFF9E8240568
:104AA400FAE93400FBE8245DF582E93400F583E09B
:104AB400F5D988828983A3A882A983EA687002EB66
:104AC4006970E2EE2437F582EF3400F583E0541F79
:104AD400F8EE242AF582EF3400F583E0C43354E081
:104AE40048F5D975E19590124A7413F0A3740BF04C
:104AF400A37419F0A3740BF0A3740DF0A3740BF05A
:104B0400A3740DF0A3740BF0A3740DF0A3740BF055
:104B1400A3740DF0A3740BF0A3741FF0A3740BF033
:104B2400901258740DF0A3740BF0A3740DF0A374D9
:104B34000BF0A3740DF0A3740BF0A3740DF0A37425
:104B44000BF0A3740DF0A3740BF0A3740DF0A37415
:104B54000BF09007EFE0F91224117AD67BBE7C8922
:104B64007D8E120C4B7A557B557C557D00120C15AD
:104B740090600DE4F07901120C9F9004797406F0B2
:104B840002513B74E81217DF9007E0E0F8A3E0F568
:104B9400838882A3A3780C1216279007F1E0FAF811
:104BA40075F005A4C8ACF02CF974D728F582740408
:104BB40039F583E0FEA3E0FFEEC333FEEF33FF8E4F
:104BC40014F515751600751700850C08850D0985F3
:104BD4000E0A850F0B7510047511007512007513FC
:104BE400007808791012158D78081219EE850C08D2
:104BF400850D09850E0A850F0B7808791412158D19
:104C0400780C79141214D5E4F516F517780879148C
:104C14001215C68A0C750D007403780C12175CE526
:104C24000D3395E0F50EF50F7808790C12158D7596
:104C34000CFF750DFF750EFF7808790C1215EEAA9E
:104C440008AB09AC0A7D001223BC74041217858AD0
:104C5400088B09A808A909C3EE98EF995006E82E15
:104C6400F8E93FF9E890600EF0E9A3F0EEA3F0EF65
:104C7400A3F090600D74C1F07F100218B1C082C01F
:104C8400839007C9E0F8A3E0C82406F582E834005D
:104C9400F583E4F0A3F09007DD024773C082C0837C
:104CA4009007E0E0F8A3E0C82406F582E83400F5B4
:104CB40083E4F0A3F09007EF02477302011F74F638
:104CC4001217DF9061D0E0F87480C398FCEA248264
:104CD400F582EB3400F583E0600478048002780008
:104CE400E8240EF8ECC3985003024DEE7C0C9007B8
:104CF400FBE4F0EA2476F582EB3400F583E09007D8
:104D0400FCF0EA2477F8EB3400F988828983E09098
:104D140007FDF088828983A3E09007FEF0EA2479F6
:104D2400F8EB3400F988828983E09007FFF08882E9
:104D34008983A3E0900800F0EA247BF8EB3400F9BF
:104D440088828983E0900801F088828983A3E090B7
:104D54000802F0EA247DF8EB3400F988828983E0C4
:104D6400900803F088828983A3E0900804F0EA2481
:104D740074F8EB3400F98A828B83A3A3A3A3A3E082
:104D8400FEA3E0FF88828983E02EF0A3E03FF08851
:104D9400828983E0900805F088828983A3E09008E3
:104DA40006F0EA2482F582EB3400F583E06017759F
:104DB40008FB75090778081219F27903120B0174BC
:104DC400021217857C1074012CF5D975D9037582EC
:104DD400FB758307ECFEE0F5D9A31EEE70F875E1D0
:104DE400957904120C517901800279000252EB7416
:104DF400F61217DF9061D0E0F87480C398FCEA24BF
:104E040082F582EB3400F583E06004780480027854
:104E140000E8240AF8ECC3985003024EE67508082B
:104E24009007FB7401F07CBF7D0778FC79077E0551
:104E34008C828D83E088828983F08C828D83A3ACFD
:104E440082AD8388828983A3A882A9831EEE70E041
:104E5400EA2480FCEB3400FD8A828B83A3A3A3A302
:104E6400A3E0FEA3E0FF8C828D83E02EF0A3E03F5D
:104E7400F08C828D83E088828983F08C828D83A379
:104E8400AC82AD8388828983A308A9838C828D83B5
:104E9400E088828983F0EA2482F582EB3400F5838A
:104EA400E0601A7508FB75090778081219F27C0886
:104EB4007903120B01740212178575080C7401250D
:104EC40008F5D975D9037582FB758307AE08E0F53B
:104ED400D9A31EEE70F875E1957904120C5179018D
:104EE400800279000252EB74F71217DFEAFEEBFF3F
:104EF4009061D0E06003024FD275D91875D903755B
:104F0400D903EEF8EFF9E82408FAE93400FBE824C1
:104F14009BF582E93400F583E0F5D988828983A37F
:104F2400A882A983EA687002EB6970E2EE24A3F513
:104F340082EF3400F583E0F5D9EE24A4F582EF3452
:104F440000F583E0F5D9EE2493F582EF3400F58380
:104F5400E5822408F8E5833400F9E0F5D9A3E8658F
:104F6400827003E9658370F2EE2487F582EF3400E2
:104F7400F583E5822404F8E5833400F9E0F5D9A348
:104F8400E865827003E9658370F275E1957908EE4E
:104F94002493FAEF3400FB120AB97904EE2487FA59
:104FA400EF3400FB120AB97904120C51EE246FF5A8
:104FB40082EF3400F583E0F8A3E0F9EE2471F58282
:104FC400EF3400F583E8F0A3E9F079018002790079
:104FD40002513B74F61217DFEAFEEBFF9007FB74F5
:104FE40006F07508FB75090778081219F27C017937
:104FF40003120B01740212178575D90675D903754E
:1050040082FB758307E0F5D9A3E58264007004E5AB
:1050140083640870F075E195900479E06408701E6B
:10502400EE246FF582EF3400F583E0F8A3E0F9EEA7
:105034002471F582EF3400F583E8F0A3E9F07901F7
:105044000252EB74F61217DFEAFEEBFF9061D0E038
:10505400705E9007FB740AF07508FB750907780801
:105064001219F27C017903120B017402121785756F
:10507400D90675D9037582FB758307E0F5D9A3E5D5
:105084008264007004E583640870F075E195EE2491
:105094006FF582EF3400F583E0F8A3E0F9EE2471B4
:1050A400F582EF3400F583E8F0A3E9F0790180029A
:1050B40079000252EB74F61217DFEAFEEBFF9061FF
:1050C400D0E0706678019007FB740BF0900479E0EF
:1050D400640770197508FB75090778081219F27CC2
:1050E400017903120B0174021217857805740128E3
:1050F400F5D975D9037582FB758307E8FAE0F5D90C
:10510400A31AEA70F875E195EE246FF582EF340086
:10511400F583E0F8A3E0F9EE2471F582EF3400F5AD
:1051240083E8F0A3E9F07901800279000252EBF000
:10513400EEA2E092AF79007F010218B174F6121763
:10514400DFEAFEEBFF9061D0E0F87480C398FAEEDA
:105154002482F582EF3400F583E060047804800251
:105164007800E8240BF8EAC39850030252167D092C
:105174009007FB7408F0EE24E4F8EF3400F97AFCAD
:105184007B077C0888828983E08A828B83F088820B
:105194008983A3A882A9838A828B83A3AA82AB83EF
:1051A4001CEC70E0EE2482F582EF3400F583E060BD
:1051B4001D7508FB75090778081219F27C09790333
:1051C400EEFAEFFB120B0174021217857D0D7401C8
:1051D4002DF5D975D9037582FB7583078D08E0F524
:1051E400D9A31508E50870F675E1957904120C51F8
:1051F400EE246FF582EF3400F583E0F8A3E0F9EED6
:105204002471F582EF3400F583E8F0A3E9F0790125
:10521400800279000252EB74F61217DFEAFEEBFF0C
:105224009061D0E0F87480C398FAEE2482F582EF9E
:105234003400F583E06004780480027800E82408F0
:10524400F8EAC39850030252E978069007FB740CFD
:10525400F0900496E09007FCF0900497E09007FD2E
:10526400F0900498E09007FEF0900499E09007FF16
:10527400F090049AE0900800F0EE2482F582EF3476
:1052840000F583E0601B7508FB750907780812199F
:10529400F27C067903EEFA120B0174021217857878
:1052A4000A740128F5D975D9037582FB75830788BB
:1052B40008E0F5D9A31508E50870F675E1957904B9
:1052C400120C51EE246FF582EF3400F583E0F8A35D
:1052D400E0F9EE2471F582EF3400F583E8F0A3E9F8
:1052E400F07901800279007F020218B174F6121776
:1052F400DFEAFEEBFF9061D0E0F87480C398FAEE29
:105304002482F582EF3400F583E06004780480029F
:105314007800E82404F8EAC39850030253CA7802D8
:105324009007FBE8F0EE24F6F582EF3400F583E015
:105334009007FCF0EE2482F582EF3400F583E06000
:105344001B7508FB75090778081219F27C027903AA
:10535400EEFA120B0174021217857806740128F50F
:10536400D975D9037582FB7583078808E0F5D9A33D
:105374001508E50870F675E195EE2473F582EF34AF
:1053840000F583E4F0EE247FF582EF3400F583E446
:10539400F0EE241DF582EF3400F583E4F0A3F079F8
:1053A40004120C51EE240DF582EF3400F583E0F87D
:1053B400A3E0F9EE2471F582EF3400F583E8F0A35D
:1053C400E9F07901800279000252EB74F61217DFDA
:1053D4009061D0E0F87480C398FCEA2482F582EBF3
:1053E4003400F583E06004780480027800E8240443
:1053F400F8ECC398405B79029007FB7407F0EA2449
:10540400F7F582EB3400F583E09007FCF0EA2482A0
:10541400F582EB3400F583E060187508FB75090725
:1054240078081219F27C0209120B01740212178512
:105434007906740129F5D975D9037582FB7583073B
:10544400E9F8E0F5D9A318E870F875E195790180D9
:105454000279000252EB74F51217DFE9FCA2AFE403
:1054640033F50AC2AF7D0080010DEA246EF582EBAC
:105474003400F583E0F8EDC398501A8D08EA250846
:10548400F8EB3400F9E8246AF582E93400F583E0A6
:105494006C70D68024EA246EF8EB3400F9E0FEEA5E
:1054A4002EFAEB3400FBEA246AF582EB3400F58330
:1054B400ECF088828983E004F0E50AA2E092AF7FF1
:1054C400030218B174F61217DFA2AFE433FDC2AFC2
:1054D400EA246EF582EB3400F583E014F07C00607E
:1054E400368C08EA2508F8EB3400F9E8246BF582D9
:1054F400E93400F583E0C0E0E8246AF582E9340089
:10550400F583D0E0F00CEA246EF582EB3400F583E9
:10551400E0F8ECC39840CAEA246DF582EB3400F558
:105524008374FFF0EA2469F582EB3400F583E4F038
:10553400EDA2E092AF0252EBC082C083E5A8F8C2AC
:10554400AFEA246AF582EB3400F583E9F0EA2469D2
:10555400F582EB3400F583E4F0E8A2E7A2E792AF2A
:1055640002477874F31217DFEAFEEBFFECFAEDFB67
:105574008A828B83A3A3A3A3E0541FF0EE2436F501
:1055840082EF3400F583E4F0F50AEEFCEFFD8A8245
:105594008B83E0C0E0EC245DF582ED3400F583D02C
:1055A400E0F0750B00E50A33333354F8F50C8A82C6
:1055B4008B83E0F508750900E50B780812173DE5C3
:1055C40008A2E0502FEE2436F8EF3400F9888289DF
:1055D40083E0F508EE2508F508EF3400F509E50841
:1055E4002438F582E5093400F583E50CF0888289D6
:1055F40083E004F0050B050CE50BC3940840AF05EC
:105604000A8A828B83A3AA82AB838C828D83A3AC08
:1056140082AD83E50AC3940550030255927F0502C7
:1056240018B174F71217DF9004A5E0640370030245
:10563400590C7C0078A5790488828983A3A3A3A349
:10564400A3A3E060030258FAECF875F005A4C8AA15
:10565400F02AF974A928FA740439FB8A828B83A38B
:10566400A37401F08A828B83A3A3A3E4F0EC8A825F
:105674008B83A3A3A3A3F0EA2462F582EB3400F5A1
:10568400837401F0EA2467F582EB3400F583740136
:10569400F08A828B83A3A3A3A3A3E4F0A3F08A825A
:1056A4008B83A3A3A3A3A3A3A3F0A3F0EA240FF5DE
:1056B40082EB3400F5837401F0EA2435F582EB348F
:1056C40000F583E4F0EA2418F582EB3400F583E472
:1056D400F0A3F0A3F0A3F0EA241CF582EB3400F568
:1056E40083E4F0EA241DF582EB3400F583E4F0A3AF
:1056F400F0EA247FF582EB3400F583E4F0EA2473C6
:10570400F582EB3400F583E4F0EA2468F582EB34A7
:1057140000F5837480F0EA2469F582EB3400F583A4
:10572400E4F0EA246EF582EB3400F583E4F0EA2435
:10573400ECF582EB3400F583E4F0EA24EDF582EB3A
:105744003400F583E4F0EA24EEF582EB3400F583CB
:10575400E4F0EA24EFF582EB3400F583E4F0EA2484
:10576400F0F582EB3400F583E4F0A3F0EA24F2F5DB
:1057740082EB3400F583E4F0A3F0EA24F5F582EB40
:105784003400F583E4F0EA2482F582EB3400F583F7
:10579400E4F0EA24D2F582EB3400F583E4F0EA2461
:1057A400D3F582EB3400F583E4F0EA24D4F582EBFC
:1057B4003400F583E4F0A3F0A3F0A3F0EA24D8F5D1
:1057C40082EB3400F583E4F0A3F0A3F0A3F0EA2421
:1057D400DEF582EB3400F583E4F0EA24E0F582EBB5
:1057E4003400F583E4F0EA24DCF582EB3400F5833D
:1057F400E4F0EA24E1F582EB3400F583E4F0EA24F2
:10580400E2F582EB3400F583E4F0EA24F8F582EB68
:105814003400F583E4F0A3F0EA24FAF582EB3400D3
:10582400F583E4F0A3F0EA24FCF582EB3400F5837D
:10583400E4F0A3F0EA24FEF582EB3400F583E4F00F
:10584400A3F0EAF8EBF9E82404FCE93400FDE824C9
:105854006AF582E93400F58374FFF088828983A3B2
:10586400A882A983EC687002ED6970E2EAF8EBF9AA
:105874007CBF7D078C828D83E0C0E0E8245DF582E7
:10588400E93400F583D0E0F08C828D83A3AC82AD43
:105894008388828983A3A882A983EC64C47003EDFE
:1058A400640770D0EAF8EBF97C8C7D048C828D83DC
:1058B400A3E0C0E0E824E4F582E93400F583D0E015
:1058C400F08C828D83A3AC82AD8388828983A3A864
:1058D40082A983EC64947003ED640470CF9004A5F2
:1058E400E004F0640170258A828B83A3A3A3A3E060
:1058F4009004A7F080160CE82405F8E93401F9ECCB
:10590400C39403500302563C7A007B0002513BC00F
:1059140082C0838A828B83A3A3A3E0600F8A828BD5
:1059240083A3A3A3E4F09004A6E014F09004A5E0FC
:1059340014F070069004A774FFF08A828B83A3A3EB
:10594400E4F09007C4E0700D9004A6E064017005D3
:105954007900120C1B024778C082C08378A57904B1
:1059640088828983A3A3A3A3A3A3A3E4F088828941
:1059740083A3A3A3A3A3A3F0E82405F8E93401F9BE
:10598400E864B47003E9640770D69004A5E4F0A356
:10599400F0A374FFF075E1F102477874F51217DF94
:1059A400750800750900750A007EA97F048E828F30
:1059B40083A3A3A3E0603DE5084509602F85088221
:1059C400850983E0F8A3E0F5838882A3A3121A056E
:1059D4008E828F83E0F8A3E0F5838882A3A3121656
:1059E400451223637404121785E97008EEF8EFF981
:1059F40088088909050AEE2405FEEF3401FFE50A4B
:105A0400C3940340A8850882850983A3A3A3A3E0C4
:105A1400F90254C374F71217DF78FF79FF7E007C14
:105A2400A97D048C828D83A3A3A3E0606274FF68C4
:105A3400700374FF697011EC2473F582ED3400F582
:105A440083E06401703A8021EC2473F582ED340024
:105A5400F583E064017017EC2479F582ED3400F5E8
:105A640083C3E098A3E0995026EC24798015EC24B4
:105A74002EF582ED3400F583C3E098A3E099500F2E
:105A8400EC242EF582ED3400F583E0F8A3E0F90E62
:105A9400EC2405FCED3401FDEEC394034085C3EA18
:105AA40098EB994004E8FAE9FB02513B74F61217AB
:105AB400DFEAFEEBFFEE2463F582EF3400F583E0CA
:105AC400F8A3E0F9E8497003025B55EE2463F8EFAC
:105AD4003400F97A007B00A2AFE433F508C2AF8842
:105AE400828983E0FCA3E0FDEC4D603A88828983DF
:105AF400E0FAA3E0FB8A828B83E0FCA3E0FD8882CA
:105B04008983ECF0A3EDF08A828B83E4F0A3F08820
:105B1400828983E0FCA3E0FDEC4D700A88828983CE
:105B2400A3A3E4F0A3F0E508A2E092AF1212D5908B
