:020000040000FA
:06000000020107022A5F65
:03002B00022CE7BD
:03003300022CC9D3
:03003B00022D088B
:03004300022C7D0F
:03005300022AD2AC
:03006B00022CA3C1
:100083000228CBE5C754F84401F5C77901220000E3
:100093000080FB120086B900030200F1E4791A78AC
:1000A30002B800028004F709D8FCE4791C7802B88E
:1000B30000028004F709D8FCE490028178267910C5
:1000C3008002F0A3D8FCD9FA7AA67B119001377885
:1000D3003079028015E493A3AD82AE838A828B8349
:1000E300F0A3AA82AB838D828E83D8E9D9E7758288
:1000F300E77583FC7403120119758291758300748B
:100103000012011975D00075813F751881751902A8
:10011300759F00020096C09FF59FE473D09F22D085
:1001230083D082C09FE493C0E0740193C0E0740263
:1001330093F59F22F20304042E04F803FF0000B496
:10014300000028002800283075A000A000A000A00F
:100153000000080008E001F000100010001000107B
:10016300001000100050005000500010001000D08C
:10017300070000000000000F0001000500307507B4
:10018300001000010081FF00000000FF0202021EB8
:10019300870100000987021487010000FE1102266F
:1001A30087010000B202021487010000FF11021848
:1001B30087010000C802FFFF0100FF20021E870124
:1001C30000000C870214870100002D120220870013
:1001D30000000000021287030000A5035A0B5A0B0C
:1001E3005A0B5A0B5A0B5A0B5A0B5A0B5A0B5A0BE4
:1001F3005A0B5A0B5A0B2E0D4C0D280DFFFF01E81D
:1002030003053F10020AFA000500FF00FEFF30312C
:100213003233343536373839414243444546002872
:100223006E756C6C20706F696E7465722900303165
:100233003233343536373839616263646566003F7B
:100243003F3F000000807F0000803F00000000F976
:10025300021550B743BA510000204100E7DB2E00DE
:1002630000A04012012228F7031201223EF70312D5
:1002730001226DF703120122A3F703120122BAF739
:1002830003120122D1F70312012208F803120122FB
:100293005BF80312012272F803120122BBED031271
:1002A3000122D2ED0312012203EE031201223EEEDC
:1002B3000312012268EE0312012292EE03120122BD
:1002C300A9EE03120122C0EE03120122D7EE03129C
:1002D300012200EF0312012213EF0312012229EF7F
:1002E3000312012253EF03120122D2C6021201228A
:1002F300D6C70212012203C80212012259C80212F0
:1003030001227CC80212012290C80212012292C863
:1003130002120122B5C802120122C4C9021201222B
:1003230088CA021201225DCB02120122CECB021235
:1003330001225ACC021201225DCC02120122E5CC29
:100343000212012220CD0212012287CD02120122C4
:100353008ACD02120122C1CD02120122EACD02127C
:10036300012295CE021201221FCF021201226ECF6B
:10037300021201227BCF021201227ECF021201223E
:10038300DECF02120122E9CF0212012268D002124B
:1003930001226BD0021201227ED00212012281D0EF
:1003A3000212012210D1021201222AD102120122C9
:1003B3003AD1021201226AD10212012277D102122A
:1003C30001227AD102120122FBD102120122E9D2C7
:1003D300021201229BD3021201225EE902120122C0
:1003E30056EA021201228AEA021201220CEB0212DD
:1003F30001222CEB0212012274EB02120122C7EB41
:10040300021201222BEC02120122B8EC0212012289
:1004130072ED0212012281F0021201220CF2021289
:1004230001222FF2021201223AC903120122D7CA72
:10043300031201223BCB031201229ACB03120122A6
:10044300A8CB03120122D1CB03120122B7AD0312B1
:100453000122DFAD031201220DAE0312012244AECD
:1004630003120122A2AE03120122EDAE03120122F6
:1004730038AF0312012278AF03120122BEAF031279
:100483000122ECAF03120122A9B003120122B3B07F
:1004930003120122C0B003120122F3B0031201229E
:1004A300BFB103120122CBB103120122E3B1031244
:1004B3000122EDB1031201226BB203120122F8FBF8
:1004C3000312012206FC031201221EFC0312012265
:1004D30036FC031201224EFC03120122548E021237
:1004E3000122008F021201227B8F021201229C90B3
:1004F30002120122D89002120122819102120122DA
:10050300689202120122CC93021201222394021256
:100513000122A49402120122949502120122E19570
:1005230002120122679602120122999602120122F7
:10053300AD9802120122EF98021201220D990212C4
:100543000122AF9902120122779A02120122849C9E
:100553000212012280D00312012296D0031201223B
:10056300BCD003120122D8D103120122E2D103121B
:10057300012217D3031201220FD40312012250FBCD
:1005830002120122F4FB0212012227FC02120122B1
:1005930071FC0212012234FE02120122B1B50112D2
:1005A30001222AB6011201223AB60112012228B70A
:1005B3000112012232B70112012257B7011201229F
:1005C30062B7011201224CB801120122AFB8011225
:1005D300012265B9011201224CBB0112012205BDA2
:1005E30001120122E1BD0112012295BE0112012275
:1005F300D2C10112012280C201120122EFC30112F2
:1006030001226FC50112012216C6011201225FC623
:100613000112012296C60112012233C701120122DF
:10062300BEC701120122FED80112012253D90112C1
:100633000122B2DA01120122C2DA01120122EFDA37
:100643000112012246DB01120122EFDB011201221A
:10065300F6DC01120122C0DD0112012220DF0112AA
:10066300012263DF0112012208E0011201222EE0C0
:10067300011201223CE20112012241E20112012294
:1006830046E40112012293E40112012206E501125C
:10069300012239E501120122DBE50112012284E680
:1006A30001120122BCE601120122BFE6011201225E
:1006B30007E70112012249E701120122A0E7011213
:1006C300012260E10312012273E10312012281E19D
:1006D30003120122C9E103120122DFE10312012205
:1006E30026E2031201223AE303120122C7E30312B3
:1006F300012212E4031201222C87011201223C87FA
:10070300011201229F8701120122E48701120122B3
:100713009A88011201227589011201229E89011210
:100723000122CE89011201220E8C01120122F58DC4
:1007330001120122CD8F0112012211910112012216
:10074300789301120122869401120122D895011295
:100753000122E296011201222497011201225C97E1
:10076300011201227E9701120122E1970112012257
:10077300A39C01120122389D011201228C9D0112BA
:100783000122B39D01120122F19D01120122109E4B
:10079300011201226A9E011201226A9F01120122A3
:1007A300EF9F01120122589C03120122629C031243
:1007B30001220A9D031201224D9D03120122689D0D
:1007C30003120122F89D03120122209E031201222B
:1007D300589E031201228F9E03120122B89E031218
:1007E3000122F29E03120122079F03120122D49FCA
:1007F30003120122F79F0312012219A003120122FF
:100803002EA003120122B4A003120122EEA00312B0
:10081300012266A103120122AFA103120122D9A171
:100823000312012204A203120122DCF903120122A2
:100833009D9C02120122CB9C02120122269E0212CF
:100843000122069F02120122259F02120122A29F6A
:1008530002120122E59F0212012260A1021201226B
:10086300CFA102120122FAA3021201227EA60212D2
:1008730001222FA70212012225A802120122C5A8D4
:1008830002120122C3A9021201224EAA021201225C
:1008930089F803120122F2F80312012246F9031226
:1008A300012275F90312012296F9031201220DB8F0
:1008B300031201227AB803120122C1B803120122E2
:1008C300D9B903120122D5BA03120122B8BB03120C
:1008D3000122418F03120122838F031201225C90B4
:1008E30003120122569103120122389203120122AC
:1008F300A19203120122BD93031201222994031230
:1009030001222C9403120122559403120122CF9445
:100913000312012274950312012289950312012205
:10092300CF9503120122E89503120122EB950312DE
:10093300012219D40312012255D40312012293D4A4
:10094300031201225DD503120122CCD50312012229
:1009530007D60312012245D60312012275D60312CC
:1009630001229CD6031201220AD7031201224CD77B
:1009730003120122336800120122526A001201227B
:10098300356C00120122716C001201229E6C001260
:100993000122656D00120122B06D00120122FB6D70
:1009A300001201220D6E001201224D6E001201226F
:1009B300816E00120122CF6E00120122006F00121D
:1009C3000122236F00120122AA6F001201229270EA
:1009D300001201227F71001201227872001201229B
:1009E300877400120122297A00120122797A0012F7
:1009F3000122F07C00120122C1E90312012276EBED
:100A0300031201225C4B001201220B4C0012012243
:100A1300554C001201228B4D00120122214F00126E
:100A23000122964F00120122D74F001201222950B2
:100A3300001201229A5100120122DF5300120122F7
:100A4300D95400120122F854001201221755001242
:100A530001221A55001201224B560012012243575C
:100A6300001201222F58001201229F580012012266
:100A7300115900120122985900120122735A0012CF
:100A83000122485B00120122275C00120122B25CA2
:100A930000120122205D00120122945D0012012246
:100AA300BF5D001201227E5E001201226B61001203
:100AB3000122B46100120122F76100120122706267
:100AC30000120122086300120122F96300120122BD
:100AD3001E64001201226464001201228E6400125B
:100AE3000122D66400120122516500120122AB6576
:100AF30000120122146700120122C26700120122B0
:100B0300036800120122FEB8021201224CB902123C
:100B1300012258B90212012236BA0212012267BA1F
:100B23000212012298BA0212012218BB02120122F8
:100B330050BB02120122A2BB02120122DFBB02122E
:100B43000122FCBD0212012222C0021201220DC2A7
:100B530002120122F7C302120122712D0012012297
:100B63002CA20312012277A603120122BBA70312B0
:100B73000122008002120122B88202120122BE82E7
:100B830002120122788502120122458802120122F3
:100B9300F3B20312012297B30312012269B40312C1
:100BA300012293B403120122E1B6031201227C2D28
:100BB30000120122C62D00120122073C001201225D
:100BC3008C3D00120122AF3E00120122204500128B
:100BD30001221B46001201225846001201227B46C5
:100BE30000120122BD4600120122C7460012012253
:100BF300B54700120122AB480012012244490012FA
:100C03000122FCDA03120122F6DB031201226ADC61
:100C130003120122A8DC031201221CDD03120122AC
:100C230095DD031201229EDD03120122AADD0312C8
:100C33000122BFDD03120122FDDD0312012213DEB7
:100C4300031201220F96031201221C9603120122A2
:100C5300369603120122759603120122B3960312EC
:100C630001221897031201222D97031201224497A0
:100C730003120122529703120122619703120122E8
:100C83007697031201228B97031201229697031280
:100C93000122A29703120122AF9703120122BE97EA
:100CA30003120122C99703120122EE9703120122B4
:100CB300959803120122AA9803120122BF980312E6
:100CC3000122D99803120122F498031201221199E7
:100CD300031201221C9903120122D8990312012243
:100CE300C49A03120122E99A03120122F49A03120D
:100CF3000122099B031201221D9B031201227E9BE9
:100D030003120122849B031201228A9B03120122F4
:100D1300909B03120122A89B03120122DB9B031267
:100D2300012208DF021201222ADF021201220AE055
:100D330002120122E1E2021201220DE40212012257
:100D430031E502120122E3E50212012284E60212D6
:100D53000122D4AA0212012258AB0212012207ACCB
:100D63000212012266AD0212012287AF0212012292
:100D730073B002120122A8B002120122CAB00212F9
:100D8300012279B10212012271B3021201229AB334
:100D9300021201222CB4021201225EB402120122B9
:100DA3006BB402120122C2B402120122E8B402128D
:100DB300012255B70212012258B802120122B0B81B
:100DC300021201228DE80112012297E90112012288
:100DD3007EEA0112012288EA01120122AAEA011223
:100DE3000122B6EA011201224FEC011201227EEC2C
:100DF300011201229AED01120122F3ED01120122E7
:100E030059EF0112012238F00112012294F001126C
:100E1300012201F1011201223CF1011201227BF1B5
:100E23000112012234F4011201224EF401120122B3
:100E3300DAF401120122E8F40112012241F5011250
:100E430001224FF501120122C2F50112012226F6F9
:100E53000112012270F60112012265EF0312012231
:100E63008AEF03120122FCEF03120122F58703121A
:100E73000122FE8703120122078803120122DE8862
:100E8300031201228F8A03120122C58A031201224F
:100E9300FF8A03120122358B031201226F8B031287
:100EA3000122A38B03120122CF8B03120122188C80
:100EB30003120122528C031201229B8C0312012282
:100EC300F38C03120122288D03120122838D031256
:100ED3000122BD8D031201220E8E03120122448EC4
:100EE300031201227E8E03120122A18E031201221C
:100EF30048FF0312012274FF03120122CFFF0312E2
:100F03000122D9FF03120122E9FF0312012200800B
:100F1300031201220A8003120122488003120122D4
:100F2300918003120122CB8003120122218103123B
:100F33000122428103120122C78303120122D083BB
:100F4300031201221B84031201224484031201228F
:100F53004E8403120122BA84031201225085031224
:100F630001229A8503120122CA85031201225386A4
:100F730003120122938603120122CB86031201225C
:100F8300DD8603120122FC86031201220587031268
:100F93000122CB8703120122097F00120122CCEB2D
:100FA3000312012202EC0312012238EC0312012284
:100FB30081ED03120122D88104120122EE81041271
:100FC3000122F8810412012219C5031201222EC540
:100FD30003120122E1C50312012221C603120122D9
:100FE3003AC6031201226EC603120122BBC60312C4
:100FF3000122EFC60312012231C7031201222DC9B8
:1010030003120122A28204120122A7F20312012277
:10101300D0F203120122F9F20312012294F3031214
:101023000122ACF303120122EEF303120122C5FDE8
:1010330003120122FDFD031201222FFE03120122DE
:101043005BFE0312012243DE0312012275DE03124B
:10105300012283DF031201223EE00312012250E04A
:101063000312012258E0031201227FE0031201223E
:1010730005E1031201220EE103120122F9F6011226
:1010830001226FF7011201220CF80112012291F8DB
:10109300011201227ABC03120122E4BC03120122D1
:1010A3000ABF031201220080041201222F800412BE
:1010B30001223C80041201228B8004120122A280AF
:1010C30004120122FEA7031201223DA803120122EA
:1010D300C6A803120122DBA80312012226A90312C8
:1010E30001225AA90312012299A903120122A8A9D4
:1010F300031201225AAA03120122B3AA03120122E4
:1011030002AB0312012258AB031201224DAC0312AE
:10111300012242AD031201227FAD03120122ABF57E
:101123000312012242820412012256A0011201225B
:10113300D6A20112012249A40112012246A50112DD
:101143000122CFA50112012253A60112012278A682
:1011530001120122C8A6011201225DAA0112012275
:10116300D1AA01120122BDAB01120122F7AB011278
:10117300012237AC01120122E2AD0112012213AEAA
:101183000112012266AE01120122AFAE0112012249
:101193001DAF011201224FAF0112012267AF0112ED
:1011A30001227CB0011201228CB001120122AAB1EA
:1011B30001120122CCB10112012202B20112012259
:1011C300ABB30112012224B40112012263B4011250
:1011D30001227AB50112012292FE03120122A3FE1B
:1011E3000312012256830412012295830412012261
:1011F300618404120122A58004120122B580041225
:101203000122D08004120122388104120122F3FE4C
:101213000112012278FF01120122DEFF01120122D5
:1012230033F4031201225CF403120122C7F4031204
:10123300012218F50312012271F503120122E6C0FF
:10124300031201221DC1031201228DC103120122C7
:10125300A2C103120122B8C2031201223AC303122C
:10126300012200C4031201221FC40312012246C437
:10127300031201227BC40312012293C4031201222D
:10128300E4C403120122E5CC03120122F6CC0312BB
:10129300012273CD0312012248CE031201221AD078
:1012A3000312012200E70312012290E70312012235
:1012B3000EE803120122A3E8031201222DE903120F
:1012C300012237E9031201224BE9031201225EE9ED
:1012D30003120122BEE90312012294D70312012251
:1012E300AFD703120122DED7031201220DD8031256
:1012F300012239D80312012282D803120122D3D842
:101303000312012214D90312012253D90312012219
:101313009FD90312012204DA0312012258DA0312BD
:101323000122F5FA0312012266FB0312012284FB58
:10133300031201220AF1031201225AF103120122BC
:10134300E3F10312012249F2031201223CE40312E6
:10135300012266E4031201222CE50312012207E6AF
:10136300031201228EE6031201225AF30212012212
:1013730017F40212012252F4021201227AF4021229
:101383000122DCF40212012228F50212012288F55F
:10139300021201221BF6021201221AF70212012283
:1013A300A9F8021201222CF90212012293F9021266
:1013B3000122AAF902120122B4FA02120122F2FA5C
:1013C300021201220CD4021201220FD502120122B1
:1013D3008BD602120122C4D8021201228FD9021223
:1013E3000122B2D902120122E7DB0212012239DC07
:1013F30002120122CDDC02120122F6DD02120122C9
:1014030093DE02120122F7FF011201229BC801128F
:101413000122ABCD011201229F8304120122D1FFCD
:1014230002120122018304120122128304120122F7
:101433004281041201226C8104120122E583041209
:1014430001221B8404120122438404000022E76664
:1014530070100809E766700A0809E766700408094E
:10146300E76622E066701008A3E066700A08A3E04E
:1014730066700408A3E06622C008C3E096F5080876
:10148300A3E096420808A3E096420808A3E0964228
:1014930008A2D265D033E5087001D3D00822C3E790
:1014A300960809E7960809E7960809E79622C3E034
:1014B3009608A3E09608A3E09608A3E09622C00846
:1014C300C3E096F50808A3E096420808A3E0964215
:1014D3000808A3E09645087001D3D008220808083D
:1014E300E630E711121D9A1214F8080808C6448062
:1014F300C618181822181818E9799EC608CAC6080B
:10150300CBC608CCC6C370207996CACBCC701979E8
:101513008ECBCC70137986CC700EF9802ACA33CA6D
:10152300CB33CBCC33CC331930E7F2CCCBCA3350EB
:10153300147004EA30E00DE4CA3ACACB3BCBCC3C8E
:10154300CC500209C3E913C6CC182313C6CB18C663
:10155300CA18C6F92212159820F01430E72B74FF2D
:10156300FCFBFA747F8022E4FCFBFA7480801AB4DB
:101573008008BC00F2BB00EF800F50EBF9E4C39A84
:10158300FAE49BFBE49CFCE499C6CC18C6CB18C6D2
:10159300CA18C6F922E4C9C608CAC608CBC6D333DB
:1015A3000308CCC63392F0C3947F402E941840199D
:1015B300C9B90704CACBCC225025C309CA33CACB45
:1015C30033CBCC33CC33D9F422F4600DC9CCC31361
:1015D300CB13CBCA13CAD9F6CC22E4FCFBFA2214F0
:1015E300FCFBFA22E62618461846184622E7271976
:1015F300471947194722181818E60846087009E6DC
:1016030026087005E633F4220822191919E7094759
:10161300097009E727097005E733F4220922E60870
:101623004608C3134608336002E633F422E709474A
:1016330009C3134709336002E733F422121621600A
:101643002512163060201215E770030215F0080802
:1016530008E76670101819E766700A1819E76670CC
:10166300041819E76622F422121621601C121630A0
:1016730060171215E770071215F07001D322C0D05E
:101683001215F07006D0D0B322C32233D0D0501439
:1016930030E0F6C3E7960809E7960809E7960809D4
:1016A300E796B32220E0D5E6970809E6970809E60E
:1016B300970809E697B322121621601B12163060B1
:1016C300161215E770071215F0600CB322C0D01282
:1016D30015F07005D0D022C32233D0D0501330E0A0
:1016E300EBC3E7960809E7960809E7960809E79622
:1016F3002220E0E4E6970809E6970809E697080937
:10170300E6972200121621604F1216306012E7543A
:101713008066F61215F970111215F0703B0909096C
:10172300F4F618F618F618F62212160D701512159F
:10173300E708080860EAE6447FF618768018E4F6BE
:1017430018F6221215E760161215F07012E4F60867
:10175300F608F608E65480F609090918181822EA6B
:10176300C0E0EBC0E0ECC0E0EDC0E0E687F0A4FB36
:10177300ACF008E687F0A42CFCE435F0FA1809E68F
:1017830087F0A42C4B60027401CA35F0FCE433FBF0
:1017930009E687F0D2F7A42CCB35F0FC1908E687CD
:1017A300F0A42BCC35F0FBE433FD0819E687F0D227
:1017B300E7A42C4ACB35F0CD3400FC09E687F0D200
:1017C300E7A42DCC35F0FDE433FA0918E687F0D20F
:1017D300F7A42CCD35F0CA3400FC08E687F0D2E735
:1017E300D2F7A42ACC35F07A7E20E70B0ACB33CB91
:1017F300CD33CDCC33CC33CB3350147004ED30E048
:101803000ED2F1E4CD3DCDCC3CCC3B5005DA05C244
:10181300F1EB547FC63308E63392F0FBE73309E775
:1018230033C39A502D2B70190C0D4C4D701518069F
:10183300E608C333700D20F10AA2F013F6E4188012
:101843000B4024E4F630F002768018F618F618F60A
:101853008024D33B14501074FFA2F013F618768043
:10186300E418F618F6800FA2F013F618E63303F621
:1018730018ECF618EDF6D0E0FDD0E0FCD0E0FBD09C
:10188300E0FA221216306046121621603DE96870B4
:1018930008F618F618F618F622748067F71218BAC5
:1018A300090909748067F722121621601D12163088
:1018B3007005191919801A1215F9701F12160DC324
:1018C3007003E66733191919400718181822080816
:1018D3000874FFF618F618F618F62212160D60179C
:1018E3001215F0702192F01215E77019501720F0BD
:1018F30014080808090909E7F61819E7F61819E79B
:10190300F61819E7F6221215E760E6E869701F0872
:1019130008E62480F608E436F618547FB47F0CE614
:1019230054806007F6E418F618F622181822E9C660
:10193300CC08C6CD08C6CE08C6CFC0E0E8C0E0EAF2
:10194300C0E0EBC0E009E9F809E7FA09E7FBE6F9CB
:1019530018E6F8C3EC98ED99EE9AEBC2E7F5F0EFD1
:10196300C2E795F0500E600CEBCFFBEACEFAE9CD5F
:10197300F9E8CCF8EAA2E7D2E7FAEB33FB13F5F088
:10198300EEA2E7D2E7FEEF33FFC5F013A2E730E69E
:1019930001B313C5F0C3C0E0C0F07F00C39BFB607D
:1019A3005E9418600F401D14601AD0E023F9D0E054
:1019B300F8021A8C8AF0E9486003D2F0E4AFF0FA37
:1019C300F9F8803BEB30E40D89F0EA6003D2F0E4F0
:1019D300AFF0F9CAF8EB30E30D88F0EF6002D2F014
:1019E300AFF0E4CAC9F8EB54076014FBC3EA13FA77
:1019F300E913F9E813F8EF135002D2E0FFDBEDD05F
:101A0300E0C0E030E739C3E49FFFF5F0EC98FC4217
:101A1300F0ED99FD42F0EE9AFE42F0D0E0F9D0E00D
:101A2300F8E5F0607AE923F9EE20E742D80280670F
:101A3300C3EF33FFEC33FCED33FDEE33FE80EAEC12
:101A430028FCED39FDEE3AFED0E023F9D0E0F84072
:101A530002801BC3EE13FEED13FDEC13FCEF1350DA
:101A630002D2E0FF08B800067F7F74FF802EEF33B9
:101A730050178CF020F00260100CBC000C0DBD0060
:101A8300080EBE000408E860DFE933E813FFEE2325
:101A930013FE4F4D4C8008E95480FFE4FEFDFCEE3D
:101AA30033EF33F47004FCFD7E80D0E0FBD0E0FA2A
:101AB300D0E0F8D0E0CFC618CEC618CDC618CCC635
:101AC300F922121621700418181822121630700DFC
:101AD30074FFF61819F61819F61819F622E7548048
:101AE30066F61215E7700F1215F070F014F608F68B
:101AF30008F608F680D11215F0700CF608F6087691
:101B03008008E6447F80EC121610700C1215FC60FE
:101B1300BFE65480F6E480BB1215FC700519191951
:101B230080A5E869700C763F18768018F618F6E8F9
:101B3300F922E6CDC0E018ECC0E0E633CD33CDD3D7
:101B430013F6E719FCE7191933CC33C3947F400E1E
:101B5300CD9D502408E65480F6E418F6800FF40473
:101B63003D14501408E6447FF6187680E418F618FE
:101B7300F6D0E0FCD0E0FD22CCD313CCFD18E4C6B4
:101B8300CBC0E018E4C6CAC0E00808ED08C633E6D7
:101B930013F618E433C675F003C3CA97CA09CB9783
:101BA300CB199C40047D08802EBD0003021C6E16D9
:101BB300B6FF050606081618C3CA33CACB33CB33A0
:101BC300CA27CA09CB37CB193CC37D08803E187D91
:101BD3000820E75CC633C6CA33CACB33CB33DDF147
:101BE300D5F0EB30E77BCA97CA09CB974ACB199C50
:101BF300406F4B7025E620E0218066187D08C3CA3C
:101C030097CA09CB97CB199CD3C633C6CA33CACB61
:101C130033CB3350C9DDE7D5F0E1D3E4C636C6088C
:101C2300C636C608C636C608C636C6181818803162
:101C3300C3CA97CA09CB97CB199CB34097C633C67F
:101C4300CA33CACB33CB33DD34D5F02EC6A2E0C6BC
:101C530040C8CA27CA09CB37194A70BECB3CB480E7
:101C6300B90808E63308E633601F181818D0E0FAFD
:101C7300D0E0FBD0E0FCD0E0FD22187D08CA27CAE3
:101C830009CB37CB193CD3808013F618E4B67F1108
:101C9300F618B6FF0EF618C60470D20808768080D0
:101CA300CAF618F618F680C5080808EAC0E0EBC0C3
:101CB300E086F0E7A4FA180986F0E7A42AFA1809DF
:101CC30086F0E7A42AFA180986F0E7A42AFA198607
:101CD300F0E7A4FBE5F02AFA190886F0E7A42BFB4A
:101CE300E5F03AFA190886F0E7A42BFBE5F03AFA97
:101CF30018180986F0E7A4C5F02BFBE43AFA190893
:101D0300E7C5F0C6A426F6E5F03BFBE43AFA1886ED
:101D1300F0E7A4F6E5F00826F6E43B08F6E43A0813
:101D2300F6D0E0FBD0E0FA22E4CFC0E0E4CEC0E09E
:101D3300E4CDC0E0E4CCC0E075F020E626F608E68A
:101D430033F608E633F608E633F6181818EC33FCD6
:101D5300ED33FDEE33FEEF33FFC3EC9709ED970947
:101D6300EE9709EF97191919400FFFEC97FC09ED4E
:101D730097FD09EE97FE191906D5F0BFECF709EDAB
:101D8300F709EEF709EFF7191919D0E0FCD0E0FDD8
:101D9300D0E0FED0E0FF22181818E4C396F608E45A
:101DA30096F608E496F608E496F622601608080804
:101DB300C6C313C618C613C618C613C618C613C699
:101DC300D5E0EA227009080808226016181818C618
:101DD300C333C608C633C608C633C608C633C6D51A
:101DE300E0EA22E627F60809E637F60809E637F6B9
:101DF3000809E637F622E026F608A3E036F608A33C
:101E0300E036F608A3E036F622E026F008A3E03633
:101E1300F008A3E036F008A3E036F022C3E697F615
:101E23000809E697F60809E697F60809E697F62201
:101E3300C3E096F008A3E096F008A3E096F008A3A9
:101E4300E096F022E657F60809E657F60809E65742
:101E5300F60809E657F622E056F008A3E056F00824
:101E6300A3E056F008A3E056F022E667F60809E679
:101E730067F60809E667F60809E667F622E0F6085A
:101E8300A3E0F608A3E0F608A3E0F622E6F008A331
:101E9300E6F008A3E6F008A3E6F022E0FAA3E0FBED
:101EA300A3E0FCA3E0FD22EAF0A3EBF0A3ECF0A394
:101EB300EDF022E0F8A3E0F9A3E0FAA3E0FB22E8C7
:101EC300F0A3E9F0A3EAF0A3EBF022CAC0E0E6F046
:101ED300A308DAFAD0E0FA22CAC0E0E0A3C582CCB4
:101EE300C582C583CDC583F0A3C582CCC582C58316
:101EF300CDC583DAE6D0E0CA22C3E498F8E499F9C1
:101F0300121F3D8026C3E49AFAE49BFBE920E7E92C
:101F1300121F3DE498F8E499F922C3E498F8E49990
:101F2300F9121F3DE498F8E499F9C3E49AFAE49BA3
:101F3300FB22EB20E7CFE920E7E0B90010BB000864
:101F4300E88AF084F8AAF022E4FBC8FA22EB7022B4
:101F53007B10C833C8C933C9335007C39AC3DBF2F4
:101F630080069A50012ADBEAC833F4C8C933F4C99E
:101F7300FA2275F008E4C833C8C933C933C99AC90A
:101F83009B5004C92AC93BD5F0ECFBC833F4C8E421
:101F9300C9FA22600D08C6A2E713C618C613C6D530
:101FA300E0F322600C08C6C313C618C613C6D5E0F7
:101FB300F422700422600D18C6C333C608C633C6A4
:101FC300D5E0F41822251810AF08F518400C1519A0
:101FD3008008F51840021519D2AF2200C0D0251889
:101FE30010AF08F518500C05198008F518500205B4
:101FF30019D2AFD0D0222518F58210AF08F51840BA
:102003000C15198008F51840021519D2AF851983EC
:10201300222518F582E43519F583222518F8E435CD
:1020230019F9222518FAE43519FB222518FCE435A1
:1020330019FD22E4732518C582C0E0E51934FFC5F4
:1020430083C0E0E518C3958224F810AF088583198F
:102053008582188008858319858218D2AFCEF0A3B4
:10206300E520F0A37808E608F0A3DEFAEFF0A3E595
:102073008124FAF8E608F0A3E608F0A3E608F0A343
:102083000808E608F0A3E608F0A315811581D0E05F
:10209300FED0E0F8158115811581E8C0E0EEC0E0BF
:1020A300222518C582C0E0E51934FFC583C0E0E5E9
:1020B30018C3958224F910AF088583198582188087
:1020C30008858319858218D2AFCEF0A3E520F0A34B
:1020D3007808E608F0A3DEFAEFF0A3E58124FBF825
:1020E300E608F0A3E608F0A30808E608F0A3E6086C
:1020F300F0A315811581D0E0FED0E0F8158115819C
:10210300E8C0E0EEC0E022851983851882E0A3FED3
:10211300E0A3F5207808E0A3F608DFFAE0A3FFE0E8
:10212300A3C0E0E0A3C0E0E0A3C0E0E0A3C0E0E020
:10213300A3C0E010AF0885821885831980088582C3
:1021430018858319D2AFD083D08202011F851983EA
:10215300851882E0A3FEE0A3F5207808E0A3F60843
:10216300DFFAE0A3FFE0A3C0E0E0A3C0E0E0A3C088
:10217300E0E0A3C0E010AF088582188583198008CA
:10218300858218858319D2AFD083D08222C0D0250F
:1021930018C582C0E0E51934FFC583C0E0E518C364
:1021A300958224F310AF08858319858218800885EA
:1021B3008319858218D2AFC8F0A3E9F0A3EAF0A38C
:1021C300EBF0A37908E709F0A3D8FAECF0A3EDF05C
:1021D300A3EEF0A3EFF0A3D0E0F0A3D0E0F0A3D000
:1021E300E0F0A3E520F0A3E5F0F0A32285198385B1
:1021F3001882E0C0E0A3E0F9A3E0FAA3E0FBA37830
:1022030008E0F608A3DFFAE0FCA3E0FDA3E0FEA3E9
:10221300E0FFA3E0C0E0A3E0C0E0A3E0F5D0A3E0CB
:10222300F520A3E0A3F5F010AF0885831985821884
:102233008008858319858218D2AFD082D083D0E0FD
:10224300F8D0E03274048006740280027401C0E0A6
:10225300F404121FF9D0E0121ECE22740480047419
:10226300028000CCC0E0EDC0E0E518C39CCCAD1902
:1022730050011D10AF068C188D1980068C188D190E
:10228300D2AF121EDBD0E0FDD0E0FC22D083D0829F
:10229300E9C0E0E493A3C386F0C5F095F0F908E440
:1022A30093A386F0C5F095F0700BE493A3C3994014
:1022B30005E9048002A3E475F002A42582F582E512
:1022C300F03583F583D0E0F9E493A3C0E0E493C051
:1022D300E022D083D082ECC0E0EDC0E0E493A3FC25
:1022E300E493A3FDED4C600D122321EC24FFFCEDE0
:1022F30034FFFD80EFE493A3FCE493A3FDED4C6076
:102303000D122360EC24FFFCED34FFFD80EFD0E0E1
:10231300FDD0E0FCE493A3C0E0E493C0E022C0E07E
:10232300C3E49396087401939618400FE493667080
:102333000808740193661870007019A3A3C3E4938B
:1023430096087401939618A3A3400DD0E0D0E0D073
:10235300E0022311A3A3A3A3A3A3D0E022C0E0C060
:10236300F088F0E4936670080874019366187000AF
:10237300A8F0A3A3700BD0F0D0E0D0E0D0E002230C
:0823830011A3A3D0F0D0E02269
:10238C0074F51220A4EAFEEBFFEE2434F8EF3400CF
:10239C00F988088909EE2435F582EF3400F583E0DD
:1023AC00F8EE2437F582EF3400F583E0F50AEC857E
:1023BC000AF0A4FCAAF0850AF0EDA42AFDE82CF89A
:1023CC00E43DF97A257B00121F3DEA8508828509D8
:1023DC0083F0F8740758F97401B900028004C33310
:1023EC00D9FCFAE8131313541FF8EE28F8EF340055
:1023FC00F9E8245DF582E93400F583E05A6008EED3
:10240C002434F582EF802CEE2434F582EF3400F581
:10241C0083E0C0E0EE2436F582EF3400F583E0F57E
:10242C00F0D0E084A8F0EE28F8EF3400F9E8243876
:10243C00F582E93400F583E0F97F0402215074F54C
:10244C001220A4EAFEEBFFEE2434F582EF3400F503
:10245C0083E0C0E0EE2435F582EF3400F583D0E064
:10246C00F08E828F83A3A3A3A3A3A3A3C082C08354
:10247C008E828F83A3A3A3A3A3E0F8A3E0F9D08358
:10248C00D082E0C398F508A3E099F509EE247FF516
:10249C0082EF3400F583E064017069EE2480F582EC
:1024AC00EF3400F583E0F8A3E0F98E828F83A3A3C9
:1024BC00A3A3A3A3A3E0FCA3E0FD8E828F83A3A31D
:1024CC00A3A3A3E0FAA3E0FBC3EA9CEB9D5010C3CB
:1024DC00EC98ED99402EC3EA98EB995027800EC3E7
:1024EC00EA98EB994007C3EC98ED9940177CBF7DB7
:1024FC0007EEFAEFFB120AA0EE247FF582EF340010
:10250C00F583E4F0EE2434F8EF3400F9E8FCE9FD4F
:10251C00EE2435F582EF3400F583E0F8EE2437F540
:10252C0082EF3400F583E0F50AE508850AF0A4F59E
:10253C0008AAF0850AF0E509A42AF509E82508F8A7
:10254C00E43509F97A257B00121F3DEA8C828D83D4
:10255C00F0F8740758F97401B900028004C333D938
:10256C00FCFAE8131313541FF8EE28F8EF3400F9B3
:10257C00E8245DF582E93400F583E05A6008EE2426
:10258C0034F582EF802CEE2434F582EF3400F583A1
:10259C00E0C0E0EE2436F582EF3400F583E0F5F090
:1025AC00D0E084A8F0EE28F8EF3400F9E82438F5F0
:1025BC0082E93400F583E0F9122C6902244574EFAA
:1025CC001220A4900479E064086005E06407702A86
:1025DC009061C8E060249004A7E0F4601DE0F875F9
:1025EC00F005A4C8AAF02AF974A928FE740439FFCE
:1025FC008E828F83A3A3A3E070030226FA906060FF
:10260C00E0C0E0EE2468F582EF3400F583D0E0F012
:10261C00750CFB750D07750800750900E5D914F5E7
:10262C000AE5D95403F50E60177403650E605CE57A
:10263C000A6010EE2467F582EF3400F583E0700336
:10264C000226DF9007F6E06401602AEE2482F58210
:10265C00EF3400F583E06004780480027800850A8A
:10266C0008E508C398FA95E0FB1209868A088B09DD
:10267C00EA45097005120D048074EE2482F582EF90
:10268C003400F583E070048A0C8B0DE50A6012852A
:10269C000C82850D83F50BE5D9F0A3150BE50B70BA
:1026AC00F6EE2482F582EF3400F583E0604474FC8E
:1026BC00250AF50A780C12224BAC0AA90EEEFAEF99
:1026CC00FB120B547402121FDEE97026AA08AB0928
:1026DC0012133A793D8E828F83A3A3A3A3E0FA7BD6
:1026EC000012086CEEFAEFFB120AC4120BB479005C
:1026FC0080747403650E6056850A1075110078108D
:10270C0012224BAC0CAD0DAA08AB09120B307402A3
:10271C00121FDEEE2468F582EF3400F583E064804E
:10272C007004747F8001E0F50C780C12224FE50EDA
:10273C00F50C780C12224FA90AAC08AD099004A72D
:10274C00E0FA7B0012082A7402121FDE8013900438
:10275C0079E06408700BAC0CAD0DEEFAEFFB120BCC
:10276C0084120D1079017F0A02215074F51220A4F5
:10277C0074FC121FC8EAFEEBFF8908A2AFE433F524
:10278C0009C2AF806AEE2463F8EF3400F97A007B5B
:10279C0000A2AFE433F50AC2AF88828983E0FCA3C0
:1027AC00E0FDEC4D603A88828983E0FAA3E0FB8A75
:1027BC00828B83E0FCA3E0FD88828983ECF0A3ED9F
:1027CC00F08A828B83E4F0A3F088828983E0FCA3F7
:1027DC00E0FDEC4D700A88828983A3A3E4F0A3F09A
:1027EC00E50AA2E092AF12133A9007C6E004F0EEAD
:1027FC002463F582EF3400F583E0F8A3E0F9E849AF
:10280C00603DEE2463F582EF3400F583E02402FA98
:10281C00A3E03400FBEA2402F50AEB3400F50B7854
:10282C000A12224B8A828B83E0FCA3E0F9EEFAEFCA
:10283C00FB120AF47402121FDEE970030227919056
:10284C0007C6E060639007C7E0F89007C6E0C3983E
:10285C00500C7402650870509007C8E0604A8E8274
:10286C008F83A3A3A3A3E0851882851983F0A3E427
:10287C00F09007C6E0F87402122014E8F0A3E4F01C
:10288C009007C6E0F89007C5E028F07402122014F7
:10289C00AC82AD83851882851983AA82AB837901BA
:1028AC001208369007C6E4F0E509A2E092AF740472
:1028BC00121FDE0224450000851A87851BC622C024
:1028CC00E0C0D0E8C0E0E9C0E0EAC0E0EBC0E0EC7A
:1028DC00C0E0EDC0E0EEC0E0C008C009C00AC00B0B
:1028EC00C082C083C0F0A2AFE433FEC2AF759B00C0
:1028FC00906182E0A2E05012E591A2E0500C75913B
:10290C00FE7401651A70031225CAE0A2E55051E568
:10291C0091A2E5504B7591DF900479E06407600556
:10292C00E0640870237401651A703579019004A76E
:10293C00E0FA75F005A4CAA8F028FB74A92AFA7469
:10294C00043BFB1227778018E0640D701390049BF6
:10295C00E004F064287002E4F07A00E0F9120D163D
:10296C00906182E0A2E64003022A12E591A2E640C1
:10297C0003022A127591BF900479E0640570081265
:10298C000C20120C2C8003120C26751A00120C86CB
:10299C00E990047AF07900120C68120A107A017B23
:1029AC0000900478E0F9120F6E907803E0644270A6
:1029BC00559007FAE014F0704DC2AF1229CA007896
:1029CC001DD0E0F618D0E0F6E59F540770057509A8
:1029DC00FF800375097FC4C0E0781CE6F50808E6A3
:1029EC005509F509740B7808121FA6D0E02508F8D4
:1029FC00906270E0A2E740F8E8C333906272F09006
:102A0C006270E0D2E0F0906181E0A2E35009E5E968
:102A1C00A2E3500375E9F7A3E0A2E75009E591A200
:102A2C00E7500375917FEEA2E092AFD0F0D083D047
:102A3C0082D00BD00AD009D008D0E0FED0E0FDD077
:102A4C00E0FCD0E0FBD0E0FAD0E0F9D0E0F8D0D058
:102A5C00D0E032C0E0C0D0C082C083906183E0A2DD
:102A6C00E05009E5BFA2E0500375BFFEE0A2E150C3
:102A7C0009E5BFA2E1500375BFFDE0A2E25009E5F4
:102A8C00BFA2E2500375BFFBE0A2E35009E5BFA271
:102A9C00E3500375BFF7E0A2E45009E5BFA2E45090
:102AAC000375BFEFE0A2E55009E5BFA2E550037541
:102ABC00BFDFE0A2E65009E5BFA2E6500375BFBF39
:102ACC00D083D0828088C0E0C0D0E8C0E0E9C0E00C
:102ADC00EAC0E0EBC0E0ECC0E0EDC0E0C0F0E5A780
:102AEC00A2E6500FE5A1A2E6500953A7BF75A1BFFE
:102AFC00122B37E5A7A2E5500CE5A1A2E550065331
:102B0C00A7DF75A1DFE5A7A2E15009E5A1A2E1507D
:102B1C000375A1FDE5A7A2E2500CE5A1A2E25006C7
:102B2C0053A7FB75A1FBD0F0022A4874F81220A41D
:102B3C00751A01900479E064067015120BD88A821C
:102B4C008B83A3A3A3A3A3A3E0FAA3E0FB120C0E15
:102B5C00A2AFE433FED2AF90047FE0640170187A28
:102B6C00207B00900478E0F9120FEC7A207B009027
:102B7C000478E0F9120F74906182E0D2E6F09007CD
:102B8C00F7E0602185C61B801690047EE06401701E
:102B9C0008E5C654F84405F5C653BEFC1228C474A7
:102BAC0001651A60E4EEA2E092AF7F01022150743D
:102BBC00ED1220A48A088B098C0A8D0B7413122039
:102BCC0014780C121E807808790C1214A17510015F
:102BDC007511C875120075130050127808790C1213
:102BEC001E1F781079081214A150168010780C79D9
:102BFC0008121E1F7810790C1214A1400479018060
:102C0C000279007F0C02215074ED1220A48A088BEB
:102C1C00098C0A8D0B7413122014780C121E8078F8
:102C2C000C79081214A140117808790C121E1FAAF5
:102C3C0008AB09AC0AAD0B8022751000751100753C
:102C4C0012007513017810790C121E1F7810790878
:102C5C00121DE6AA10AB11AC12AD1380A6C082C037
:102C6C0083E9906000F0D083D08222C2AF020000D2
:102C7C0022C0E074F2122190A2AFE433FED2AFC2B4
:102C8C00C0E5D1A2E4500653D1EF1212D4EEA2E06B
:102C9C0092AF7F010221EFC0E074F2122190A2AF3B
:102CAC00E433FED2AFE589A2E150031212387589E4
:102CBC0000C2C5EEA2E092AF7F010221EFC0E0742A
:102CCC00F2122190A2AFE433FED2AFE58BA2E0501A
:102CDC0003121238758B00C2E880D8C0E0C0D0E86F
:102CEC00C0E0E9C0E0E5A8D2AFC2C7A2E7A2E79274
:102CFC00AFD0E0F9D0E0F8D0D0D0E032C0E0C0D016
:102D0C00E8C0E0E9C0E0C008C009C082C083A2AF3F
:102D1C00E433F9D2AF901090E0F8A3E06870085358
:102D2C009AFBA374018025C2E9901090E0F5087419
:102D3C00012508F074102508F582E43410F583E0C1
:102D4C00F5C1901090E0C394804002E4F0E9A2E059
:102D5C0092AFD083D082D009D008D0E0F9D0E0F87F
:102D6C00D0D0D0E03202011FFFFFFFFFFFFFFFFFBB
:102D7C00C082C083784C790888828983A3A3A3A3DB
:102D8C00A3A3E4F088828983A3A3A3A3A374FFF075
:102D9C00E82418F8E93400F9E864AC7003E9640835
:102DAC0070D690084E74FFF090084DE4F090084CEB
:102DBC00F090084FF0A3F002467474EC1220389097
:102DCC00084FE0F508A3E0F509E50845097006127F
:102DDC000A10023C02850882850983E014601814ED
:102DEC00601524FE601124C4700302360824C070E0
:102DFC0003023608023C02E0F9120BC68A0A8B0B5E
:102E0C00AE0AAF0B9004A6E07003023206120AB8A9
:102E1C00E9F875F005A4C8AAF02AF974A928F50CEC
:102E2C00740439F50D850C82F583E0F50AA3E0F501
:102E3C000BAC0AFDEEFAEFFB120BC0E9F50E7402B7
:102E4C00650E70030231AE8E828F83E024FE600A21
:102E5C0024FE7003023098023C02EE65087003EF0A
:102E6C0065096021120A2E9007DAE0640170169051
:102E7C0007D9E070107901120CD4120CA4120CCEEC
:102E8C007900120CDAE50E6021E5082415F582E5CF
:102E9C00093400F583E060129007D5E0F8A3E0F95F
:102EAC00A3E0687003A3E0697042120C388A0C8BA3
:102EBC000D8C0E8D0F7510037511007512007513A6
:102ECC0000780C7910121DE67510FF7511FF751244
:102EDC00FF780C7910121E478E828F83A3A3E50C0A
:102EEC00F0A3E50DF0A3E50EF0A3E4F0E50824153E
:102EFC00F582E5093400F583E064016003022FB02C
:102F0C00850A82850B83A3A3750CF1750DFF750ED5
:102F1C00FF750FFF780C121DF9780C1222478E8268
:102F2C008F83A3A3C082C0839007D7E0F508A3E0EA
:102F3C0085080CF50DE4F50EF50FD083D082780CD6
:102F4C00121DF9AA0CAB0DAC0EAD0F122BBB7404F9
:102F5C00121FDEE9701F8E828F83A3A3C082C083F1
:102F6C009007D7E0F508A3E0F509E4F50AF50BD0D6
:102F7C0083D0828014850A82850B83A3A37508F104
:102F8C007509FF750AFF750BFF7808121DF9750C92
:102F9C00FF750DFF750EFF750F007808790C121E6A
:102FAC0047023500EE240EF582EF3400F583122231
:102FBC005E8E828F83A3A3121E9E122BBB740412EF
:102FCC001FDEE964016003023B23850A82850B83C3
:102FDC00A3A3750CF1750DFF750EFF750FFF780C23
:102FEC00121DF9780C1222478E828F83A3A3C08204
:102FFC00C0839007D7E0F508A3E085080CF50DE435
:10300C00F50EF50FD083D082780C121DF9AA0CABFB
:10301C000DAC0EAD0F122BBB7404121FDEE9701F2A
:10302C008E828F83A3A3C082C0839007D7E0F5085C
:10303C00A3E0F509E4F50AF50BD083D08280148562
:10304C000A82850B83A3A37508F17509FF750AFF26
:10305C00750BFF7808121DF9750CFF750DFF750EB9
:10306C00FF750F007808790C121E47EE240EF582BE
:10307C00EF3400F5837808121E8F9007DDE064278B
:10308C00700474258002E004F0023B23EE650870A6
:10309C0003EF650960319007F1E0F9120A348508F5
:1030AC0082850983E06402701E9007DAE064017087
:1030BC00169007D9E070107900120CD4120CA412DF
:1030CC000CCE7901120CDAE50E60129007EBE0F8E9
:1030DC00A3E0F9A3E0687003A3E0697039120C381F
:1030EC008A0C8B0D8C0E8D0F7510037511007512DB
:1030FC0000751300780C7910121DE67510FF751110
:10310C00FF7512FF780C7910121E478E828F83A3E5
:10311C00A3780C121E8F850A82850B83A3A3750CD2
:10312C00F1750DFF750EFF750FFF780C121DF978F8
:10313C000C1222478E828F83A3A3C082C083900778
:10314C00EDE0F508A3E085080CF50DE4F50EF50FA0
:10315C00D083D082780C121DF9AA0CAB0DAC0EAD3D
:10316C000F122BBB7404121FDEE9701F8E828F832B
:10317C00A3A3C082C0839007EDE0F508A3E0F50996
:10318C00E4F50AF50BD083D0828014850A82850B76
:10319C0083A3A37508F17509FF750AFF750BFF0270
:1031AC00390C850882850983E0640270139007DA74
:1031BC00E06401700B9007D9E070057900120CD413
:1031CC00E50C2404FEE50D3400FF8E828F83E0F9BC
:1031DC00120BFC8E828F83E09004A7F07902FA75B3
:1031EC00F005A4CAA8F028FB74A92AFA74043BFBC6
:1031FC00122777AA0AAB0B023BFFEE65087003EFB0
:10320C0065098E828F836003023422E024FE600AFB
:10321C0024FE700302335F023BFBEE2415F582EFB4
:10322C003400F583E0604C9007D5E0F8A3E0F9A3F7
:10323C00E0687003A3E069603A120C388A088B09C5
:10324C008C0A8D0B750C0A750D00750E00750F0030
:10325C007808790C121DE678081222478E828F832B
:10326C00A3A3121E9E122BBB7404121FDEE9600373
:10327C00023BFB120C388A088B098C0A8D0B750CDF
:10328C0003750D00750E00750F007808790C121D72
:10329C00E6750CFF750DFF750EFF7808790C121E84
:1032AC00478E828F83A3A37808121E8FEE2415F508
:1032BC0082EF3400F583E0640170328E828F83A339
:1032CC00A3C082C0839007D7E0F508A3E0F509E41A
:1032DC00F50AD083D0827808121DF9EE240EF582FF
:1032EC00EF3400F5837808121E8F023BFBEE240EA0
:1032FC00F582EF3400F58312225E8E828F83A3A3B6
:10330C00121E9E122BBB7404121FDEE964016003B3
:10331C00023BFB8E828F83A3A3C082C0839007D70E
:10332C00E0F508A3E0F509E4F50AD083D08278082B
:10333C00121DF9EE240EF582EF3400F58378081295
:10334C001E8F9007DDE06427700474258002E00472
:10335C00023BFA9007EBE0F8A3E0F9A3E0687003F6
:10336C00A3E0696037120C388A088B098C0A8D0B24
:10337C00750C0A750D00750E00750F007808790C28
:10338C00121DE678081222478E828F83A3A3121E89
:10339C009E122BBB7404121FDEE97077EE2402F52B
:1033AC0008EF3400F509120C388A0C8B0D8C0E8D3D
:1033BC000F751003751100751200751300780C79D8
:1033CC0010121DE67510FF7511FF7512FF780C7940
:1033DC0010121E47850882850983780C121E8F8572
:1033EC000882850983C082C0839007EDE0F508A3AD
:1033FC00E0F509E4F50AF50BD083D0827808121DAC
:10340C00F9EE240EF582EF3400F5837808121E8F46
:10341C00120A3A023BFBE024FE600A24FE7003020F
:10342C003512023C02120A2E9007DAE06401701683
:10343C009007D9E070107901120CD4120CA4120C64
:10344C00CE7900120CDA9007D5E0F8A3E0F9A3E0EE
:10345C00687003A3E0696037120C388A088B098CFA
:10346C000A8D0B750C0A750D00750E00750F007822
:10347C0008790C121DE678081222478E828F83A3DE
:10348C00A3121E9E122BBB7404121FDEE97074EE85
:10349C002402F508EF3400F509120C388A0C8B0D58
:1034AC008C0E8D0F751003751100751200751300BD
:1034BC00780C7910121DE67510FF7511FF7512FF4F
:1034CC00780C7910121E47850882850983780C12B6
:1034DC001E8F850882850983C082C0839007D7E040
:1034EC00F508A3E0F509E4F50AF50BD083D0827852
:1034FC0008121DF9EE240EF582EF3400F5837808DE
:10350C00121E8F023B239007F1E0F9120A34850852
:10351C0082850983E06402701E9007DAE064017012
:10352C00169007D9E070107900120CD4120CA4126A
:10353C000CCE7901120CDA9007EBE0F8A3E0F9A3BA
:10354C00E0687003A3E0696037120C388A088B09B5
:10355C008C0A8D0B750C0A750D00750E00750F001D
:10356C007808790C121DE678081222478E828F8318
:10357C00A3A3121E9E122BBB7404121FDEE97079DA
:10358C00EE2402F8EF3400F988088909120C388A05
:10359C000C8B0D8C0E8D0F751003751100751200B0
:1035AC00751300780C7910121DE67510FF7511FF5C
:1035BC007512FF780C7910121E47850882850983D5
:1035CC00780C121E8F850882850983C082C0839077
:1035DC0007EDE0F508A3E0F509E4F50AF50BD08357
:1035EC00D0827808121DF9EE240EF582EF3400F526
:1035FC00837808121E8F120A3A023BF59004A6E05B
:10360C007003023A19120AB8E9F875F005A4C8AAB1
:10361C00F02AF974A928F510740439F51185108273
:10362C00F583E0F508A3E0F5099004A7E0F875F040
:10363C0005A4C8AAF02AF974A928F50C740439F564
:10364C000D90084DE054077003023927A3E0F912DE
:10365C000BC68A0A8B0BAE0AAF0BAC08AD09120B6A
:10366C00C0E9F50E7402650E7003023927850C82D1
:10367C00850D83A3A3A3A3E0F875F08AA4C8AAF0D0
:10368C002AF974B128F50A740839F50BAA0AFB1249
:10369C000BF0AA0AAB0B120BEA75128075130078AB
:1036AC001212224B7C007D60E50A2406FAE50B34ED
:1036BC0001FB120B307402121FDEA80AA90B9061D9
:1036CC0095E0C0E0E82486F582E93401F583D0E08A
:1036DC00F0906196E0C0E0E82487F582E93401F5CA
:1036EC0083D0E0F0906197E0C0E0E82488F582E9AF
:1036FC003401F583D0E0F0906198E0C0E0E82489D3
:10370C00F582E93401F583D0E0F08E828F83E024DA
:10371C00FE600A24FE7003023832023927120A2E88
:10372C009007DAE0640170119007D9E0700B120C6D
:10373C00A4120CCE7900120CDAE50E60129007D5AB
:10374C00E0F8A3E0F9A3E0687003A3E06970361217
:10375C000C388A0C8B0D8C0E8D0F751003751100A7
:10376C00751200780C7910121DE67510FF7511FF9B
:10377C007512FF780C7910121E478E828F83A3A3CB
:10378C00780C121E8F850882850983A3A3750CF112
:10379C00750DFF750EFF750FFF780C121DF9780C67
:1037AC001222478E828F83A3A3C082C0839007D737
:1037BC00E0F50CA3E0F50DE4F50EF50FD083D08207
:1037CC00780C121DF9AA0CAB0DAC0EAD0F122BBB65
:1037DC007404121FDEE9701F8E828F83A3A3C08234
:1037EC00C0839007D7E0F508A3E0F509E4F50AF5E6
:1037FC000BD083D0828014850882850983A3A3759E
:10380C0008F17509FF750AFF750BFF7808121DF991
:10381C00750CFF750DFF750EFF750F007808790C90
:10382C00121E47023B149007F1E0F9120A34E50E20
:10383C0060129007EBE0F8A3E0F9A3E0687003A333
:10384C00E0697036120C388A0C8B0D8C0E8D0F754E
:10385C001003751100751200780C7910121DE675A5
:10386C0010FF7511FF7512FF780C7910121E478E20
:10387C00828F83A3A3780C121E8F850882850983FF
:10388C00A3A3750CF1750DFF750EFF750FFF780C6A
:10389C00121DF9780C1222478E828F83A3A3C0824B
:1038AC00C0839007EDE0F50CA3E0F50DE4F50EF503
:1038BC000FD083D082780C121DF9AA0CAB0DAC0E74
:1038CC00AD0F122BBB7404121FDEE9701F8E828F9A
:1038DC0083A3A3C082C0839007EDE0F508A3E0F5B5
:1038EC0009E4F50AF50BD083D08280148508828513
:1038FC000983A3A37508F17509FF750AFF750BFF02
:10390C007808121DF9750CFF750DFF750EFF750FFC
:10391C00007808790C121E47023BE3E510650C7029
:10392C0004E511650D70030239F7850C82850D8352
:10393C00A3A3A3E070030239DB850C82850D83A35E
:10394C00A3A3A3E0F875F08AA4C8AAF02AF974B16D
:10395C0028FE740839FFEEFAEFFB120BF0EEFAEFCB
:10396C00FB120BEA750A80750B00780A12224B7C4D
:10397C00007D60EE2406FAEF3401FB120B3074026A
:10398C00121FDE906195E0C0E0EE2486F582EF34E4
:10399C0001F583D0E0F0906196E0C0E0EE2487F56D
:1039AC0082EF3401F583D0E0F0906197E0C0E0EE57
:1039BC002488F582EF3401F583D0E0F0906198E033
:1039CC00C0E0EE2489F582EF3401F583D0E0F0E518
:1039DC00102404FEE5113400FF8E828F83E0F9126F
:1039EC000BFC8E828F83E09004A7F079029004A7E1
:1039FC00E0FA75F005A4CAA8F028FB74A92AFA7499
:103A0C00043BFB122777AA08AB09023BFF90084D39
:103A1C00E054077003023C02A3E0F9120BC68A08BB
:103A2C008B09AE08AF098E828F83E024FE600A24D6
:103A3C00FE7003023B2B023C02120A2E9007DAE0C6
:103A4C00640170169007D9E070107901120CD41231
:103A5C000CA4120CCE7900120CDA9007D5E0F8A366
:103A6C00E0F9A3E0687003A3E0696037120C388AB0
:103A7C00088B098C0A8D0B750C0A750D00750E00E0
:103A8C00750F007808790C121DE678081222478E03
:103A9C00828F83A3A3121E9E122BBB7404121FDEF3
:103AAC00E97074EE2402F508EF3400F509120C38B5
:103ABC008A0C8B0D8C0E8D0F751003751100751201
:103ACC0000751300780C7910121DE67510FF751136
:103ADC00FF7512FF780C7910121E47850882850934
:103AEC0083780C121E8F850882850983C082C0835F
:103AFC009007D7E0F508A3E0F509E4F50AF50BD03B
:103B0C0083D0827808121DF9EE240EF582EF340072
:103B1C00F5837808121E8F90084E7402023BFA90BF
:103B2C0007F1E0F9120A349007EBE0F8A3E0F9A3EF
:103B3C00E0687003A3E0696037120C388A088B09BF
:103B4C008C0A8D0B750C0A750D00750E00750F0027
:103B5C007808790C121DE678081222478E828F8322
:103B6C00A3A3121E9E122BBB7404121FDEE97076E7
:103B7C00EE2402F8EF3400F988088909120C388A0F
:103B8C000C8B0D8C0E8D0F751003751100751200BA
:103B9C00751300780C7910121DE67510FF7511FF66
:103BAC007512FF780C7910121E47850882850983DF
:103BBC00780C121E8F850882850983C082C0839081
:103BCC0007EDE0F508A3E0F509E4F50AF50BD08361
:103BDC00D0827808121DF9EE240EF582EF3400F530
:103BEC00837808121E8F120A3A90084E7404F0EE75
:103BFC00FAEFFB120BBA7F0C02210A74F012203878
:103C0C00EAFEEBFFEE2402F8EF3400F9880889098C
:103C1C00EE2406F8EF3400F9880A890B8882F583C4
:103C2C00122262850882850983121E9E120C14745E
:103C3C0002121FDE850A82850B831222628508829E
:103C4C00850983121E9E120C087402121FDEEE24CC
:103C5C000EF582EF3400F583121E9E120C1A8E8222
:103C6C008F83E06440701CEE2412F8EF3400F98866
:103C7C00828983E0906064F088828983A3E09060FD
:103C8C00658006906064E4F0A3F090084FEEF0A31A
:103C9C00EFF0EE2416F582EF3400F583E0F8A3E0A4
:103CAC00F5838882122036906054E4F0A3F0A3F0E0
:103CBC00A3F0A3F0A3F0A3F0A3F0A3F0A3F0A3F060
:103CCC00A3F0906182E0C2E6F07591BFEE2415F589
:103CDC0082EF3400F583E064017003120C4AE5E1D5
:103CEC0070FCEE2414F582EF3400F583E0F46003ED
:103CFC00E0F5E1EE2415F582EF3400F5837401F064
:103D0C0090047FE064017073120C388A088B098C64
:103D1C000A8D0B78081222478E828F83A3A3121E62
:103D2C009E122C147404121FDE8A088B098C0A8DC7
:103D3C000B750C05750D00750E00750F0078087964
:103D4C000C121CAB74037808121DAEE50824F4F5B4
:103D5C0008E5093401F5099007F7E06003120F98A4
:103D6C00E4F50AF50B78081222477A207B009004C0
:103D7C0078E0F9120FE07404121FDE7F0802210AAA
:103D8C0074EA122038EAFEEBFF8C148D15EE4F709E
:103D9C0003023EA8120C388A088B098C0A8D0B750D
:103DAC000C01750D00750E00750F007808790C125A
:103DBC001DE6750CFF750DFF750EFF7808790C125A
:103DCC001E478E828F83E0640270149007D5E0F852
:103DDC00A3E0F9A3E0687003A3E06970248017E006
:103DEC006404701D9007EBE0F8A3E0F9A3E06870A1
:103DFC0003A3E069700B8E828F83A3A37808121E35
:103E0C008F75101A75110075120075130078081251
:103E1C002247851482851583A3A3121E9E122C148F
:103E2C007404121FDE8A0C8B0D8C0E8D0F7810799A
:103E3C000C1214A14066851482851583A3A3750CFE
:103E4C00E7750DFF750EFF750FFF780C121DF978D5
:103E5C000C1222478E828F83A3A3121E9E122BBBA1
:103E6C007404121FDEE97034750C07750D00750EA5
:103E7C0000750F007808790C121DE678081222479D
:103E8C008E828F83A3A3121E9E122BBB7404121F4F
:103E9C00DEE97004790080067901800279027F0ED8
:103EAC0002210A74F0122038890874FF6508600337
:103EBC0002403D90084DE0540770030245197A000A
:103ECC00784C790888828983A3A3A3A3A3E0640414
:103EDC00703FEA75F018A4F8A9F0745228F58274B2
:103EEC000839F583E0640170377A00784C790888DA
:103EFC00828983A3A3A3A3A3E064046003023F927B
:103F0C0088828983A3A3A3A3A3A3E0640170778011
:103F1C00630AE82418F8E93400F9EAC3940440A4CD
:103F2C007A00784C790888828983A3A3A3A3A3E0A1
:103F3C0064017067EA75F018A4F8A9F0745228F5BA
:103F4C0082740839F583E0640170627A00784C79E8
:103F5C000888828983A3A3A3A3A3E064016003025E
:103F6C00401988828983A3A3A3A3A3A3E06401605F
:103F7C0003024019EA75F018A4F8A9F0745128FA54
:103F8C007408390245160AE82418F8E93400F9EAED
:103F9C00C394045003023EFB0245190AE82418F8A6
:103FAC00E93400F9EAC394045003023F327A0078F2
:103FBC004C790888828983A3A3A3A3A3E06402702D
:103FCC0061EA75F018A4F8A9F0745228F582740807
:103FDC0039F583E0640170597A00784C790888824D
:103FEC008983A3A3A3A3A3E06402707A8882898344
:103FFC00A3A3A3A3A3A3E06401706BEA75F018A4B8
:10400C00F8A9F0745128FA740839FB806F0AE82477
:10401C0018F8E93400F9EAC394045003023F5D0236
:10402C0045190AE82418F8E93400F9EAC394044065
:10403C00827A00784C790888828983A3A3A3A3A3EE
:10404C00E06508703A88828983A3A3A3A3A3A3E0A5
:10405C006401702BEA75F018A4F8A9F0745128FECD
:10406C00740839FF802C0AE82418F8E93400F9EABE
:10407C00C394045003023FEA7A007B0002451D0AF8
:10408C00E82418F8E93400F9EAC3940440A97E0046
:10409C007F007A00784C790888828983A3A3A3A334
:1040AC00A3E06508701BEA75F018A4F8A9F0745227
:1040BC0028F582740839F583E0640170137A018065
:1040CC00110AE82418F8E93400F9EAC3940440C84A
:1040DC007A00E50814601014700302425424FE7038
:1040EC00030243670245197B00784C790888828962
:1040FC0083A3A3A3A3A3E064027052EB75F018A4EE
:10410C00F8A9F0745228F582740839F583E064013B
:10411C00704A7B00784C790888828983A3A3A3A377
:10412C00A3E0640260030241C288828983A3A3A333
:10413C00A3A3A3E06401707EEB75F018A4F8A9F0BA
:10414C00745128F50A740839F50B0241DA0BE8248E
:10415C0018F8E93400F9EBC3940440917B00784CD7
:10416C00790888828983A3A3A3A3A3E064046003D2
:10417C0002421BEB75F018A4F8A9F0745228F582D2
:10418C00740839F583E06401600302422D7B0078EA
:10419C004C790888828983A3A3A3A3A3E064046059
:1041AC000302423888828983A3A3A3A3A3A3E06458
:1041BC000170790243BB0BE82418F8E93400F9EBE1
:1041CC00C394045003024124750A00750B00EAA243
:1041DC00E05035850A82850B83A3A3750CF6750D0B
:1041EC00FF750EFF750FFF780C121DF9780C12225B
:1041FC00478E828F83A3A3121E9E122BBB740412B4
:10420C001FDEE97003024513AA0AAB0B02451D0B16
:10421C00E82418F8E93400F9EBC394045003024184
:10422C006EEAA2E0501BEEFAEFFB80190BE82418A3
:10423C00F8E93400F9EBC39404500302419F0244A3
:10424C00607A007B0002451D7B00784C79088882DF
:10425C008983A3A3A3A3A3E064047040EB75F018B7
:10426C00A4F8A9F0745228F582740839F583E06437
:10427C000170387B00784C790888828983A3A3A3CA
:10428C00A3A3E06404600302431988828983A3A377
:10429C00A3A3A3A3E0640170740243BB0BE824182E
:1042AC00F8E93400F9EBC3940440A37B00784C7913
:1042BC000888828983A3A3A3A3A3E064017063EBA2
:1042CC0075F018A4F8A9F0745228F582740839F521
:1042DC0083E06401705B7B00784C79088882898369
:1042EC00A3A3A3A3A3E06401705288828983A3A330
:1042FC00A3A3A3A3E064017043EB75F018A4F8A981
:10430C00F0745128F50A740839F50B80440BE82435
:10431C0018F8E93400F9EBC3940450030242850207
:10432C0044600BE82418F8E93400F9EBC39404401A
:10433C0080EAA2E0501EEEFAEFFB801C0BE824187A
:10434C00F8E93400F9EBC394044091750A00750B3D
:10435C00000244667A007B0002451D7B00784C7994
:10436C000888828983A3A3A3A3A3E064017055EBFF
:10437C0075F018A4F8A9F0745228F582740839F570
:10438C0083E06401704D7B00784C790888828983C6
:10439C00A3A3A3A3A3E06401600302444E88828913
:1043AC0083A3A3A3A3A3A3E06401600302444EEB85
:1043BC0075F018A4F8A9F0745128F50A740839F5A9
:1043CC000B0244660BE82418F8E93400F9EBC394AB
:1043DC0004408E7B00784C790888828983A3A3A340
:1043EC00A3A3E0640260030244A5EB75F018A4F8E3
:1043FC00A9F0745228F582740839F583E0640160E1
:10440C00030244B77B00784C790888828983A3A384
:10441C00A3A3A3E0640260030244BE88828983A341
:10442C00A3A3A3A3A3E0640160030244BEEB75F055
:10443C0018A4F8A9F0745128F50A740839F50B0280
:10444C0044D60BE82418F8E93400F9EBC394045073
:10445C0003024398750A00750B00EAA2E0400302C0
:10446C004214850A82850B83A3A3750CF6750DFF88
:10447C00750EFF750FFF780C121DF9780C12224780
:10448C008E828F83A3A3121E9E122BBB7404121F49
:10449C00DEE96003024214806E0BE82418F8E9345C
:1044AC0000F9EBC3940450030243E5EAA2E0505D2B
:1044BC0080550BE82418F8E93400F9EBC394045048
:1044CC0003024416750A00750B00EAA2E0400302D1
:1044DC004214850A82850B83A3A3750CF6750DFF18
:1044EC00750EFF750FFF780C121DF9780C12224710
:1044FC008E828F83A3A3121E9E122BBB7404121FD9
:10450C00DEE96003024214EEFAEFFB80047A007BD2
:10451C0000023D8774F61220388909750800784C22
:10452C00790888828983A3A3A3A3A3A3E0600302D1
:10453C0045FCE50875F018A4F8A9F0745128FE7430
:10454C000839FF8E828F83A37401F08E828F83E5EE
:10455C0009F0120C388E828F83A3A3121EAA8E82AE
:10456C008F83A3A3A3A3A3A3E4F0A3F0EE240EF5DF
:10457C0082EF3400F58374FFF0A3F0A3F0A3F0EE08
:10458C002414F582EF3400F5837401F0EE2415F554
:10459C0082EF3400F5837401F0EE2416F582EF34CB
:1045AC0000F583E4F0A3F090084DE04509F0900885
:1045BC004CE004F06401600C748065096006744082
:1045CC0065097019E50875F018A4F8A9F07451285C
:1045DC00F8740839F990084FE8F0A3E9F0E508758C
:1045EC00F018A4F8A9F0745128FA740839FB801853
:1045FC000508E82418F8E93400F9E508C3940450D8
:10460C000302452E7A007B0080007F0202210AC043
:10461C0082C0838A828B83E0F8A3E0F98A828B8341
:10462C00E4F0A3F088828983A3F088828983E0F484
:10463C00F890084DE058F090084CE014F0700B9096
:10464C00084FE4F0A3F0900479F0801CC082C08382
:10465C0090084CE0600A90084FE0FAA3E0FB80045D
:10466C007A007B008002E0F9D083D08202011FC067
:10467C0082C083E9FB7A00784C790888828983A30D
:10468C00A3A3A3A3E06B7016EA75F018A4F8A9F025
:10469C00745228F582740839F583E0F980110AE820
:1046AC002418F8E93400F9EAC3940440CE79008068
:1046BC00B7C082C08390084C02467274F612203840
:1046CC00EAFEEBFF9061D0E0C0E0EE2400F582EF53
:1046DC003401F583D0E0F09061D7E0F89061D5E03B
:1046EC00C398547FC0E0EE2401F582EF3401F583CA
:1046FC00D0E0F09061D6E0C398547FC0E0EE240285
:10470C00F582EF3401F583D0E0F0701A9061C5E0CA
:10471C00A2E45012E0A2E7500DEE2402F582EF3431
:10472C0001F5837480F0120CFEEE2401F582EF3457
:10473C0001F583E07034EE2402F582EF3401F58349
:10474C00E070279061C5E0A2E4501FE0A2E7501A88
:10475C00EE2402F582EF3401F5837480F0EE24012F
:10476C00F582EF3401F5837480F075E1957800EEF5
:10477C002400F582EF3401F583E060279061D3E0EB
:10478C00C0E08808EE2508F582EF3400F583D0E010
:10479C00F008EE2400F582EF3401F583E0F9E8C36C
:1047AC009940D975E19102461674F6122038EAFE4A
:1047BC00EBFF9061C8E0C0E0EE2403F582EF34011A
:1047CC00F583D0E0F09061CFE0F89061CDE0C39834
:1047DC00547FC0E0EE2404F582EF3401F583D0E081
:1047EC00F09061CEE0C398547FC0E0EE2405F582D2
:1047FC00EF3401F583D0E0F0701A9061C5E0A2E0CF
:10480C005012E0A2E3500DEE2405F582EF3401F5D1
:10481C00837480F0120D04EE2404F582EF3401F55C
:10482C0083E07034EE2405F582EF3401F583E070FB
:10483C00279061C5E0A2E0501FE0A2E3501AEE24DD
:10484C0005F582EF3401F5837480F0EE2404F582D3
:10485C00EF3401F5837480F0120D0A7A00EE240314
:10486C00F582EF3401F583E0602F9061CBE0C0E07E
:10487C008A08EE2508F8EF3400F9E82480F582E97F
:10488C003400F583D0E0F00AEE2403F582EF340116
:10489C00F583E0F8EAC39840D175E18102461674BD
:1048AC00F41220388908A808E875F08AA4C8AAF080
:1048BC002AF974B128FE740839FFEEFAEFFB120BDB
:1048CC00F0EEFAEFFB120BEA750A80750B00780A12
:1048DC0012224B7C007D60EE2406FAEF3401FB12B1
:1048EC000B307402121FDE906195E0C0E0EE24865E
:1048FC00F582EF3401F583D0E0F0906196E0C0E0F2
:10490C00EE2487F582EF3401F583D0E0F0906197C7
:10491C00E0C0E0EE2488F582EF3401F583D0E0F0BE
:10492C00906198E0C0E0EE2489F582EF3401F583C4
:10493C00D0E0F07F0402210A74F21220388908A812
:10494C0008E875F08AA4C8AAF02AF974B128F8749A
:10495C000839F99061C6E0FDE054F0F075E1817C16
:10496C0000E82403F582E93401F583E0602B8C0A1E
:10497C00E8250AFAE93400FBEA2480F582EB3400DE
:10498C00F583E09061CAF00CE82403F582E9340168
:10499C00F583E0FAECC39A40D5E82405F582E934B6
:1049AC0001F583E060049061CEF0E82404F582E91F
:1049BC003401F583E060049061CDF0ED9061C6F0B8
:1049CC00A808E875F08AA4C8AAF02AF974B128F8E6
:1049DC00740839F9E0FCE0540FF075E1917A00E8C5
:1049EC002400F582E93401F583E060238A0AE82586
:1049FC000AF582E93400F583E09061D2F00AE824EC
:104A0C0000F582E93401F583E0FBEAC39B40DDE865
:104A1C002402F582E93401F583E060049061D6F05C
:104A2C00E82401F582E93401F583E060049061D556
:104A3C00F0EC9061C6F0850882AE82EEF875F08AD3
:104A4C00A4C8AAF02AF974B128F50A740839F50B30
:104A5C00750C80750D00780C12224BE50A2406FCAF
:104A6C00E50B3401FD7A007B60120B307402121FCF
:104A7C00DEA80AA90BE82486F582E93401F583E067
:104A8C00906195F0E82487F582E93401F583E09094
:104A9C006196F0E82488F582E93401F583E09061B1
:104AAC0097F0E82489F582E93401F583E090619868
:104ABC00F0EE75F005A4CEA8F028FF74A92EF582AF
:104ACC0074043FF583E0F8A3E0F5838882E064800A
:104ADC00704190124E7472F0A3740BF0A3745AF0E0
:104AEC00A3740BF0A37472F0A3740BF0A37472F0A4
:104AFC00A3740BF0A3745AF0A3740BF0A37472F0AC
:104B0C00A3740BF0A37478F0A3740BF09004797475
:104B1C000880059004797407F090125C745AF0A325
:104B2C00740BF0A3745AF0A3740BF0A3745AF0A393
:104B3C00740BF0A3745AF0A3740BF0A3745AF0A383
:104B4C00740BF0A3745AF0A3740BF07F0602210AC5
:104B5C00C082C0839061907404F0A37448F0A37475
:104B6C0002F09061807440F09061BC7403F090612D
:104B7C00877419F0906265741BF0906249E0C394DD
:104B8C001390619C400A7409F09060667401800770
:104B9C00740DF0906066E4F090619A7433F0A37435
:104BAC0055F09061A0743AF09007F5E0640170093B
:104BBC00C29190047D7467800590047D7461F090BF
:104BCC002D7AE493906186F0902D74E493F4602731
:104BDC00E493540FF8906185E0686012E5C6548048
:104BEC004449F5C6E59E547F644970F8E8F053C615
:104BFC0080E59E547F70FA7905120CF8024FD0C0F4
:104C0C0082C083E5A8F853A87E906181E4F0A3F0FC
:104C1C00A3F0C2BA539AFEC289759B00C2C275E951
:104C2C000075910075BF0075A91175B9059061816A
:104C3C00F0A374C0F0A3E4F0D2BA439A0174805884
:104C4C0042A8024FD0F0024FD0C082C08374F81239
:104C5C001FC890047BE0F8A3E0F9E8497003024D0B
:104C6C008390047BE0544060237908851882851971
:104C7C0083AA82AB83120B12851882851983AA82B0
:104C8C00AB8312081290047BE054BFF0E0548060B8
:104C9C0010790C7A1B7B08120B1290047BE0547F6A
:104CAC00F0E0A2E0503190619A7433F0A37455F0A7
:104CBC009061A0743AF09007F5E064017009C2911C
:104CCC0090047D7467800590047D7461F01208185F
:104CDC0090047BE054FEF0E05402603190619A74D1
:104CEC003FF0A3745AF09061A0747FF09007F5E048
:104CFC0064017009D29190047D7471800590047DDB
:104D0C00746AF012081890047BE054FDF0E054042F
:104D1C006013902D78E493906186F012081E900435
:104D2C007BE054FBF0E054086013902D79E49390F1
:104D3C006186F012081E90047BE054F7F0E05410EA
:104D4C006013902D7AE493906186F012081E900403
:104D5C007BE054EFF0E05420600A12081E90047BB4
:104D6C00E054DFF0A3E05401600D120A1C12082479
:104D7C0090047CE054FEF07408121FDE024FD074D5
:104D8C00EC12203874F4121FC8851882851983AC74
:104D9C0082AD837583867582E27404121EDB902DBE
:104DAC007893F46003024F17907808E0C394025094
:104DBC0003024EF77404122014AC82AD8375838603
:104DCC007582747408121EDB85188285198385829E
:104DDC00128583137404122014AC82AD83750EFFFC
:104DEC00750FFF7FFF7E00750C48750D788015746C
:104DFC00086E7003024E8B74096E7003024E8B7436
:104E0C000A6E607B850C82850D837808121E808C5F
:104E1C00828D83A909E50AC9F888107418780812DC
:104E2C001DAEE5104508F8C3E098A3E099850C8207
:104E3C00850D837808121E8040188C828D8374181F
:104E4C007808121DAEE5104508F8E0C398F8A3E009
:104E5C00801C74187808121DAEE5104508FAE9FBA1
:104E6C008C828D83E0F8A3E0F9EAC398F8EB99F90A
:104E7C00C3E8950EE9950F5006880E890FEEFF0ECC
:104E8C00E50C2404F50CE50D3400F50DEEC394137C
:104E9C005003024DFB74FF650E700474FF650F60C8
:104EAC00238F0874027808121FB574482508F58200
:104EBC0074783509F5837808121E80851282851363
:104ECC0083E508F0EC2402FCED3400FD85128285AC
:104EDC001383A3858212858313740C122014E5822C
:104EEC006C7003E5836D6003024DE975080175096B
:104EFC0000780812224B7402122014AC82AD837A13
:104F0C005E7B0B1212147402121FDE740C121FDE65
:104F1C007F0C02210AC082C0839061AE7468F0A33A
:104F2C00746AF090624574FBF0A304F053F4FD43F3
:104F3C00FE029007F57401F09061A0E0643A906174
:104F4C009A70237433F0A37455F09061A0743AF006
:104F5C00740164017009C29190047D74678028907B
:104F6C00047D74618021743FF0A3745AF09061A0A9
:104F7C00747FF0740164017009D29190047D747196
:104F8C00800590047D746A024C51C082C0839007E6
:104F9C00D3E0640170119007D9E064016019E070EE
:104FAC0006A3E0640160109007EAE06401700C90C5
:104FBC0007F0E064017004790C800279008005E050
:104FCC00F9122C69D083D08202011FC082C0839059
:104FDC0007DD7425F09007DB7401F0A3E4F07A018F
:104FEC00FB120C749007C9E0F8A3E0C82416F582F4
:104FFC00E83400F5837440F0A3740AF09007DAE00B
:10500C00640170169007D9E070107901120CD4125B
:10501C000CA4120CCE7900120CE0024FD0C082C04E
:10502C008374FA121FC89007D2E064017008120A48
:10503C00289007D2E4F075E1F19007C9E0F8A3E0FD
:10504C00C82415F582E83400F5837401F09007D478
:10505C00E0640170769086A4C082851882851983DD
:10506C00AC82AD83758386D0827406121EDB75D933
:10507C000D9007CBE0C4333354C04403F5D978C941
:10508C00790788828983A3A3A3E0F5D988828983D1
:10509C00A3A882A983E864CF7003E9640770E38551
:1050AC001882851983A882A98388828983E0F5D91F
:1050BC00A3A882A9837406122014E582687003E504
:1050CC00836970E575E195790180027900120C7A9B
:1050DC0090124E7490F0A3740BF0A37496F0A3741A
:1050EC000BF0A37490F0A3740BF0A37490F0A37462
:1050FC000BF0A3745AF0A3740BF0A3745AF0A374BE
:10510C000BF0A3749CF0A3740BF090125C745AF027
:10511C00A3740BF0A3745AF0A3740BF0A3745AF09D
:10512C00A3740BF0A3745AF0A3740BF0A3745AF08D
:10513C00A3740BF0A3745AF0A3740BF09007CBE09C
:10514C00F97ACC7B07120C569007DDE0F9122C692A
:10515C007901120C807AD67BBE7C897D8E120C98DC
:10516C007A557B557C557D00120C627900120CEC43
:10517C009007C9E0F8A3E0C82414F582E83400F5E0
:10518C00837416F09004797405F004024D8574F75D
:10519C001220388908A808E875F005A4C8AAF02AD6
:1051AC00F974A928FE740439FF9007E2E0F97AE358
:1051BC007B07120C569007F0E0701A7900120CB6AF
:1051CC009007B8E070047900800279017AB97B0706
:1051DC00120C5C80057901120CB675E1F175D923BE
:1051EC009007E2E0C4333354C04405F5D978E07934
:1051FC000788828983A3A3A3E0F5D988828983A336
:10520C00A882A983E864E67003E9640770E375D9A2
:10521C000075D90075D90075D90075D90075D900FC
:10522C00EEF8EFF9E82404FAE93400FBE82422F55F
:10523C0082E93400F583E0F5D988828983A3A882BA
:10524C00A983EA687002EB6970E2EEF8EFF9E824E2
:10525C00031AE93400FBE82426F582E93400F583CF
:10526C00E0F5D988828983A3A882A983EA687002B1
:10527C00EB6970E2EE242BF582EF3400F583E0F558
:10528C00D9EE242CF582EF3400F583E0F5D9EE2429
:10529C002DF582EF3400F583E0F5D9EE242EF5825E
:1052AC00EF3400F583E0F5D9EE242FF582EF3400CE
:1052BC00F583E0F5D9EE2430F582EF3400F583E088
:1052CC00F5D9EE2431F582EF3400F583E0F5D9EE13
:1052DC002432F582EF3400F583E0F5D9EE2433F572
:1052EC0082EF3400F583E0F5D9EEF8EFF9E8240508
:1052FC00FAE93400FBE8245DF582E93400F583E03B
:10530C00F5D988828983A3A882A983EA687002EB05
:10531C006970E2EE2437F582EF3400F583E0541F18
:10532C00F8EE242AF582EF3400F583E0C43354E020
:10533C0048F5D975E19590124E7460F0A3740BF09A
:10534C00A37466F0A3740BF0A3745AF0A3740BF05F
:10535C00A3745AF0A3740BF0A3745AF0A3740BF05B
:10536C00A3745AF0A3740BF0A3746CF0A3740BF039
:10537C0090125C745AF0A3740BF0A3745AF0A374DB
:10538C000BF0A3745AF0A3740BF0A3745AF0A3742B
:10539C000BF0A3745AF0A3740BF0A3745AF0A3741B
:1053AC000BF09007EFE0F9122C697AD67BBE7C8962
:1053BC007D8E120C987A557B557C557D00120C62B3
:1053CC0090600DE4F07901120CEC9004797406F005
:1053DC0002599374E81220389007E0E0F8A3E0F546
:1053EC00838882A3A3780C121E809007F1E0FAF850
:1053FC0075F005A4C8ACF02CF974D728F5827404A8
:10540C0039F583E0FEA3E0FFEEC333FEEF33FF8EEE
:10541C0014F515751600751700850C08850D098592
:10542C000E0A850F0B75100475110075120075139B
:10543C000078087910121DE67808122247850C08AE
:10544C00850D09850E0A850F0B78087914121DE657
:10545C00780C7914121D2BE4F516F51778087914CD
:10546C00121E1F8A0C750D007403780C121FB5E503
:10547C000D3395E0F50EF50F7808790C121DE675D5
:10548C000CFF750DFF750EFF7808790C121E47AADC
:10549C0008AB09AC0A7D00122C147404121FDE8AAE
:1054AC00088B09A808A909C3EE98EF995006E82EB5
:1054BC00F8E93FF9E890600EF0E9A3F0EEA3F0EF05
:1054CC00A3F090600D74C1F07F1002210AC082C05D
:1054DC00839007C9E0F8A3E0C82406F582E83400FD
:1054EC00F583E4F0A3F09007DD024FCBC082C083BC
:1054FC009007E0E0F8A3E0C82406F582E83400F554
:10550C0083E4F0A3F09007EF024FCB02011F74F677
:10551C001220389061D0E0F87480C398FCEA2482A1
:10552C00F582EB3400F583E06004780480027800A7
:10553C00E8240EF8ECC39850030256467C0C9007F6
:10554C00FBE4F0EA2476F582EB3400F583E0900777
:10555C00FCF0EA2477F8EB3400F988828983E09038
:10556C0007FDF088828983A3E09007FEF0EA247996
:10557C00F8EB3400F988828983E09007FFF0888289
:10558C008983A3E0900800F0EA247BF8EB3400F95F
:10559C0088828983E0900801F088828983A3E09057
:1055AC000802F0EA247DF8EB3400F988828983E064
:1055BC00900803F088828983A3E0900804F0EA2421
:1055CC0074F8EB3400F98A828B83A3A3A3A3A3E022
:1055DC00FEA3E0FF88828983E02EF0A3E03FF088F1
:1055EC00828983E0900805F088828983A3E0900883
:1055FC0006F0EA2482F582EB3400F583E06017753F
:10560C0008FB750907780812224B7903120B4E74AC
:10561C0002121FDE7C1074012CF5D975D90375822A
:10562C00FB758307ECFEE0F5D9A31EEE70F875E16F
:10563C00957904120C9E790180027900025B437407
:10564C00F61220389061D0E0F87480C398FCEA24FC
:10565C0082F582EB3400F583E060047804800278F4
:10566C0000E8240AF8ECC398500302573E7508086A
:10567C009007FB7401F07CBF7D0778FC79077E05F1
:10568C008C828D83E088828983F08C828D83A3AC9D
:10569C0082AD8388828983A3A882A9831EEE70E0E1
:1056AC00EA2480FCEB3400FD8A828B83A3A3A3A3A2
:1056BC00A3E0FEA3E0FF8C828D83E02EF0A3E03FFD
:1056CC00F08C828D83E088828983F08C828D83A319
:1056DC00AC82AD8388828983A308A9838C828D8355
:1056EC00E088828983F0EA2482F582EB3400F5832A
:1056FC00E0601A7508FB750907780812224B7C08C4
:10570C007903120B4E7402121FDE75080C740125FE
:10571C0008F5D975D9037582FB758307AE08E0F5DA
:10572C00D9A31EEE70F875E1957904120C9E7901DF
:10573C0080027900025B4374F7122038EAFEEBFF1B
:10574C009061D0E0600302582A75D91875D9037599
:10575C00D903EEF8EFF9E82408FAE93400FBE82461
:10576C009BF582E93400F583E0F5D988828983A31F
:10577C00A882A983EA687002EB6970E2EE24A3F5B3
:10578C0082EF3400F583E0F5D9EE24A4F582EF34F2
:10579C0000F583E0F5D9EE2493F582EF3400F58320
:1057AC00E5822408F8E5833400F9E0F5D9A3E8652F
:1057BC00827003E9658370F2EE2487F582EF340082
:1057CC00F583E5822404F8E5833400F9E0F5D9A3E8
:1057DC00E865827003E9658370F275E1957908EEEE
:1057EC002493FAEF3400FB120B067904EE2487FAAB
:1057FC00EF3400FB120B067904120C9EEE246FF5AD
:10580C0082EF3400F583E0F8A3E0F9EE2471F58221
:10581C00EF3400F583E8F0A3E9F079018002790018
:10582C0002599374F6122038EAFEEBFF9007FB74D2
:10583C0006F07508FB750907780812224B7C017974
:10584C0003120B4E7402121FDE75D90675D903753F
:10585C0082FB758307E0F5D9A3E58264007004E54B
:10586C0083640870F075E195900479E06408701E0B
:10587C00EE246FF582EF3400F583E0F8A3E0F9EE47
:10588C002471F582EF3400F583E8F0A3E9F0790197
:10589C00025B4374F6122038EAFEEBFF9061D0E015
:1058AC00705E9007FB740AF07508FB7509077808A1
:1058BC0012224B7C017903120B4E7402121FDE75FF
:1058CC00D90675D9037582FB758307E0F5D9A3E575
:1058DC008264007004E583640870F075E195EE2431
:1058EC006FF582EF3400F583E0F8A3E0F9EE247154
:1058FC00F582EF3400F583E8F0A3E9F0790180023A
:10590C007900025B4374F6122038EAFEEBFF9061DB
:10591C00D0E0706678019007FB740BF0900479E08E
:10592C00640770197508FB750907780812224B7CFF
:10593C00017903120B4E7402121FDE7805740128D4
:10594C00F5D975D9037582FB758307E8FAE0F5D9AB
:10595C00A31AEA70F875E195EE246FF582EF340026
:10596C00F583E0F8A3E0F9EE2471F582EF3400F54D
:10597C0083E8F0A3E9F0790180027900025B43F03F
:10598C00EEA2E092AF79007F0102210A74F6122098
:10599C0038EAFEEBFF9061D0E0F87480C398FAEE21
:1059AC002482F582EF3400F583E0600478048002F1
:1059BC007800E8240BF8EAC3985003025A6E7D096C
:1059CC009007FB7408F0EE24E4F8EF3400F97AFC4D
:1059DC007B077C0888828983E08A828B83F08882AB
:1059EC008983A3A882A9838A828B83A3AA82AB838F
:1059FC001CEC70E0EE2482F582EF3400F583E0605D
:105A0C001D7508FB750907780812224B7C09790370
:105A1C00EEFAEFFB120B4E7402121FDE7D0D7401B9
:105A2C002DF5D975D9037582FB7583078D08E0F5C3
:105A3C00D9A31508E50870F675E1957904120C9E4A
:105A4C00EE246FF582EF3400F583E0F8A3E0F9EE75
:105A5C002471F582EF3400F583E8F0A3E9F07901C5
:105A6C0080027900025B4374F6122038EAFEEBFFE9
:105A7C009061D0E0F87480C398FAEE2482F582EF3E
:105A8C003400F583E06004780480027800E8240890
:105A9C00F8EAC3985003025B4178069007FB740C3C
:105AAC00F0900496E09007FCF0900497E09007FDCE
:105ABC00F0900498E09007FEF0900499E09007FFB6
:105ACC00F090049AE0900800F0EE2482F582EF3416
:105ADC0000F583E0601B7508FB7509077808122236
:105AEC004B7C067903EEFA120B4E7402121FDE7811
:105AFC000A740128F5D975D9037582FB758307885B
:105B0C0008E0F5D9A31508E50870F675E195790458
:105B1C00120C9EEE246FF582EF3400F583E0F8A3AF
