:020000040000FA
:0600000002010702222F9D
:03002B000224B7F5
:030033000224990B
:03003B000224D8C4
:0300430002244D47
:030053000222A2E4
:03006B00022473F9
:1000830002209BE5C754F84401F5C779012200001B
:100093000080FB120086B900030200F1E4791A78AC
:1000A30002B800028004F709D8FCE4791C7802B88E
:1000B30000028004F709D8FCE4900281783F7910AC
:1000C3008002F0A3D8FCD9FA7ABF7B11900137786C
:1000D300E379018015E493A3AD82AE838A828B8397
:1000E300F0A3AA82AB838D828E83D8E9D9E7758288
:1000F300C67583E7740312011975829175830074C1
:100103000012011975D00075813F751881751902A8
:10011300759F00020096C09FF59FE473D09F22D085
:1001230083D082C09FE493C0E0740193C0E0740263
:1001330093F59F22A503B703E103AB03FF0000B4CC
:10014300000028002800283075A000A000A000A00F
:100153000000080008E001F000100010001000107B
:10016300001000100050005000500010001000D08C
:10017300070000000000000F0001000500307507B4
:10018300001000010081FF00000000FF0202024D89
:1001930087010000388702438701000017120255C8
:1001A30087010000B20202438701000018120247D0
:1001B30087010000C802FFFF0100FF20024D8701F5
:1001C30000003B870243870100004612024F87006D
:1001D30000000000024187030000A5030D0B0D0B77
:1001E3000D0B0D0B0D0B0D0B0D0B0D0B0D0B0D0B4C
:1001F3000D0B0D0B0D0BE10CFF0CDB0CFFFF01E8EE
:1002030003053F10020AFA000500FF00FEFF00008D
:10021300000002000000120122A1DE03120122B736
:10022300DE03120122E6DE031201221CDF031201A8
:100233002233DF031201224ADF0312012281DF038B
:10024300120122D4DF03120122EBDF03120122A4E5
:10025300D603120122BBD603120122ECD6031201EC
:100263002227D70312012251D7031201227BD7037E
:1002730012012292D703120122A9D703120122C02D
:10028300D703120122E9D703120122FCD70312017B
:100293002212D8031201223CD803120122C5F20113
:1002A300120122C9F301120122F6F3011201224CB9
:1002B300F4011201226FF40112012283F4011201ED
:1002C3002285F401120122A8F401120122B7F501DB
:1002D3001201227BF60112012250F701120122C101
:1002E300F7011201224DF80112012250F801120107
:1002F30022D8F80112012213F9011201227AF9011D
:100303001201227DF901120122B4F901120122DD49
:10031300F90112012288FA0112012212FB011201D2
:100323002261FB011201226EFB0112012271FB010A
:10033300120122D1FB01120122DCFB011201225B1B
:10034300FC011201225EFC0112012271FC01120167
:100353002274FC0112012203FD011201221DFD0181
:100363001201222DFD011201225DFD011201226AFB
:10037300FD011201226DFD01120122EEFD011201A8
:1003830022DCFE011201228EFF011201225BCE024A
:1003930012012253CF0212012287CF021201220936
:1003A300D00212012229D00212012271D0021201BD
:1003B30022C4D00212012228D102120122B5D10295
:1003C3001201226FD2021201227ED50212012209EA
:1003D300D7021201222CD7021201228BB50312017C
:1003E3002228B7031201228CB703120122EBB703B1
:1003F300120122F9B70312012222B8031201225F6C
:100403009103120122879103120122B59103120174
:1004130022EC91031201224A9203120122959203C4
:10042300120122E092031201222093031201226699
:100433009303120122949303120122519403120194
:10044300225B94031201226894031201229B9403FA
:100453001201226795031201227395031201228B65
:10046300950312012295950312012213960312019B
:1004730022D7E603120122E5E603120122FDE60379
:1004830012012215E7031201222DE70312012200B4
:100493008002120122AC8002120122278102120182
:1004A300224882021201228482021201222D830237
:1004B300120122148402120122788502120122CF32
:1004C3008502120122508602120122408702120184
:1004D300228D87021201221388021201224588020B
:1004E300120122598A021201229B8A02120122B9A5
:1004F3008A021201225B8B02120122238C02120157
:1005030022308E02120122D1BC03120122E7BC0366
:100513001201220DBD0312012229BE03120122334F
:10052300BE0312012268BF0312012260C00312013D
:1005330022B59B03120122599C031201228C9C03B6
:10054300120122D69C03120122999E031201228CCE
:10055300B30112012205B40112012215B4011201E3
:100563002203B5011201220DB50112012232B50198
:100573001201223DB50112012227B6011201228A7E
:10058300B60112012240B70112012227B90112015B
:1005930022E0BA01120122BCBB0112012270BC018C
:1005A300120122ADBF011201225BC001120122CA56
:1005B300C1011201224AC301120122F1C301120136
:1005C300223AC40112012271C4011201220EC50193
:1005D30012012299C50112012276C601120122CB12
:1005E300C6011201222AC8011201223AC8011201CE
:1005F3002267C801120122BEC80112012267C90184
:100603001201226ECA0112012238CB011201229873
:10061300CC01120122DBCC0112012280CD01120197
:1006230022A6CD01120122B4CF01120122B9CF01BA
:10063300120122BED1011201220BD2011201227E2C
:10064300D201120122B1D20112012253D3011201AC
:1006530022FCD30112012234D40112012237D40126
:100663001201227FD401120122C1D40112012218E6
:10067300D50112012249CA031201225CCA031201E5
:10068300226ACA03120122B2CA03120122C8CA0390
:100693001201220FCB0312012223CC03120122B039
:1006A300CC03120122FBCC031201220360001201CE
:1006B30022136000120122766000120122BB600047
:1006C3001201227161001201224C62001201227593
:1006D3006200120122A56200120122E564001201E8
:1006E30022CC6600120122A46800120122E86900EC
:1006F3001201224F6C001201225D6D00120122AF24
:100703006E00120122B96F00120122FB6F00120169
:1007130022337000120122557000120122B87000BA
:100723001201227A75001201220F76001201226350
:1007330076001201228A7600120122C87600120185
:1007430022E776001201224177001201224178004C
:10075300120122C678001201220080031201220A2C
:100763008003120122B28003120122F580031201D9
:1007730022108103120122A08103120122C88103E6
:100783001201220082031201223782031201226026
:1007930082031201229A8203120122AF8203120101
:1007A300227C83031201229F8303120122C183034C
:1007B300120122D683031201225C840312012296C2
:1007C30084031201220E85031201225785031201AD
:1007D30022818503120122AC8503120122C0E203A8
:1007E300120122498E02120122778E02120122D2B5
:1007F3008F02120122B29002120122D19002120141
:10080300224E91021201229191021201220C9302B3
:100813001201227B9302120122A695021201222ABF
:100823009802120122DB9802120122D199021201CD
:1008330022719A021201226F9B02120122FA9B0279
:100843001201226DE103120122D6E1031201222AD1
:10085300E20312012259E2031201227AE203120196
:100863002236A003120122A3A003120122EAA0034D
:1008730012012202A203120122FEA203120122E1AB
:10088300A3031201222D79001201226F79001201B4
:1008930022487A00120122427B00120122247C00AA
:1008A3001201228D7C00120122A97D001201221562
:1008B3007E00120122187E00120122417E001201E5
:1008C30022BB7E00120122607F00120122757F008D
:1008D300120122BB7F00120122D47F00120122D712
:1008E3007F001201226AC003120122A6C003120173
:1008F30022E4C003120122AEC1031201221DC2036E
:1009030012012258C20312012296C203120122C607
:10091300C203120122EDC2031201225BC3031201BF
:10092300229DC3031201225B87011201227A8901EE
:100933001201225D8B01120122998B01120122C641
:100943008B011201228D8C01120122D88C0112011C
:1009530022238D01120122358D01120122758D0191
:10096300120122A98D01120122F78D011201222801
:100973008E011201224B8E01120122D28E0112012D
:1009830022BA8F01120122A79001120122A0910124
:10099300120122AF9301120122519901120122A1E6
:1009A3009901120122189C01120122AAD2031201F9
:1009B300225FD4031201222C4300120122DB4300E5
:1009C3001201222544001201225B4500120122F18B
:1009D3004600120122664700120122A747001201B6
:1009E30022F947001201226A4900120122AF4B008B
:1009F300120122A94C00120122C84C00120122E765
:100A03004C00120122EA4C001201221B4E0012017B
:100A130022134F00120122FF4F001201226F5000D8
:100A2300120122E1500012012268510012012243F7
:100A33005200120122185300120122F7530012012F
:100A430022825400120122F0540012012264550044
:100A53001201228F55001201224E56001201223B31
:100A63005900120122845900120122C759001201B0
:100A730022405A00120122D85A00120122C95B00F7
:100A8300120122EE5B00120122345C001201225E8D
:100A93005C00120122A65C00120122215D001201FA
:100AA300227B5D00120122E45E00120122925F00AC
:100AB300120122D35F00120122AAAA02120122F814
:100AC300AA0212012204AB02120122E2AB021201BA
:100AD3002213AC0212012244AC02120122C4AC0262
:100AE300120122FCAC021201224EAD021201228B32
:100AF300AD02120122A8AF02120122CEB1021201ED
:100B030022B9B302120122A3B50212012241250028
:100B1300120122D485031201221F8A0312012263C8
:100B23008B0312012271E40112012229E701120150
:100B3300222FE701120122E9E901120122B6EC0199
:100B43001201229B96031201223F970312012211E5
:100B530098031201223B9803120122899A0312017E
:100B6300224C2500120122962500120122D73300C0
:100B73001201225C35001201227F3600120122F09D
:100B83003C00120122EB3D00120122283E0012011B
:100B9300224B3E001201228D3E00120122973E009D
:100BA300120122853F001201227B40001201221410
:100BB3004100120122E5C303120122DFC403120123
:100BC3002253C50312012291C50312012205C60354
:100BD3001201227EC60312012287C6031201229349
:100BE300C603120122A8C603120122E6C60312019C
:100BF30022FCC6031201224DF6021201225AF6020A
:100C030012012274F602120122B3F602120122F13A
:100C1300F60212012256F7021201226BF7021201A9
:100C23002282F70212012290F7021201229FF70299
:100C3300120122B4F702120122C9F702120122D4CF
:100C4300F702120122E0F702120122EDF70212016C
:100C530022FCF70212012207F8021201222CF802E9
:100C6300120122D3F802120122E8F802120122FD36
:100C7300F80212012217F90212012232F9021201BB
:100C8300224FF9021201225AF90212012216FA0224
:100C930012012202FB0212012227FB02120122325D
:100CA300FB0212012247FB021201225BFB0212012B
:100CB30022BCFB02120122C2FB02120122C8FB0268
:100CC300120122CEFB02120122E6FB0212012219BB
:100CD300FC0212012205C40212012227C4021201DE
:100CE3002207C502120122DEC7021201220AC9022B
:100CF3001201222ECA02120122E0CA02120122812B
:100D0300CB02120122809C02120122049D021201D5
:100D130022B39D02120122129F0212012233A10269
:100D23001201221FA20212012254A20212012276F0
:100D3300A20212012225A3021201221DA502120101
:100D43002246A502120122D8A5021201220AA602F6
:100D530012012217A6021201226EA6021201229488
:100D6300A60212012201A90212012204AA021201FF
:100D7300225CAA0212012205D6011201220FD70119
:100D8300120122F6D70112012200D80112012222F8
:100D9300D8011201222ED801120122C7D901120152
:100DA30022F6D90112012212DB011201226BDB01AF
:100DB300120122D1DC01120122B0DD011201220C49
:100DC300DE0112012279DE01120122B4DE011201D9
:100DD30022F3DE01120122ACE101120122C6E1017C
:100DE30012012252E20112012260E201120122B930
:100DF300E201120122C7E2011201223AE3011201C8
:100E0300229EE301120122E8E3011201224ED803DC
:100E130012012273D803120122E5D80312012242E0
:100E2300E8021201224BE80212012254E8021201E5
:100E3300222BE902120122DCEA0212012212EB0246
:100E43001201224CEB0212012282EB02120122BC9C
:100E5300EB02120122F0EB021201221CEC0212013E
:100E63002265EC021201229FEC02120122E8EC023D
:100E730012012240ED0212012275ED02120122D06D
:100E8300ED021201220AEE021201225BEE021201AE
:100E93002291EE02120122CBEE02120122EEEE02A9
:100EA30012012227EA0312012253EA03120122AE9E
:100EB300EA03120122B8EA03120122C8EA0312016B
:100EC300224DE00212012257E00212012295E002B4
:100ED300120122DEE00212012218E1021201226E47
:100EE300E1021201228FE10212012214E402120133
:100EF300221DE40212012268E40212012291E4029B
:100F03001201229BE40212012207E5021201229D33
:100F1300E502120122E7E50212012217E60212019D
:100F230022A0E602120122E0E60212012218E702E1
:100F33001201222AE70212012249E7021201225278
:100F4300E70212012218E802120122E0E50312016E
:100F530022B5D403120122EBD40312012221D503BB
:100F63001201226AD603120122AAEC03120122C043
:100F7300EC03120122CAEC031201226AB10312012B
:100F8300227FB10312012232B20312012272B20391
:100F93001201228BB203120122BFB2031201220CEF
:100FA300B30312012240B30312012282B3031201DD
:100FB300227EB50312012274ED0312012290DB039A
:100FC300120122B9DB03120122E2DB031201227DAB
:100FD300DC0312012295DC03120122D7DC03120188
:100FE30022A4E803120122DCE8031201220EE90322
:100FF3001201223AE9031201222CC7031201225ED5
:10100300C7031201226CC80312012227C90312016C
:101013002239C90312012241C90312012268C903FB
:10102300120122EEC903120122F7C9031201228E13
:10103300EF02120122F2EF0212012292F0021201D8
:101043002217F102120122A3A4031201220DA50308
:1010530012012233A703120122D2EA031201220151
:10106300EB031201220EEB031201225DEB031201CB
:101073002274EB03120122A68B03120122E58B03D8
:101083001201226E8C03120122838C03120122CEE1
:101093008C03120122028D03120122418D031201DE
:1010A30022508D03120122028E031201225B8E0352
:1010B300120122AA8E03120122008F03120122F5CC
:1010C3008F03120122EA90031201222791031201D6
:1010D3002202E00312012214ED03120122319E01C8
:1010E300120122B1A00112012224A2011201222124
:1010F300A301120122AAA3011201222EA4011201AB
:101103002253A401120122A3A40112012238A8012F
:10111300120122ACA80112012298A901120122D2C4
:10112300A90112012212AA01120122BDAB0112016F
:1011330022EEAB0112012241AC011201228AAC0161
:10114300120122F8AC011201222AAD01120122423E
:10115300AD0112012257AE0112012267AE01120145
:101163002285AF01120122A7AF01120122DDAF01D7
:1011730012012286B101120122FFB1011201223EA6
:10118300B20112012255B30112012271E9031201C6
:101193002282E90312012228EE0312012267EE03E1
:1011A3001201225FEF0312012277EB031201228760
:1011B300EB03120122A2EB031201220AEC03120138
:1011C30022D9E3031201225EE403120122C4E403E1
:1011D3001201221CDD0312012245DD03120122B09C
:1011E300DD0312012201DE031201225ADE03120182
:1011F300220FA90312012246A903120122B6A90351
:10120300120122CBA903120122E1AA0312012263D4
:10121300AB0312012229AC0312012248AC031201D1
:10122300226FAC03120122A4AC03120122BCAC0353
:101233001201220DAD0312012236B9031201224716
:10124300B903120122C4B90312012299BA0312018C
:10125300226BBC03120122E9CF0312012279D003CE
:10126300120122F7D0031201228CD103120122169C
:10127300D20312012220D20312012234D20312011B
:101283002247D203120122A7D20312012296FC02A3
:10129300120122B1FC02120122E0FC021201220F10
:1012A300FD021201223BFD0212012284FD02120102
:1012B30022D5FD0212012216FE0212012255FE0260
:1012C300120122A1FE0212012206FF021201225A7A
:1012D300FF02120122DDE4031201224EE503120193
:1012E300226CE503120122F3D90312012243DA032C
:1012F300120122CCDA0312012232DB03120122256E
:10130300CD031201224FCD0312012215CE03120188
:1013130022F0CE0312012277CF0312012257D80203
:1013230012012214D9021201224FD902120122778B
:10133300D902120122D9D90212012225DA0212019D
:101343002285DA0212012218DB0212012217DC02C3
:10135300120122A6DD0212012229DE0212012290CD
:10136300DE02120122A7DE02120122B1DF02120104
:1013730022EFDF021201227EB80212012281B9029A
:1013830012012288BB02120122C1BD021201228C6A
:10139300BE02120122AFBE02120122E4C0021201F8
:1013A3002236C102120122CAC102120122F3C20271
:1013B30012012290C302120122FB7F00120122714B
:1013C300EE03120122EDEE03120122D3ED0312010B
:1013D30022E4ED0312012242AD0312012214EC03B5
:1013E3001201223EEC03120122B7EE03120122196D
:1013F300EF0312012241EF03000022E76670100899
:1014030009E766700A0809E76670040809E76622B7
:10141300E066701008A3E066700A08A3E066700433
:1014230008A3E06622C3E09608A3E09608A3E0962B
:1014330008A3E096A2D265D03322C3E7960809E752
:10144300960809E7960809E79622C3E09608A3E001
:101453009608A3E09608A3E09622C008C3E096F599
:101463000808A3E096420808A3E096420808A3E010
:101473009645087001D3D00822080808EAC0E0EBBB
:10148300C0E086F0E7A4FA180986F0E7A42AFA1860
:101493000986F0E7A42AFA180986F0E7A42AFA19BC
:1014A30086F0E7A4FBE5F02AFA190886F0E7A42BF7
:1014B300FBE5F03AFA190886F0E7A42BFBE5F03ACE
:1014C300FA18180986F0E7A4C5F02BFBE43AFA19D9
:1014D30008E7C5F0C6A426F6E5F03BFBE43AFA18A4
:1014E30086F0E7A4F6E5F00826F6E43B08F6E43ACE
:1014F30008F6D0E0FBD0E0FA22E4CFC0E0E4CEC0AF
:10150300E0E4CDC0E0E4CCC0E075F020E626F608C8
:10151300E633F608E633F608E633F6181818EC3324
:10152300FCED33FDEE33FEEF33FFC3EC9709ED978C
:1015330009EE9709EF97191919400FFFEC97FC096A
:10154300ED97FD09EE97FE191906D5F0BFECF709E3
:10155300EDF709EEF709EFF7191919D0E0FCD0E020
:10156300FDD0E0FED0E0FF22E4C396F608E496F651
:1015730008E496F608E496F6226016080808C6C33F
:1015830013C618C613C618C613C618C613C6D5E0A5
:10159300EA227009080808226016181818C6C3330F
:1015A300C608C633C608C633C608C633C6D5E0EA7E
:1015B30022E627F60809E637F60809E637F60809AA
:1015C300E637F622E026F608A3E036F608A3E0366F
:1015D300F608A3E036F622E026F008A3E036F0088A
:1015E300A3E036F008A3E036F022C3E697F6080935
:1015F300E697F60809E697F60809E697F622C3E0A8
:1016030096F008A3E096F008A3E096F008A3E0960E
:10161300F022E657F60809E657F60809E657F608F2
:1016230009E657F622E056F008A3E056F008A3E0D7
:1016330056F008A3E056F022E667F60809E667F6D7
:101643000809E667F60809E667F622E0F608A3E06C
:10165300F608A3E0F608A3E0F622E6F008A3E6F016
:1016630008A3E6F008A3E6F022E0FAA3E0FBA3E078
:10167300FCA3E0FD22EAF0A3EBF0A3ECF0A3EDF072
:1016830022E0F8A3E0F9A3E0FAA3E0FB22E8F0A349
:10169300E9F0A3EAF0A3EBF022CAC0E0E6F0A30866
:1016A300DAFAD0E0FA22CAC0E0E0A3C582CCC58250
:1016B300C583CDC583F0A3C582CCC582C583CDC503
:1016C30083DAE6D0E0CA22C3E498F8E499F9121762
:1016D3000B8026C3E49AFAE49BFBE920E7E912179F
:1016E3000BE498F8E499F922C3E498F8E499F91221
:1016F300170BE498F8E499F9C3E49AFAE49BFB2204
:10170300EB20E7CFE920E7E0B90010BB0008E88A47
:10171300F084F8AAF022E4FBC8FA22EB70227B10D3
:10172300C833C8C933C9335007C39AC3DBF2800631
:101733009A50012ADBEAC833F4C8C933F4C9FA2240
:1017430075F008E4C833C8C933C933C99AC99B5073
:1017530004C92AC93BD5F0ECFBC833F4C8E4C9FA81
:1017630022600D08C6A2E713C618C613C6D5E0F358
:1017730022600C08C6C313C618C613C6D5E0F422EC
:10178300700422600D18C6C333C608C633C6D5E03D
:10179300F41822251810AF08F518400C1519800805
:1017A300F51840021519D2AF2200C0D0251810AF8A
:1017B30008F518500C05198008F51850020519D2C0
:1017C300AFD0D0222518F58210AF08F518400C15BC
:1017D300198008F51840021519D2AF8519832225FF
:1017E30018F582E43519F583222518F8E43519F93B
:1017F300222518FAE43519FB222518FCE43519FDD6
:1018030022E4732518C582C0E0E51934FFC583C0FF
:10181300E0E518C3958224F810AF08858319858203
:10182300188008858319858218D2AFCEF0A3E520EE
:10183300F0A37808E608F0A3DEFAEFF0A3E581242D
:10184300FAF8E608F0A3E608F0A3E608F0A3080810
:10185300E608F0A3E608F0A315811581D0E0FED0D9
:10186300E0F8158115811581E8C0E0EEC0E022257E
:1018730018C582C0E0E51934FFC583C0E0E518C38D
:10188300958224F910AF088583198582188008850D
:101893008319858218D2AFCEF0A3E520F0A3780890
:1018A300E608F0A3DEFAEFF0A3E58124FBF8E608EF
:1018B300F0A3E608F0A30808E608F0A3E608F0A3FF
:1018C30015811581D0E0FED0E0F815811581E8C0BF
:1018D300E0EEC0E022851983851882E0A3FEE0A331
:1018E300F5207808E0A3F608DFFAE0A3FFE0A3C041
:1018F300E0E0A3C0E0E0A3C0E0E0A3C0E0E0A3C059
:10190300E010AF08858218858319800885821885C1
:101913008319D2AFD083D08202011F851983851822
:1019230082E0A3FEE0A3F5207808E0A3F608DFFA3F
:10193300E0A3FFE0A3C0E0E0A3C0E0E0A3C0E0E0D9
:10194300A3C0E010AF0885821885831980088582BB
:1019530018858319D2AFD083D08222C0D02518C571
:1019630082C0E0E51934FFC583C0E0E518C3958262
:1019730024F310AF0885831985821880088583199D
:10198300858218D2AFC8F0A3E9F0A3EAF0A3EBF085
:10199300A37908E709F0A3D8FAECF0A3EDF0A3EEDE
:1019A300F0A3EFF0A3D0E0F0A3D0E0F0A3D0E0F0F9
:1019B300A3E520F0A3E5F0F0A3228519838518821F
:1019C300E0C0E0A3E0F9A3E0FAA3E0FBA37808E01A
:1019D300F608A3DFFAE0FCA3E0FDA3E0FEA3E0FF2B
:1019E300A3E0C0E0A3E0C0E0A3E0F5D0A3E0F520CE
:1019F300A3E0A3F5F010AF0885831985821880084A
:101A0300858319858218D2AFD082D083D0E0F8D0F5
:101A1300E03274048006740280027401C0E0F404AE
:101A23001217C7D0E012169C22740480047402803B
:101A330000CCC0E0EDC0E0E518C39CCCAD1950016B
:101A43001D10AF068C188D1980068C188D19D2AF16
:101A53001216A9D0E0FDD0E0FC22D083D082E9C0E9
:101A6300E0E493A3C386F0C5F095F0F908E493A3EB
:101A730086F0C5F095F0700BE493A3C3994005E994
:101A8300048002A3E475F002A42582F582E5F03513
:101A930083F583D0E0F9E493A3C0E0E493C0E022AC
:101AA300D083D082ECC0E0EDC0E0E493A3FCE493E8
:101AB300A3FDED4C600D121AEFEC24FFFCED34FF97
:101AC300FD80EFE493A3FCE493A3FDED4C600D12C2
:101AD3001B2EEC24FFFCED34FFFD80EFD0E0FDD0A6
:101AE300E0FCE493A3C0E0E493C0E022C0E0C3E4DD
:101AF3009396087401939618400FE4936670080850
:101B0300740193661870007019A3A3C3E493960835
:101B13007401939618A3A3400DD0E0D0E0D0E00267
:101B23001ADFA3A3A3A3A3A3D0E022C0E0C0F0883D
:101B3300F0E4936670080874019366187000A8F0C7
:101B4300A3A3700BD0F0D0E0D0E0D0E0021ADFA363
:061B5300A3D0F0D0E02257
:101B5C0074F5121872EAFEEBFFEE2434F8EF340041
:101B6C00F988088909EE2435F582EF3400F583E015
:101B7C00F8EE2437F582EF3400F583E0F50AEC85B6
:101B8C000AF0A4FCAAF0850AF0EDA42AFDE82CF8D2
:101B9C00E43DF97A257B0012170BEA85088285094A
:101BAC0083F0F8740758F97401B900028004C33348
:101BBC00D9FCFAE8131313541FF8EE28F8EF34008D
:101BCC00F9E8245DF582E93400F583E05A6008EE0B
:101BDC002434F582EF802CEE2434F582EF3400F5BA
:101BEC0083E0C0E0EE2436F582EF3400F583E0F5B7
:101BFC00F0D0E084A8F0EE28F8EF3400F9E82438AF
:101C0C00F582E93400F583E0F97F0402191E74F5BE
:101C1C00121872EAFEEBFFEE2434F582EF3400F575
:101C2C0083E0C0E0EE2435F582EF3400F583D0E09C
:101C3C00F08E828F83A3A3A3A3A3A3A3C082C0838C
:101C4C008E828F83A3A3A3A3A3E0F8A3E0F9D08390
:101C5C00D082E0C398F508A3E099F509EE247FF54E
:101C6C0082EF3400F583E064017069EE2480F58224
:101C7C00EF3400F583E0F8A3E0F98E828F83A3A301
:101C8C00A3A3A3A3A3E0FCA3E0FD8E828F83A3A355
:101C9C00A3A3A3E0FAA3E0FBC3EA9CEB9D5010C303
:101CAC00EC98ED99402EC3EA98EB995027800EC31F
:101CBC00EA98EB994007C3EC98ED9940177CBF7DEF
:101CCC0007EEFAEFFB120A53EE247FF582EF340095
:101CDC00F583E4F0EE2434F8EF3400F9E8FCE9FD88
:101CEC00EE2435F582EF3400F583E0F8EE2437F579
:101CFC0082EF3400F583E0F50AE508850AF0A4F5D7
:101D0C0008AAF0850AF0E509A42AF509E82508F8DF
:101D1C00E43509F97A257B0012170BEA8C828D8346
:101D2C00F0F8740758F97401B900028004C333D970
:101D3C00FCFAE8131313541FF8EE28F8EF3400F9EB
:101D4C00E8245DF582E93400F583E05A6008EE245E
:101D5C0034F582EF802CEE2434F582EF3400F583D9
:101D6C00E0C0E0EE2436F582EF3400F583E0F5F0C8
:101D7C00D0E084A8F0EE28F8EF3400F9E82438F528
:101D8C0082E93400F583E0F9122439021C1574EF52
:101D9C00121872900479E064086005E06407702AF8
:101DAC009061C8E060249004A7E0F4601DE0F87531
:101DBC00F005A4C8AAF02AF974A928FE740439FF06
:101DCC008E828F83A3A3A3E07003021ECA9060606F
:101DDC00E0C0E0EE2468F582EF3400F583D0E0F04B
:101DEC00750CFB750D07750800750900E5D914F520
:101DFC000AE5D95403F50E60177403650E605CE5B3
:101E0C000A6010EE2467F582EF3400F583E070036E
:101E1C00021EAF9007F6E06401602AEE2482F58280
:101E2C00EF3400F583E06004780480027800850AC2
:101E3C0008E508C398FA95E0FB1209398A088B0962
:101E4C00EA45097005120CB78074EE2482F582EF16
:101E5C003400F583E070048A0C8B0DE50A60128562
:101E6C000C82850D83F50BE5D9F0A3150BE50B70F2
:101E7C00F6EE2482F582EF3400F583E0604474FCC6
:101E8C00250AF50A780C121A19AC0AA90EEEFAEF0B
:101E9C00FB120B0774021217ACE97026AA08AB09E7
:101EAC001212ED793D8E828F83A3A3A3A3E0FA7B5C
:101EBC000012081FEEFAEFFB120A77120B6779007B
:101ECC0080747403650E6056850A107511007810C5
:101EDC00121A19AC0CAD0DAA08AB09120AE3740264
:101EEC001217ACEE2468F582EF3400F583E06480C1
:101EFC007004747F8001E0F50C780C121A1DE50E4D
:101F0C00F50C780C121A1DA90AAC08AD099004A79F
:101F1C00E0FA7B001207DD74021217AC80139004F8
:101F2C0079E06408700BAC0CAD0DEEFAEFFB120B04
:101F3C0037120CC379017F0A02191E74F51218723C
:101F4C0074FC121796EAFEEBFF8908A2AFE433F596
:101F5C0009C2AF806AEE2463F8EF3400F97A007B93
:101F6C0000A2AFE433F50AC2AF88828983E0FCA3F8
:101F7C00E0FDEC4D603A88828983E0FAA3E0FB8AAD
:101F8C00828B83E0FCA3E0FD88828983ECF0A3EDD7
:101F9C00F08A828B83E4F0A3F088828983E0FCA32F
:101FAC00E0FDEC4D700A88828983A3A3E4F0A3F0D2
:101FBC00E50AA2E092AF1212ED9007C6E004F0EE33
:101FCC002463F582EF3400F583E0F8A3E0F9E849E7
:101FDC00603DEE2463F582EF3400F583E02402FAD1
:101FEC00A3E03400FBEA2402F50AEB3400F50B788D
:101FFC000A121A198A828B83E0FCA3E0F9EEFAEF3D
:10200C00FB120AA774021217ACE97003021F61904D
:10201C0007C6E060639007C7E0F89007C6E0C39876
:10202C00500C7402650870509007C8E0604A8E82AC
:10203C008F83A3A3A3A3E0851882851983F0A3E45F
:10204C00F09007C6E0F874021217E2E8F0A3E4F08F
:10205C009007C6E0F89007C5E028F074021217E26A
:10206C00AC82AD83851882851983AA82AB837901F2
:10207C001207E99007C6E4F0E509A2E092AF7404F8
:10208C001217AC021C150000851A87851BC622C0CE
:10209C00E0C0D0E8C0E0E9C0E0EAC0E0EBC0E0ECB2
:1020AC00C0E0EDC0E0EEC0E0C008C009C00AC00B43
:1020BC00C082C083C0F0A2AFE433FEC2AF759B00F8
:1020CC00906182E0A2E05012E591A2E0500C759173
:1020DC00FE7401651A7003121D9AE0A2E55051E5D9
:1020EC0091A2E5504B7591DF900479E0640760058F
:1020FC00E0640870237401651A703579019004A7A7
:10210C00E0FA75F005A4CAA8F028FB74A92AFA74A1
:10211C00043BFB121F478018E0640D701390049B66
:10212C00E004F064287002E4F07A00E0F9120CC9C3
:10213C00906182E0A2E640030221E2E591A2E64032
:10214C00030221E27591BF900479E06405700812D6
:10215C000BD3120BDF8003120BD9751A00120C393A
:10216C00E990047AF07900120C1B1209C37A017BF6
:10217C0000900478E0F9120F21907803E06442702B
:10218C00559007FAE014F0704DC2AF12219A007806
:10219C001DD0E0F618D0E0F6E59F540770057509E0
:1021AC00FF800375097FC4C0E0781CE6F50808E6DB
:1021BC005509F509740B7808121774D0E02508F846
:1021CC00906270E0A2E740F8E8C333906272F0903E
:1021DC006270E0D2E0F0906181E0A2E35009E5E9A1
:1021EC00A2E3500375E9F7A3E0A2E75009E591A239
:1021FC00E7500375917FEEA2E092AFD0F0D083D080
:10220C0082D00BD00AD009D008D0E0FED0E0FDD0AF
:10221C00E0FCD0E0FBD0E0FAD0E0F9D0E0F8D0D090
:10222C00D0E032C0E0C0D0C082C083906183E0A215
:10223C00E05009E5BFA2E0500375BFFEE0A2E150FB
:10224C0009E5BFA2E1500375BFFDE0A2E25009E52C
:10225C00BFA2E2500375BFFBE0A2E35009E5BFA2A9
:10226C00E3500375BFF7E0A2E45009E5BFA2E450C8
:10227C000375BFEFE0A2E55009E5BFA2E550037579
:10228C00BFDFE0A2E65009E5BFA2E6500375BFBF71
:10229C00D083D0828088C0E0C0D0E8C0E0E9C0E044
:1022AC00EAC0E0EBC0E0ECC0E0EDC0E0C0F0E5A7B8
:1022BC00A2E6500FE5A1A2E6500953A7BF75A1BF36
:1022CC00122307E5A7A2E5500CE5A1A2E5500653A1
:1022DC00A7DF75A1DFE5A7A2E15009E5A1A2E150B6
:1022EC000375A1FDE5A7A2E2500CE5A1A2E2500600
:1022FC0053A7FB75A1FBD0F002221874F8121872C8
:10230C00751A01900479E064067015120B8B8A82A1
:10231C008B83A3A3A3A3A3A3E0FAA3E0FB120BC19B
:10232C00A2AFE433FED2AF90047FE0640170187A60
:10233C00207B00900478E0F9120F9F7A207B0090AC
:10234C000478E0F9120F27906182E0D2E6F0900752
:10235C00F7E0602185C61B801690047EE064017056
:10236C0008E5C654F84405F5C653BEFC1220947417
:10237C0001651A60E4EEA2E092AF7F0102191E74AF
:10238C00ED1218728A088B098C0A8D0B74131217B4
:10239C00E2780C12164E7808790C12143D75100167
:1023AC007511C875120075130050127808790C124B
:1023BC0015ED7810790812143D50168010780C79B0
:1023CC00081215ED7810790C12143D400479018037
:1023DC000279007F0C02191E74ED1218728A088B98
:1023EC00098C0A8D0B74131217E2780C12164E78A6
:1023FC000C790812143D40117808790C1215EDAACD
:10240C0008AB09AC0AAD0B80227510007511007574
:10241C0012007513017810790C1215ED78107908EB
:10242C001215B4AA10AB11AC12AD1380A6C082C0A9
:10243C0083E9906000F0D083D08222C2AF0200000A
:10244C0022C0E074F212195EA2AFE433FED2AFC226
:10245C00C0E5D1A2E4500653D1EF121287EEA2E0F0
:10246C0092AF7F010219BDC0E074F212195EA2AFE7
:10247C00E433FED2AFE589A2E150031211EB75896A
:10248C0000C2C5EEA2E092AF7F010219BDC0E0749C
:10249C00F212195EA2AFE433FED2AFE58BA2E0508C
:1024AC00031211EB758B00C2E880D8C0E0C0D0E8F5
:1024BC00C0E0E9C0E0E5A8D2AFC2C7A2E7A2E792AC
:1024CC00AFD0E0F9D0E0F8D0D0D0E032C0E0C0D04E
:1024DC00E8C0E0E9C0E0C008C009C082C083A2AF78
:1024EC00E433F9D2AF901090E0F8A3E06870085391
:1024FC009AFBA374018025C2E9901090E0F5087452
:10250C00012508F074102508F582E43410F583E0F9
:10251C00F5C1901090E0C394804002E4F0E9A2E091
:10252C0092AFD083D082D009D008D0E0F9D0E0F8B7
:10253C00D0D0D0E03202011FFFFFFFFFFFFFFFFFF3
:10254C00C082C083784C790888828983A3A3A3A313
:10255C00A3A3E4F088828983A3A3A3A3A374FFF0AD
:10256C00E82418F8E93400F9E864AC7003E964086D
:10257C0070D690084E74FFF090084DE4F090084C23
:10258C00F090084FF0A3F0023E4474EC1218069041
:10259C00084FE0F508A3E0F509E5084509700612B7
:1025AC0009C30233D2850882850983E014601814AC
:1025BC00601524FE601124C47003022DD824C07051
:1025CC0003022DD80233D2E0F9120B798A0A8B0B55
:1025DC00AE0AAF0B9004A6E070030229D6120A6B68
:1025EC00E9F875F005A4C8AAF02AF974A928F50C25
:1025FC00740439F50D850C82F583E0F50AA3E0F53A
:10260C000BAC0AFDEEFAEFFB120B73E9F50E74023C
:10261C00650E700302297E8E828F83E024FE600A91
:10262C0024FE70030228680233D2EE65087003EFB3
:10263C00650960211209E19007DAE06401701690D7
:10264C0007D9E070107901120C87120C57120C810B
:10265C007900120C8DE50E6021E5082415F582E554
:10266C00093400F583E060129007D5E0F8A3E0F997
:10267C00A3E0687003A3E0697042120BEB8A0C8B29
:10268C000D8C0E8D0F7510037511007512007513DE
:10269C0000780C79101215B47510FF7511FF7512B6
:1026AC00FF780C79101216158E828F83A3A3E50C7C
:1026BC00F0A3E50DF0A3E50EF0A3E4F0E508241576
:1026CC00F582E5093400F583E0640160030227809C
:1026DC00850A82850B83A3A3750CF1750DFF750E0E
:1026EC00FF750FFF780C1215C7780C121A158E8215
:1026FC008F83A3A3C082C0839007D7E0F508A3E023
:10270C0085080CF50DE4F50EF50FD083D082780C0E
:10271C001215C7AA0CAB0DAC0EAD0F12238B7404A3
:10272C001217ACE9701F8E828F83A3A3C082C08363
:10273C009007D7E0F508A3E0F509E4F50AF50BD00E
:10274C0083D0828014850A82850B83A3A37508F13C
:10275C007509FF750AFF750BFF78081215C7750C04
:10276C00FF750DFF750EFF750F007808790C1216AA
:10277C0015022CD0EE240EF582EF3400F583121ADC
:10278C002C8E828F83A3A312166C12238B740412CB
:10279C0017ACE9640160030232F3850A82850B836E
:1027AC00A3A3750CF1750DFF750EFF750FFF780C5B
:1027BC001215C7780C121A158E828F83A3A3C082B0
:1027CC00C0839007D7E0F508A3E085080CF50DE46D
:1027DC00F50EF50FD083D082780C1215C7AA0CAB6E
:1027EC000DAC0EAD0F12238B74041217ACE9701FD5
:1027FC008E828F83A3A3C082C0839007D7E0F50895
:10280C00A3E0F509E4F50AF50BD083D0828014859A
:10281C000A82850B83A3A37508F17509FF750AFF5E
:10282C00750BFF78081215C7750CFF750DFF750E2B
:10283C00FF750F007808790C121615EE240EF58230
:10284C00EF3400F583780812165D9007DDE06427FD
:10285C00700474258002E004F00232F3EE65087017
:10286C0003EF650960319007F1E0F91209E785087B
:10287C0082850983E06402701E9007DAE0640170BF
:10288C00169007D9E070107900120C87120C5712B1
:10289C000C817901120C8DE50E60129007EBE0F8BB
:1028AC00A3E0F9A3E0687003A3E0697039120BEBA5
:1028BC008A0C8B0D8C0E8D0F751003751100751213
:1028CC0000751300780C79101215B47510FF751182
:1028DC00FF7512FF780C79101216158E828F83A358
:1028EC00A3780C12165D850A82850B83A3A3750C45
:1028FC00F1750DFF750EFF750FFF780C1215C7786B
:10290C000C121A158E828F83A3A3C082C0839007EA
:10291C00EDE0F508A3E085080CF50DE4F50EF50FD8
:10292C00D083D082780C1215C7AA0CAB0DAC0EADAF
:10293C000F12238B74041217ACE9701F8E828F83D5
:10294C00A3A3C082C0839007EDE0F508A3E0F509CE
:10295C00E4F50AF50BD083D0828014850A82850BAE
:10296C0083A3A37508F17509FF750AFF750BFF02A8
:10297C0030DC850882850983E0640270139007DAE5
:10298C00E06401700B9007D9E070057900120C8798
:10299C00E50C2404FEE50D3400FF8E828F83E0F9F4
:1029AC00120BAF8E828F83E09004A7F07902FA7538
:1029BC00F005A4CAA8F028FB74A92AFA74043BFBFE
:1029CC00121F47AA0AAB0B0233CFEE65087003EF58
:1029DC0065098E828F836003022BF2E024FE600A6D
:1029EC0024FE7003022B2F0233CBEE2415F582EF5D
:1029FC003400F583E0604C9007D5E0F8A3E0F9A330
:102A0C00E0687003A3E069603A120BEB8A088B094B
:102A1C008C0A8D0B750C0A750D00750E00750F0068
:102A2C007808790C1215B47808121A158E828F83D7
:102A3C00A3A312166C12238B74041217ACE9600357
:102A4C000233CB120BEB8A088B098C0A8D0B750C9D
:102A5C0003750D00750E00750F007808790C1215B2
:102A6C00B4750CFF750DFF750EFF7808790C1216F6
:102A7C00158E828F83A3A3780812165DEE2415F5AC
:102A8C0082EF3400F583E0640170328E828F83A371
:102A9C00A3C082C0839007D7E0F508A3E0F509E452
:102AAC00F50AD083D08278081215C7EE240EF58271
:102ABC00EF3400F583780812165D0233CBEE240E4A
:102ACC00F582EF3400F583121A2C8E828F83A3A328
:102ADC0012166C12238B74041217ACE96401600398
:102AEC000233CB8E828F83A3A3C082C0839007D77F
:102AFC00E0F508A3E0F509E4F50AD083D082780864
:102B0C001215C7EE240EF582EF3400F58378081207
:102B1C00165D9007DDE06427700474258002E004E4
:102B2C000233CA9007EBE0F8A3E0F9A3E068700366
:102B3C00A3E0696037120BEB8A088B098C0A8D0BAA
:102B4C00750C0A750D00750E00750F007808790C60
:102B5C001215B47808121A158E828F83A3A312163D
:102B6C006C12238B74041217ACE97077EE2402F507
:102B7C0008EF3400F509120BEB8A0C8B0D8C0E8DC3
:102B8C000F751003751100751200751300780C7910
:102B9C00101215B47510FF7511FF7512FF780C79B2
:102BAC0010121615850882850983780C12165D851E
:102BBC000882850983C082C0839007EDE0F508A3E5
:102BCC00E0F509E4F50AF50BD083D08278081215EC
:102BDC00C7EE240EF582EF3400F583780812165DEB
:102BEC001209ED0233CBE024FE600A24FE700302CE
:102BFC002CE20233D21209E19007DAE0640170167C
:102C0C009007D9E070107901120C87120C57120C36
:102C1C00817900120C8D9007D5E0F8A3E0F9A3E0C0
:102C2C00687003A3E0696037120BEB8A088B098C80
:102C3C000A8D0B750C0A750D00750E00750F00785A
:102C4C0008790C1215B47808121A158E828F83A38A
:102C5C00A312166C12238B74041217ACE97074EE69
:102C6C002402F508EF3400F509120BEB8A0C8B0DDE
:102C7C008C0E8D0F751003751100751200751300F5
:102C8C00780C79101215B47510FF7511FF7512FFC1
:102C9C00780C7910121615850882850983780C1228
:102CAC00165D850882850983C082C0839007D7E0B2
:102CBC00F508A3E0F509E4F50AF50BD083D082788A
:102CCC00081215C7EE240EF582EF3400F583780850
:102CDC0012165D0232F39007F1E0F91209E785084C
:102CEC0082850983E06402701E9007DAE06401704B
:102CFC00169007D9E070107900120C87120C57123D
:102D0C000C817901120C8D9007EBE0F8A3E0F9A38C
:102D1C00E0687003A3E0696037120BEB8A088B093B
:102D2C008C0A8D0B750C0A750D00750E00750F0055
:102D3C007808790C1215B47808121A158E828F83C4
:102D4C00A3A312166C12238B74041217ACE97079BE
:102D5C00EE2402F8EF3400F988088909120BEB8A8B
:102D6C000C8B0D8C0E8D0F751003751100751200E8
:102D7C00751300780C79101215B47510FF7511FFCE
:102D8C007512FF780C791012161585088285098347
:102D9C00780C12165D850882850983C082C08390E9
:102DAC0007EDE0F508A3E0F509E4F50AF50BD0838F
:102DBC00D08278081215C7EE240EF582EF3400F598
:102DCC0083780812165D1209ED0233C59004A6E053
:102DDC0070030231E9120A6BE9F875F005A4C8AA70
:102DEC00F02AF974A928F510740439F511851082AC
:102DFC00F583E0F508A3E0F5099004A7E0F875F079
:102E0C0005A4C8AAF02AF974A928F50C740439F59C
:102E1C000D90084DE0540770030230F7A3E0F9124F
:102E2C000B798A0A8B0BAE0AAF0BAC08AD09120BEF
:102E3C0073E9F50E7402650E70030230F7850C828F
:102E4C00850D83A3A3A3A3E0F875F08AA4C8AAF008
:102E5C002AF974B128F50A740839F50BAA0AFB1281
:102E6C000BA3AA0AAB0B120B9D751280751300787D
:102E7C0012121A197C007D60E50A2406FAE50B345F
:102E8C0001FB120AE374021217ACA80AA90B906199
:102E9C0095E0C0E0E82486F582E93401F583D0E0C2
:102EAC00F0906196E0C0E0E82487F582E93401F502
:102EBC0083D0E0F0906197E0C0E0E82488F582E9E7
:102ECC003401F583D0E0F0906198E0C0E0E824890B
:102EDC00F582E93401F583D0E0F08E828F83E02413
:102EEC00FE600A24FE70030230020230F71209E180
:102EFC009007DAE0640170119007D9E0700B120CA6
:102F0C0057120C817900120C8DE50E60129007D5CA
:102F1C00E0F8A3E0F9A3E0687003A3E0697036124F
:102F2C000BEB8A0C8B0D8C0E8D0F7510037511002D
:102F3C00751200780C79101215B47510FF7511FF0D
:102F4C007512FF780C79101216158E828F83A3A33D
:102F5C00780C12165D850882850983A3A3750CF184
:102F6C00750DFF750EFF750FFF780C1215C7780CD9
:102F7C00121A158E828F83A3A3C082C0839007D7A9
:102F8C00E0F50CA3E0F50DE4F50EF50FD083D0823F
:102F9C00780C1215C7AA0CAB0DAC0EAD0F12238B0F
:102FAC0074041217ACE9701F8E828F83A3A3C082A6
:102FBC00C0839007D7E0F508A3E0F509E4F50AF51E
:102FCC000BD083D0828014850882850983A3A375D6
:102FDC0008F17509FF750AFF750BFF78081215C704
:102FEC00750CFF750DFF750EFF750F007808790CC9
:102FFC001216150232E49007F1E0F91209E7E50E1A
:10300C0060129007EBE0F8A3E0F9A3E0687003A36B
:10301C00E0697036120BEB8A0C8B0D8C0E8D0F75D4
:10302C001003751100751200780C79101215B47517
:10303C0010FF7511FF7512FF780C79101216158E92
:10304C00828F83A3A3780C12165D85088285098371
:10305C00A3A3750CF1750DFF750EFF750FFF780CA2
:10306C001215C7780C121A158E828F83A3A3C082F7
:10307C00C0839007EDE0F50CA3E0F50DE4F50EF53B
:10308C000FD083D082780C1215C7AA0CAB0DAC0EE6
:10309C00AD0F12238B74041217ACE9701F8E828F44
:1030AC0083A3A3C082C0839007EDE0F508A3E0F5ED
:1030BC0009E4F50AF50BD083D0828014850882854B
:1030CC000983A3A37508F17509FF750AFF750BFF3A
:1030DC0078081215C7750CFF750DFF750EFF750F6F
:1030EC00007808790C1216150233B3E510650C70D4
:1030FC0004E511650D70030231C7850C82850D83C3
:10310C00A3A3A3E070030231AB850C82850D83A3CE
:10311C00A3A3A3E0F875F08AA4C8AAF02AF974B1A5
:10312C0028FE740839FFEEFAEFFB120BA3EEFAEF50
:10313C00FB120B9D750A80750B00780A121A197C0C
:10314C00007D60EE2406FAEF3401FB120AE37402F0
:10315C001217AC906195E0C0E0EE2486F582EF3456
:10316C0001F583D0E0F0906196E0C0E0EE2487F5A5
:10317C0082EF3401F583D0E0F0906197E0C0E0EE8F
:10318C002488F582EF3401F583D0E0F0906198E06B
:10319C00C0E0EE2489F582EF3401F583D0E0F0E550
:1031AC00102404FEE5113400FF8E828F83E0F912A7
:1031BC000BAF8E828F83E09004A7F079029004A766
:1031CC00E0FA75F005A4CAA8F028FB74A92AFA74D1
:1031DC00043BFB121F47AA08AB090233CF90084DE2
:1031EC00E0540770030233D2A3E0F9120B798A087A
:1031FC008B09AE08AF098E828F83E024FE600A240F
:10320C00FE70030232FB0233D21209E19007DAE0BE
:10321C00640170169007D9E070107901120C8712B6
:10322C000C57120C817900120C8D9007D5E0F8A385
:10323C00E0F9A3E0687003A3E0696037120BEB8A36
:10324C00088B098C0A8D0B750C0A750D00750E0018
:10325C00750F007808790C1215B47808121A158EAF
:10326C00828F83A3A312166C12238B74041217ACD7
:10327C00E97074EE2402F508EF3400F509120BEB3B
:10328C008A0C8B0D8C0E8D0F751003751100751239
:10329C0000751300780C79101215B47510FF7511A8
:1032AC00FF7512FF780C79101216158508828509A6
:1032BC0083780C12165D850882850983C082C083D1
:1032CC009007D7E0F508A3E0F509E4F50AF50BD073
:1032DC0083D08278081215C7EE240EF582EF3400E5
:1032EC00F583780812165D90084E74020233CA906A
:1032FC0007F1E0F91209E79007EBE0F8A3E0F9A376
:10330C00E0687003A3E0696037120BEB8A088B0945
:10331C008C0A8D0B750C0A750D00750E00750F005F
:10332C007808790C1215B47808121A158E828F83CE
:10333C00A3A312166C12238B74041217ACE97076CB
:10334C00EE2402F8EF3400F988088909120BEB8A95
:10335C000C8B0D8C0E8D0F751003751100751200F2
:10336C00751300780C79101215B47510FF7511FFD8
:10337C007512FF780C791012161585088285098351
:10338C00780C12165D850882850983C082C08390F3
:10339C0007EDE0F508A3E0F509E4F50AF50BD08399
:1033AC00D08278081215C7EE240EF582EF3400F5A2
:1033BC0083780812165D1209ED90084E7404F0EE35
:1033CC00FAEFFB120B6D7F0C0218D874F012180672
:1033DC00EAFEEBFFEE2402F8EF3400F988088909C5
:1033EC00EE2406F8EF3400F9880A890B8882F583FD
:1033FC00121A3085088285098312166C120BC77459
:10340C00021217AC850A82850B83121A308508824A
:10341C0085098312166C120BBB74021217ACEE24C6
:10342C000EF582EF3400F58312166C120BCD8E82E2
:10343C008F83E06440701CEE2412F8EF3400F9889E
:10344C00828983E0906064F088828983A3E0906035
:10345C00658006906064E4F0A3F090084FEEF0A352
:10346C00EFF0EE2416F582EF3400F583E0F8A3E0DC
:10347C00F5838882121804906054E4F0A3F0A3F052
:10348C00A3F0A3F0A3F0A3F0A3F0A3F0A3F0A3F098
:10349C00A3F0906182E0C2E6F07591BFEE2415F5C1
:1034AC0082EF3400F583E064017003120BFDE5E15B
:1034BC0070FCEE2414F582EF3400F583E0F4600325
:1034CC00E0F5E1EE2415F582EF3400F5837401F09C
:1034DC0090047FE064017073120BEB8A088B098CEB
:1034EC000A8D0B7808121A158E828F83A3A31216DD
:1034FC006C1223E474041217AC8A088B098C0A8DA5
:10350C000B750C05750D00750E00750F007808799C
:10351C000C12147C7403780812157CE50824F4F55D
:10352C0008E5093401F5099007F7E06003120F4B29
:10353C00E4F50AF50B7808121A157A207B00900432
:10354C0078E0F9120F9374041217AC7F080218D8A4
:10355C0074EA121806EAFEEBFF8C148D15EE4F7010
:10356C0003023678120BEB8A088B098C0A8D0B75CB
:10357C000C01750D00750E00750F007808790C1292
:10358C0015B4750CFF750DFF750EFF7808790C12CC
:10359C0016158E828F83E0640270149007D5E0F8C4
:1035AC00A3E0F9A3E0687003A3E06970248017E03E
:1035BC006404701D9007EBE0F8A3E0F9A3E06870D9
:1035CC0003A3E069700B8E828F83A3A37808121675
:1035DC005D75101A751100751200751300780812BC
:1035EC001A15851482851583A3A312166C1223E475
:1035FC0074041217AC8A0C8B0D8C0E8D0F7810790D
:10360C000C12143D4066851482851583A3A3750C9A
:10361C00E7750DFF750EFF750FFF780C1215C77847
:10362C000C121A158E828F83A3A312166C12238B85
:10363C0074041217ACE97034750C07750D00750E17
:10364C0000750F007808790C1215B47808121A1549
:10365C008E828F83A3A312166C12238B7404121701
:10366C00ACE97004790080067901800279027F0E42
:10367C000218D874F0121806890874FF65086003E4
:10368C0002380D90084DE054077003023CE97A00B3
:10369C00784C790888828983A3A3A3A3A3E064044C
:1036AC00703FEA75F018A4F8A9F0745228F58274EA
:1036BC000839F583E0640170377A00784C79088812
:1036CC00828983A3A3A3A3A3E064046003023762EB
:1036DC0088828983A3A3A3A3A3A3E064017077804A
:1036EC00630AE82418F8E93400F9EAC3940440A406
:1036FC007A00784C790888828983A3A3A3A3A3E0DA
:10370C0064017067EA75F018A4F8A9F0745228F5F2
:10371C0082740839F583E0640170627A00784C7920
:10372C000888828983A3A3A3A3A3E0640160030296
:10373C0037E988828983A3A3A3A3A3A3E0640160D0
:10374C00030237E9EA75F018A4F8A9F0745128FAC5
:10375C00740839023CE60AE82418F8E93400F9EA5E
:10376C00C3940450030236CB023CE90AE82418F84F
:10377C00E93400F9EAC3940450030237027A007862
:10378C004C790888828983A3A3A3A3A3E064027065
:10379C0061EA75F018A4F8A9F0745228F58274083F
:1037AC0039F583E0640170597A00784C7908888285
:1037BC008983A3A3A3A3A3E06402707A888289837C
:1037CC00A3A3A3A3A3A3E06401706BEA75F018A4F0
:1037DC00F8A9F0745128FA740839FB806F0AE824B0
:1037EC0018F8E93400F9EAC39404500302372D02A7
:1037FC003CE90AE82418F8E93400F9EAC3940440D7
:10380C00827A00784C790888828983A3A3A3A3A326
:10381C00E06508703A88828983A3A3A3A3A3A3E0DD
:10382C006401702BEA75F018A4F8A9F0745128FE05
:10383C00740839FF802C0AE82418F8E93400F9EAF6
:10384C00C3940450030237BA7A007B00023CED0AA1
:10385C00E82418F8E93400F9EAC3940440A97E007E
:10386C007F007A00784C790888828983A3A3A3A36C
:10387C00A3E06508701BEA75F018A4F8A9F074525F
:10388C0028F582740839F583E0640170137A01809D
:10389C00110AE82418F8E93400F9EAC3940440C882
:1038AC007A00E508146010147003023A2424FE70A8
:1038BC0003023B37023CE97B00784C79088882890B
:1038CC0083A3A3A3A3A3E064027052EB75F018A426
:1038DC00F8A9F0745228F582740839F583E0640174
:1038EC00704A7B00784C790888828983A3A3A3A3B0
:1038FC00A3E06402600302399288828983A3A3A3A4
:10390C00A3A3A3E06401707EEB75F018A4F8A9F0F2
:10391C00745128F50A740839F50B0239AA0BE824FE
:10392C0018F8E93400F9EBC3940440917B00784C0F
:10393C00790888828983A3A3A3A3A3E0640460030A
:10394C000239EBEB75F018A4F8A9F0745228F58243
:10395C00740839F583E0640160030239FD7B00785B
:10396C004C790888828983A3A3A3A3A3E064046091
:10397C0003023A0888828983A3A3A3A3A3A3E064C8
:10398C00017079023B8B0BE82418F8E93400F9EB51
:10399C00C3940450030238F4750A00750B00EAA2B4
:1039AC00E05035850A82850B83A3A3750CF6750D43
:1039BC00FF750EFF750FFF780C1215C7780C121AD5
:1039CC00158E828F83A3A312166C12238B74041290
:1039DC0017ACE97003023CE3AA0AAB0B023CED0BFB
:1039EC00E82418F8E93400F9EBC3940450030239C5
:1039FC003EEAA2E0501BEEFAEFFB80190BE824180C
:103A0C00F8E93400F9EBC39404500302396F023C1B
:103A1C00307A007B00023CED7B00784C7908888280
:103A2C008983A3A3A3A3A3E064047040EB75F018EF
:103A3C00A4F8A9F0745228F582740839F583E0646F
:103A4C000170387B00784C790888828983A3A3A302
:103A5C00A3A3E064046003023AE988828983A3A3E8
:103A6C00A3A3A3A3E064017074023B8B0BE824189E
:103A7C00F8E93400F9EBC3940440A37B00784C794B
:103A8C000888828983A3A3A3A3A3E064017063EBDA
:103A9C0075F018A4F8A9F0745228F582740839F559
:103AAC0083E06401705B7B00784C790888828983A1
:103ABC00A3A3A3A3A3E06401705288828983A3A368
:103ACC00A3A3A3A3E064017043EB75F018A4F8A9B9
:103ADC00F0745128F50A740839F50B80440BE8246E
:103AEC0018F8E93400F9EBC394045003023A550278
:103AFC003C300BE82418F8E93400F9EBC39404408B
:103B0C0080EAA2E0501EEEFAEFFB801C0BE82418B2
:103B1C00F8E93400F9EBC394044091750A00750B75
:103B2C0000023C367A007B00023CED7B00784C793D
:103B3C000888828983A3A3A3A3A3E064017055EB37
:103B4C0075F018A4F8A9F0745228F582740839F5A8
:103B5C0083E06401704D7B00784C790888828983FE
:103B6C00A3A3A3A3A3E064016003023C1E88828983
:103B7C0083A3A3A3A3A3A3E064016003023C1EEBF5
:103B8C0075F018A4F8A9F0745128F50A740839F5E1
:103B9C000B023C360BE82418F8E93400F9EBC3941B
:103BAC0004408E7B00784C790888828983A3A3A378
:103BBC00A3A3E064026003023C75EB75F018A4F853
:103BCC00A9F0745228F582740839F583E064016019
:103BDC0003023C877B00784C790888828983A3A3F5
:103BEC00A3A3A3E064026003023C8E88828983A3B2
:103BFC00A3A3A3A3A3E064016003023C8EEB75F0C6
:103C0C0018A4F8A9F0745128F50A740839F50B02B8
:103C1C003CA60BE82418F8E93400F9EBC3940450E3
:103C2C0003023B68750A00750B00EAA2E040030230
:103C3C0039E4850A82850B83A3A3750CF6750DFFF9
:103C4C00750EFF750FFF780C1215C7780C121A152C
:103C5C008E828F83A3A312166C12238B74041217FB
:103C6C00ACE960030239E4806E0BE82418F8E934FF
:103C7C0000F9EBC394045003023BB5EAA2E0505D9B
:103C8C0080550BE82418F8E93400F9EBC394045080
:103C9C0003023BE6750A00750B00EAA2E040030242
:103CAC0039E4850A82850B83A3A3750CF6750DFF89
:103CBC00750EFF750FFF780C1215C7780C121A15BC
:103CCC008E828F83A3A312166C12238B740412178B
:103CDC00ACE960030239E4EEFAEFFB80047A007B76
:103CEC000002355774F61218068909750800784CCD
:103CFC00790888828983A3A3A3A3A3A3E06003020A
:103D0C003DCCE50875F018A4F8A9F0745128FE74A0
:103D1C000839FF8E828F83A37401F08E828F83E526
:103D2C0009F0120BEB8E828F83A3A31216788E826E
:103D3C008F83A3A3A3A3A3A3E4F0A3F0EE240EF517
:103D4C0082EF3400F58374FFF0A3F0A3F0A3F0EE40
:103D5C002414F582EF3400F5837401F0EE2415F58C
:103D6C0082EF3400F5837401F0EE2416F582EF3403
:103D7C0000F583E4F0A3F090084DE04509F09008BD
:103D8C004CE004F06401600C7480650960067440BA
:103D9C0065097019E50875F018A4F8A9F074512894
:103DAC00F8740839F990084FE8F0A3E9F0E50875C4
:103DBC00F018A4F8A9F0745128FA740839FB80188B
:103DCC000508E82418F8E93400F9E508C394045010
:103DDC0003023CFE7A007B0080007F020218D8C0F0
:103DEC0082C0838A828B83E0F8A3E0F98A828B837A
:103DFC00E4F0A3F088828983A3F088828983E0F4BD
:103E0C00F890084DE058F090084CE014F0700B90CE
:103E1C00084FE4F0A3F0900479F0801CC082C083BA
:103E2C0090084CE0600A90084FE0FAA3E0FB800495
:103E3C007A007B008002E0F9D083D08202011FC09F
:103E4C0082C083E9FB7A00784C790888828983A345
:103E5C00A3A3A3A3E06B7016EA75F018A4F8A9F05D
:103E6C00745228F582740839F583E0F980110AE858
:103E7C002418F8E93400F9EAC3940440CE790080A0
:103E8C00B7C082C08390084C023E4274F6121806EA
:103E9C00EAFEEBFF9061D0E0C0E0EE2400F582EF8B
:103EAC003401F583D0E0F09061D7E0F89061D5E073
:103EBC00C398547FC0E0EE2401F582EF3401F58302
:103ECC00D0E0F09061D6E0C398547FC0E0EE2402BD
:103EDC00F582EF3401F583D0E0F0701A9061C5E003
:103EEC00A2E45012E0A2E7500DEE2402F582EF346A
:103EFC0001F5837480F0120CB1EE2401F582EF34DD
:103F0C0001F583E07034EE2402F582EF3401F58381
:103F1C00E070279061C5E0A2E4501FE0A2E7501AC0
:103F2C00EE2402F582EF3401F5837480F0EE240167
:103F3C00F582EF3401F5837480F075E1957800EE2D
:103F4C002400F582EF3401F583E060279061D3E023
:103F5C00C0E08808EE2508F582EF3400F583D0E048
:103F6C00F008EE2400F582EF3401F583E0F9E8C3A4
:103F7C009940D975E191023DE674F6121806EAFEF5
:103F8C00EBFF9061C8E0C0E0EE2403F582EF340152
:103F9C00F583D0E0F09061CFE0F89061CDE0C3986C
:103FAC00547FC0E0EE2404F582EF3401F583D0E0B9
:103FBC00F09061CEE0C398547FC0E0EE2405F5820A
:103FCC00EF3401F583D0E0F0701A9061C5E0A2E007
:103FDC005012E0A2E3500DEE2405F582EF3401F50A
:103FEC00837480F0120CB7EE2404F582EF3401F5E3
:103FFC0083E07034EE2405F582EF3401F583E07034
:10400C00279061C5E0A2E0501FE0A2E3501AEE2415
:10401C0005F582EF3401F5837480F0EE2404F5820B
:10402C00EF3401F5837480F0120CBD7A00EE24039A
:10403C00F582EF3401F583E0602F9061CBE0C0E0B6
:10404C008A08EE2508F8EF3400F9E82480F582E9B7
:10405C003400F583D0E0F00AEE2403F582EF34014E
:10406C00F583E0F8EAC39840D175E181023DE6742E
:10407C00F41218068908A808E875F08AA4C8AAF0F2
:10408C002AF974B128FE740839FFEEFAEFFB120B13
:10409C00A3EEFAEFFB120B9D750A80750B00780AE4
:1040AC00121A197C007D60EE2406FAEF3401FB1223
:1040BC000AE374021217AC906195E0C0E0EE24861E
:1040CC00F582EF3401F583D0E0F0906196E0C0E02A
:1040DC00EE2487F582EF3401F583D0E0F090619700
:1040EC00E0C0E0EE2488F582EF3401F583D0E0F0F7
:1040FC00906198E0C0E0EE2489F582EF3401F583FD
:10410C00D0E0F07F040218D874F21218068908A8BF
:10411C0008E875F08AA4C8AAF02AF974B128F874D2
:10412C000839F99061C6E0FDE054F0F075E1817C4E
:10413C0000E82403F582E93401F583E0602B8C0A56
:10414C00E8250AFAE93400FBEA2480F582EB340016
:10415C00F583E09061CAF00CE82403F582E93401A0
:10416C00F583E0FAECC39A40D5E82405F582E934EE
:10417C0001F583E060049061CEF0E82404F582E957
:10418C003401F583E060049061CDF0ED9061C6F0F0
:10419C00A808E875F08AA4C8AAF02AF974B128F81E
:1041AC00740839F9E0FCE0540FF075E1917A00E8FD
:1041BC002400F582E93401F583E060238A0AE825BE
:1041CC000AF582E93400F583E09061D2F00AE82424
:1041DC0000F582E93401F583E0FBEAC39B40DDE89E
:1041EC002402F582E93401F583E060049061D6F095
:1041FC00E82401F582E93401F583E060049061D58F
:10420C00F0EC9061C6F0850882AE82EEF875F08A0B
:10421C00A4C8AAF02AF974B128F50A740839F50B68
:10422C00750C80750D00780C121A19E50A2406FC21
:10423C00E50B3401FD7A007B60120AE3740212175D
:10424C00ACA80AA90BE82486F582E93401F583E0D1
:10425C00906195F0E82487F582E93401F583E090CC
:10426C006196F0E82488F582E93401F583E09061E9
:10427C0097F0E82489F582E93401F583E0906198A0
:10428C00F0EE75F005A4CEA8F028FF74A92EF582E7
:10429C0074043FF583E0F8A3E0F5838882E0648042
:1042AC0070419012677425F0A3740BF0A3740DF099
:1042BC00A3740BF0A37425F0A3740BF0A37425F076
:1042CC00A3740BF0A3740DF0A3740BF0A37425F07E
:1042DC00A3740BF0A3742BF0A3740BF090047974FB
:1042EC000880059004797407F0901275740DF0A392
:1042FC00740BF0A3740DF0A3740BF0A3740DF0A366
:10430C00740BF0A3740DF0A3740BF0A3740DF0A355
:10431C00740BF0A3740DF0A3740BF07F060218D885
:10432C00C082C0839061907404F0A37448F0A374AD
:10433C0002F09061807440F09061BC7403F0906165
:10434C00877419F0906265741BF0906249E0C39415
:10435C001390619C400A7409F090606674018007A8
:10436C00740DF0906066E4F090619A7433F0A3746D
:10437C0055F09061A0743AF09007F5E06401700973
:10438C00C29190047D7467800590047D7461F090F7
:10439C00254AE493906186F0902544E493F46027D9
:1043AC00E493540FF8906185E0686012E5C6548080
:1043BC004449F5C6E59E547F644970F8E8F053C64D
:1043CC0080E59E547F70FA7905120CAB0247A0C0B1
:1043DC0082C083E5A8F853A87E906181E4F0A3F035
:1043EC00A3F0C2BA539AFEC289759B00C2C275E98A
:1043FC000075910075BF0075A91175B905906181A3
:10440C00F0A374C0F0A3E4F0D2BA439A01748058BC
:10441C0042A80247A0F00247A0C082C08374F812E1
:10442C00179690047BE0F8A3E0F9E8497003024585
:10443C005390047BE05440602379088518828519D9
:10444C0083AA82AB83120AC5851882851983AA8236
:10445C00AB831207C590047BE054BFF0E05480603E
:10446C0010790C7A1B7B08120AC590047BE0547FF0
:10447C00F0E0A2E0503190619A7433F0A37455F0DF
:10448C009061A0743AF09007F5E064017009C29154
:10449C0090047D7467800590047D7461F01207CBE5
:1044AC0090047BE054FEF0E05402603190619A7409
:1044BC003FF0A3745AF09061A0747FF09007F5E080
:1044CC0064017009D29190047D7471800590047D13
:1044DC00746AF01207CB90047BE054FDF0E05404B6
:1044EC006013902548E493906186F01207D19004F4
:1044FC007BE054FBF0E054086013902549E4939062
:10450C006186F01207D190047BE054F7F0E0541070
:10451C00601390254AE493906186F01207D19004C1
:10452C007BE054EFF0E05420600A1207D190047B3A
:10453C00E054DFF0A3E05401600D1209CF1207D74D
:10454C0090047CE054FEF074081217AC0247A0747F
:10455C00EC12180674F4121796851882851983AC20
:10456C0082AD8375838775823174041216A99025E8
:10457C004893F460030246E7907808E0C394025035
:10458C00030246C774041217E2AC82AD83758386AE
:10459C007582A974081216A98518828519838582DB
:1045AC001285831374041217E2AC82AD83750EFF6F
:1045BC00750FFF7FFF7E00750C48750D78801574A4
:1045CC00086E700302465B74096E700302465B74DE
:1045DC000A6E607B850C82850D83780812164E8CD2
:1045EC00828D83A909E50AC9F88810741878081215
:1045FC00157CE5104508F8C3E098A3E099850C827A
:10460C00850D83780812164E40188C828D83741891
:10461C00780812157CE5104508F8E0C398F8A3E07B
:10462C00801C7418780812157CE5104508FAE9FB13
:10463C008C828D83E0F8A3E0F9EAC398F8EB99F942
:10464C00C3E8950EE9950F5006880E890FEEFF0E04
:10465C00E50C2404F50CE50D3400F50DEEC39413B4
:10466C0050030245CB74FF650E700474FF650F6038
:10467C00238F087402780812178374482508F58272
:10468C0074783509F583780812164E8512828513D5
:10469C0083E508F0EC2402FCED3400FD85128285E4
:1046AC001383A3858212858313740C1217E2E5829F
:1046BC006C7003E5836D60030245B97508017509DB
:1046CC00007808121A1974021217E2AC82AD837AC0
:1046DC00527B091211C774021217AC740C1217AC6E
:1046EC007F0C0218D8C082C0839061AE7468F0A3AE
:1046FC00746AF090624574FBF0A304F053F4FD432C
:10470C00FE029007F57401F09061A0E0643A9061AC
:10471C009A70237433F0A37455F09061A0743AF03E
:10472C00740164017009C29190047D7467802890B3
:10473C00047D74618021743FF0A3745AF09061A0E1
:10474C00747FF0740164017009D29190047D7471CE
:10475C00800590047D746A024421C082C083900756
:10476C00D3E0640170119007D9E064016019E07026
:10477C0006A3E0640160109007EAE06401700C90FD
:10478C0007F0E064017004790C800279008005E088
:10479C00F9122439D083D08202011FC082C08390C9
:1047AC0007DD7425F09007DB7401F0A3E4F07A01C7
:1047BC00FB120C279007C9E0F8A3E0C82416F58279
:1047CC00E83400F58374F3F0A37409F09007DAE091
:1047DC00640170169007D9E070107901120C8712E1
:1047EC000C57120C817900120C930247A0C082C0A6
:1047FC008374FA1217969007D2E0640170081209BC
:10480C00DB9007D2E4F075E1F19007C9E0F8A3E082
:10481C00C82415F582E83400F5837401F09007D4B0
:10482C00E0640170769086EBC082851882851983CE
:10483C00AC82AD83758386D08274061216A975D9A5
:10484C000D9007CBE0C4333354C04403F5D978C979
:10485C00790788828983A3A3A3E0F5D98882898309
:10486C00A3A882A983E864CF7003E9640770E38589
:10487C001882851983A882A98388828983E0F5D957
:10488C00A3A882A98374061217E2E582687003E577
:10489C00836970E575E195790180027900120C2D20
:1048AC009012677443F0A3740BF0A37449F0A374D3
:1048BC000BF0A37443F0A3740BF0A37443F0A37434
:1048CC000BF0A3740DF0A3740BF0A3740DF0A37490
:1048DC000BF0A3744FF0A3740BF0901275740DF0E1
:1048EC00A3740BF0A3740DF0A3740BF0A3740DF070
:1048FC00A3740BF0A3740DF0A3740BF0A3740DF060
:10490C00A3740BF0A3740DF0A3740BF09007CBE021
:10491C00F97ACC7B07120C099007DDE0F9122439E7
:10492C007901120C337AD67BBE7C897D8E120C4BAE
:10493C007A557B557C557D00120C157900120C9F15
:10494C009007C9E0F8A3E0C82414F582E83400F518
:10495C00837416F09004797405F00402455574F7CD
:10496C001218068908A808E875F005A4C8AAF02A48
:10497C00F974A928FE740439FF9007E2E0F97AE390
:10498C007B07120C099007F0E0701A7900120C6981
:10499C009007B8E070047900800279017AB97B073E
:1049AC00120C0F80057901120C6975E1F175D92390
:1049BC009007E2E0C4333354C04405F5D978E0796C
:1049CC000788828983A3A3A3E0F5D988828983A36E
:1049DC00A882A983E864E67003E9640770E375D9DB
:1049EC000075D90075D90075D90075D90075D90035
:1049FC00EEF8EFF9E82404FAE93400FBE82422F598
:104A0C0082E93400F583E0F5D988828983A3A882F2
:104A1C00A983EA687002EB6970E2EEF8EFF9E8241A
:104A2C00031AE93400FBE82426F582E93400F58307
:104A3C00E0F5D988828983A3A882A983EA687002E9
:104A4C00EB6970E2EE242BF582EF3400F583E0F590
:104A5C00D9EE242CF582EF3400F583E0F5D9EE2461
:104A6C002DF582EF3400F583E0F5D9EE242EF58296
:104A7C00EF3400F583E0F5D9EE242FF582EF340006
:104A8C00F583E0F5D9EE2430F582EF3400F583E0C0
:104A9C00F5D9EE2431F582EF3400F583E0F5D9EE4B
:104AAC002432F582EF3400F583E0F5D9EE2433F5AA
:104ABC0082EF3400F583E0F5D9EEF8EFF9E8240540
:104ACC00FAE93400FBE8245DF582E93400F583E073
:104ADC00F5D988828983A3A882A983EA687002EB3E
:104AEC006970E2EE2437F582EF3400F583E0541F51
:104AFC00F8EE242AF582EF3400F583E0C43354E059
:104B0C0048F5D975E1959012677413F0A3740BF006
:104B1C00A37419F0A3740BF0A3740DF0A3740BF031
:104B2C00A3740DF0A3740BF0A3740DF0A3740BF02D
:104B3C00A3740DF0A3740BF0A3741FF0A3740BF00B
:104B4C00901275740DF0A3740BF0A3740DF0A37494
:104B5C000BF0A3740DF0A3740BF0A3740DF0A374FD
:104B6C000BF0A3740DF0A3740BF0A3740DF0A374ED
:104B7C000BF09007EFE0F91224397AD67BBE7C89D2
:104B8C007D8E120C4B7A557B557C557D00120C1585
:104B9C0090600DE4F07901120C9F9004797406F08A
:104BAC0002516374E81218069007E0E0F8A3E0F5F0
:104BBC00838882A3A3780C12164E9007F1E0FAF8C2
:104BCC0075F005A4C8ACF02CF974D728F5827404E0
:104BDC0039F583E0FEA3E0FFEEC333FEEF33FF8E27
:104BEC0014F515751600751700850C08850D0985CB
:104BFC000E0A850F0B7510047511007512007513D4
:104C0C0000780879101215B47808121A15850C085A
:104C1C00850D09850E0A850F0B780879141215B4C9
:104C2C00780C79141214FCE4F516F517780879143D
:104C3C001215ED8A0C750D007403780C121783E5B0
:104C4C000D3395E0F50EF50F7808790C1215B47547
:104C5C000CFF750DFF750EFF7808790C121615AA4E
:104C6C0008AB09AC0A7D001223E474041217AC8A59
:104C7C00088B09A808A909C3EE98EF995006E82EED
:104C8C00F8E93FF9E890600EF0E9A3F0EEA3F0EF3D
:104C9C00A3F090600D74C1F07F100218D8C082C0D0
:104CAC00839007C9E0F8A3E0C82406F582E8340035
:104CBC00F583E4F0A3F09007DD02479BC082C0832C
:104CCC009007E0E0F8A3E0C82406F582E83400F58C
:104CDC0083E4F0A3F09007EF02479B02011F74F6E8
:104CEC001218069061D0E0F87480C398FCEA248214
:104CFC00F582EB3400F583E06004780480027800E0
:104D0C00E8240EF8ECC3985003024E167C0C900766
:104D1C00FBE4F0EA2476F582EB3400F583E09007AF
:104D2C00FCF0EA2477F8EB3400F988828983E09070
:104D3C0007FDF088828983A3E09007FEF0EA2479CE
:104D4C00F8EB3400F988828983E09007FFF08882C1
:104D5C008983A3E0900800F0EA247BF8EB3400F997
:104D6C0088828983E0900801F088828983A3E0908F
:104D7C000802F0EA247DF8EB3400F988828983E09C
:104D8C00900803F088828983A3E0900804F0EA2459
:104D9C0074F8EB3400F98A828B83A3A3A3A3A3E05A
:104DAC00FEA3E0FF88828983E02EF0A3E03FF08829
:104DBC00828983E0900805F088828983A3E09008BB
:104DCC0006F0EA2482F582EB3400F583E060177577
:104DDC0008FB7509077808121A197903120B01746C
:104DEC00021217AC7C1074012CF5D975D90375829D
:104DFC00FB758307ECFEE0F5D9A31EEE70F875E1A8
:104E0C00957904120C5179018002790002531374C4
:104E1C00F61218069061D0E0F87480C398FCEA246E
:104E2C0082F582EB3400F583E0600478048002782C
:104E3C0000E8240AF8ECC3985003024F0E750808DA
:104E4C009007FB7401F07CBF7D0778FC79077E0529
:104E5C008C828D83E088828983F08C828D83A3ACD5
:104E6C0082AD8388828983A3A882A9831EEE70E019
:104E7C00EA2480FCEB3400FD8A828B83A3A3A3A3DA
:104E8C00A3E0FEA3E0FF8C828D83E02EF0A3E03F35
:104E9C00F08C828D83E088828983F08C828D83A351
:104EAC00AC82AD8388828983A308A9838C828D838D
:104EBC00E088828983F0EA2482F582EB3400F58362
:104ECC00E0601A7508FB7509077808121A197C0836
:104EDC007903120B0174021217AC75080C740125BE
:104EEC0008F5D975D9037582FB758307AE08E0F513
:104EFC00D9A31EEE70F875E1957904120C51790165
:104F0C008002790002531374F7121806EAFEEBFFC5
:104F1C009061D0E06003024FFA75D91875D903750A
:104F2C00D903EEF8EFF9E82408FAE93400FBE82499
:104F3C009BF582E93400F583E0F5D988828983A357
:104F4C00A882A983EA687002EB6970E2EE24A3F5EB
:104F5C0082EF3400F583E0F5D9EE24A4F582EF342A
:104F6C0000F583E0F5D9EE2493F582EF3400F58358
:104F7C00E5822408F8E5833400F9E0F5D9A3E86567
:104F8C00827003E9658370F2EE2487F582EF3400BA
:104F9C00F583E5822404F8E5833400F9E0F5D9A320
:104FAC00E865827003E9658370F275E1957908EE26
:104FBC002493FAEF3400FB120AB97904EE2487FA31
:104FCC00EF3400FB120AB97904120C51EE246FF580
:104FDC0082EF3400F583E0F8A3E0F9EE2471F5825A
:104FEC00EF3400F583E8F0A3E9F079018002790051
:104FFC0002516374F6121806EAFEEBFF9007FB747D
:10500C0006F07508FB7509077808121A197C0179E6
:10501C0003120B0174021217AC75D90675D90375FE
:10502C0082FB758307E0F5D9A3E58264007004E583
:10503C0083640870F075E195900479E06408701E43
:10504C00EE246FF582EF3400F583E0F8A3E0F9EE7F
:10505C002471F582EF3400F583E8F0A3E9F07901CF
:10506C0002531374F6121806EAFEEBFF9061D0E0BF
:10507C00705E9007FB740AF07508FB7509077808D9
:10508C00121A197C017903120B0174021217AC75F8
:10509C00D90675D9037582FB758307E0F5D9A3E5AD
:1050AC008264007004E583640870F075E195EE2469
:1050BC006FF582EF3400F583E0F8A3E0F9EE24718C
:1050CC00F582EF3400F583E8F0A3E9F07901800272
:1050DC00790002531374F6121806EAFEEBFF906186
:1050EC00D0E0706678019007FB740BF0900479E0C7
:1050FC00640770197508FB7509077808121A197C72
:10510C00017903120B0174021217AC780574012893
:10511C00F5D975D9037582FB758307E8FAE0F5D9E3
:10512C00A31AEA70F875E195EE246FF582EF34005E
:10513C00F583E0F8A3E0F9EE2471F582EF3400F585
:10514C0083E8F0A3E9F0790180027900025313F0AF
:10515C00EEA2E092AF79007F010218D874F6121813
:10516C0006EAFEEBFF9061D0E0F87480C398FAEE8B
:10517C002482F582EF3400F583E060047804800229
:10518C007800E8240BF8EAC398500302523E7D09DC
:10519C009007FB7408F0EE24E4F8EF3400F97AFC85
:1051AC007B077C0888828983E08A828B83F08882E3
:1051BC008983A3A882A9838A828B83A3AA82AB83C7
:1051CC001CEC70E0EE2482F582EF3400F583E06095
:1051DC001D7508FB7509077808121A197C097903E3
:1051EC00EEFAEFFB120B0174021217AC7D0D740179
:1051FC002DF5D975D9037582FB7583078D08E0F5FC
:10520C00D9A31508E50870F675E1957904120C51CF
:10521C00EE246FF582EF3400F583E0F8A3E0F9EEAD
:10522C002471F582EF3400F583E8F0A3E9F07901FD
:10523C008002790002531374F6121806EAFEEBFF93
:10524C009061D0E0F87480C398FAEE2482F582EF76
:10525C003400F583E06004780480027800E82408C8
:10526C00F8EAC398500302531178069007FB740CAC
:10527C00F0900496E09007FCF0900497E09007FD06
:10528C00F0900498E09007FEF0900499E09007FFEE
:10529C00F090049AE0900800F0EE2482F582EF344E
:1052AC0000F583E0601B7508FB7509077808121A76
:1052BC00197C067903EEFA120B0174021217AC7802
:1052CC000A740128F5D975D9037582FB7583078893
:1052DC0008E0F5D9A31508E50870F675E195790491
:1052EC00120C51EE246FF582EF3400F583E0F8A335
:1052FC00E0F9EE2471F582EF3400F583E8F0A3E9D0
:10530C00F07901800279007F020218D874F6121825
:10531C0006EAFEEBFF9061D0E0F87480C398FAEED9
:10532C002482F582EF3400F583E060047804800277
:10533C007800E82404F8EAC39850030253F2780288
:10534C009007FBE8F0EE24F6F582EF3400F583E0ED
:10535C009007FCF0EE2482F582EF3400F583E060D8
:10536C001B7508FB7509077808121A197C0279035A
:10537C00EEFA120B0174021217AC7806740128F5C0
:10538C00D975D9037582FB7583078808E0F5D9A315
:10539C001508E50870F675E195EE2473F582EF3487
:1053AC0000F583E4F0EE247FF582EF3400F583E41E
:1053BC00F0EE241DF582EF3400F583E4F0A3F079D0
:1053CC0004120C51EE240DF582EF3400F583E0F855
:1053DC00A3E0F9EE2471F582EF3400F583E8F0A335
:1053EC00E9F079018002790002531374F612180661
:1053FC009061D0E0F87480C398FCEA2482F582EBCB
:10540C003400F583E06004780480027800E824041A
:10541C00F8ECC398405B79029007FB7407F0EA2420
:10542C00F7F582EB3400F583E09007FCF0EA248278
:10543C00F582EB3400F583E060187508FB750907FD
:10544C007808121A197C0209120B0174021217AC9B
:10545C007906740129F5D975D9037582FB75830713
:10546C00E9F8E0F5D9A318E870F875E195790180B1
:10547C0002790002531374F5121806E9FCA2AFE48A
:10548C0033F50AC2AF7D0080010DEA246EF582EB84
:10549C003400F583E0F8EDC398501A8D08EA25081E
:1054AC00F8EB3400F9E8246AF582E93400F583E07E
:1054BC006C70D68024EA246EF8EB3400F9E0FEEA36
:1054CC002EFAEB3400FBEA246AF582EB3400F58308
:1054DC00ECF088828983E004F0E50AA2E092AF7FC9
:1054EC00030218D874F6121806A2AFE433FDC2AF4B
:1054FC00EA246EF582EB3400F583E014F07C006056
:10550C00368C08EA2508F8EB3400F9E8246BF582B0
:10551C00E93400F583E0C0E0E8246AF582E9340060
:10552C00F583D0E0F00CEA246EF582EB3400F583C1
:10553C00E0F8ECC39840CAEA246DF582EB3400F530
:10554C008374FFF0EA2469F582EB3400F583E4F010
:10555C00EDA2E092AF025313C082C083E5A8F8C25B
:10556C00AFEA246AF582EB3400F583E9F0EA2469AA
:10557C00F582EB3400F583E4F0E8A2E7A2E792AF02
:10558C000247A074F3121806EAFEEBFFECFAEDFBEF
:10559C008A828B83A3A3A3A3E0541FF0EE2436F5D9
:1055AC0082EF3400F583E4F0F50AEEFCEFFD8A821D
:1055BC008B83E0C0E0EC245DF582ED3400F583D004
:1055CC00E0F0750B00E50A33333354F8F50C8A829E
:1055DC008B83E0F508750900E50B7808121764E574
:1055EC0008A2E0502FEE2436F8EF3400F9888289B7
:1055FC0083E0F508EE2508F508EF3400F509E50819
:10560C002438F582E5093400F583E50CF0888289AD
:10561C0083E004F0050B050CE50BC3940840AF05C3
:10562C000A8A828B83A3AA82AB838C828D83A3ACE0
:10563C0082AD83E50AC3940550030255BA7F050277
:10564C0018D874F71218069004A5E06403700302CE
:10565C0059347C0078A5790488828983A3A3A3A3F9
:10566C00A3A3E06003025922ECF875F005A4C8AAC4
:10567C00F02AF974A928FA740439FB8A828B83A363
:10568C00A37401F08A828B83A3A3A3E4F0EC8A8237
:10569C008B83A3A3A3A3F0EA2462F582EB3400F579
:1056AC00837401F0EA2467F582EB3400F58374010E
:1056BC00F08A828B83A3A3A3A3A3E4F0A3F08A8232
:1056CC008B83A3A3A3A3A3A3A3F0A3F0EA240FF5B6
:1056DC0082EB3400F5837401F0EA2435F582EB3467
:1056EC0000F583E4F0EA2418F582EB3400F583E44A
:1056FC00F0A3F0A3F0A3F0EA241CF582EB3400F540
:10570C0083E4F0EA241DF582EB3400F583E4F0A386
:10571C00F0EA247FF582EB3400F583E4F0EA24739D
:10572C00F582EB3400F583E4F0EA2468F582EB347F
:10573C0000F5837480F0EA2469F582EB3400F5837C
:10574C00E4F0EA246EF582EB3400F583E4F0EA240D
:10575C00ECF582EB3400F583E4F0EA24EDF582EB12
:10576C003400F583E4F0EA24EEF582EB3400F583A3
:10577C00E4F0EA24EFF582EB3400F583E4F0EA245C
:10578C00F0F582EB3400F583E4F0A3F0EA24F2F5B3
:10579C0082EB3400F583E4F0A3F0EA24F5F582EB18
:1057AC003400F583E4F0EA2482F582EB3400F583CF
:1057BC00E4F0EA24D2F582EB3400F583E4F0EA2439
:1057CC00D3F582EB3400F583E4F0EA24D4F582EBD4
:1057DC003400F583E4F0A3F0A3F0A3F0EA24D8F5A9
:1057EC0082EB3400F583E4F0A3F0A3F0A3F0EA24F9
:1057FC00DEF582EB3400F583E4F0EA24E0F582EB8D
:10580C003400F583E4F0EA24DCF582EB3400F58314
:10581C00E4F0EA24E1F582EB3400F583E4F0EA24C9
:10582C00E2F582EB3400F583E4F0EA24F8F582EB40
:10583C003400F583E4F0A3F0EA24FAF582EB3400AB
:10584C00F583E4F0A3F0EA24FCF582EB3400F58355
:10585C00E4F0A3F0EA24FEF582EB3400F583E4F0E7
:10586C00A3F0EAF8EBF9E82404FCE93400FDE824A1
:10587C006AF582E93400F58374FFF088828983A38A
:10588C00A882A983EC687002ED6970E2EAF8EBF982
:10589C007CBF7D078C828D83E0C0E0E8245DF582BF
:1058AC00E93400F583D0E0F08C828D83A3AC82AD1B
:1058BC008388828983A3A882A983EC64C47003EDD6
:1058CC00640770D0EAF8EBF97C8C7D048C828D83B4
:1058DC00A3E0C0E0E824E4F582E93400F583D0E0ED
:1058EC00F08C828D83A3AC82AD8388828983A3A83C
:1058FC0082A983EC64947003ED640470CF9004A5CA
:10590C00E004F0640170258A828B83A3A3A3A3E037
:10591C009004A7F080160CE82405F8E93401F9ECA2
:10592C00C3940350030256647A007B00025163C097
:10593C0082C0838A828B83A3A3A3E0600F8A828BAD
:10594C0083A3A3A3E4F09004A6E014F09004A5E0D4
:10595C0014F070069004A774FFF08A828B83A3A3C3
:10596C00E4F09007C4E0700D9004A6E064017005AB
:10597C007900120C1B0247A0C082C08378A5790461
:10598C0088828983A3A3A3A3A3A3A3E4F088828919
:10599C0083A3A3A3A3A3A3F0E82405F8E93401F996
:1059AC00E864B47003E9640770D69004A5E4F0A32E
:1059BC00F0A374FFF075E1F10247A074F51218061C
:1059CC00750800750900750A007EA97F048E828F08
:1059DC0083A3A3A3E0603DE5084509602F850882F9
:1059EC00850983E0F8A3E0F5838882A3A3121A2C1F
:1059FC008E828F83E0F8A3E0F5838882A3A312162E
:105A0C006C12238B74041217ACE97008EEF8EFF9E2
:105A1C0088088909050AEE2405FEEF3401FFE50A22
:105A2C00C3940340A8850882850983A3A3A3A3E09C
:105A3C00F90254EB74F712180678FF79FF7E007C9C
:105A4C00A97D048C828D83A3A3A3E0606274FF689C
:105A5C00700374FF697011EC2473F582ED3400F55A
:105A6C0083E06401703A8021EC2473F582ED3400FC
:105A7C00F583E064017017EC2479F582ED3400F5C0
:105A8C0083C3E098A3E0995026EC24798015EC248C
:105A9C002EF582ED3400F583C3E098A3E099500F06
:105AAC00EC242EF582ED3400F583E0F8A3E0F90E3A
:105ABC00EC2405FCED3401FDEEC394034085C3EAF0
:105ACC0098EB994004E8FAE9FB02516374F612185A
:105ADC0006EAFEEBFFEE2463F582EF3400F583E07B
:105AEC00F8A3E0F9E8497003025B7DEE2463F8EF5C
:105AFC003400F97A007B00A2AFE433F508C2AF881A
:105B0C00828983E0FCA3E0FDEC4D603A88828983B6
:105B1C00E0FAA3E0FB8A828B83E0FCA3E0FD8882A1
