:020000040000FA
:060000000201070221E7E6
:03002B0002246F3D
:0300330002245153
:03003B000224900C
:030043000224058F
:0300530002225A2C
:03006B0002242B41
:10008300022053E5C754F84401F5C7790122000063
:100093000080FB120086B900030200F1E4791A78AC
:1000A30002B800028004F709D8FCE4791C7802B88E
:1000B30000028004F709D8FCE4900281787F790F6D
:1000C3008002F0A3D8FCD9FA7AFF7B10900137782D
:1000D300E379018015E493A3AD82AE838A828B8397
:1000E300F0A3AA82AB838D828E83D8E9D9E7758288
:1000F300B37583DC740312011975829175830074DF
:100103000012011975D00075813F751881751902A8
:10011300759F00020096C09FF59FE473D09F22D085
:1001230083D082C09FE493C0E0740193C0E0740263
:1001330093F59F22A503B703E103AB03FF0000B4CC
:10014300000028002800283075A000A000A000A00F
:100153000000080008E001F000100010001000107B
:10016300001000100050005000500010001000D08C
:10017300070000000000000F0001000500307507B4
:10018300001000010081FF00000000FF0202023D99
:100193008501000038850243850100005711024B99
:1001A30085010000B2020243850100005811024D8F
:1001B30085010000C802FFFF0100FF20023D850109
:1001C300000035850243850100008611024F85003A
:1001D30000000000024585030000A5030D0B0D0B75
:1001E3000D0B0D0B0D0B0D0B0D0B0D0B0D0B0D0B4C
:1001F3000D0B0D0B0D0BE10CFF0CDB0CFFFF01E8EE
:1002030003053F10020AFA000500FF00FEFF00008D
:100213000000020000001201228FD403120122A564
:10022300D403120122D4D4031201220AD5031201EA
:100233002221D50312012238D5031201226FD503DF
:10024300120122C2D503120122D9D503120122922F
:10025300CC03120122A9CC03120122DACC0312012E
:100263002215CD031201223FCD0312012269CD03D2
:1002730012012280CD0312012297CD03120122AE77
:10028300CD03120122D7CD03120122EACD031201BD
:100293002200CE031201222ACE0312012235AA0222
:1002A30012012239AB0212012266AB02120122BCF7
:1002B300AB02120122DFAB02120122F3AB021201E5
:1002C30022F5AB0212012218AC0212012227AD0261
:1002D300120122EBAD02120122C0AE021201223141
:1002E300AF02120122BDAF02120122C0AF021201FE
:1002F3002248B00212012283B002120122EAB002A4
:10030300120122EDB00212012224B1021201224D88
:10031300B102120122F8B10212012282B2021201C9
:1003230022D1B202120122DEB202120122E1B20292
:1003330012012241B3021201224CB302120122CB59
:10034300B302120122CEB302120122E1B30212015F
:1003530022E4B30212012273B4021201228DB40209
:100363001201229DB402120122CDB402120122DA3B
:10037300B402120122DDB4021201225EB50212019F
:10038300224CB602120122FEB60212012252CC0204
:100393001201224ACD021201227ECD021201220055
:1003A300CE0212012220CE0212012268CE021201D5
:1003B30022BBCE021201221FCF02120122ACCF02B6
:1003C30012012266D00212012275D3021201220009
:1003D300D50212012223D50212012279A5031201AB
:1003E3002216A7031201227AA703120122D9A70317
:1003F300120122E7A70312012210A803120122B956
:100403008503120122E185031201220F86031201E3
:1004130022468603120122A48603120122EF8603D9
:100423001201223A87031201227A8703120122C0A2
:100433008703120122EE8703120122AB8803120104
:1004430022B58803120122C28803120122F5880310
:10045300120122C18903120122CD8903120122E56F
:100463008903120122EF89031201226D8A0312010B
:100473002263DA0312012271DA0312012289DA03F9
:10048300120122A1DA03120122B9DA03120122BFF7
:10049300F0011201226BF101120122E6F1011201B6
:1004A3002207F30112012243F301120122ECF301AB
:1004B300120122D3F40112012237F6011201228E16
:1004C300F6011201220FF701120122FFF7011201B7
:1004D300224CF801120122D2F80112012204F9017F
:1004E30012012218FB011201225AFB011201227888
:1004F300FB011201221AFC01120122E2FC0112018A
:1005030022EFFE01120122BFAC03120122D5AC037C
:10051300120122FBAC0312012217AE0312012221A6
:10052300AE0312012256AF031201224EB003120191
:10053300220F9003120122B39003120122E69003CB
:10054300120122309103120122F392031201228637
:10055300B101120122FFB1011201220FB2011201F6
:1005630022FDB20112012207B3011201222CB301B1
:1005730012012237B30112012221B4011201228494
:10058300B4011201223AB50112012221B70112016D
:1005930022DAB801120122B6B9011201226ABA01A4
:1005A300120122A7BD0112012255BE01120122C46C
:1005B300BF0112012244C101120122EBC101120148
:1005C3002234C2011201226BC20112012208C301AB
:1005D30012012293C30112012270C401120122C528
:1005E300C40112012224C60112012234C6011201E0
:1005F3002261C601120122B8C60112012261C7019C
:1006030012012268C80112012232C9011201229289
:10061300CA01120122D5CA011201227ACB011201A9
:1006230022A0CB01120122AECD01120122B3CD01D2
:10063300120122B8CF0112012205D0011201227842
:10064300D001120122ABD0011201224DD1011201BE
:1006530022F6D1011201222ED20112012231D2013E
:1006630012012279D201120122BBD20112012212FC
:10067300D3011201229FBD03120122B2BD03120155
:1006830022C0BD0312012208BE031201221EBE03B3
:1006930012012265BE0312012279BF031201220651
:1006A300C00312012251C003120122BB5F001201D9
:1006B30022CB5F001201222E600012012273600020
:1006C3001201222961001201220462001201222D6B
:1006D30062001201225D62001201229D6400120178
:1006E300228466001201225C6800120122A06900C4
:1006F300120122076C00120122156D0012012267FC
:100703006E00120122716F00120122B36F001201F9
:1007130022EB6F001201220D700012012270700093
:10072300120122327500120122C775001201221B29
:100733007600120122427600120122807600120115
:10074300229F7600120122F97600120122F9770026
:100753001201227E7800120122CEF302120122D866
:10076300F30212012280F402120122C3F4021201E5
:1007730022DEF4021201226EF50212012296F50224
:10078300120122CEF50212012205F6021201222ED7
:10079300F60212012268F6021201227DF60212010C
:1007A300224AF7021201226DF7021201228FF70289
:1007B300120122A4F7021201222AF8021201226472
:1007C300F802120122DCF80212012225F9021201B9
:1007D300224FF9021201227AF90212012243D703AE
:1007E3001201220080021201222E800212012289AC
:1007F30081021201226982021201228882021201FD
:1008030022058302120122488302120122C38402B9
:100813001201223285021201225D8702120122E1B6
:100823008902120122928A02120122888B0212018A
:1008330022288C02120122268D02120122B18D027E
:10084300120122F0D50312012259D603120122AD5F
:10085300D603120122DCD603120122FDD6031201B4
:1008630022909403120122FD940312012244950362
:100873001201225C96031201225897031201223BB4
:100883009803120122E57800120122277900120150
:1008930022007A00120122FA7A00120122DC7B0084
:1008A300120122457C00120122617D00120122CD3A
:1008B3007D00120122D07D00120122F97D00120178
:1008C30022737E00120122187F001201222D7F0065
:1008D300120122737F001201228C7F001201228FEA
:1008E3007F0012012258B00312012294B0031201B7
:1008F30022D2B0031201229CB1031201220BB203D4
:1009030012012246B20312012284B203120122B45D
:10091300B203120122DBB20312012249B303120113
:10092300228BB30312012255850112012274870120
:10093300120122578901120122938901120122C057
:100943008901120122878A01120122D28A0112012E
:10095300221D8B011201222F8B011201226F8B01A9
:10096300120122A38B01120122F18B011201222217
:100973008C01120122458C01120122CC8C0112013F
:1009830022B48D01120122A18E011201229A8F013C
:10099300120122A991011201224B97011201229BFC
:1009A3009701120122129A0112012298C80312011F
:1009B300224DCA03120122E4420012012293430092
:1009C300120122DD4300120122134500120122A964
:1009D30046001201221E47001201225F4700120146
:1009E30022B14700120122224900120122674B0063
:1009F300120122614C00120122804C001201229F3D
:100A03004C00120122A24C00120122D34D0012010C
:100A130022CB4E00120122B74F00120122275000B1
:100A2300120122995000120122205100120122FBCF
:100A33005100120122D05200120122AF53001201C1
:100A4300223A5400120122A854001201221C55001C
:100A5300120122475500120122065600120122F309
:100A630058001201223C59001201227F5900120141
:100A730022F85900120122905A00120122815B00D0
:100A8300120122A65B00120122EC5B001201221666
:100A93005C001201225E5C00120122D95C0012018B
:100AA30022335D001201229C5E001201224A5F0084
:100AB3001201228B5F00120122619C02120122AFFC
:100AC3009C02120122BB9C02120122999D02120177
:100AD30022CA9D02120122FB9D021201227B9E0269
:100AE300120122B39E02120122059F021201224229
:100AF3009F021201225FA10212012285A3021201A9
:100B03002270A5021201225AA702120122FC7F00C1
:100B1300120122A2F902120122EDFD021201223179
:100B2300FF021201226BE20112012223E5011201ED
:100B33002229E501120122E3E701120122B0EA01B1
:100B4300120122F58A03120122998B031201226BEF
:100B53008C03120122958C03120122E38E031201EE
:100B6300220425001201224E25001201228F330098
:100B7300120122143500120122373600120122A875
:100B83003C00120122A33D00120122E03D001201AC
:100B930022033E00120122453E001201224F3E0075
:100BA3001201223D3F00120122334000120122CCE8
:100BB30040001201223BB70312012235B803120190
:100BC30022A9B803120122E7B8031201225BB90379
:100BD300120122D4B903120122DDB903120122E961
:100BE300B903120122FEB9031201223CBA03120116
:100BF3002252BA0312012285ED0212012292ED0262
:100C0300120122ACED02120122EBED0212012229A4
:100C1300EE021201228EEE02120122A3EE02120153
:100C230022BAEE02120122C8EE02120122D7EE020C
:100C3300120122ECEE0212012201EF021201220C38
:100C4300EF0212012218EF0212012225EF02120114
:100C53002234EF021201223FEF0212012264EF025B
:100C63001201220BF00212012220F002120122359E
:100C7300F0021201224FF0021201226AF002120165
:100C83002287F00212012292F0021201224EF10297
:100C93001201223AF2021201225FF2021201226AC7
:100CA300F2021201227FF20212012293F2021201D6
:100CB30022F4F202120122FAF20212012200F302DA
:100CC30012012206F3021201221EF3021201225123
:100CD300F302120122FCC1021201221EC2021201FE
:100CE30022FEC202120122D5C50212012201C7024D
:100CF30012012225C802120122D7C802120122784A
:100D0300C902120122378E02120122BB8E02120186
:100D1300226A8F02120122C99002120122EA920270
:100D2300120122D693021201220B94021201222DE8
:100D33009402120122DC9402120122D496021201BF
:100D430022FD96021201228F9702120122C19702FD
:100D5300120122CE97021201222598021201224B80
:100D63009802120122B89A02120122BB9B021201BD
:100D730022139C02120122FFD30112012209D50181
:100D8300120122F0D501120122FAD5011201221C0F
:100D9300D60112012228D601120122C1D701120164
:100DA30022F0D7011201220CD90112012265D901C7
:100DB300120122CBDA01120122AADB01120122065F
:100DC300DC0112012273DC01120122AEDC011201EB
:100DD30022EDDC01120122A6DF01120122C0DF0194
:100DE3001201224CE0011201225AE001120122B346
:100DF300E001120122C1E00112012234E1011201DA
:100E03002298E101120122E2E1011201223CCE0308
:100E130012012261CE03120122D3CE031201223921
:100E2300E60212012242E6021201224BE6021201FD
:100E33002222E702120122D3E80212012209E90267
:100E430012012243E90212012279E902120122B3BB
:100E5300E902120122E7E90212012213EA02120156
:100E6300225CEA0212012296EA02120122DFEA025E
:100E730012012237EB021201226CEB02120122C78C
:100E8300EB0212012201EC0212012252EC021201C6
:100E93002288EC02120122C2EC02120122E5EC02CA
:100EA30012012208DC0312012234DC031201228F17
:100EB300DC0312012299DC03120122A9DC031201D3
:100EC3002244DE021201224EDE021201228CDE02D5
:100ED300120122D5DE021201220FDF021201226566
:100EE300DF0212012286DF021201220BE20212014B
:100EF3002214E2021201225FE20212012288E202BC
:100F030012012292E202120122FEE2021201229453
:100F1300E302120122DEE3021201220EE4021201B5
:100F23002297E402120122D7E4021201220FE50202
:100F330012012221E50212012240E5021201224997
:100F4300E5021201220FE60212012208FF0112013B
:100F530022A3CA03120122D9CA031201220FCB030F
:100F630012012258CC0312012274FF021201228AB9
:100F7300FF0212012294FF0212012258A10312015F
:100F8300226DA10312012220A20312012260A203F7
:100F930012012279A203120122ADA203120122FA45
:100FA300A2031201222EA30312012270A303120132
:100FB300226CA5031201221FE0031201227ED1033A
:100FC300120122A7D103120122D0D1031201226BF5
:100FD300D20312012283D203120122C5D2031201CA
:100FE300225ADD0312012292DD03120122C4DD0322
:100FF30012012282BA03120122B4BA03120122C2DD
:10100300BB031201227DBC031201228FBC03120118
:101013002297BC03120122BEBC0312012244BD036A
:101023001201224DBD0312012200C6031201226ADE
:10103300C60312012231DF0312012260DF03120112
:10104300226DDF03120122BCDF03120122008003A1
:101053001201223F8003120122C88003120122DD04
:1010630080031201222881031201225C81031201F1
:10107300229B8103120122AA81031201225C8203B3
:10108300120122B582031201220483031201225AA0
:1010930083031201224F84031201224485031201A8
:1010A30022818503120122BFDF031201222B9C013F
:1010B300120122AB9E011201221EA0011201221B6A
:1010C300A101120122A4A10112012228A2011201ED
:1010D300224DA2011201229DA20112012232A60178
:1010E300120122A6A60112012292A701120122CC0B
:1010F300A7011201220CA801120122B7A9011201B2
:1011030022E8A9011201223BAA0112012284AA01A9
:10111300120122F2AA0112012224AB011201223C84
:10112300AB0112012251AC0112012261AC01120187
:10113300227FAD01120122A1AD01120122D7AD011F
:1011430012012280AF01120122F9AF0112012238EC
:10115300B0011201224FB10112012252DB0312012D
:101163002263DB03120122B37F00120122F27F000C
:1011730012012208E103120122FEDD031201220EF5
:10118300DE0312012229DE0312012291DE03120182
:10119300225CD803120122E1D80312012247D903AA
:1011A3001201220AD30312012233D3031201229E16
:1011B300D303120122EFD30312012248D4031201F5
:1011C30022FD9803120122349903120122A49903E8
:1011D300120122B99903120122CF9A03120122515B
:1011E3009B03120122179C03120122369C03120156
:1011F300225D9C03120122929C03120122AA9C03EA
:10120300120122FB9C0312012224A903120122359D
:10121300A903120122B2A90312012287AA03120110
:101223002259AC031201223FC303120122CFC3038D
:101233001201224DC403120122E2C4031201226CE3
:10124300C50312012276C5031201228AC5031201C6
:10125300229DC503120122FDC503120122D3B3034C
:10126300120122EEB3031201221DB4031201224C18
:10127300B40312012278B403120122C1B403120190
:101283002212B50312012253B50312012292B503B0
:10129300120122DEB50312012243B6031201229783
:1012A300B60312012260D903120122D1D90312011C
:1012B30022EFD903120122E1CF0312012231D0031D
:1012C300120122BAD00312012220D1031201227B80
:1012D300C003120122A5C0031201226BC103120134
:1012E3002246C203120122CDC2031201224ED602AC
:1012F3001201220BD70212012246D7021201226EDB
:10130300D702120122D0D7021201221CD8021201E5
:10131300227CD8021201220FD9021201220EDA0214
:101323001201229DDB0212012220DC02120122871C
:10133300DC021201229EDC02120122A8DD0212014C
:1013430022E6DD021201226FB70212012272B802F5
:101353001201227FB902120122B8BB0212012283B9
:10136300BC02120122A6BC02120122DBBE02120140
:10137300222DBF02120122C1BF02120122EAC002C2
:1013830012012287C102120122F92400120122B4A0
:10139300E003120122309D031201229BDE0312019E
:1013A30022C5DE031201227EE003120122E0E003E4
:1013B300120122DEFF02E76670100809E766700A71
:1013C3000809E76670040809E76622E066701008FA
:1013D300A3E066700A08A3E066700408A3E066222F
:1013E300C3E09608A3E09608A3E09608A3E096A2BC
:1013F300D265D03322C3E7960809E7960809E79632
:101403000809E79622C3E09608A3E09608A3E096AE
:1014130008A3E09622C008C3E096F50808A3E09667
:10142300420808A3E096420808A3E0964508700125
:10143300D3D00822080808EAC0E0EBC0E086F0E752
:10144300A4FA180986F0E7A42AFA180986F0E7A493
:101453002AFA180986F0E7A42AFA1986F0E7A4FB0A
:10146300E5F02AFA190886F0E7A42BFBE5F03AFA2F
:10147300190886F0E7A42BFBE5F03AFA1818098659
:10148300F0E7A4C5F02BFBE43AFA1908E7C5F0C668
:10149300A426F6E5F03BFBE43AFA1886F0E7A4F657
:1014A300E5F00826F6E43B08F6E43A08F6D0E0FB5C
:1014B300D0E0FA22E4CFC0E0E4CEC0E0E4CDC0E067
:1014C300E4CCC0E075F020E626F608E633F608E63D
:1014D30033F608E633F6181818EC33FCED33FDEE5B
:1014E30033FEEF33FFC3EC9709ED9709EE9709EF4E
:1014F30097191919400FFFEC97FC09ED97FD09EEB9
:1015030097FE191906D5F0BFECF709EDF709EEF7C9
:1015130009EFF7191919D0E0FCD0E0FDD0E0FED0B7
:10152300E0FF22E4C396F608E496F608E496F6088C
:10153300E496F6226016080808C6C313C618C61335
:10154300C618C613C618C613C6D5E0EA2270090822
:101553000808226016181818C6C333C608C633C64F
:1015630008C633C608C633C6D5E0EA22E627F6081E
:1015730009E637F60809E637F60809E637F622E002
:1015830026F608A3E036F608A3E036F608A3E0360D
:10159300F622E026F008A3E036F008A3E036F008D0
:1015A300A3E036F022C3E697F60809E697F60809A2
:1015B300E697F60809E697F622C3E096F008A3E05B
:1015C30096F008A3E096F008A3E096F022E657F61B
:1015D3000809E657F60809E657F60809E657F6221A
:1015E300E056F008A3E056F008A3E056F008A3E0A5
:1015F30056F022E667F60809E667F60809E667F695
:101603000809E667F622E0F608A3E0F608A3E0F689
:1016130008A3E0F622E6F008A3E6F008A3E6F00844
:10162300A3E6F022E0FAA3E0FBA3E0FCA3E0FD22A3
:10163300EAF0A3EBF0A3ECF0A3EDF022E0F8A3E0D3
:10164300F9A3E0FAA3E0FB22E8F0A3E9F0A3EAF0B0
:10165300A3EBF022CAC0E0E6F0A308DAFAD0E0FA7E
:1016630022CAC0E0E0A3C582CCC582C583CDC583B1
:10167300F0A3C582CCC582C583CDC583DAE6D0E0AD
:10168300CA22C3E498F8E499F91216C68026C3E483
:101693009AFAE49BFBE920E7E91216C6E498F8E41A
:1016A30099F922C3E498F8E499F91216C6E498F874
:1016B300E499F9C3E49AFAE49BFB22EB20E7CFE930
:1016C30020E7E0B90010BB0008E88AF084F8AAF02C
:1016D30022E4FBC8FA22EB70227B10C833C8C9335B
:1016E300C9335007C39AC3DBF280069A50012ADB41
:1016F300EAC833F4C8C933F4C9FA2275F008E4C858
:1017030033C8C933C933C99AC99B5004C92AC93BD1
:10171300D5F0ECFBC833F4C8E4C9FA22600D08C65F
:10172300A2E713C618C613C6D5E0F322600C08C699
:10173300C313C618C613C6D5E0F422700422600D85
:1017430018C6C333C608C633C6D5E0F41822251815
:1017530010AF08F518400C15198008F5184002154C
:1017630019D2AF2200C0D0251810AF08F518500CBD
:1017730005198008F51850020519D2AFD0D02225DB
:1017830018F58210AF08F518400C15198008F518E4
:1017930040021519D2AF851983222518F582E43545
:1017A30019F583222518F8E43519F9222518FAE4E6
:1017B3003519FB222518FCE43519FD22E47325189D
:1017C300C582C0E0E51934FFC583C0E0E518C395C1
:1017D3008224F810AF0885831985821880088583D1
:1017E30019858218D2AFCEF0A3E520F0A37808E6DE
:1017F30008F0A3DEFAEFF0A3E58124FAF8E608F097
:10180300A3E608F0A3E608F0A30808E608F0A3E6B9
:1018130008F0A315811581D0E0FED0E0F8158115FD
:10182300811581E8C0E0EEC0E0222518C582C0E042
:10183300E51934FFC583C0E0E518C3958224F91088
:10184300AF088583198582188008858319858218D6
:10185300D2AFCEF0A3E520F0A37808E608F0A3DE2C
:10186300FAEFF0A3E58124FBF8E608F0A3E608F01D
:10187300A30808E608F0A3E608F0A315811581D0B4
:10188300E0FED0E0F815811581E8C0E0EEC0E0226B
:10189300851983851882E0A3FEE0A3F5207808E08C
:1018A300A3F608DFFAE0A3FFE0A3C0E0E0A3C0E0F3
:1018B300E0A3C0E0E0A3C0E0E0A3C0E010AF088570
:1018C30082188583198008858218858319D2AFD041
:1018D30083D08202011F851983851882E0A3FEE06D
:1018E300A3F5207808E0A3F608DFFAE0A3FFE0A35E
:1018F300C0E0E0A3C0E0E0A3C0E0E0A3C0E010AF1D
:10190300088582188583198008858218858319D2F2
:10191300AFD083D08222C0D02518C582C0E0E5199C
:1019230034FFC583C0E0E518C3958224F310AF08E4
:101933008583198582188008858319858218D2AF1B
:10194300C8F0A3E9F0A3EAF0A3EBF0A37908E70951
:10195300F0A3D8FAECF0A3EDF0A3EEF0A3EFF0A31D
:10196300D0E0F0A3D0E0F0A3D0E0F0A3E520F0A313
:10197300E5F0F0A322851983851882E0C0E0A3E097
:10198300F9A3E0FAA3E0FBA37808E0F608A3DFFAE3
:10199300E0FCA3E0FDA3E0FEA3E0FFA3E0C0E0A31F
:1019A300E0C0E0A3E0F5D0A3E0F520A3E0A3F5F0C9
:1019B30010AF08858319858218800885831985826D
:1019C30018D2AFD082D083D0E0F8D0E03274048054
:1019D30006740280027401C0E0F404121782D0E09E
:1019E300121657227404800474028000CCC0E0ED08
:1019F300C0E0E518C39CCCAD1950011D10AF068C97
:101A0300188D1980068C188D19D2AF121664D0E088
:101A1300FDD0E0FC22D083D082E9C0E0E493A3C3ED
:101A230086F0C5F095F0F908E493A386F0C5F09528
:101A3300F0700BE493A3C3994005E9048002A3E487
:101A430075F002A42582F582E5F03583F583D0E0B5
:101A5300F9E493A3C0E0E493C0E022D083D082EC06
:101A6300C0E0EDC0E0E493A3FCE493A3FDED4C6080
:101A73000D121AAAEC24FFFCED34FFFD80EFE49372
:101A8300A3FCE493A3FDED4C600D121AE9EC24FFD3
:101A9300FCED34FFFD80EFD0E0FDD0E0FCE493A348
:101AA300C0E0E493C0E022C0E0C3E493960874016D
:101AB300939618400FE493667008087401936618B0
:101AC30070007019A3A3C3E4939608740193961846
:101AD300A3A3400DD0E0D0E0D0E0021A9AA3A3A3C1
:101AE300A3A3A3D0E022C0E0C0F088F0E493667023
:101AF300080874019366187000A8F0A3A3700BD0B4
:101B0300F0D0E0D0E0D0E0021A9AA3A3D0F0D0E066
:101B13002274F512182DEAFEEBFFEE2434F8EF34AD
:101B230000F988088909EE2435F582EF3400F5833E
:101B3300E0F8EE2437F582EF3400F583E0F50AECA4
:101B4300850AF0A4FCAAF0850AF0EDA42AFDE82C8E
:101B5300F8E43DF97A257B001216C6EA85088285EA
:101B63000983F0F8740758F97401B900028004C3BB
:101B730033D9FCFAE8131313541FF8EE28F8EF34A3
:101B830000F9E8245DF582E93400F583E05A600842
:101B9300EE2434F582EF802CEE2434F582EF34000A
:101BA300F583E0C0E0EE2436F582EF3400F583E000
:101BB300F5F0D0E084A8F0EE28F8EF3400F9E8243B
:101BC30038F582E93400F583E0F97F040218D9740B
:101BD300F512182DEAFEEBFFEE2434F582EF340004
:101BE300F583E0C0E0EE2435F582EF3400F583D0D1
:101BF300E0F08E828F83A3A3A3A3A3A3A3C082C079
:101C0300838E828F83A3A3A3A3A3E0F8A3E0F9D0D9
:101C130083D082E0C398F508A3E099F509EE247F09
:101C2300F582EF3400F583E064017069EE2480F5FA
:101C330082EF3400F583E0F8A3E0F98E828F83A36B
:101C4300A3A3A3A3A3A3E0FCA3E0FD8E828F83A39E
:101C5300A3A3A3A3E0FAA3E0FBC3EA9CEB9D50106C
:101C6300C3EC98ED99402EC3EA98EB995027800E68
:101C7300C3EA98EB994007C3EC98ED9940177CBFF2
:101C83007D07EEFAEFFB120A53EE247FF582EF3461
:101C930000F583E4F0EE2434F8EF3400F9E8FCE9CE
:101CA300FDEE2435F582EF3400F583E0F8EE2437BA
:101CB300F582EF3400F583E0F50AE508850AF0A420
:101CC300F508AAF0850AF0E509A42AF509E825082C
:101CD300F8E43509F97A257B001216C6EA8C828D61
:101CE30083F0F8740758F97401B900028004C33310
:101CF300D9FCFAE8131313541FF8EE28F8EF340055
:101D0300F9E8245DF582E93400F583E05A6008EED2
:101D13002434F582EF802CEE2434F582EF3400F581
:101D230083E0C0E0EE2436F582EF3400F583E0F57E
:101D3300F0D0E084A8F0EE28F8EF3400F9E8243876
:101D4300F582E93400F583E0F91223F1021BCD7427
:101D5300EF12182D900479E064086005E0640770C1
:101D63002A9061C8E060249004A7E0F4601DE0F8C5
:101D730075F005A4C8AAF02AF974A928FE740439D9
:101D8300FF8E828F83A3A3A3E07003021E82906061
:101D930060E0C0E0EE2468F582EF3400F583D0E024
:101DA300F0750CFB750D07750800750900E5D9146E
:101DB300F50AE5D95403F50E60177403650E605CEC
:101DC300E50A6010EE2467F582EF3400F583E070D6
:101DD30003021E679007F6E06401602AEE2482F591
:101DE30082EF3400F583E060047804800278008594
:101DF3000A08E508C398FA95E0FB1209398A088BAB
:101E030009EA45097005120CB78074EE2482F58245
:101E1300EF3400F583E070048A0C8B0DE50A601241
:101E2300850C82850D83F50BE5D9F0A3150BE50B26
:101E330070F6EE2482F582EF3400F583E06044749B
:101E4300FC250AF50A780C1219D4AC0AA90EEEFA8D
:101E5300EFFB120B077402121767E97026AA08AB8F
:101E6300091212BD793D8E828F83A3A3A3A3E0FA47
:101E73007B0012081FEEFAEFFB120A77120B677949
:101E83000080747403650E6056850A10751100781E
:101E9300101219D4AC0CAD0DAA08AB09120AE374E5
:101EA30002121767EE2468F582EF3400F583E064CD
:101EB300807004747F8001E0F50C780C1219D8E56A
:101EC3000EF50C780C1219D8A90AAC08AD099004C8
:101ED300A7E0FA7B001207DD7402121767801390E4
:101EE3000479E06408700BAC0CAD0DEEFAEFFB1255
:101EF3000B37120CC379017F0A0218D974F5121833
:101F03002D74FC121751EAFEEBFF8908A2AFE433EC
:101F1300F509C2AF806AEE2463F8EF3400F97A0062
:101F23007B00A2AFE433F50AC2AF88828983E0FC69
:101F3300A3E0FDEC4D603A88828983E0FAA3E0FBDD
:101F43008A828B83E0FCA3E0FD88828983ECF0A383
:101F5300EDF08A828B83E4F0A3F088828983E0FC2E
:101F6300A3E0FDEC4D700A88828983A3A3E4F0A368
:101F7300F0E50AA2E092AF1212BD9007C6E004F0AA
:101F8300EE2463F582EF3400F583E0F8A3E0F9E88B
:101F930049603DEE2463F582EF3400F583E02402CB
:101FA300FAA3E03400FBEA2402F50AEB3400F50B54
:101FB300780A1219D48A828B83E0FCA3E0F9EEFA43
:101FC300EFFB120AA77402121767E97003021F19C5
:101FD3009007C6E060639007C7E0F89007C6E0C3C8
:101FE30098500C7402650870509007C8E0604A8EE0
:101FF300828F83A3A3A3A3E0851882851983F0A30B
:10200300E4F09007C6E0F8740212179DE8F0A3E429
:10201300F09007C6E0F89007C5E028F074021217A5
:102023009DAC82AD83851882851983AA82AB83799F
:10203300011207E99007C6E4F0E509A2E092AF7444
:1020430004121767021BCD0000851A87851BC62261
:10205300C0E0C0D0E8C0E0E9C0E0EAC0E0EBC0E027
:10206300ECC0E0EDC0E0EEC0E0C008C009C00AC0AB
:102073000BC082C083C0F0A2AFE433FEC2AF759B36
:1020830000906182E0A2E05012E591A2E0500C754D
:1020930091FE7401651A7003121D52E0A2E55051BE
:1020A300E591A2E5504B7591DF900479E0640760F8
:1020B30005E0640870237401651A70357901900492
:1020C300A7E0FA75F005A4CAA8F028FB74A92AFAB8
:1020D30074043BFB121EFF8018E0640D7013900420
:1020E3009BE004F064287002E4F07A00E0F9120C3B
:1020F300C9906182E0A2E6400302219AE591A2E63B
:10210300400302219A7591BF900479E06405700839
:10211300120BD3120BDF8003120BD9751A00120CAA
:1021230039E990047AF07900120C1B1209C37A0181
:102133007B00900478E0F9120F21907803E0644269
:1021430070559007FAE014F0704DC2AF122152009F
:10215300781DD0E0F618D0E0F6E59F5407700575BA
:1021630009FF800375097FC4C0E0781CE6F5080801
:10217300E65509F509740B780812172FD0E02508E6
:10218300F8906270E0A2E740F8E8C333906272F01F
:10219300906270E0D2E0F0906181E0A2E35009E543
:1021A300E9A2E3500375E9F7A3E0A2E75009E5913B
:1021B300A2E7500375917FEEA2E092AFD0F0D083F7
:1021C300D082D00BD00AD009D008D0E0FED0E0FDF9
:1021D300D0E0FCD0E0FBD0E0FAD0E0F9D0E0F8D0DA
:1021E300D0D0E032C0E0C0D0C082C083906183E031
:1021F300A2E05009E5BFA2E0500375BFFEE0A2E1F3
:102203005009E5BFA2E1500375BFFDE0A2E250090A
:10221300E5BFA2E2500375BFFBE0A2E35009E5BFAF
:10222300A2E3500375BFF7E0A2E45009E5BFA2E4BF
:10223300500375BFEFE0A2E55009E5BFA2E55003E7
:1022430075BFDFE0A2E65009E5BFA2E6500375BF04
:10225300BFD083D0828088C0E0C0D0E8C0E0E9C0AE
:10226300E0EAC0E0EBC0E0ECC0E0EDC0E0C0F0E5C8
:10227300A7A2E6500FE5A1A2E6500953A7BF75A197
:10228300BF1222BFE5A7A2E5500CE5A1A2E55006C7
:1022930053A7DF75A1DFE5A7A2E15009E5A1A2E1FC
:1022A300500375A1FDE5A7A2E2500CE5A1A2E250FF
:1022B3000653A7FB75A1FBD0F00221D074F81218C6
:1022C3002D751A01900479E064067015120B8B8A40
:1022D300828B83A3A3A3A3A3A3E0FAA3E0FB120B24
:1022E300C1A2AFE433FED2AF90047FE06401701863
:1022F3007A207B00900478E0F9120F9F7A207B000C
:10230300900478E0F9120F27906182E0D2E6F09012
:1023130007F7E0602185C61B801690047EE0640108
:102323007008E5C654F84405F5C653BEFC12204CAC
:102333007401651A60E4EEA2E092AF7F010218D93E
:1023430074ED12182D8A088B098C0A8D0B741312E5
:10235300179D780C1216097808790C1213F875106A
:10236300017511C875120075130050127808790CA5
:102373001215A8781079081213F850168010780CEB
:1023830079081215A87810790C1213F84004790112
:10239300800279007F0C0218D974ED12182D8A0877
:1023A3008B098C0A8D0B741312179D780C12160966
:1023B300780C79081213F840117808790C1215A8D3
:1023C300AA08AB09AC0AAD0B802275100075110089
:1023D3007512007513017810790C1215A87810790D
:1023E3000812156FAA10AB11AC12AD1380A6C082F0
:1023F300C083E9906000F0D083D08222C2AF020094
:102403000022C0E074F2121919A2AFE433FED2AF76
:10241300C2C0E5D1A2E4500653D1EF121257EEA287
:10242300E092AF7F01021978C0E074F2121919A289
:10243300AFE433FED2AFE589A2E150031211BB75BD
:102443008900C2C5EEA2E092AF7F01021978C0E015
:1024530074F2121919A2AFE433FED2AFE58BA2E0F6
:1024630050031211BB758B00C2E880D8C0E0C0D006
:10247300E8C0E0E9C0E0E5A8D2AFC2C7A2E7A2E79F
:1024830092AFD0E0F9D0E0F8D0D0D0E032C0E0C0D5
:10249300D0E8C0E0E9C0E0C008C009C082C083A2A0
:1024A300AFE433F9D2AF901053E0F8A3E0687008BB
:1024B300539AFBA374018025C2E9901053E0F508F9
:1024C30074012508F074D32508F582E4340FF583ED
:1024D300E0F5C1901053E0C394804002E4F0E9A218
:1024E300E092AFD083D082D009D008D0E0F9D0E019
:1024F300F8D0D0D0E03202011FFFFFFFFFFFFFFF44
:10250300FFC082C083784C790888828983A3A3A300
:10251300A3A3A3E4F088828983A3A3A3A3A374FF43
:10252300F0E82418F8E93400F9E864AC7003E964CE
:102533000870D690084E74FFF090084DE4F09008B0
:102543004CF090084FF0A3F0023DFC74EC1217C15D
:1025530090084FE0F508A3E0F509E5084509700682
:102563001209C302338A850882850983E01460183F
:1025730014601524FE601124C47003022D9024C03E
:102583007003022D9002338AE0F9120B798A0A8BC9
:102593000BAE0AAF0B9004A6E0700302298E120A59
:1025A3006BE9F875F005A4C8AAF02AF974A928F50F
:1025B3000C740439F50D850C82F583E0F50AA3E06C
:1025C300F50BAC0AFDEEFAEFFB120B73E9F50E7493
:1025D30002650E70030229368E828F83E024FE602B
:1025E3000A24FE700302282002338AEE6508700372
:1025F300EF650960211209E19007DAE064017016C2
:102603009007D9E070107901120C87120C57120C45
:10261300817900120C8DE50E6021E5082415F58201
:10262300E5093400F583E060129007D5E0F8A3E0F4
:10263300F9A3E0687003A3E0697042120BEB8A0C04
:102643008B0D8C0E8D0F75100375110075120075AF
:102653001300780C791012156F7510FF7511FF7543
:1026630012FF780C79101215D08E828F83A3A3E505
:102673000CF0A3E50DF0A3E50EF0A3E4F0E50824C8
:1026830015F582E5093400F583E064016003022750
:1026930038850A82850B83A3A3750CF1750DFF752D
:1026A3000EFF750FFF780C121582780C1219D08E5D
:1026B300828F83A3A3C082C0839007D7E0F508A3CA
:1026C300E085080CF50DE4F50EF50FD083D0827884
:1026D3000C121582AA0CAB0DAC0EAD0F1223437472
:1026E30004121767E9701F8E828F83A3A3C082C071
:1026F300839007D7E0F508A3E0F509E4F50AF50BA5
:10270300D083D0828014850A82850B83A3A37508A6
:10271300F17509FF750AFF750BFF780812158275AD
:102723000CFF750DFF750EFF750F007808790C12FD
:1027330015D0022C88EE240EF582EF3400F58312B7
:1027430019E78E828F83A3A31216271223437404DF
:10275300121767E9640160030232AB850A82850BB5
:1027630083A3A3750CF1750DFF750EFF750FFF782D
:102773000C121582780C1219D08E828F83A3A3C0FA
:1027830082C0839007D7E0F508A3E085080CF50D18
:10279300E4F50EF50FD083D082780C121582AA0CC3
:1027A300AB0DAC0EAD0F1223437404121767E9701F
:1027B3001F8E828F83A3A3C082C0839007D7E0F5C7
:1027C30008A3E0F509E4F50AF50BD083D082801461
:1027D300850A82850B83A3A37508F17509FF750A22
:1027E300FF750BFF7808121582750CFF750DFF75C9
:1027F3000EFF750F007808790C1215D0EE240EF534
:1028030082EF3400F58378081216189007DDE06430
:1028130027700474258002E004F00232ABEE6508F1
:102823007003EF650960319007F1E0F91209E7855C
:102833000882850983E06402701E9007DAE0640170
:1028430070169007D9E070107900120C87120C579C
:10285300120C817901120C8DE50E60129007EBE0EA
:10286300F8A3E0F9A3E0687003A3E0697039120BE1
:10287300EB8A0C8B0D8C0E8D0F7510037511007583
:102883001200751300780C791012156F7510FF750F
:1028930011FF7512FF780C79101215D08E828F8379
:1028A300A3A3780C121618850A82850B83A3A3753C
:1028B3000CF1750DFF750EFF750FFF780C12158265
:1028C300780C1219D08E828F83A3A3C082C0839009
:1028D30007EDE0F508A3E085080CF50DE4F50EF52A
:1028E3000FD083D082780C121582AA0CAB0DAC0EDC
:1028F300AD0F1223437404121767E9701F8E828F82
:1029030083A3A3C082C0839007EDE0F508A3E0F59D
:1029130009E4F50AF50BD083D0828014850A8285F9
:102923000B83A3A37508F17509FF750AFF750BFFE8
:10293300023094850882850983E06402701390074E
:10294300DAE06401700B9007D9E070057900120C8E
:1029530087E50C2404FEE50D3400FF8E828F83E0AF
:10296300F9120BAF8E828F83E09004A7F07902FAFD
:1029730075F005A4CAA8F028FB74A92AFA74043BCD
:10298300FB121EFFAA0AAB0B023387EE6508700326
:10299300EF65098E828F836003022BAAE024FE6019
:1029A3000A24FE7003022AE7023383EE2415F5821C
:1029B300EF3400F583E0604C9007D5E0F8A3E0F92D
:1029C300A3E0687003A3E069603A120BEB8A088BFB
:1029D300098C0A8D0B750C0A750D00750E00750FA9
:1029E300007808790C12156F78081219D08E828F2F
:1029F30083A3A31216271223437404121767E960F3
:102A030003023383120BEB8A088B098C0A8D0B7537
:102A13000C03750D00750E00750F007808790C1204
:102A2300156F750CFF750DFF750EFF7808790C1285
:102A330015D08E828F83A3A37808121618EE24155F
:102A4300F582EF3400F583E0640170328E828F8368
:102A5300A3A3C082C0839007D7E0F508A3E0F509DC
:102A6300E4F50AD083D0827808121582EE240EF59D
:102A730082EF3400F5837808121618023383EE24AC
:102A83000EF582EF3400F5831219E78E828F83A34C
:102A9300A31216271223437404121767E964016013
:102AA300030233838E828F83A3A3C082C0839007E4
:102AB300D7E0F508A3E0F509E4F50AD083D08278DE
:102AC30008121582EE240EF582EF3400F5837808A0
:102AD3001216189007DDE06427700474258002E065
:102AE300040233829007EBE0F8A3E0F9A3E06870F7
:102AF30003A3E0696037120BEB8A088B098C0A8DFC
:102B03000B750C0A750D00750E00750F00780879AA
:102B13000C12156F78081219D08E828F83A3A3121B
:102B230016271223437404121767E97077EE240201
:102B3300F508EF3400F509120BEB8A0C8B0D8C0EA4
:102B43008D0F751003751100751200751300780C45
:102B5300791012156F7510FF7511FF7512FF780C40
:102B630079101215D0850882850983780C121618FE
:102B7300850882850983C082C0839007EDE0F5084C
:102B8300A3E0F509E4F50AF50BD083D082780812A7
:102B93001582EE240EF582EF3400F58378081216C1
:102BA300181209ED023383E024FE600A24FE700349
:102BB300022C9A02338A1209E19007DAE064017069
:102BC300169007D9E070107901120C87120C571276
:102BD3000C817900120C8D9007D5E0F8A3E0F9A3DE
:102BE300E0687003A3E0696037120BEB8A088B0976
:102BF3008C0A8D0B750C0A750D00750E00750F0090
:102C03007808790C12156F78081219D08E828F8389
:102C1300A3A31216271223437404121767E97074CF
:102C2300EE2402F508EF3400F509120BEB8A0C8B46
:102C33000D8C0E8D0F751003751100751200751331
:102C430000780C791012156F7510FF7511FF75124E
:102C5300FF780C79101215D0850882850983780CCA
:102C6300121618850882850983C082C0839007D70E
:102C7300E0F508A3E0F509E4F50AF50BD083D0826B
:102C83007808121582EE240EF582EF3400F583786E
:102C9300081216180232AB9007F1E0F91209E78522
:102CA3000882850983E06402701E9007DAE06401FC
:102CB30070169007D9E070107900120C87120C5728
:102CC300120C817901120C8D9007EBE0F8A3E0F967
:102CD300A3E0687003A3E0696037120BEB8A088BEB
:102CE300098C0A8D0B750C0A750D00750E00750F96
:102CF300007808790C12156F78081219D08E828F1C
:102D030083A3A31216271223437404121767E970CF
:102D130079EE2402F8EF3400F988088909120BEBE5
:102D23008A0C8B0D8C0E8D0F7510037511007512A7
:102D330000751300780C791012156F7510FF75115B
:102D4300FF7512FF780C79101215D085088285095A
:102D530083780C121618850882850983C082C08384
:102D63009007EDE0F508A3E0F509E4F50AF50BD0CB
:102D730083D0827808121582EE240EF582EF340098
:102D8300F58378081216181209ED02337D9004A614
:102D9300E070030231A1120A6BE9F875F005A4C8CB
:102DA300AAF02AF974A928F510740439F5118510CD
:102DB30082F583E0F508A3E0F5099004A7E0F87530
:102DC300F005A4C8AAF02AF974A928F50C740439EB
:102DD300F50D90084DE0540770030230AFA3E0F9FE
:102DE300120B798A0A8B0BAE0AAF0BAC08AD091232
:102DF3000B73E9F50E7402650E70030230AF850C98
:102E030082850D83A3A3A3A3E0F875F08AA4C8AABF
:102E1300F02AF974B128F50A740839F50BAA0AFBEC
:102E2300120BA3AA0AAB0B120B9D7512807513002C
:102E330078121219D47C007D60E50A2406FAE50BAA
:102E43003401FB120AE37402121767A80AA90B9054
:102E53006195E0C0E0E82486F582E93401F583D08A
:102E6300E0F0906196E0C0E0E82487F582E9340160
:102E7300F583D0E0F0906197E0C0E0E82488F58224
:102E8300E93401F583D0E0F0906198E0C0E0E824F4
:102E930089F582E93401F583D0E0F08E828F83E0F7
:102EA30024FE600A24FE7003022FBA0230AF120917
:102EB300E19007DAE0640170119007D9E0700B121A
:102EC3000C57120C817900120C8DE50E60129007DD
:102ED300D5E0F8A3E0F9A3E0687003A3E0697036D6
:102EE300120BEB8A0C8B0D8C0E8D0F751003751165
:102EF30000751200780C791012156F7510FF75119B
:102F0300FF7512FF780C79101215D08E828F83A370
:102F1300A3780C121618850882850983A3A3750C60
:102F2300F1750DFF750EFF750FFF780C1215827882
:102F33000C1219D08E828F83A3A3C082C083900703
:102F4300D7E0F50CA3E0F50DE4F50EF50FD083D033
:102F530082780C121582AA0CAB0DAC0EAD0F1223A6
:102F6300437404121767E9701F8E828F83A3A3C073
:102F730082C0839007D7E0F508A3E0F509E4F50ADA
:102F8300F50BD083D0828014850882850983A3A39F
:102F93007508F17509FF750AFF750BFF780812159F
:102FA30082750CFF750DFF750EFF750F007808799C
:102FB3000C1215D002329C9007F1E0F91209E7E5F3
:102FC3000E60129007EBE0F8A3E0F9A3E06870034A
:102FD300A3E0697036120BEB8A0C8B0D8C0E8D0FF0
:102FE300751003751100751200780C791012156FA6
:102FF3007510FF7511FF7512FF780C79101215D03B
:103003008E828F83A3A3780C1216188508828509F4
:1030130083A3A3750CF1750DFF750EFF750FFF7874
:103023000C121582780C1219D08E828F83A3A3C041
:1030330082C0839007EDE0F50CA3E0F50DE4F50EF7
:10304300F50FD083D082780C121582AA0CAB0DAC8D
:103053000EAD0F1223437404121767E9701F8E829B
:103063008F83A3A3C082C0839007EDE0F508A3E09C
:10307300F509E4F50AF50BD083D082801485088224
:10308300850983A3A37508F17509FF750AFF750BFD
:10309300FF7808121582750CFF750DFF750EFF750D
:1030A3000F007808790C1215D002336BE510650C0C
:1030B3007004E511650D700302317F850C82850D67
:1030C30083A3A3A3E07003023163850C82850D8380
:1030D300A3A3A3A3E0F875F08AA4C8AAF02AF974FD
:1030E300B128FE740839FFEEFAEFFB120BA3EEFAD8
:1030F300EFFB120B9D750A80750B00780A1219D429
:103103007C007D60EE2406FAEF3401FB120AE374BF
:1031130002121767906195E0C0E0EE2486F582EF16
:103123003401F583D0E0F0906196E0C0E0EE2487AF
:10313300F582EF3401F583D0E0F0906197E0C0E0D1
:10314300EE2488F582EF3401F583D0E0F0906198A6
:10315300E0C0E0EE2489F582EF3401F583D0E0F09E
:10316300E5102404FEE5113400FF8E828F83E0F91D
:10317300120BAF8E828F83E09004A7F07902900444
:10318300A7E0FA75F005A4CAA8F028FB74A92AFAE7
:1031930074043BFB121EFFAA08AB09023387900895
:1031A3004DE05407700302338AA3E0F9120B798AC6
:1031B300088B09AE08AF098E828F83E024FE600A74
:1031C30024FE70030232B302338A1209E19007DA54
:1031D300E0640170169007D9E070107901120C8732
:1031E300120C57120C817900120C8D9007D5E0F860
:1031F300A3E0F9A3E0687003A3E0696037120BEB67
:103203008A088B098C0A8D0B750C0A750D00750ED7
:1032130000750F007808790C12156F78081219D011
:103223008E828F83A3A312162712234374041217CB
:1032330067E97074EE2402F508EF3400F509120B08
:10324300EB8A0C8B0D8C0E8D0F75100375110075A9
:103253001200751300780C791012156F7510FF7535
:1032630011FF7512FF780C79101215D0850882852D
:103273000983780C121618850882850983C082C0D9
:10328300839007D7E0F508A3E0F509E4F50AF50B09
:10329300D083D0827808121582EE240EF582EF34A3
:1032A30000F583780812161890084E7402023382D0
:1032B3009007F1E0F91209E79007EBE0F8A3E0F9D2
:1032C300A3E0687003A3E0696037120BEB8A088BF5
:1032D300098C0A8D0B750C0A750D00750E00750FA0
:1032E300007808790C12156F78081219D08E828F26
:1032F30083A3A31216271223437404121767E970DA
:1033030076EE2402F8EF3400F988088909120BEBF2
:103313008A0C8B0D8C0E8D0F7510037511007512B1
:1033230000751300780C791012156F7510FF751165
:10333300FF7512FF780C79101215D0850882850964
:1033430083780C121618850882850983C082C0838E
:103353009007EDE0F508A3E0F509E4F50AF50BD0D5
:1033630083D0827808121582EE240EF582EF3400A2
:10337300F58378081216181209ED90084E7404F0BC
:10338300EEFAEFFB120B6D7F0C02189374F0121719
:10339300C1EAFEEBFFEE2402F8EF3400F988088956
:1033A30009EE2406F8EF3400F9880A890B8882F5C0
:1033B300831219EB850882850983121627120BC71E
:1033C3007402121767850A82850B831219EB85082D
:1033D30082850983121627120BBB7402121767EE3C
:1033E300240EF582EF3400F583121627120BCD8ECF
:1033F300828F83E06440701CEE2412F8EF3400F9EE
:1034030088828983E0906064F088828983A3E09056
:1034130060658006906064E4F0A3F090084FEEF0DE
:10342300A3EFF0EE2416F582EF3400F583E0F8A362
:10343300E0F58388821217BF906054E4F0A3F0A3F1
:10344300F0A3F0A3F0A3F0A3F0A3F0A3F0A3F0A3E1
:10345300F0A3F0906182E0C2E6F07591BFEE24150F
:10346300F582EF3400F583E064017003120BFDE590
:10347300E170FCEE2414F582EF3400F583E0F46090
:1034830003E0F5E1EE2415F582EF3400F5837401D2
:10349300F090047FE064017073120BEB8A088B09D0
:1034A3008C0A8D0B78081219D08E828F83A3A312F6
:1034B300162712239C74041217678A088B098C0A37
:1034C3008D0B750C05750D00750E00750F007808D2
:1034D300790C12143774037808121537E50824F4AD
:1034E300F508E5093401F5099007F7E06003120FC9
:1034F3004BE4F50AF50B78081219D07A207B00907B
:103503000478E0F9120F9374041217677F08021806
:103513009374EA1217C1EAFEEBFF8C148D15EE4F7C
:103523007003023630120BEB8A088B098C0A8D0B61
:10353300750C01750D00750E00750F007808790C78
:1035430012156F750CFF750DFF750EFF7808790C5A
:103553001215D08E828F83E0640270149007D5E039
:10356300F8A3E0F9A3E0687003A3E069702480176F
:10357300E06404701D9007EBE0F8A3E0F9A3E068B2
:103583007003A3E069700B8E828F83A3A378081264
:10359300161875101A751100751200751300780846
:1035A3001219D0851482851583A3A312162712231B
:1035B3009C74041217678A0C8B0D8C0E8D0F781078
:1035C300790C1213F84066851482851583A3A375BD
:1035D3000CE7750DFF750EFF750FFF780C12158242
:1035E300780C1219D08E828F83A3A312162712236D
:1035F300437404121767E97034750C07750D007571
:103603000E00750F007808790C12156F78081219DF
:10361300D08E828F83A3A31216271223437404121E
:103623001767E97004790080067901800279027FC7
:103633000E02189374F01217C1890874FF650860AD
:10364300030237C590084DE054077003023CA17A8A
:1036530000784C790888828983A3A3A3A3A3E06499
:1036630004703FEA75F018A4F8A9F0745228F582A3
:10367300740839F583E0640170377A00784C79086F
:1036830088828983A3A3A3A3A3E06404600302370E
:103693001A88828983A3A3A3A3A3A3E064017077F9
:1036A30080630AE82418F8E93400F9EAC394044073
:1036B300A47A00784C790888828983A3A3A3A3A35F
:1036C300E064017067EA75F018A4F8A9F074522851
:1036D300F582740839F583E0640170627A00784CEE
:1036E300790888828983A3A3A3A3A3E06401600369
:1036F3000237A188828983A3A3A3A3A3A3E06401C0
:1037030060030237A1EA75F018A4F8A9F0745128F0
:10371300FA740839023C9E0AE82418F8E93400F9DF
:10372300EAC394045003023683023CA10AE8241836
:10373300F8E93400F9EAC3940450030236BA7A0074
:10374300784C790888828983A3A3A3A3A3E06402A6
:103753007061EA75F018A4F8A9F0745228F5827420
:103763000839F583E0640170597A00784C79088848
:10377300828983A3A3A3A3A3E06402707A888289C6
:1037830083A3A3A3A3A3A3E06401706BEA75F0185A
:10379300A4F8A9F0745128FA740839FB806F0AE879
:1037A3002418F8E93400F9EAC3940450030236E517
:1037B300023CA10AE82418F8E93400F9EAC39404A6
:1037C30040827A00784C790888828983A3A3A3A3D3
:1037D300A3E06508703A88828983A3A3A3A3A3A364
:1037E300E06401702BEA75F018A4F8A9F07451286D
:1037F300FE740839FF802C0AE82418F8E93400F92C
:10380300EAC3940450030237727A007B00023CA59A
:103813000AE82418F8E93400F9EAC3940440A97EBD
:10382300007F007A00784C790888828983A3A3A358
:10383300A3A3E06508701BEA75F018A4F8A9F07457
:103843005228F582740839F583E0640170137A0114
:1038530080110AE82418F8E93400F9EAC394044013
:10386300C87A00E5081460101470030239DC24FEE2
:103873007003023AEF023CA17B00784C79088882FE
:103883008983A3A3A3A3A3E064027052EB75F0188A
:10389300A4F8A9F0745228F582740839F583E0641A
:1038A30001704A7B00784C790888828983A3A3A39B
:1038B300A3A3E06402600302394A88828983A3A335
:1038C300A3A3A3A3E06401707EEB75F018A4F8A989
:1038D300F0745128F50A740839F50B0239620BE8C4
:1038E3002418F8E93400F9EBC3940440917B007881
:1038F3004C790888828983A3A3A3A3A3E06404600B
:10390300030239A3EB75F018A4F8A9F0745228F553
:1039130082740839F583E0640160030239B57B00E2
:10392300784C790888828983A3A3A3A3A3E06404C2
:1039330060030239C088828983A3A3A3A3A3A3E05E
:1039430064017079023B430BE82418F8E93400F969
:10395300EBC3940450030238AC750A00750B00EAFC
:10396300A2E05035850A82850B83A3A3750CF675F7
:103973000DFF750EFF750FFF780C121582780C1270
:1039830019D08E828F83A3A31216271223437404A4
:10399300121767E97003023C9BAA0AAB0B023CA512
:1039A3000BE82418F8E93400F9EBC394045003023C
:1039B30038F6EAA2E0501BEEFAEFFB80190BE8247D
:1039C30018F8E93400F9EBC39404500302392702D1
:1039D3003BE87A007B00023CA57B00784C790888A1
:1039E300828983A3A3A3A3A3E064047040EB75F0CF
:1039F30018A4F8A9F0745228F582740839F583E005
:103A0300640170387B00784C790888828983A3A38A
:103A1300A3A3A3E064046003023AA188828983A379
:103A2300A3A3A3A3A3E064017074023B430BE824A4
:103A330018F8E93400F9EBC3940440A37B00784CF5
:103A4300790888828983A3A3A3A3A3E06401706395
:103A5300EB75F018A4F8A9F0745228F582740839AC
:103A6300F583E06401705B7B00784C790888828978
:103A730083A3A3A3A3A3E06401705288828983A3D1
:103A8300A3A3A3A3A3E064017043EB75F018A4F808
:103A9300A9F0745128F50A740839F50B80440BE832
:103AA3002418F8E93400F9EBC394045003023A0DE7
:103AB300023BE80BE82418F8E93400F9EBC394045B
:103AC3004080EAA2E0501EEEFAEFFB801C0BE824D4
:103AD30018F8E93400F9EBC394044091750A0075B2
:103AE3000B00023BEE7A007B00023CA57B00784C86
:103AF300790888828983A3A3A3A3A3E064017055F3
:103B0300EB75F018A4F8A9F0745228F582740839FB
:103B1300F583E06401704D7B00784C7908888289D5
:103B230083A3A3A3A3A3E064016003023BD688821B
:103B33008983A3A3A3A3A3A3E064016003023BD6E9
:103B4300EB75F018A4F8A9F0745128F50A74083934
:103B5300F50B023BEE0BE82418F8E93400F9EBC34C
:103B63009404408E7B00784C790888828983A3A3D0
:103B7300A3A3A3E064026003023C2DEB75F018A439
:103B8300F8A9F0745228F582740839F583E06401CA
:103B93006003023C3F7B00784C790888828983A3C9
:103BA300A3A3A3A3E064026003023C468882898343
:103BB300A3A3A3A3A3A3E064016003023C46EB75A4
:103BC300F018A4F8A9F0745128F50A740839F50B14
:103BD300023C5E0BE82418F8E93400F9EBC39404C3
:103BE3005003023B20750A00750B00EAA2E0400374
:103BF30002399C850A82850B83A3A3750CF6750D88
:103C0300FF750EFF750FFF780C121582780C1219D1
:103C1300D08E828F83A3A312162712234374041218
:103C23001767E9600302399C806E0BE82418F8E9F2
:103C33003400F9EBC394045003023B6DEAA2E05055
:103C43005D80550BE82418F8E93400F9EBC39404BC
:103C53005003023B9E750A00750B00EAA2E0400385
:103C630002399C850A82850B83A3A3750CF6750D17
:103C7300FF750EFF750FFF780C121582780C121961
:103C8300D08E828F83A3A3121627122343740412A8
:103C93001767E9600302399CEEFAEFFB80047A00B0
:103CA3007B0002350F74F61217C189097508007875
:103CB3004C790888828983A3A3A3A3A3A3E0600309
:103CC300023D84E50875F018A4F8A9F0745128FEA4
:103CD300740839FF8E828F83A37401F08E828F83E1
:103CE300E509F0120BEB8E828F83A3A31216338E9A
:103CF300828F83A3A3A3A3A3A3E4F0A3F0EE240ED4
:103D0300F582EF3400F58374FFF0A3F0A3F0A3F082
:103D1300EE2414F582EF3400F5837401F0EE2415DC
:103D2300F582EF3400F5837401F0EE2416F582EF8B
:103D33003400F583E4F0A3F090084DE04509F090DA
:103D4300084CE004F06401600C748065096006743B
:103D53004065097019E50875F018A4F8A9F07451C5
:103D630028F8740839F990084FE8F0A3E9F0E5085A
:103D730075F018A4F8A9F0745128FA740839FB8077
:103D8300180508E82418F8E93400F9E508C3940491
:103D93005003023CB67A007B0080007F0202189336
:103DA300C082C0838A828B83E0F8A3E0F98A828B86
:103DB30083E4F0A3F088828983A3F088828983E077
:103DC300F4F890084DE058F090084CE014F0700BB4
:103DD30090084FE4F0A3F0900479F0801CC082C0F7
:103DE3008390084CE0600A90084FE0FAA3E0FB8060
:103DF300047A007B008002E0F9D083D08202011FA5
:103E0300C082C083E9FB7A00784C79088882898371
:103E1300A3A3A3A3A3E06B7016EA75F018A4F8A9F3
:103E2300F0745228F582740839F583E0F980110A99
:103E3300E82418F8E93400F9EAC3940440CE790081
:103E430080B7C082C08390084C023DFA74F6121703
:103E5300C1EAFEEBFF9061D0E0C0E0EE2400F58202
:103E6300EF3401F583D0E0F09061D7E0F89061D5AD
:103E7300E0C398547FC0E0EE2401F582EF3401F5EE
:103E830083D0E0F09061D6E0C398547FC0E0EE2485
:103E930002F582EF3401F583D0E0F0701A9061C52A
:103EA300E0A2E45012E0A2E7500DEE2402F582EF07
:103EB3003401F5837480F0120CB1EE2401F582EF26
:103EC3003401F583E07034EE2402F582EF3401F51A
:103ED30083E070279061C5E0A2E4501FE0A2E750A1
:103EE3001AEE2402F582EF3401F5837480F0EE2498
:103EF30001F582EF3401F5837480F075E195780064
:103F0300EE2400F582EF3401F583E060279061D35E
:103F1300E0C0E08808EE2508F582EF3400F583D091
:103F2300E0F008EE2400F582EF3401F583E0F9E8D0
:103F3300C39940D975E191023D9E74F61217C1EA07
:103F4300FEEBFF9061C8E0C0E0EE2403F582EF349E
:103F530001F583D0E0F09061CFE0F89061CDE0C34C
:103F630098547FC0E0EE2404F582EF3401F583D04A
:103F7300E0F09061CEE0C398547FC0E0EE2405F5F5
:103F830082EF3401F583D0E0F0701A9061C5E0A2AE
:103F9300E05012E0A2E3500DEE2405F582EF340168
:103FA300F5837480F0120CB7EE2404F582EF34012C
:103FB300F583E07034EE2405F582EF3401F583E0F8
:103FC30070279061C5E0A2E0501FE0A2E3501AEE13
:103FD3002405F582EF3401F5837480F0EE2404F5B3
:103FE30082EF3401F5837480F0120CBD7A00EE2465
:103FF30003F582EF3401F583E0602F9061CBE0C0DD
:10400300E08A08EE2508F8EF3400F9E82480F58209
:10401300E93400F583D0E0F00AEE2403F582EF34AF
:1040230001F583E0F8EAC39840D175E181023D9E32
:1040330074F41217C18908A808E875F08AA4C8AAFD
:10404300F02AF974B128FE740839FFEEFAEFFB1277
:104053000BA3EEFAEFFB120B9D750A80750B00782C
:104063000A1219D47C007D60EE2406FAEF3401FBBA
:10407300120AE37402121767906195E0C0E0EE2420
:1040830086F582EF3401F583D0E0F0906196E0C0CD
:10409300E0EE2487F582EF3401F583D0E0F0906100
:1040A30097E0C0E0EE2488F582EF3401F583D0E099
:1040B300F0906198E0C0E0EE2489F582EF3401F5D9
:1040C30083D0E0F07F0402189374F21217C18908B9
:1040D300A808E875F08AA4C8AAF02AF974B128F8E8
:1040E300740839F99061C6E0FDE054F0F075E181A0
:1040F3007C00E82403F582E93401F583E0602B8C2E
:104103000AE8250AFAE93400FBEA2480F582EB3455
:1041130000F583E09061CAF00CE82403F582E934EA
:1041230001F583E0FAECC39A40D5E82405F582E96A
:104133003401F583E060049061CEF0E82404F58255
:10414300E93401F583E060049061CDF0ED9061C640
:10415300F0A808E875F08AA4C8AAF02AF974B1286F
:10416300F8740839F9E0FCE0540FF075E1917A0036
:10417300E82400F582E93401F583E060238A0AE844
:10418300250AF582E93400F583E09061D2F00AE86C
:104193002400F582E93401F583E0FBEAC39B40DDAB
:1041A300E82402F582E93401F583E060049061D6E6
:1041B300F0E82401F582E93401F583E060049061BD
:1041C300D5F0EC9061C6F0850882AE82EEF875F00A
:1041D3008AA4C8AAF02AF974B128F50A740839F533
:1041E3000B750C80750D00780C1219D4E50A2406A2
:1041F300FCE50B3401FD7A007B60120AE3740212C2
:104203001767A80AA90BE82486F582E93401F58328
:10421300E0906195F0E82487F582E93401F583E0C5
:10422300906196F0E82488F582E93401F583E09003
:104233006197F0E82489F582E93401F583E0906120
:1042430098F0EE75F005A4CEA8F028FF74A92EF51A
:104253008274043FF583E0F8A3E0F5838882E06489
:104263008070419011A77425F0A3740BF0A3740D13
:10427300F0A3740BF0A37425F0A3740BF0A37425BF
:10428300F0A3740BF0A3740DF0A3740BF0A37425C7
:10429300F0A3740BF0A3742BF0A3740BF0900479C8
:1042A300740880059004797407F09011B5740DF0CB
:1042B300A3740BF0A3740DF0A3740BF0A3740DF0AF
:1042C300A3740BF0A3740DF0A3740BF0A3740DF09F
:1042D300A3740BF0A3740DF0A3740BF07F06021804
:1042E30093C082C0839061907404F0A37448F0A3D8
:1042F3007402F09061807440F09061BC7403F0909C
:1043030061877419F0906265741BF0906249E0C391
:10431300941390619C400A7409F090606674018064
:1043230007740DF0906066E4F090619A7433F0A323
:104333007455F09061A0743AF09007F5E064017051
:1043430009C29190047D7467800590047D7461F0C7
:10435300902502E493906186F09024FCE493F4604A
:1043630027E493540FF8906185E0686012E5C65422
:10437300804449F5C6E59E547F644970F8E8F053DC
:10438300C680E59E547F70FA7905120CAB0247583C
:10439300C082C083E5A8F853A87E906181E4F0A3AE
:1043A300F0A3F0C2BA539AFEC289759B00C2C275CC
:1043B300E90075910075BF0075A91175B905906184
:1043C30081F0A374C0F0A3E4F0D2BA439A017480DD
:1043D3005842A8024758F0024758C082C08374F875
:1043E30012175190047BE0F8A3E0F9E84970030247
:1043F300450B90047BE0544060237908851882853F
:104403001983AA82AB83120AC5851882851983AAE8
:1044130082AB831207C590047BE054BFF0E0548065
:104423006010790C7A1B7B08120AC590047BE05458
:104433007FF0E0A2E0503190619A7433F0A3745599
:10444300F09061A0743AF09007F5E064017009C23E
:104453009190047D7467800590047D7461F0120768
:10446300CB90047BE054FEF0E05402603190619AFB
:10447300743FF0A3745AF09061A0747FF09007F535
:10448300E064017009D29190047D747180059004F9
:104493007D746AF01207CB90047BE054FDF0E05486
:1044A300046013902500E493906186F01207D19085
:1044B300047BE054FBF0E054086013902501E4937F
:1044C300906186F01207D190047BE054F7F0E0543A
:1044D300106013902502E493906186F01207D19047
:1044E300047BE054EFF0E05420600A1207D19004FB
:1044F3007BE054DFF0A3E05401600D1209CF1207F3
:10450300D790047CE054FEF07408121767024758F2
:1045130074EC1217C174F41217518518828519832C
:10452300AC82AD8375838575821974041216649009
:10453300250093F4600302469F907808E0C3940239
:10454300500302467F740412179DAC82AD837583BA
:10455300847582BC74081216648518828519838554
:104563008212858313740412179DAC82AD83750E7A
:10457300FF750FFF7FFF7E00750C48750D78801562
:1045830074086E700302461374096E7003024613B7
:10459300740A6E607B850C82850D83780812160978
:1045A3008C828D83A909E50AC9F8881074187808E4
:1045B300121537E5104508F8C3E098A3E099850C78
:1045C30082850D83780812160940188C828D8374B6
:1045D300187808121537E5104508F8E0C398F8A3D2
:1045E300E0801C74187808121537E5104508FAE9BD
:1045F300FB8C828D83E0F8A3E0F9EAC398F8EB998A
:10460300F9C3E8950EE9950F5006880E890FEEFF62
:104613000EE50C2404F50CE50D3400F50DEEC39402
:1046230013500302458374FF650E700474FF650F16
:1046330060238F087402780812173E74482508F522
:104643008274783509F583780812160985128285F4
:104653001383E508F0EC2402FCED3400FD8512829F
:10466300851383A3858212858313740C12179DE52A
:10467300826C7003E5836D600302457175080175F3
:10468300090078081219D4740212179DAC82AD8305
:104693007A407B091211977402121767740C121770
:1046A300677F0C021893C082C0839061AE7468F078
:1046B300A3746AF090624574FBF0A304F053F4FD15
:1046C30043FE029007F57401F09061A0E0643A9014
:1046D300619A70237433F0A37455F09061A0743A17
:1046E300F0740164017009C29190047D746780289D
:1046F30090047D74618021743FF0A3745AF090613B
:10470300A0747FF0740164017009D29190047D74E8
:1047130071800590047D746A0243D9C082C083907E
:1047230007D3E0640170119007D9E064016019E0D8
:104733007006A3E0640160109007EAE06401700C66
:104743009007F0E064017004790C80027900800521
:10475300E0F91223F1D083D08202011FC082C0830B
:104763009007DD7425F09007DB7401F0A3E4F07A81
:1047730001FB120C279007C9E0F8A3E0C82416F543
:1047830082E83400F58374F3F0A37409F09007DA38
:10479300E0640170169007D9E070107901120C875C
:1047A300120C57120C817900120C93024758C082E5
:1047B300C08374FA1217519007D2E0640170081293
:1047C30009DB9007D2E4F075E1F19007C9E0F8A3A3
:1047D300E0C82415F582E83400F5837401F09007EE
:1047E300D4E0640170769084EBC0828518828519C9
:1047F30083AC82AD83758384D0827406121664758C
:10480300D90D9007CBE0C4333354C04403F5D978B2
:10481300C9790788828983A3A3A3E0F5D98882890C
:1048230083A3A882A983E864CF7003E9640770E3D4
:10483300851882851983A882A98388828983E0F5F4
:10484300D9A3A882A983740612179DE58268700311
:10485300E5836970E575E195790180027900120CB1
:104863002D9011A77443F0A3740BF0A37449F0A324
:10487300740BF0A37443F0A3740BF0A37443F0A37D
:10488300740BF0A3740DF0A3740BF0A3740DF0A3D9
:10489300740BF0A3744FF0A3740BF09011B5740D67
:1048A300F0A3740BF0A3740DF0A3740BF0A3740DB9
:1048B300F0A3740BF0A3740DF0A3740BF0A3740DA9
:1048C300F0A3740BF0A3740DF0A3740BF09007CB5B
:1048D300E0F97ACC7B07120C099007DDE0F912238B
:1048E300F17901120C337AD67BBE7C897D8E120C52
:1048F3004B7A557B557C557D00120C157900120CB3
:104903009F9007C9E0F8A3E0C82414F582E83400B7
:10491300F5837416F09004797405F00402450D7460
:10492300F71217C18908A808E875F005A4C8AAF00A
:104933002AF974A928FE740439FF9007E2E0F97A92
:10494300E37B07120C099007F0E0701A7900120C50
:10495300699007B8E070047900800279017AB97B25
:1049630007120C0F80057901120C6975E1F175D9F5
:10497300239007E2E0C4333354C04405F5D978E00B
:10498300790788828983A3A3A3E0F5D988828983E1
:10499300A3A882A983E864E67003E9640770E3755A
:1049A300D90075D90075D90075D90075D90075D9A5
:1049B30000EEF8EFF9E82404FAE93400FBE82422D6
:1049C300F582E93400F583E0F5D988828983A3A8C9
:1049D30082A983EA687002EB6970E2EEF8EFF9E806
:1049E30024031AE93400FBE82426F582E93400F5B0
:1049F30083E0F5D988828983A3A882A983EA6870B2
:104A030002EB6970E2EE242BF582EF3400F583E0CC
:104A1300F5D9EE242CF582EF3400F583E0F5D9EED9
:104A2300242DF582EF3400F583E0F5D9EE242EF53D
:104A330082EF3400F583E0F5D9EE242FF582EF34CD
:104A430000F583E0F5D9EE2430F582EF3400F583E9
:104A5300E0F5D9EE2431F582EF3400F583E0F5D9A2
:104A6300EE2432F582EF3400F583E0F5D9EE2433FA
:104A7300F582EF3400F583E0F5D9EEF8EFF9E82499
:104A830005FAE93400FBE8245DF582E93400F58397
:104A9300E0F5D988828983A3A882A983EA68700292
:104AA300EB6970E2EE2437F582EF3400F583E054CE
:104AB3001FF8EE242AF582EF3400F583E0C4335463
:104AC300E048F5D975E1959011A77413F0A3740B21
:104AD300F0A37419F0A3740BF0A3740DF0A3740B7B
:104AE300F0A3740DF0A3740BF0A3740DF0A3740B77
:104AF300F0A3740DF0A3740BF0A3741FF0A3740B55
:104B0300F09011B5740DF0A3740BF0A3740DF0A322
:104B1300740BF0A3740DF0A3740BF0A3740DF0A346
:104B2300740BF0A3740DF0A3740BF0A3740DF0A336
:104B3300740BF09007EFE0F91223F17AD67BBE7C79
:104B4300897D8E120C4B7A557B557C557D00120C5A
:104B53001590600DE4F07901120C9F9004797406AE
:104B6300F002511B74E81217C19007E0E0F8A3E0CC
:104B7300F5838882A3A3780C1216099007F1E0FA53
:104B8300F875F005A4C8ACF02CF974D728F5827435
:104B93000439F583E0FEA3E0FFEEC333FEEF33FFFA
:104BA3008E14F515751600751700850C08850D090B
:104BB300850E0A850F0B75100475110075120075AB
:104BC30013007808791012156F78081219D0850C24
:104BD30008850D09850E0A850F0B780879141215BF
:104BE3006F780C79141214B7E4F516F51778087971
:104BF300141215A88A0C750D007403780C12173E55
:104C0300E50D3395E0F50EF50F7808790C12156F65
:104C1300750CFF750DFF750EFF7808790C1215D012
:104C2300AA08AB09AC0A7D0012239C74041217670F
:104C33008A088B09A808A909C3EE98EF995006E8DA
:104C43002EF8E93FF9E890600EF0E9A3F0EEA3F047
:104C5300EFA3F090600D74C1F07F10021893C0822F
:104C6300C0839007C9E0F8A3E0C82406F582E834BE
:104C730000F583E4F0A3F09007DD024753C082C040
:104C8300839007E0E0F8A3E0C82406F582E8340047
:104C9300F583E4F0A3F09007EF02475302011F747A
:104CA300F61217C19061D0E0F87480C398FCEA242F
:104CB30082F582EB3400F583E060047804800278A7
:104CC30000E8240EF8ECC3985003024DCE7C0C9000
:104CD30007FBE4F0EA2476F582EB3400F583E090F9
:104CE30007FCF0EA2477F8EB3400F988828983E043
:104CF3009007FDF088828983A3E09007FEF0EA2401
:104D030079F8EB3400F988828983E09007FFF08813
:104D1300828983A3E0900800F0EA247BF8EB340057
:104D2300F988828983E0900801F088828983A3E06F
:104D3300900802F0EA247DF8EB3400F98882898335
:104D4300E0900803F088828983A3E0900804F0EAE6
:104D53002474F8EB3400F98A828B83A3A3A3A3A35F
:104D6300E0FEA3E0FF88828983E02EF0A3E03FF01A
:104D730088828983E0900805F088828983A3E09084
:104D83000806F0EA2482F582EB3400F583E060172D
:104D93007508FB75090778081219D47903120B01FA
:104DA30074021217677C1074012CF5D975D9037539
:104DB30082FB758307ECFEE0F5D9A31EEE70F87550
:104DC300E1957904120C517901800279000252CBEA
:104DD30074F61217C19061D0E0F87480C398FCEAAE
:104DE3002482F582EB3400F583E0600478048002CA
:104DF3007800E8240AF8ECC3985003024EC67508FD
:104E0300089007FB7401F07CBF7D0778FC79077E6F
:104E1300058C828D83E088828983F08C828D83A3C5
:104E2300AC82AD8388828983A3A882A9831EEE7096
:104E3300E0EA2480FCEB3400FD8A828B83A3A3A3E6
:104E4300A3A3E0FEA3E0FF8C828D83E02EF0A3E01A
:104E53003FF08C828D83E088828983F08C828D83FE
:104E6300A3AC82AD8388828983A308A9838C828DB6
:104E730083E088828983F0EA2482F582EB3400F5AB
:104E830083E0601A7508FB75090778081219D47C4A
:104E9300087903120B01740212176775080C740169
:104EA3002508F5D975D9037582FB758307AE08E02C
:104EB300F5D9A31EEE70F875E1957904120C5179BA
:104EC30001800279000252CB74F71217C1EAFEEB9C
:104ED300FF9061D0E06003024FB275D91875D90312
:104EE30075D903EEF8EFF9E82408FAE93400FBE892
:104EF300249BF582E93400F583E0F5D98882898320
:104F0300A3A882A983EA687002EB6970E2EE24A386
:104F1300F582EF3400F583E0F5D9EE24A4F582EFB2
:104F23003400F583E0F5D9EE2493F582EF3400F5F0
:104F330083E5822408F8E5833400F9E0F5D9A3E892
:104F430065827003E9658370F2EE2487F582EF349E
:104F530000F583E5822404F8E5833400F9E0F5D90C
:104F6300A3E865827003E9658370F275E1957908BA
:104F7300EE2493FAEF3400FB120AB97904EE248786
:104F8300FAEF3400FB120AB97904120C51EE246FC4
:104F9300F582EF3400F583E0F8A3E0F9EE2471F530
:104FA30082EF3400F583E8F0A3E9F0790180027918
:104FB3000002511B74F61217C1EAFEEBFF9007FBC8
:104FC3007406F07508FB75090778081219D47C017B
:104FD3007903120B01740212176775D90675D90389
:104FE3007582FB758307E0F5D9A3E582640070043D
:104FF300E583640870F075E195900479E0640870C6
:105003001EEE246FF582EF3400F583E0F8A3E0F998
:10501300EE2471F582EF3400F583E8F0A3E9F0792B
:10502300010252CB74F61217C1EAFEEBFF9061D076
:10503300E0705E9007FB740AF07508FB750907784A
:10504300081219D47C017903120B01740212176739
:1050530075D90675D9037582FB758307E0F5D9A366
:10506300E58264007004E583640870F075E195EEF1
:10507300246FF582EF3400F583E0F8A3E0F9EE2422
:1050830071F582EF3400F583E8F0A3E9F07901804C
:105093000279000252CB74F61217C1EAFEEBFF90BD
:1050A30061D0E0706678019007FB740BF09004798F
:1050B300E0640770197508FB75090778081219D49D
:1050C3007C017903120B01740212176778057401CE
:1050D30028F5D975D9037582FB758307E8FAE0F5DE
:1050E300D9A31AEA70F875E195EE246FF582EF34CF
:1050F30000F583E0F8A3E0F9EE2471F582EF3400C4
:10510300F583E8F0A3E9F07901800279000252CB3C
:10511300F0EEA2E092AF79007F0102189374F612C9
:1051230017C1EAFEEBFF9061D0E0F87480C398FAF0
:10513300EE2482F582EF3400F583E0600478048086
:10514300027800E8240BF8EAC39850030251F67D75
:10515300099007FB7408F0EE24E4F8EF3400F97AC1
:10516300FC7B077C0888828983E08A828B83F088B2
:10517300828983A3A882A9838A828B83A3AA82AB11
:10518300831CEC70E0EE2482F582EF3400F583E0BB
:10519300601D7508FB75090778081219D47C097915
:1051A30003EEFAEFFB120B0174021217677D0D7405
:1051B300012DF5D975D9037582FB7583078D08E039
:1051C300F5D9A31508E50870F675E1957904120C75
:1051D30051EE246FF582EF3400F583E0F8A3E0F994
:1051E300EE2471F582EF3400F583E8F0A3E9F0795A
:1051F30001800279000252CB74F61217C1EAFEEB6A
:10520300FF9061D0E0F87480C398FAEE2482F582AF
:10521300EF3400F583E06004780480027800E8242A
:1052230008F8EAC39850030252C978069007FB7442
:105233000CF0900496E09007FCF0900497E0900740
:10524300FDF0900498E09007FEF0900499E0900739
:10525300FFF090049AE0900800F0EE2482F582EFCC
:105263003400F583E0601B7508FB750907780812A5
:1052730019D47C067903EEFA120B01740212176734
:10528300780A740128F5D975D9037582FB758307EC
:105293008808E0F5D9A31508E50870F675E1957956
:1052A30004120C51EE246FF582EF3400F583E0F81D
:1052B300A3E0F9EE2471F582EF3400F583E8F0A35F
:1052C300E9F07901800279007F0202189374F612E3
:1052D30017C1EAFEEBFF9061D0E0F87480C398FA3F
:1052E300EE2482F582EF3400F583E06004780480D5
:1052F300027800E82404F8EAC39850030253AA781A
:10530300029007FBE8F0EE24F6F582EF3400F58314
:10531300E09007FCF0EE2482F582EF3400F583E0A1
:10532300601B7508FB75090778081219D47C02798C
:1053330003EEFA120B017402121767780674012840
:10534300F5D975D9037582FB7583078808E0F5D90C
:10535300A31508E50870F675E195EE2473F582EF61
:105363003400F583E4F0EE247FF582EF3400F58317
:10537300E4F0EE241DF582EF3400F583E4F0A3F0AE
:105383007904120C51EE240DF582EF3400F583E01D
:10539300F8A3E0F9EE2471F582EF3400F583E8F029
:1053A300A3E9F07901800279000252CB74F6121757
:1053B300C19061D0E0F87480C398FCEA2482F5823E
:1053C300EB3400F583E06004780480027800E8247D
:1053D30004F8ECC398405B79029007FB7407F0EA8A
:1053E30024F7F582EB3400F583E09007FCF0EA2420
:1053F30082F582EB3400F583E060187508FB7509CC
:105403000778081219D47C0209120B0174021217CF
:10541300677906740129F5D975D9037582FB7583FC
:1054230007E9F8E0F5D9A318E870F875E195790173
:10543300800279000252CB74F51217C1E9FCA2AFC6
:10544300E433F50AC2AF7D0080010DEA246EF582D4
:10545300EB3400F583E0F8EDC398501A8D08EA2584
:1054630008F8EB3400F9E8246AF582E93400F5839F
:10547300E06C70D68024EA246EF8EB3400F9E0FE89
:10548300EA2EFAEB3400FBEA246AF582EB3400F5EA
:1054930083ECF088828983E004F0E50AA2E092AF0E
:1054A3007F0302189374F61217C1A2AFE433FDC24F
:1054B300AFEA246EF582EB3400F583E014F07C0050
:1054C30060368C08EA2508F8EB3400F9E8246BF51C
:1054D30082E93400F583E0C0E0E8246AF582E93428
:1054E30000F583D0E0F00CEA246EF582EB3400F58E
:1054F30083E0F8ECC39840CAEA246DF582EB3400EC
:10550300F58374FFF0EA2469F582EB3400F583E454
:10551300F0EDA2E092AF0252CBC082C083E5A8F8BF
:10552300C2AFEA246AF582EB3400F583E9F0EA249A
:1055330069F582EB3400F583E4F0E8A2E7A2E79291
:10554300AF02475874F31217C1EAFEEBFFECFAED12
:10555300FB8A828B83A3A3A3A3E0541FF0EE24361C
:10556300F582EF3400F583E4F0F50AEEFCEFFD8AF3
:10557300828B83E0C0E0EC245DF582ED3400F5839B
:10558300D0E0F0750B00E50A33333354F8F50C8A99
:10559300828B83E0F508750900E50B780812171F65
:1055A300E508A2E0502FEE2436F8EF3400F98882A4
:1055B3008983E0F508EE2508F508EF3400F509E5E1
:1055C300082438F582E5093400F583E50CF0888278
:1055D3008983E004F0050B050CE50BC3940840AF89
:1055E300050A8A828B83A3AA82AB838C828D83A3D1
:1055F300AC82AD83E50AC3940550030255727F055F
:1056030002189374F71217C19004A5E064037003A2
:105613000258EC7C0078A5790488828983A3A3A32C
:10562300A3A3A3E060030258DAECF875F005A4C85D
:10563300AAF02AF974A928FA740439FB8A828B83A5
:10564300A3A37401F08A828B83A3A3A3E4F0EC8A5F
:10565300828B83A3A3A3A3F0EA2462F582EB340035
:10566300F5837401F0EA2467F582EB3400F5837463
:1056730001F08A828B83A3A3A3A3A3E4F0A3F08AFC
:10568300828B83A3A3A3A3A3A3A3F0A3F0EA240F72
:10569300F582EB3400F5837401F0EA2435F582EBEF
:1056A3003400F583E4F0EA2418F582EB3400F58343
:1056B300E4F0A3F0A3F0A3F0EA241CF582EB34009A
:1056C300F583E4F0EA241DF582EB3400F583E4F07E
:1056D300A3F0EA247FF582EB3400F583E4F0EA24B7
:1056E30073F582EB3400F583E4F0EA2468F582EB8A
:1056F3003400F5837480F0EA2469F582EB3400F515
:1057030083E4F0EA246EF582EB3400F583E4F0EAF7
:1057130024ECF582EB3400F583E4F0EA24EDF58222
:10572300EB3400F583E4F0EA24EEF582EB3400F584
:1057330083E4F0EA24EFF582EB3400F583E4F0EA46
:1057430024F0F582EB3400F583E4F0A3F0EA24F2CD
:10575300F582EB3400F583E4F0A3F0EA24F5F58257
:10576300EB3400F583E4F0EA2482F582EB3400F5B0
:1057730083E4F0EA24D2F582EB3400F583E4F0EA23
:1057830024D3F582EB3400F583E4F0EA24D4F582E4
:10579300EB3400F583E4F0A3F0A3F0A3F0EA24D8FC
:1057A300F582EB3400F583E4F0A3F0A3F0A3F0EA71
:1057B30024DEF582EB3400F583E4F0EA24E0F5829D
:1057C300EB3400F583E4F0EA24DCF582EB3400F5F6
:1057D30083E4F0EA24E1F582EB3400F583E4F0EAB4
:1057E30024E2F582EB3400F583E4F0EA24F8F58251
:1057F300EB3400F583E4F0A3F0EA24FAF582EB340A
:1058030000F583E4F0A3F0EA24FCF582EB3400F521
:1058130083E4F0A3F0EA24FEF582EB3400F583E49D
:10582300F0A3F0EAF8EBF9E82404FCE93400FDE81E
:10583300246AF582E93400F58374FFF08882898352
:10584300A3A882A983EC687002ED6970E2EAF8EB21
:10585300F97CBF7D078C828D83E0C0E0E8245DF591
:1058630082E93400F583D0E0F08C828D83A3AC828F
:10587300AD8388828983A3A882A983EC64C470035F
:10588300ED640770D0EAF8EBF97C8C7D048C828D93
:1058930083A3E0C0E0E824E4F582E93400F583D093
:1058A300E0F08C828D83A3AC82AD8388828983A34D
:1058B300A882A983EC64947003ED640470CF900410
:1058C300A5E004F0640170258A828B83A3A3A3A3BC
:1058D300E09004A7F080160CE82405F8E93401F9F8
:1058E300ECC39403500302561C7A007B0002511B45
:1058F300C082C0838A828B83A3A3A3E0600F8A82C2
:105903008B83A3A3A3E4F09004A6E014F09004A572
:10591300E014F070069004A774FFF08A828B83A3CF
:10592300A3E4F09007C4E0700D9004A6E064017056
:10593300057900120C1B024758C082C08378A579F1
:105943000488828983A3A3A3A3A3A3A3E4F08882E7
:105953008983A3A3A3A3A3A3F0E82405F8E934014F
:10596300F9E864B47003E9640770D69004A5E4F021
:10597300A3F0A374FFF075E1F102475874F5121711
:10598300C1750800750900750A007EA97F048E821F
:105993008F83A3A3A3E0603DE5084509602F850835
:1059A30082850983E0F8A3E0F5838882A3A3121913
:1059B300E78E828F83E0F8A3E0F5838882A3A312A6
:1059C30016271223437404121767E97008EEF8EFE1
:1059D300F988088909050AEE2405FEEF3401FFE57D
:1059E3000AC3940340A8850882850983A3A3A3A3BC
:1059F300E0F90254A374F71217C178FF79FF7E0010
:105A03007CA97D048C828D83A3A3A3E0606274FFD1
:105A130068700374FF697011EC2473F582ED340030
:105A2300F583E06401703A8021EC2473F582ED3450
:105A330000F583E064017017EC2479F582ED3400FE
:105A4300F583C3E098A3E0995026EC24798015EC04
:105A5300242EF582ED3400F583C3E098A3E099503A
:105A63000FEC242EF582ED3400F583E0F8A3E0F982
:105A73000EEC2405FCED3401FDEEC394034085C315
:105A8300EA98EB994004E8FAE9FB02511B74F61219
:105A930017C1EAFEEBFFEE2463F582EF3400F583D2
:105AA300E0F8A3E0F9E8497003025B35EE2463F8FC
:105AB300EF3400F97A007B00A2AFE433F508C2AFFC
:105AC30088828983E0FCA3E0FDEC4D603A888289FB
:105AD30083E0FAA3E0FB8A828B83E0FCA3E0FD88EA
:105AE300828983ECF0A3EDF08A828B83E4F0A3F048
:105AF30088828983E0FCA3E0FDEC4D700A888289EB
:105B030083A3A3E4F0A3F0E508A2E092AF1212BDD1
:105B13009007C5E004F09007C6E004F0EE2463F5B7
:105B230082EF3400F583E0F8A3E0F9E8496003026B
