:020000040000FA
:0600000002010702366355
:03002B00023AE3B3
:03003300023ABDD1
:03003B00023B0481
:03004300023A710D
:030053000236D69C
:03006B00023A97BF
:100083000234CFE5C754F84401F5C77901220000D3
:100093000080FB120086B900030200F1E4792178A5
:1000A30008B800028004F709D8FCE479297802B87B
:1000B30000028004F709D8FCE4900281780F790AE2
:1000C3008002F0A3D8FCD9FA7A8F7B0B90013778A2
:1000D3008A79048015E493A3AD82AE838A828B83ED
:1000E300F0A3AA82AB838D828E83D8E9D9E7758288
:1000F300DD7583E5740312011975829175830074AC
:100103000012011975D00075813F751881751902A8
:10011300759F00020096C09FF59FE473D09F22D085
:1001230083D082C09FE493C0E0740193C0E0740263
:1001330093F59F22FF0000B4000028002800283018
:1001430075A000A000A000A00000080008E001F0D6
:10015300001000100010001000100010005000509C
:1001630000500010001000D0070000000000000F36
:100173000001000500307507001000010081FF0039
:10018300000000FF00121E120612FF020202080204
:100193005000A0000000E803028288010000538899
:1001A300028088010000E60B027A88010000B30296
:1001B300028088010000E70B027888010000C90271
:1001C300028088010000E80B027688010000CB0260
:1001D300028088010000E90B027488080000CC0249
:1001E300028088010000EA0B027088010000EB0B1B
:1001F300FF0100FF200282880100005688028088E8
:100203000100004F0C026E880000000000027C8891
:100213000300001903D017D017D017D017D017D069
:1002230017D017D017D017D017D017D017D0175211
:100233001A6A1A4C1AFFFF010202020202020202A8
:1002430002010D000000100102828801000059889C
:10025300028088010000930C026488010000E50716
:10026300028088010000940C026288010000278745
:10027300028088010000950C0260880100000C8751
:10028300028088010000960C0296880100002586F2
:10029300028088010000970C025C880100004986F7
:1002A300028088010000980C025E880100003786F6
:1002B300028088010000990C0268880100001386FF
:1002C3000280880100009A0C026A88010000FE8601
:1002D3000280880100009B0C026C880100009C0CCA
:1002E30001E803053F100AFA00FF0001307503021D
:1002F30001060000000000000000000000000000F4
:100303000000000000000000000000000000FFFFEC
:100313000600800CE803140953696D706C65424C48
:10032300455065726970686572616C05120A000A4E
:1003330000020A000201060302F0FF53696D706CAC
:100343006520424C45205065726970686572616C26
:100353009E1F0000AA1F0A4368617261637465727D
:100363006973746963203100024368617261637465
:100373006572697374696320320008000102030423
:10038300054368617261637465726973746963209C
:1003930033001043686172616374657269737469D1
:1003A3006320340002436861726163746572697328
:1003B3007469632035000A4368617261637465720E
:1003C30069737469632036000282880100005088D3
:1003D300028088010000B10D028688030000510BE2
:1003E300027E88010000B20D028088010000C30D67
:1003F300028888010000520B027E88010000C40DB0
:10040300028088010000D50D028A88030000D60D02
:10041300027E88010000DC0D028088010000ED0DE2
:10042300028C88000000530B027C88030000540BED
:10043300027E88010000EE0D028088010000FF0D9E
:10044300028E880400005A0B027E88010000000E11
:10045300028088010000110E0290880300005F0BE8
:10046300027E88010000120E3031323334353637C4
:10047300383941424344454600286E756C6C207000
:100483006F696E7465722900303132333435363713
:100493003839616263646566003F3F3F0000008056
:1004A3007F0000803F00000000F9021550B743BAF7
:0D04B300510000204100E7DB2E0000A040BA
:020900000001F4
:020A0000AA55F5
:1010000001BE120122177E001201222E7E00120163
:10101000225F7E001201229A7E00120122C47E000D
:10102000120122EE7E00120122057F001201221C15
:101030007F00120122337F001201225C7F00120127
:10104000226F7F00120122857F00120122987F000B
:10105000120122BF7F001201226FDE0212012273F1
:10106000DF02120122ABDF02120122CEDF021201E7
:1010700022D9DF02120122FCDF021201220BE1025F
:10108000120122E0E1021201225BE202120122E3DC
:10109000E2021201221EE30212012255E3021201B2
:1010A00022E3E302120122BCE4021201221CE50247
:1010B00012012227E502120122A6E502120122A94D
:1010C000E502120122ACE5021201223BE602120106
:1010D000223EE6021201226EE60212012298E60288
:1010E00012012286E70212012238E802120122C10F
:1010F000A003120122E9A00312012217A103120189
:10110000224EA103120122ACA103120122F7A10376
:1011100012012242A20312012282A203120122C85A
:10112000A203120122F6A203120122B3A3031201A9
:1011300022BDA303120122CAA303120122FDA303AD
:10114000120122C9A403120122D5A403120122ED27
:10115000A403120122F7A40312012229FF011201A4
:101160002237FF011201224FFF0112012267FF0106
:1011700012012298E70112012244E801120122BF64
:10118000E801120122E0E9011201221CEA01120128
:1011900022C5EA01120122ACEB0112012210ED017D
:1011A00012012267ED01120122E8ED01120122D89D
:1011B000EE0112012225EF01120122ABEF01120113
:1011C00022DDEF01120122F1F10112012233F201BD
:1011D00012012251F201120122D4F201120122A8BD
:1011E000F30112012270F4011201220C8F0312018B
:1011F00022DF8F03120122889003120122DB900369
:101200001201228B91031201221792031201220371
:101210009303120122329303120122459403120117
:10122000228D94031201226295031201229E9503DE
:10123000120122BA950312012282E4031201221A3A
:10124000C30312012230C30312012256C303120149
:101250002272C4031201227CC403120122B1C5030D
:10126000120122A9C6031201229A9B03120122CA6B
:101270009C03120122FD9C03120122479D031201CF
:10128000220E9F0312012247C801120122B1C80198
:1012900012012210CA0112012220CA011201224D9C
:1012A000CA01120122A4CA011201224DCB0112016E
:1012B0002254CC011201221ECD011201227ECE0148
:1012C000120122C1CE0112012266CF01120122B306
:1012D000CF01120122D9CF01120122E7D10112015F
:1012E00022ECD101120122F1D3011201223ED401DC
:1012F000120122B1D401120122E4D401120122868A
:10130000D5011201222FD60112012267D601120146
:10131000226AD601120122B2D601120122F2D601AE
:1013200012012249D70112012224D0031201223CCA
:10133000D00312012284D0031201229AD003120199
:1013400022E1D003120122F5D10312012282D2033D
:10135000120122CDD203120122783B001201228415
:101360003B00120122BF3B00120122043C0012018B
:1013700022C43C001201224A3D00120122AF3D006E
:10138000120122DB3D00120122143E001201225202
:1013900040001201223642001201221C44001201B8
:1013A000225F4500120122AD4700120122BF480012
:1013B0001201220A4A001201221A4B00120122379E
:1013C0004B00120122724B00120122944B001201B9
:1013D00022F74B00120122B850001201224D510099
:1013E0001201229E5100120122C551001201221742
:1013F00052001201223552001201228F52001201B6
:1014000022785300120122EE54001201227255007C
:101410001201227EA50312012288A503120122CB0C
:10142000A503120122E6A50312012276A6031201EA
:10143000229EA603120122DBA60312012212A70399
:101440001201223BA703120122B0A703120122C5F9
:10145000A703120122DAA7031201220BA80312012B
:10146000221FA80312012244A8031201227EA8030E
:10147000120122AAA803120122E2A803120122618A
:10148000A903120122AAA903120122D4A90312015D
:1014900022FFA903120122BFFE021201226EC60220
:1014A0001201229CC602120122EAC702120122CABC
:1014B000C802120122E9C80212012266C902120101
:1014C00022A9C902120122FFCA02120122C0CB02C4
:1014D00012012247CE02120122E8CE02120122DEC0
:1014E000CF02120122DBD00212012235D2021201F8
:1014F00022C0D2021201227ADD03120122E3DD03AF
:1015000012012237DE031201225EDE031201228F56
:10151000DE03120122ACAE0312012219AF03120145
:101520002260AF0312012278B00312012274B103CA
:1015300012012257B203120122A9E802120122EB82
:10154000E802120122BDE90212012296EA0212010A
:101550002290EB0212012272EC02120122DBEC0259
:1015600012012291ED0212012205EE0212012271F6
:10157000EE021201229AEE0212012214EF0212016F
:1015800022ADEF0212012212F00212012227F00214
:101590001201226DF00212012286F002120122EBEA
:1015A000F002120122EEF0021201222BCD031201F1
:1015B0002253CD0312012291CD031201224FCE03FB
:1015C000120122B6CE03120122D2CE03120122FA58
:1015D000CE031201222ACF0312012239CF031201B6
:1015E00022B6CF03120122DCCF0312012236D8012A
:1015F00012012214DA0112012246DC0112012282B8
:10160000DC01120122AFDC0112012299DD0112017D
:1016100022E4DD011201222FDE0112012241DE014E
:1016200012012281DE01120122B6DE011201220422
:10163000DF0112012233DF0112012256DF01120104
:1016400022A3DF0112012228E00112012242E2015D
:1016500012012281E401120122C2E401120122647A
:10166000E601120122A5E60112012218E70112018A
:10167000226EE70112012259B90212012257BA0261
:10168000120122F0C00212012211C302120122DC57
:10169000C40212012244C602120122D955001201CD
:1016A00022885600120122CE56001201220E580046
:1016B000120122A459001201221E5A0012012239DD
:1016C0005A00120122B45A001201220E5C001201CB
:1016D000226E5D00120122745E00120122D55F00AD
:1016E000120122EE5F001201224C60001201223A28
:1016F00061001201226D6100120122DD6100120100
:1017000022576200120122A162001201226B6300C3
:101710001201224064001201221F6500120122AA58
:1017200065001201221866001201228C6600120167
:1017300022B76600120122766700120122DB6800E0
:10174000120122F868001201221769001201220812
:101750006A001201222D6A00120122576A0012014A
:1017600022D26A001201222C6B00120122956C0019
:10177000120122436D00120122846D0012012285A4
:10178000AB02120122D3AB02120122DFAB02120123
:1017900022BDAC02120122EEAC021201221FAD02E8
:1017A0001201229FAD02120122D7AD02120122299D
:1017B000AE0212012266AE0212012283B0021201B1
:1017C00022A9B20212012294B4021201227EB602B0
:1017D0001201226D3B0012012234B4011201226475
:1017E000B4011201223DBB01120122C2BC0112014F
:1017F00022BFC201120122A7C301120122E4C301C8
:1018000012012207C40112012238C401120122412F
:10181000C4011201224BC40112012239C501120177
:10182000222FC601120122259F0112012224A301A9
:101830001201222AA30112012265AA011201227EAD
:10184000AF01120122B3C603120122ADC703120178
:101850002221C8031201225FC803120122D3C80348
:101860001201224CC90312012255C903120122613F
:10187000C90312012276C903120122B4C90312015D
:1018800022CAC9031201227BB70312012288B703BF
:10189000120122A2B703120122E1B7031201221F93
:1018A000B80312012284B80312012299B80312016D
:1018B00022A4B803120122B1B803120122C8B8034E
:1018C000120122D6B803120122E1B803120122ED5F
:1018D000B803120122FCB80312012207B903120156
:1018E000222AB903120122D1B903120122E1B9035C
:1018F000120122FBB90312012218BA031201223489
:10190000BA0312012259BA0312012264BA03120166
:101910002279BA031201228DBA03120122EEBA0310
:10192000120122F4BA03120122FABA0312012200B0
:10193000BB0312012218BB031201224BBB0312018D
:10194000225B9D02120122DF9D021201228E9E0265
:10195000120122ED9F021201220EA202120122FAAE
:10196000A2021201222FA30212012251A30212018C
:101970002200A402120122F8A50212012221A602CD
:10198000120122B3A602120122E5A602120122F2DE
:10199000A60212012249A7021201226FA702120118
:1019A00022DCA902120122DFAA0212012237AB02B5
:1019B000120122EA8E02120122F48F02120122DBAE
:1019C0009002120122E590021201220791021201F7
:1019D00022139102120122AC9202120122DB920226
:1019E000120122F79302120122509402120122B630
:1019F0009502120122959602120122F1960212011D
:101A0000225E9702120122999702120122D89702B0
:101A1000120122919A02120122AB9A02120122377C
:101A20009B02120122459B021201229E9B0212017F
:101A300022AC9B021201221F9C02120122839C02F3
:101A4000120122CD9C0212012241D3021201226313
:101A5000D30212012289D5021201229ED80212015C
:101A600022B6D90212012269DA021201224BDB02EC
:101A700012012225D7031201224AD703120122BCE8
:101A8000D7031201229287031201229B87031201BE
:101A900022A487031201227B88031201222C8A03CD
:101AA000120122628A031201229C8A03120122D2AD
:101AB0008A031201220C8B03120122408B031201B4
:101AC000226C8B03120122B58B03120122EF8B03D0
:101AD000120122388C03120122908C03120122C5BC
:101AE0008C03120122208D031201225A8D03120150
:101AF00022AB8D03120122E18D031201221B8E0302
:101B0000120122498E031201226C8E031201229BC4
:101B1000E203120122C7E20312012222E3031201AF
:101B2000222CE3031201223CE30312012212F102F0
:101B300012012220F10212012262F102120122ADF1
:101B4000F102120122E7F10212012241F202120116
:101B50002264F202120122F4F40212012202F502BE
:101B600012012255F50212012287F5021201229676
:101B7000F5021201220BF60212012295F602120161
:101B800022DDF60212012214F70212012289F70265
:101B9000120122CBF70212012213F80212012225B0
:101BA000F80212012248F80212012251F802120131
:101BB000220BF902120122D5DE0312012288DF0373
:101BC0001201223BD50312012271D503120122A773
:101BD000D503120122E7D60312012206E503120102
:101BE000221CE5031201222CE50312012276E503F3
:101BF00012012219B3031201222EB303120122E9AA
:101C0000B3031201222DB4031201224AB4031201BC
:101C1000227EB403120122CBB403120122FFB403CB
:101C20001201223DB5031201226AB7031201226795
:101C3000DA0312012290DA03120122B9DA03120147
:101C4000225DDB0312012279DB03120122BBDB03DD
:101C50001201222F96031201226798031201221DFE
:101C60009903120122DA9903120122CB9A0312017D
:101C700022FAC9031201221FCA0312012249CA0310
:101C800012012230E6031201229B88011201220C6C
:101C90008B011201225D8C01120122CD8C011201F7
:101CA000225A8D01120122E08D01120122098E01BA
:101CB000120122C491011201224192011201224318
:101CC00093011201227D9301120122C0930112019E
:101CD00022A49501120122D7950112012231960109
:101CE0001201227E9601120122CB960112012228B6
:101CF00097011201229B9701120122D09701120134
:101D0000220498011201222398011201222E990126
:101D1000120122409901120122199A011201224650
:101D20009A011201226E9A01120122B39A01120144
:101D300022D09A01120122069B01120122D89C0195
:101D4000120122029D01120122809D01120122C373
:101D50009D01120122F69E01120122EAE103120105
:101D600022FBE1031201227EE603120122BBE603FD
:101D700012012249E70312012246E303120122560F
:101D8000E30312012276E303120122DEE3031201D0
:101D900022E0DF0312012265E003120122CDE003FD
:101DA00012012202DC031201222BDC031201229118
:101DB000DC03120122E3DC031201223EDD031201E7
:101DC0002227AA0312012260AA03120122E8AA0311
:101DD000120122FDAA0312012214AC031201229265
:101DE000AC031201229DAC03120122B8AC03120114
:101DF0002268AD0312012292AD03120122BCAD0391
:101E00001201220BAE0312012226AE031201227729
:101E1000AE031201227EBF0312012298BF031201FA
:101E20002215C003120122EFC003120122A8C2032F
:101E300012012207C303120122C8BB031201225858
:101E4000BC03120122D6BC0312012260BD031201A1
:101E500022F7BD031201225EBE03120122FDBE0362
:101E600012012200BF031201220EBF031201222021
:101E7000BF0312012236BF031201224CBF0312011D
:101E8000225ABF0312012270BF03120122E6E003AF
:101E900012012255E10312012265E1031201228E93
:101EA000E103120122B0E103120122DAE10312017F
:101EB00022CAD8031201221FD903120122ADD9036D
:101EC00012012215DA03120122F7D2031201222194
:101ED000D303120122F0D303120122C5D40312014D
:101EE0002289F60112012250F7011201228BF7011B
:101EF000120122BBF70112012219F8011201226D11
:101F0000F801120122DDF80112012273F901120118
:101F10002239FA01120122AFFA01120122F5FB0166
:101F200012012278FC01120122DFFC011201224E73
:101F3000FD0112012265FD011201227FFE01120145
:101F400022C9FE01120122008002120122B0830286
:101F50001201223685021201225C850212012285BD
:101F600085021201220886021201228E87021201C6
:101F700022878802120122C28C02120122FA8C02EC
:101F80001201223C8D021201223B8E02120122001C
:101F90008003120122C782031201226D8303120102
:101FA00022908303120122D984031201223B85036C
:101FB0001201222B8603120122C0860312012288FD
:101FC000870312012237F9021201227CF902120161
:101FD0002299F9021201227FFA02120122F0FA027A
:101FE00012012251FC0212012286FE02120122D1AC
:101FF0007F00120122B46D00120122C4720012018E
:1020000022FFE603120122ECE30312012216E4038D
:10201000120122C9E603120122D8FF021201222B6B
:10202000E703E066701008A3E066700A08A3E066A4
:10203000700408A3E06622C008C3E096F50808A370
:10204000E096420808A3E096420808A3E0964208FA
:10205000A2D265D033E5087001D3D00822C3E79639
:102060000809E7960809E7960809E79622C3E0966B
:1020700008A3E09608A3E09608A3E09622C008C350
:10208000E096F50808A3E096420808A3E096420807
:1020900008A3E09645087001D3D00822080808E696
:1020A00030E7111229561220B4080808C64480C629
:1020B00018181822181818E9799EC608CAC608CB3D
:1020C000C608CCC6C370207996CACBCC7019798E5D
:1020D000CBCC70137986CC700EF9802ACA33CACB68
:1020E00033CBCC33CC331930E7F2CCCBCA335014DA
:1020F0007004EA30E00DE4CA3ACACB3BCBCC3CCC0E
:10210000500209C3E913C6CC182313C6CB18C6CA9C
:1021100018C6F92212215420F01430E72B74FFFC6A
:10212000FBFA747F8022E4FCFBFA7480801AB4808E
:1021300008BC00F2BB00EF800F50EBF9E4C39AFA41
:10214000E49BFBE49CFCE499C6CC18C6CB18C6CA39
:1021500018C6F922E4C9C608CAC608CBC6D33303D9
:1021600008CCC63392F0C3947F402E94184019C90E
:10217000B90704CACBCC225025C309CA33CACB3312
:10218000CBCC33CC33D9F422F4600DC9CCC313CB00
:1021900013CBCA13CAD9F6CC22E4FCFBFA2214FCF6
:1021A000FBFA22E62618461846184622E727194762
:1021B0001947194722181818E60846087009E62634
:1021C000087005E633F4220822191919E7094709AE
:1021D0007009E727097005E733F4220922E608466B
:1021E00008C3134608336002E633F422E7094709BF
:1021F000C3134709336002E733F4221221DD60255F
:102200001221EC60201221A370030221AC080808FF
:10221000E76670101819E766700A1819E766700407
:102220001819E76622F4221221DD601C1221EC60ED
:10223000171221A370071221AC7001D322C0D01253
:1022400021AC7006D0D0B322C32233D0D05014308A
:10225000E0F6C3E7960809E7960809E7960809E754
:1022600096B32220E0D5E6970809E6970809E69795
:102270000809E697B3221221DD601B1221EC6016DB
:102280001221A370071221AC600CB322C0D012211E
:10229000AC7005D0D022C32233D0D0501330E0EB45
:1022A000C3E7960809E7960809E7960809E7962222
:1022B00020E0E4E6970809E6970809E6970809E6AA
:1022C0009722001221DD604F1221EC6012E754804A
:1022D00066F61221B570111221AC703B090909F4A0
:1022E000F618F618F618F6221221C970151221A355
:1022F00008080860EAE6447FF618768018E4F618C5
:10230000F6221221A360161221AC7012E4F608F630
:1023100008F608E65480F609090918181822EAC0D8
:10232000E0EBC0E0ECC0E0EDC0E0E687F0A4FBAC81
:10233000F008E687F0A42CFCE435F0FA1809E687EB
:10234000F0A42C4B60027401CA35F0FCE433FB09A5
:10235000E687F0D2F7A42CCB35F0FC1908E687F01D
:10236000A42BCC35F0FBE433FD0819E687F0D2E767
:10237000A42C4ACB35F0CD3400FC09E687F0D2E737
:10238000A42DCC35F0FDE433FA0918E687F0D2F736
:10239000A42CCD35F0CA3400FC08E687F0D2E7D291
:1023A000F7A42ACC35F07A7E20E70B0ACB33CBCDCD
:1023B00033CDCC33CC33CB3350147004ED30E00E3E
:1023C000D2F1E4CD3DCDCC3CCC3B5005DA05C2F199
:1023D000EB547FC63308E63392F0FBE73309E7336B
:1023E000C39A502D2B70190C0D4C4D70151806E624
:1023F00008C333700D20F10AA2F013F6E418800B25
:102400004024E4F630F002768018F618F618F680CC
:1024100024D33B14501074FFA2F013F6187680E416
:1024200018F618F6800FA2F013F618E63303F61824
:10243000ECF618EDF6D0E0FDD0E0FCD0E0FBD0E00B
:10244000FA221221EC60461221DD603DE968700835
:10245000F618F618F618F622748067F71224760933
:102460000909748067F7221221DD601D1221EC70CA
:1024700005191919801A1221B5701F1221C9C370CC
:1024800003E66733191919400718181822080808B5
:1024900074FFF618F618F618F6221221C960171202
:1024A00021AC702192F01221A37019501720F01462
:1024B000080808090909E7F61819E7F61819E7F6F0
:1024C0001819E7F6221221A360E6E869701F0808D0
:1024D000E62480F608E436F618547FB47F0CE65400
:1024E000806007F6E418F618F622181822E9C6CC20
:1024F00008C6CD08C6CE08C6CFC0E0E8C0E0EAC036
:10250000E0EBC0E009E9F809E7FA09E7FBE6F918AA
:10251000E6F8C3EC98ED99EE9AEBC2E7F5F0EFC25E
:10252000E795F0500E600CEBCFFBEACEFAE9CDF95F
:10253000E8CCF8EAA2E7D2E7FAEB33FB13F5F0EECA
:10254000A2E7D2E7FEEF33FFC5F013A2E730E601C2
:10255000B313C5F0C3C0E0C0F07F00C39BFB605E57
:102560009418600F401D14601AD0E023F9D0E0F8F1
:102570000226488AF0E9486003D2F0E4AFF0FAF9A5
:10258000F8803BEB30E40D89F0EA6003D2F0E4AF71
:10259000F0F9CAF8EB30E30D88F0EF6002D2F0AF4B
:1025A000F0E4CAC9F8EB54076014FBC3EA13FAE974
:1025B00013F9E813F8EF135002D2E0FFDBEDD0E09F
:1025C000C0E030E739C3E49FFFF5F0EC98FC42F03F
:1025D000ED99FD42F0EE9AFE42F0D0E0F9D0E0F83D
:1025E000E5F0607AE923F9EE20E742D8028067C37C
:1025F000EF33FFEC33FCED33FDEE33FE80EAEC28E5
:10260000FCED39FDEE3AFED0E023F9D0E0F84002CF
:10261000801BC3EE13FEED13FDEC13FCEF13500211
:10262000D2E0FF08B800067F7F74FF802EEF3350A2
:10263000178CF020F00260100CBC000C0DBD0008DF
:102640000EBE000408E860DFE933E813FFEE231351
:10265000FE4F4D4C8008E95480FFE4FEFDFCEE3354
:10266000EF33F47004FCFD7E80D0E0FBD0E0FAD0C4
:10267000E0F8D0E0CFC618CEC618CDC618CCC6F943
:10268000221221DD7004181818221221EC700D742A
:10269000FFF61819F61819F61819F622E75480668D
:1026A000F61221A3700F1221AC70F014F608F60890
:1026B000F608F680D11221AC700CF608F608768088
:1026C00008E6447F80EC1221CC700C1221B860BF68
:1026D000E65480F6E480BB1221B870051919198000
:1026E000A5E869700C763F18768018F618F6E8F9B8
:1026F00022E6CDC0E018ECC0E0E633CD33CDD313F5
:10270000F6E719FCE7191933CC33C3947F400ECD9B
:102710009D502408E65480F6E418F6800FF4043D3A
:1027200014501408E6447FF6187680E418F618F67C
:10273000D0E0FCD0E0FD22CCD313CCFD18E4C6CB16
:10274000C0E018E4C6CAC0E00808ED08C633E613C6
:10275000F618E433C675F003C3CA97CA09CB97CB02
:10276000199C40047D08802EBD000302282A16B65D
:10277000FF050606081618C3CA33CACB33CB33CAC3
:1027800027CA09CB37CB193CC37D08803E187D088A
:1027900020E75CC633C6CA33CACB33CB33DDF1D5B1
:1027A000F0EB30E77BCA97CA09CB974ACB199C401C
:1027B0006F4B7025E620E0218066187D08C3CA971C
:1027C000CA09CB97CB199CD3C633C6CA33CACB33FD
:1027D000CB3350C9DDE7D5F0E1D3E4C636C608C631
:1027E00036C608C636C608C636C61818188031C39D
:1027F000CA97CA09CB97CB199CB34097C633C6CAB0
:1028000033CACB33CB33DD34D5F02EC6A2E0C6407D
:10281000C8CA27CA09CB37194A70BECB3CB480B9A5
:102820000808E63308E633601F181818D0E0FAD01D
:10283000E0FBD0E0FCD0E0FD22187D08CA27CA09E1
:10284000CB37CB193CD3808013F618E4B67F11F652
:1028500018B6FF0EF618C60470D20808768080CA33
:10286000F618F618F680C5080808EAC0E0EBC0E0E4
:1028700086F0E7A4FA180986F0E7A42AFA18098670
:10288000F0E7A42AFA180986F0E7A42AFA1986F0D4
:10289000E7A4FBE5F02AFA190886F0E7A42BFBE58C
:1028A000F03AFA190886F0E7A42BFBE5F03AFA189B
:1028B000180986F0E7A4C5F02BFBE43AFA1908E7FB
:1028C000C5F0C6A426F6E5F03BFBE43AFA1886F01C
:1028D000E7A4F6E5F00826F6E43B08F6E43A08F645
:1028E000D0E0FBD0E0FA22E4CFC0E0E4CEC0E0E4E8
:1028F000CDC0E0E4CCC0E075F020E626F608E63373
:10290000F608E633F608E633F6181818EC33FCED53
:1029100033FDEE33FEEF33FFC3EC9709ED9709EE7D
:102920009709EF97191919400FFFEC97FC09ED97DC
:10293000FD09EE97FE191906D5F0BFECF709EDF782
:1029400009EEF709EFF7191919D0E0FCD0E0FDD036
:10295000E0FED0E0FF22181818E4C396F608E496CB
:10296000F608E496F608E496F6226016080808C60B
:10297000C313C618C613C618C613C618C613C6D5C1
:10298000E0EA227009080808226016181818C6C361
:1029900033C608C633C608C633C608C633C6D5E034
:1029A000EA22E627F60809E637F60809E637F608C8
:1029B00009E637F622E026F608A3E036F608A3E09B
:1029C00036F608A3E036F622E026F008A3E036F05B
:1029D00008A3E036F008A3E036F022C3E697F60835
:1029E00009E697F60809E697F60809E697F622C37E
:1029F000E096F008A3E096F008A3E096F008A3E0C4
:102A000096F022E657F60809E657F60809E657F663
:102A10000809E657F622E056F608A3E056F608A3A2
:102A2000E056F608A3E056F622E056F008A3E0567A
:102A3000F008A3E056F008A3E056F022E0F608A361
:102A4000E0F608A3E0F608A3E0F622E6F008A3E625
:102A5000F008A3E6F008A3E6F022E0FAA3E0FBA367
:102A6000E0FCA3E0FD22EAF0A3EBF0A3ECF0A3ED81
:102A7000F022E0F8A3E0F9A3E0FAA3E0FB22E8F0FB
:102A8000A3E9F0A3EAF0A3EBF022CAC0E0E6F0A3CA
:102A900008DAFAD0E0FA22CAC0E0E0A3C582CCC5C9
:102AA00082C583CDC583F0A3C582CCC582C583CD45
:102AB000C583DAE6D0E0CA22C3E498F8E499F912B3
:102AC0002AF98026C3E49AFAE49BFBE920E7E9129D
:102AD0002AF9E498F8E499F922C3E498F8E499F91A
:102AE000122AF9E498F8E499F9C3E49AFAE49BFB12
:102AF00022EB20E7CFE920E7E0B90010BB0008E8AF
:102B00008AF084F8AAF022E4FBC8FA22EB70227B58
:102B100010C833C8C933C9335007C39AC3DBF28026
:102B2000069A50012ADBEAC833F4C8C933F4C9FA5B
:102B30002275F008E4C833C8C933C933C99AC99BA0
:102B40005004C92AC93BD5F0ECFBC833F4C8E4C92A
:102B5000FA22600D08C6A2E713C618C613C6D5E050
:102B6000F322600C08C6C313C618C613C6D5E0F41A
:102B700022700422600D18C6C333C608C633C6D5FA
:102B8000E0F41822251810AF08F518400C1519802C
:102B900008F51840021519D2AF2200C0D025181030
:102BA000AF08F518500C05198008F51850020519E2
:102BB000D2AFD0D0222518F58210AF08F518400CFE
:102BC00015198008F51840021519D2AF851983220E
:102BD0002518F582E43519F583222518F8E435190E
:102BE000F9222518FAE43519FB222518FCE43519D9
:102BF000FD22E4732518C582C0E0E51934FFC583C2
:102C0000C0E0E518C3958224F810AF0885831985C4
:102C100082188008858319858218D2AFCEF0A3E58B
:102C200020F0A37808E608F0A3DEFAEFF0A3E58130
:102C300024FAF8E608F0A3E608F0A3E608F0A308F3
:102C400008E608F0A3E608F0A315811581D0E0FEA0
:102C5000D0E0F8158115811581E8C0E0EEC0E022D2
:102C60002518C582C0E0E51934FFC583C0E0E5182A
:102C7000C3958224F910AF088583198582188008CE
:102C8000858319858218D2AFCEF0A3E520F0A37812
:102C900008E608F0A3DEFAEFF0A3E58124FBF8E6EE
:102CA00008F0A3E608F0A30808E608F0A3E608F099
:102CB000A315811581D0E0FED0E0F815811581E8DB
:102CC000C0E0EEC0E022851983851882E0A3FEE013
:102CD000A3F5207808E0A3F608DFFAE0A3FFE0A35D
:102CE000C0E0E0A3C0E0E0A3C0E0E0A3C0E0E0A358
:102CF000C0E010AF08858218858319800885821886
:102D0000858319D2AFD083D08202011F85198385B4
:102D10001882E0A3FEE0A3F5207808E0A3F608DF20
:102D2000FAE0A3FFE0A3C0E0E0A3C0E0E0A3C0E0BE
:102D3000E0A3C0E010AF088582188583198008855C
:102D40008218858319D2AFD083D08222C0D02518B3
:102D5000C582C0E0E51934FFC583C0E0E518C3951E
:102D60008224F310AF088583198582188008858333
:102D700019858218D2AFC8F0A3E9F0A3EAF0A3EB5B
:102D8000F0A37908E709F0A3D8FAECF0A3EDF0A3DB
:102D9000EEF0A3EFF0A3D0E0F0A3D0E0F0A3D0E0FA
:102DA000F0A3E520F0A3E5F0F0A3228519838518B0
:102DB00082E0C0E0A3E0F9A3E0FAA3E0FBA3780877
:102DC000E0F608A3DFFAE0FCA3E0FDA3E0FEA3E049
:102DD000FFA3E0C0E0A3E0C0E0A3E0F5D0A3E0F5EE
:102DE00020A3E0A3F5F010AF088583198582188031
:102DF00008858319858218D2AFD082D083D0E0F8BD
:102E0000D0E03274048006740280027401C0E0F4E1
:102E100004122BB5D0E0122A8A22740480047402B2
:102E20008000CCC0E0EDC0E0E518C39CCCAD1950EB
:102E3000011D10AF068C188D1980068C188D19D2C3
:102E4000AF122A97D0E0FDD0E0FC22D083D082E9F7
:102E5000C0E0E493A3C386F0C5F095F0F908E493CD
:102E6000A386F0C5F095F0700BE493A3C3994005D9
:102E7000E9048002A3E475F002A42582F582E5F05E
:102E80003583F583D0E0F9E493A3C0E0E493C0E098
:102E900022D083D082ECC0E0EDC0E0E493A3FCE458
:102EA00093A3FDED4C600D122EDDEC24FFFCED3400
:102EB000FFFD80EFE493A3FCE493A3FDED4C600DD4
:102EC000122F1CEC24FFFCED34FFFD80EFD0E0FD61
:102ED000D0E0FCE493A3C0E0E493C0E022C0E0C3F0
:102EE000E49396087401939618400FE49366700873
:102EF00008740193661870007019A3A3C3E4939635
:102F0000087401939618A3A3400DD0E0D0E0D0E060
:102F1000022ECDA3A3A3A3A3A3D0E022C0E0C0F0C0
:102F200088F0E4936670080874019366187000A82E
:102F3000F0A3A3700BD0F0D0E0D0E0D0E0022ECD13
:072F4000A3A3D0F0D0E022B2
:102F480074F5122C60EAFEEBFFEE2434F8EF34003F
:102F5800F988088909EE2435F582EF3400F583E015
:102F6800F8EE2437F582EF3400F583E0F50AEC85B6
:102F78000AF0A4FCAAF0850AF0EDA42AFDE82CF8D2
:102F8800E43DF97A257B00122AF9EA850882850949
:102F980083F0F8740758F97401B900028004C33348
:102FA800D9FCFAE8131313541FF8EE28F8EF34008D
:102FB800F9E8245DF582E93400F583E05A6008EE0B
:102FC8002434F582EF802CEE2434F582EF3400F5BA
:102FD80083E0C0E0EE2436F582EF3400F583E0F5B7
:102FE800F0D0E084A8F0EE28F8EF3400F9E82438AF
:102FF800F582E93400F583E0F97F04022D0C74F5BD
:10300800122C60EAFEEBFFEE2434F582EF3400F573
:1030180083E0C0E0EE2435F582EF3400F583D0E09C
:10302800F08E828F83A3A3A3A3A3A3A3C082C0838C
:103038008E828F83A3A3A3A3A3E0F8A3E0F9D08390
:10304800D082E0C398F508A3E099F509EE247FF54E
:1030580082EF3400F583E064017069EE2480F58224
:10306800EF3400F583E0F8A3E0F98E828F83A3A301
:10307800A3A3A3A3A3E0FCA3E0FD8E828F83A3A355
:10308800A3A3A3E0FAA3E0FBC3EA9CEB9D5010C303
:10309800EC98ED99402EC3EA98EB995027800EC31F
:1030A800EA98EB994007C3EC98ED9940177CDC7DD2
:1030B80004EEFAEFFB12172EEE247FF582EF3400B0
:1030C800F583E4F0EE2434F8EF3400F9E8FCE9FD88
:1030D800EE2435F582EF3400F583E0F8EE2437F579
:1030E80082EF3400F583E0F50AE508850AF0A4F5D7
:1030F80008AAF0850AF0E509A42AF509E82508F8E0
:10310800E43509F97A257B00122AF9EA8C828D8345
:10311800F0F8740758F97401B900028004C333D970
:10312800FCFAE8131313541FF8EE28F8EF3400F9EB
:10313800E8245DF582E93400F583E05A6008EE245E
:1031480034F582EF802CEE2434F582EF3400F583D9
:10315800E0C0E0EE2436F582EF3400F583E0F5F0C8
:10316800D0E084A8F0EE28F8EF3400F9E82438F528
:1031780082E93400F583E0F9123A5D023001C08239
:10318800C083851882851983E0F8A3E0F9C3EA9C17
:10319800EB9D5010C3EC98ED99401BC3EA98EB994E
:1031A8005014800EC3EA98EB994007C3EC98ED9948
:1031B8004004790180027900D083D08222EAC39C3E
:1031C800FAEB9DFB2274EF122C609003A2E06408D6
:1031D8006005E06407702A9061C8E060249003D01D
:1031E800E0F4601DE0F875F003A4C8AAF02AF974A9
:1031F800D228FE740339FF8E828F83A3A3A3E070C5
:10320800030232FD906060E0C0E0EE2468F582EFD2
:103218003400F583D0E0F0750C45750D0575080090
:10322800750900E5D914F50AE5D95403F50E6017B8
:103238007403650E605CE50A6010EE2467F582EFA2
:103248003400F583E070030232E2900540E0640147
:10325800602AEE2482F582EF3400F583E06004787A
:103268000480027800850A08E508C398FA95E0FB0F
:103278001215FC8A088B09EA450970051219208085
:1032880074EE2482F582EF3400F583E070048A0C32
:103298008B0DE50A6012850C82850D83F50BE5D947
:1032A800F0A3150BE50B70F6EE2482F582EF3400DF
:1032B800F583E0604474FC250AF50A780C122E07A1
:1032C800AC0AA90EEEFAEFFB1217CA7402122B9A77
:1032D800E97026AA08AB09121EB4793D8E828F8345
:1032E800A3A3A3A3E0FA7B001214D0EEFAEFFB121B
:1032F80017461217DC790080747403650E605685D2
:103308000A107511007810122E07AC0CAD0DAA0822
:10331800AB091217A67402122B9AEE2468F582EFF5
:103328003400F583E064807004747F8001E0F50C5C
:10333800780C122E0BE50EF50C780C122E0BA90A40
:10334800AC08AD099003D0E0FA7B00121494740223
:10335800122B9A80139003A2E06408600BAC0CADAA
:103368000DEEFAEFFB12183612192C79017F0A02BA
:103378002D0C74F5122C6074FC122B84EAFEEBFF02
:103388008908A2AFE433F509C2AF806AEE2463F876
:10339800EF3400F97A007B00A2AFE433F50AC2AF3C
:1033A80088828983E0FCA3E0FDEC4D603A8882893D
:1033B80083E0FAA3E0FB8A828B83E0FCA3E0FD882C
:1033C800828983ECF0A3EDF08A828B83E4F0A3F08A
:1033D80088828983E0FCA3E0FDEC4D700A8882892D
:1033E80083A3A3E4F0A3F0E50AA2E092AF121EB40F
:1033F8009004E3E004F0EE2463F582EF3400F583F3
:10340800E0F8A3E0F9E849603DEE2463F582EF3483
:1034180000F583E02402FAA3E03400FBEA2402F575
:103428000AEB3400F50B780A122E078A828B83E0A8
:10343800FCA3E0F9EEFAEFFB12176A7402122B9A5A
:10344800E970030233949004E3E060639004E4E0DD
:10345800F89004E3E0C398500C740265087050902B
:1034680004E5E0604A8E828F83A3A3A3A3E08518B6
:1034780082851983F0A3E4F09004E3E0F874021263
:103488002BD0E8F0A3E4F09004E3E0F89004E2E045
:1034980028F07402122BD0AC82AD8385188285196E
:1034A80083AA82AB8379011214A09004E3E4F0E5C7
:1034B80009A2E092AF7404122B9A023001000000B6
:1034C8008521878522C622C0E0C0D0E8C0E0E9C0D7
:1034D800E0EAC0E0EBC0E0ECC0E0EDC0E0EEC0E048
:1034E800C008C009C00AC00BC082C083C0F0A2AF28
:1034F800E433FEC2AF759B00906182E0A2E05012F7
:10350800E591A2E0500C7591FE74016521700312DB
:1035180031CDE0A2E55051E591A2E5504B7591DF20
:103528009003A2E064076005E064087023740165F5
:1035380021703579019003D0E0FA75F003A4CAA888
:10354800F028FB74D22AFA74033BFB12337A8018F2
:10355800E0640D70139003C4E004F064287002E482
:10356800F07A00E0F9121932906182E0A2E6400395
:10357800023616E591A2E640030236167591BF9011
:1035880003A2E06405700812186012186C80031218
:1035980018667521001218C0E99003A3F07900128B
:1035A80018B41216A47A017B009003A1E0F9121B4B
:1035B8008A907803E064427055900544E014F070F6
:1035C8004DC2AF1235CE00782AD0E0F618D0E0F61A
:1035D800E59F540770057509FF800375097FC4C00E
:1035E800E07829E6F50808E65509F509740B780826
:1035F800122B62D0E02508F8906270E0A2E740F84C
:10360800E8C333906272F0906270E0D2E0F09061AB
:1036180081E0A2E35009E5E9A2E3500375E9F7A3C5
:10362800E0A2E75009E591A2E7500375917FEEA269
:10363800E092AFD0F0D083D082D00BD00AD009D09E
:1036480008D0E0FED0E0FDD0E0FCD0E0FBD0E0FA0E
:10365800D0E0F9D0E0F8D0D0D0E032C0E0C0D0C09F
:1036680082C083906183E0A2E05009E5BFA2E050E8
:103678000375BFFEE0A2E15009E5BFA2E150037562
:10368800BFFDE0A2E25009E5BFA2E2500375BFFB0F
:10369800E0A2E35009E5BFA2E3500375BFF7E0A23B
:1036A800E45009E5BFA2E4500375BFEFE0A2E5507E
:1036B80009E5BFA2E5500375BFDFE0A2E65009E5C2
:1036C800BFA2E6500375BFBFD083D0828088C0E018
:1036D800C0D0E8C0E0E9C0E0EAC0E0EBC0E0ECC080
:1036E800E0EDC0E0C0F0E5A7A2E6500FE5A1A2E634
:1036F800500953A7BF75A1BF12373BE5A7A2E550F4
:103708000CE5A1A2E5500653A7DF75A1DFE5A7A246
:10371800E15009E5A1A2E1500375A1FDE5A7A2E2E8
:10372800500CE5A1A2E2500653A7FB75A1FBD0F00F
:1037380002364C74F8122C607521019003A2E064E3
:103748000670151217FA8A828B83A3A3A3A3A3A3D7
:10375800E0FAA3E0FB12184EA2AFE433FED2AF901A
:1037680003A8E0640170187A207B009003A1E0F9B7
:10377800121C147A207B009003A1E0F9121B909090
:103788006182E0D2E6F0900541E0602185C62280A2
:10379800169003A7E064017008E5C654F84405F5DF
:1037A800C653BEFC1234C87401652160E4EEA2E081
:1037B80092AF7F01022D0C008E238F2485822885ED
:1037C8008327851882851983E0CEA3E0CF852882D8
:1037D800852783EBC9EAC8EDCBECCA75F010C3E8BE
:1037E80033C8E933C9EA33CAEB33CBC3EA9EF526BB
:1037F800EB9FF525B35004AB25AA26EC33CCED336B
:10380800CDD5F0DAAE23AF242274ED122C608A08ED
:103818008B098C0A8D0B7413122BD0780C122A3C4E
:103828007808790C12205D7510017511C8751200A1
:1038380075130050127808790C1229DB7810790872
:1038480012205D50168010780C79081229DB781048
:10385800790C12205D40047901800279007F0C0206
:103868002D0C74ED122C608A088B098C0A8D0B7450
:1038780013122BD0780C122A3C780C790812205D90
:1038880040117808790C1229DBAA08AB09AC0AADFB
:103898000B802275100075110075120075130178E0
:1038A80010790C1229DB781079081229A2AA10AB1A
:1038B80011AC12AD1380A68A828B837508FF750937
:1038C800FF750AFF750B007808122A297F04022D5C
:1038D8000C74F5122C608C828D837808122A3C8A2D
:1038E800828B8378081229EFEA2404F8EB3400F974
:1038F8008C828D83A3A3A3A3E0FCA3E0FD88828927
:1039080083C3E09CF0A3E09DF088828983C3E094A0
:1039180020A3E0944E40268A828B837508FF7509A0
:10392800FF750AFF750BFF78081229C88A828B83F6
:10393800A3A3A3A3E02420F0A3E0344EF00238BFF1
:1039480074F5122C60E9FE9004F7E0FAA3E0FBEEB0
:10395800C333F8E433F974B028F582748639F583F3
:10396800E02AF508A3E03BF5097808122E077A400B
:103978007B427C0F7D001237C07402122B9A8A0892
:103988008B098C0A8D0B7410780812296AAA08AB67
:10399800097F04022D0C74F1122C608A0C8B0D8C9B
:1039A8000E8D0F740F122BD0E0FAA3E0FB741112E6
:1039B8002BD0E0F508A3E0F5097808122E07EA24D1
:1039C80001F508EB3400F509E4F50AF50B780C79F4
:1039D80008122867750871750902780C7908122889
:1039E80067AA0CAB0DAC0EAD0F1237C07402122BC8
:1039F8009A8B09EA450960047A0180027A00EC2A68
:103A0800FCED3400FD7413122BD0E0F8A3E0F9E8C4
:103A1800FEE9FFECF8EDF97A717B02122AF98808C1
:103A280089098E828F837808122A4BECF8EDF97A8F
:103A3800717B02122AF98A088B0974057808122BFF
:103A4800718E828F83A3A3A3A3E508F0A3E509F0F1
:103A58007F08022D0CC082C083E9906000F0D083FB
:103A6800D08222C2AF02000022C0E074F2122D4CB4
:103A7800A2AFE433FED2AFC2C0E5D1A2E4500653F0
:103A8800D1EF121E84EEA2E092AF7F01022DABC0EF
:103A9800E074F2122D4CA2AFE433FED2AFE589A256
:103AA800E15003121DB8758900C2C5EEA2E092AFBD
:103AB8007F01022DABC0E074F2122D4CA2AFE433AB
:103AC800FED2AFE58BA2E05003121DB8758B00C281
:103AD800E8EEA2E092AF7F01022DABC0E0C0D0E8D3
:103AE800C0E0E9C0E0A2AFE433D2AFC2C7A2E0921F
:103AF800AFD0E0F9D0E0F8D0D0D0E032C0E0C0D00C
:103B0800E8C0E0E9C0E0C008C009C082C083A2AF35
:103B1800E433F9D2AF900A81E0F8A3E06870085363
:103B28009AFBA374018025C2E9900A81E0F5087424
:103B3800012508F074012508F582E4340AF583E0CC
:103B4800F5C1900A81E0C394804002E4F0E9A2E064
:103B580092AFD083D082D009D008D0E0F9D0E0F875
:103B6800D0D0D0E03202011FFFFFFFFFFFFFFFFFB1
:103B7800C082C083E9900C4EF0023E0774F7122B06
:103B8800F4E99002E1F07C197D037AFF7BFF1213C0
:103B9800E69002E274FFF0A3F0A3E4F0A3F0790545
:103BA80012136E9002E1E0F91212907A047B14125B
:103BB80015AE7F01022CC674F4122BF48A088B0907
:103BC800EB548060309002E1E0F9121B728A0A8B94
:103BD8000BAE0AAF0BEE4F60138E828F83E064B09A
:103BE8007003121386EEFAEFFB121B60AA08E509B0
:103BF8006480FB80047A007B00023DD674F2122BAD
:103C0800F474FC122B84EAFEEBFFEE4F603874026A
:103C1800122BD0EEF0A3EF12403BECF0A3ED1240D4
:103C28003BAA82AB8312128AE9F5087073741212E8
:103C38002BD0124BEFE50A450B60658E828F8312FD
:103C48003CB2EE4F700575080280557A067B00126B
:103C58001BCC8A0C8B0DA80CA90DE84970057508BA
:103C680013803D88828983E4123CBCA3A3EEF0A3B1
:103C7800EF125088E50AF0A3E50BF09002E7123D39
:103C8800449002E76017E0FCA3E08003EAFCEBFD48
:103C98008C828D83123D4470F38C828D83124B1479
:103CA800A9087404122B9A02528AA3A3A3A3E0FEC4
:103CB800A3E0FF22F0A3F0888289832274F2122BFA
:103CC800F4890AE975F017A4FEAFF09002E6E4F073
:103CD8009002E4123D44600A121BD29002E4E4F020
:103CE800A3F0EEFAEFFB121BCC8A088B09EA450910
:103CF800602FEEFCEFFD7900121B489002E4E50806
:103D0800F0A3E509F07B008008123D2EE4F0A3F053
:103D18000BEBC3950A40F2E50A9002E6F0790080C1
:103D280002791302528AEB75F017A4F8A9F09002F1
:103D3800E4E028FAA3E0398A82F583221248AAEA45
:103D48004B2274F4122BF4750800750900740C12D8
:103D58002BD012505CFEE9FF800CE5082401F50821
:103D6800E5093400F509C3E5089CE5099D5032854D
:103D7800080A85090B7403780A122B71EA250AF8D8
:103D8800EB350BF988828983A3A3A3A3A3A3124BC2
:103D9800EFEE650A7003EF650B70BFE8FAE9FB8088
:103DA800047A007B00802774F4122BF47900EAA2CD
:103DB800E0501B7508077509887808122E077C04DF
:103DC8007D007A507B0C1213687402122B9A7F04C0
:103DD800022CC6C082C0839002E7123E0E601C8887
:103DE800828983A3A3E06A7003A3E06B8882898336
:103DF80070E8A3A3A3A31248A680047A007B00D08E
:103E080083D08202011F12535DE8492274EE122BFF
:103E1800F474FC122B84EAFEEBFF85188285198363
:103E2800E4F0A3F0EE2402124AF8EE240512402929
:103E3800EE2404F50EEF12440EE024FE603924FC53
:103E4800604624FE605224FE605E24FE7003023F3A
:103E58002E24FE7003023FA624FE7003023FB52401
:103E6800FE7003023FC424FC7003023FD324FE709B
:103E780003023FE202401F9003007417F0A3E4120C
:103E8800404312100802401F851882851983AC82AE
:103E9800AD8312138C023FEF851882851983AC829B
:103EA800AD83121392023FEF850C08850D09740249
:103EB800122BD0AC82AD838508828509831248A66F
:103EC8001212AE8A0C8B0DAC0CAD0DEC4D6042E4B9
:103ED800F50CF50D780C122E07750C00750D03788E
:103EE8000C122E07750C01750D03780C122E077431
:103EF80008122BD0122E1E79161248A01213CE7457
:103F080008122B9AE9F50C700B12489C12102080AD
:103F18000F750C01850882850983124031124B14F4
:103F2800850C08023FF27402122BD0AC82AD838557
:103F38000C82850D831248A61212AE8A108B11AC22
:103F480010AD11EC4D6043850C82850D83A3A3123F
:103F58002E1E7510007511037810122E07751001AA
:103F68007511037810122E077408122BD0122E1E0A
:103F780079161248A01213CE7408122B9AE9F50983
:103F8800700B12489C121026800F750901850C824F
:103F9800850D83124031124B14850908804C851811
:103FA80082851983AC82AD83121398803A85188272
:103FB800851983AC82AD8312139E802B8518828568
:103FC8001983AC82AD831213A4801C8518828519CD
:103FD80083AC82AD831213AA800D8518828519835C
:103FE800AC82AD831213B0E9F508E50860298E822A
:103FF8008F83A3E06414601F850E82850F83E09091
:10400800030012403B125359900301124B14E50868
:10401800A3124043121002EEFAEFFB12132C024ACD
:1040280000F50CEF3400F50D2212535D85188285DA
:10403800198322F085188285198322F07C007D037C
:10404800850A82850B831248AA2274EE122BF47417
:10405800FC122B848A0A8B0B8C0E8D0FEA2405F533
:1040680008EB3400F5097C157D0079007A007B03A4
:10407800121B48E5082402F50CE50912402C8518A6
:10408800828519838582108583117810122E078501
:104098000882850983A3A3A3A3124556122E07E518
:1040A800082405F510E5093400F5117810122E07DB
:1040B800850C82850D831248B01212A87406122B43
:1040C8009A8A108B11AE10AF11E50A2402F50AE5A1
:1040D8000B124AFBEE4F700302421880177402124B
:1040E8002BD01248A688828983EAF0A3EBF09003CC
:1040F80000E004F0900300E0C39405400302421876
:10410800E4F510F5117810122E077510E9751102F3
:104118007810122E077510EA7511027810122E0702
:104128007406122BD0122E1E7910EEFCEFFD1248E9
:10413800A01213CE7408122B9AE9705E8508828546
:104148000983A3A3A3A3A3A3A3E0F89002E9E068CB
:104158007048124556122E077CEA7D02E5082408AD
:10416800FAE5093400FB121B427402122B9AE9602B
:10417800298E828F83A3A3A3A31248A6900300E0ED
:10418800F51074027810122B7174012510F58274E1
:10419800033511F583EAF0A3EBF07402122BD085F6
:1041A80082108583117810122E077402122BD012F8
:1041B8002E1E850C82850D8312536E1212B4740460
:1041C800122B9A8A108B11AE10AF11900300E0F5F4
:1041D8001075110074027810122B7174002510F8F4
:1041E80074033511F988828983A3123D4470030250
:1041F80040DCE82403F8E93400F9EE4F600302409C
:10420800E58882898374FFF0A3F0900300E004F04E
:10421800900300E0600A12489C1210147900800B89
:10422800850882850983124B0B790A024A0074EAD1
:10423800122BF474FE122B848C128D13EA2405F5CC
:104248000CEB1254D8123CB6750800750900EA2424
:1042580002F510EB3400F5118518828519838582E3
:104268000A85830B780A122E07850C82850D83A395
:10427800A3A3A3124418122E07E50C2405F50AE59A
:104288000D124AFB780A122E07850C82850D8312BF
:10429800536C1212A87406122B9A8A0A8B0BEA45E1
:1042A8000B70030243C9EA2404F50EEB12440E1204
:1042B8003CB68A828B83A3A3A3E0F985108285117B
:1042C800831248A6121296E9F50960030243C9E46D
:1042D800F514F5157814122E077514E9751502787A
:1042E80014122E077514EA7515027814122E077425
:1042F80006122BD0122E1E7913AC0AAD0B85108234
:104308008511831248A61213CE7408122B9AE9F568
:104318000960030243C99002E9E0F8E5087009E082
:104328002402900301F08017900301E0FCE82402C6
:10433800FAE43400FBEA6C7001EB60030243CD85BC
:104348000882AA8212454D94141245455073850E71
:1043580082850F83E0C0E074022A124405D0E0F0A1
:104368000508850E82850F83A3E0C0E085080A74DE
:1043780002250A124405D0E0F005089002E912442B
:1043880018122E077CEA7D0285080A7402250AFAAB
:1043980074033400FB121B307402122B9A9002E94A
:1043A800E02508F50874FF6E700374FF6F6012EE65
:1043B80024010EEF3400FFE508C3941450030242B1
:1043C80060E50860131247918510828511831248B1
:1043D800A612101A79008014E509700375090A8578
:1043E8001282851383EEF0A3EFF0A9097402122B51
:1043F8009A7F0E022CC685080C7402250CF582746F
:10440800033400F583223400F50F850E82F58322EC
:1044180012509B2274EE122BF474FE122B848C0E15
:104428008D0FEA2405F50CEB12402C750B00900358
:1044380000E4F0F50AEA2402F508EB3400F50980F7
:1044480049900300E0FA9002E9E0F812454D94170C
:10445800124545400D900300E0F87416C398900289
:10446800E9F0124556122E077CEA7D0274012AFAF9
:1044780074033400FB121B307402122B9A9002E969
:10448800E0F8900300E028F0050AE50C2416F58210
:10449800E50D124409E0F8E50AC398400302452EE9
:1044A800900300E0C39416507DE50AC333F8E43363
:1044B800F9E50C28FEE50D39FF851882851983ACCE
:1044C80082AD838E828F831248A61212AE8A108B19
:1044D80011AC10AD11EC4D7005750B018043E4F57E
:1044E80010F5117810122E077510E9751102781061
:1044F800122E077510EA7511027810122E0774062D
:10450800122BD0122E1E791685088285098312482F
:10451800A61213CE7408122B9AE9F50B7003024405
:1045280049124B0780107C007D038508828509832A
:104538001248A612102CA90B7402024A02E9940030
:10454800C365D03322EA28F8E43400F9E822E0F51C
:104558001075110078102274EA122BF474FC122BD7
:10456800848A0C8B0D8C128D13EA2405F50AEB1244
:104578004AFB750800750900E50A2402F510E50BE9
:104588003400F5117402122BD085820E85830F78C2
:104598000E122E07850A82850B83A3A3A3A31250AC
:1045A80047122E07E50A2405F50EE50B3400F50F32
:1045B800780E122E07851082851183124B0112483E
:1045C800A01212A87406122B9A8A0E8B0FAE0EAF89
:1045D8000FE50C2402F50EE50D3400F50F80408838
:1045E80082898374FFF005081243FE74FFF0050802
:1045F8009002E9E0F50C750D00780C122E077CEAA4
:104608007D0285080C7402250CFA74033400FB1231
:104618001B307402122B9A9002E9E02508F508EE87
:104628004F60718E828F83A3A3A3E0F9850E8285E4
:104638000F831248A6121296E9F509EE24041240D7
:1046480029E97044E4F514F5157814122E07751449
:10465800E97515027814122E077514EA7515027893
:1046680014122E077408122BD0122E1E7911EEFC8C
:10467800EFFD850E82850F831248A61213CE7408AB
:10468800122B9AE9F5096027850C82850D8312475C
:1046980087124B14E508700302476D124791850E87
:1046A80082850F831248A61210327900024782854C
:1046B8000882AA82EA9002E97009E02404900301C2
:1046C800F08022E0F8900301E0F514E82404FCE40B
:1046D8003400FDEC65147001ED70C012454D941264
:1046E80012454550B6850C82850D83E0C0E0740202
:1046F8002A124405D0E0F00508850C82850D83A3B5
:10470800E0C0E01243FED0E01247A385820C858307
:104718000D780C122E077404122BD0122E1E851041
:104728008285118312536E1212B47404122B9A8A62
:104738000C8B0DAE0CAF0D85080C7402250CF874AB
:10474800033400F9EE4F70030245E7851882851996
:1047580083E0888289831247A3A3E0C0E01243FE66
:10476800D0E00245F5E509700375090A850A8285D6
:104778000B83124787124B14A90974040243F612DB
:10478800535D85128285138322900301E0F5F0E5DD
:104798000884900300F07C007D0322F0050885184A
:1047A800828519832274EC122BF474FE122B848AEE
:1047B800088B098C0E8D0FEA2405FEEB3400FF856B
:1047C8001882851983AC82AD838E828F831248A6A6
:1047D8001212AE8A0A8B0BEE2418124029EA450BF6
:1047E80070030248771249E9503285188285198387
:1047F8001248A61213C28A108B11EA4511606B7910
:1048080012AC0AAD0B8508828509831248A685106B
:1048180082851183122BF2E9F50A7058E4F50AF53E
:104828000B780A122E078E828F83A3A3E0F50A78ED
:104838000A122E07EE2403124AF8780A122E078E5F
:10484800828F831248B01213D47406122B9AE9F59A
:104858000A7021850C82850D83E0701F850882858A
:1048680009831248A61210388011750A0E8009753E
:104878000A018004E50A6003124B07850C82850D46
:1048880083E0600479008002A90A7402122B9A7FDF
:104898000C022CC67C007D03850A82850B83124896
:1048A800AA22E0FAA3E0FB22E0FCA3E0FD8508824F
:1048B8008509831248AA2274EE122BF474FE122B77
:1048C800848A088B098C0C8D0DEA2405FEEB3400D4
:1048D800FF750E00851882851983AC82AD838E82A0
:1048E8008F831248A61212AE8A0A8B0BEA450B7008
:1048F800030249D51249E950358518828519831272
:1049080048A61213C28A0E8B0FEA450F605E791211
:10491800AC0AAD0B8508828509831248A6850E82EC
:10492800850F83122BF2E9F50E60030249D885083A
:1049380082850983124BEFAA0AFB1213B68A108BE1
:1049480011A810A911E849701E7AFF7BFF1213B64F
:104958008A108B11A810A911E849606C8882898394
:10496800E50AF0A3E50BF0750A008007750E0E80C6
:104978005F050A9002E6E0FAE50AC39A504AE50A9A
:1049880075F017A4FAABF088828983A3A3E02AFA0A
:10499800A3E03BFB8A828B83124B01EC4D70D275EE
:1049A8000A17750B00780A122E07EEFCEFFD121B92
:1049B800307402122B9AEEFCEFFD8508828509837C
:1049C8001248A612103E8014750E098003750E0158
:1049D800125355850C82850D83124B14A90E02457E
:1049E80040E5082402F508E5093400F5098A828BB8
:1049F80083A3A3A3E0A2E5227404122B9A7F0A02E0
:104A08002CC674EC122BF48C108D11EA2405F50CCD
:104A1800EB12402C750F00EA2402F50AEB124AFB50
:104A2800850A82F5831248A61213B68A088B09EA0A
:104A380045097003024AED750E008071850C828568
:104A48000D83E06401704F8E828F83A3A3122E1E04
:104A58008E828F83A3A3A3A3E0F5127513007812A7
:104A6800122E07EE2405F512EF3400F51378121212
:104A78002E071248A01213D47406122B9AE9F50FC8
:104A88006014850C82850D83E4F0125355851082DD
:104A9800851183124B147C177D007900EEFAEFFB29
:104AA800121B488E828F83E4F0A3F0050E9002E675
:104AB800E0F8E50EC398501EE50E75F017A4F8A9A6
:104AC800F0850882850983A3A31254E2124B01ECF6
:104AD8004D6003024A4485088285098374FFF0A368
:104AE800F0E50F70061248A0121044A90F0248976B
:104AF800F50AEF3400F50B22A3E0FCA3E0FD228EBB
:104B0800828F8312535D850E82850F83E8F0A3E9B7
:104B1800F022C082C0839002E2E06A7003A3E06BD7
:104B280070067AE27B0280047A007B00023E07C0AE
:104B380082C08378008C828D83E06A7003A3E06B67
:104B48007010E875F003A4F8A9F0EC28FAED39FB29
:104B58008015088C828D83A3A3A3E06A7003A3E069
:104B68006B60DF7A007B00023E0774F6122BF412AA
:104B780013808A828B83E582458370067A007B00E6
:104B88008007A3A3A3A31248A602520674F2122B0D
:104B9800F4E9FE740E122BD0124BEF7410122BD0C6
:104BA8001250678C828D83E064027036A3125363BF
:104BB800F50CA3E0F9A80C740268700374296970F5
:104BC80021750C02750D00780C122E077808122E2C
:104BD80007780A122E07EEF91213F87406122B9AA8
:104BE8008002790102528AE0F50AA3E0F50B2274EB
:104BF800E8122BF474FB122B84E98518828519833B
:104C0800F08A168B17ECFEEDFF751000741D122B41
:104C1800D0125359741D122BD0124B148E828F83CD
:104C2800A3A3A3E0A2E4502D741D122BD01248A612
:104C38001213C28A828B83E582458370030250383F
:104C4800790AEEFCEFFDAA16AB17122BF2E9F51064
:104C5800600302503B741F122BD01250677421124C
:104C68002BD0124BEF7423122BD0E0F50EA3E0F5F6
:104C78000F8E828F83E064026003024FE6A3125313
:104C880059850882850983A3858212858313EE24BA
:104C98000612402988828983E0FAA3E0F9EA240011
:104CA800F514E439F5157814122E91010000280145
:104CB80028DB4C07000228A04D03280D4D0029D7FA
:104CC8004E0129024F0229A34E0329D74E042981F8
:104CD8004FE64FE50E450F6003024FE1850C8285D4
:104CE8000D8312505CFAE9FB8A828B83E0850A8285
:104CF800850B83125092122E078A828B83A3E0FCC5
:104D0800A3E0024F6BE50E450F6003024FE1850AF1
:104D180082850B837401F012506F850882850983A0
:104D2800F07C007D008E828F83A3A3A3A3E02401DF
:104D3800FAA3E03400FB1212AEEA4B60418A828B80
:104D480083E02402F8850A82850B83E028F0EA24B0
:104D580004F8EB3400F988828983E0851282851390
:104D6800831250A4125092122E078A828B83124B00
:104D780000E5082403FAE5093400FB024F70850AB0
:104D880082850B83E02404F07C047D007900AA125C
:104D9800AB13121B4802503BE50E450F6003024F50
:104DA800E112506FFEA3E0FF850A82850B8374042D
:104DB800F0EE850882850983F0EF851282851383DA
:104DC800F07403122BD0AC82AD83EEFAEFFB121213
:104DD800AE8A0C8B0DEA450D7003024E848A828BD5
:104DE80083A3A3123CB27401122BD085820E858353
:104DF8000F780E122E077405122BD0122E1E7CFF70
:104E08007DFF1212B47404122B9A8B0FEA450F70AF
:104E180033850C82850D83125047122E07850C822C
:104E2800850D83A3122E1E7C027D007A987B881242
:104E380010E07404122B9AE9700A7401122BD074D2
:104E4800FFF0A3F08E828F83E064027039750C0244
:104E5800750D00780C122E078E828F83124B00E599
:104E6800082404FAE5093400FB121B307402122BE3
:104E78009A850A82850B83E0240280097401122B2B
:104E8800D0EEF0A3EFF07401122BD0125058F0744A
:104E980001122BD0A3125050024FDBE50E450F60D4
:104EA80003024FE1850C82850D83124B01AA16ABD4
:104EB800171213EC850A82850B837402F0EA8508C1
:104EC80082850983F0851282851383EB024FDEE524
:104ED8000E450F6003024FE112506FF8A3E0F98509
:104EE8000A82850B837402F0E8850882850983F0BD
:104EF800E9851282851383024FDE850C82850D8336
:104F08001248A6121B2AEAFC8C82A882C3950EE4DA
:104F1800950F405FE8650E7002E50F70047C008015
:104F280022851882851983E0FAE50E2AFAE50F34FE
:104F380000FBC3EA98EB94005003E08005E50ECC33
:104F4800C39CFCEC850A82850B83F08C0A750B00E8
:104F5800780A122E07850C82850D83E0250EFCA3A6
:104F6800E0350FFDAA08AB09121B307402122B9A08
:104F780002503B75100702503BE50E450F705A85ED
:104F88000C82850D83125359850A82850B83740719
:104F9800123CBE125050123CBEA3E085128285130B
:104FA80083F0E82402FAE93400FB8A828B831250EA
:104FB8005012507F125058A3125088125061F0E8D6
:104FC8002405F8E93400F988828983125061A31214
:104FD80050A4A3A3A3A3F0805A75100B8055741D89
:104FE800122BD01248A61213808A828B83E5824541
:104FF80083603D125359880C890DE8450D6031785E
:105008000E122E07780A122E077808122E07740639
:10501800122BD0E0F9EEFCEFFDAA16AB17850C8237
:10502800850D83122BF27406122B9AE9F510800372
:1050380075100EA9107405122B9A7F10022CC6E069
:10504800F50E750F00780E22E08508828509832207
:105058001250AE2212535DE8221250AEA3A322E0F2
:10506800F508A3E0F50922850C82850D83E0F8A3F5
:10507800E0F5838882E022A3A3F08A828B83A322AF
:10508800F088828983A3A3A3A322F08A828B831248
:10509800509B22E0F50A750B00780A22F088828975
:1050A80083A31250AE22E0850882850983A3A32238
:1050B80074EE122BF474FE122B848A0A8B0BECFA12
:1050C800EDFB7414122BD0E0F510A3E0F511741663
:1050D800122BD0E0FE7418122BD0E0F50EA3E0F5E9
:1050E8000F851882851983AC82AD831212AE8A0CA3
:1050F8008B0DEA450D60498518828519831248A6EB
:105108001213808A828B83E5824583602FA3A312C2
:105118005067E50845096024780E122E07781012AA
:105128002E07EEF9AC0CAD0DAA0AAB0B85088285EB
:105138000983122BF27404122B9A8006790E8002CE
:10514800790102454074F6122BF474FE122B847414
:105158000C122BD012505C851882851983F07401CB
:10516800122BD0E9F0E4F508F5097808122E077536
:1051780008027808122E077404122BD0858208853D
:1051880083097808122E071213D47406122B9A7406
:1051980002122B9A806874F7122BF4EAFEEBFF894F
:1051A800087C197D031213ECEA5402600BA908EE7F
:1051B800FAEFFB1212A280027901023BBA74F612CE
:1051C8002BF474FF6A700374FF6B70168C828D83E6
:1051D80012520BE4F08C828D83A3A3A312520BA36B
:1051E80080181213BC8A088B09A808A909E8496025
:1051F8000D8882898374FF123CBCA3A3E4F07F026C
:10520800022CC674FFF0A3F08C828D83A3A32274B2
:10521800F6122BF41213BC8A828B83E582458360D5
:1052280006A3A3E0FA80027A007B0080D174F21210
:105238002BF48A088B09ECFEEDFF740E122BD0E0DC
:10524800F50A1213BC8A0C8B0DA80CA90DE849703D
:1052580026EEFCEFFD7AFF7BFF1213BC8A0C8B0D48
:10526800A80CA90DE84970047911801688828983F1
:10527800E508F0A3E509F088828983A3A3E50AF08D
:1052880079007F06022CC674EE122BF4EAFEEBFFBF
:105298008C088D09890C7414122BD012535974166A
:1052A800122BD01248A6750D00E849600302534D31
:1052B8007402650C60030253487412122BD0125307
:1052C80063FCA3E0F9EC2400F50EE439F50FEAF4E9
:1052D800F8EBF4F9EC58F8E50F59F9E849705CE592
:1052E800082406F8ED3400F9880A890B8882F583CA
:1052F80012536E1213EC8A108B11E50E65107004B0
:10530800E50F65116042780E122E07850A82850B1B
:105318008312536E1213F27402122B9AE9F50D7070
:1053280027780E122E07850882850983A3A31253B6
:105338006C12140A7402122B9A800D750D80800865
:10534800750D0D8003750D0BA90D024A058E828F10
:105358008312535D22E0F8A3E0F92212535D88829C
:105368008983E022A3A3E0FCA3E0FDEEFAEFFB2291
:1053780074E8122BF474E7122B848518828519833C
:10538800EAF0A3EBF08C168D17890E7508007509E5
:10539800007431122BD0E0F512A3E0F51374331228
:1053A8002BD0E0F514A3E0F5157435122BD0E0F5F9
:1053B8000FE50975F003A4F8A9F08518828519830B
:1053C8001254E2E0F47003A3E0F470030254C5EE53
:1053D8002402F50CEF1254D8E070030254C5851668
:1053E8000A85170B780A122E07AC14AD15AA12AB52
:1053F800131213747402122B9A8A0A8B0BEA450B48
:1054080070030254C5E4F510F5117810122E0774D4
:1054180006122BD08582108583117810122E0774FE
:1054280009122BD08582108583117810122E0785DA
:105438001282851383A3A3A3A3122E1E7914AC0A88
:10544800AD0B8E828F831248A61213CE7408122BCE
:105458009AE97069850A82850B83A3A3A3A31253D3
:10546800597402122BD0124B14850C82850D83E0DF
:10547800A2E05018A90E7402122BD0AC82AD838E14
:10548800828F831248A61212C6E94208850C8285CB
:105498000D83E0A2E15026E50FF50A780A122E0BDB
:1054A800A90E7403122BD0AC82AD838E828F831227
:1054B80048A61212C07401122B9AE942080509E5A0
:1054C80009C3940250030253B9A908741902503F42
:1054D8003400F50D850C82F58322E028FEA3E0391F
:1054E800FF8E828F832274F2122BF4EAFEEBFF897F
:1054F8000B7401650B600E7402650B706A790112FA
:1055080015CCE97062EEFAEFFB1213B68A088B0924
:10551800EA45096047750A00800B7C177D00790011
:10552800121B48050A9002E6E0F8E50AC3985021E4
:10553800E50A75F017A4F8A9F0850882850983A300
:10554800A3E028FAA3E039FB8A828B83123E0E700F
:10555800C985088285098374FFF0A3F07C197D034F
:10556800EEFAEFFB1213E602528A74F2122BF48A57
:10557800088B09ECFEEDFF740E122BD0124BEF9046
:105588000C4EE0F4603D7A097B00121B5AEA4B602E
:10559800328A828B8374B1F0A3E4125081A3125033
:1055A8007FA3E508F0A3E5091255CEEEF0A3EF12AC
:1055B80055CEA3A3E50AF0A3E50BF0900C4EE0F955
:1055C800121B6602528AF08A828B83A3A3A3A3A329
:1055D80022C082C0839061907404F0A37448F0A341
:1055E8007402F09061807440F09061BC7403F09094
:1055F80061877419F0906265741BF0906249E0C38A
:10560800941390619C400A7409F09060667401805C
:1056180007740DF0906066E4F090619A7433F0A31B
:105628007455F09061A0743AF090053FE064017001
:1056380009C2919003A6746780059003A67461F06F
:10564800903B76E493906186F0903B70E493F4602D
:1056580027E493540FF8906185E0686012E5C6541A
:10566800804449F5C6E59E547F644970F8E8F053D4
:10567800C680E59E547F70FA7905121914025807FE
:10568800C082C083E5A8F853A87E906181E4F0A3A6
:10569800F0A3F0C2BA539AFEC289759B00C2C275C4
:1056A800E90075910075BF0075A91175B90590617C
:1056B80081F0A374C0F0A3E4F0D2BA439A017480D5
:1056C8005842A8025807C082C08374F8122B8490ED
:1056D80003A4E0F8A3E0F9E84970030257FC90033B
:1056E800A4E0544060237908851882851983AA822A
:1056F800AB83121788851882851983AA82AB831217
:10570800147C9003A4E054BFF0E054806010790C3E
:105718007A657B051217889003A4E0547FF0E0A215
:10572800E0503190619A7433F0A37455F09061A001
:10573800743AF090053FE064017009C2919003A6A5
:10574800746780059003A67461F01214829003A414
:10575800E054FEF0E05402603190619A743FF0A387
:10576800745AF09061A0747FF090053FE064017076
:1057780009D2919003A6747180059003A6746AF00B
:105788001214829003A4E054FDF0E05404601390D6
:105798003B74E493906186F01214889003A4E0545B
:1057A800FBF0E054086013903B75E493906186F039
:1057B8001214889003A4E054F7F0E054106013909A
:1057C8003B76E493906186F01214889003A4E05429
:1057D800EFF0E05420600A1214889003A4E054DF2C
:1057E800F0A3E05401600D1216B012148E9003A5B8
:1057F800E054FEF07408122B9A025807F0A3F0D078
:1058080083D08202011F74EC122BF474F4122B84DF
:10581800851882851983AC82AD8375838875824823
:105828007404122A97903B7493F4600302599A9077
:105838007808E0C39402500302597A7404122BD0FA
:10584800AC82AD837583877582B37408122A9785F5
:1058580018828519838582128583137404122BD0CC
:10586800AC82AD83750EFF750FFF7FFF7E00750C50
:1058780048750D78801574086E700302590E740906
:105888006E700302590E740A6E607B850C82850D5A
:10589800837808122A3C8C828D83A909E50AC9F805
:1058A80088107418780812296AE5104508F8C3E0CA
:1058B80098A3E099850C82850D837808122A3C40CC
:1058C800188C828D837418780812296AE5104508A7
:1058D800F8E0C398F8A3E0801C7418780812296AC5
:1058E800E5104508FAE9FB8C828D83E0F8A3E0F91E
:1058F800EAC398F8EB99F9C3E8950EE9950F5006B5
:10590800880E890FEEFF0EE50C2404F50CE50D3426
:1059180000F50DEEC39413500302587E74FF650E14
:10592800700474FF650F60238F0874027808122BC7
:105938007174482508F58274783509F5837808125A
:105948002A3C851282851383E508F0EC2402FCEDDD
:105958003400FD851282851383A385821285831303
:10596800740C122BD0E5826C7003E5836D60030222
:10597800586C7508017509007808122E0774021210
:105988002BD0AC82AD837ADD7B0E121D947402128B
:105998002B9A740C122B9A7F0C022CC6C082C083DF
:1059A8009061AE7468F0A3746AF090624574FBF07D
:1059B800A304F053F4FD43FE0290053F7401F090F8
:1059C80061A0E0643A90619A70237433F0A374552F
:1059D800F09061A0743AF0740164017009C291906A
:1059E80003A6746780289003A674618021743FF031
:1059F800A3745AF09061A0747FF074016401700977
:105A0800D2919003A6747180059003A6746A025817
:105A1800067F08022CC6C082C0839004F1E06401AE
:105A2800700A9004F6E06004790C8002790002584C
:105A380007C082C08375E1F19004F4E0605B1460F4
:105A48000914605F14605714705E1216C29004EA5D
:105A5800E0F97AEB7B041218967AD67BBE7C897DB6
:105A68008E1218CC7A557B557C557D001218A29061
:105A780004F5E0F91218AE79011219089004E8E06B
:105A8800F8A3E0C82416F582E83400F58374DAF048
:105A9800A37416F079000258071216C880AF1216C0
:105AA800CE80AA1216D480A5791280EA74F0122B3F
:105AB800F475D90D9004D5E0A2E0E4331313F890FF
:105AC80004EAE0C4333354C0484401F5D978E8798E
:105AD8000488828983A3A3A3E0F5D988828983A354
:105AE800A882A983E864EE7003E9640470E378D5BA
:105AF800790488828983A3E0F5D988828983A3A859
:105B080082A983E864DB7003E9640470E575E195B4
:105B18009004D5E0F97AD67B0412189C900C707426
:105B280074F0A37416F0A374D0F0A37417F0A374E0
:105B3800D0F0A37417F0A374D0F0A37417F0A37473
:105B48007AF0A37416F0A374D0F0A37417F0A374BA
:105B580092F0A37416F0900C7E74D0F0A37417F032
:105B6800A374D0F0A37417F0A374D0F0A37417F043
:105B7800A374D0F0A37417F0A374D0F0A37417F033
:105B8800A374D0F0A37417F09004F4E064019004B7
:105B9800E87012E0F8A3E0F5838882A3A3750800F3
:105BA8007509088010E0F8A3E0F5838882A3A3753F
:105BB8000804750900750A00750B0078081229B5E4
:105BC800750CFF750DFF750EFF750F007808790CC1
:105BD800122A039004E8E0F8A3E0C8240EF582E84E
:105BE8003400F5837808122A4B9004E8E0F8A3E023
:105BF800C82414F582E83400F5837413F09003A2E6
:105C08007402F0025A1974F7122BF49004FAE02483
:105C180007F5D99004EAE0C4333354C0F5D978E8DD
:105C2800790488828983A3A3A3E0F5D9888289832C
:105C3800A3A882A983E864EE7003E9640470E39082
:105C480004FAE0601F78E87904FAE82413F582E999
:105C58003400F583E0F5D988828983A3A882A983D3
:105C68001AEA70E690051AE02407F5D99004EAE0EC
:105C7800C4333354C04404F5D978E8790488828958
:105C880083A3A3A3E0F5D988828983A3A882A983E3
:105C9800E864EE7003E9640470E390051AE0601F9D
:105CA80078E87904FAE82433F582E93400F583E0EA
:105CB800F5D988828983A3A882A9831AEA70E67530
:105CC800E195900C707480F0A37416F0A374D0F072
:105CD800A37417F0A374D0F0A37417F0A374D0F0D2
:105CE800A37417F0A3747AF0A37416F0A374D0F019
:105CF800A37417F0A37492F0A37416F0900C7E743A
:105D0800D0F0A37417F0A374D0F0A37417F0A374A1
:105D1800D0F0A37417F0A374D0F0A37417F0A37491
:105D2800D0F0A37417F0A374D0F0A37417F0900404
:105D3800E8E0F8A3E0C8240EF582E83400F583749F
:105D4800FFF0A3F0A3F0A3F09004E8E0F8A3E0C804
:105D58002414F582E83400F5837412F09003A274D9
:105D680001F0FF022CC674F7122BF49004FAE02419
:105D780007F5D99004EAE0C4333354C04402F5D996
:105D880078E8790488828983A3A3A3E0F5D9888277
:105D98008983A3A882A983E864EE7003E964047088
:105DA800E39004FAE0601F78E87904FAE82413F530
:105DB80082E93400F583E0F5D988828983A3A88233
:105DC800A9831AEA70E675E195900C70748CF0A3BB
:105DD8007416F0A3748CF0A37416F0A3748CF0A35B
:105DE8007416F0A3748CF0A37416F0A3748CF0A34B
:105DF8007416F0A3748CF0A37416F0A37492F0A335
:105E08007416F0900C7E74D0F0A37417F0A374D0BD
:105E1800F0A37417F0A374D0F0A37417F0A374D090
:105E2800F0A37417F0A374D0F0A37417F0A374D080
:105E3800F0A37417F09004E8E0F8A3E0C8240EF586
:105E480082E83400F58374FFF0A3F0A3F0A3F09088
:105E580004E8E0F8A3E0C82414F582E83400F583E8
:105E68007414F09003A27404F002613574F7122BD5
:105E7800F49004FAE02407F5D99004EAE0C4333337
:105E880054C04406F5D978E8790488828983A3A3A5
:105E9800A3E0F5D988828983A3A882A983E864EE60
:105EA8007003E9640470E39004FAE0601F78E8790D
:105EB80004FAE82413F582E93400F583E0F5D9887B
:105EC800828983A3A882A9831AEA70E690051AE05A
:105ED8002407F5D99004EAE0C4333354C04404F5E8
:105EE800D978E8790488828983A3A3A3E0F5D988BF
:105EF800828983A3A882A983E864EE7003E9640415
:105F080070E390051AE0601F78E87904FAE8243312
:105F1800F582E93400F583E0F5D988828983A3A85E
:105F280082A9831AEA70E675E195900C707486F080
:105F3800A37416F0A374D0F0A37417F0A374D0F070
:105F4800A37417F0A374D0F0A37417F0A374D0F05F
:105F5800A37417F0A374D0F0A37417F0A37492F08D
:105F6800A37416F0900C7E74D0F0A37417F0A37489
:105F7800D0F0A37417F0A374D0F0A37417F0A3742F
:105F8800D0F0A37417F0A374D0F0A37417F0A3741F
:105F9800D0F0A37417F09004E8E0F8A3E0C8240E4A
:105FA800F582E83400F58374FFF0A3F0A3F0A3F0C2
:105FB8009004E8E0F8A3E0C82414F582E83400F57A
:105FC800837415F09003A27403F0026135C082C097
:105FD800839004E8E0F8A3E0C82406F582E83400DA
:105FE800F583E402580474F7122BF49003D0E0F818
:105FF80075F003A4C8AAF02AF974D228F8740339F2
:10600800F9E82405FAE93400FB8A828B83E0FCA3D3
:10601800E0FD88828983A3A3A3A3A3A3A3A3A3ECDE
:10602800F0A3EDF088828983A3A3A3A3A3A3A3E08D
:1060380024FFF8A3E034FFF98A828B83E8F0A3E910
:10604800F002613574F7122BF4EAFEEBFF9061D091
:10605800E0600302612975D90E75D90375D904EE7C
:10606800248BF582EF3400F583E5822408F8E58374
:106078003400F9E0F5D9A3E865827003E965837017
:10608800F2EE2483F582EF3400F583E5822404F8E8
:10609800E5833400F9E0F5D9A3E865827003E96582
:1060A8008370F275E1957908EE248BFAEF3400FBE2
:1060B80012177C7904EE2483FAEF3400FB12177C64
:1060C8007C00EEF8EFF9ECFAC3E49AFA95E0FBEEFF
:1060D8002AFAEF3BFBEA248AF582EB3400F583E0E9
:1060E800C0E0E824AAF582E93400F583D0E0F00C9A
:1060F80088828983A3A882A983ECC3940840C7EE49
:10610800246FF582EF3400F583E0F8A3E0F9EE247C
:1061180071F582EF3400F583E8F0A3E9F0790180A6
:106128000279008008F0EEA2E092AF79007F0102C8
:106138002CC6C082C08375D90275D90375D9057577
:10614800E195EA246FF582EB3400F583E0F8A3E0EB
:10615800F9EA2471F582EB3400F583E8F0A3E9F05D
:10616800790102580774F6122BF4EAFEEBFF90054A
:10617800457406F07508457509057808122E077CE0
:106188000179031217C47402122B9A75D90675D9AE
:1061980003758245758305E0F5D9A3E582644A70E5
:1061A80004E583640570F075E1959003A2E0640846
:1061B800701EEE246FF582EF3400F583E0F8A3E05B
:1061C800F9EE2471F582EF3400F583E8F0A3E9F0E5
:1061D800790102643B74F6122BF4EAFEEBFF90613E
:1061E800D0E070667801900545740BF09003A2E04A
:1061F800640770197508457509057808122E077C1B
:106208000179031217C47402122B9A7805740128B5
:10621800F5D975D903758245758305E8FAE0F5D98E
:10622800A31AEA70F875E195EE246FF582EF340051
:10623800F583E0F8A3E0F9EE2471F582EF3400F578
:1062480083E8F0A3E9F079018002790002643B74E5
:10625800F7122BF4EAFEEBFF75D90375D90375D94C
:106268000DEE24DDF582EF3400F583E0F5D975E114
:106278009579041218D2EE246FF582EF3400F58375
:10628800E0F8A3E0F9EE2471F582EF3400F583E835
:10629800F0A3E9F0790102613574F6122BF4EAFEF5
:1062A800EBFF9061D0E0F87480C398FAEE2482F591
:1062B80082EF3400F583E06004780480027800E817
:1062C800240BF8EAC39850030263667D09900545DC
:1062D800EDF0EE24E2F8EF3400F97A467B057C080D
:1062E80088828983E08A828B83F088828983A3A845
:1062F80082A9838A828B83A3AA82AB831CEC70E079
:10630800EE2482F582EF3400F583E0601D750845C0
:106318007509057808122E077C097903EEFAEFFB58
:106328001217C47402122B9A7D0D74012DF5D975BC
:10633800D9037582457583058D08E0F5D9A315083D
:10634800E50870F675E19579041218D2EE241DF56A
:1063580082EF3400F583E4F0A3F07901800279003C
:1063680002643B74F6122BF4EAFEEBFF9061D0E076
:10637800F87480C398FAEE2482F582EF3400F5832E
:10638800E06004780480027800E82408F8EAC398FA
:1063980050030264397806900545740CF09003BFE9
:1063A800E0900546F09003C0E0900547F09003C1E7
:1063B800E0900548F09003C2E0900549F09003C3CF
:1063C800E090054AF0EE2482F582EF3400F583E090
:1063D800601B7508457509057808122E077C067933
:1063E80003EEFA1217C47402122B9A780A74012861
:1063F800F5D975D9037582457583058808E0F5D9FF
:10640800A31508E50870F675E19579041218D2EE1F
:10641800246FF582EF3400F583E0F8A3E0F9EE2469
:1064280071F582EF3400F583E8F0A3E9F079018093
:106438000279007F02022CC674F6122BF4EAFEEBF6
:10644800FF9061D0E0F87480C398FAEE2482F58258
:10645800EF3400F583E06004780480027800E824D3
:1064680004F8EAC398500302651A7802900545E8D3
:10647800F0EE24F4F582EF3400F583E0900546F061
:10648800EE2482F582EF3400F583E0601B75084541
:106498007509057808122E077C027903EEFA12179F
:1064A800C47402122B9A7806740128F5D975D90399
:1064B8007582457583058808E0F5D9A31508E508B0
:1064C80070F675E195EE2473F582EF3400F583E4F8
:1064D800F0EE247FF582EF3400F583E4F0EE241D1E
:1064E800F582EF3400F583E4F0A3F079041218D2B2
:1064F800EE240DF582EF3400F583E0F8A3E0F9EE21
:106508002471F582EF3400F583E8F0A3E9F079010E
:106518008002790002643B74F6122BF49061D0E09B
:10652800F87480C398FCEA2482F582EB3400F58382
:10653800E06004780480027800E82404F8ECC3984A
:10654800405B79029005457407F0EA24F5F582EB83
:106558003400F583E0900546F0EA2482F582EB34B6
:1065680000F583E060187508457509057808122E4E
:10657800077C02091217C47402122B9A7906740157
:1065880029F5D975D903758245758305E9F8E0F5CC
:10659800D9A318E870F875E19579018002790002AD
:1065A800643B74F5122BF4E9FCA2AFE433F50AC29C
:1065B800AF7D0080010DEA246EF582EB3400F5838F
:1065C800E0F8EDC398501A8D08EA2508F8EB340076
:1065D800F9E8246AF582E93400F583E06C70D68026
:1065E80024EA246EF8EB3400F9E0FEEA2EFAEB34E4
:1065F80000FBEA246AF582EB3400F583ECF088822C
:106608008983E004F0E50AA2E092AF7F03022CC67A
:1066180074F6122BF4A2AFE433FDC2AFEA246EF590
:1066280082EB3400F583E014F07C0060368C08EAD5
:106638002508F8EB3400F9E8246BF582E93400F515
:1066480083E0C0E0E8246AF582E93400F583D0E00D
:10665800F00CEA246EF582EB3400F583E0F8ECC325
