:020000040000FA
:1000000002071E020803FFFFFFFFFF02080BFFFFAE
:10001000FFFFFF020813FFFFFFFFFF02081BFFFFA8
:10002000FFFFFF020823FFFFFFFFFF02082BFFFF78
:10003000FFFFFF020833FFFFFFFFFF02083BFFFF48
:10004000FFFFFF020843FFFFFFFFFF02084BFFFF18
:10005000FFFFFF020853FFFFFFFFFF02085BFFFFE8
:10006000FFFFFF020863FFFFFFFFFF02086BFFFFB8
:10007000FFFFFF020873FFFFFFFFFF02087BFFFF88
:10008000FFFFFF020883FFFFFFFFFF02088B74F7EB
:100090001205DB74FC1206E4750804750900780883
:1000A00012070D74021207537A907B007901120433
:1000B000D7740212069C851C82851D83E0F8A3E09C
:1000C000F9E8496021851C82851D83E0F47003A353
:1000D000E0F460127402120749E0687003A3E0695B
:1000E0007004790180027900740412069C7F020278
:1000F000064174F51205DB74FF1206E48002E4F099
:100100007C017D00AA1CAB1D790012042D8B09EA2D
:1001100045097003020238900283E0600C14601BF2
:1001200014604014607F02022E851C82851D83E0CE
:1001300064FE70CC900283740180C4851C82851D8E
:1001400083E0C394FC90028350B47402F090028167
:10015000E4F0900280F0851C82851D83E0240390EA
:100160000282F0851C82851D83E0F8900280E068A1
:10017000F0851C82851D83E0C0E0900281E0F87468
:100180008128F582E43401F583D0E0F0900281E02B
:1001900004F0F8900282E06860030201009002839C
:1001A00074030200FFE4F0900280E0F8851C828571
:1001B0001D83E0686003020100900182E0541F6427
:1001C0000D6003020100120244750800900181E0F5
:1001D0002403F50A7E00601878807901FF888289FF
:1001E00083A3E0620888828983A3A882A983DFEDC4
:1001F000C008850A0874812508F582E43401F58376
:10020000D0E0F0900183E064837007A3E070030501
:100210000A0E90018074FEF0E50A2402FCE434002A
:10022000FD7A807B01790012044BEEF9800CC2AF9D
:1002300075C9AB75C95B80FE7900740112069C7F9D
:100240000402064174F51205DB74FC1206E4900109
:1002500085E0FA900184E0FB8B08EAF8E4C8F9EB4A
:1002600028E93402F5097F017E00900183E01460E3
:100270000F14603F14607E14700302039C02039B02
:10028000EBF8E5095401F9E8497011880A85090B72
:100290007409780A12072DA90A1205C4750A108E6E
:1002A0000B780A12070D7C867D01AA08AB0912059E
:1002B0005E803A7F43EA900186F0EB900185F0750D
:1002C0000A40880B780A12070D7C877D01EBF50A3E
:1002D000E5095401F50B7402780A1206FAAA0AAB72
:1002E0000B7409780812072DA9081204D77402129A
:1002F000069C02039C7508048809780812070D748F
:10030000021207537A907B0079011204D77402120B
:10031000069C7402120749E0F8A3E0F9851C828567
:100320001D83E0687003A3E0696053851C82851D0E
:1003300083E0F8A3E0F97402120749E8F0A3E9F0BA
:10034000851C82851D8374FFF0A3F08F0878081246
:10035000070D74021207537A247B0212055E7402A1
:1003600012069C750804780812070D7402120753D0
:100370007A907B0079011204D7740212069C851CC6
:1003800082851D83E0F8A3E0F97402120749E06852
:100390007003A3E06960057E0780010EEF90018184
:1003A000F0900183E0D2E7F0EEA3F0740402023C87
:1003B00074F81205DB75080075868075C48053F1EA
:1003C000FE43F30C53FF3F85FFFF75C2D875C50B85
:1003D00075C4027586C0803BE586A2E1502953862C
:1003E000FD90028CE0F890028EE028FAA3E0340041
:1003F0008A82F583E0F5C190028CE004F008900257
:100400008DE0687002E4F0E586A2E250061200F288
:10041000E9420890028DE070BFE50860EAE586A237
:10042000E040E4C2AF75C9AB75C95B80FEC082C055
:1004300083E586A2E2500BE5C18A828B83F07A01C4
:1004400080027A007B00D083D08222C082C0839059
:10045000028EEAF0A3EBF0EC90028DF090028C7427
:1004600001F05386FD8A828B83E0F5C1ECFAEDFB47
:1004700080D453BEFBE59DA2E650FAE5C654804405
:1004800049F5C6E59E547F644970F853C67FE59EE2
:10049000A2E740FA53C680E59E547F70FA43BE043B
:1004A0009062707408F07402F5D575D48412008ED1
:1004B000E96401700D020800C2AF75C9AB75C95B74
:1004C00080FE794E1206B7E960F81203B0C2AF752C
:1004D000C9AB75C95B80FE74F51205DB8908740F22
:1004E0005508F50A750B00740B780A1206FAEA240F
:1004F00000F8EB3480F9E82400E9350BF9E5C7F59D
:1005000009A2AFE433F50AC2AFE508C4540FFAE517
:10051000C754F84AF5C7740B120749E0FEA3E0FF81
:10052000EE4F602CEEFAEFFB88828983E08C828D9F
:1005300083F088828983A3A882A9838C828D83A378
:10054000AC82AD83EA24FF1AEB34FFFBEA4B70D890
:100550008509C7E50AA2E092AF7F0402064174F75D
:100560001205DBED900284F0ECA3F0A37462F0A31B
:100570007473F0A3E0541FF07409120749E0F50802
:10058000A3E0F509E508333354FC900289F07406C2
:10059000780812072DE508900288F090028A7412FC
:1005A000F0A37442F053D1FE75D601EA906271F067
:1005B000EBA3F0906270E0D2E1F0E0A2E740FB7FB5
:1005C00002020641C082C083E9C333906272F09098
:1005D0006270E0D2E0F0D083D08222251CC582C0B8
:1005E000E0E51D34FFC583C0E0E51CC3958224F916
:1005F00010AF0885831D85821C800885831D858238
:100600001CD2AFCEF0A3E520F0A37808E608F0A353
:10061000DEFAEFF0A3E58124FBF8E608F0A3E60894
:10062000F0A30808E608F0A3E608F0A315811581F9
:10063000D0E0FED0E0F815811581E8C0E0EEC0E022
:1006400022851D83851C82E0A3FEE0A3F5207808A7
:10065000E0A3F608DFFAE0A3FFE0A3C0E0E0A3C058
:10066000E0E0A3C0E0E0A3C0E010AF0885821C85F5
:10067000831D800885821C85831DD2AFD083D082E4
:1006800022251CF58210AF08F51C400C151D8008B2
:10069000F51C4002151DD2AF851D832200C0D02558
:1006A0001C10AF08F51C500C051D8008F51C5002ED
:1006B000051DD2AFD0D022E9F875B60FE5B4A2E798
:1006C00050FAE8C395BB5003790122790022E490E7
:1006D0000180781179028002F0A3D8FCD9FA1204C3
:1006E0007212075B251C10AF08F51C400C151D800D
:1006F00008F51C4002151DD2AF22700422600D18AF
:10070000C6C333C608C633C6D5E0F41822740280C7
:1007100000C0E0F404120681D0E012073C2275D03C
:100720000075813F751C80751D010206CE600C08A6
:10073000C6C313C618C613C6D5E0F422CAC0E0E685
:10074000F0A308DAFAD0E0FA22251CF582E4351D80
:10075000F58322251CFCE4351DFD2200000080FBF2
:10076000FFFFFFFFFFFFFFFFFFFFFFFFFFFFFFFF99
:10077000FFFFFFFFFFFFFFFFFFFFFFFFFFFFFFFF89
:10078000FFFFFFFFFFFFFFFFFFFFFFFFFFFFFFFF79
:10079000FFFFFFFFFFFFFFFFFFFFFFFFFFFFFFFF69
:1007A000FFFFFFFFFFFFFFFFFFFFFFFFFFFFFFFF59
:1007B000FFFFFFFFFFFFFFFFFFFFFFFFFFFFFFFF49
:1007C000FFFFFFFFFFFFFFFFFFFFFFFFFFFFFFFF39
:1007D000FFFFFFFFFFFFFFFFFFFFFFFFFFFFFFFF29
:1007E000FFFFFFFFFFFFFFFFFFFFFFFFFFFFFFFF19
:1007F000FFFFFFFFFFFFFFFFFFFFFFFFFFFFFFFF09
:040000050000071ED2
:00000001FF
