:020000040000FA
:10000000020236021E37FFFFFFFFFFFFFFFFFFFF69
:10001000FFFFFF02239FFFFFFFFFFFFFFFFFFFFF29
:10002000FFFFFFFFFFFFFFFFFFFFFF02237BFFFF3D
:10003000FFFFFFFFFFFFFFFFFFFFFF022404FFFFA3
:10004000FFFFFFFFFFFFFFFFFFFFFFFFFFFFFFFFC0
:10005000FFFFFF021EAAFFFFFFFFFFFFFFFFFFFFE3
:10006000FFFFFFFFFFFFFFFFFFFFFFFFFFFFFFFFA0
:10007000FFFFFFFFFFFFFFFFFFFFFF02246DFFFFFA
:10008000FFFFFF021CA3011D262F2659262326FF52
:100090000000B4000028002800283075A000A0004F
:1000A000A000A00000080008E001F000100010000F
:1000B0001000100010001000500050005000100000
:1000C0001000D0070000000000000F000100050034
:1000D000307507001000010081FF00000000FF02E2
:1000E0000202C38A010000B18A02BD8A0100003AFF
:1000F0001202B98A010000B10202BD8A0100003B70
:100100001202BF8A010000C702FFFF0100FF2002A8
:10011000C38A010000B48A02BD8A0100006912028C
:10012000C98A000000000002BB8A030000A40391FA
:100130002D912D912D912D912D912D912D912D91CF
:100140002D912D912D912D912D772F952F712FFF81
:10015000FF01000100020002000200020002000292
:100160000001000200020002000200020002000181
:100170000001E803053F10020AE803E803E803F47E
:1001800001F401F4011E001E001E0005000500051B
:100190000002FA000100FF00FF0F0100004B00FE0B
:1001A000FF01E5C754F84401F5C7790122000000BA
:1001B00080FB1201A2B90003020220E4791B78023D
:1001C000B800028004F709D8FCE4791D7802B80071
:1001D000028004F709D8FCE49002807863791080EB
:1001E00002F0A3D8FCD9FA781A9000867A01BA00F6
:1001F000028007E493A3F608DAF97AE27B11900013
:1002000087781C79028015E493A3AD82AE838A823D
:100210008B83F0A3AA82AB838D828E83D8E9D9E742
:100220007582BE7583A374041202487582AD75830E
:1002300001740012024875D00075812F7518807501
:100240001902759F000201B2C09FF59FE473D09F11
:1002500022D083D082C09FE493C0E0740193C0E0B9
:10026000740293F59F22FFFFFFFFFFFFFFFFFFFFD9
:10027000FFFFFFFFFFFFFFFFFFFFFFFFFFFFFFFF8E
:10028000FFFFFFFFFFFFFFFFFFFFFFFFFFFFFFFF7E
:10029000FFFFFFFFFFFFFFFFFFFFFFFFFFFFFFFF6E
:1002A000FFFFFFFFFFFFFFFFFFFFFFFFFFFFFFFF5E
:100890004004FFFFFFFFFFFFFFFFFFFFFFFFFFFF22
:1008A000FFFFFFFFFFFFFFFFFFFFFFFFFFFFFFFF58
:1008B000FFFFFFFFFFFFFFFFFFFFFFFFFFFFFFFF48
:1008C000FFFFFFFFFFFFFFFFFFFFFFFFFFFFFFFF38
:1008D000FFFFFFFFFFFFFFFFFFFFFFFFFFFFFFFF28
:1008E000FFFFFFFFFFFFFFFFFFFFFFFFFFFFFFFF18
:1008F000FFFFFFFFFFFFFFFFFFFFFFFFFFFFFFFF08
:100900001201FFFFFFFFFFFFFFFFFFFFFFFFFFFFE2
:10091000FFFFFFFFFFFFFFFFFFFFFFFFFFFFFFFFE7
:10092000FFFFFFFFFFFFFFFFFFFFFFFFFFFFFFFFD7
:10093000FFFFFFFFFFFFFFFFFFFFFFFFFFFFFFFFC7
:10094000FFFFFFFFFFFFFFFFFFFFFFFFFFFFFFFFB7
:10095000FFFFFFFFFFFFFFFFFFFFFFFFFFFFFFFFA7
:10096000FFFFFFFFFFFFFFFFFFFFFFFFFFFFFFFF97
:10097000FFFFFFFFFFFFFFFFFFFFFFFFFFFFFFFF87
:10098000FFFFFFFFFFFFFFFFFFFFFFFFFFFFFFFF77
:10099000FFFFFFFFFFFFFFFFFFFFFFFFFFFFFFFF67
:1009A000FFFFFFFFFFFFFFFFFFFFFFFFFFFFFFFF57
:1009B000FFFFFFFFFFFFFFFFFFFFFFFFFFFFFFFF47
:1009C000FFFFFFFFFFFFFFFFFFFFFFFFFFFFFFFF37
:1009D000FFFFFFFFFFFFFFFFFFFFFFFFFFFFFFFF27
:1009E000FFFFFFFFFFFFFFFFFFFFFFFFFFFFFFFF17
:1009F000FFFFFFFFFFFFFFFFFFFFFFFFFFFFFFFF07
:100A0000AA55FFFFFFFFFFFFFFFFFFFFFFFFFFFFF5
:100A1000FFFFFFFFFFFFFFFFFFFFFFFFFFFFFFFFE6
:100A2000FFFFFFFFFFFFFFFFFFFFFFFFFFFFFFFFD6
:100A3000FFFFFFFFFFFFFFFFFFFFFFFFFFFFFFFFC6
:100A4000FFFFFFFFFFFFFFFFFFFFFFFFFFFFFFFFB6
:1010000001BEE76670100809E766700A0809E7661E
:1010100070040809E76622E066701008A3E06670B5
:101020000A08A3E066700408A3E06622C008C3E0D3
:1010300096F50808A3E096420808A3E0964208083F
:10104000A3E0964208A2D265D033E5087001D3D060
:101050000822C3E7960809E7960809E7960809E712
:101060009622C3E09608A3E09608A3E09608A3E0C2
:101070009622C008C3E096F50808A3E09642080847
:10108000A3E096420808A3E09645087001D3D00873
:1010900022080808EAC0E0EBC0E086F0E7A4FA18EE
:1010A0000986F0E7A42AFA180986F0E7A42AFA18B4
:1010B0000986F0E7A42AFA1986F0E7A4FBE5F02AEE
:1010C000FA190886F0E7A42BFBE5F03AFA1908862E
:1010D000F0E7A42BFBE5F03AFA18180986F0E7A42C
:1010E000C5F02BFBE43AFA1908E7C5F0C6A426F6CA
:1010F000E5F03BFBE43AFA1886F0E7A4F6E5F008E1
:1011000026F6E43B08F6E43A08F6D0E0FBD0E0FA35
:1011100022E4CFC0E0E4CEC0E0E4CDC0E0E4CCC047
:10112000E075F020E626F608E633F608E633F60822
:10113000E633F6181818EC33FCED33FDEE33FEEF12
:1011400033FFC3EC9709ED9709EE9709EF9719194B
:1011500019400FFFEC97FC09ED97FD09EE97FE197A
:101160001906D5F0BFECF709EDF709EEF709EFF72F
:10117000191919D0E0FCD0E0FDD0E0FED0E0FF224C
:101180001211E81818181211111211D71919192271
:101190001211D7191919080808E618181820E7E0DD
:1011A0001211111211E818181822090909E7191962
:1011B0001920E7DC080808E618181820E7030211D0
:1011C000111211E81818181211111211E818181834
:1011D0001211D719191922E4C397F709E497F709EF
:1011E000E497F709E497F722E4C396F608E496F645
:1011F00008E496F608E496F6226017080808C6A2E6
:10120000E713C618C613C618C613C618C613C6D524
:10121000E0E9226016080808C6C313C618C613C63C
:1012200018C613C618C613C6D5E0EA227009080806
:1012300008226016181818C6C333C608C633C60875
:10124000C633C608C633C6D5E0EA22E627F6080943
:10125000E637F60809E637F60809E637F622E0260B
:10126000F608A3E036F608A3E036F608A3E036F663
:1012700022E026F008A3E036F008A3E036F008A349
:10128000E036F022C3E697F60809E697F60809E685
:1012900097F60809E697F622C3E0C696F608A3E09B
:1012A000C696F608A3E0C696F608A3E0C696F62210
:1012B000C3E096F008A3E096F008A3E096F008A338
:1012C000E096F022E657F60809E657F60809E657D1
:1012D000F60809E657F622E056F608A3E056F608A7
:1012E000A3E056F608A3E056F622E056F008A3E085
:1012F00056F008A3E056F008A3E056F022E667F6A1
:101300000809E667F60809E667F60809E667F622BF
:10131000E0F608A3E0F608A3E0F608A3E0F622E66C
:10132000F008A3E6F008A3E6F008A3E6F022E0FA4E
:10133000A3E0FBA3E0FCA3E0FD22EAF0A3EBF0A313
:10134000ECF0A3EDF022E0F8A3E0F9A3E0FAA3E0CB
:10135000FB22E8F0A3E9F0A3EAF0A3EBF022CAC075
:10136000E0E6F0A308DAFAD0E0FA22CAC0E0E0A38F
:10137000C582CCC582C583CDC583F0A3C582CCC54B
:1013800082C583CDC583DAE6D0E0CA22C3E498F8EB
:10139000E499F91213CD8026C3E49AFAE49BFBE9A1
:1013A00020E7E91213CDE498F8E499F922C3E49810
:1013B000F8E499F91213CDE498F8E499F9C3E49AA2
:1013C000FAE49BFB22EB20E7CFE920E7E0B900102D
:1013D000BB0008E88AF084F8AAF022E4FBC8FA22ED
:1013E000EB70227B10C833C8C933C9335007C39A86
:1013F000C3DBF280069A50012ADBEAC833F4C8C97D
:1014000033F4C9FA2275F008E4C833C8C933C933C4
:10141000C99AC99B5004C92AC93BD5F0ECFBC83313
:10142000F4C8E4C9FA22600D08C6A2E713C618C6BC
:1014300013C6D5E0F322600C08C6C313C618C61342
:10144000C6D5E0F422700422600D18C6C333C60866
:10145000C633C6D5E0F41822251810AF08F5184099
:101460000C15198008F51840021519D2AF2200C0DA
:10147000D0251810AF08F518500C05198008F5187C
:1014800050020519D2AFD0D0222518F58210AF082E
:10149000F518400C15198008F51840021519D2AF3F
:1014A000851983222518F582E43519F5832225183C
:1014B000F8E43519F9222518FAE43519FB22251824
:1014C000FCE43519FD22E4732518C582C0E0E51956
:1014D00034FFC583C0E0E518C3958224F810AF0837
:1014E0008583198582188008858319858218D2AF73
:1014F000CEF0A3E520F0A37808E608F0A3DEFAEF2B
:10150000F0A3E58124FAF8E608F0A3E608F0A3E6E4
:1015100008F0A30808E608F0A3E608F0A315811573
:1015200081D0E0FED0E0F8158115811581E8C0E09A
:10153000EEC0E0222518C582C0E0E51934FFC5835E
:10154000C0E0E518C3958224F910AF08858319859A
:1015500082188008858319858218D2AFCEF0A3E562
:1015600020F0A37808E608F0A3DEFAEFF0A3E58107
:1015700024FBF8E608F0A3E608F0A30808E608F064
:10158000A3E608F0A315811581D0E0FED0E0F815A0
:10159000811581E8C0E0EEC0E022851983851882BC
:1015A000E0A3FEE0A3F5207808E0A3F608DFFAE068
:1015B000A3FFE0A3C0E0E0A3C0E0E0A3C0E0E0A39D
:1015C000C0E0E0A3C0E010AF0885821885831980D1
:1015D00008858218858319D2AFD083D08202024E4B
:1015E000851983851882E0A3FEE0A3F5207808E042
:1015F000A3F608DFFAE0A3FFE0A3C0E0E0A3C0E0A9
:10160000E0A3C0E0E0A3C0E010AF088582188583A6
:10161000198008858218858319D2AFD083D08222A1
:1016200074048006740280027401C0E0F404121491
:1016300089D0E012135E227404800474028000CC0E
:10164000C0E0EDC0E0E518C39CCCAD1950011D1001
:10165000AF068C188D1980068C188D19D2AF121315
:101660006BD0E0FDD0E0FC22D083D082E9C0E0E482
:1016700093A3C386F0C5F095F0F908E493A386F030
:10168000C5F095F0700BE493A3C3994005E904807D
:1016900002A3E475F002A42582F582E5F03583F516
:1016A00083D0E0F9E493A3C0E0E493C0E022D083C8
:1016B000D082ECC0E0EDC0E0E493A3FCE493A3FD92
:1016C000ED4C600D1216FAEC24FFFCED34FFFD80AA
:1016D000EFE493A3FCE493A3FDED4C600D121739E6
:1016E000EC24FFFCED34FFFD80EFD0E0FDD0E0FC0A
:1016F000E493A3C0E0E493C0E022C0E0C3E4939687
:10170000087401939618400FE493667008087401FA
:1017100093661870007019A3A3C3E493960874012C
:10172000939618A3A3400DD0E0D0E0D0E00216EAD3
:10173000A3A3A3A3A3A3D0E022C0E0C0F088F0E459
:10174000936670080874019366187000A8F0A3A34C
:10175000700BD0F0D0E0D0E0D0E00216EAA3A3D026
:10176000F0D0E02274F5121534EAFEEBFFEE2434DB
:10177000F8EF3400F988088909EE2435F582EF3452
:1017800000F583E0F8EE2437F582EF3400F583E0CE
:10179000F50AEC850AF0A4FCAAF0850AF0EDA42A6B
:1017A000FDE82CF8E43DF97A257B001213CDEA859B
:1017B0000882850983F0F8740758F97401B90002AA
:1017C0008004C333D9FCFAE8131313541FF8EE282E
:1017D000F8EF3400F9E8245DF582E93400F583E0A0
:1017E0005A6008EE2434F582EF802CEE2434F58222
:1017F000EF3400F583E0C0E0EE2436F582EF3400EC
:10180000F583E0F5F0D0E084A8F0EE28F8EF34009E
:10181000F9E82438F582E93400F583E0F97F040221
:1018200015E074F5121534EAFEEBFFEE2434F58270
:10183000EF3400F583E0C0E0EE2435F582EF3400AC
:10184000F583D0E0F08E828F83A3A3A3A3A3A3A3E9
:10185000C082C0838E828F83A3A3A3A3A3E0F8A337
:10186000E0F9D083D082E0C398F508A3E099F509A8
:10187000EE247FF582EF3400F583E064017069EEB9
:101880002480F582EF3400F583E0F8A3E0F98E823E
:101890008F83A3A3A3A3A3A3A3E0FCA3E0FD8E8255
:1018A0008F83A3A3A3A3A3E0FAA3E0FBC3EA9CEB6B
:1018B0009D5010C3EC98ED99402EC3EA98EB9950D7
:1018C00027800EC3EA98EB994007C3EC98ED994046
:1018D000177CBE7D07EEFAEFFB122CD7EE247FF5C6
:1018E00082EF3400F583E4F0EE2434F8EF3400F9AD
:1018F000E8FCE9FDEE2435F582EF3400F583E0F8ED
:10190000EE2437F582EF3400F583E0F50AE508852B
:101910000AF0A4F508AAF0850AF0E509A42AF50959
:10192000E82508F8E43509F97A257B001213CDEA99
:101930008C828D83F0F8740758F97401B900028025
:1019400004C333D9FCFAE8131313541FF8EE28F834
:10195000EF3400F9E8245DF582E93400F583E05ABC
:101960006008EE2434F582EF802CEE2434F582EF0B
:101970003400F583E0C0E0EE2436F582EF3400F564
:1019800083E0F5F0D0E084A8F0EE28F8EF3400F919
:10199000E82438F582E93400F583E0F91223670280
:1019A000181D74EF121534900478E064086005E0A7
:1019B0006407702A9061C8E060249004A6E0F46097
:1019C0001DE0F875F005A4C8AAF02AF974A828FE4D
:1019D000740439FF8E828F83A3A3A3E07003021ADD
:1019E000D2906060E0C0E0EE2468F582EF3400F54C
:1019F00083D0E0F0750CFA750D07750800750900C5
:101A0000E5D914F50AE5D95403F50E60177403659A
:101A10000E605CE50A6010EE2467F582EF3400F595
:101A200083E07003021AB79007F5E06401602AEEC4
:101A30002482F582EF3400F583E0600478048002AC
:101A40007800850A08E508C398FA95E0FB122BB7E1
:101A50008A088B09EA45097005122F4D8074EE241F
:101A600082F582EF3400F583E070048A0C8B0DE57B
:101A70000A6012850C82850D83F50BE5D9F0A3155C
:101A80000BE50B70F6EE2482F582EF3400F583E06F
:101A9000604474FC250AF50A780C121624AC0AA9D5
:101AA0000EEEFAEFFB122D8B740212146EE9702603
:101AB000AA08AB09123643793D8E828F83A3A3A374
:101AC000A3E0FA7B00122A9DEEFAEFFB122CFB1228
:101AD0002DEB790080747403650E6056850A1075CD
:101AE00011007810121624AC0CAD0DAA08AB091227
:101AF0002D67740212146EEE2468F582EF3400F53F
:101B000083E064807004747F8001E0F50C780C122F
:101B10001628E50EF50C780C121628A90AAC08ADAB
:101B2000099004A6E0FA7B00122A5B740212146E7C
:101B30008013900478E06408700BAC0CAD0DEEFAE5
:101B4000EFFB122DBB122F5979017F0A0215E074A9
:101B5000F512153474FC121458EAFEEBFF8908A242
:101B6000AFE433F509C2AF806AEE2463F8EF3400C6
:101B7000F97A007B00A2AFE433F50AC2AF8882890C
:101B800083E0FCA3E0FDEC4D603A88828983E0FAB3
:101B9000A3E0FB8A828B83E0FCA3E0FD888289833B
:101BA000ECF0A3EDF08A828B83E4F0A3F0888289C5
:101BB00083E0FCA3E0FDEC4D700A88828983A3A337
:101BC000E4F0A3F0E50AA2E092AF1236439007C515
:101BD000E004F0EE2463F582EF3400F583E0F8A32F
:101BE000E0F9E849603DEE2463F582EF3400F583C7
:101BF000E02402FAA3E03400FBEA2402F50AEB3405
:101C000000F50B780A1216248A828B83E0FCA3E08D
:101C1000F9EEFAEFFB122D2B740212146EE9700329
:101C2000021B699007C5E060639007C6E0F8900763
:101C3000C5E0C398500C7402650870509007C7E067
:101C4000604A8E828F83A3A3A3A3E085188285199F
:101C500083F0A3E4F09007C5E0F874021214A4E83E
:101C6000F0A3E4F09007C5E0F89007C4E028F07412
:101C7000021214A4AC82AD83851882851983AA82CE
:101C8000AB837901122A679007C5E4F0E509A2E069
:101C900092AF740412146E02181DFFFF851B878516
:101CA0001CC622C0E0C0D0E8C0E0E9C0E0EAC0E065
:101CB000EBC0E0ECC0E0EDC0E0EEC0E0C008C00961
:101CC000C00AC00BC082C083C0F0A2AFE433FEC222
:101CD000AF759B00906182E0A2E05012E591A2E016
:101CE000500C7591FE7401651B70031219A2E0A2DD
:101CF000E55051E591A2E5504B7591DF900478E0F5
:101D000064076005E0640870237401651B70357911
:101D1000019004A6E0FA75F005A4CAA8F028FB74A7
:101D2000A82AFA74043BFB121B4F8018E0640D7064
:101D30001390049AE004F064287002E4F07A00E062
:101D4000F9122F5F906182E0A2E64003021DEAE5EE
:101D500091A2E64003021DEA7591BF900478E06409
:101D6000057008122E63122E6F8003122E69751BE8
:101D700000122ECFE9900479F07900122EB1122CC6
:101D8000477A017B00900477E0F91231B79078032D
:101D9000E0644270559007F9E014F0704DC2AF1244
:101DA0001DA200781ED0E0F618D0E0F6E59F54079B
:101DB00070057509FF800375097FC4C0E0781DE6D2
:101DC000F50808E65509F509740B7808121436D0A1
:101DD000E02508F8906270E0A2E740F8E8C333908D
:101DE0006272F0906270E0D2E0F0906181E0A2E374
:101DF0005009E5E9A2E3500375E9F7A3E0A2E75033
:101E000009E591A2E7500375917FEEA2E092AFD071
:101E1000F0D083D082D00BD00AD009D008D0E0FE19
:101E2000D0E0FDD0E0FCD0E0FBD0E0FAD0E0F9D08B
:101E3000E0F8D0D0D0E032C0E0C0D0C082C0839003
:101E40006183E0A2E05009E5BFA2E0500375BFFE48
:101E5000E0A2E15009E5BFA2E1500375BFFDE0A299
:101E6000E25009E5BFA2E2500375BFFBE0A2E350D8
:101E700009E5BFA2E3500375BFF7E0A2E45009E50E
:101E8000BFA2E4500375BFEFE0A2E55009E5BFA291
:101E9000E5500375BFDFE0A2E65009E5BFA2E650BA
:101EA0000375BFBFD083D0828088C0E0C0D0E8C0B7
:101EB000E0E9C0E0EAC0E0EBC0E0ECC0E0EDC0E08B
:101EC000C0F0E5A7A2E6500FE5A1A2E6500953A78E
:101ED000BF75A1BF121F0FE5A7A2E5500CE5A1A297
:101EE000E5500653A7DF75A1DFE5A7A2E15009E59C
:101EF000A1A2E1500375A1FDE5A7A2E2500CE5A166
:101F0000A2E2500653A7FB75A1FBD0F0021E20747D
:101F1000F8121534751B01900478E06406701512F0
:101F20002E0F8A828B83A3A3A3A3A3A3E0FAA3E02B
:101F3000FB122E51A2AFE433FED2AF90047EE064D8
:101F40000170187A207B00900477E0F91232417A10
:101F5000207B00900477E0F91231BD906182E0D2DD
:101F6000E6F09007F6E0602185C61C801690047D9F
:101F7000E064017008E5C654F84405F5C653BEFC9C
:101F8000121C9C7401651B60E4EEA2E092AF7F011D
:101F90000215E074E912153474F812145885188289
:101FA000851983ECF0A3EDF08A088B09900478E0A2
:101FB00024F7C39405500675080102212A122E0F3A
:101FC0008A0A8B0BAE0AAF0BEE4F7003022127ACCF
:101FD00008AD0974021214A4AA82AB83122E818E5A
:101FE000828F83A3A3750CFF750DFF750EFF750F10
:101FF00000780C1212D774021214A47510FF751118
:10200000FF7512FF75130078101212D7780C791033
:10201000121052502A780C7910121284750801752A
:1020200009C8750A00750B007808790C1210525017
:1020300052850C08850D09850E0A850F0B80507599
:1020400014017515C87516007517008510088511DF
:102050000985120A85130B7808790C1212847814FA
:102060007908121052401C750800750900750A00A5
:10207000750B01780879101212847808790C121205
:102080004B800C750801750900750A00750B00740A
:1020900009780812122C750C19F50DF50EF50F784C
:1020A00008790C1211118E828F83A3A3A3A3A3A37B
:1020B000E0F8A3E0F97AD07B031213CD880C890DE8
:1020C000E4F50EF50F7808790C12124B7406121411
:1020D000A4E0F8A3E0F97AD07B031213CDE8FA8AE2
:1020E0000CE4F50D7808790C121052500778087935
:1020F0000C121284900478E06408600AE0640660C0
:1021000005E06405702D750C0D780C7908121052DD
:102110004021750CF4750DFF750EFF750FFF7808E3
:10212000790C12124B800C750800750900750A00B5
:10213000750B00851882851983E0F8A3E0F5838884
:1021400082780812131F740812146E7F100215E0B3
:1021500074F7121534122E939007F4E06401701096
:10216000906245E4F0A3F053F4F343FE0C5390F374
:10217000122E3FE5C654804449F5C6E59E547F645F
:102180004970F8906185740FF09007F2E0F47002E6
:10219000A3E0604E9007F3E0600814601B14602E0B
:1021A00080407508017509009007F2E07808121464
:1021B00045E508F45280802A7508017509009007EA
:1021C000F2E07808121445E508F45290801475087E
:1021D000017509009007F2E07808121445E508F44B
:1021E00052A079007F020215E074F7121534E9FE5F
:1021F000EAFF74016E700C7A807B00900477E0F93E
:102200001231B79037F4E493F46008E493F9122C98
:102210003B800953C680E59E547F70FA122E45908C
:1022200007F4E064017003122C539007F2E0F4709D
:1022300002A3E0604B9007F3E0600814601A14609A
:102240002C803D7508017509009007F2E0780812AE
:102250001445E5084280802875080175090090073B
:10226000F2E07808121445E50842908013750801E1
:102270007509009007F2E07808121445E50842A0BD
:10228000122E93122E0F8A088B09A808A909E84973
:102290006015E5E170FCE82414F582E93400F5836B
:1022A000E0F46003E0F5E174016F700A7A019004D4
:1022B00077E0F91232110221E474ED1215348A0824
:1022C0008B098C0A8D0B74131214A4780C12131042
:1022D0007808790C1210527510017511C87512002A
:1022E00075130050127808790C121284781079084E
:1022F00012105250168010780C790812128478103F
:10230000790C12105240047901800279007F0C028E
:1023100015E074ED1215348A088B098C0A8D0B7444
:10232000131214A4780C121310780C79081210529E
:1023300040117808790C121284AA08AB09AC0AADD6
:102340000B8022751000751100751200751301784D
:1023500010790C1212847810790812124BAA10AB63
:1023600011AC12AD1380A6C082C083E9906000F06A
:10237000D083D08222C2AF02000022C0E0C0D0E8E9
:10238000C0E0E9C0E0A2AFE433D2AFC2C7751A0023
:10239000A2E092AFD0E0F9D0E0F8D0D0D0E032C0E7
:1023A000E0C0D0E8C0E0E9C0E0EAC0E0C082C0839D
:1023B000A2AFE433FAD2AFE5C1C0E090101FE0F85D
:1023C000749E28F582E4340FF583D0E0F090101E5F
:1023D000E0F8A3E0687006E595901021F090101FDA
:1023E000E004F0C394804002E4F0A3E4F0EAA2E049
:1023F00092AFD083D082D0E0FAD0E0F9D0E0F8D02C
:10240000D0D0E032C0E0C0D0E8C0E0E9C0E0C00811
:10241000C009C082C083A2AFE433F9D2AF9010A24A
:10242000E0F8A3E0687008539AFBA374018025C20A
:10243000E99010A2E0F50874012508F0742225083F
:10244000F582E43410F583E0F5C19010A2E0C39466
:10245000804002E4F0E9A2E092AFD083D082D009BC
:10246000D008D0E0F9D0E0F8D0D0D0E032C0E0C061
:10247000D0E8C0E0E9C0E0A2AFE433D2AF758A0093
:10248000C2EBA2E092AFD0E0F9D0E0F8D0D0D0E03B
:1024900032120251919904120251A7990412025169
:1024A000D699041202510C9A04120251239A041272
:1024B00002513A9A04120251719A04120251C49ABA
:1024C00004120251DB9A04120251FD9204120251CD
:1024D0001493041202514593041202518093041282
:1024E0000251AA9304120251D49304120251EB93A5
:1024F000041202510294041202511994041202515E
:102500004294041202515594041202516B94041225
:102510000251959404120251B8E202120251BCE336
:1025200002120251E9E3021202513FE40212025187
:1025300062E40212025176E40212025178E40212BD
:1025400002519BE402120251AAE5021202516EE608
:102550000212025143E702120251B4E70212025181
:1025600040E80212025143E802120251CBE8021283
:10257000025106E9021202516DE90212025170E99C
:1025800002120251A7E902120251D0E902120251CD
:102590007BEA0212025105EB0212025154EB0212C5
:1025A000025161EB0212025164EB02120251C4EBC0
:1025B00002120251CFEB021202514EEC02120251F2
:1025C00051EC0212025164EC0212025167EC021249
:1025D0000251F6EC0212025110ED0212025120EDEE
:1025E0000212025150ED021202515DED021202512F
:1025F00060ED02120251E1ED02120251CFEE021221
:10260000025181EF02120251F2EF02120251EAF07E
:10261000021202511EF102120251A0F102120251E5
:10262000C0F10212025108F2021202515BF20212D0
:102630000251BFF2021202514CF30212025106F48F
:102640000212025115F702120251A0F802120251B1
:10265000C3F80212025135F303120251D2F40312ED
:10266000025136F50312025195F503120251A3F5FA
:1026700003120251CCF50312025159CF0312025139
:1026800081CF03120251AFCF03120251E6CF0312E2
:10269000025144D0031202518FD003120251DAD0FA
:1026A000031202511AD10312025160D103120251D6
:1026B0008ED1031202514BD20312025155D2031292
:1026C000025162D20312025195D20312025161D318
:1026D000031202516DD30312025185D3031202512A
:1026E0008FD3031202510DD4031202517D9E0412A6
:1026F00002518B9E04120251A39E04120251BB9EF2
:1027000004120251D39E04120251C09C02120251C3
:102710006C9D02120251E79D02120251089F0212A3
:102720000251449F02120251ED9F02120251D4A0A5
:102730000212025138A2021202518FA20212025159
:1027400010A30212025100A4021202514DA402125F
:102750000251D3A40212025105A50212025119A777
:10276000021202515BA70212025179A70212025112
:102770001BA802120251E3A802120251F0AA02128F
:102780000251E0F603120251F6F6031202511CF751
:102790000312025138F80312025142F80312025197
:1027A00077F9031202516FFA0312025182DE03120B
:1027B000025126DF0312025159DF03120251A3DF37
:1027C0000312025166E10312025115D201120251A5
:1027D0008ED2011202519ED20112025184D30112F3
:1027E00002519BD301120251A5D301120251CAD347
:1027F00001120251D5D301120251BFD4011202516C
:1028000022D501120251D8D501120251BFD70112AF
:10281000025178D90112025154DA0112025108DB37
:102820000112025145DE01120251F3DE0112025182
:1028300062E001120251E2E10112025189E2011249
:102840000251D2E20112025109E301120251A6E340
:102850000112025131E4011202510EE5011202513E
:1028600063E501120251C2E601120251D2E60112E1
:102870000251FFE60112025156E701120251FFE731
:102880000112025106E901120251D0E9011202516E
:1028900030EB0112025173EB0112025118EC0112DC
:1028A00002513EEC011202514CEE0112025151EE66
:1028B0000112025156F001120251A3F0011202510D
:1028C00016F10112025149F101120251EBF101120C
:1028D000025194F201120251CCF201120251CFF2D4
:1028E0000112025117F30112025159F30112025160
:1028F000B0F3011202517486041202518786041249
:102900000251958604120251DD8604120251F386AB
:10291000041202513A87041202514E8804120251E5
:10292000DB8804120251268904120251D18A011255
:102930000251E18A01120251448B01120251898B2A
:10294000011202513F8C011202511A8D01120251E3
:10295000438D01120251738D01120251B38F011286
:1029600002519A9101120251729301120251B694CE
:10297000011202511D97011202512B9801120251AE
:102980007D9901120251879A01120251C99A0112CE
:102990000251019B01120251239B01120251869B9D
:1029A0000112025148A001120251DDA00112025190
:1029B00031A10112025158A10112025196A1011236
:1029C0000251B5A1011202510FA2011202510FA32F
:1029D0000112025194A301120251EEF902120251A6
:1029E000F8F902120251A0FA02120251E3FA02129D
:1029F0000251FEFA021202518EFB02120251B6FB84
:102A000002120251EEFB0212025125FC0212025187
:102A10004EFC0212025188FC021202519DFC02126D
:102A200002516AFD021202518DFD02120251AFFDE8
:102A300002120251C4FD021202514AFE0212025158
:102A400084FE02120251FCFE0212025145FF0212E4
:102A500002516FFF021202519AFF021202515E9C54
:102A60000412025109AB0212025137AB0212025199
:102A700092AC0212025172AD0212025191AD0212D9
:102A800002510EAE0212025151AE02120251CCAFEF
:102A9000021202513BB00212025166B202120251FE
:102AA000EAB4021202519BB50212025191B602120F
:102AB000025131B7021202512FB802120251BAB8B4
:102AC00002120251A27E001202510B7F001202512B
:102AD0005F7F001202518E7F00120251AF7F001201
:102AE000025103E30312025170E303120251B7E3F0
:102AF00003120251CFE403120251CBE5031202513B
:102B0000AEE603120251B6B003120251F8B003123E
:102B10000251D1B103120251CBB203120251ADB333
:102B20000312025116B40312025132B503120251BC
:102B30009EB503120251A1B503120251CAB5031288
:102B4000025144B603120251E9B603120251FEB615
:102B50000312025144B7031202515DB7031202512E
:102B600060B70312025179FA03120251B5FA031247
:102B70000251F3FA03120251BDFB031202512CFC65
:102B80000312025167FC03120251A5FC0312025109
:102B9000D5FC03120251FCFC031202516AFD031220
:102BA0000251ACFD031202513FBB011202515EBD46
:102BB0000112025141BF011202517DBF01120251A7
:102BC000AABF0112025171C001120251BCC0011210
:102BD000025107C10112025119C10112025159C11A
:102BE000011202518DC101120251DBC101120251C9
:102BF0000CC2011202512FC201120251B6C20112BF
:102C000002519EC3011202518BC40112025184C5AC
:102C10000112025193C70112025135CD0112025126
:102C200085CD01120251FCCF01120251F4FD0312B5
:102C30000251A9FF03120251D855001202518756C2
:102C400000120251B45600120251FE5600120251F7
:102C5000345800120251CA59001202513F5A001250
:102C60000251805A00120251D25A00120251435CA2
:102C700000120251885E00120251825F001202515E
:102C8000A15F00120251C05F00120251C35F001227
:102C90000251F46000120251EC6100120251D8623C
:102CA00000120251486300120251BA63001202512D
:102CB0004164001202511C6500120251F1650012BC
:102CC0000251D066001202515B6700120251C967BF
:102CD000001202513D680012025168680012025150
:102CE000276900120251146C001202515D6C00122F
:102CF0000251A06C00120251196D00120251B16D07
:102D000000120251A26E00120251C76E001202514F
:102D10000D6F00120251376F001202517F6F0012C7
:102D20000251FA6F00120251547000120251BD712B
:102D3000001202516B7200120251AC720012025169
:102D40006AC702120251B8C702120251C4C7021266
:102D50000251A2C802120251D3C80212025104C980
:102D60000212025184C902120251BCC9021202515C
:102D70000ECA021202514BCA0212025168CC021250
:102D800002518ECE0212025179D00212025163D248
:102D900002120251F8FF021202511CC40312025126
:102DA00067C803120251ABC9031202516C8E0212A2
:102DB00002512491021202512A9102120251E4930B
:102DC00002120251B1960212025195D4031202511D
:102DD00039D5031202510BD60312025135D6031214
:102DE000025183D803120251F837001202514238BF
:102DF000001202518346001202510848001202518B
:102E00002B49001202519C4F0012025197500012A0
:102E10000251D45000120251F750001202513951A0
:102E2000001202514351001202513152001202515C
:102E3000275300120251C0530012025167EF0312D0
:102E40000251FDEF0312025113F00312025189F0F7
:102E500003120251FDF0031202513BF10312025121
:102E6000AFF10312025128F20312025131F20312A0
:102E700002513DF20312025152F20312025190F23A
:102E800003120251A6F20312025105F3031202517A
:102E9000D3BD03120251E0BD03120251FABD031269
:102EA000025139BE0312025177BE03120251DCBE39
:102EB00003120251F1BE0312025108BF0312025164
:102EC00016BF0312025125BF031202513ABF03126B
:102ED00002514FBF031202515ABF0312025166BF83
:102EE0000312025173BF0312025182BF0312025137
:102EF0008DBF03120251B2BF0312025159C0031217
:102F000002516EC00312025183C0031202519DC0D0
:102F100003120251B8C003120251D5C0031202516C
:102F2000E0C0031202519CC10312025188C2031275
:102F30000251ADC203120251B8C203120251CDC2F6
:102F400003120251E1C20312025142C303120251A1
:102F500048C3031202514EC30312025154C3031259
:102F600002516CC3031202519FC3031202519DF41C
:102F700001120251BFF4011202519FF501120251D8
:102F800076F801120251A2F901120251C6FA011299
:102F9000025178FB0112025119FC0112025140B991
:102FA00002120251C4B90212025173BA0212025142
:102FB000D2BB02120251F3BD02120251DFBE021255
:102FC000025114BF0212025136BF02120251E5BF74
:102FD00002120251DDC10212025106C20212025156
:102FE00098C202120251CAC202120251D7C2021280
:102FF00002512EC30212025154C302120251C1C522
:1030000002120251C4C6021202511CC7021202511E
:103010000080021202510A8102120251F181021251
:103020000251FB81021202511D82021202512982B9
:1030300002120251C28302120251F18302120251A2
:103040000D8502120251668502120251CC860212CF
:103050000251AB8702120251078802120251748892
:1030600002120251AF8802120251EE88021202517E
:10307000A78B02120251C18B021202514D8C021217
:1030800002515B8C02120251B48C02120251C28CAA
:1030900002120251358D02120251998D0212025113
:1030A000E38D02120251A79404120251CC9404122F
:1030B00002513E95041202512BA20312025134A276
:1030C000031202513DA20312025114A30312025132
:1030D000C5A403120251FBA40312025135A5031229
:1030E00002516BA503120251A5A503120251D9A5E5
:1030F0000312025105A6031202514EA603120251F9
:1031000088A603120251D1A60312025129A7031265
:1031100002515EA703120251B9A703120251F3A78D
:103120000312025144A8031202517AA80312025159
:10313000B4A803120251D7A803120251A7A1041286
:103140000251D3A1041202512EA20412025138A23C
:103150000412025148A204120251FD9903120251B5
:103160000B9A031202514D9A03120251989A0312BC
:103170000251D29A031202512C9B031202514F9B0F
:1031800003120251DF9D03120251ED9D0312025101
:10319000409E03120251729E03120251819E03123D
:1031A0000251F69E03120251809F03120251C89FE2
:1031B00003120251FF9F0312025174A00312025125
:1031C000B6A003120251FEA00312025110A1031275
:1031D000025133A1031202513CA103120251FFA17B
:1031E00003120251F3FE01120251A6FF0112025115
:1031F0001391041202514991041202517F91041259
:103200000251BF920412025152A20412025168A24A
:103210000412025178A204120251C2A204120251F5
:10322000AFD903120251C4D9031202517FDA03123B
:103230000251C3DA03120251E0DA0312025114DB25
:103240000312025161DB0312025195DB031202519A
:10325000D3DB0312025100DE0312025171DE0312AE
:10326000025157A304120251E99704120251129815
:10327000041202513B9804120251DF9804120251C9
:10328000FB98041202513D9904120251EEC9031237
:10329000025126CC03120251DCCC0312025199CD0B
:1032A000031202518ACE0312025184B70312025153
:1032B000C8B7031202514CB80312025161B803128D
:1032C0000251C4B803120251FDB80312025144B9AD
:1032D0000312025157B903120251E0B9031202510D
:1032E00017BA031202517CBA03120251D6BA031262
:1032F0000251DDBB03120251D2BC031202511EBDAA
:10330000031202515DBD0312025199BD0312025115
:10331000AB9103120251EE9103120251319203124A
:103320000251849203120251F492031202517293D9
:1033300003120251BB93031202510494031202516F
:10334000EF9403120251629503120251D5950312B4
:103350000251489603120251BB9603120251019783
:10336000031202513F9803120251AC98031202510A
:10337000A89903120251F0A204120251FBA30112F8
:10338000025183A6011202511AA8011202518AA801
:103390000112025117A9011202519DA901120251F5
:1033A000C6A90112025116AA0112025108AE011259
:1033B000025185AE0112025187AF01120251C1AF15
:1033C0000112025104B001120251E8B1011202517E
:1033D0001BB20112025175B201120251C2B20112A6
:1033E00002510FB3011202516CB301120251DFB34B
:1033F0000112025114B40112025148B401120251D7
:1034000067B40112025172B50112025184B5011262
:1034100002515DB6011202518AB601120251B2B6D2
:1034200001120251F7B60112025114B701120251F2
:103430004AB7011202511CB9011202519AB9011284
:103440000251DDB90112025110BB01120251DC72AE
:103450000012025131730012025190730012025196
:10346000D57300120251357400120251C774001254
:1034700002510375001202514B750012025165761C
:1034800000120251A97600120251C27700120251B5
:10349000987C00120251727D00120251877D001249
:1034A0000251887E00120251F6A00412025107A1B7
:1034B0000412025116A40412025153A40412025120
:1034C00019A5041202516C9F041202517C9F041230
:1034D0000251999F041202512DA004120251779DAE
:1034E00004120251FC9D04120251649E0412025106
:1034F000F57F00120251008004120251158004125F
:1035000002512C8104120251AA8104120251C58178
:1035100004120251E081041202512E82041202515F
:10352000488204120251628204120251788204120B
:103530000251978204120251B68204120251DA82B9
:10354000041202512B830412025170E7031202513C
:103550008AE70312025107E803120251E1E803125D
:1035600002519AEA03120251F9EA031202514BEB9B
:103570000312025168EB03120251F87F001202514C
:10358000E68E04120251699004120251CA9004128C
:103590000251109104120251218C041202513F8CED
:1035A00004120251B98C04120251108D04120251FE
:1035B000A78D04120251428E04120251768E04121B
:1035C0000251848E04120251968E04120251AC8E66
:1035D00004120251C28E04120251D08E0412025102
:1035E0007BEB03120251A5EB03120251D9EB03123C
:1035F00002510DEC0312025139EC0312025196EC08
:1036000003120251FAEC031202514AED0312025165
:1036100088ED03120251F2ED0312025168EE03121B
:103620000251BAEE031202513EA004120251ADA0A3
:1036300004120251BDA004120251E6A0041202516C
:103640004C9604120251A196041202512F970412B3
:1036500002519797041202515089041202517A893B
:1036600004120251498A041202511E8B04120251A3
:10367000AB8B041202510B8903120251D28903123F
:1036800002510D8A031202513D8A031202519B8A94
:1036900003120251EF8A031202515F8B031202518F
:1036A000F58B03120251BB8C03120251318D0312B0
:1036B0000251778E03120251FA8E03120251618F6A
:1036C00003120251D08F03120251E78F03120251ED
:1036D0000191031202514B91031202510080031217
:1036E0000251288003120251178103120251DB811B
:1036F000031202519883031202514A8503120251A8
:10370000AB85031202515F8703120251F29A041231
:1037100002512E9B04120251CA9B0412025177A936
:10372000031202519DA903120251B5A903120251BD
:10373000D4A90312025107AA03120251A9AB031222
:1037400002519BAC031202519CAD03120251C0AE58
:1037500003120251E6AE03120251B4AF031202513A
:103760003ED50212025142D602120251C6D70212AF
:103770000251F7D702120251AFD902120251D5DA23
:1037800002120251FDDA02120251FADC0212025157
:103790004EDD02120251E2DD021202513BDE021244
:1037A000025135E002120251DEE00212025173E1D1
:1037B00002120251AEE2021202516083041202515F
:1037C0007E8504120251D285041202511986041218
:1037D000025161A404120251A7A404120251C2FFB3
:1037E00002120251D3A404120251FBA404FFFFFFF2
:1037F000FFFFFFFFFFFFFFFFC082C083784B790808
:1038000088828983A3A3A3A3A3A3E4F088828983E6
:10381000A3A3A3A3A374FFF0E82418F8E93400F9E4
:10382000E864AB7003E9640870D690084D74FFF04B
:1038300090084CE4F090084BF090084EF0A3F00292
:1038400050F074EC1214C890084EE0F508A3E0F5AF
:1038500009E50845097006122C4702467E85088254
:10386000850983E014601814601524FE601124C4D7
:10387000700302408424C0700302408402467EE04C
:10388000F9122DFD8A0A8B0BAE0AAF0B9004A5E04E
:103890007003023C82122CEFE9F875F005A4C8AA67
:1038A000F02AF974A828F50C740439F50D850C82FA
:1038B000F583E0F50AA3E0F50BAC0AFDEEFAEFFBA9
:1038C000122DF7E9F50E7402650E7003023C2A8E84
:1038D000828F83E024FE600A24FE7003023B140200
:1038E000467EEE65087003EF65096021122C659035
:1038F00007D9E0640170169007D8E07010790112C2
:103900002F1D122EED122F177900122F23E50E60B6
:1039100021E5082415F582E5093400F583E06012FD
:103920009007D4E0F8A3E0F9A3E0687003A3E0698E
:103930007042122E7B8A0C8B0D8C0E8D0F7510032E
:10394000751100751200751300780C791012124B66
:103950007510FF7511FF7512FF780C79101212C4E3
:103960008E828F83A3A3E50CF0A3E50DF0A3E50EF3
:10397000F0A3E4F0E5082415F582E5093400F583A9
:10398000E064016003023A2C850A82850B83A3A3BD
:10399000750CF1750DFF750EFF750FFF780C121287
:1039A0005E780C1216208E828F83A3A3C082C08300
:1039B0009007D6E0F508A3E085080CF50DE4F50EB8
:1039C000F50FD083D082780C12125EAA0CAB0DAC2E
:1039D0000EAD0F1222B9740412146EE9701F8E829C
:1039E0008F83A3A3C082C0839007D6E0F508A3E02D
:1039F000F509E4F50AF50BD083D0828014850A829C
:103A0000850B83A3A37508F17509FF750AFF750B74
:103A1000FF780812125E750CFF750DFF750EFF75AD
:103A20000F007808790C1212C4023F7CEE240EF5C8
:103A300082EF3400F5831216378E828F83A3A31290
:103A4000132E1222B9740412146EE9640160030289
:103A5000459F850A82850B83A3A3750CF1750DFF25
:103A6000750EFF750FFF780C12125E780C1216207F
:103A70008E828F83A3A3C082C0839007D6E0F5080F
:103A8000A3E085080CF50DE4F50EF50FD083D08288
:103A9000780C12125EAA0CAB0DAC0EAD0F1222B94F
:103AA000740412146EE9701F8E828F83A3A3C082E8
:103AB000C0839007D6E0F508A3E0F509E4F50AF520
:103AC0000BD083D0828014850A82850B83A3A375D3
:103AD00008F17509FF750AFF750BFF780812125E71
:103AE000750CFF750DFF750EFF750F007808790CCA
:103AF0001212C4EE240EF582EF3400F5837808121A
:103B0000131F9007DCE06427700474258002E00432
:103B1000F002459FEE65087003EF6509603190077C
:103B2000F0E0F9122C6B850882850983E06402704D
:103B30001E9007D9E0640170169007D8E0701079E4
:103B400000122F1D122EED122F177901122F23E5CF
:103B50000E60129007EAE0F8A3E0F9A3E0687003B2
:103B6000A3E0697039122E7B8A0C8B0D8C0E8D0FA1
:103B7000751003751100751200751300780C79101B
:103B800012124B7510FF7511FF7512FF780C79102A
:103B90001212C48E828F83A3A3780C12131F850A7E
:103BA00082850B83A3A3750CF1750DFF750EFF7550
:103BB0000FFF780C12125E780C1216208E828F8303
:103BC000A3A3C082C0839007ECE0F508A3E08508BA
:103BD0000CF50DE4F50EF50FD083D082780C12129F
:103BE0005EAA0CAB0DAC0EAD0F1222B97404121408
:103BF0006EE9701F8E828F83A3A3C082C08390075B
:103C0000ECE0F508A3E0F509E4F50AF50BD083D064
:103C1000828014850A82850B83A3A37508F1750938
:103C2000FF750AFF750BFF024388850882850983AB
:103C3000E0640270139007D9E06401700B9007D81C
:103C4000E070057900122F1DE50C2404FEE50D340B
:103C500000FF8E828F83E0F9122E338E828F83E0F5
:103C60009004A6F07902FA75F005A4CAA8F028FB22
:103C700074A82AFA74043BFB121B4FAA0AAB0B026E
:103C8000467BEE65087003EF65098E828F836003C3
:103C9000023E9EE024FE600A24FE7003023DDB0229
:103CA0004677EE2415F582EF3400F583E0604C9002
:103CB00007D4E0F8A3E0F9A3E0687003A3E069602B
:103CC0003A122E7B8A088B098C0A8D0B750C0A75AB
:103CD0000D00750E00750F007808790C12124B78E4
:103CE000081216208E828F83A3A312132E1222B9DC
:103CF000740412146EE96003024677122E7B8A0860
:103D00008B098C0A8D0B750C03750D00750E0075F3
:103D10000F007808790C12124B750CFF750DFF75AA
:103D20000EFF7808790C1212C48E828F83A3A378B9
:103D30000812131FEE2415F582EF3400F583E064BA
:103D40000170328E828F83A3A3C082C0839007D676
:103D5000E0F508A3E0F509E4F50AD083D0827808FD
:103D600012125EEE240EF582EF3400F5837808120D
:103D7000131F024677EE240EF582EF3400F583120E
:103D800016378E828F83A3A312132E1222B97404C6
:103D900012146EE9640160030246778E828F83A35A
:103DA000A3C082C0839007D6E0F508A3E0F509E43C
:103DB000F50AD083D082780812125EEE240EF582C6
:103DC000EF3400F583780812131F9007DCE06427B6
:103DD000700474258002E0040246769007EAE0F859
:103DE000A3E0F9A3E0687003A3E0696037122E7BBB
:103DF0008A088B098C0A8D0B750C0A750D00750EDF
:103E000000750F007808790C12124B7808121620F2
:103E10008E828F83A3A312132E1222B9740412145C
:103E20006EE97077EE2402F508EF3400F509122EE2
:103E30007B8A0C8B0D8C0E8D0F7510037511007520
:103E40001200751300780C791012124B7510FF7563
:103E500011FF7512FF780C79101212C48508828543
:103E60000983780C12131F850882850983C082C0DC
:103E7000839007ECE0F508A3E0F509E4F50AF50BFB
:103E8000D083D082780812125EEE240EF582EF34D1
:103E900000F583780812131F122C71024677E02474
:103EA000FE600A24FE7003023F8E02467E122C65DD
:103EB0009007D9E0640170169007D8E0701079017E
:103EC000122F1D122EED122F177900122F2390079B
:103ED000D4E0F8A3E0F9A3E0687003A3E0696037D9
:103EE000122E7B8A088B098C0A8D0B750C0A750DB6
:103EF00000750E00750F007808790C12124B7808C7
:103F00001216208E828F83A3A312132E1222B9744D
:103F10000412146EE97074EE2402F508EF3400F513
:103F200009122E7B8A0C8B0D8C0E8D0F751003756C
:103F30001100751200751300780C791012124B7570
:103F400010FF7511FF7512FF780C79101212C485DD
:103F50000882850983780C12131F850882850983DE
:103F6000C082C0839007D6E0F508A3E0F509E4F528
:103F70000AF50BD083D082780812125EEE240EF57B
:103F800082EF3400F583780812131F02459F9007D3
:103F9000F0E0F9122C6B850882850983E0640270D9
:103FA0001E9007D9E0640170169007D8E070107970
:103FB00000122F1D122EED122F177901122F2390B0
:103FC00007EAE0F8A3E0F9A3E0687003A3E0696002
:103FD00037122E7B8A088B098C0A8D0B750C0A759B
:103FE0000D00750E00750F007808790C12124B78D1
:103FF000081216208E828F83A3A312132E1222B9C9
:10400000740412146EE97079EE2402F8EF3400F9AA
:1040100088088909122E7B8A0C8B0D8C0E8D0F75EA
:104020001003751100751200751300780C791012C9
:10403000124B7510FF7511FF7512FF780C79101275
:1040400012C4850882850983780C12131F850882A3
:10405000850983C082C0839007ECE0F508A3E0F5F2
:1040600009E4F50AF50BD083D082780812125EEECF
:10407000240EF582EF3400F583780812131F122CFA
:10408000710246719004A5E07003024495122CEF72
:10409000E9F875F005A4C8AAF02AF974A828F51063
:1040A000740439F511851082F583E0F508A3E0F575
:1040B000099004A6E0F875F005A4C8AAF02AF974DE
:1040C000A828F50C740439F50D90084CE0540770DD
:1040D000030243A3A3E0F9122DFD8A0A8B0BAE0A5B
:1040E000AF0BAC08AD09122DF7E9F50E7402650EA1
:1040F00070030243A3850C82850D83A3A3A3A3E0D1
:10410000F875F08AA4C8AAF02AF974B028F50A74E0
:104110000839F50BAA0AFB122E27AA0AAB0B122E9E
:104120002175128075130078121216247C007D60B0
:10413000E50A2406FAE50B3401FB122D677402121E
:10414000146EA80AA90B906195E0C0E0E82486F5FA
:1041500082E93401F583D0E0F0906196E0C0E0E8B8
:104160002487F582E93401F583D0E0F0906197E08F
:10417000C0E0E82488F582E93401F583D0E0F090CE
:104180006198E0C0E0E82489F582E93401F583D044
:10419000E0F08E828F83E024FE600A24FE7003022A
:1041A00042AE0243A3122C659007D9E0640170115E
:1041B0009007D8E0700B122EED122F177900122FF6
:1041C00023E50E60129007D4E0F8A3E0F9A3E068BD
:1041D0007003A3E0697036122E7B8A0C8B0D8C0E57
:1041E0008D0F751003751100751200780C7910127F
:1041F000124B7510FF7511FF7512FF780C791012B4
:1042000012C48E828F83A3A3780C12131F85088299
:10421000850983A3A3750CF1750DFF750EFF750F4E
:10422000FF780C12125E780C1216208E828F83A3F8
:10423000A3C082C0839007D6E0F50CA3E0F50DE49F
:10424000F50EF50FD083D082780C12125EAA0CAB5B
:104250000DAC0EAD0F1222B9740412146EE9701F6A
:104260008E828F83A3A3C082C0839007D6E0F50817
:10427000A3E0F509E4F50AF50BD083D0828014851C
:104280000882850983A3A37508F17509FF750AFFE4
:10429000750BFF780812125E750CFF750DFF750E19
:1042A000FF750F007808790C1212C4024590900730
:1042B000F0E0F9122C6BE50E60129007EAE0F8A32B
:1042C000E0F9A3E0687003A3E0697036122E7B8AE0
:1042D0000C8B0D8C0E8D0F7510037511007512006F
:1042E000780C791012124B7510FF7511FF7512FFC3
:1042F000780C79101212C48E828F83A3A3780C12CB
:10430000131F850882850983A3A3750CF1750DFF22
:10431000750EFF750FFF780C12125E780C121620C6
:104320008E828F83A3A3C082C0839007ECE0F50C3C
:10433000A3E0F50DE4F50EF50FD083D082780C12D2
:10434000125EAA0CAB0DAC0EAD0F1222B9740412A2
:10435000146EE9701F8E828F83A3A3C082C08390E6
:1043600007ECE0F508A3E0F509E4F50AF50BD083C6
:10437000D0828014850882850983A3A37508F1750E
:1043800009FF750AFF750BFF780812125E750CFFA6
:10439000750DFF750EFF750F007808790C1212C4A9
:1043A00002465FE510650C7004E511650D700302AF
:1043B0004473850C82850D83A3A3A3E0700302449C
:1043C00057850C82850D83A3A3A3A3E0F875F08A1B
:1043D000A4C8AAF02AF974B028FE740839FFEEFACE
:1043E000EFFB122E27EEFAEFFB122E21750A8075D5
:1043F0000B00780A1216247C007D60EE2406FAEF8A
:104400003401FB122D67740212146E906195E0C0A6
:10441000E0EE2486F582EF3401F583D0E0F0906180
:1044200096E0C0E0EE2487F582EF3401F583D0E01A
:10443000F0906197E0C0E0EE2488F582EF3401F55A
:1044400083D0E0F0906198E0C0E0EE2489F582EF3F
:104450003401F583D0E0F0E5102404FEE5113400CA
:10446000FF8E828F83E0F9122E338E828F83E0904D
:1044700004A6F079029004A6E0FA75F005A4CAA893
:10448000F028FB74A82AFA74043BFB121B4FAA08FD
:10449000AB0902467B90084CE05407700302467E4D
:1044A000A3E0F9122DFD8A088B09AE08AF098E82B0
:1044B0008F83E024FE600A24FE70030245A70246B3
:1044C0007E122C659007D9E0640170169007D8E041
:1044D00070107901122F1D122EED122F1779001274
:1044E0002F239007D4E0F8A3E0F9A3E0687003A3BA
:1044F000E0696037122E7B8A088B098C0A8D0B7558
:104500000C0A750D00750E00750F007808790C12F5
:10451000124B78081216208E828F83A3A312132EBB
:104520001222B9740412146EE97074EE2402F508B4
:10453000EF3400F509122E7B8A0C8B0D8C0E8D0F3B
:10454000751003751100751200751300780C791041
:1045500012124B7510FF7511FF7512FF780C791050
:104560001212C4850882850983780C12131F8508EE
:1045700082850983C082C0839007D6E0F508A3E056
:10458000F509E4F50AF50BD083D082780812125EA3
:10459000EE240EF582EF3400F583780812131F9095
:1045A000084D74020246769007F0E0F9122C6B90E9
:1045B00007EAE0F8A3E0F9A3E0687003A3E069600C
:1045C00037122E7B8A088B098C0A8D0B750C0A75A5
:1045D0000D00750E00750F007808790C12124B78DB
:1045E000081216208E828F83A3A312132E1222B9D3
:1045F000740412146EE97076EE2402F8EF3400F9B8
:1046000088088909122E7B8A0C8B0D8C0E8D0F75F4
:104610001003751100751200751300780C791012D3
:10462000124B7510FF7511FF7512FF780C7910127F
:1046300012C4850882850983780C12131F850882AD
:10464000850983C082C0839007ECE0F508A3E0F5FC
:1046500009E4F50AF50BD083D082780812125EEED9
:10466000240EF582EF3400F583780812131F122C04
:104670007190084D7404F0EEFAEFFB122DF17F0CEF
:1046800002159A74F01214C8EAFEEBFFEE2402F849
:10469000EF3400F988088909EE2406F8EF3400F9B0
:1046A000880A890B8882F58312163B850882850962
:1046B0008312132E122E57740212146E850A8285ED
:1046C0000B8312163B85088285098312132E122E46
:1046D0004B740212146EEE240EF582EF3400F58353
:1046E00012132E122E5D8E828F83E06440701CEEBA
:1046F0002412F8EF3400F988828983E0906064F036
:1047000088828983A3E09060658006906064E4F00D
:10471000A3F090084EEEF0A3EFF0EE2416F582EF32
:104720003400F583E0F8A3E0F58388821214C69084
:104730006054E4F0A3F0A3F0A3F0A3F0A3F0A3F07F
:10474000A3F0A3F0A3F0A3F0A3F0906182E0C2E68F
:10475000F07591BFEE2415F582EF3400F583E06427
:10476000017003122E93E5E170FCEE2414F582EF44
:104770003400F583E0F46003E0F5E1EE2415F58202
:10478000EF3400F5837401F090047EE064017073EF
:10479000122E7B8A088B098C0A8D0B780812162042
:1047A0008E828F83A3A312132E1223127404121469
:1047B0006E8A088B098C0A8D0B750C05750D0075BA
:1047C0000E00750F007808790C12109174037808A8
:1047D000121213E50824F4F508E5093401F50990EF
:1047E00007F6E060031231E1E4F50AF50B780812F0
:1047F00016207A207B00900477E0F9123235740499
:1048000012146E7F0802159A74EA1214C8EAFEEBBD
:10481000FF8C148D15EE4F7003024924122E7B8AF3
:10482000088B098C0A8D0B750C01750D00750E0037
:10483000750F007808790C12124B750CFF750DFF7F
:10484000750EFF7808790C1212C48E828F83E06493
:104850000270149007D4E0F8A3E0F9A3E0687003B5
:10486000A3E06970248017E06404701D9007EAE0FB
:10487000F8A3E0F9A3E0687003A3E069700B8E82EF
:104880008F83A3A3780812131F75101A7511007572
:10489000120075130078081216208514828515837E
:1048A000A3A312132E122312740412146E8A0C8BFB
:1048B0000D8C0E8D0F7810790C12105240668514F5
:1048C00082851583A3A3750CE7750DFF750EFF7523
:1048D0000FFF780C12125E780C1216208E828F83D6
:1048E000A3A312132E1222B9740412146EE97034A9
:1048F000750C07750D00750E00750F007808790CA2
:1049000012124B78081216208E828F83A3A31213E3
:104910002E1222B9740412146EE970047900800614
:104920007901800279027F0E02159A74F01214C880
:10493000890874FF65086003024AB990084CE05486
:10494000077003024F957A00784B79088882898333
:10495000A3A3A3A3A3E06404703FEA75F018A4F82E
:10496000A9F0745128F582740839F583E064017068
:10497000377A00784B790888828983A3A3A3A3A3FD
:10498000E064046003024A0E88828983A3A3A3A380
:10499000A3A3E06401707780630AE82418F8E9347F
:1049A00000F9EAC3940440A47A00784B790888821D
:1049B0008983A3A3A3A3A3E064017067EA75F01839
:1049C000A4F8A9F0745128F582740839F583E064DD
:1049D0000170627A00784B790888828983A3A3A347
:1049E000A3A3E064016003024A9588828983A3A39C
:1049F000A3A3A3A3E064016003024A95EA75F0183B
:104A0000A4F8A9F0745028FA740839024F920AE801
:104A10002418F8E93400F9EAC394045003024977F2
:104A2000024F950AE82418F8E93400F9EAC394041F
:104A300050030249AE7A00784B790888828983A3B3
:104A4000A3A3A3A3E064027061EA75F018A4F8A917
:104A5000F0745128F582740839F583E064017059C7
:104A60007A00784B790888828983A3A3A3A3A3E063
:104A70006402707A88828983A3A3A3A3A3A3E064BA
:104A800001706BEA75F018A4F8A9F0745028FA7454
:104A90000839FB806F0AE82418F8E93400F9EAC302
:104AA000940450030249D9024F950AE82418F8E902
:104AB0003400F9EAC3940440827A00784B7908887C
:104AC000828983A3A3A3A3A3E06508703A8882899F
:104AD00083A3A3A3A3A3A3E06401702BEA75F0183A
:104AE000A4F8A9F0745028FE740839FF802C0AE855
:104AF0002418F8E93400F9EAC394045003024A6622
:104B00007A007B00024F990AE82418F8E93400F98A
:104B1000EAC3940440A97E007F007A00784B7908AC
:104B200088828983A3A3A3A3A3E06508701BEA7509
:104B3000F018A4F8A9F0745128F582740839F583A7
:104B4000E0640170137A0180110AE82418F8E9344E
:104B500000F9EAC3940440C87A00E5081460101410
:104B60007003024CD024FE7003024DE3024F957B8C
:104B700000784B790888828983A3A3A3A3A3E06468
:104B8000027052EB75F018A4F8A9F0745128F58260
:104B9000740839F583E06401704A7B00784B79082A
:104BA00088828983A3A3A3A3A3E064026003024CC9
:104BB0003E88828983A3A3A3A3A3A3E06401707E9C
:104BC000EB75F018A4F8A9F0745028F50A740839A8
:104BD000F50B024C560BE82418F8E93400F9EBC346
:104BE000940440917B00784B790888828983A3A341
:104BF000A3A3A3E064046003024C97EB75F018A430
:104C0000F8A9F0745128F582740839F583E064013D
:104C10006003024CA97B00784B790888828983A3C2
:104C2000A3A3A3A3E064046003024CB48882898335
:104C3000A3A3A3A3A3A3E064017079024E370BE8FA
:104C40002418F8E93400F9EBC394045003024BA094
:104C5000750A00750B00EAA2E05035850A82850BC3
:104C600083A3A3750CF6750DFF750EFF750FFF7806
:104C70000C12125E780C1216208E828F83A3A31260
:104C8000132E1222B9740412146EE97003024F8FAE
:104C9000AA0AAB0B024F990BE82418F8E93400F983
:104CA000EBC394045003024BEAEAA2E0501BEEFA75
:104CB000EFFB80190BE82418F8E93400F9EBC394F2
:104CC000045003024C1B024EDC7A007B00024F9919
:104CD0007B00784B790888828983A3A3A3A3A3E0F0
:104CE00064047040EB75F018A4F8A9F0745128F52D
:104CF00082740839F583E0640170387B00784B7961
:104D00000888828983A3A3A3A3A3E06404600302A9
:104D10004D9588828983A3A3A3A3A3A3E064017014
:104D200074024E370BE82418F8E93400F9EBC39409
:104D30000440A37B00784B790888828983A3A3A3CE
:104D4000A3A3E064017063EB75F018A4F8A9F074F4
:104D50005128F582740839F583E06401705B7B00AB
:104D6000784B790888828983A3A3A3A3A3E0640175
:104D7000705288828983A3A3A3A3A3A3E0640170D4
:104D800043EB75F018A4F8A9F0745028F50A7408DC
:104D900039F50B80440BE82418F8E93400F9EBC32B
:104DA00094045003024D01024EDC0BE82418F8E98C
:104DB0003400F9EBC394044080EAA2E0501EEEFAFE
:104DC000EFFB801C0BE82418F8E93400F9EBC394DE
:104DD000044091750A00750B00024EE27A007B00D8
:104DE000024F997B00784B790888828983A3A3A31B
:104DF000A3A3E064017055EB75F018A4F8A9F07452
:104E00005128F582740839F583E06401704D7B0008
:104E1000784B790888828983A3A3A3A3A3E06401C4
:104E20006003024ECA88828983A3A3A3A3A3A3E03D
:104E300064016003024ECAEB75F018A4F8A9F0747F
:104E40005028F50A740839F50B024EE20BE82418D5
:104E5000F8E93400F9EBC39404408E7B00784B7979
:104E60000888828983A3A3A3A3A3E064026003024A
:104E70004F21EB75F018A4F8A9F0745128F582744D
:104E80000839F583E064016003024F337B00784BFF
:104E9000790888828983A3A3A3A3A3E064026003A3
:104EA000024F3A88828983A3A3A3A3A3A3E064014A
:104EB0006003024F3AEB75F018A4F8A9F07450287B
:104EC000F50A740839F50B024F520BE82418F8E97B
:104ED0003400F9EBC394045003024E14750A0075B4
:104EE0000B00EAA2E04003024C90850A82850B8306
:104EF000A3A3750CF6750DFF750EFF750FFF780CEB
:104F000012125E780C1216208E828F83A3A31213C6
:104F10002E1222B9740412146EE96003024C9080C0
:104F20006E0BE82418F8E93400F9EBC3940450033D
:104F3000024E61EAA2E0505D80550BE82418F8E9C2
:104F40003400F9EBC394045003024E92750A0075C5
:104F50000B00EAA2E04003024C90850A82850B8395
:104F6000A3A3750CF6750DFF750EFF750FFF780C7A
:104F700012125E780C1216208E828F83A3A3121356
:104F80002E1222B9740412146EE96003024C90EEE2
:104F9000FAEFFB80047A007B0002480374F61214D7
:104FA000C88909750800784B790888828983A3A38A
:104FB000A3A3A3A3E06003025078E50875F018A44A
:104FC000F8A9F0745028FE740839FF8E828F83A3ED
:104FD0007401F08E828F83E509F0122E7B8E828F12
:104FE00083A3A312133A8E828F83A3A3A3A3A3A3A5
:104FF000E4F0A3F0EE240EF582EF3400F58374FFA5
:10500000F0A3F0A3F0A3F0EE2414F582EF3400F542
:10501000837401F0EE2415F582EF3400F5837401FA
:10502000F0EE2416F582EF3400F583E4F0A3F0905F
:10503000084CE04509F090084BE004F06401600C76
:10504000748065096006744065097019E50875F09B
:1050500018A4F8A9F0745028F8740839F990084E8B
:10506000E8F0A3E9F0E50875F018A4F8A9F0745089
:1050700028FA740839FB80180508E82418F8E93480
:1050800000F9E508C394045003024FAA7A007B009C
:1050900080007F0202159AC082C0838A828B83E0DF
:1050A000F8A3E0F98A828B83E4F0A3F088828983F5
:1050B000A3F088828983E0F4F890084CE058F090DF
:1050C000084BE014F0700B90084EE4F0A3F090044D
:1050D00078F0801CC082C08390084BE0600A900882
:1050E0004EE0FAA3E0FB80047A007B008002E0F946
:1050F000D083D08202024EC082C083E9FB7A00785E
:105100004B790888828983A3A3A3A3A3E06B7016BD
:10511000EA75F018A4F8A9F0745128F582740839DA
:10512000F583E0F980110AE82418F8E93400F9EA77
:10513000C3940440CE790080B7C082C08390084BEE
:105140000250EE74F61214C8EAFEEBFF9061D0E054
:10515000C0E0EE2400F582EF3401F583D0E0F0905A
:1051600061D7E0F89061D5E0C398547FC0E0EE24A9
:1051700001F582EF3401F583D0E0F09061D6E0C311
:1051800098547FC0E0EE2402F582EF3401F583D01D
:10519000E0F0701A9061C5E0A2E45012E0A2E7507E
:1051A0000DEE2402F582EF3401F5837480F0122FA6
:1051B00047EE2401F582EF3401F583E07034EE24EC
:1051C00002F582EF3401F583E070279061C5E0A21B
:1051D000E4501FE0A2E7501AEE2402F582EF3401FA
:1051E000F5837480F0EE2401F582EF3401F58374C9
:1051F00080F075E1957800EE2400F582EF3401F53A
:1052000083E060279061D3E0C0E08808EE2508F5D0
:1052100082EF3400F583D0E0F008EE2400F582EF51
:105220003401F583E0F9E8C39940D975E191025062
:105230009274F61214C8EAFEEBFF9061C8E0C0E079
:10524000EE2403F582EF3401F583D0E0F09061CFD6
:10525000E0F89061CDE0C398547FC0E0EE2404F5FF
:1052600082EF3401F583D0E0F09061CEE0C3985432
:105270007FC0E0EE2405F582EF3401F583D0E0F045
:10528000701A9061C5E0A2E05012E0A2E3500DEE6A
:105290002405F582EF3401F5837480F0122F4DEE72
:1052A0002404F582EF3401F583E07034EE2405F533
:1052B00082EF3401F583E070279061C5E0A2E050F1
:1052C0001FE0A2E3501AEE2405F582EF3401F583C6
:1052D0007480F0EE2404F582EF3401F5837480F0DD
:1052E000122F537A00EE2403F582EF3401F583E0A8
:1052F000602F9061CBE0C0E08A08EE2508F8EF341B
:1053000000F9E82480F582E93400F583D0E0F00A62
:10531000EE2403F582EF3401F583E0F8EAC3984008
:10532000D175E18102509274F41214C88908A8085A
:10533000E875F08AA4C8AAF02AF974B028FE7408A7
:1053400039FFEEFAEFFB122E27EEFAEFFB122E21B9
:10535000750A80750B00780A1216247C007D60EEB9
:105360002406FAEF3401FB122D67740212146E90BA
:105370006195E0C0E0EE2486F582EF3401F583D03C
:10538000E0F0906196E0C0E0EE2487F582EF340112
:10539000F583D0E0F0906197E0C0E0EE2488F582DC
:1053A000EF3401F583D0E0F0906198E0C0E0EE24A6
:1053B00089F582EF3401F583D0E0F07F0402159A7D
:1053C00074F21214C88908A808E875F08AA4C8AA5B
:1053D000F02AF974B028F8740839F99061C6E0FD34
:1053E000E054F0F075E1817C00E82403F582E934B3
:1053F00001F583E0602B8C0AE8250AFAE93400FB0A
:10540000EA2480F582EB3400F583E09061CAF00C69
:10541000E82403F582E93401F583E0FAECC39A400D
:10542000D5E82405F582E93401F583E06004906154
:10543000CEF0E82404F582E93401F583E0600490BD
:1054400061CDF0ED9061C6F0A808E875F08AA4C8B7
:10545000AAF02AF974B028F8740839F9E0FCE0548D
:105460000FF075E1917A00E82400F582E93401F546
:1054700083E060238A0AE8250AF582E93400F5838F
:10548000E09061D2F00AE82400F582E93401F58366
:10549000E0FBEAC39B40DDE82402F582E93401F534
:1054A00083E060049061D6F0E82401F582E93401DC
:1054B000F583E060049061D5F0EC9061C6F085085A
:1054C00082AE82EEF875F08AA4C8AAF02AF974B008
:1054D00028F50A740839F50B750C80750D00780CE9
:1054E000121624E50A2406FCE50B3401FD7A007B44
:1054F00060122D67740212146EA80AA90BE82486A4
:10550000F582E93401F583E0906195F0E82487F5B0
:1055100082E93401F583E0906196F0E82488F58211
:10552000E93401F583E0906197F0E82489F582E998
:105530003401F583E0906198F0EE75F005A4CEA8F3
:10554000F028FF74A82EF58274043FF583E0F8A3D9
:10555000E0F5838882E06480704190128A74A9F03B
:10556000A3742DF0A37491F0A3742DF0A374A9F08B
:10557000A3742DF0A374A9F0A3742DF0A37491F07B
:10558000A3742DF0A374A9F0A3742DF0A374AFF04D
:10559000A3742DF090047874088005900478740743
:1055A000F09012987491F0A3742DF0A37491F0A36D
:1055B000742DF0A37491F0A3742DF0A37491F0A353
:1055C000742DF0A37491F0A3742DF0A37491F0A343
:1055D000742DF07F0602159AC082C083906190748A
:1055E00004F0A37448F0A37402F09061807440F05A
:1055F0009061BC7403F09061877419F090626574D7
:105600001BF0906249E0C3941390619C400A7409B6
:10561000F090606674018007740DF0906066E4F0AD
:1056200090619A7433F0A37455F09061A0743AF0CD
:105630009007F4E064017009C29190047C74678063
:105640000590047C7461F09037F2E493906186F0E9
:105650009037F4E493F46027E493540FF890618555
:10566000E0686012E5C654804449F5C6E59E547F63
:10567000644970F8E8F053C680E59E547F70FA796B
:1056800005122F41025A79C082C083E9540FF99064
:105690006185E0696012E5C654804449F5C6E59E1F
:1056A000547F644970F8E9F053C680E59E547F70DA
:1056B000FA025A79C082C083E5A8F853A87E9061A7
:1056C00081E4F0A3F0A3F0C2BA539AFEC289759B9D
:1056D00000C2C275E90075910075BF0075A911750A
:1056E000B905906181F0A374C0F0A3E4F0D2BA438D
:1056F0009A0174805842A8025A79F0025A79C082FD
:10570000C08374F812145890047AE0F8A3E0F9E822
:1057100049700302582C90047AE0544060237908C1
:10572000851882851983AA82AB83122D4985188238
:10573000851983AA82AB83122A4390047AE054BF6E
:10574000F0E054806010790C7A1A7B08122D499091
:10575000047AE0547FF0E0A2E0503190619A743313
:10576000F0A37455F09061A0743AF09007F4E064EF
:10577000017009C29190047C7467800590047C7468
:1057800061F0122A4990047AE054FEF0E05402607D
:105790003190619A743FF0A3745AF09061A0747FC5
:1057A000F09007F4E064017009D29190047C747168
:1057B000800590047C746AF0122A4990047AE054BF
:1057C000FDF0E0540460139037F0E493906186F0AC
:1057D000122A4F90047AE054FBF0E05408601390D2
:1057E00037F1E493906186F0122A4F90047AE054E6
:1057F000F7F0E0541060139037F2E493906186F074
:10580000122A4F90047AE054EFF0E05420600A121C
:105810002A4F90047AE054DFF0A3E05401600D12A7
:105820002C53122A5590047BE054FEF07408121495
:105830006E025A7974EC1214C874F4121458851854
:1058400082851983AC82AD8375838A75825E740408
:1058500012136B9037F093F460030259C0907808EC
:10586000E0C3940250030259A074041214A4AC8241
:10587000AD837583897582E4740812136B85188271
:1058800085198385821285831374041214A4AC8253
:10589000AD83750EFF750FFF7FFF7E00750C487599
:1058A0000D78801574086E700302593474096E7097
:1058B00003025934740A6E607B850C82850D8378EF
:1058C000081213108C828D83A909E50AC9F8881083
:1058D00074187808121213E5104508F8C3E098A36D
:1058E000E099850C82850D83780812131040188C7E
:1058F000828D8374187808121213E5104508F8E0B9
:10590000C398F8A3E0801C74187808121213E510ED
:105910004508FAE9FB8C828D83E0F8A3E0F9EAC33D
:1059200098F8EB99F9C3E8950EE9950F5006880EA3
:10593000890FEEFF0EE50C2404F50CE50D3400F59F
:105940000DEEC3941350030258A474FF650E700447
:1059500074FF650F60238F08740278081214457471
:10596000482508F58274783509F5837808121310F4
:10597000851282851383E508F0EC2402FCED3400E7
:10598000FD851282851383A3858212858313740C8F
:105990001214A4E5826C7003E5836D6003025892D3
:1059A000750801750900780812162474021214A4EF
:1059B000AC82AD837AFC7B0D1234E1740212146E5A
:1059C000740C12146E7F0C02159AC082C083906111
:1059D000AE7468F0A3746AF090624574FBF0A3049F
:1059E000F053F4FD43FE029007F47401F09061A0BF
:1059F000E0643A90619A70237433F0A37455F09088
:105A000061A0743AF0740164017009C29190047C41
:105A10007467802890047C74618021743FF0A374C3
:105A20005AF09061A0747FF0740164017009D29102
:105A300090047C7471800590047C746A0256FAC0EC
:105A400082C0839007D2E0640170119007D8E064AF
:105A5000016019E07006A3E0640160109007E9E0BE
:105A60006401700C9007EFE064017004790C80020F
:105A700079008005E0F9122367D083D08202024EBC
:105A8000C082C0839007DC7425F09007DA7401F0BF
:105A9000A3E4F07A01FB122EBD9007C8E0F8A3E062
:105AA000C82416F582E83400F5837477F0A3742CCB
:105AB000F09007D9E0640170169007D8E070107973
:105AC00001122F1D122EED122F177900122F29020D
:105AD0005A79C082C08374FA1214589007D1E064D6
:105AE000017008122C5F9007D1E4F075E1F1900786
:105AF000C8E0F8A3E0C82415F582E83400F5837403
:105B000001F09007D3E064017076908A09C0828525
:105B10001882851983AC82AD8375838AD08274061E
:105B200012136B75D90D9007CAE0C4333354C044C7
:105B300003F5D978C8790788828983A3A3A3E0F500
:105B4000D988828983A3A882A983E864CE7003E9F7
:105B5000640770E3851882851983A882A9838882E7
:105B60008983E0F5D9A3A882A98374061214A4E559
:105B700082687003E5836970E575E19579018002BB
:105B80007900122EC390128A74C7F0A3742DF0A36B
:105B900074CDF0A3742DF0A374C7F0A3742DF0A3FB
:105BA00074C7F0A3742DF0A37491F0A3742DF0A327
:105BB0007491F0A3742DF0A374D3F0A3742DF0901E
:105BC00012987491F0A3742DF0A37491F0A3742D26
:105BD000F0A37491F0A3742DF0A37491F0A3742D2D
:105BE000F0A37491F0A3742DF0A37491F0A3742D1D
:105BF000F09007CAE0F97ACB7B07122E9F9007DC62
:105C0000E0F91223677901122EC97AD67BBE7C890E
:105C10007D8E122EE17A557B557C557D00122EAB80
:105C20007900122F359007C8E0F8A3E0C82414F5D6
:105C300082E83400F5837416F09004787405F0045B
:105C400002582E74F71214C88908A808E875F005E0
:105C5000A4C8AAF02AF974A828FE740439FF900792
:105C6000E1E0F97AE27B07122E9F9007EFE0701ACD
:105C70007900122EFF9007B7E07004790080027956
:105C8000017AB87B07122EA580057901122EFF75C7
:105C9000E1F175D9239007E1E0C4333354C04405E2
:105CA000F5D978DF790788828983A3A3A3E0F5D9A2
:105CB00088828983A3A882A983E864E57003E964E4
:105CC0000770E375D90075D90075D90075D90075CD
:105CD000D90075D900EEF8EFF9E82404FAE93400A8
:105CE000FBE82422F582E93400F583E0F5D98882C7
:105CF0008983A3A882A983EA687002EB6970E2EE47
:105D0000F8EFF9E824031AE93400FBE82426F582C9
:105D1000E93400F583E0F5D988828983A3A882A9B4
:105D200083EA687002EB6970E2EE242BF582EF34AF
:105D300000F583E0F5D9EE242CF582EF3400F583ED
:105D4000E0F5D9EE242DF582EF3400F583E0F5D9A6
:105D5000EE242EF582EF3400F583E0F5D9EE242F02
:105D6000F582EF3400F583E0F5D9EE2430F582EFCB
:105D70003400F583E0F5D9EE2431F582EF3400F5F7
:105D800083E0F5D9EE2432F582EF3400F583E0F5B7
:105D9000D9EE2433F582EF3400F583E0F5D9EEF83F
:105DA000EFF9E82405FAE93400FBE8245DF582E91F
:105DB0003400F583E0F5D988828983A3A882A9837A
:105DC000EA687002EB6970E2EE2437F582EF340086
:105DD000F583E0541FF8EE242AF582EF3400F583B2
:105DE000E0C43354E048F5D975E19590128A749770
:105DF000F0A3742DF0A3749DF0A3742DF0A37491FF
:105E0000F0A3742DF0A37491F0A3742DF0A37491FA
:105E1000F0A3742DF0A37491F0A3742DF0A374A3D8
:105E2000F0A3742DF09012987491F0A3742DF0A348
:105E30007491F0A3742DF0A37491F0A3742DF0A3CA
:105E40007491F0A3742DF0A37491F0A3742DF0A3BA
:105E50007491F0A3742DF09007EEE0F91223677AA5
:105E6000D67BBE7C897D8E122EE17A557B557C5582
:105E70007D00122EAB90600DE4F07901122F359069
:105E800004787406F002643C74E81214C89007DFCA
:105E9000E0F8A3E0F5838882A3A3780C1213109096
:105EA00007F0E0FAF875F005A4C8ACF02CF974D648
:105EB00028F582740439F583E0FEA3E0FFEEC333D6
:105EC000FEEF33FF8E14F515751600751700850C5F
:105ED00008850D09850E0A850F0B751004751100D4
:105EE0007512007513007808791012124B78081299
:105EF0001620850C08850D09850E0A850F0B78087C
:105F0000791412124B780C7914121111E4F516F56C
:105F100017780879141212848A0C750D00740378AE
:105F20000C121445E50D3395E0F50EF50F78087960
:105F30000C12124B750CFF750DFF750EFF7808796A
:105F40000C1212C4AA08AB09AC0A7D001223127409
:105F50000412146E8A088B09A808A909C3EE98EFE9
:105F6000995006E82EF8E93FF9E890600EF0E9A3B1
:105F7000F0EEA3F0EFA3F090600D74C1F07F10027B
:105F8000159AC082C0839007C8E0F8A3E0C8240631
:105F9000F582E83400F583E4F0A3F09007DC025AC0
:105FA00074C082C0839007DFE0F8A3E0C82406F540
:105FB00082E83400F583E4F0A3F09007EE025A740F
:105FC00002024E74F61214C89061D0E0F87480C3D7
:105FD00098FCEA2482F582EB3400F583E0600478D3
:105FE0000480027800E8240EF8ECC39850030260A5
:105FF000EF7C0C9007FAE4F0EA2476F582EB3400AB
:10600000F583E09007FBF0EA2477F8EB3400F98899
:10601000828983E09007FCF088828983A3E090075F
:10602000FDF0EA2479F8EB3400F988828983E09066
:1060300007FEF088828983A3E09007FFF0EA247BC3
:10604000F8EB3400F988828983E0900800F08882B8
:106050008983A3E0900801F0EA247DF8EB3400F98D
:1060600088828983E0900802F088828983A3E09087
:106070000803F0EA2474F8EB3400F98A828B83A3D6
:10608000A3A3A3A3E0FEA3E0FF88828983E02EF010
:10609000A3E03FF088828983E0900804F088828939
:1060A00083A3E0900805F0EA2482F582EB3400F542
:1060B00083E060177508FA750907780812162479C5
:1060C00003122D85740212146E7C1074012CF5D904
:1060D00075D9037582FA758307ECFEE0F5D9A31E26
:1060E000EE70F875E1957904122EE7790180027956
:1060F000000265EC74F61214C89061D0E0F8748068
:10610000C398FCEA2482F582EB3400F583E0600456
:10611000780480027800E8240AF8ECC3985003025F
:1061200061E77508089007FA7401F07CBE7D077876
:10613000FB79077E058C828D83E088828983F08CD1
:10614000828D83A3AC82AD8388828983A3A882A930
:10615000831EEE70E0EA2480FCEB3400FD8A828B23
:1061600083A3A3A3A3A3E0FEA3E0FF8C828D83E01F
:106170002EF0A3E03FF08C828D83E088828983F04B
:106180008C828D83A3AC82AD8388828983A308A986
:10619000838C828D83E088828983F0EA2482F58271
:1061A000EB3400F583E0601A7508FA750907780882
:1061B0001216247C087903122D85740212146E7550
:1061C000080C74012508F5D975D9037582FA758311
:1061D00007AE08E0F5D9A31EEE70F875E1957904D5
:1061E000122EE77901800279000265EC74F712142F
:1061F000C8EAFEEBFF9061D0E060030262D375D97C
:106200001875D90375D903EEF8EFF9E82408FAE90F
:106210003400FBE8249BF582E93400F583E0F5D9EE
:1062200088828983A3A882A983EA687002EB6970D7
:10623000E2EE24A3F582EF3400F583E0F5D9EE24F5
:10624000A4F582EF3400F583E0F5D9EE2493F582CE
:10625000EF3400F583E5822408F8E5833400F9E0A3
:10626000F5D9A3E865827003E9658370F2EE2487AF
:10627000F582EF3400F583E5822404F8E5833400E9
:10628000F9E0F5D9A3E865827003E9658370F275DA
:10629000E1957908EE2493FAEF3400FB122D3D7955
:1062A00004EE2487FAEF3400FB122D3D7904122E00
:1062B000E7EE246FF582EF3400F583E0F8A3E0F910
:1062C000EE2471F582EF3400F583E8F0A3E9F0796C
:1062D000018002790002643C74F61214C8EAFEEBF5
:1062E000FF9007FA7406F07508FA75090778081226
:1062F00016247C017903122D85740212146E75D94F
:106300000675D9037582FA758307E0F5D9A3E5828E
:1063100064FF7004E583640770F075E1959004787C
:10632000E06408701EEE246FF582EF3400F583E020
:10633000F8A3E0F9EE2471F582EF3400F583E8F07C
:10634000A3E9F079010265EC74F61214C8EAFEEBD9
:10635000FF9061D0E0705E9007FA740AF07508FA59
:1063600075090778081216247C017903122D8574AB
:106370000212146E75D90675D9037582FA758307F2
:10638000E0F5D9A3E58264FF7004E583640770F04B
:1063900075E195EE246FF582EF3400F583E0F8A304
:1063A000E0F9EE2471F582EF3400F583E8F0A3E91B
:1063B000F07901800279000265EC74F61214C8EAE3
:1063C000FEEBFF9061D0E0706678019007FA740BE5
:1063D000F0900478E0640770197508FA7509077879
:1063E000081216247C017903122D85740212146E92
:1063F0007805740128F5D975D9037582FA75830774
:10640000E8FAE0F5D9A31AEA70F875E195EE246F81
:10641000F582EF3400F583E0F8A3E0F9EE2471F59E
:1064200082EF3400F583E8F0A3E9F0790180027986
:10643000000265ECF0EEA2E092AF79007F01021558
:106440009A74F61214C8EAFEEBFF9061D0E0F8747B
:1064500080C398FAEE2482F582EF3400F583E06081
:1064600004780480027800E8240BF8EAC39850030B
:106470000265177D099007FA7408F0EE24E4F8EF3E
:106480003400F97AFB7B077C0888828983E08A8262
:106490008B83F088828983A3A882A9838A828B83D5
:1064A000A3AA82AB831CEC70E0EE2482F582EF3469
:1064B00000F583E0601D7508FA7509077808121663
:1064C000247C097903EEFAEFFB122D857402121475
:1064D0006E7D0D74012DF5D975D9037582FA75831A
:1064E000078D08E0F5D9A31508E50870F675E19564
:1064F0007904122EE7EE246FF582EF3400F583E085
:10650000F8A3E0F9EE2471F582EF3400F583E8F0AA
:10651000A3E9F07901800279000265EC74F61214A7
:10652000C8EAFEEBFF9061D0E0F87480C398FAEE01
:106530002482F582EF3400F583E060047804800261
:106540007800E82408F8EAC39850030265EA780660
:106550009007FA740CF0900495E09007FBF090041B
:1065600096E09007FCF0900497E09007FDF090040F
:1065700098E09007FEF0900499E09007FFF0EE2479
:1065800082F582EF3400F583E0601B7508FA750927
:106590000778081216247C067903EEFA122D85740A
:1065A0000212146E780A740128F5D975D903758220
:1065B000FA7583078808E0F5D9A31508E50870F691
:1065C00075E1957904122EE7EE246FF582EF340021
:1065D000F583E0F8A3E0F9EE2471F582EF3400F5DD
:1065E00083E8F0A3E9F07901800279007F020215C7
:1065F0009A74F61214C8EAFEEBFF9061D0E0F874CA
:1066000080C398FAEE2482F582EF3400F583E060CF
:1066100004780480027800E82404F8EAC398500360
:106620000266CB78029007FAE8F0EE24F6F582EFE6
:106630003400F583E09007FBF0EE2482F582EF341E
:1066400000F583E0601B7508FA75090778081216D3
:10665000247C027903EEFA122D85740212146E78EE
:1066600006740128F5D975D9037582FA75830788F0
