:020000040000FA
:10080000020DB0021E3FFFFFFFFFFFFFFFFFFFFFD4
:10081000FFFFFFFFFFFFFFFFFFFFFFFFFFFFFFFFE8
:10082000FFFFFFFFFFFFFFFFFFFFFF0222BFFFFFF2
:10083000FFFFFF022299FFFFFFFFFF0222E0FFFF01
:10084000FFFFFF02224DFFFFFFFFFFFFFFFFFFFF44
:10085000FFFFFF021EB2FFFFFFFFFFFFFFFFFFFFD3
:10086000FFFFFFFFFFFFFFFFFFFFFF022273FFFFFE
:10087000FFFFFFFFFFFFFFFFFFFFFFFFFFFFFFFF88
:10088000FFFFFF021CABFFFFFFFFFFFFFFFFFFFFAC
:10089000CFCEFFFFFFFFFFFFFFFFFFFFFFFFFFFFC9
:1008A000FFFFFFFFFFFFFFFFFFFFFFFFFFFFFFFF58
:1008B000FFFFFFFFFFFFFFFFFFFFFFFFFFFFFFFF48
:1008C000FFFFFFFFFFFFFFFFFFFFFFFFFFFFFFFF38
:1008D000FFFFFFFFFFFFFFFFFFFFFFFFFFFFFFFF28
:1008E000FFFFFFFFFFFFFFFFFFFFFFFFFFFFFFFF18
:1008F000FFFFFFFFFFFFFFFFFFFFFFFFFFFFFFFF08
:100900000001FFFFFFFFFFFFFFFFFFFFFFFFFFFFF4
:10091000FFFFFFFFFFFFFFFFFFFFFFFFFFFFFFFFE7
:10092000FFFFFFFFFFFFFFFFFFFFFFFFFFFFFFFFD7
:10093000FFFFFFFFFFFFFFFFFFFFFFFFFFFFFFFFC7
:10094000FFFFFFFFFFFFFFFFFFFFFFFFFFFFFFFFB7
:10095000FFFFFFFFFFFFFFFFFFFFFFFFFFFFFFFFA7
:10096000FFFFFFFFFFFFFFFFFFFFFFFFFFFFFFFF97
:10097000FFFFFFFFFFFFFFFFFFFFFFFFFFFFFFFF87
:10098000FFFFFFFFFFFFFFFFFFFFFFFFFFFFFFFF77
:10099000FFFFFFFFFFFFFFFFFFFFFFFFFFFFFFFF67
:1009A000FFFFFFFFFFFFFFFFFFFFFFFFFFFFFFFF57
:1009B000FFFFFFFFFFFFFFFFFFFFFFFFFFFFFFFF47
:1009C000FFFFFFFFFFFFFFFFFFFFFFFFFFFFFFFF37
:1009D000FFFFFFFFFFFFFFFFFFFFFFFFFFFFFFFF27
:1009E000FFFFFFFFFFFFFFFFFFFFFFFFFFFFFFFF17
:1009F000FFFFFFFFFFFFFFFFFFFFFFFFFFFFFFFF07
:100A0000AA55FF0000B4000028002800283075A077
:100A100000A000A000A00000080008E001F0001005
:100A20000010001000100010001000500050005086
:100A30000010001000D0070000000000000F0001AF
:100A4000000500307507001000010081FF00000064
:100A500000FF472565254D25FF02020208025000D0
:100A6000A0000000E803024E860100003C86024A16
:100A700086010000F30B024486010000B202024A24
:100A800086010000F40B024286010000C802024AFF
:100A900086010000F50B026A86010000CA02024AC4
:100AA00086010000F60B025286080000CB02024AC3
:100AB00086010000F70B025486010000F80BFF01CD
:100AC00000FF20024E860100003F86024A86010098
:100AD000005C0C027C8600000000000246860300D9
:100AE000001803172B172B172B172B172B172B1748
:100AF0002B172B172B172B172B172B172B992DB1C8
:100B00002D932DFFFF020202020202020202010DDA
:100B10000000001001024E860100003986024A865C
:100B20000100009F0C026686010000E507024A866C
:100B3000010000A00C0264860100002985024A869B
:100B4000010000A10C026286010000F384024A86C3
:100B5000010000A20C0260860100002984024A867E
:100B6000010000A30C025E860100004D84024A864B
:100B7000010000A40C025C860100007184024A8618
:100B8000010000A50C025A860100005F84024A861B
:100B9000010000A60C0258860100000185024A8669
:100BA000010000A70C025686010000A80C01E80312
:100BB000053F100AFA00FF0001307503020106002C
:100BC0000000000000000000000000000000000025
:100BD0000000000000000000000000FFFF06008091
:100BE0000CE803140953696D706C65424C455065FF
:100BF000726970686572616C051214002003020A44
:100C0000000201060302F0FF53696D706C6520421B
:100C10004C45205065726970686572616CDF320006
:100C200000EB320A436861726163746572697374C0
:100C3000696320310002436861726163746572699F
:100C4000737469632032000843686172616374657C
:100C50007269737469632033001043686172616361
:100C60007465726973746963203400024368617249
:100C7000616374657269737469632035000A43683F
:100C8000617261637465726973746963203600020E
:100C90004E860100003686024A86010000BD0D0224
:100CA0007086030000510B024886010000BE0D0251
:100CB0004A86010000CF0D027286010000520B022D
:100CC0004886010000D00D024A86010000E10D02B5
:100CD0007486020000530B024886010000E20D02F8
:100CE0004A86010000F30D027686000000540B02D4
:100CF0004686030000550B024886010000F40D02F1
:100D00004A86010000050E0278860400005B0B0293
:100D10004886010000060E024A86010000170E02F6
:100D20007A86030000600B024886010000180EE579
:100D3000C754F84401F5C779012200000080FB1276
:100D40000D2FB90003020D9AE479217808B800024A
:100D50008004F709D8FCE479297802B800028004FD
:100D6000F709D8FCE4900280781D790A8002F0A38C
:100D7000D8FCD9FA7A9C7B0B900A02782E790480F1
:100D800015E493A3AD82AE838A828B83F0A3AA82FB
:100D9000AB838D828E83D8E9D9E77582DD7583CAEE
:100DA0007403120DC275823A75830D7400120DC260
:100DB00075D00075813F751880751902759F000206
:100DC0000D3FC09FF59FE473D09F22D083D082C097
:100DD0009FE493C0E0740193C0E0740293F59F22F6
:100DE000FFFFFFFFFFFFFFFFFFFFFFFFFFFFFFFF13
:100DF000FFFFFFFFFFFFFFFFFFFFFFFFFFFFFFFF03
:100E0000FFFFFFFFFFFFFFFFFFFFFFFFFFFFFFFFF2
:100E1000FFFFFFFFFFFFFFFFFFFFFFFFFFFFFFFFE2
:1010000001BEE066701008A3E066700A08A3E066FF
:10101000700408A3E06622C3E7960809E79608096A
:10102000E7960809E79622C3E09608A3E09608A38E
:10103000E09608A3E09622C008C3E096F50808A34E
:10104000E096420808A3E096420808A3E096450807
:101050007001D3D00822080808EAC0E0EBC0E0869F
:10106000F0E7A4FA180986F0E7A42AFA180986F02E
:10107000E7A42AFA180986F0E7A42AFA1986F0E705
:10108000A4FBE5F02AFA190886F0E7A42BFBE5F0AB
:101090003AFA190886F0E7A42BFBE5F03AFA18189B
:1010A0000986F0E7A4C5F02BFBE43AFA1908E7C576
:1010B000F0C6A426F6E5F03BFBE43AFA1886F0E722
:1010C000A4F6E5F00826F6E43B08F6E43A08F6D084
:1010D000E0FBD0E0FA22E4CFC0E0E4CEC0E0E4CD13
:1010E000C0E0E4CCC0E075F020E626F608E633F672
:1010F00008E633F608E633F6181818EC33FCED333F
:10110000FDEE33FEEF33FFC3EC9709ED9709EE9741
:1011100009EF97191919400FFFEC97FC09ED97FD9E
:1011200009EE97FE191906D5F0BFECF709EDF7099E
:10113000EEF709EFF7191919D0E0FCD0E0FDD0E087
:10114000FED0E0FF226016080808C6C313C618C602
:1011500013C618C613C618C613C6D5E0EA2270090E
:10116000080808226016181818C6C333C608C63304
:10117000C608C633C608C633C6D5E0EA22E627F657
:101180000809E637F60809E637F60809E637F622D1
:10119000E026F608A3E036F608A3E036F608A3E05A
:1011A00036F622E026F008A3E036F008A3E036F099
:1011B00008A3E036F022C3E697F60809E697F6089A
:1011C00009E697F60809E697F622C3E096F008A329
:1011D000E096F008A3E096F008A3E096F022E65728
:1011E000F60809E657F60809E657F60809E657F63D
:1011F00022E056F608A3E056F608A3E056F608A348
:10120000E056F622E056F008A3E056F008A3E056B8
:10121000F008A3E056F022E0F608A3E0F608A3E009
:10122000F608A3E0F622E6F008A3E6F008A3E6F04D
:1012300008A3E6F022E0FAA3E0FBA3E0FCA3E0FDB4
:1012400022EAF0A3EBF0A3ECF0A3EDF022E0F8A388
:10125000E0F9A3E0FAA3E0FB22E8F0A3E9F0A3EAB7
:10126000F0A3EBF022CAC0E0E6F0A308DAFAD0E07F
:10127000FA22CAC0E0E0A3C582CCC582C583CDC531
:1012800083F0A3C582CCC582C583CDC583DAE6D001
:10129000E0CA22C3E498F8E499F91212D48026C374
:1012A000E49AFAE49BFBE920E7E91212D4E498F807
:1012B000E499F922C3E498F8E499F91212D4E49875
:1012C000F8E499F9C3E49AFAE49BFB22EB20E7CF18
:1012D000E920E7E0B90010BB0008E88AF084F8AA2A
:1012E000F022E4FBC8FA22EB70227B10C833C8C995
:1012F00033C9335007C39AC3DBF280069A50012AE0
:10130000DBEAC833F4C8C933F4C9FA2275F008E43B
:10131000C833C8C933C933C99AC99B5004C92AC93B
:101320003BD5F0ECFBC833F4C8E4C9FA22600D08E1
:10133000C6A2E713C618C613C6D5E0F322600C0890
:10134000C6C313C618C613C6D5E0F42270042260C3
:101350000D18C6C333C608C633C6D5E0F418222517
:101360001810AF08F518400C15198008F518400240
:101370001519D2AF2200C0D0251810AF08F51850AB
:101380000C05198008F51850020519D2AFD0D022EB
:101390002518F58210AF08F518400C15198008F5CE
:1013A0001840021519D2AF851983222518F582E459
:1013B0003519F583222518F8E43519F9222518FA8C
:1013C000E43519FB222518FCE43519FD22E47325C8
:1013D00018C582C0E0E51934FFC583C0E0E518C335
:1013E000958224F810AF08858319858218800885B6
:1013F0008319858218D2AFCEF0A3E520F0A3780838
:10140000E608F0A3DEFAEFF0A3E58124FAF8E60897
:10141000F0A3E608F0A3E608F0A30808E608F0A3A6
:10142000E608F0A315811581D0E0FED0E0F8158123
:1014300015811581E8C0E0EEC0E0222518C582C004
:10144000E0E51934FFC583C0E0E518C3958224F9AF
:1014500010AF0885831985821880088583198582D5
:1014600018D2AFCEF0A3E520F0A37808E608F0A3E9
:10147000DEFAEFF0A3E58124FBF8E608F0A3E60826
:10148000F0A30808E608F0A3E608F0A3158115818B
:10149000D0E0FED0E0F815811581E8C0E0EEC0E0B4
:1014A00022851983851882E0A3FEE0A3F520780841
:1014B000E0A3F608DFFAE0A3FFE0A3C0E0E0A3C0EA
:1014C000E0E0A3C0E0E0A3C0E0E0A3C0E010AF080C
:1014D0008582188583198008858218858319D2AF83
:1014E000D083D082020DC8851983851882E0A3FEBF
:1014F000E0A3F5207808E0A3F608DFFAE0A3FFE018
:10150000A3C0E0E0A3C0E0E0A3C0E0E0A3C0E0101F
:10151000AF0885821885831980088582188583190C
:10152000D2AFD083D08222C0D02518C582C0E0E5DA
:101530001934FFC583C0E0E518C3958224F310AFCA
:10154000088583198582188008858319858218D2B9
:10155000AFC8F0A3E9F0A3EAF0A3EBF0A37908E7A2
:1015600009F0A3D8FAECF0A3EDF0A3EEF0A3EFF0AE
:10157000A3D0E0F0A3D0E0F0A3D0E0F0A3E520F00A
:10158000A3E5F0F0A322851983851882E0C0E0A3CB
:10159000E0F9A3E0FAA3E0FBA37808E0F608A3DFF4
:1015A000FAE0FCA3E0FDA3E0FEA3E0FFA3E0C0E0BF
:1015B000A3E0C0E0A3E0F5D0A3E0F520A3E0A3F50D
:1015C000F010AF08858319858218800885831985F6
:1015D0008218D2AFD082D083D0E0F8D0E032740449
:1015E0008006740280027401C0E0F404121390D0EB
:1015F000E0121265227404800474028000CCC0E002
:10160000EDC0E0E518C39CCCAD1950011D10AF062C
:101610008C188D1980068C188D19D2AF121272D0C9
:10162000E0FDD0E0FC22D083D082E9C0E0E493A3C7
:10163000C386F0C5F095F0F908E493A386F0C5F0F1
:1016400095F0700BE493A3C3994005E9048002A3CD
:10165000E475F002A42582F582E5F03583F583D0A8
:10166000E0F9E493A3C0E0E493C0E022D083D08209
:10167000ECC0E0EDC0E0E493A3FCE493A3FDED4CEB
:10168000600D1216B8EC24FFFCED34FFFD80EFE492
:1016900093A3FCE493A3FDED4C600D1216F7EC242C
:1016A000FFFCED34FFFD80EFD0E0FDD0E0FCE493E3
:1016B000A3C0E0E493C0E022C0E0C3E493960874C2
:1016C00001939618400FE4936670080874019366BE
:1016D0001870007019A3A3C3E4939608740193963D
:1016E00018A3A3400DD0E0D0E0D0E00216A8A3A339
:1016F000A3A3A3A3D0E022C0E0C0F088F0E49366E7
:1017000070080874019366187000A8F0A3A3700B0A
:10171000D0F0D0E0D0E0D0E00216A8A3A3D0F0D063
:10172000E022FFFF74F512143BEAFEEBFFEE2434D7
:10173000F8EF3400F988088909EE2435F582EF3492
:1017400000F583E0F8EE2437F582EF3400F583E00E
:10175000F50AEC850AF0A4FCAAF0850AF0EDA42AAB
:10176000FDE82CF8E43DF97A257B001212D4EA85D5
:101770000882850983F0F8740758F97401B90002EA
:101780008004C333D9FCFAE8131313541FF8EE286E
:10179000F8EF3400F9E8245DF582E93400F583E0E0
:1017A0005A6008EE2434F582EF802CEE2434F58262
:1017B000EF3400F583E0C0E0EE2436F582EF34002C
:1017C000F583E0F5F0D0E084A8F0EE28F8EF3400DF
:1017D000F9E82438F582E93400F583E0F97F040262
:1017E00014E774F512143BEAFEEBFFEE2434F582A5
:1017F000EF3400F583E0C0E0EE2435F582EF3400ED
:10180000F583D0E0F08E828F83A3A3A3A3A3A3A329
:10181000C082C0838E828F83A3A3A3A3A3E0F8A377
:10182000E0F9D083D082E0C398F508A3E099F509E8
:10183000EE247FF582EF3400F583E064017069EEF9
:101840002480F582EF3400F583E0F8A3E0F98E827E
:101850008F83A3A3A3A3A3A3A3E0FCA3E0FD8E8295
:101860008F83A3A3A3A3A3E0FAA3E0FBC3EA9CEBAB
:101870009D5010C3EC98ED99402EC3EA98EB995017
:1018800027800EC3EA98EB994007C3EC98ED994086
:10189000177CDB7D04EEFAEFFB122A75EE247FF550
:1018A00082EF3400F583E4F0EE2434F8EF3400F9ED
:1018B000E8FCE9FDEE2435F582EF3400F583E0F82D
:1018C000EE2437F582EF3400F583E0F50AE508856C
:1018D0000AF0A4F508AAF0850AF0E509A42AF5099A
:1018E000E82508F8E43509F97A257B001212D4EAD4
:1018F0008C828D83F0F8740758F97401B900028066
:1019000004C333D9FCFAE8131313541FF8EE28F874
:10191000EF3400F9E8245DF582E93400F583E05AFC
:101920006008EE2434F582EF802CEE2434F582EF4B
:101930003400F583E0C0E0EE2436F582EF3400F5A4
:1019400083E0F5F0D0E084A8F0EE28F8EF3400F959
:10195000E82438F582E93400F583E0F912223902EF
:1019600017DDC082C083851882851983E0F8A3E063
:10197000F9C3EA9CEB9D5010C3EC98ED99401BC352
:10198000EA98EB995014800EC3EA98EB994007C38C
:10199000EC98ED994004790180027900D083D082DF
:1019A00022EAC39CFAEB9DFB2274EF12143B9003D6
:1019B000A1E064086005E06407702A9061C8E060F7
:1019C000249003CFE0F4601DE0F875F003A4C8AAEA
:1019D000F02AF974D128FE740339FF8E828F83A315
:1019E000A3A3E07003021AD9906060E0C0E0EE2487
:1019F00068F582EF3400F583D0E0F0750C44750D86
:101A000005750800750900E5D914F50AE5D95403F0
:101A1000F50E60177403650E605CE50A6010EE2435
:101A200067F582EF3400F583E07003021ABE90057B
:101A30003FE06401602AEE2482F582EF3400F583F2
:101A4000E06004780480027800850A08E508C398FD
:101A5000FA95E0FB1229438A088B09EA45097005CB
:101A6000122C678074EE2482F582EF3400F583E057
:101A700070048A0C8B0DE50A6012850C82850D833B
:101A8000F50BE5D9F0A3150BE50B70F6EE2482F506
:101A900082EF3400F583E0604474FC250AF50A788F
:101AA0000C1215E2AC0AA90EEEFAEFFB122B117420
:101AB00002121375E97026AA08AB091231F5793DB7
:101AC0008E828F83A3A3A3A3E0FA7B00122817EED4
:101AD000FAEFFB122A8D122B2379008074740365B0
:101AE0000E6056850A1075110078101215E2AC0CC4
:101AF000AD0DAA08AB09122AED7402121375EE247B
:101B000068F582EF3400F583E064807004747F80B0
:101B100001E0F50C780C1215E6E50EF50C780C12C8
:101B200015E6A90AAC08AD099003CFE0FA7B0012D4
:101B300027DB740212137580139003A1E064086020
:101B40000BAC0CAD0DEEFAEFFB122B7D122C737962
:101B5000017F0A0214E774F512143B74FC12135F40
:101B6000EAFEEBFF8908A2AFE433F509C2AF806A51
:101B7000EE2463F8EF3400F97A007B00A2AFE4337F
:101B8000F50AC2AF88828983E0FCA3E0FDEC4D60DA
:101B90003A88828983E0FAA3E0FB8A828B83E0FCA7
:101BA000A3E0FD88828983ECF0A3EDF08A828B8329
:101BB000E4F0A3F088828983E0FCA3E0FDEC4D70A3
:101BC0000A88828983A3A3E4F0A3F0E50AA2E09245
:101BD000AF1231F59004E2E004F0EE2463F582EFF9
:101BE0003400F583E0F8A3E0F9E849603DEE2463B2
:101BF000F582EF3400F583E02402FAA3E03400FB21
:101C0000EA2402F50AEB3400F50B780A1215E28A91
:101C1000828B83E0FCA3E0F9EEFAEFFB122AB174A9
:101C200002121375E97003021B709004E2E0606316
:101C30009004E3E0F89004E2E0C398500C7402656D
:101C40000870509004E4E0604A8E828F83A3A3A3BF
:101C5000A3E0851882851983F0A3E4F09004E2E004
:101C6000F874021213ABE8F0A3E4F09004E2E0F899
:101C70009004E1E028F074021213ABAC82AD8385CE
:101C80001882851983AA82AB8379011227E7900411
:101C9000E2E4F0E509A2E092AF74041213750217B2
:101CA000DDFFFFFF8521878522C622C0E0C0D0E886
:101CB000C0E0E9C0E0EAC0E0EBC0E0ECC0E0EDC0AD
:101CC000E0EEC0E0C008C009C00AC00BC082C083FB
:101CD000C0F0A2AFE433FEC2AF759B00906182E01A
:101CE000A2E05012E591A2E0500C7591FE740165DE
:101CF0002170031219A9E0A2E55051E591A2E55027
:101D00004B7591DF9003A1E064076005E064087003
:101D10002374016521703579019003CFE0FA75F0E5
:101D200003A4CAA8F028FB74D12AFA74033BFB125F
:101D30001B568018E0640D70139003C3E004F06438
:101D4000287002E4F07A00E0F9122C79906182E0C8
:101D5000A2E64003021DF2E591A2E64003021DF255
:101D60007591BF9003A1E064057008122BA7122B98
:101D7000B38003122BAD752100122C07E99003A24A
:101D8000F07900122BFB1229EB7A017B009003A063
:101D9000E0F9122ED1907803E0644270559005432B
:101DA000E014F0704DC2AF121DAA00782AD0E0F600
:101DB00018D0E0F6E59F540770057509FF8003759C
:101DC000097FC4C0E07829E6F50808E65509F50959
:101DD000740B780812133DD0E02508F8906270E08B
:101DE000A2E740F8E8C333906272F0906270E0D2EC
:101DF000E0F0906181E0A2E35009E5E9A2E350033D
:101E000075E9F7A3E0A2E75009E591A2E750037551
:101E1000917FEEA2E092AFD0F0D083D082D00BD0F1
:101E20000AD009D008D0E0FED0E0FDD0E0FCD0E040
:101E3000FBD0E0FAD0E0F9D0E0F8D0D0D0E032C06A
:101E4000E0C0D0C082C083906183E0A2E05009E589
:101E5000BFA2E0500375BFFEE0A2E15009E5BFA2BA
:101E6000E1500375BFFDE0A2E25009E5BFA2E250D8
:101E70000375BFFBE0A2E35009E5BFA2E350037581
:101E8000BFF7E0A2E45009E5BFA2E4500375BFEF3D
:101E9000E0A2E55009E5BFA2E5500375BFDFE0A26F
:101EA000E65009E5BFA2E6500375BFBFD083D082DC
:101EB0008088C0E0C0D0E8C0E0E9C0E0EAC0E0EB64
:101EC000C0E0ECC0E0EDC0E0C0F0E5A7A2E6500F36
:101ED000E5A1A2E6500953A7BF75A1BF121F17E5E0
:101EE000A7A2E5500CE5A1A2E5500653A7DF75A116
:101EF000DFE5A7A2E15009E5A1A2E1500375A1FD2C
:101F0000E5A7A2E2500CE5A1A2E2500653A7FB759B
:101F1000A1FBD0F0021E2874F812143B7521019029
:101F200003A1E064067015122B418A828B83A3A360
:101F3000A3A3A3A3E0FAA3E0FB122B95A2AFE43383
:101F4000FED2AF9003A7E0640170187A207B009066
:101F500003A0E0F9122F5B7A207B009003A0E0F948
:101F6000122ED7906182E0D2E6F0900540E0602129
:101F700085C62280169003A6E064017008E5C65469
:101F8000F84405F5C653BEFC121CA474016521601B
:101F9000E4EEA2E092AF7F010214E7FF8E238F24CC
:101FA000858228858327851882851983E0CEA3E062
:101FB000CF852882852783EBC9EAC8EDCBECCA75AB
:101FC000F010C3E833C8E933C9EA33CAEB33CBC3F3
:101FD000EA9EF526EB9FF525B35004AB25AA26EC27
:101FE00033CCED33CDD5F0DAAE23AF242274ED122D
:101FF000143B8A088B098C0A8D0B74131213AB786F
:102000000C1212177808790C12101775100175113F
:10201000C875120075130050127808790C1211B6A9
:102020007810790812101750168010780C79081261
:1020300011B67810790C12101740047901800279DA
:10204000007F0C0214E774ED12143B8A088B098C94
:102050000A8D0B74131213AB780C121217780C79CB
:102060000812101740117808790C1211B6AA08ABA3
:1020700009AC0AAD0B8022751000751100751200B5
:102080007513017810790C1211B6781079081211B5
:102090007DAA10AB11AC12AD1380A68A828B83751A
:1020A00008FF7509FF750AFF750B00780812120406
:1020B0007F040214E774F512143B8C828D83780838
:1020C0001212178A828B8378081211CAEA2404F844
:1020D000EB3400F98C828D83A3A3A3A3E0FCA3E0DF
:1020E000FD88828983C3E09CF0A3E09DF08882890B
:1020F00083C3E09420A3E0944E40268A828B8375AC
:1021000008FF7509FF750AFF750BFF78081211A308
:102110008A828B83A3A3A3A3E02420F0A3E0344E00
:10212000F002209B74F512143BE9FE9004F6E0FAED
:10213000A3E0FBEEC333F8E433F9749428F582741A
:102140008439F583E02AF508A3E03BF50978081205
:1021500015E27A407B427C0F7D00121F9C740212B4
:1021600013758A088B098C0A8D0B7410780812116C
:1021700045AA08AB097F040214E774F112143B8AE4
:102180000C8B0D8C0E8D0F740F1213ABE0FAA3E0C5
:10219000FB74111213ABE0F508A3E0F509780812FF
:1021A00015E2EA2401F508EB3400F509E4F50AF537
:1021B0000B780C7908121056750871750902780CA5
:1021C0007908121056AA0CAB0DAC0EAD0F121F9C65
:1021D00074021213758B09EA450960047A018002C2
:1021E0007A00EC2AFCED3400FD74131213ABE0F816
:1021F000A3E0F9E8FEE9FFECF8EDF97A717B021251
:1022000012D4880889098E828F837808121226ECEE
:10221000F8EDF97A717B021212D48A088B097405E1
:10222000780812134C8E828F83A3A3A3A3E508F032
:10223000A3E509F07F080214E7C082C083E990603B
:1022400000F0D083D08222C2AF02000022C0E0742E
:10225000F2121527A2AFE433FED2AFC2C0E5D1A27D
:10226000E4500653D1EF1231CBEEA2E092AF7F01E2
:10227000021586C0E074F2121527A2AFE433FED235
:10228000AFE589A2E150031230FF758900C2C5EEA7
:10229000A2E092AF7F01021586C0E074F21215270A
:1022A000A2AFE433FED2AFE58BA2E050031230FFC1
:1022B000758B00C2E8EEA2E092AF7F01021586C0E6
:1022C000E0C0D0E8C0E0E9C0E0A2AFE433D2AFC2E2
:1022D000C7A2E092AFD0E0F9D0E0F8D0D0D0E032A1
:1022E000C0E0C0D0E8C0E0E9C0E0C008C009C082DA
:1022F000C083A2AFE433F9D2AF900A81E0F8A3E043
:10230000687008539AFBA374018025C2E9900A8182
:10231000E0F50874012508F074012508F582E4341D
:102320000AF583E0F5C1900A81E0C394804002E49D
:10233000F0E9A2E092AFD083D082D009D008D0E0FB
:10234000F9D0E0F8D0D0D0E032120DCB1DB8031296
:102350000DCB34B803120DCB65B803120DCBA0B86A
:1023600003120DCBCAB803120DCBF4B803120DCB78
:102370000BB903120DCB22B903120DCB39B90312DD
:102380000DCB62B903120DCB75B903120DCB8BB90E
:1023900003120DCB9EB903120DCBC5B903120DCBA1
:1023A00019C102120DCB1DC202120DCB55C2021271
:1023B0000DCB78C202120DCB83C202120DCBA6C286
:1023C00002120DCBB5C302120DCB8AC402120DCB83
:1023D00005C502120DCB8DC502120DCBC8C5021268
:1023E0000DCBFFC502120DCB8DC602120DCB66C7F9
:1023F00002120DCBC6C702120DCBD1C702120DCBF4
:1024000050C802120DCB53C802120DCB56C802128F
:102410000DCBE5C802120DCBE8C802120DCB18C9CE
:1024200002120DCB42C902120DCB30CA02120DCBE3
:10243000E2CA02120DCB3CFB01120DCB64FB011270
:102440000DCB92FB01120DCBC9FB01120DCB27FC6A
:1024500001120DCB72FC01120DCBBDFC01120DCB94
:10246000FDFC01120DCB43FD01120DCB71FD0112DC
:102470000DCB2EFE01120DCB38FE01120DCB45FE09
:1024800001120DCB78FE01120DCB44FF01120DCBD2
:1024900050FF01120DCB68FF01120DCB72FF01122C
:1024A0000DCB2DC703120DCB3BC703120DCB53C76A
:1024B00003120DCB6BC703120DCBF5CE01120DCB62
:1024C000A1CF01120DCB1CD001120DCB3DD10112B9
:1024D0000DCB79D101120DCB22D201120DCB09D334
:1024E00001120DCB6DD401120DCBC4D401120DCB52
:1024F00045D501120DCB35D601120DCB82D6011276
:102500000DCB08D701120DCB3AD701120DCB4ED906
:1025100001120DCB90D901120DCBAED901120DCB0A
:1025200031DA01120DCB05DB01120DCBCDDB01122F
:102530000DCBB2F402120DCB85F502120DCB2EF6A7
:1025400002120DCB81F602120DCB31F702120DCB28
:10255000BDF702120DCBA9F802120DCBD8F802126A
:102560000DCBEBF902120DCB33FA02120DCB08FBA7
:1025700002120DCB44FB02120DCB60FB02120DCBFD
:1025800071FF02120DCBB2A003120DCBC8A0031233
:102590000DCBEEA003120DCB0AA203120DCB14A299
:1025A00003120DCB49A303120DCB41A403120DCB93
:1025B0006B8503120DCB9B8603120DCBCE860312C7
:1025C0000DCB188703120DCBDF8803120DCBA4AF00
:1025D00001120DCB0EB001120DCB6DB101120DCB5E
:1025E0007DB101120DCBAAB101120DCB01B20112C6
:1025F0000DCBAAB201120DCBB1B301120DCB7BB43E
:1026000001120DCBDBB501120DCB1EB601120DCBA5
:10261000C3B601120DCB10B701120DCB36B70112A4
:102620000DCB44B901120DCB49B901120DCB4EBBF4
:1026300001120DCB9BBB01120DCB0EBC01120DCBB9
:1026400041BC01120DCBE3BC01120DCB8CBD0112BC
:102650000DCBC4BD01120DCBC7BD01120DCB0FBEFA
:1026600001120DCB4FBE01120DCBA6BE01120DCB38
:102670001CB103120DCB34B103120DCB7CB103128C
:102680000DCB92B103120DCBD9B103120DCBEDB22C
:1026900003120DCB7AB303120DCBC5B303120DCBCE
:1026A000683300120DCB743300120DCBAF33001220
:1026B0000DCBF43300120DCBB43400120DCB3A35F0
:1026C00000120DCB9F3500120DCBCB3500120DCB78
:1026D000043600120DCB423800120DCB263A001200
:1026E0000DCB0C3C00120DCB4F3D00120DCB9D3F8E
:1026F00000120DCBAF4000120DCBFA4100120DCBF2
:102700000A4300120DCB274300120DCB6243001287
:102710000DCB844300120DCBE74300120DCBA8482C
:1027200000120DCB3D4900120DCB8E4900120DCB8E
:10273000B54900120DCB074A00120DCB254A0012F5
:102740000DCB7F4A00120DCB684B00120DCBDE4C37
:1027500000120DCB624D00120DCB928A03120DCBED
:102760009C8A03120DCBDF8A03120DCBFA8A031267
:102770000DCB8A8B03120DCBB28B03120DCBEF8BDB
:1027800003120DCB268C03120DCB4F8C03120DCBF5
:10279000C48C03120DCBD98C03120DCBEE8C03121B
:1027A0000DCB1F8D03120DCB338D03120DCB588D26
:1027B00003120DCB928D03120DCBBE8D03120DCBE8
:1027C000F68D03120DCB758E03120DCBBE8E031248
:1027D0000DCBE88E03120DCB138F03120DCB29C343
:1027E00003120DCB18A902120DCB46A902120DCB74
:1027F00094AA02120DCB74AB02120DCB93AB021252
:102800000DCB10AC02120DCB53AC02120DCBA9AD07
:1028100002120DCB6AAE02120DCBF1B002120DCB3B
:1028200092B102120DCB88B202120DCB85B3021207
:102830000DCBDFB402120DCB6AB502120DCBCEC1A7
:1028400003120DCB37C203120DCB8BC203120DCB7B
:10285000B2C203120DCBE3C203120DCB3B8F0312A6
:102860000DCBA88F03120DCBEF8F03120DCB079169
:1028700003120DCB039203120DCBE69203120DCB84
:10288000AADC02120DCBECDC02120DCBBEDD021273
:102890000DCB97DE02120DCB91DF02120DCB73E050
:1028A00002120DCBDCE002120DCB92E102120DCB35
:1028B00006E202120DCB72E202120DCB9BE2021273
:1028C0000DCB15E302120DCBAEE302120DCB13E4D8
:1028D00002120DCB28E402120DCB6EE402120DCBD6
:1028E00087E402120DCBECE402120DCBEFE40212EE
:1028F0000DCB23AE03120DCB4BAE03120DCB89AE25
:1029000003120DCB47AF03120DCBAEAF03120DCBAD
:10291000CAAF03120DCBF2AF03120DCB22B00312DC
:102920000DCB31B003120DCBAEB003120DCBD4B032
:1029300003120DCB93BF01120DCB71C101120DCB50
:10294000A3C301120DCBDFC301120DCB0CC40112C6
:102950000DCBF6C401120DCB41C501120DCB8CC5B8
:1029600001120DCB9EC501120DCBDEC501120DCBA0
:1029700013C601120DCB61C601120DCB90C6011218
:102980000DCBB3C601120DCB00C701120DCB85C70D
:1029900001120DCB9FC901120DCBDECB01120DCB65
:1029A0001FCC01120DCBC1CD01120DCB02CE0112F5
:1029B0000DCB75CE01120DCBCBCE01120DCB039CEE
:1029C00002120DCB019D02120DCB9AA302120DCB68
:1029D000BBA502120DCB86A702120DCBEEA80212E8
:1029E0000DCBC94D00120DCB784E00120DCBBE4E53
:1029F00000120DCBFE4F00120DCB945100120DCBE7
:102A00000E5200120DCB295200120DCBA45200120F
:102A10000DCBFE5300120DCB5E5500120DCB64564C
:102A200000120DCBC55700120DCBDE5700120DCB97
:102A30003C5800120DCB2A5900120DCB5D590012E3
:102A40000DCBCD5900120DCB475A00120DCB915A28
:102A500000120DCB5B5B00120DCB305C00120DCB76
:102A60000F5D00120DCB9A5D00120DCB085E0012B7
:102A70000DCB7C5E00120DCBA75E00120DCB665F06
:102A800000120DCBCB6000120DCBE86000120DCB15
:102A9000076100120DCBF86100120DCB1D62001210
:102AA0000DCB476200120DCBC26200120DCB1C632E
:102AB00000120DCB856400120DCB336500120DCBD7
:102AC000746500120DCB2F8E02120DCB7D8E02127B
:102AD0000DCB898E02120DCB678F02120DCB988F12
:102AE00002120DCBC98F02120DCB499002120DCBF1
:102AF000819002120DCBD39002120DCB10910212D5
:102B00000DCB2D9302120DCB539502120DCB3E9798
:102B100002120DCB289902120DCBF77F00120DCBBC
:102B2000919B01120DCBC19B01120DCB9AA20112F8
:102B30000DCB1FA401120DCB1CAA01120DCB04ABAF
:102B400001120DCB41AB01120DCB64AB01120DCBC9
:102B500095AB01120DCB9EAB01120DCBA8AB0112B0
:102B60000DCB96AC01120DCB8CAD01120DCB828634
:102B700001120DCB818A01120DCB878A01120DCB78
:102B8000C29101120DCBDB9601120DCBABA7031244
:102B90000DCBA5A803120DCB19A903120DCB57A974
:102BA00003120DCBCBA903120DCB44AA03120DCBFC
:102BB0004DAA03120DCB59AA03120DCB6EAA031214
:102BC0000DCBACAA03120DCBC2AA03120DCB659C90
:102BD00003120DCB729C03120DCB8C9C03120DCBF8
:102BE000CB9C03120DCB099D03120DCB6E9D0312DE
:102BF0000DCB839D03120DCB8E9D03120DCB9B9DA0
:102C000003120DCBB29D03120DCBC09D03120DCB51
:102C1000CB9D03120DCBD79D03120DCBE69D031266
:102C20000DCBF19D03120DCB149E03120DCBBB9E59
:102C300003120DCBCB9E03120DCBE59E03120DCBE1
:102C4000029F03120DCB1E9F03120DCB439F031255
:102C50000DCB4E9F03120DCB639F03120DCB779FBD
:102C600003120DCBD89F03120DCBDE9F03120DCBA9
:102C7000E49F03120DCBEA9F03120DCB02A00312B7
:102C80000DCB35A003120DCB058002120DCB898030
:102C900002120DCB388102120DCB978202120DCB9E
:102CA000B88402120DCBA48502120DCBD985021275
:102CB0000DCBFB8502120DCBAA8602120DCBA2888A
:102CC00002120DCBCB8802120DCB5D8902120DCB07
:102CD0008F8902120DCB9C8902120DCBF38902124F
:102CE0000DCB198A02120DCB868C02120DCB898D69
:102CF00002120DCBE18D02120DCBD0EC01120DCBE7
:102D0000DAED01120DCBC1EE01120DCBCBEE0112AB
:102D10000DCBEDEE01120DCBF9EE01120DCB92F0C1
:102D200001120DCBC1F001120DCBDDF101120DCB63
:102D300036F201120DCB9CF301120DCB7BF4011284
:102D40000DCBD7F401120DCB44F501120DCB7FF55D
:102D500001120DCBBEF501120DCB77F801120DCB90
:102D600091F801120DCB1DF901120DCB2BF90112B7
:102D70000DCB84F901120DCB92F901120DCB05FA9E
:102D800001120DCB69FA01120DCBB3FA01120DCB72
:102D9000EBB502120DCB0DB602120DCB33B80212F9
:102DA0000DCB48BB02120DCB60BC02120DCB13BD84
:102DB00002120DCBF5BD02120DCBD7B903120DCB0C
:102DC000FCB903120DCB6EBA03120DCB38ED021213
:102DD0000DCB41ED02120DCB4AED02120DCB21EECF
:102DE00002120DCBD2EF02120DCB08F002120DCB66
:102DF00042F002120DCB78F002120DCBB2F00212AB
:102E00000DCBE6F002120DCB12F102120DCB5BF1ED
:102E100002120DCB95F102120DCBDEF102120DCB99
:102E200036F202120DCB6BF202120DCBC6F2021279
:102E30000DCB00F302120DCB51F302120DCB87F331
:102E400002120DCBC1F302120DCBEFF302120DCB28
:102E500012F402120DCBB5C803120DCBE1C8031258
:102E60000DCB3CC903120DCB46C903120DCB56C97D
:102E700003120DCB13E502120DCB21E502120DCB8F
:102E800063E502120DCBAEE502120DCBE8E50212AE
:102E90000DCB42E602120DCB65E602120DCBF5E832
:102EA00002120DCB03E902120DCB56E902120DCB33
:102EB00088E902120DCB97E902120DCB0CEA02123F
:102EC0000DCB96EA02120DCBDEEA02120DCB15EB0A
:102ED00002120DCB8AEB02120DCBCCEB02120DCB02
:102EE00014EC02120DCB26EC02120DCB49EC0212AF
:102EF0000DCB52EC02120DCB0CED02120DCB42C4E5
:102F000003120DCBF5C403120DCB33B603120DCB58
:102F100069B603120DCB9FB603120DCBDFB70312B8
:102F20000DCB06CA03120DCB1CCA03120DCB2CCA43
:102F300003120DCB76CA03120DCBA89303120DCB4F
:102F4000BD9303120DCB789403120DCBBC940312E6
:102F50000DCBD99403120DCB0D9503120DCB5A95C1
:102F600003120DCB8E9503120DCBCC9503120DCB16
:102F7000F99703120DCBBBBE03120DCBE4BE0312B7
:102F80000DCB0DBF03120DCBB1BF03120DCBCDBFC7
:102F900003120DCB0FC003120DCB008003120DCB1B
:102FA000388203120DCBEE8203120DCBAB830312DA
:102FB0000DCB9C8403120DCBF2AA03120DCB17ABE1
:102FC00003120DCB41AB03120DCB30CB03120DCB53
:102FD000A46500120DCB156800120DCB66690012B6
:102FE0000DCBD66900120DCB636A00120DCBE96AD6
:102FF00000120DCB126B00120DCBCD6E00120DCB5B
:103000004A6F00120DCB4C7000120DCB867000126F
:103010000DCBC97000120DCBAD7200120DCBE0725A
:1030200000120DCB3A7300120DCB877300120DCB3B
:10303000D47300120DCB317400120DCBA4740012A6
:103040000DCBD97400120DCB0D7500120DCB2C7564
:1030500000120DCB377600120DCB497600120DCB46
:10306000227700120DCB4F7700120DCB777700122D
:103070000DCBBC7700120DCBD97700120DCB0F789A
:1030800000120DCBE17900120DCB0B7A00120DCBA3
:10309000897A00120DCBCC7A00120DCBFF7B001287
:1030A0000DCB04C803120DCB15C803120DCB7ECB7C
:1030B00003120DCBBBCB03120DCBE47F00120DCB63
:1030C00060C903120DCB70C903120DCB90C9031256
:1030D0000DCBF8C903120DCB4DC503120DCBD2C5D4
:1030E00003120DCB3AC603120DCB56C003120DCB03
:1030F0007FC003120DCBE5C003120DCB37C1031205
:103100000DCB92C103120DCB4BA403120DCB60A4C7
:1031100003120DCB77A503120DCBF5A503120DCB32
:1031200010A603120DCB2BA603120DCB79A603120A
:103130000DCB93A603120DCBADA603120DCBC3A6E8
:1031400003120DCBE2A603120DCB01A703120DCB88
:1031500025A703120DCB76A703120DCBD5FB0212C8
:103160000DCBEFFB02120DCB6CFC02120DCB46FD1A
:1031700002120DCBFFFE02120DCB5EFF02120DCB31
:103180002E7C00120DCBBE7C00120DCB3C7D0012BC
:103190000DCBC67D00120DCB5D7E00120DCBC47E23
:1031A00000120DCB637F00120DCB667F00120DCB9A
:1031B000747F00120DCB867F00120DCB9C7F001216
:1031C0000DCBB27F00120DCBC07F00120DCBD67F8E
:1031D00000120DCB53C603120DCBC2C603120DCB8A
:1031E000D2C603120DCBFBC603120DCB1DC70312B3
:1031F0000DCB1EBD03120DCB73BD03120DCB01BE53
:1032000003120DCB69BE03120DCBEFB303120DCB2E
:1032100019B403120DCBE8B403120DCBBDB50312E4
:103220000DCB0AD402120DCBD1D402120DCB0CD58A
:1032300002120DCB3CD502120DCB9AD502120DCB4A
:10324000EED502120DCB5ED602120DCBF4D60212D1
:103250000DCBBAD702120DCB30D802120DCB76D9D6
:1032600002120DCBF9D902120DCB60DA02120DCB8E
:10327000CFDA02120DCBE6DA02120DCB00DC02121D
:103280000DCB4ADC02120DCBE6DD01120DCB96E12F
:1032900001120DCB1CE301120DCB42E301120DCB49
:1032A0006BE301120DCBEEE301120DCB74E50112BD
:1032B0000DCB6DE601120DCBA8EA01120DCBE0EAB1
:1032C00001120DCB22EB01120DCB21EC01120DCB23
:1032D00053CB02120DCB0ECE02120DCBBFCE02127B
:1032E0000DCBE2CE02120DCB2BD002120DCBAED005
:1032F00002120DCB33D102120DCBC8D102120DCB6D
:1033000087D202120DCB7AD302120DCB00D4021257
:103310000DCB0A9803120DCB4F9803120DCB6C986E
:1033200003120DCB489903120DCBAE9903120DCBAE
:103330009C9A03120DCB2C9C03120DCB7CBB031269
:103340000DCBCABC03120DCBFFCB03120DCBC9CBE7
:1033500003120DCB2BCC03120DCB53CC03FFFFFF7D
:10336000FFFFFFFFFFFFFFFFC082C083E9900C5B00
:10337000F00235F774F71213CFE99002E0F07C18F1
:103380007D037AFF7BFF12272D9002E174FFF0A3EB
:10339000F0A3E4F0A3F079051226B59002E0E0F97D
:1033A0001225D77A4B7B271228F57F010214A174CE
:1033B000F41213CF8A088B09EB548060309002E03E
:1033C000E0F9122EB98A0A8B0BAE0AAF0BEE4F60F2
:1033D000138E828F83E064B070031226CDEEFAEF75
:1033E000FB122EA7AA08E5096480FB80047A007B03
:1033F000000235C674F21213CF74FC12135FEAFE9A
:10340000EBFFEE4F603874021213ABEEF0A3EF1235
:10341000382BECF0A3ED12382BAA82AB831225D106
:10342000E9F508707374121213AB1243DFE50A4515
:103430000B60658E828F831234A2EE4F7005750883
:103440000280557A067B00122F138A0C8B0DA80C74
:10345000A90DE8497005750813803D88828983E4C9
:103460001234ACA3A3EEF0A3EF124878E50AF0A360
:10347000E50BF09002E61235349002E66017E0FCAE
:10348000A3E08003EAFCEBFD8C828D83123534705F
:10349000F38C828D83124304A908740412137502FD
:1034A0004A7AA3A3A3A3E0FEA3E0FF22F0A3F0883F
:1034B0008289832274F21213CF890AE975F017A466
:1034C000FEAFF09002E5E4F09002E3123534600ABA
:1034D000122F199002E3E4F0A3F0EEFAEFFB122FA3
:1034E000138A088B09EA4509602FEEFCEFFD79008D
:1034F000122E8F9002E3E508F0A3E509F07B00802F
:103500000812351EE4F0A3F00BEBC3950A40F2E578
:103510000A9002E5F0790080027913024A7AEB758D
:10352000F017A4F8A9F09002E3E028FAA3E0398AA2
:1035300082F5832212409AEA4B2274F41213CF755B
:103540000800750900740C1213AB12484CFEE9FF19
:10355000800CE5082401F508E5093400F509C3E508
:10356000089CE5099D503285080A85090B7403788B
:103570000A12134CEA250AF8EB350BF98882898385
:10358000A3A3A3A3A3A31243DFEE650A7003EF6511
:103590000B70BFE8FAE9FB80047A007B0080277497
:1035A000F41213CF7900EAA2E0501B7508D975090F
:1035B0008578081215E27C047D007A5D7B0C12266A
:1035C000AF74021213757F040214A1C082C08390ED
:1035D00002E61235FE601C88828983A3A3E06A702C
:1035E00003A3E06B8882898370E8A3A3A3A312409E
:1035F0009680047A007B00D083D082020DC8124BE3
:103600004DE8492274EE1213CF74FC12135FEAFEE8
:10361000EBFF851882851983E4F0A3F0EE240212F3
:1036200042E8EE2405123819EE2404F50EEF123BA1
:10363000FEE024FE603924FC604624FE605224FE35
:10364000605E24FE700302371E24FE70030237966C
:1036500024FE70030237A524FE70030237B424FC55
:1036600070030237C324FE70030237D202380F9072
:1036700002FF7417F0A3E412383312234F02380FFD
:10368000851882851983AC82AD831226D30237DF79
:10369000851882851983AC82AD831226D90237DF63
:1036A000850C08850D0974021213ABAC82AD8385BD
:1036B00008828509831240961225F58A0C8B0DAC81
:1036C0000CAD0DEC4D6042E4F50CF50D780C1215C7
:1036D000E2750CFF750D02780C1215E2750C007581
:1036E0000D03780C1215E274081213AB1215F97958
:1036F000161240901227157408121375E9F50C7014
:103700000B12408C122367800F750C01850882858F
:103710000983123821124304850C080237E274022F
:103720001213ABAC82AD83850C82850D831240965B
:103730001225F58A108B11AC10AD11EC4D6043854C
:103740000C82850D83A3A31215F97510FF75110264
:1037500078101215E275100075110378101215E239
:1037600074081213AB1215F979161240901227152E
:103770007408121375E9F509700B12408C12236D51
:10378000800F750901850C82850D83123821124343
:1037900004850908804C851882851983AC82AD8325
:1037A0001226DF803A851882851983AC82AD831298
:1037B00026E5802B851882851983AC82AD8312267D
:1037C000EB801C851882851983AC82AD831226F1AB
:1037D000800D851882851983AC82AD831226F7E9A6
:1037E000F508E50860298E828F83A3E06414601FCA
:1037F000850E82850F83E09002FF12382B124B4911
:10380000900300124304E508A3123833122349EE53
:10381000FAEFFB1226730241F0F50CEF3400F50DC0
:1038200022124B4D85188285198322F085188285D6
:10383000198322F07CFF7D02850A82850B8312406A
:103840009A2274EE1213CF74FC12135F8A0A8B0B48
:103850008C0E8D0FEA2405F508EB3400F5097C1574
:103860007D0079007AFF7B02122E8FE5082402F595
:103870000CE50912381C851882851983858210850C
:10388000831178101215E2850882850983A3A3A30A
:10389000A3123D461215E2E5082405F510E50934AA
:1038A00000F51178101215E2850C82850D83124007
:1038B000A01225EF74061213758A108B11AE10AF8B
:1038C00011E50A2402F50AE50B1242EBEE4F7003F4
:1038D000023A08801774021213AB1240968882894C
:1038E00083EAF0A3EBF09002FFE004F09002FFE027
:1038F000C394054003023A08E4F510F5117810125C
:1039000015E27510E875110278101215E27510E9CC
:1039100075110278101215E274061213AB1215F924
:103920007910EEFCEFFD1240901227157408121367
:1039300075E9705E850882850983A3A3A3A3A3A369
:10394000A3E0F89002E8E0687048123D461215E2E4
:103950007CE97D02E5082408FAE5093400FB122E13
:10396000897402121375E960298E828F83A3A3A341
:10397000A31240969002FFE0F51074027810121323
:103980004C74002510F58274033511F583EAF0A319
:10399000EBF074021213AB8582108583117810123C
:1039A00015E274021213AB1215F9850C82850D8392
:1039B000124B5E1225FB74041213758A108B11AE24
:1039C00010AF119002FFE0F510751100740278102D
:1039D00012134C74FF2510F874023511F98882898E
:1039E00083A312353470030238CCE82403F8E93499
:1039F00000F9EE4F60030238D58882898374FFF0A6
:103A0000A3F09002FFE004F09002FFE0600A124091
:103A10008C12235B7900800B850882850983124212
:103A2000FB790A0241F074EA1213CF74FE12135F9D
:103A30008C128D13EA2405F50CEB124CC81234A637
:103A4000750800750900EA2402F510EB3400F51141
:103A500085188285198385820A85830B780A121559
:103A6000E2850C82850D83A3A3A3A3123C08121543
:103A7000E2E50C2405F50AE50D1242EB780A121571
:103A8000E2850C82850D83124B5C1225EF740612C1
:103A900013758A0A8B0BEA450B7003023BB9EA24C3
:103AA00004F50EEB123BFE1234A68A828B83A3A38D
:103AB000A3E0F98510828511831240961225DDE975
:103AC000F5096003023BB9E4F514F51578141215F5
:103AD000E27514E875150278141215E27514E9758B
:103AE000150278141215E274061213AB1215F97947
:103AF00013AC0AAD0B8510828511831240961227F4
:103B0000157408121375E9F5096003023BB99002B8
:103B1000E8E0F8E5087009E02402900300F080175F
:103B2000900300E0FCE82402FAE43400FBEA6C7045
:103B300001EB6003023BBD850882AA82123D3D94E1
:103B400014123D355073850E82850F83E0C0E074FA
:103B5000012A123BF5D0E0F00508850E82850F831F
:103B6000A3E0C0E085080A7401250A123BF5D0E005
:103B7000F005089002E8123C081215E27CE97D028B
:103B800085080A7401250AFA74033400FB122E77A3
:103B900074021213759002E8E02508F50874FF6EB0
:103BA000700374FF6F6012EE24010EEF3400FFE526
:103BB00008C394145003023A50E5086013123F8181
:103BC000851082851183124096122361790080143A
:103BD000E509700375090A851282851383EEF0A347
:103BE000EFF0A90974021213757F0E0214A1850863
:103BF0000C7401250CF58274033400F58322340023
:103C0000F50F850E82F5832212488B2274EE121373
:103C1000CF74FE12135F8C0E8D0FEA2405F50CEBAA
:103C200012381C750B009002FFE4F0F50AEA24023A
:103C3000F508EB3400F50980499002FFE0FA9002A4
:103C4000E8E0F8123D3D9417123D35400D9002FF1B
:103C5000E0F87416C3989002E8F0123D461215E29F
:103C60007CE97D0274002AFA74033400FB122E777B
:103C700074021213759002E8E0F89002FFE028F059
:103C8000050AE50C2416F582E50D123BF9E0F8E58E
:103C90000AC3984003023D1E9002FFE0C3941650F1
:103CA0007DE50AC333F8E433F9E50C28FEE50D3968
:103CB000FF851882851983AC82AD838E828F831233
:103CC00040961225F58A108B11AC10AD11EC4D7099
:103CD00005750B018043E4F510F51178101215E21B
:103CE0007510E875110278101215E27510E975115A
:103CF0000278101215E274061213AB1215F9791638
:103D000085088285098312409612271574081213BC
:103D100075E9F50B7003023C391242F780107CFF05
:103D20007D02850882850983124096122373A90BB0
:103D300074020241F2E99400C365D03322EA28F804
:103D4000E43400F9E822E0F51075110078102274CF
:103D5000EA1213CF74FC12135F8A0C8B0D8C128D38
:103D600013EA2405F50AEB1242EB75080075090009
:103D7000E50A2402F510E50B3400F5117402121364
:103D8000AB85820E85830F780E1215E2850A828537
:103D90000B83A3A3A3A31248371215E2E50A240557
:103DA000F50EE50B3400F50F780E1215E285108242
:103DB0008511831242F11240901225EF74061213FE
:103DC000758A0E8B0FAE0EAF0FE50C2402F50EE5D3
:103DD0000D3400F50F80408882898374FFF0050858
:103DE000123BEE74FFF005089002E8E0F50C750D4B
:103DF00000780C1215E27CE97D0285080C7401251F
:103E00000CFA74033400FB122E77740212137590AF
:103E100002E8E02508F508EE4F60718E828F83A3DB
:103E2000A3A3E0F9850E82850F831240961225DD4B
:103E3000E9F509EE2404123819E97044E4F514F5A3
:103E40001578141215E27514E87515027814121518
:103E5000E27514E975150278141215E2740812134C
:103E6000AB1215F97911EEFCEFFD850E82850F83FB
:103E70001240961227157408121375E9F509602788
:103E8000850C82850D83123F77124304E508700389
:103E9000023F5D123F81850E82850F83124096128C
:103EA00023797900023F72850882AA82EA9002E8AB
:103EB0007009E02404900300F08022E0F8900300F1
:103EC000E0F514E82404FCE43400FDEC6514700112
:103ED000ED70C0123D3D9412123D3550B6850C82F6
:103EE000850D83E0C0E074012A123BF5D0E0F005B7
:103EF00008850C82850D83A3E0C0E0123BEED0E084
:103F0000123F9385820C85830D780C1215E27404A0
:103F10001213AB1215F9851082851183124B5E12B4
:103F200025FB74041213758A0C8B0DAE0CAF0D8536
:103F3000080C7401250CF874033400F9EE4F70037B
:103F4000023DD7851882851983E088828983123FD4
:103F500093A3E0C0E0123BEED0E0023DE5E509703E
:103F60000375090A850A82850B83123F7712430481
:103F7000A9097404023BE6124B4D85128285138316
:103F800022900300E0F5F0E508849002FFF07CFF4A
:103F90007D0222F005088518828519832274EC12AF
:103FA00013CF74FE12135F8A088B098C0E8D0FEAF3
:103FB0002405FEEB3400FF851882851983AC82ADA1
:103FC000838E828F831240961225F58A0A8B0BEE20
:103FD0002418123819EA450B70030240671241D9C0
:103FE00050328518828519831240961227098A104B
:103FF0008B11EA4511606B7912AC0AAD0B85088212
:104000008509831240968510828511831213CDE9AC
:10401000F50A7058E4F50AF50B780A1215E28E825B
:104020008F83A3A3E0F50A780A1215E2EE240312A7
:1040300042E8780A1215E28E828F831240A012277E
:104040001B7406121375E9F50A7021850C82850D23
:1040500083E0701F85088285098312409612237FB2
:104060008011750A0E8009750A018004E50A600353
:104070001242F7850C82850D83E06004790080028E
:10408000A90A74021213757F0C0214A17CFF7D0231
:10409000850A82850B8312409A22E0FAA3E0FB2274
:1040A000E0FCA3E0FD85088285098312409A227412
:1040B000EE1213CF74FE12135F8A088B098C0C8DDD
:1040C0000DEA2405FEEB3400FF750E00851882858D
:1040D0001983AC82AD838E828F831240961225F5B0
:1040E0008A0A8B0BEA450B70030241C51241D95075
:1040F000358518828519831240961227098A0E8BFE
:104100000FEA450F605E7912AC0AAD0B8508828517
:104110000983124096850E82850F831213CDE9F52F
:104120000E60030241C88508828509831243DFAA15
:104130000AFB1226FD8A108B11A810A911E84970FC
:104140001E7AFF7BFF1226FD8A108B11A810A91181
:10415000E849606C88828983E50AF0A3E50BF07575
:104160000A008007750E0E805F050A9002E5E0FAEE
:10417000E50AC39A504AE50A75F017A4FAABF0882D
:10418000828983A3A3E02AFAA3E03BFB8A828B8384
:104190001242F1EC4D70D2750A17750B00780A12B5
:1041A00015E2EEFCEFFD122E777402121375EEFC91
:1041B000EFFD8508828509831240961223858014BD
:1041C000750E098003750E01124B45850C82850D15
:1041D00083124304A90E023D30E5082402F508E5E8
:1041E000093400F5098A828B83A3A3A3E0A2E52208
:1041F00074041213757F0A0214A174EC1213CF8C8D
:10420000108D11EA2405F50CEB12381C750F00EA2D
:104210002402F50AEB1242EB850A82F583124096DE
:104220001226FD8A088B09EA450970030242DD75F2
:104230000E008071850C82850D83E06401704F8EC5
:10424000828F83A3A31215F98E828F83A3A3A3A3C6
:10425000E0F51275130078121215E2EE2405F5123E
:10426000EF3400F51378121215E212409012271B5A
:104270007406121375E9F50F6014850C82850D83A1
:10428000E4F0124B458510828511831243047C179C
:104290007D007900EEFAEFFB122E8F8E828F83E481
:1042A000F0A3F0050E9002E5E0F8E50EC398501E6D
:1042B000E50E75F017A4F8A9F0850882850983A397
:1042C000A3124CD21242F1EC4D6003024234850835
:1042D0008285098374FFF0A3F0E50F700612409009
:1042E00012238BA90F024087F50AEF3400F50B2249
:1042F000A3E0FCA3E0FD228E828F83124B4D850E3E
:1043000082850F83E8F0A3E9F022C082C083900287
:10431000E1E06A7003A3E06B70067AE17B0280043F
:104320007A007B000235F7C082C08378008C828DD2
:1043300083E06A7003A3E06B7010E875F003A4F8E3
:10434000A9F0EC28FAED39FB8015088C828D83A347
:10435000A3A3E06A7003A3E06B60DF7A007B000236
:1043600035F774F61213CF1226C78A828B83E58243
:10437000458370067A007B008007A3A3A3A31240A5
:10438000960249F674F21213CFE9FE740E1213ABC3
:104390001243DF74101213AB1248578C828D83E0E6
:1043A00064027036A3124B53F50CA3E0F9A80C7409
:1043B000026870037429697021750C02750D00780C
:1043C0000C1215E278081215E2780A1215E2EEF9DD
:1043D00012273F740612137580027901024A7AE0AF
:1043E000F50AA3E0F50B2274E81213CF74FB121345
:1043F0005FE9851882851983F08A168B17ECFEED2C
:10440000FF751000741D1213AB124B49741D12136B
:10441000AB1243048E828F83A3A3A3E0A2E4502DAA
:10442000741D1213AB1240961227098A828B83E502
:104430008245837003024828790AEEFCEFFDAA1634
:10444000AB171213CDE9F510600302482B741F124D
:1044500013AB12485774211213AB1243DF742312AB
:1044600013ABE0F50EA3E0F50F8E828F83E06402BC
:1044700060030247D6A3124B49850882850983A3AE
:10448000858212858313EE24061238198882898367
:10449000E0FAA3E0F9EA2400F514E439F5157814FC
:1044A00012166C010000280128CB44070002289056
:1044B000450328FD440029C7460129F246022993F5
:1044C000460329C74604297147D647E50E450F60C4
:1044D000030247D1850C82850D8312484CFAE9FB13
:1044E0008A828B83E0850A82850B831248821215AB
:1044F000E28A828B83A3E0FCA3E002475BE50E45E2
:104500000F60030247D1850A82850B837401F01284
:10451000485F850882850983F07C007D008E828F4C
:1045200083A3A3A3A3E02401FAA3E03400FB122594
:10453000F5EA4B60418A828B83E02402F8850A8287
:10454000850B83E028F0EA2404F8EB3400F9888234
:104550008983E0851282851383124894124882125F
:1045600015E28A828B831242F0E5082403FAE509FA
:104570003400FB024760850A82850B83E02404F047
:104580007C047D007900AA12AB13122E8F02482BF7
:10459000E50E450F60030247D112485FFEA3E0FF1E
:1045A000850A82850B837404F0EE85088285098371
:1045B000F0EF851282851383F074031213ABAC8283
:1045C000AD83EEFAEFFB1225F58A0C8B0DEA450D53
:1045D00070030246748A828B83A3A31234A27401EF
:1045E0001213AB85820E85830F780E1215E27405C7
:1045F0001213AB1215F97CFF7DFF1225FB74041218
:1046000013758B0FEA450F7033850C82850D83126D
:1046100048371215E2850C82850D83A31215F97CAB
:10462000027D007A4C7B861224277404121375E9EC
:10463000700A74011213AB74FFF0A3F08E828F83A3
:10464000E064027039750C02750D00780C1215E2E9
:104650008E828F831242F0E5082404FAE5093400C3
:10466000FB122E777402121375850A82850B83E084
:104670002402800974011213ABEEF0A3EFF0740171
:104680001213AB124848F074011213ABA312484046
:104690000247CBE50E450F60030247D1850C8285AA
:1046A0000D831242F1AA16AB17122733850A8285B1
:1046B0000B837402F0EA850882850983F0851282F3
:1046C000851383EB0247CEE50E450F60030247D109
:1046D00012485FF8A3E0F9850A82850B837402F023
:1046E000E8850882850983F0E985128285138302B3
:1046F00047CE850C82850D83124096122E71EAFCFE
:104700008C82A882C3950EE4950F405FE8650E7019
:1047100002E50F70047C008022851882851983E0F1
:10472000FAE50E2AFAE50F3400FBC3EA98EB940091
:104730005003E08005E50ECCC39CFCEC850A828525
:104740000B83F08C0A750B00780A1215E2850C8237
:10475000850D83E0250EFCA3E0350FFDAA08AB090B
:10476000122E77740212137502482B751007024837
:104770002BE50E450F705A850C82850D83124B492F
:10478000850A82850B8374071234AE1248401234B6
:10479000AEA3E0851282851383F0E82402FAE9349F
:1047A00000FB8A828B8312484012486F124848A34C
:1047B000124878124851F0E82405F8E93400F988E5
:1047C000828983124851A3124894A3A3A3A3F08023
:1047D0005A75100B8055741D1213AB124096122699
:1047E000C78A828B83E5824583603D124B49880CE2
:1047F000890DE8450D6031780E1215E2780A121520
:10480000E278081215E274061213ABE0F9EEFCEF41
:10481000FDAA16AB17850C82850D831213CD740685
:10482000121375E9F510800375100EA910740512A6
:1048300013757F100214A1E0F50E750F00780E229B
:10484000E08508828509832212489E22124B4DE89A
:104850002212489EA3A322E0F508A3E0F5092285D1
:104860000C82850D83E0F8A3E0F5838882E022A323
:10487000A3F08A828B83A322F088828983A3A3A3D7
:10488000A322F08A828B8312488B22E0F50A750BF3
:1048900000780A22F088828983A312489E22E0854C
:1048A0000882850983A3A32274EE1213CF74FE122B
:1048B000135F8A0A8B0BECFAEDFB74141213ABE056
:1048C000F510A3E0F51174161213ABE0FE74181284
:1048D00013ABE0F50EA3E0F50F851882851983ACC4
:1048E00082AD831225F58A0C8B0DEA450D60498552
:1048F00018828519831240961226C78A828B83E517
:10490000824583602FA3A3124857E5084509602418
:10491000780E1215E278101215E2EEF9AC0CAD0D1E
:10492000AA0AAB0B8508828509831213CD74041281
:1049300013758006790E80027901023D3074F612FB
:1049400013CF74FE12135F740C1213AB12484C8514
:104950001882851983F074011213ABE9F0E4F508AD
:10496000F50978081215E275080278081215E27444
:10497000041213AB85820885830978081215E212A8
:10498000271B74061213757402121375806874F76E
:104990001213CFEAFEEBFF89087C187D0312273340
:1049A000EA5402600BA908EEFAEFFB1225E9800237
:1049B00079010233AA74F61213CF74FF6A7003747C
:1049C000FF6B70168C828D831249FBE4F08C828D14
:1049D00083A3A3A31249FBA380181227038A088B81
:1049E00009A808A909E849600D8882898374FF1223
:1049F00034ACA3A3E4F07F020214A174FFF0A3F08F
:104A00008C828D83A3A32274F61213CF1227038AFC
:104A1000828B83E58245836006A3A3E0FA80027A55
:104A2000007B0080D174F21213CF8A088B09ECFE50
:104A3000EDFF740E1213ABE0F50A1227038A0C8BFC
:104A40000DA80CA90DE8497026EEFCEFFD7AFF7B5E
:104A5000FF1227038A0C8B0DA80CA90DE8497004DE
:104A60007911801688828983E508F0A3E509F0882A
:104A7000828983A3A3E50AF079007F060214A1745A
:104A8000EE1213CFEAFEEBFF8C088D09890C74142B
:104A90001213AB124B4974161213AB124096750DDC
:104AA00000E8496003024B3D7402650C6003024B51
:104AB0003874121213AB124B53FCA3E0F9EC240030
:104AC000F50EE439F50FEAF4F8EBF4F9EC58F8E5F3
:104AD0000F59F9E849705CE5082406F8ED3400F94F
:104AE000880A890B8882F583124B5E1227338A105D
:104AF0008B11E50E65107004E50F65116042780EAC
:104B00001215E2850A82850B83124B5E12273974D7
:104B100002121375E9F50D7027780E1215E285085B
:104B200082850983A3A3124B5C12275174021213CE
:104B300075800D750D808008750D0D8003750D0B4A
:104B4000A90D0241F58E828F83124B4D22E0F8A30E
:104B5000E0F922124B4D88828983E022A3A3E0FC76
:104B6000A3E0FDEEFAEFFB2274E81213CF74E71214
:104B7000135F851882851983EAF0A3EBF08C168DFC
:104B800017890E75080075090074311213ABE0F532
:104B900012A3E0F51374331213ABE0F514A3E0F5A0
:104BA0001574351213ABE0F50FE50975F003A4F8A1
:104BB000A9F0851882851983124CD2E0F47003A302
:104BC000E0F47003024CB5EE2402F50CEF124CC871
:104BD000E07003024CB585160A85170B780A12158A
:104BE000E2AC14AD15AA12AB131226BB7402121359
:104BF000758A0A8B0BEA450B7003024CB5E4F5107D
:104C0000F51178101215E274061213AB8582108527
:104C1000831178101215E274091213AB8582108586
:104C2000831178101215E2851282851383A3A3A342
:104C3000A31215F97914AC0AAD0B8E828F83124042
:104C4000961227157408121375E97069850A828512
:104C50000B83A3A3A3A3124B4974021213AB1243F9
:104C600004850C82850D83E0A2E05018A90E740221
:104C70001213ABAC82AD838E828F831240961226C4
:104C80000DE94208850C82850D83E0A2E15026E5FE
:104C90000FF50A780A1215E6A90E74031213ABACCD
:104CA00082AD838E828F8312409612260774011282
:104CB0001375E942080509E509C394025003024B44
:104CC000A9A908741902482F3400F50D850C82F546
:104CD0008322E028FEA3E039FF8E828F832274F2C4
:104CE0001213CFEAFEEBFF890B7401650B600E74A3
:104CF00002650B706A7901122913E97062EEFAEF0E
:104D0000FB1226FD8A088B09EA45096047750A00EF
:104D1000800B7C177D007900122E8F050A9002E52A
:104D2000E0F8E50AC3985021E50A75F017A4F8A940
:104D3000F0850882850983A3A3E028FAA3E039FB64
:104D40008A828B831235FE70C98508828509837437
:104D5000FFF0A3F07C187D03EEFAEFFB12272D0283
:104D60004A7A74F21213CF8A088B09ECFEEDFF74B5
:104D70000E1213AB1243DF900C5BE0F4603D7A0936
:104D80007B00122EA1EA4B60328A828B8374B1F0D1
:104D9000A3E4124871A312486FA3E508F0A3E50944
:104DA000124DBEEEF0A3EF124DBEA3A3E50AF0A391
:104DB000E50BF0900C5BE0F9122EAD024A7AF08A16
:104DC000828B83A3A3A3A3A322C082C083906190FC
:104DD0007404F0A37448F0A37402F09061807440EE
:104DE000F09061BC7403F09061877419F090626573
:104DF000741BF0906249E0C3941390619C400A7464
:104E000009F090606674018007740DF0906066E4AC
:104E1000F090619A7433F0A37455F09061A0743AE5
:104E2000F090053EE064017009C2919003A574679B
:104E300080059003A57461F0903362E493906186DD
:104E4000F0903364E493F46027E493540FF8906196
:104E500085E0686012E5C654804449F5C6E59E5475
:104E60007F644970F8E8F053C680E59E547F70FA7D
:104E70007905122C5B024FF7C082C083E5A8F85376
:104E8000A87E906181E4F0A3F0A3F0C2BA539AFE29
:104E9000C289759B00C2C275E90075910075BF009B
:104EA00075A91175B905906181F0A374C0F0A3E4F0
:104EB000F0D2BA439A0174805842A8024FF7C082D8
:104EC000C08374F812135F9003A3E0F8A3E0F9E83D
:104ED000497003024FEC9003A3E05440602379082B
:104EE000851882851983AA82AB83122ACF851882FE
:104EF000851983AA82AB831227C39003A3E054BF12
:104F0000F0E054806010790C7A647B05122ACF900F
:104F100003A3E0547FF0E0A2E0503190619A743333
:104F2000F0A37455F09061A0743AF090053EE064EF
:104F3000017009C2919003A5746780059003A57460
:104F400061F01227C99003A3E054FEF0E054026020
:104F50003190619A743FF0A3745AF09061A0747F0D
:104F6000F090053EE064017009D2919003A5747140
:104F700080059003A5746AF01227C99003A3E0543A
:104F8000FDF0E054046013903360E493906186F088
:104F90001227CF9003A3E054FBF0E0540860139075
:104FA0003361E493906186F01227CF9003A3E0541D
:104FB000F7F0E054106013903362E493906186F050
:104FC0001227CF9003A3E054EFF0E05420600A12C0
:104FD00027CF9003A3E054DFF0A3E05401600D124B
:104FE00029F71227D59003A4E054FEF07408121399
:104FF00075024FF7F0A3F0D083D082020DC874EC95
:105000001213CF74F412135F851882851983AC8252
:10501000AD837583857582FE7404121272903360BD
:1050200093F4600302518A907808E0C3940250031D
:1050300002516A74041213ABAC82AD83758385751B
:1050400082887408121272851882851983858212EB
:1050500085831374041213ABAC82AD83750EFF7598
:105060000FFF7FFF7E00750C48750D788015740862
:105070006E70030250FE74096E70030250FE740AD3
:105080006E607B850C82850D8378081212178C82E6
:105090008D83A909E50AC9F88810741878081211D7
:1050A00045E5104508F8C3E098A3E099850C828592
:1050B0000D83780812121740188C828D837418782B
:1050C00008121145E5104508F8E0C398F8A3E08000
:1050D0001C74187808121145E5104508FAE9FB8C94
:1050E000828D83E0F8A3E0F9EAC398F8EB99F9C35D
:1050F000E8950EE9950F5006880E890FEEFF0EE534
:105100000C2404F50CE50D3400F50DEEC39413509A
:105110000302506E74FF650E700474FF650F602308
:105120008F087402780812134C74482508F58274AD
:10513000783509F583780812121785128285138352
:10514000E508F0EC2402FCED3400FD8512828513A5
:1051500083A3858212858313740C1213ABE5826CD2
:105160007003E5836D600302505C750801750900EA
:1051700078081215E274021213ABAC82AD837AD8B0
:105180007B0C1230DB7402121375740C1213757FD2
:105190000C0214A1C082C0839061AE7468F0A37445
:1051A0006AF090624574FBF0A304F053F4FD43FEF3
:1051B0000290053E7401F09061A0E0643A90619A1B
:1051C00070237433F0A37455F09061A0743AF074B6
:1051D0000164017009C2919003A57467802890034F
:1051E000A574618021743FF0A3745AF09061A0749B
:1051F0007FF0740164017009D2919003A5747180ED
:10520000059003A5746A024FF67F080214A1C082BC
:10521000C0839004F0E06401700A9004F5E060043B
:10522000790C80027900024FF7C082C08375E1F1EA
:105230009004F3E0605B14600914605F146057141D
:10524000705E122A099004E9E0F97AEA7B04122BD5
:10525000DD7AD67BBE7C897D8E122C137A557B55E8
:105260007C557D00122BE99004F4E0F9122BF579BE
:1052700001122C4F9004E7E0F8A3E0C82416F58251
:10528000E83400F5837421F0A3742AF07900024F0A
:10529000F7122A0F80AF122A1580AA122A1B80A5A6
:1052A000791280EA74F01213CF75D90D9004D4E00E
:1052B000A2E0E4331313F89004E9E0C4333354C09C
:1052C000484401F5D978E7790488828983A3A3A3A8
:1052D000E0F5D988828983A3A882A983E864ED7068
:1052E00003E9640470E378D4790488828983A3E0B5
:1052F000F5D988828983A3A882A983E864DA700338
:10530000E9640470E575E1959004D4E0F97AD57B01
:1053100004122BE3900C7D74BBF0A37429F0A374EA
:1053200017F0A3742BF0A37417F0A3742BF0A374DD
:1053300017F0A3742BF0A374C1F0A37429F0A37425
:1053400017F0A3742BF0A374D9F0A37429F0900C78
:105350008B7417F0A3742BF0A37417F0A3742BF0C5
:10536000A37417F0A3742BF0A37417F0A3742BF09D
:10537000A37417F0A3742BF0A37417F0A3742BF08D
:105380009004F3E064019004E77012E0F8A3E0F504
:10539000838882A3A37508007509088010E0F8A32C
:1053A000E0F5838882A3A3750804750900750A00D7
:1053B000750B007808121190750CFF750DFF750EB6
:1053C000FF750F007808790C1211DE9004E7E0F801
:1053D000A3E0C8240EF582E83400F58378081212A1
:1053E000269004E7E0F8A3E0C82414F582E834002E
:1053F000F5837413F09003A17402F002520974F75C
:105400001213CF9004F9E02407F5D99004E9E0C421
:10541000333354C0F5D978E7790488828983A3A30C
:10542000A3E0F5D988828983A3A882A983E864EDE3
:105430007003E9640470E39004F9E0601F78E77991
:1054400004FAE82413F582E93400F583E0F5D988FD
:10545000828983A3A882A9831AEA70E6900519E0DD
:105460002407F5D99004E9E0C4333354C04404F56B
:10547000D978E7790488828983A3A3A3E0F5D98842
:10548000828983A3A882A983E864ED7003E9640498
:1054900070E3900519E0601F78E77904FAE8243397
:1054A000F582E93400F583E0F5D988828983A3A8E1
:1054B00082A9831AEA70E675E195900C7D74C7F0B5
:1054C000A37429F0A37417F0A3742BF0A37417F03E
:1054D000A3742BF0A37417F0A3742BF0A374C1F082
:1054E000A37429F0A37417F0A3742BF0A374D9F05C
:1054F000A37429F0900C8B7417F0A3742BF0A37491
:1055000017F0A3742BF0A37417F0A3742BF0A374FB
:1055100017F0A3742BF0A37417F0A3742BF0A374EB
:1055200017F0A3742BF09004E7E0F8A3E0C8240E72
:10553000F582E83400F58374FFF0A3F0A3F0A3F044
:105540009004E7E0F8A3E0C82414F582E83400F5FD
:10555000837412F09003A17401F0FF0214A174F798
:105560001213CF9004F9E02407F5D99004E9E0C4C0
:10557000333354C04402F5D978E7790488828983AB
:10558000A3A3A3E0F5D988828983A3A882A983E88D
:1055900064ED7003E9640470E39004F9E0601F783F
:1055A000E77904FAE82413F582E93400F583E0F59D
:1055B000D988828983A3A882A9831AEA70E675E153
:1055C00095900C7D74D3F0A37429F0A374D3F0A349
:1055D0007429F0A374D3F0A37429F0A374D3F0A3B7
:1055E0007429F0A374D3F0A37429F0A374D3F0A3A7
:1055F0007429F0A374D9F0A37429F0900C8B74175C
:10560000F0A3742BF0A37417F0A3742BF0A37417FA
:10561000F0A3742BF0A37417F0A3742BF0A37417EA
:10562000F0A3742BF0A37417F0A3742BF09004E78D
:10563000E0F8A3E0C8240EF582E83400F58374FF97
:10564000F0A3F0A3F0A3F09004E7E0F8A3E0C824EF
:1056500014F582E83400F5837414F09003A1740407
:10566000F002592574F71213CF9004F9E02407F5DE
:10567000D99004E9E0C4333354C04406F5D978E73F
:10568000790488828983A3A3A3E0F5D988828983DA
:10569000A3A882A983E864ED7003E9640470E39031
:1056A00004F9E0601F78E77904FAE82413F582E949
:1056B0003400F583E0F5D988828983A3A882A98381
:1056C0001AEA70E6900519E02407F5D99004E9E09C
:1056D000C4333354C04404F5D978E7790488828907
:1056E00083A3A3A3E0F5D988828983A3A882A98391
:1056F000E864ED7003E9640470E3900519E0601F4D
:1057000078E77904FAE82433F582E93400F583E098
:10571000F5D988828983A3A882A9831AEA70E675DD
:10572000E195900C7D74CDF0A37429F0A37417F06B
:10573000A3742BF0A37417F0A3742BF0A37417F0C9
:10574000A3742BF0A37417F0A3742BF0A37417F0B9
:10575000A3742BF0A374D9F0A37429F0900C8B746C
:1057600017F0A3742BF0A37417F0A3742BF0A37499
:1057700017F0A3742BF0A37417F0A3742BF0A37489
:1057800017F0A3742BF0A37417F0A3742BF09004FC
:10579000E7E0F8A3E0C8240EF582E83400F583744E
:1057A000FFF0A3F0A3F0A3F09004E7E0F8A3E0C8B3
:1057B0002414F582E83400F5837415F09003A17485
:1057C00003F0025925C082C0839004E7E0F8A3E00B
:1057D000C82406F582E83400F583E4024FF474F738
:1057E0001213CF9003CFE0F875F003A4C8AAF02AF3
:1057F000F974D128F8740339F9E82405FAE934007A
:10580000FB8A828B83E0FCA3E0FD88828983A3A3CB
:10581000A3A3A3A3A3A3A3ECF0A3EDF088828983A1
:10582000A3A3A3A3A3A3A3E024FFF8A3E034FFF959
:105830008A828B83E8F0A3E9F002592574F71213EA
:10584000CFEAFEEBFF9061D0E0600302591975D9F1
:105850000E75D90375D904EE248BF582EF3400F56B
:1058600083E5822408F8E5833400F9E0F5D9A3E85C
:1058700065827003E9658370F2EE2483F582EF346C
:1058800000F583E5822404F8E5833400F9E0F5D9D6
:10589000A3E865827003E9658370F275E195790884
:1058A000EE248BFAEF3400FB122AC37904EE248332
:1058B000FAEF3400FB122AC37C00EEF8EFF9ECFAA1
:1058C000C3E49AFA95E0FBEE2AFAEF3BFBEA248A5E
:1058D000F582EB3400F583E0C0E0E824AAF582E924
:1058E0003400F583D0E0F00C88828983A3A882A9D4
:1058F00083ECC3940840C7EE246FF582EF3400F5C3
:1059000083E0F8A3E0F9EE2471F582EF3400F5832B
:10591000E8F0A3E9F07901800279008008F0EEA2B6
:10592000E092AF79007F010214A1C082C08375D9D3
:105930000275D90375D90575E195EA246FF582EBF7
:105940003400F583E0F8A3E0F9EA2471F582EB3442
:1059500000F583E8F0A3E9F07901024FF774F6123D
:1059600013CFEAFEEBFF9005447406F0750844750A
:10597000090578081215E27C017903122B0B7402D9
:1059800012137575D90675D903758244758305E0C0
:10599000F5D9A3E58264497004E583640570F07568
:1059A000E1959003A1E06408701EEE246FF582EF8C
:1059B0003400F583E0F8A3E0F9EE2471F582EF34CA
:1059C00000F583E8F0A3E9F07901025C2B74F6128C
:1059D00013CFEAFEEBFF9061D0E07066780190058E
:1059E00044740BF09003A1E06407701975084475C6
:1059F000090578081215E27C017903122B0B740259
:105A00001213757805740128F5D975D90375824488
:105A1000758305E8FAE0F5D9A31AEA70F875E195FF
:105A2000EE246FF582EF3400F583E0F8A3E0F9EEA1
:105A30002471F582EF3400F583E8F0A3E9F07901F1
:105A400080027900025C2B74F71213CFEAFEEBFFA1
:105A500075D90375D90375D90DEE24DDF582EF34C0
:105A600000F583E0F5D975E1957904122C19EE243F
:105A70006FF582EF3400F583E0F8A3E0F9EE2471CE
:105A8000F582EF3400F583E8F0A3E9F079010259DB
:105A90002574F61213CFEAFEEBFF9061D0E0F874A4
:105AA00080C398FAEE2482F582EF3400F583E0603B
:105AB00004780480027800E8240BF8EAC3985003C5
:105AC000025B567D09900544EDF0EE24E2F8EF34D8
:105AD00000F97A457B057C0888828983E08A828B7D
:105AE00083F088828983A3A882A9838A828B83A377
:105AF000AA82AB831CEC70E0EE2482F582EF3400C6
:105B0000F583E0601D75084475090578081215E2F3
:105B10007C097903EEFAEFFB122B0B74021213755A
:105B20007D0D74012DF5D975D903758244758305F2
:105B30008D08E0F5D9A31508E50870F675E19579AB
:105B400004122C19EE241DF582EF3400F583E4F0E5
:105B5000A3F0790180027900025C2B74F61213CF56
:105B6000EAFEEBFF9061D0E0F87480C398FAEE246F
:105B700082F582EF3400F583E060047804800278D7
:105B800000E82408F8EAC3985003025C29780690DC
:105B90000544740CF09003BEE0900545F09003BFFF
:105BA000E0900546F09003C0E0900547F09003C1F7
:105BB000E0900548F09003C2E0900549F0EE2482A1
:105BC000F582EF3400F583E0601B75084475090524
:105BD00078081215E27C067903EEFA122B0B740298
:105BE000121375780A740128F5D975D903758244A2
:105BF0007583058808E0F5D9A31508E50870F675E2
:105C0000E1957904122C19EE246FF582EF3400F53A
:105C100083E0F8A3E0F9EE2471F582EF3400F58318
:105C2000E8F0A3E9F07901800279007F020214A173
:105C300074F61213CFEAFEEBFF9061D0E0F87480A7
:105C4000C398FAEE2482F582EF3400F583E0600415
:105C5000780480027800E82404F8EAC3985003022C
:105C60005D0A7802900544E8F0EE24F4F582EF3402
:105C700000F583E0900545F0EE2482F582EF3400D4
:105C8000F583E0601B75084475090578081215E274
:105C90007C027903EEFA122B0B740212137578064C
:105CA000740128F5D975D903758244758305880870
:105CB000E0F5D9A31508E50870F675E195EE2473B3
:105CC000F582EF3400F583E4F0EE247FF582EF34C3
:105CD00000F583E4F0EE241DF582EF3400F583E453
:105CE000F0A3F07904122C19EE240DF582EF3400A4
:105CF000F583E0F8A3E0F9EE2471F582EF3400F5C6
:105D000083E8F0A3E9F0790180027900025C2B744A
:105D1000F61213CF9061D0E0F87480C398FCEA24A7
:105D200082F582EB3400F583E06004780480027829
:105D300000E82404F8ECC398405B790290054474B1
:105D400007F0EA24F5F582EB3400F583E090054591
:105D5000F0EA2482F582EB3400F583E060187508E0
:105D60004475090578081215E27C0209122B0B74A0
:105D7000021213757906740129F5D975D903758254
:105D800044758305E9F8E0F5D9A318E870F875E1E2
:105D900095790180027900025C2B74F51213CFE92A
:105DA000FCA2AFE433F50AC2AF7D0080010DEA2406
:105DB0006EF582EB3400F583E0F8EDC398501A8D50
:105DC00008EA2508F8EB3400F9E8246AF582E9349A
:105DD00000F583E06C70D68024EA246EF8EB340082
:105DE000F9E0FEEA2EFAEB3400FBEA246AF582EBD6
:105DF0003400F583ECF088828983E004F0E50AA2A0
:105E0000E092AF7F030214A174F61213CFA2AFE4A5
:105E100033FDC2AFEA246EF582EB3400F583E01463
:105E2000F07C0060368C08EA2508F8EB3400F9E8CD
:105E3000246BF582E93400F583E0C0E0E8246AF5DC
:105E400082E93400F583D0E0F00CEA246EF582EBB1
:105E50003400F583E0F8ECC39840CAEA246DF5827B
:105E6000EB3400F58374FFF0EA2469F582EB34002B
:105E7000F583E4F0EDA2E092AF025C2BC082C08318
:105E8000E5A8F8C2AFEA246AF582EB3400F583E9AD
:105E9000F0EA2469F582EB3400F583E4F0E8A2E748
:105EA000A2E792AF024FF774F31213CFEAFEEBFFB3
:105EB000ECFAEDFB8A828B83A3A3A3A3E0541FF02B
:105EC000EE2436F582EF3400F583E4F0F50AEEFCBB
:105ED000EFFD8A828B83E0C0E0EC245DF582ED3437
:105EE00000F583D0E0F0750B00E50A33333354F846
:105EF000F50C8A828B83E0F508750900E50B7808BC
:105F000012132DE508A2E0502FEE2436F8EF3400EE
:105F1000F988828983E0F508EE2508F508EF34005A
:105F2000F509E5082438F582E5093400F583E50C28
:105F3000F088828983E004F0050B050CE50BC3941F
:105F40000840AF050A8A828B83A3AA82AB838C8226
:105F50008D83A3AC82AD83E50AC394055003025E32
:105F6000D27F050214A174F71213CF9003CDE06421
:105F70000170030260C47A009003D3E06003026002
:105F8000C47401F0A3E4F0A3F090043304F090048F
:105F900038F09003D6E4F0A3F0A3F0A3F09003E070
:105FA00004F0900406E4F09003E9F0A3F0A3F0A35A
:105FB000F0A3F0A3F0A3F0900450F0900444F0900C
:105FC00004397480F0A3E4F090043FF09004BBF037
:105FD000A3F0A3F0A3F0A3F0A3F0A3F0A3F0900428
:105FE000C4F0900453F09004A3F0A3F0A3F0A3F046
:105FF000A3F0A3F0A3F0A3F0A3F0A3F09004AFF0FC
:106000009004B1F09004ADF09004C7F0A3F0A3F0B9
:10601000A3F0A3F0A3F0A3F0A3F078CD7903E824D4
:106020006EF582E93400F58374FFF00A8882898373
:10603000A3A882A983EAC3940440E37ACD7B0378C2
:10604000DB790488828983E0C0E0EA2461F582EB91
:106050003400F583D0E0F088828983A3A882A983E5
:106060008A828B83A3AA82AB83E864E07003E9642D
:106070000470D07ACD7B0378B4790388828983A3B6
:10608000E0C0E0EA24E6F582EB3400F583D0E0F0EE
:1060900088828983A3A882A9838A828B83A3AA8208
:1060A000AB83E864BC7003E9640370CF9003CDE078
:1060B00004F0640170089003D5E09003CFF07AD12A
:1060C0007B0380047A007B00025925C082C0839044
:1060D00003D4E4F09003D3F09003CDF0A3F0A374C5
:1060E000FFF075E1F1024FF7C082C08378007900BC
:1060F0009003D4E0600478D1790388828983A3A3D4
:10610000A3A3E0F9024FF774F61213CFEAFEEBFFF8
:10611000EE2463F582EF3400F583E0F8A3E0F9E8BC
:106120004970030261ACEE2463F8EF3400F97A00A1
:106130007B00A2AFE433F508C2AF88828983E0FC1C
:10614000A3E0FDEC4D603A88828983E0FAA3E0FB8E
:106150008A828B83E0FCA3E0FD88828983ECF0A334
:10616000EDF08A828B83E4F0A3F088828983E0FCDF
:10617000A3E0FDEC4D700A88828983A3A3E4F0A319
:10618000F0E508A2E092AF1231F59004E1E004F0EE
:106190009004E2E004F0EE2463F582EF3400F5832E
:1061A000E0F8A3E0F9E84960030261268E828F835C
:1061B000A3A3A3E0600F8E828F83A3A3A3E4F09038
:1061C00003CEE014F09003CDE014F070069003CFFE
:1061D00074FFF08E828F83A3A3E4F09004E0E0705C
:1061E0000D9003CEE0640170057900122BFBEEFAEE
:1061F000EFFB122B3B025C2B74F71213CFEAFEEB82
:10620000FF8E828F83A3A3A3A3E0FA7B001228173B
:10621000EEFAEFFB122A8D122B23025925C082C001
:106220008378B4790388828983A3E4F088828983A0
:10623000A3A882A983E864BC7003E9640370E690B4
:1062400003B57401024FF674F61213CFEAFEEBFFAA
:10625000EC2403F8ED3400F988088909EC2407F8E8
:10626000ED3400F9E8FCE9FD8C828D83E0F8A3E0D1
:10627000F9850882850983E0FAA3E0FB1212D4EEC7
:10628000240DF582EF3400F583E8F0A3E9F08C8269
:106290008D83E0F8A3E0F9850882850983E0FAA3FD
:1062A000E0FB1212D48B09EA45096013EE240DF5C8
:1062B00082EF3400F583E02401F0A3E03400F00223
:1062C0005C2B74F61213CFEAFEEBFFEE242EF58260
:1062D000EF3400F583E0FCA3E0FD780079FAECFAF6
:1062E000EDFB1212D4EE246FF582EF3400F583E853
:1062F000F0A3E9F0780079FAECFAEDFB1212D48BF6
:1063000009EA45096013EE246FF582EF3400F58346
:10631000E02401F0A3E03400F0025C2B74EC1213D3
:10632000CFEAFEEBFF74141213AB780812121712A7
:106330002BBF8A0C8B0D8C0E8D0F75100275110002
:10634000751200751300780C791012117D7510FF0D
:106350007511FF7512FF780C79101211DE780C128E
:1063600015DE8E828F83E0F8A3E0F5838882A3A3F5
:10637000121235121FED7404121375E960030264E2
:10638000808E828F83E02402F8A3E03400F9E8FADB
:10639000E9FB8A828B8378081211A38A828B83752A
:1063A00008FF7509FF750AFF750B007808121204C3
:1063B000EE240BF582EF3400F583C082C0838E8219
:1063C0008F83A3A3A3A3A3E02401F8A3E03400F9DF
:1063D000D083D082E0687003A3E069700579010280
:1063E00064828E828F83A3A3A3A3A3A3A3E024012B
:1063F000F0A3E03400F0EE2473F582EF3400F5836F
:10640000E064017036EE2474F582EF3400F583E029
:10641000F8A3E0F98E828F83A3A3A3A3A3A3A3E091
:10642000687003A3E0697013EE2474F582EF340002
:10643000F583E02401F0A3E03400F0EE247FF58240
:10644000EF3400F583E064017036EE2480F582EFCE
:106450003400F583E0F8A3E0F98E828F83A3A3A331
:10646000A3A3A3A3E0687003A3E0697013EE2480E4
:10647000F582EF3400F583E02401F0A3E03400F06E
:10648000790002518F74F61213CFE9FEECFFEA2473
:1064900062F582EB3400F583E06401600302652E4F
:1064A0009061D0E0F508EA2482F582EB3400F583B0
:1064B000E060047804800278007480C39508FC953D
