:020000040000FA
:06000000020107022127A6
:03002B000223AFFE
:0300330002239114
:03003B000223D0CD
:0300430002234550
:0300530002219AED
:03006B0002236B02
:10008300021F93E5C754F84401F5C7790122000024
:100093000080FB120086B900030200F1E4791A78AC
:1000A30002B800028004F709D8FCE4791C7802B88E
:1000B30000028004F709D8FCE4900281787C790F70
:1000C3008002F0A3D8FCD9FA7AFC7B109001377830
:1000D300D979018015E493A3AD82AE838A828B83A1
:1000E300F0A3AA82AB838D828E83D8E9D9E7758288
:1000F300CF7583CF740312011975829175830074D0
:100103000012011975D00075813F751881751902A8
:10011300759F00020096C09FF59FE473D09F22D085
:1001230083D082C09FE493C0E0740193C0E0740263
:1001330093F59F229B03AD03D703A103FF0000B4F4
:10014300000028002800283075A000A000A000A00F
:100153000000080008E001F000100010001000107B
:10016300001000100050005000500010001000D08C
:10017300070000000000000F0001000500307507B4
:10018300001000010081FF00000000FF0202021EB8
:10019300840100000E840214840100005411021C27
:1001A30084010000B2020214840100005511021AF6
:1001B30084010000C802FFFF0100FF20021E84012A
:1001C30000001184021484010000831102188400CA
:1001D30000000000022084030000A503030B030BAF
:1001E300030B030B030B030B030B030B030B030B9C
:1001F300030B030B030BD70CF50CD10CFFFF01E82A
:1002030003053F10020AFA00FF00FEFF120122F36A
:10021300C40312012209C50312012238C5031201C6
:10022300226EC50312012285C5031201229CC50358
:10023300120122D3C50312012226C6031201223D55
:10024300C603120122F6BC031201220DBD031201E3
:10025300223EBD0312012279BD03120122A3BD0375
:10026300120122CDBD03120122E4BD03120122FBC0
:10027300BD0312012212BE031201223BBE0312016F
:10028300224EBE0312012264BE031201228EBE035C
:1002930012012235AA0212012239AB02120122668F
:1002A300AB02120122BCAB02120122DFAB0212012C
:1002B30022F3AB02120122F5AB0212012218AC02A7
:1002C30012012227AD02120122EBAD02120122C05C
:1002D300AE0212012231AF02120122BDAF0212019E
:1002E30022C0AF0212012248B00212012283B002DF
:1002F300120122EAB002120122EDB00212012224FD
:10030300B1021201224DB102120122F8B10212010F
:100313002282B202120122D1B202120122DEB20201
:10032300120122E1B20212012241B3021201224C54
:10033300B302120122CBB302120122CEB302120185
:1003430022E1B302120122E4B30212012273B402C6
:100353001201228DB4021201229DB402120122CD98
:10036300B402120122DAB402120122DDB402120134
:10037300225EB5021201224CB602120122FEB6021F
:1003830012012240CD0212012238CE021201226C48
:10039300CE02120122EECE021201220ECF02120170
:1003A3002256CF02120122A9CF021201220DD0023E
:1003B3001201229AD00212012254D10212012263A5
:1003C300D402120122EED50212012211D602120129
:1003D300221E9D03120122BB9E031201221F9F03B3
:1003E3001201227E9F031201228C9F03120122B568
:1003F3009F03120122B98503120122E18503120131
:10040300220F8603120122468603120122A48603C9
:10041300120122EF86031201223A87031201227A84
:100423008703120122C08703120122EE8703120100
:1004330022AB8803120122B58803120122C288036A
:10044300120122F58803120122C18903120122CD70
:100453008903120122E58903120122EF89031201A4
:10046300226D8A0312012223CC0312012231CC0311
:1004730012012249CC0312012261CC031201227919
:10048300CC0312012298EF0112012244F001120160
:1004930022BFF001120122E0F1011201221CF2013C
:1004A300120122C5F201120122ACF3011201221042
:1004B300F50112012267F501120122E8F50112018B
:1004C30022D8F60112012225F701120122ABF7010E
:1004D300120122DDF701120122F1F9011201223387
:1004E300FA0112012251FA01120122F3FA01120157
:1004F30022BBFB01120122C8FD0112012264A403E5
:100503001201227AA403120122A0A403120122BC25
:10051300A503120122C6A503120122FBA6031201A1
:1005230022F3A7031201220F9003120122B39003B7
:10053300120122E69003120122309103120122F3E9
:1005430092031201225FB001120122D8B0011201FD
:1005530022E8B001120122D6B101120122E0B10159
:1005630012012205B20112012210B201120122FA74
:10057300B2011201225DB30112012213B40112016F
:1005830022FAB501120122B3B7011201228FB80179
:1005930012012243B90112012280BC011201222E51
:1005A300BD011201229DBE011201221DC0011201D3
:1005B30022C4C0011201220DC10112012244C10152
:1005C300120122E1C1011201226CC201120122496E
:1005D300C3011201229EC301120122FDC4011201B3
:1005E300220DC5011201223AC50112012291C50152
:1005F3001201223AC60112012241C7011201220B44
:10060300C8011201226BC901120122AEC9011201F4
:100613002253CA0112012279CA0112012287CC0195
:100623001201228CCC0112012291CE01120122DE91
:10063300CE0112012251CF0112012284CF011201F6
:100643002226D001120122CFD00112012207D101AB
:100653001201220AD10112012252D1011201229464
:10066300D101120122EBD10112012267B50312015C
:10067300227AB50312012288B503120122D0B503F1
:10068300120122E6B5031201222DB6031201224103
:10069300B703120122CEB70312012219B8031201C4
:1006A30022FB5E001201220B5F001201226E5F002B
:1006B300120122B35F001201226960001201224479
:1006C30061001201226D61001201229D610012017D
:1006D30022DD6300120122C465001201229C67001F
:1006E300120122E06800120122476B001201225519
:1006F3006C00120122A76D00120122B16E001201DB
:1007030022F36E001201222B6F001201224D6F00A3
:10071300120122B06F00120122727400120122072B
:1007230075001201225B750012012282750012010D
:1007330022C07500120122DF7500120122397600F2
:10074300120122397700120122BE77001201223EE4
:10075300F40212012248F402120122F0F4021201FF
:100763002233F5021201224EF502120122DEF502B6
:1007730012012206F6021201223EF602120122752E
:10078300F6021201229EF602120122D8F60212018B
:1007930022EDF602120122BAF702120122DDF7025C
:1007A300120122FFF70212012214F8021201229A07
:1007B300F802120122D4F8021201224CF9021201AA
:1007C3002295F902120122BFF902120122EAF9026B
:1007D3001201220FC9031201220080021201222EEC
:1007E300800212012289810212012269820212010E
:1007F3002288820212012205830212012248830207
:10080300120122C384021201223285021201225DE7
:100813008702120122E18902120122928A02120145
:1008230022888B02120122288C02120122268D02B9
:10083300120122B18D02120122BCC703120122252B
:10084300C80312012279C803120122A8C8031201A6
:1008530022C9C803120122909403120122FD9403BA
:100863001201224495031201225C960312012258BD
:1008730097031201223B980312012227E702120178
:100883002269E70212012242E8021201223CE90234
:100893001201221EEA0212012287EA02120122A396
:1008A300EB021201220FEC0212012212EC021201DE
:1008B300223BEC02120122B5EC021201225AED0294
:1008C3001201226FED02120122B5ED02120122CEB6
:1008D300ED02120122D1ED02120122FDA703120142
:1008E3002239A80312012277A80312012241A90386
:1008F300120122B0A903120122EBA903120122293A
:10090300AA0312012259AA0312012280AA03120187
:1009130022EEAA0312012230AB031201222E84011C
:100923001201224D86011201223088011201226C2C
:1009330088011201229988011201226089011201A2
:1009430022AB8901120122F68901120122088A01D0
:10095300120122488A011201227C8A01120122CA51
:100963008A01120122FB8A011201221E8B0112014C
:1009730022A58B011201228D8C011201227A8D0195
:10098300120122738E01120122829001120122248C
:100993009601120122749601120122EB98011201B1
:1009A30022E1FD0112012296FF01120122244200DD
:1009B300120122D342001201221D430012012253CD
:1009C3004400120122E945001201225E4600120191
:1009D300229F4600120122F14600120122624800C2
:1009E300120122A74A00120122A14B00120122C0C8
:1009F3004B00120122DF4B00120122E24B001201D5
:100A030022134D001201220B4E00120122F74E0059
:100A1300120122674F00120122D94F0012012260F6
:100A230050001201223B5100120122105200120108
:100A330022EF52001201227A5300120122E85300DE
:100A43001201225C54001201228754001201224633
:100A530055001201223358001201227C5800120162
:100A630022BF5800120122385900120122D0590026
:100A7300120122C15A00120122E65A001201222C4D
:100A83005B00120122565B001201229E5B001201E1
:100A930022195C00120122735C00120122DC5D004A
:100AA3001201228A5E00120122CB5E001201226132
:100AB3009C02120122AF9C02120122BB9C02120172
:100AC30022999D02120122CA9D02120122FB9D025C
:100AD3001201227B9E02120122B39E021201220501
:100AE3009F02120122429F021201225FA102120100
:100AF3002285A30212012270A5021201225AA70223
:100B030012012239240012012212FA021201225D7B
:100B1300FE02120122A1FF0212012244E10112018D
:100B230022FCE30112012202E401120122BCE601CC
:100B330012012289E901120122F58A031201229985
:100B43008B031201226B8C03120122958C03120179
:100B530022E38E031201224424001201228E240078
:100B6300120122CF320012012254340012012277E3
:100B73003500120122E83B00120122E33C0012017E
:100B830022203D00120122433D00120122853D0037
:100B93001201228F3D001201227D3E0012012273B9
:100BA3003F001201220C4000120122E7AE031201A2
:100BB30022E1AF0312012255B00312012293B003C5
:100BC30012012207B10312012280B103120122890B
:100BD300B10312012295B103120122AAB10312013A
:100BE30022E8B103120122FEB103120122F5ED0244
:100BF30012012202EE021201221CEE021201225BFA
:100C0300EE0212012299EE02120122FEEE021201FD
:100C13002213EF021201222AEF0212012238EF02FD
:100C230012012247EF021201225CEF02120122712C
:100C3300EF021201227CEF0212012288EF0212015D
:100C43002295EF02120122A4EF02120122AFEF025A
:100C5300120122D4EF021201227BF0021201229030
:100C6300F002120122A5F002120122BFF0021201CA
:100C730022DAF002120122F7F00212012202F1023B
:100C8300120122BEF102120122AAF202120122CFA4
:100C9300F202120122DAF202120122EFF20212012F
:100CA3002203F30212012264F3021201226AF30205
:100CB30012012270F30212012276F3021201228E34
:100CC300F302120122C1F302120122EAC20212014B
:100CD300220CC302120122ECC302120122C3C60278
:100CE300120122EFC70212012213C902120122C507
:100CF300C90212012266CA02120122378E021201B0
:100D030022BB8E021201226A8F02120122C99002B3
:100D1300120122EA9202120122D693021201220B3D
:100D230094021201222D9402120122DC9402120178
:100D330022D49602120122FD96021201228F9702FB
:100D4300120122C19702120122CE9702120122251B
:100D530098021201224B9802120122B89A02120140
:100D630022BB9B02120122139C02120122D8D20140
:100D7300120122E2D301120122C9D401120122D3AA
:100D8300D401120122F5D40112012201D50112016D
:100D9300229AD601120122C9D601120122E5D701F6
:100DA3001201223ED801120122A4D9011201228389
:100DB300DA01120122DFDA011201224CDB011201F6
:100DC3002287DB01120122C6DB011201227FDE0131
:100DD30012012299DE0112012225DF0112012233C1
:100DE300DF011201228CDF011201229ADF011201BD
:100DF300220DE00112012271E001120122BBE00188
:100E0300120122A0BE03120122C5BE031201223722
:100E1300BF031201222578001201222E780012014D
:100E2300223778001201220E7900120122BF7A00C4
:100E3300120122F57A001201222F7B001201226592
:100E43007B001201229F7B00120122D37B0012013F
:100E530022FF7B00120122487C00120122827C00C7
:100E6300120122CB7C00120122237D0012012258A1
:100E73007D00120122B37D00120122ED7D001201DB
:100E8300223E7E00120122747E00120122AE7E00F9
:100E9300120122D17E00120122C8CD03120122F4D5
:100EA300CD031201224FCE0312012259CE031201A8
:100EB3002269CE0312012232DF021201223CDF0239
:100EC3001201227ADF02120122C3DF02120122FD84
:100ED300DF0212012253E00212012274E002120126
:100EE30022F9E20212012202E3021201224DE3027D
:100EF30012012276E30212012280E302120122ECA4
:100F0300E30212012282E402120122CCE402120162
:100F130022FCE40212012285E502120122C5E50248
:100F2300120122FDE5021201220FE6021201222E16
:100F3300E60212012237E602120122FDE602120145
:100F4300222CCB0312012207BB031201223DBB0358
:100F530012012273BB03120122BCBC0312012271D2
:100F63007F00120122877F00120122917F0012016C
:100F730022FD9803120122129903120122C599033B
:100F8300120122059A031201221E9A031201225210
:100F93009A031201229F9A03120122D39A03120188
:100FA30022159B03120122119D0312012270CF030C
:100FB300120122E2C1031201220BC20312012234E5
:100FC300C203120122CFC203120122E7C20312019C
:100FD3002229C30312012254C60312012262C6034B
:100FE300120122CDC6031201221FC7031201223DA3
:100FF300C7031201220080031201223F8003120162
:1010030022C88003120122DD8003120122288103FA
:101013001201225C81031201229B8103120122AA85
:1010230081031201225C8203120122B582031201A1
:10103300220483031201225A83031201224F8403E1
:101043001201224485031201228185031201221019
:10105300CF03120122049B01120122849D0112017C
:1010630022F79E01120122F49F011201227DA001A9
:1010730012012201A10112012226A10112012276ED
:10108300A1011201220BA5011201227FA501120168
:10109300226BA601120122A5A601120122E5A601D7
:1010A30012012290A801120122C1A80112012214E7
:1010B300A9011201225DA901120122CBA90112018A
:1010C30022FDA90112012215AA011201222AAB0154
:1010D3001201223AAB0112012258AC011201227A09
:1010E300AC01120122B0AC0112012259AE0112016E
:1010F30022D2AE0112012211AF0112012228B00146
:1011030012012212CD0312012223CD031201222246
:10111300D00312012261D003120122ECFF0112015C
:101123002273CE0312012283CE031201229ECE0329
:1011330012012206CF0312012228CA03120122AD93
:10114300CA0312012213CB031201226EC30312013D
:101153002297C30312012202C40312012253C403C0
:10116300120122ACC4031201222EB2031201224344
:10117300B20312012259B303120122DBB30312019A
:10118300224FB40312012269B40312012280B40373
:1011930012012293B403120122ABB403120122C041
:1011A300B403120122E1B40312012232B503120186
:1011B30022C9A003120122DAA00312012257A103BC
:1011C3001201222CA203120122FEA3031201227890
:1011D300AB0312012208AC0312012286AC031201F5
:1011E300220FAD03120122A4AD031201222EAE037E
:1011F30012012238AE0312012247AE031201225D0F
:10120300AE0312012270AE03120122D0AE0312010B
:1012130022E4AE0312012245C00312012295C0034A
:101223001201221EC10312012284C10312012243AF
:10123300B8031201226DB80312012233B90312015C
:10124300220EBA0312012295BA031201223CD702DD
:10125300120122F9D70212012234D8021201225CB0
:10126300D802120122BED8021201220AD9021201A7
:10127300226AD902120122FDD902120122FCDA02EA
:101283001201228BDC021201220EDD0212012275F1
:10129300DD021201228CDD0212012296DE0212010E
:1012A30022D4DE021201226FB7021201227AB8029F
:1012B30012012249B90212012201BC02120122EADF
:1012C300BC021201222ABD02120122C5BF02120171
:1012D3002219C002120122ADC002120122D8C1029A
:1012E30012012275C202120122A1D0031201226B44
:1012F300D003120122CDD003120122DB7F00E76667
:1013030070100809E766700A0809E766700408099F
:10131300E76622E066701008A3E066700A08A3E09F
:1013230066700408A3E06622C3E7960809E79608F7
:1013330009E7960809E79622C3E09608A3E0960812
:10134300A3E09608A3E09622C008C3E096F5080838
:10135300A3E096420808A3E096420808A3E0964556
:10136300087001D3D00822080808EAC0E0EBC0E007
:1013730086F0E7A4FA180986F0E7A42AFA18098682
:10138300F0E7A42AFA180986F0E7A42AFA1986F0E6
:10139300E7A4FBE5F02AFA190886F0E7A42BFBE59E
:1013A300F03AFA190886F0E7A42BFBE5F03AFA18AD
:1013B300180986F0E7A4C5F02BFBE43AFA1908E70D
:1013C300C5F0C6A426F6E5F03BFBE43AFA1886F02E
:1013D300E7A4F6E5F00826F6E43B08F6E43A08F657
:1013E300D0E0FBD0E0FA22E4CFC0E0E4CEC0E0E4FA
:1013F300CDC0E0E4CCC0E075F020E626F608E63385
:10140300F608E633F608E633F6181818EC33FCED65
:1014130033FDEE33FEEF33FFC3EC9709ED9709EE8F
:101423009709EF97191919400FFFEC97FC09ED97EE
:10143300FD09EE97FE191906D5F0BFECF709EDF794
:1014430009EEF709EFF7191919D0E0FCD0E0FDD048
:10145300E0FED0E0FF226016080808C6C313C618D2
:10146300C613C618C613C618C613C6D5E0EA22703B
:1014730009080808226016181818C6C333C608C618
:1014830033C608C633C608C633C6D5E0EA22E62704
:10149300F60809E637F60809E637F60809E637F6E7
:1014A30022E026F608A3E036F608A3E036F608A302
:1014B300E036F622E026F008A3E036F008A3E03693
:1014C300F008A3E036F022C3E697F60809E697F69C
:1014D3000809E697F60809E697F622C3E096F008AE
:1014E300A3E096F008A3E096F008A3E096F022E6C6
:1014F30057F60809E657F60809E657F60809E657C6
:10150300F622E056F008A3E056F008A3E056F008F0
:10151300A3E056F022E667F60809E667F60809E64F
:1015230067F60809E667F622E0F608A3E0F608A3E3
:10153300E0F608A3E0F622E6F008A3E6F008A3E647
:10154300F008A3E6F022E0FAA3E0FBA3E0FCA3E0AB
:10155300FD22EAF0A3EBF0A3ECF0A3EDF022E0F818
:10156300A3E0F9A3E0FAA3E0FB22E8F0A3E9F0A3E8
:10157300EAF0A3EBF022CAC0E0E6F0A308DAFAD05F
:10158300E0FA22CAC0E0E0A3C582CCC582C583CD00
:10159300C583F0A3C582CCC582C583CDC583DAE6F6
:1015A300D0E0CA22C3E498F8E499F91215E880263A
:1015B300C3E49AFAE49BFBE920E7E91215E8E4980F
:1015C300F8E499F922C3E498F8E499F91215E8E4E8
:1015D30098F8E499F9C3E49AFAE49BFB22EB20E739
:1015E300CFE920E7E0B90010BB0008E88AF084F8EF
:1015F300AAF022E4FBC8FA22EB70227B10C833C89E
:10160300C933C9335007C39AC3DBF280069A50012A
:101613002ADBEAC833F4C8C933F4C9FA2275F008DF
:10162300E4C833C8C933C933C99AC99B5004C92A0A
:10163300C93BD5F0ECFBC833F4C8E4C9FA22600D0A
:1016430008C6A2E713C618C613C6D5E0F322600C7A
:1016530008C6C313C618C613C6D5E0F42270042205
:10166300600D18C6C333C608C633C6D5E0F41822C6
:10167300251810AF08F518400C15198008F5184007
:10168300021519D2AF2200C0D0251810AF08F518E3
:10169300500C05198008F51850020519D2AFD0D0A7
:1016A300222518F58210AF08F518400C151980088B
:1016B300F51840021519D2AF85198322C582251862
:1016C300C582C583351910AF07F5198582188007C0
:1016D300F519858218D2AFC583222518F582E43522
:1016E30019F583222518F8E43519F9222518FAE4A7
:1016F3003519FB222518FCE43519FD22E47325185E
:10170300C582C0E0E51934FFC583C0E0E518C39581
:101713008224F810AF088583198582188008858391
:1017230019858218D2AFCEF0A3E520F0A37808E69E
:1017330008F0A3DEFAEFF0A3E58124FAF8E608F057
:10174300A3E608F0A3E608F0A30808E608F0A3E67A
:1017530008F0A315811581D0E0FED0E0F8158115BE
:10176300811581E8C0E0EEC0E0222518C582C0E003
:10177300E51934FFC583C0E0E518C3958224F91049
:10178300AF08858319858218800885831985821897
:10179300D2AFCEF0A3E520F0A37808E608F0A3DEED
:1017A300FAEFF0A3E58124FBF8E608F0A3E608F0DE
:1017B300A30808E608F0A3E608F0A315811581D075
:1017C300E0FED0E0F815811581E8C0E0EEC0E0222C
:1017D300851983851882E0A3FEE0A3F5207808E04D
:1017E300A3F608DFFAE0A3FFE0A3C0E0E0A3C0E0B4
:1017F300E0A3C0E0E0A3C0E0E0A3C0E010AF088531
:1018030082188583198008858218858319D2AFD001
:1018130083D08202011F851983851882E0A3FEE02D
:10182300A3F5207808E0A3F608DFFAE0A3FFE0A31E
:10183300C0E0E0A3C0E0E0A3C0E0E0A3C0E010AFDD
:10184300088582188583198008858218858319D2B3
:10185300AFD083D08222C0D02518C582C0E0E5195D
:1018630034FFC583C0E0E518C3958224F310AF08A5
:101873008583198582188008858319858218D2AFDC
:10188300C8F0A3E9F0A3EAF0A3EBF0A37908E70912
:10189300F0A3D8FAECF0A3EDF0A3EEF0A3EFF0A3DE
:1018A300D0E0F0A3D0E0F0A3D0E0F0A3E520F0A3D4
:1018B300E5F0F0A322851983851882E0C0E0A3E058
:1018C300F9A3E0FAA3E0FBA37808E0F608A3DFFAA4
:1018D300E0FCA3E0FDA3E0FEA3E0FFA3E0C0E0A3E0
:1018E300E0C0E0A3E0F5D0A3E0F520A3E0A3F5F08A
:1018F30010AF08858319858218800885831985822E
:1019030018D2AFD082D083D0E0F8D0E03274048014
:1019130006740280027401C0E0F4041216A4D0E03D
:10192300121579227404800474028000CCC0E0EDA7
:10193300C0E0E518C39CCCAD1950011D10AF068C57
:10194300188D1980068C188D19D2AF121586D0E028
:10195300FDD0E0FC22D083D082E9C0E0E493A3C3AE
:1019630086F0C5F095F0F908E493A386F0C5F095E9
:10197300F0700BE493A3C3994005E9048002A3E448
:1019830075F002A42582F582E5F03583F583D0E076
:10199300F9E493A3C0E0E493C0E022D083D082ECC7
:1019A300C0E0EDC0E0E493A3FCE493A3FDED4C6041
:1019B3000D1219EAEC24FFFCED34FFFD80EFE493F4
:1019C300A3FCE493A3FDED4C600D121A29EC24FF54
:1019D300FCED34FFFD80EFD0E0FDD0E0FCE493A309
:1019E300C0E0E493C0E022C0E0C3E493960874012E
:1019F300939618400FE49366700808740193661871
:101A030070007019A3A3C3E4939608740193961806
:101A1300A3A3400DD0E0D0E0D0E00219DAA3A3A342
:101A2300A3A3A3D0E022C0E0C0F088F0E4936670E3
:101A3300080874019366187000A8F0A3A3700BD074
:101A4300F0D0E0D0E0D0E00219DAA3A3D0F0D0E0E8
:101A53002274F512176DEAFEEBFFEE2434F8EF342F
:101A630000F988088909EE2435F582EF3400F583FF
:101A7300E0F8EE2437F582EF3400F583E0F50AEC65
:101A8300850AF0A4FCAAF0850AF0EDA42AFDE82C4F
:101A9300F8E43DF97A257B001215E8EA850882858A
:101AA3000983F0F8740758F97401B900028004C37C
:101AB30033D9FCFAE8131313541FF8EE28F8EF3464
:101AC30000F9E8245DF582E93400F583E05A600803
:101AD300EE2434F582EF802CEE2434F582EF3400CB
:101AE300F583E0C0E0EE2436F582EF3400F583E0C1
:101AF300F5F0D0E084A8F0EE28F8EF3400F9E824FC
:101B030038F582E93400F583E0F97F04021819748B
:101B1300F512176DEAFEEBFFEE2434F582EF340085
:101B2300F583E0C0E0EE2435F582EF3400F583D091
:101B3300E0F08E828F83A3A3A3A3A3A3A3C082C039
:101B4300838E828F83A3A3A3A3A3E0F8A3E0F9D09A
:101B530083D082E0C398F508A3E099F509EE247FCA
:101B6300F582EF3400F583E064017069EE2480F5BB
:101B730082EF3400F583E0F8A3E0F98E828F83A32C
:101B8300A3A3A3A3A3A3E0FCA3E0FD8E828F83A35F
:101B9300A3A3A3A3E0FAA3E0FBC3EA9CEB9D50102D
:101BA300C3EC98ED99402EC3EA98EB995027800E29
:101BB300C3EA98EB994007C3EC98ED9940177CBFB3
:101BC3007D07EEFAEFFB120A49EE247FF582EF342C
:101BD30000F583E4F0EE2434F8EF3400F9E8FCE98F
:101BE300FDEE2435F582EF3400F583E0F8EE24377B
:101BF300F582EF3400F583E0F50AE508850AF0A4E1
:101C0300F508AAF0850AF0E509A42AF509E82508EC
:101C1300F8E43509F97A257B001215E8EA8C828D00
:101C230083F0F8740758F97401B900028004C333D0
:101C3300D9FCFAE8131313541FF8EE28F8EF340015
:101C4300F9E8245DF582E93400F583E05A6008EE93
:101C53002434F582EF802CEE2434F582EF3400F542
:101C630083E0C0E0EE2436F582EF3400F583E0F53F
:101C7300F0D0E084A8F0EE28F8EF3400F9E8243837
:101C8300F582E93400F583E0F9122331021B0D7468
:101C9300EF12176D900479E064086005E064077043
:101CA3002A9061C8E060249004A7E0F4601DE0F886
:101CB30075F005A4C8AAF02AF974A928FE7404399A
:101CC300FF8E828F83A3A3A3E07003021DC29060E3
:101CD30060E0C0E0EE2468F582EF3400F583D0E0E5
:101CE300F0750CFB750D07750800750900E5D9142F
:101CF300F50AE5D95403F50E60177403650E605CAD
:101D0300E50A6010EE2467F582EF3400F583E07096
:101D130003021DA79007F6E06401602AEE2482F512
:101D230082EF3400F583E060047804800278008554
:101D33000A08E508C398FA95E0FB12092F8A088B75
:101D430009EA45097005120CAD8074EE2482F58210
:101D5300EF3400F583E070048A0C8B0DE50A601202
:101D6300850C82850D83F50BE5D9F0A3150BE50BE7
:101D730070F6EE2482F582EF3400F583E06044745C
:101D8300FC250AF50A780C121914AC0AA90EEEFA0E
:101D9300EFFB120AFD7402121689E97026AA08AB3A
:101DA3000912121D793D8E828F83A3A3A3A3E0FAA8
:101DB3007B00120815EEFAEFFB120A6D120B5D7928
:101DC3000080747403650E6056850A1075110078DF
:101DD30010121914AC0CAD0DAA08AB09120AD97470
:101DE30002121689EE2468F582EF3400F583E0646D
:101DF300807004747F8001E0F50C780C121918E5EB
:101E03000EF50C780C121918A90AAC08AD09900448
:101E1300A7E0FA7B001207D374021216898013908D
:101E23000479E06408700BAC0CAD0DEEFAEFFB1215
:101E33000B2D120CB979017F0A02181974F51217C8
:101E43006D74FC121673EAFEEBFF8908A2AFE4334C
:101E5300F509C2AF806AEE2463F8EF3400F97A0023
:101E63007B00A2AFE433F50AC2AF88828983E0FC2A
:101E7300A3E0FDEC4D603A88828983E0FAA3E0FB9E
:101E83008A828B83E0FCA3E0FD88828983ECF0A344
:101E9300EDF08A828B83E4F0A3F088828983E0FCEF
:101EA300A3E0FDEC4D700A88828983A3A3E4F0A329
:101EB300F0E50AA2E092AF12121D9007C6E004F00B
:101EC300EE2463F582EF3400F583E0F8A3E0F9E84C
:101ED30049603DEE2463F582EF3400F583E024028C
:101EE300FAA3E03400FBEA2402F50AEB3400F50B15
:101EF300780A1219148A828B83E0FCA3E0F9EEFAC4
:101F0300EFFB120A9D7402121689E97003021E592F
:101F13009007C6E060639007C7E0F89007C6E0C388
:101F230098500C7402650870509007C8E0604A8EA0
:101F3300828F83A3A3A3A3E0851882851983F0A3CB
:101F4300E4F09007C6E0F874021216DDE8F0A3E4AB
:101F5300F09007C6E0F89007C5E028F07402121667
:101F6300DDAC82AD83851882851983AA82AB837920
:101F7300011207DF9007C6E4F0E509A2E092AF740F
:101F830004121689021B0D0000851A87851BC622C1
:101F9300C0E0C0D0E8C0E0E9C0E0EAC0E0EBC0E0E8
:101FA300ECC0E0EDC0E0EEC0E0C008C009C00AC06C
:101FB3000BC082C083C0F0A2AFE433FEC2AF759BF7
:101FC30000906182E0A2E05012E591A2E0500C750E
:101FD30091FE7401651A7003121C92E0A2E5505140
:101FE300E591A2E5504B7591DF900479E0640760B9
:101FF30005E0640870237401651A70357901900453
:10200300A7E0FA75F005A4CAA8F028FB74A92AFA78
:1020130074043BFB121E3F8018E0640D70139004A0
:102023009BE004F064287002E4F07A00E0F9120CFB
:10203300BF906182E0A2E640030220DAE591A2E6C6
:1020430040030220DA7591BF900479E064057008BB
:10205300120BC9120BD58003120BCF751A00120C89
:102063002FE990047AF07900120C111209B97A0160
:102073007B00900478E0F9120F17907803E0644234
:1020830070559007FAE014F0704DC2AF1220920021
:10209300781DD0E0F618D0E0F6E59F54077005757B
:1020A30009FF800375097FC4C0E0781CE6F50808C2
:1020B300E65509F509740B7808121651D0E0250886
:1020C300F8906270E0A2E740F8E8C333906272F0E0
:1020D300906270E0D2E0F0906181E0A2E35009E504
:1020E300E9A2E3500375E9F7A3E0A2E75009E591FC
:1020F300A2E7500375917FEEA2E092AFD0F0D083B8
:10210300D082D00BD00AD009D008D0E0FED0E0FDB9
:10211300D0E0FCD0E0FBD0E0FAD0E0F9D0E0F8D09A
:10212300D0D0E032C0E0C0D0C082C083906183E0F1
:10213300A2E05009E5BFA2E0500375BFFEE0A2E1B3
:102143005009E5BFA2E1500375BFFDE0A2E25009CB
:10215300E5BFA2E2500375BFFBE0A2E35009E5BF70
:10216300A2E3500375BFF7E0A2E45009E5BFA2E480
:10217300500375BFEFE0A2E55009E5BFA2E55003A8
:1021830075BFDFE0A2E65009E5BFA2E6500375BFC5
:10219300BFD083D0828088C0E0C0D0E8C0E0E9C06F
:1021A300E0EAC0E0EBC0E0ECC0E0EDC0E0C0F0E589
:1021B300A7A2E6500FE5A1A2E6500953A7BF75A158
:1021C300BF1221FFE5A7A2E5500CE5A1A2E5500649
:1021D30053A7DF75A1DFE5A7A2E15009E5A1A2E1BD
:1021E300500375A1FDE5A7A2E2500CE5A1A2E250C0
:1021F3000653A7FB75A1FBD0F002211074F8121748
:102203006D751A01900479E064067015120B818ACA
:10221300828B83A3A3A3A3A3A3E0FAA3E0FB120BE4
:10222300B7A2AFE433FED2AF90047FE0640170182D
:102233007A207B00900478E0F9120F957A207B00D6
:10224300900478E0F9120F1D906182E0D2E6F090DD
:1022530007F7E0602185C61B801690047EE06401C9
:102263007008E5C654F84405F5C653BEFC121F8C2E
:102273007401651A60E4EEA2E092AF7F01021819BF
:1022830074ED12176D8A088B098C0A8D0B74131267
:1022930016DD780C12152B7808790C12132B751098
:1022A300017511C875120075130050127808790C66
:1022B3001214CA7810790812132B50168010780C58
:1022C30079081214CA7810790C12132B400479017F
:1022D300800279007F0C02181974ED12176D8A08B9
:1022E3008B098C0A8D0B74131216DD780C12152BC7
:1022F300780C790812132B40117808790C1214CA40
:10230300AA08AB09AC0AAD0B802275100075110049
:102313007512007513017810790C1214CA781079AC
:1023230008121491AA10AB11AC12AD1380A6C0828F
:10233300C083E9906000F0D083D08222C2AF020054
:102343000022C0E074F2121859A2AFE433FED2AFF8
:10235300C2C0E5D1A2E4500653D1EF121211EEA28E
:10236300E092AF7F010218B8C0E074F2121859A2CC
:10237300AFE433FED2AFE589A2E1500312116375D6
:102383008900C2C5EEA2E092AF7F010218B8C0E097
:1023930074F2121859A2AFE433FED2AFE58BA2E078
:1023A3005003121163758B00C2E880D8C0E0C0D01F
:1023B300E8C0E0E9C0E0E5A8D2AFC2C7A2E7A2E760
:1023C30092AFD0E0F9D0E0F8D0D0D0E032C0E0C096
:1023D300D0E8C0E0E9C0E0C008C009C082C083A261
:1023E300AFE433F9D2AF901054E0F8A3E06870087B
:1023F300539AFBA374018025C2E9901054E0F508B9
:1024030074012508F074D42508F582E4340FF583AC
:10241300E0F5C1901054E0C394804002E4F0E9A2D7
:10242300E092AFD083D082D009D008D0E0F9D0E0D9
:10243300F8D0D0D0E03202011FFFFFFFFFFFFFFF04
:10244300FFC082C083784C790888828983A3A3A3C1
:10245300A3A3A3E4F088828983A3A3A3A3A374FF04
:10246300F0E82418F8E93400F9E864AC7003E9648F
:102473000870D690084E74FFF090084DE4F0900871
:102483004CF090084FF0A3F0023D3C74EC1217019E
:1024930090084FE0F508A3E0F509E5084509700643
:1024A3001209B90232CA850882850983E0146018CB
:1024B30014601524FE601124C47003022CD024C0C0
:1024C3007003022CD00232CAE0F9120B6F8A0A8B16
:1024D3000BAE0AAF0B9004A6E070030228CE120ADB
:1024E30061E9F875F005A4C8AAF02AF974A928F5DA
:1024F3000C740439F50D850C82F583E0F50AA3E02D
:10250300F50BAC0AFDEEFAEFFB120B69E9F50E745D
:1025130002650E70030228768E828F83E024FE60AC
:102523000A24FE70030227600232CAEE65087003B4
:10253300EF650960211209D79007DAE0640170168C
:102543009007D9E070107901120C7D120C4D120C1A
:10255300777900120C83E50E6021E5082415F582D6
:10256300E5093400F583E060129007D5E0F8A3E0B5
:10257300F9A3E0687003A3E0697042120BE18A0CCF
:102583008B0D8C0E8D0F7510037511007512007570
:102593001300780C79101214917510FF7511FF75E3
:1025A30012FF780C79101214F28E828F83A3A3E5A5
:1025B3000CF0A3E50DF0A3E50EF0A3E4F0E5082489
:1025C30015F582E5093400F583E064016003022612
:1025D30078850A82850B83A3A3750CF1750DFF75AE
:1025E3000EFF750FFF780C1214A4780C1219108EBD
:1025F300828F83A3A3C082C0839007D7E0F508A38B
:10260300E085080CF50DE4F50EF50FD083D0827844
:102613000C1214A4AA0CAB0DAC0EAD0F12228374D2
:1026230004121689E9701F8E828F83A3A3C082C010
:10263300839007D7E0F508A3E0F509E4F50AF50B65
:10264300D083D0828014850A82850B83A3A3750867
:10265300F17509FF750AFF750BFF78081214A4754D
:102663000CFF750DFF750EFF750F007808790C12BE
:1026730014F2022BC8EE240EF582EF3400F5831218
:1026830019278E828F83A3A3121549122283740400
:10269300121689E9640160030231EB850A82850B16
:1026A30083A3A3750CF1750DFF750EFF750FFF78EE
:1026B3000C1214A4780C1219108E828F83A3A3C05A
:1026C30082C0839007D7E0F508A3E085080CF50DD9
:1026D300E4F50EF50FD083D082780C1214A4AA0C63
:1026E300AB0DAC0EAD0F1222837404121689E97080
:1026F3001F8E828F83A3A3C082C0839007D7E0F588
:1027030008A3E0F509E4F50AF50BD083D082801421
:10271300850A82850B83A3A37508F17509FF750AE2
:10272300FF750BFF78081214A4750CFF750DFF7568
:102733000EFF750F007808790C1214F2EE240EF5D3
:1027430082EF3400F583780812153A9007DDE064D0
:1027530027700474258002E004F00231EBEE650873
:102763007003EF650960319007F1E0F91209DD8527
:102773000882850983E06402701E9007DAE0640131
:1027830070169007D9E070107900120C7D120C4D71
:10279300120C777901120C83E50E60129007EBE0BF
:1027A300F8A3E0F9A3E0687003A3E0697039120BA2
:1027B300E18A0C8B0D8C0E8D0F751003751100754E
:1027C3001200751300780C79101214917510FF75AF
:1027D30011FF7512FF780C79101214F28E828F8319
:1027E300A3A3780C12153A850A82850B83A3A375DC
:1027F3000CF1750DFF750EFF750FFF780C1214A405
:10280300780C1219108E828F83A3A3C082C0839089
:1028130007EDE0F508A3E085080CF50DE4F50EF5EA
:102823000FD083D082780C1214A4AA0CAB0DAC0E7B
:10283300AD0F1222837404121689E9701F8E828FE2
:1028430083A3A3C082C0839007EDE0F508A3E0F55E
:1028530009E4F50AF50BD083D0828014850A8285BA
:102863000B83A3A37508F17509FF750AFF750BFFA9
:10287300022FD4850882850983E0640270139007D0
:10288300DAE06401700B9007D9E070057900120C4F
:102893007DE50C2404FEE50D3400FF8E828F83E07A
:1028A300F9120BA58E828F83E09004A7F07902FAC8
:1028B30075F005A4CAA8F028FB74A92AFA74043B8E
:1028C300FB121E3FAA0AAB0B0232C7EE6508700368
:1028D300EF65098E828F836003022AEAE024FE609B
:1028E3000A24FE7003022A270232C3EE2415F5825E
:1028F300EF3400F583E0604C9007D5E0F8A3E0F9EE
:10290300A3E0687003A3E069603A120BE18A088BC5
:10291300098C0A8D0B750C0A750D00750E00750F69
:10292300007808790C12149178081219108E828F8E
:1029330083A3A31215491222837404121689E96032
:10294300030232C3120BE18A088B098C0A8D0B75C3
:102953000C03750D00750E00750F007808790C12C5
:102963001491750CFF750DFF750EFF7808790C1225
:1029730014F28E828F83A3A3780812153AEE2415DE
:10298300F582EF3400F583E0640170328E828F8329
:10299300A3A3C082C0839007D7E0F508A3E0F5099D
:1029A300E4F50AD083D08278081214A4EE240EF53D
:1029B30082EF3400F583780812153A0232C3EE240D
:1029C3000EF582EF3400F5831219278E828F83A3CD
:1029D300A31215491222837404121689E964016053
:1029E300030232C38E828F83A3A3C082C083900766
:1029F300D7E0F508A3E0F509E4F50AD083D082789F
:102A0300081214A4EE240EF582EF3400F58378083F
:102A130012153A9007DDE06427700474258002E004
:102A2300040232C29007EBE0F8A3E0F9A3E0687078
:102A330003A3E0696037120BE18A088B098C0A8DC6
:102A43000B750C0A750D00750E00750F007808796B
:102A53000C12149178081219108E828F83A3A3127B
:102A630015491222837404121689E97077EE240241
:102A7300F508EF3400F509120BE18A0C8B0D8C0E6F
:102A83008D0F751003751100751200751300780C06
:102A930079101214917510FF7511FF7512FF780CE0
:102AA30079101214F2850882850983780C12153A7D
:102AB300850882850983C082C0839007EDE0F5080D
:102AC300A3E0F509E4F50AF50BD083D08278081268
:102AD30014A4EE240EF582EF3400F5837808121562
:102AE3003A1209E30232C3E024FE600A24FE7003B3
:102AF300022BDA0232CA1209D79007DAE0640170B6
:102B0300169007D9E070107901120C7D120C4D124A
:102B13000C777900120C839007D5E0F8A3E0F9A3B2
:102B2300E0687003A3E0696037120BE18A088B0940
:102B33008C0A8D0B750C0A750D00750E00750F0050
:102B43007808790C12149178081219108E828F83E9
:102B5300A3A31215491222837404121689E970740F
:102B6300EE2402F508EF3400F509120BE18A0C8B11
:102B73000D8C0E8D0F7510037511007512007513F2
:102B830000780C79101214917510FF7511FF7512EE
:102B9300FF780C79101214F2850882850983780C6A
:102BA30012153A850882850983C082C0839007D7AE
:102BB300E0F508A3E0F509E4F50AF50BD083D0822C
:102BC30078081214A4EE240EF582EF3400F583780E
:102BD3000812153A0231EB9007F1E0F91209DD858D
:102BE3000882850983E06402701E9007DAE06401BD
:102BF30070169007D9E070107900120C7D120C4DFD
:102C0300120C777901120C839007EBE0F8A3E0F93B
:102C1300A3E0687003A3E0696037120BE18A088BB5
:102C2300098C0A8D0B750C0A750D00750E00750F56
:102C3300007808790C12149178081219108E828F7B
:102C430083A3A31215491222837404121689E9700F
:102C530079EE2402F8EF3400F988088909120BE1B0
:102C63008A0C8B0D8C0E8D0F751003751100751268
:102C730000751300780C79101214917510FF7511FB
:102C8300FF7512FF780C79101214F28508828509FA
:102C930083780C12153A850882850983C082C08324
:102CA3009007EDE0F508A3E0F509E4F50AF50BD08C
:102CB30083D08278081214A4EE240EF582EF340038
:102CC300F583780812153A1209E30232BD9004A67F
:102CD300E070030230E1120A61E9F875F005A4C857
:102CE300AAF02AF974A928F510740439F51185108E
:102CF30082F583E0F508A3E0F5099004A7E0F875F1
:102D0300F005A4C8AAF02AF974A928F50C740439AB
:102D1300F50D90084DE054077003022FEFA3E0F97F
:102D2300120B6F8A0A8B0BAE0AAF0BAC08AD0912FC
:102D33000B69E9F50E7402650E7003022FEF850C23
:102D430082850D83A3A3A3A3E0F875F08AA4C8AA80
:102D5300F02AF974B128F50A740839F50BAA0AFBAD
:102D6300120B99AA0AAB0B120B9375128075130001
:102D730078121219147C007D60E50A2406FAE50B2B
:102D83003401FB120AD97402121689A80AA90B90FE
:102D93006195E0C0E0E82486F582E93401F583D04B
:102DA300E0F0906196E0C0E0E82487F582E9340121
:102DB300F583D0E0F0906197E0C0E0E82488F582E5
:102DC300E93401F583D0E0F0906198E0C0E0E824B5
:102DD30089F582E93401F583D0E0F08E828F83E0B8
:102DE30024FE600A24FE7003022EFA022FEF12095A
:102DF300D79007DAE0640170119007D9E0700B12E5
:102E03000C4D120C777900120C83E50E60129007BB
:102E1300D5E0F8A3E0F9A3E0687003A3E069703696
:102E2300120BE18A0C8B0D8C0E8D0F75100375112F
:102E330000751200780C79101214917510FF75113A
:102E4300FF7512FF780C79101214F28E828F83A310
:102E5300A3780C12153A850882850983A3A3750C00
:102E6300F1750DFF750EFF750FFF780C1214A47822
:102E73000C1219108E828F83A3A3C082C083900784
:102E8300D7E0F50CA3E0F50DE4F50EF50FD083D0F4
:102E930082780C1214A4AA0CAB0DAC0EAD0F122247
:102EA300837404121689E9701F8E828F83A3A3C0D3
:102EB30082C0839007D7E0F508A3E0F509E4F50A9B
:102EC300F50BD083D0828014850882850983A3A360
:102ED3007508F17509FF750AFF750BFF7808121461
:102EE300A4750CFF750DFF750EFF750F007808793B
:102EF3000C1214F20231DC9007F1E0F91209DDE55E
:102F03000E60129007EBE0F8A3E0F9A3E06870030A
:102F1300A3E0697036120BE18A0C8B0D8C0E8D0FBA
:102F2300751003751100751200780C791012149145
:102F33007510FF7511FF7512FF780C79101214F2DA
:102F43008E828F83A3A3780C12153A850882850994
:102F530083A3A3750CF1750DFF750EFF750FFF7835
:102F63000C1214A4780C1219108E828F83A3A3C0A1
:102F730082C0839007EDE0F50CA3E0F50DE4F50EB8
:102F8300F50FD083D082780C1214A4AA0CAB0DAC2D
:102F93000EAD0F1222837404121689E9701F8E82FC
:102FA3008F83A3A3C082C0839007EDE0F508A3E05D
:102FB300F509E4F50AF50BD083D0828014850882E5
:102FC300850983A3A37508F17509FF750AFF750BBE
:102FD300FF78081214A4750CFF750DFF750EFF75AD
:102FE3000F007808790C1214F20232ABE510650C6D
:102FF3007004E511650D70030230BF850C82850DE9
:1030030083A3A3A3E070030230A3850C82850D8301
:10301300A3A3A3A3E0F875F08AA4C8AAF02AF974BD
:10302300B128FE740839FFEEFAEFFB120B99EEFAA2
:10303300EFFB120B93750A80750B00780A121914B3
:103043007C007D60EE2406FAEF3401FB120AD9748A
:1030530002121689906195E0C0E0EE2486F582EFB6
:103063003401F583D0E0F0906196E0C0E0EE248770
:10307300F582EF3401F583D0E0F0906197E0C0E092
:10308300EE2488F582EF3401F583D0E0F090619867
:10309300E0C0E0EE2489F582EF3401F583D0E0F05F
:1030A300E5102404FEE5113400FF8E828F83E0F9DE
:1030B300120BA58E828F83E09004A7F0790290040F
:1030C300A7E0FA75F005A4CAA8F028FB74A92AFAA8
:1030D30074043BFB121E3FAA08AB090232C79008D7
:1030E3004DE0540770030232CAA3E0F9120B6F8A52
:1030F300088B09AE08AF098E828F83E024FE600A35
:1031030024FE70030231F30232CA1209D79007DAA0
:10311300E0640170169007D9E070107901120C7DFC
:10312300120C4D120C777900120C839007D5E0F83E
:10313300A3E0F9A3E0687003A3E0696037120BE131
:103143008A088B098C0A8D0B750C0A750D00750E98
:1031530000750F007808790C121491780812191071
:103163008E828F83A3A3121549122283740412162D
:1031730089E97074EE2402F508EF3400F509120BA7
:10318300E18A0C8B0D8C0E8D0F7510037511007574
:103193001200751300780C79101214917510FF75D5
:1031A30011FF7512FF780C79101214F285088285CD
:1031B3000983780C12153A850882850983C082C079
:1031C300839007D7E0F508A3E0F509E4F50AF50BCA
:1031D300D083D08278081214A4EE240EF582EF3443
:1031E30000F583780812153A90084E74020232C231
:1031F3009007F1E0F91209DD9007EBE0F8A3E0F99D
:10320300A3E0687003A3E0696037120BE18A088BBF
:10321300098C0A8D0B750C0A750D00750E00750F60
:10322300007808790C12149178081219108E828F85
:1032330083A3A31215491222837404121689E97019
:1032430076EE2402F8EF3400F988088909120BE1BD
:103253008A0C8B0D8C0E8D0F751003751100751272
:1032630000751300780C79101214917510FF751105
:10327300FF7512FF780C79101214F2850882850904
:1032830083780C12153A850882850983C082C0832E
:103293009007EDE0F508A3E0F509E4F50AF50BD096
:1032A30083D08278081214A4EE240EF582EF340042
:1032B300F583780812153A1209E390084E7404F066
:1032C300EEFAEFFB120B637F0C0217D374F01217A5
:1032D30001EAFEEBFFEE2402F8EF3400F9880889D7
:1032E30009EE2406F8EF3400F9880A890B8882F581
:1032F3008312192B850882850983121549120BBD88
:103303007402121689850A82850B8312192B85088C
:1033130082850983121549120BB17402121689EEC4
:10332300240EF582EF3400F583121549120BC38E78
:10333300828F83E06440701CEE2412F8EF3400F9AE
:1033430088828983E0906064F088828983A3E09017
:1033530060658006906064E4F0A3F090084FEEF09F
:10336300A3EFF0EE2416F582EF3400F583E0F8A323
:10337300E0F58388821216FF906054E4F0A3F0A373
:10338300F0A3F0A3F0A3F0A3F0A3F0A3F0A3F0A3A2
:10339300F0A3F0906182E0C2E6F07591BFEE2415D0
:1033A300F582EF3400F583E064017003120BF3E55B
:1033B300E170FCEE2414F582EF3400F583E0F46051
:1033C30003E0F5E1EE2415F582EF3400F583740193
:1033D300F090047FE064017073120BE18A088B099B
:1033E3008C0A8D0B78081219108E828F83A3A31277
:1033F30015491222DC74041216898A088B098C0A77
:103403008D0B750C05750D00750E00750F00780892
:10341300790C12136A74037808121459E50824F41A
:10342300F508E5093401F5099007F7E06003120F89
:1034330041E4F50AF50B78081219107A207B009005
:103443000478E0F9120F8974041216897F080217B1
:10345300D374EA121701EAFEEBFF8C148D15EE4FBD
:103463007003023570120BE18A088B098C0A8D0BED
:10347300750C01750D00750E00750F007808790C39
:10348300121491750CFF750DFF750EFF7808790CFA
:103493001214F28E828F83E0640270149007D5E0D9
:1034A300F8A3E0F9A3E0687003A3E0697024801730
:1034B300E06404701D9007EBE0F8A3E0F9A3E06873
:1034C3007003A3E069700B8E828F83A3A378081225
:1034D300153A75101A7511007512007513007808E6
:1034E300121910851482851583A3A312154912227C
:1034F300DC74041216898A0C8B0D8C0E8D0F7810D8
:10350300790C12132B4066851482851583A3A3754A
:103513000CE7750DFF750EFF750FFF780C1214A4E1
:10352300780C1219108E828F83A3A31215491222CD
:10353300837404121689E97034750C07750D0075D0
:103543000E00750F007808790C121491780812197F
:10355300108E828F83A3A31215491222837404123F
:103563001689E97004790080067901800279027F67
:103573000E0217D374F0121701890874FF650860EF
:103583000302370590084DE054077003023BE17ACC
:1035930000784C790888828983A3A3A3A3A3E0645A
:1035A30004703FEA75F018A4F8A9F0745228F58264
:1035B300740839F583E0640170377A00784C790830
:1035C30088828983A3A3A3A3A3E0640460030236D0
:1035D3005A88828983A3A3A3A3A3A3E0640170777A
:1035E30080630AE82418F8E93400F9EAC394044034
:1035F300A47A00784C790888828983A3A3A3A3A320
:10360300E064017067EA75F018A4F8A9F074522811
:10361300F582740839F583E0640170627A00784CAE
:10362300790888828983A3A3A3A3A3E06401600329
:103633000236E188828983A3A3A3A3A3A3E0640141
:1036430060030236E1EA75F018A4F8A9F074512872
:10365300FA740839023BDE0AE82418F8E93400F961
:10366300EAC3940450030235C3023BE10AE8241879
:10367300F8E93400F9EAC3940450030235FA7A00F6
:10368300784C790888828983A3A3A3A3A3E0640267
:103693007061EA75F018A4F8A9F0745228F58274E1
:1036A3000839F583E0640170597A00784C79088809
:1036B300828983A3A3A3A3A3E06402707A88828987
:1036C30083A3A3A3A3A3A3E06401706BEA75F0181B
:1036D300A4F8A9F0745128FA740839FB806F0AE83A
:1036E3002418F8E93400F9EAC39404500302362598
:1036F300023BE10AE82418F8E93400F9EAC3940428
:1037030040827A00784C790888828983A3A3A3A393
:10371300A3E06508703A88828983A3A3A3A3A3A324
:10372300E06401702BEA75F018A4F8A9F07451282D
:10373300FE740839FF802C0AE82418F8E93400F9EC
:10374300EAC3940450030236B27A007B00023BE5DD
:103753000AE82418F8E93400F9EAC3940440A97E7E
:10376300007F007A00784C790888828983A3A3A319
:10377300A3A3E06508701BEA75F018A4F8A9F07418
:103783005228F582740839F583E0640170137A01D5
:1037930080110AE82418F8E93400F9EAC3940440D4
:1037A300C87A00E50814601014700302391C24FE63
:1037B3007003023A2F023BE17B00784C7908888240
:1037C3008983A3A3A3A3A3E064027052EB75F0184B
:1037D300A4F8A9F0745228F582740839F583E064DB
:1037E30001704A7B00784C790888828983A3A3A35C
:1037F300A3A3E06402600302388A88828983A3A3B7
:10380300A3A3A3A3E06401707EEB75F018A4F8A949
:10381300F0745128F50A740839F50B0238A20BE845
:103823002418F8E93400F9EBC3940440917B007841
:103833004C790888828983A3A3A3A3A3E0640460CB
:10384300030238E3EB75F018A4F8A9F0745228F5D5
:1038530082740839F583E0640160030238F57B0064
:10386300784C790888828983A3A3A3A3A3E0640483
:10387300600302390088828983A3A3A3A3A3A3E0DF
:1038830064017079023A830BE82418F8E93400F9EB
:10389300EBC3940450030237EC750A00750B00EA7E
:1038A300A2E05035850A82850B83A3A3750CF675B8
:1038B3000DFF750EFF750FFF780C1214A4780C1210
:1038C30019108E828F83A3A31215491222837404C5
:1038D300121689E97003023BDBAA0AAB0B023BE534
:1038E3000BE82418F8E93400F9EBC39404500302FD
:1038F3003836EAA2E0501BEEFAEFFB80190BE824FE
:1039030018F8E93400F9EBC3940450030238670252
:103913003B287A007B00023BE57B00784C790888E2
:10392300828983A3A3A3A3A3E064047040EB75F08F
:1039330018A4F8A9F0745228F582740839F583E0C5
:10394300640170387B00784C790888828983A3A34B
:10395300A3A3A3E0640460030239E188828983A3FB
:10396300A3A3A3A3A3E064017074023A830BE82426
:1039730018F8E93400F9EBC3940440A37B00784CB6
:10398300790888828983A3A3A3A3A3E06401706356
:10399300EB75F018A4F8A9F0745228F5827408396D
:1039A300F583E06401705B7B00784C790888828939
:1039B30083A3A3A3A3A3E06401705288828983A392
:1039C300A3A3A3A3A3E064017043EB75F018A4F8C9
:1039D300A9F0745128F50A740839F50B80440BE8F3
:1039E3002418F8E93400F9EBC39404500302394D69
:1039F300023B280BE82418F8E93400F9EBC39404DC
:103A03004080EAA2E0501EEEFAEFFB801C0BE82494
:103A130018F8E93400F9EBC394044091750A007572
:103A23000B00023B2E7A007B00023BE57B00784CC7
:103A3300790888828983A3A3A3A3A3E064017055B3
:103A4300EB75F018A4F8A9F0745228F582740839BC
:103A5300F583E06401704D7B00784C790888828996
:103A630083A3A3A3A3A3E064016003023B1688829C
:103A73008983A3A3A3A3A3A3E064016003023B166A
:103A8300EB75F018A4F8A9F0745128F50A740839F5
:103A9300F50B023B2E0BE82418F8E93400F9EBC3CD
:103AA3009404408E7B00784C790888828983A3A391
:103AB300A3A3A3E064026003023B6DEB75F018A4BB
:103AC300F8A9F0745228F582740839F583E064018B
:103AD3006003023B7F7B00784C790888828983A34B
:103AE300A3A3A3A3E064026003023B8688828983C5
:103AF300A3A3A3A3A3A3E064016003023B86EB7526
:103B0300F018A4F8A9F0745128F50A740839F50BD4
:103B1300023B9E0BE82418F8E93400F9EBC3940444
:103B23005003023A60750A00750B00EAA2E04003F5
:103B33000238DC850A82850B83A3A3750CF6750D09
:103B4300FF750EFF750FFF780C1214A4780C121971
:103B5300108E828F83A3A312154912228374041239
:103B63001689E960030238DC806E0BE82418F8E953
:103B73003400F9EBC394045003023AADEAA2E050D7
:103B83005D80550BE82418F8E93400F9EBC394047D
:103B93005003023ADE750A00750B00EAA2E0400307
:103BA3000238DC850A82850B83A3A3750CF6750D99
:103BB300FF750EFF750FFF780C1214A4780C121901
:103BC300108E828F83A3A3121549122283740412C9
:103BD3001689E960030238DCEEFAEFFB80047A0011
:103BE3007B0002344F74F6121701890975080078B7
:103BF3004C790888828983A3A3A3A3A3A3E06003CA
:103C0300023CC4E50875F018A4F8A9F0745128FE25
:103C1300740839FF8E828F83A37401F08E828F83A1
:103C2300E509F0120BE18E828F83A3A31215558E43
:103C3300828F83A3A3A3A3A3A3E4F0A3F0EE240E94
:103C4300F582EF3400F58374FFF0A3F0A3F0A3F043
:103C5300EE2414F582EF3400F5837401F0EE24159D
:103C6300F582EF3400F5837401F0EE2416F582EF4C
:103C73003400F583E4F0A3F090084DE04509F0909B
:103C8300084CE004F06401600C74806509600674FC
:103C93004065097019E50875F018A4F8A9F0745186
:103CA30028F8740839F990084FE8F0A3E9F0E5081B
:103CB30075F018A4F8A9F0745128FA740839FB8038
:103CC300180508E82418F8E93400F9E508C3940452
:103CD3005003023BF67A007B0080007F020217D379
:103CE300C082C0838A828B83E0F8A3E0F98A828B47
:103CF30083E4F0A3F088828983A3F088828983E038
:103D0300F4F890084DE058F090084CE014F0700B74
:103D130090084FE4F0A3F0900479F0801CC082C0B7
:103D23008390084CE0600A90084FE0FAA3E0FB8020
:103D3300047A007B008002E0F9D083D08202011F65
:103D4300C082C083E9FB7A00784C79088882898332
:103D5300A3A3A3A3A3E06B7016EA75F018A4F8A9B4
:103D6300F0745228F582740839F583E0F980110A5A
:103D7300E82418F8E93400F9EAC3940440CE790042
:103D830080B7C082C08390084C023D3A74F6121784
:103D930001EAFEEBFF9061D0E0C0E0EE2400F58283
:103DA300EF3401F583D0E0F09061D7E0F89061D56E
:103DB300E0C398547FC0E0EE2401F582EF3401F5AF
:103DC30083D0E0F09061D6E0C398547FC0E0EE2446
:103DD30002F582EF3401F583D0E0F0701A9061C5EB
:103DE300E0A2E45012E0A2E7500DEE2402F582EFC8
:103DF3003401F5837480F0120CA7EE2401F582EFF1
:103E03003401F583E07034EE2402F582EF3401F5DA
:103E130083E070279061C5E0A2E4501FE0A2E75061
:103E23001AEE2402F582EF3401F5837480F0EE2458
:103E330001F582EF3401F5837480F075E195780024
:103E4300EE2400F582EF3401F583E060279061D31F
:103E5300E0C0E08808EE2508F582EF3400F583D052
:103E6300E0F008EE2400F582EF3401F583E0F9E891
:103E7300C39940D975E191023CDE74F6121701EA49
:103E8300FEEBFF9061C8E0C0E0EE2403F582EF345F
:103E930001F583D0E0F09061CFE0F89061CDE0C30D
:103EA30098547FC0E0EE2404F582EF3401F583D00B
:103EB300E0F09061CEE0C398547FC0E0EE2405F5B6
:103EC30082EF3401F583D0E0F0701A9061C5E0A26F
:103ED300E05012E0A2E3500DEE2405F582EF340129
:103EE300F5837480F0120CADEE2404F582EF3401F7
:103EF300F583E07034EE2405F582EF3401F583E0B9
:103F030070279061C5E0A2E0501FE0A2E3501AEED3
:103F13002405F582EF3401F5837480F0EE2404F573
:103F230082EF3401F5837480F0120CB37A00EE242F
:103F330003F582EF3401F583E0602F9061CBE0C09D
:103F4300E08A08EE2508F8EF3400F9E82480F582CA
:103F5300E93400F583D0E0F00AEE2403F582EF3470
:103F630001F583E0F8EAC39840D175E181023CDEB4
:103F730074F41217018908A808E875F08AA4C8AA7E
:103F8300F02AF974B128FE740839FFEEFAEFFB1238
:103F93000B99EEFAEFFB120B93750A80750B007801
:103FA3000A1219147C007D60EE2406FAEF3401FB3B
:103FB300120AD97402121689906195E0C0E0EE24CA
:103FC30086F582EF3401F583D0E0F0906196E0C08E
:103FD300E0EE2487F582EF3401F583D0E0F09061C1
:103FE30097E0C0E0EE2488F582EF3401F583D0E05A
:103FF300F0906198E0C0E0EE2489F582EF3401F59A
:1040030083D0E0F07F040217D374F21217018908FA
:10401300A808E875F08AA4C8AAF02AF974B128F8A8
:10402300740839F99061C6E0FDE054F0F075E18160
:104033007C00E82403F582E93401F583E0602B8CEE
:104043000AE8250AFAE93400FBEA2480F582EB3416
:1040530000F583E09061CAF00CE82403F582E934AB
:1040630001F583E0FAECC39A40D5E82405F582E92B
:104073003401F583E060049061CEF0E82404F58216
:10408300E93401F583E060049061CDF0ED9061C601
:10409300F0A808E875F08AA4C8AAF02AF974B12830
:1040A300F8740839F9E0FCE0540FF075E1917A00F7
:1040B300E82400F582E93401F583E060238A0AE805
:1040C300250AF582E93400F583E09061D2F00AE82D
:1040D3002400F582E93401F583E0FBEAC39B40DD6C
:1040E300E82402F582E93401F583E060049061D6A7
:1040F300F0E82401F582E93401F583E0600490617E
:10410300D5F0EC9061C6F0850882AE82EEF875F0CA
:104113008AA4C8AAF02AF974B128F50A740839F5F3
:104123000B750C80750D00780C121914E50A240622
:10413300FCE50B3401FD7A007B60120AD97402128C
:104143001689A80AA90BE82486F582E93401F583C8
:10415300E0906195F0E82487F582E93401F583E086
:10416300906196F0E82488F582E93401F583E090C4
:104173006197F0E82489F582E93401F583E09061E1
:1041830098F0EE75F005A4CEA8F028FF74A92EF5DB
:104193008274043FF583E0F8A3E0F5838882E0644A
:1041A3008070419011A4741BF0A3740BF0A37403EB
:1041B300F0A3740BF0A3741BF0A3740BF0A3741B94
:1041C300F0A3740BF0A37403F0A3740BF0A3741B9C
:1041D300F0A3740BF0A37421F0A3740BF090047993
:1041E300740880059004797407F09011B27403F099
:1041F300A3740BF0A37403F0A3740BF0A37403F084
:10420300A3740BF0A37403F0A3740BF0A37403F073
:10421300A3740BF0A37403F0A3740BF07F060217CF
:10422300D3C082C0839061907404F0A37448F0A358
:104233007402F09061807440F09061BC7403F0905C
:1042430061877419F0906265741BF0906249E0C352
:10425300941390619C400A7409F090606674018025
:1042630007740DF0906066E4F090619A7433F0A3E4
:104273007455F09061A0743AF09007F5E064017012
:1042830009C29190047D7467800590047D7461F088
:10429300902442E493906186F090243CE493F4608C
:1042A30027E493540FF8906185E0686012E5C654E3
:1042B300804449F5C6E59E547F644970F8E8F0539D
:1042C300C680E59E547F70FA7905120CA1024698C8
:1042D300C082C083E5A8F853A87E906181E4F0A36F
:1042E300F0A3F0C2BA539AFEC289759B00C2C2758D
:1042F300E90075910075BF0075A91175B905906145
:1043030081F0A374C0F0A3E4F0D2BA439A0174809D
:104313005842A8024698F0024698C082C08374F8B7
:1043230012167390047BE0F8A3E0F9E849700302E6
:10433300444B90047BE054406023790885188285C0
:104343001983AA82AB83120ABB851882851983AAB3
:1043530082AB831207BB90047BE054BFF0E0548030
:104363006010790C7A1B7B08120ABB90047BE05423
:104373007FF0E0A2E0503190619A7433F0A374555A
:10438300F09061A0743AF09007F5E064017009C2FF
:104393009190047D7467800590047D7461F0120729
:1043A300C190047BE054FEF0E05402603190619AC6
:1043B300743FF0A3745AF09061A0747FF09007F5F6
:1043C300E064017009D29190047D747180059004BA
:1043D3007D746AF01207C190047BE054FDF0E05451
:1043E300046013902440E493906186F01207C79011
:1043F300047BE054FBF0E054086013902441E49301
:10440300906186F01207C790047BE054F7F0E05404
:10441300106013902442E493906186F01207C790D2
:10442300047BE054EFF0E05420600A1207C79004C5
:104433007BE054DFF0A3E05401600D1209C51207BD
:10444300CD90047CE054FEF074081216890246985D
:1044530074EC12170174F41216738518828519838C
:10446300AC82AD83758384758207740412158690BC
:10447300244093F460030245DF907808E0C394027C
:1044830050030245BF74041216DDAC82AD837583FD
:10449300837582AA74081215868518828519838507
:1044A300821285831374041216DDAC82AD83750EFC
:1044B300FF750FFF7FFF7E00750C48750D78801523
:1044C30074086E700302455374096E7003024553FA
:1044D300740A6E607B850C82850D83780812152B18
:1044E3008C828D83A909E50AC9F8881074187808A5
:1044F300121459E5104508F8C3E098A3E099850C18
:1045030082850D83780812152B40188C828D837455
:10451300187808121459E5104508F8E0C398F8A371
:10452300E0801C74187808121459E5104508FAE95C
:10453300FB8C828D83E0F8A3E0F9EAC398F8EB994A
:10454300F9C3E8950EE9950F5006880E890FEEFF23
:104553000EE50C2404F50CE50D3400F50DEEC394C3
:104563001350030244C374FF650E700474FF650F98
:1045730060238F087402780812166074482508F5C2
:104583008274783509F583780812152B8512828594
:104593001383E508F0EC2402FCED3400FD85128260
:1045A300851383A3858212858313740C1216DDE5AC
:1045B300826C7003E5836D60030244B17508017575
:1045C3000900780812191474021216DDAC82AD8347
:1045D3007A107B0912113F7402121689740C121699
:1045E300897F0C0217D3C082C0839061AE7468F0D8
:1045F300A3746AF090624574FBF0A304F053F4FDD6
:1046030043FE029007F57401F09061A0E0643A90D4
:10461300619A70237433F0A37455F09061A0743AD7
:10462300F0740164017009C29190047D746780285D
:1046330090047D74618021743FF0A3745AF09061FB
:10464300A0747FF0740164017009D29190047D74A9
:1046530071800590047D746A024319C082C08390FF
:1046630007D3E0640170119007D9E064016019E099
:104673007006A3E0640160109007EAE06401700C27
:104683009007F0E064017004790C800279008005E2
:10469300E0F9122331D083D08202011FC082C0838C
:1046A3009007DD7425F09007DB7401F0A3E4F07A42
:1046B30001FB120C1D9007C9E0F8A3E0C82416F50E
:1046C30082E83400F58374E9F0A37409F09007DA03
:1046D300E0640170169007D9E070107901120C7D27
:1046E300120C4D120C777900120C89024698C08285
:1046F300C08374FA1216739007D2E0640170081233
:1047030009D19007D2E4F075E1F19007C9E0F8A36D
:10471300E0C82415F582E83400F5837401F09007AE
:10472300D4E0640170769083CBC0828518828519AA
:1047330083AC82AD83758383D0827406121586752C
:10474300D90D9007CBE0C4333354C04403F5D97873
:10475300C9790788828983A3A3A3E0F5D9888289CD
:1047630083A3A882A983E864CF7003E9640770E395
:10477300851882851983A882A98388828983E0F5B5
:10478300D9A3A882A98374061216DDE58268700393
:10479300E5836970E575E195790180027900120C72
:1047A300239011A47439F0A3740BF0A3743FF0A306
:1047B300740BF0A37439F0A3740BF0A37439F0A352
:1047C300740BF0A37403F0A3740BF0A37403F0A3AE
:1047D300740BF0A37445F0A3740BF09011B274033F
:1047E300F0A3740BF0A37403F0A3740BF0A374038E
:1047F300F0A3740BF0A37403F0A3740BF0A374037E
:10480300F0A3740BF0A37403F0A3740BF09007CB25
:10481300E0F97ACC7B07120BFF9007DDE0F9122356
:10482300317901120C297AD67BBE7C897D8E120CDC
:10483300417A557B557C557D00120C0B7900120C87
:10484300959007C9E0F8A3E0C82414F582E8340082
:10485300F5837416F09004797405F00402444D74E2
:10486300F71217018908A808E875F005A4C8AAF08B
:104873002AF974A928FE740439FF9007E2E0F97A53
:10488300E37B07120BFF9007F0E0701A7900120C1C
:104893005F9007B8E070047900800279017AB97BF0
:1048A30007120C0580057901120C5F75E1F175D9CA
:1048B300239007E2E0C4333354C04405F5D978E0CC
:1048C300790788828983A3A3A3E0F5D988828983A2
:1048D300A3A882A983E864E67003E9640770E3751B
:1048E300D90075D90075D90075D90075D90075D966
:1048F30000EEF8EFF9E82404FAE93400FBE8242297
:10490300F582E93400F583E0F5D988828983A3A889
:1049130082A983EA687002EB6970E2EEF8EFF9E8C6
:1049230024031AE93400FBE82426F582E93400F570
:1049330083E0F5D988828983A3A882A983EA687072
:1049430002EB6970E2EE242BF582EF3400F583E08D
:10495300F5D9EE242CF582EF3400F583E0F5D9EE9A
:10496300242DF582EF3400F583E0F5D9EE242EF5FE
:1049730082EF3400F583E0F5D9EE242FF582EF348E
:1049830000F583E0F5D9EE2430F582EF3400F583AA
:10499300E0F5D9EE2431F582EF3400F583E0F5D963
:1049A300EE2432F582EF3400F583E0F5D9EE2433BB
:1049B300F582EF3400F583E0F5D9EEF8EFF9E8245A
:1049C30005FAE93400FBE8245DF582E93400F58358
:1049D300E0F5D988828983A3A882A983EA68700253
:1049E300EB6970E2EE2437F582EF3400F583E0548F
:1049F3001FF8EE242AF582EF3400F583E0C4335424
:104A0300E048F5D975E1959011A47409F0A3740BEE
:104A1300F0A3740FF0A3740BF0A37403F0A3740B4F
:104A2300F0A37403F0A3740BF0A37403F0A3740B4B
:104A3300F0A37403F0A3740BF0A37415F0A3740B29
:104A4300F09011B27403F0A3740BF0A37403F0A3FA
:104A5300740BF0A37403F0A3740BF0A37403F0A31B
:104A6300740BF0A37403F0A3740BF0A37403F0A30B
:104A7300740BF09007EFE0F91223317AD67BBE7CFA
:104A8300897D8E120C417A557B557C557D00120C25
:104A93000B90600DE4F07901120C95900479740683
:104AA300F002505B74E81217019007E0E0F8A3E00E
:104AB300F5838882A3A3780C12152B9007F1E0FAF3
:104AC300F875F005A4C8ACF02CF974D728F58274F6
:104AD3000439F583E0FEA3E0FFEEC333FEEF33FFBB
:104AE3008E14F515751600751700850C08850D09CC
:104AF300850E0A850F0B751004751100751200756C
:104B03001300780879101214917808121910850C83
:104B130008850D09850E0A850F0B78087914121480
:104B230091780C79141213EAE4F516F517780879DD
:104B3300141214CA8A0C750D007403780C121660D3
:104B4300E50D3395E0F50EF50F7808790C12149105
:104B5300750CFF750DFF750EFF7808790C1214F2B2
:104B6300AA08AB09AC0A7D001222DC740412168970
:104B73008A088B09A808A909C3EE98EF995006E89B
:104B83002EF8E93FF9E890600EF0E9A3F0EEA3F008
:104B9300EFA3F090600D74C1F07F100217D3C082B1
:104BA300C0839007C9E0F8A3E0C82406F582E8347F
:104BB30000F583E4F0A3F09007DD024693C082C0C2
:104BC300839007E0E0F8A3E0C82406F582E8340008
:104BD300F583E4F0A3F09007EF02469302011F74FC
:104BE300F61217019061D0E0F87480C398FCEA24B0
:104BF30082F582EB3400F583E06004780480027868
:104C030000E8240EF8ECC3985003024D0E7C0C9080
:104C130007FBE4F0EA2476F582EB3400F583E090B9
:104C230007FCF0EA2477F8EB3400F988828983E003
:104C33009007FDF088828983A3E09007FEF0EA24C1
:104C430079F8EB3400F988828983E09007FFF088D4
:104C5300828983A3E0900800F0EA247BF8EB340018
:104C6300F988828983E0900801F088828983A3E030
:104C7300900802F0EA247DF8EB3400F988828983F6
:104C8300E0900803F088828983A3E0900804F0EAA7
:104C93002474F8EB3400F98A828B83A3A3A3A3A320
:104CA300E0FEA3E0FF88828983E02EF0A3E03FF0DB
:104CB30088828983E0900805F088828983A3E09045
:104CC3000806F0EA2482F582EB3400F583E06017EE
:104CD3007508FB75090778081219147903120AF786
:104CE30074021216897C1074012CF5D975D90375D9
:104CF30082FB758307ECFEE0F5D9A31EEE70F87511
:104D0300E1957904120C4779018002790002520B74
:104D130074F61217019061D0E0F87480C398FCEA2E
:104D23002482F582EB3400F583E06004780480028A
:104D33007800E8240AF8ECC3985003024E0675087D
:104D4300089007FB7401F07CBF7D0778FC79077E30
:104D5300058C828D83E088828983F08C828D83A386
:104D6300AC82AD8388828983A3A882A9831EEE7057
:104D7300E0EA2480FCEB3400FD8A828B83A3A3A3A7
:104D8300A3A3E0FEA3E0FF8C828D83E02EF0A3E0DB
:104D93003FF08C828D83E088828983F08C828D83BF
:104DA300A3AC82AD8388828983A308A9838C828D77
:104DB30083E088828983F0EA2482F582EB3400F56C
:104DC30083E0601A7508FB75090778081219147CCB
:104DD300087903120AF7740212168975080C740114
:104DE3002508F5D975D9037582FB758307AE08E0ED
:104DF300F5D9A31EEE70F875E1957904120C477985
:104E0300018002790002520B74F7121701EAFEEBDC
:104E1300FF9061D0E06003024EF275D91875D90393
:104E230075D903EEF8EFF9E82408FAE93400FBE852
:104E3300249BF582E93400F583E0F5D988828983E0
:104E4300A3A882A983EA687002EB6970E2EE24A347
:104E5300F582EF3400F583E0F5D9EE24A4F582EF73
:104E63003400F583E0F5D9EE2493F582EF3400F5B1
:104E730083E5822408F8E5833400F9E0F5D9A3E853
:104E830065827003E9658370F2EE2487F582EF345F
:104E930000F583E5822404F8E5833400F9E0F5D9CD
:104EA300A3E865827003E9658370F275E19579087B
:104EB300EE2493FAEF3400FB120AAF7904EE248751
:104EC300FAEF3400FB120AAF7904120C47EE246F99
:104ED300F582EF3400F583E0F8A3E0F9EE2471F5F1
:104EE30082EF3400F583E8F0A3E9F07901800279D9
:104EF3000002505B74F6121701EAFEEBFF9007FB0A
:104F03007406F07508FB75090778081219147C01FB
:104F13007903120AF7740212168975D90675D90333
:104F23007582FB758307E0F5D9A3E58264007004FD
:104F3300E583640870F075E195900479E064087086
:104F43001EEE246FF582EF3400F583E0F8A3E0F959
:104F5300EE2471F582EF3400F583E8F0A3E9F079EC
:104F63000102520B74F6121701EAFEEBFF9061D0B7
:104F7300E0705E9007FB740AF07508FB750907780B
:104F8300081219147C017903120AF77402121689A4
:104F930075D90675D9037582FB758307E0F5D9A327
:104FA300E58264007004E583640870F075E195EEB2
:104FB300246FF582EF3400F583E0F8A3E0F9EE24E3
:104FC30071F582EF3400F583E8F0A3E9F07901800D
:104FD30002790002520B74F6121701EAFEEBFF90FE
:104FE30061D0E0706678019007FB740BF090047950
:104FF300E0640770197508FB75090778081219141E
:105003007C017903120AF774021216897805740178
:1050130028F5D975D9037582FB758307E8FAE0F59E
:10502300D9A31AEA70F875E195EE246FF582EF348F
:1050330000F583E0F8A3E0F9EE2471F582EF340084
:10504300F583E8F0A3E9F079018002790002520BBD
:10505300F0EEA2E092AF79007F010217D374F6124B
:105063001701EAFEEBFF9061D0E0F87480C398FA71
:10507300EE2482F582EF3400F583E0600478048047
:10508300027800E8240BF8EAC39850030251367DF6
:10509300099007FB7408F0EE24E4F8EF3400F97A82
:1050A300FC7B077C0888828983E08A828B83F08873
:1050B300828983A3A882A9838A828B83A3AA82ABD2
:1050C300831CEC70E0EE2482F582EF3400F583E07C
:1050D300601D7508FB75090778081219147C097996
:1050E30003EEFAEFFB120AF774021216897D0D74B0
:1050F300012DF5D975D9037582FB7583078D08E0FA
:10510300F5D9A31508E50870F675E1957904120C35
:1051130047EE246FF582EF3400F583E0F8A3E0F95E
:10512300EE2471F582EF3400F583E8F0A3E9F0791A
:10513300018002790002520B74F6121701EAFEEBAA
:10514300FF9061D0E0F87480C398FAEE2482F58270
:10515300EF3400F583E06004780480027800E824EB
:1051630008F8EAC398500302520978069007FB74C3
:105173000CF0900496E09007FCF0900497E0900701
:10518300FDF0900498E09007FEF0900499E09007FA
:10519300FFF090049AE0900800F0EE2482F582EF8D
:1051A3003400F583E0601B7508FB75090778081266
:1051B30019147C067903EEFA120AF774021216899F
:1051C300780A740128F5D975D9037582FB758307AD
:1051D3008808E0F5D9A31508E50870F675E1957917
:1051E30004120C47EE246FF582EF3400F583E0F8E8
:1051F300A3E0F9EE2471F582EF3400F583E8F0A320
:10520300E9F07901800279007F020217D374F61264
:105213001701EAFEEBFF9061D0E0F87480C398FABF
:10522300EE2482F582EF3400F583E0600478048095
:10523300027800E82404F8EAC39850030252EA789B
:10524300029007FBE8F0EE24F6F582EF3400F583D5
:10525300E09007FCF0EE2482F582EF3400F583E062
:10526300601B7508FB75090778081219147C02790D
:1052730003EEFA120AF774021216897806740128EB
:10528300F5D975D9037582FB7583078808E0F5D9CD
:10529300A31508E50870F675E195EE2473F582EF22
:1052A3003400F583E4F0EE247FF582EF3400F583D8
:1052B300E4F0EE241DF582EF3400F583E4F0A3F06F
:1052C3007904120C47EE240DF582EF3400F583E0E8
:1052D300F8A3E0F9EE2471F582EF3400F583E8F0EA
:1052E300A3E9F079018002790002520B74F61217D8
:1052F300019061D0E0F87480C398FCEA2482F582BF
:10530300EB3400F583E06004780480027800E8243D
:1053130004F8ECC398405B79029007FB7407F0EA4A
:1053230024F7F582EB3400F583E09007FCF0EA24E0
:1053330082F582EB3400F583E060187508FB75098C
:105343000778081219147C0209120AF7740212165C
:10535300897906740129F5D975D9037582FB75839B
:1053630007E9F8E0F5D9A318E870F875E195790134
:105373008002790002520B74F5121701E9FCA2AF07
:10538300E433F50AC2AF7D0080010DEA246EF58295
:10539300EB3400F583E0F8EDC398501A8D08EA2545
:1053A30008F8EB3400F9E8246AF582E93400F58360
:1053B300E06C70D68024EA246EF8EB3400F9E0FE4A
:1053C300EA2EFAEB3400FBEA246AF582EB3400F5AB
:1053D30083ECF088828983E004F0E50AA2E092AFCF
:1053E3007F030217D374F6121701A2AFE433FDC291
:1053F300AFEA246EF582EB3400F583E014F07C0011
:1054030060368C08EA2508F8EB3400F9E8246BF5DC
:1054130082E93400F583E0C0E0E8246AF582E934E8
:1054230000F583D0E0F00CEA246EF582EB3400F54E
:1054330083E0F8ECC39840CAEA246DF582EB3400AC
:10544300F58374FFF0EA2469F582EB3400F583E415
:10545300F0EDA2E092AF02520BC082C083E5A8F840
:10546300C2AFEA246AF582EB3400F583E9F0EA245B
:1054730069F582EB3400F583E4F0E8A2E7A2E79252
:10548300AF02469874F3121701EAFEEBFFECFAED54
:10549300FB8A828B83A3A3A3A3E0541FF0EE2436DD
:1054A300F582EF3400F583E4F0F50AEEFCEFFD8AB4
:1054B300828B83E0C0E0EC245DF582ED3400F5835C
:1054C300D0E0F0750B00E50A33333354F8F50C8A5A
:1054D300828B83E0F508750900E50B780812164105
:1054E300E508A2E0502FEE2436F8EF3400F9888265
:1054F3008983E0F508EE2508F508EF3400F509E5A2
:10550300082438F582E5093400F583E50CF0888238
:105513008983E004F0050B050CE50BC3940840AF49
:10552300050A8A828B83A3AA82AB838C828D83A391
:10553300AC82AD83E50AC3940550030254B27F05E0
:105543000217D374F71217019004A5E064037003E4
:1055530002582C7C0078A5790488828983A3A3A3AD
:10556300A3A3A3E0600302581AECF875F005A4C8DE
:10557300AAF02AF974A928FA740439FB8A828B8366
:10558300A3A37401F08A828B83A3A3A3E4F0EC8A20
:10559300828B83A3A3A3A3F0EA2462F582EB3400F6
:1055A300F5837401F0EA2467F582EB3400F5837424
:1055B30001F08A828B83A3A3A3A3A3E4F0A3F08ABD
:1055C300828B83A3A3A3A3A3A3A3F0A3F0EA240F33
:1055D300F582EB3400F5837401F0EA2435F582EBB0
:1055E3003400F583E4F0EA2418F582EB3400F58304
:1055F300E4F0A3F0A3F0A3F0EA241CF582EB34005B
:10560300F583E4F0EA241DF582EB3400F583E4F03E
:10561300A3F0EA247FF582EB3400F583E4F0EA2477
:1056230073F582EB3400F583E4F0EA2468F582EB4A
:105633003400F5837480F0EA2469F582EB3400F5D5
:1056430083E4F0EA246EF582EB3400F583E4F0EAB8
:1056530024ECF582EB3400F583E4F0EA24EDF582E3
:10566300EB3400F583E4F0EA24EEF582EB3400F545
:1056730083E4F0EA24EFF582EB3400F583E4F0EA07
:1056830024F0F582EB3400F583E4F0A3F0EA24F28E
:10569300F582EB3400F583E4F0A3F0EA24F5F58218
:1056A300EB3400F583E4F0EA2482F582EB3400F571
:1056B30083E4F0EA24D2F582EB3400F583E4F0EAE4
:1056C30024D3F582EB3400F583E4F0EA24D4F582A5
:1056D300EB3400F583E4F0A3F0A3F0A3F0EA24D8BD
:1056E300F582EB3400F583E4F0A3F0A3F0A3F0EA32
:1056F30024DEF582EB3400F583E4F0EA24E0F5825E
:10570300EB3400F583E4F0EA24DCF582EB3400F5B6
:1057130083E4F0EA24E1F582EB3400F583E4F0EA74
:1057230024E2F582EB3400F583E4F0EA24F8F58211
:10573300EB3400F583E4F0A3F0EA24FAF582EB34CA
:1057430000F583E4F0A3F0EA24FCF582EB3400F5E2
:1057530083E4F0A3F0EA24FEF582EB3400F583E45E
:10576300F0A3F0EAF8EBF9E82404FCE93400FDE8DF
:10577300246AF582E93400F58374FFF08882898313
:10578300A3A882A983EC687002ED6970E2EAF8EBE2
:10579300F97CBF7D078C828D83E0C0E0E8245DF552
:1057A30082E93400F583D0E0F08C828D83A3AC8250
:1057B300AD8388828983A3A882A983EC64C4700320
:1057C300ED640770D0EAF8EBF97C8C7D048C828D54
:1057D30083A3E0C0E0E824E4F582E93400F583D054
:1057E300E0F08C828D83A3AC82AD8388828983A30E
:1057F300A882A983EC64947003ED640470CF9004D1
:10580300A5E004F0640170258A828B83A3A3A3A37C
:10581300E09004A7F080160CE82405F8E93401F9B8
:10582300ECC39403500302555C7A007B0002505B87
:10583300C082C0838A828B83A3A3A3E0600F8A8282
:105843008B83A3A3A3E4F09004A6E014F09004A533
:10585300E014F070069004A774FFF08A828B83A390
:10586300A3E4F09007C4E0700D9004A6E064017017
:10587300057900120C11024698C082C08378A5797D
:105883000488828983A3A3A3A3A3A3A3E4F08882A8
:105893008983A3A3A3A3A3A3F0E82405F8E9340110
:1058A300F9E864B47003E9640770D69004A5E4F0E2
:1058B300A3F0A374FFF075E1F102469874F5121793
:1058C30001750800750900750A007EA97F048E82A0
:1058D3008F83A3A3A3E0603DE5084509602F8508F6
:1058E30082850983E0F8A3E0F5838882A3A31219D4
:1058F300278E828F83E0F8A3E0F5838882A3A31227
:1059030015491222837404121689E97008EEF8EF20
:10591300F988088909050AEE2405FEEF3401FFE53D
:105923000AC3940340A8850882850983A3A3A3A37C
:10593300E0F90253E374F712170178FF79FF7E0051
:105943007CA97D048C828D83A3A3A3E0606274FF92
:1059530068700374FF697011EC2473F582ED3400F1
:10596300F583E06401703A8021EC2473F582ED3411
:1059730000F583E064017017EC2479F582ED3400BF
:10598300F583C3E098A3E0995026EC24798015ECC5
:10599300242EF582ED3400F583C3E098A3E09950FB
:1059A3000FEC242EF582ED3400F583E0F8A3E0F943
:1059B3000EEC2405FCED3401FDEEC394034085C3D6
:1059C300EA98EB994004E8FAE9FB02505B74F6129B
:1059D3001701EAFEEBFFEE2463F582EF3400F58353
:1059E300E0F8A3E0F9E8497003025A75EE2463F87E
:1059F300EF3400F97A007B00A2AFE433F508C2AFBD
:105A030088828983E0FCA3E0FDEC4D603A888289BB
:105A130083E0FAA3E0FB8A828B83E0FCA3E0FD88AA
:105A2300828983ECF0A3EDF08A828B83E4F0A3F008
:105A330088828983E0FCA3E0FDEC4D700A888289AB
:105A430083A3A3E4F0A3F0E508A2E092AF12121D32
:105A53009007C5E004F09007C6E004F0EE2463F578
:105A630082EF3400F583E0F8A3E0F9E8496003022C
:105A730059EF8E828F83A3A3A3E0600F8E828F835F
:105A8300A3A3A3E4F09004A6E014F09004A5E0140B
:105A9300F070069004A774FFF08E828F83A3A3E4B3
:105AA300F09007C4E0700D9004A6E06401700579DE
:105AB30000120C11EEFAEFFB120B7B02520B74F780
:105AC300121701EAFEEBFF8E828F83A3A3A3A3E049
:105AD300FA7B00120815EEFAEFFB120A6D120B5D4A
:105AE30002505BC082C0837A0078A97904888289D6
:105AF30083A3A3A3E0601EE8246EF582E93400F5D6
:105B030083E06011E8246AF582E93400F583E070EC
:105B130004790180110AE82405F8E93401F9EAC39C
:105B2300940340C97900024698C082C083788C7977
