:020000040000FA
:10080000020BAE021E4FFFFFFFFFFFFFFFFFFFFFC8
:10081000FFFFFF0223B7FFFFFFFFFFFFFFFFFFFF09
:10082000FFFFFFFFFFFFFFFFFFFFFF022393FFFF1D
:10083000FFFFFFFFFFFFFFFFFFFFFF02241CFFFF83
:10084000FFFFFFFFFFFFFFFFFFFFFFFFFFFFFFFFB8
:10085000FFFFFF021EC2FFFFFFFFFFFFFFFFFFFFC3
:10086000FFFFFFFFFFFFFFFFFFFFFFFFFFFFFFFF98
:10087000FFFFFFFFFFFFFFFFFFFFFF02247CFFFFE3
:10088000FFFFFF021CBB01FFFFFFFFFFFFFFFFFF9A
:10089000FF5AFFFFFFFFFFFFFFFFFFFFFFFFFFFF0D
:1008A000FFFFFFFFFFFFFFFFFFFFFFFFFFFFFFFF58
:1008B000FFFFFFFFFFFFFFFFFFFFFFFFFFFFFFFF48
:1008C000FFFFFFFFFFFFFFFFFFFFFFFFFFFFFFFF38
:1008D000FFFFFFFFFFFFFFFFFFFFFFFFFFFFFFFF28
:1008E000FFFFFFFFFFFFFFFFFFFFFFFFFFFFFFFF18
:1008F000FFFFFFFFFFFFFFFFFFFFFFFFFFFFFFFF08
:100900001201FFFFFFFFFFFFFFFFFFFFFFFFFFFFE2
:10091000FFFFFFFFFFFFFFFFFFFFFFFFFFFFFFFFE7
:10092000FFFFFFFFFFFFFFFFFFFFFFFFFFFFFFFFD7
:10093000FFFFFFFFFFFFFFFFFFFFFFFFFFFFFFFFC7
:10094000FFFFFFFFFFFFFFFFFFFFFFFFFFFFFFFFB7
:10095000FFFFFFFFFFFFFFFFFFFFFFFFFFFFFFFFA7
:10096000FFFFFFFFFFFFFFFFFFFFFFFFFFFFFFFF97
:10097000FFFFFFFFFFFFFFFFFFFFFFFFFFFFFFFF87
:10098000FFFFFFFFFFFFFFFFFFFFFFFFFFFFFFFF77
:10099000FFFFFFFFFFFFFFFFFFFFFFFFFFFFFFFF67
:1009A000FFFFFFFFFFFFFFFFFFFFFFFFFFFFFFFF57
:1009B000FFFFFFFFFFFFFFFFFFFFFFFFFFFFFFFF47
:1009C000FFFFFFFFFFFFFFFFFFFFFFFFFFFFFFFF37
:1009D000FFFFFFFFFFFFFFFFFFFFFFFFFFFFFFFF27
:1009E000FFFFFFFFFFFFFFFFFFFFFFFFFFFFFFFF17
:1009F000FFFFFFFFFFFFFFFFFFFFFFFFFFFFFFFF07
:100A0000AA552426362660262A26FF0000B40000B8
:100A100028002800283075A000A000A000A0000039
:100A2000080008E001F00010001000100010001095
:100A300000100050005000500010001000D00700BF
:100A400000000000000F00010005003075070010D5
:100A500000010081FF00000000FF020202D18A01B4
:100A60000000BF8A02CB8A010000F51102C58A018D
:100A70000000B10202CB8A010000F61102CD8A010A
:100A80000000C702FFFF0100FF2002D18A01000021
:100A9000C28A02CB8A010000241202D78A00000019
:100AA000000002C98A030000A403982D982D982DF8
:100AB000982D982D982D982D982D982D982D982D0E
:100AC000982D982D7E2F9C2F782FFFFF010001007D
:100AD0000200020002000200020002000100020007
:100AE00002000200020002000200010001E803050A
:100AF0003F10020AE803E803E803F401F401F401FB
:100B00001E001E001E0005000500050002FA00017F
:100B100000FF0000004B0002FEFFE5C754F844014F
:100B2000F5C779012200000080FB120B1AB90003FF
:100B3000020B98E4791B7802B800028004F709D808
:100B4000FCE4791D7802B800028004F709D8FCE4BF
:100B5000900280781E79108002F0A3D8FCD9FA7830
:100B60001A9008867A01BA00028007E493A3F60877
:100B7000DAF97A9D7B11900A02781979028015E4DE
:100B800093A3AD82AE838A828B83F0A3AA82AB83C8
:100B90008D828E83D8E9D9E77582A67583FF7402AA
:100BA000120BC075822575830B7400120BC075D0B3
:100BB0000075813F751880751902759F00020B2A18
:100BC000C09FF59FE473D09F22D083D082C09FE462
:100BD00093C0E0740193C0E0740293F59F22FFFF7D
:100BE000FFFFFFFFFFFFFFFFFFFFFFFFFFFFFFFF15
:100BF000FFFFFFFFFFFFFFFFFFFFFFFFFFFFFFFF05
:100C0000FFFFFFFFFFFFFFFFFFFFFFFFFFFFFFFFF4
:100C1000FFFFFFFFFFFFFFFFFFFFFFFFFFFFFFFFE4
:1010000001BEE76670100809E766700A0809E7661E
:1010100070040809E76622E066701008A3E06670B5
:101020000A08A3E066700408A3E06622C3E79608F6
:1010300009E7960809E7960809E796A2D265D03332
:1010400022C008C3E096F50808A3E096420808A36A
:10105000E096420808A3E0964208A2D265D033E5A4
:10106000087001D3D00822C3E7960809E79608095B
:10107000E7960809E79622C3E09608A3E09608A33E
:10108000E09608A3E09622C008C3E096F50808A3FE
:10109000E096420808A3E096420808A3E0964508B7
:1010A0007001D3D00822080808EAC0E0EBC0E0864F
:1010B000F0E7A4FA180986F0E7A42AFA180986F0DE
:1010C000E7A42AFA180986F0E7A42AFA1986F0E7B5
:1010D000A4FBE5F02AFA190886F0E7A42BFBE5F05B
:1010E0003AFA190886F0E7A42BFBE5F03AFA18184B
:1010F0000986F0E7A4C5F02BFBE43AFA1908E7C526
:10110000F0C6A426F6E5F03BFBE43AFA1886F0E7D1
:10111000A4F6E5F00826F6E43B08F6E43A08F6D033
:10112000E0FBD0E0FA22E4CFC0E0E4CEC0E0E4CDC2
:10113000C0E0E4CCC0E075F020E626F608E633F621
:1011400008E633F608E633F6181818EC33FCED33EE
:10115000FDEE33FEEF33FFC3EC9709ED9709EE97F1
:1011600009EF97191919400FFFEC97FC09ED97FD4E
:1011700009EE97FE191906D5F0BFECF709EDF7094E
:10118000EEF709EFF7191919D0E0FCD0E0FDD0E037
:10119000FED0E0FF221211FD1818181211261211AC
:1011A000EC191919221211EC191919080808E61876
:1011B000181820E7E01211261211FD18181822093C
:1011C0000909E719191920E7DC080808E6181818B2
:1011D00020E7030211261211FD1818181211261209
:1011E00011FD1818181211EC19191922E4C397F7F8
:1011F00009E497F709E497F709E497F722E4C3961F
:10120000F608E496F608E496F608E496F6226017E7
:10121000080808C6A2E713C618C613C618C613C620
:1012200018C613C6D5E0E9226016080808C6C3131D
:10123000C618C613C618C613C618C613C6D5E0EA24
:10124000227009080808226016181818C6C333C689
:1012500008C633C608C633C608C633C6D5E0EA2278
:10126000E627F60809E637F60809E637F60809E63C
:1012700037F622E026F608A3E036F608A3E036F6B5
:1012800008A3E036F622E026F008A3E036F008A333
:10129000E036F008A3E036F022C3E697F60809E648
:1012A00097F60809E697F60809E697F622C3E0C61E
:1012B00096F608A3E0C696F608A3E0C696F608A33D
:1012C000E0C696F622C3E096F008A3E096F008A3E5
:1012D000E096F008A3E096F022E657F60809E657F4
:1012E000F60809E657F60809E657F622E056F6082A
:1012F000A3E056F608A3E056F608A3E056F622E06F
:1013000056F008A3E056F008A3E056F008A3E05614
:10131000F022E667F60809E667F60809E667F608C8
:1013200009E667F622E0F608A3E0F608A3E0F6086F
:10133000A3E0F622E6F008A3E6F008A3E6F008A38F
:10134000E6F022E0FAA3E0FBA3E0FCA3E0FD22EA42
:10135000F0A3EBF0A3ECF0A3EDF022E0F8A3E0F9AA
:10136000A3E0FAA3E0FB22E8F0A3E9F0A3EAF0A3EC
:10137000EBF022CAC0E0E6F0A308DAFAD0E0FA22E5
:10138000CAC0E0E0A3C582CCC582C583CDC583F0C9
:10139000A3C582CCC582C583CDC583DAE6D0E0CAB9
:1013A00022C3E498F8E499F91213E28026C3E49A80
:1013B000FAE49BFBE920E7E91213E2E498F8E499E8
:1013C000F922C3E498F8E499F91213E2E498F8E4F6
:1013D00099F9C3E49AFAE49BFB22EB20E7CFE920DA
:1013E000E7E0B90010BB0008E88AF084F8AAF02210
:1013F000E4FBC8FA22EB70227B10C833C8C933C99A
:10140000335007C39AC3DBF280069A50012ADBEA05
:10141000C833F4C8C933F4C9FA2275F008E4C833F4
:10142000C8C933C933C99AC99B5004C92AC93BD515
:10143000F0ECFBC833F4C8E4C9FA22600D08C6A278
:10144000E713C618C613C6D5E0F322600C08C6C35E
:1014500013C618C613C6D5E0F422700422600D1816
:10146000C6C333C608C633C6D5E0F4182225181003
:10147000AF08F518400C15198008F5184002151929
:10148000D2AF2200C0D0251810AF08F518500C05B7
:10149000198008F51850020519D2AFD0D0222518AE
:1014A000F58210AF08F518400C15198008F51840A2
:1014B000021519D2AF851983222518F582E4351952
:1014C000F583222518F8E43519F9222518FAE435B0
:1014D00019FB222518FCE43519FD22E4732518C5F3
:1014E00082C0E0E51934FFC583C0E0E518C39582EA
:1014F00024F810AF08858319858218800885831920
:10150000858218D2AFCEF0A3E520F0A37808E608D4
:10151000F0A3DEFAEFF0A3E58124FAF8E608F0A3E1
:10152000E608F0A3E608F0A30808E608F0A3E6083A
:10153000F0A315811581D0E0FED0E0F8158115816A
:101540001581E8C0E0EEC0E0222518C582C0E0E5C4
:101550001934FFC583C0E0E518C3958224F910AFA4
:10156000088583198582188008858319858218D299
:10157000AFCEF0A3E520F0A37808E608F0A3DEFAEA
:10158000EFF0A3E58124FBF8E608F0A3E608F0A35A
:101590000808E608F0A3E608F0A315811581D0E05D
:1015A000FED0E0F815811581E8C0E0EEC0E02285AC
:1015B0001983851882E0A3FEE0A3F5207808E0A354
:1015C000F608DFFAE0A3FFE0A3C0E0E0A3C0E0E09C
:1015D000A3C0E0E0A3C0E0E0A3C0E010AF088582B4
:1015E000188583198008858218858319D2AFD08326
:1015F000D082020BC6851983851882E0A3FEE0A382
:10160000F5207808E0A3F608DFFAE0A3FFE0A3C026
:10161000E0E0A3C0E0E0A3C0E0E0A3C0E010AF08BA
:101620008582188583198008858218858319D2AF31
:10163000D083D0822274048006740280027401C0B8
:10164000E0F40412149ED0E0121373227404800498
:1016500074028000CCC0E0EDC0E0E518C39CCCADC6
:101660001950011D10AF068C188D1980068C188D2D
:1016700019D2AF121380D0E0FDD0E0FC22D083D08D
:1016800082E9C0E0E493A3C386F0C5F095F0F908C1
:10169000E493A386F0C5F095F0700BE493A3C3998F
:1016A0004005E9048002A3E475F002A42582F582D6
:1016B000E5F03583F583D0E0F9E493A3C0E0E4934B
:1016C000C0E022D083D082ECC0E0EDC0E0E493A380
:1016D000FCE493A3FDED4C600D12170FEC24FFFC0E
:1016E000ED34FFFD80EFE493A3FCE493A3FDED4C08
:1016F000600D12174EEC24FFFCED34FFFD80EFD09F
:10170000E0FDD0E0FCE493A3C0E0E493C0E022C09D
:10171000E0C3E49396087401939618400FE493662F
:10172000700808740193661870007019A3A3C3E4CD
:101730009396087401939618A3A3400DD0E0D0E0CF
:10174000D0E00216FFA3A3A3A3A3A3D0E022C0E08E
:10175000C0F088F0E493667008087401936618700E
:1017600000A8F0A3A3700BD0F0D0E0D0E0D0E0024E
:1017700016FFA3A3D0F0D0E022FFFFFF74F51215EF
:1017800049EAFEEBFFEE2434F8EF3400F9880889CB
:1017900009EE2435F582EF3400F583E0F8EE2437C6
:1017A000F582EF3400F583E0F50AEC850AF0A4FC3D
:1017B000AAF0850AF0EDA42AFDE82CF8E43DF97AB8
:1017C000257B001213E2EA850882850983F0F8740C
:1017D0000758F97401B900028004C333D9FCFAE850
:1017E000131313541FF8EE28F8EF3400F9E8245DC2
:1017F000F582E93400F583E05A6008EE2434F5827E
:10180000EF802CEE2434F582EF3400F583E0C0E065
:10181000EE2436F582EF3400F583E0F5F0D0E08475
:10182000A8F0EE28F8EF3400F9E82438F582E9341E
:1018300000F583E0F97F040215F574F5121549EA05
:10184000FEEBFFEE2434F582EF3400F583E0C0E0D8
:10185000EE2435F582EF3400F583D0E0F08E828FF0
:1018600083A3A3A3A3A3A3A3C082C0838E828F83D9
:10187000A3A3A3A3A3E0F8A3E0F9D083D082E0C39D
:1018800098F508A3E099F509EE247FF582EF34007E
:10189000F583E064017069EE2480F582EF3400F591
:1018A00083E0F8A3E0F98E828F83A3A3A3A3A3A36D
:1018B000A3E0FCA3E0FD8E828F83A3A3A3A3A3E0F8
:1018C000FAA3E0FBC3EA9CEB9D5010C3EC98ED99A2
:1018D000402EC3EA98EB995027800EC3EA98EB9903
:1018E0004007C3EC98ED9940177CBE7D07EEFAEFF8
:1018F000FB122CDEEE247FF582EF3400F583E4F05A
:10190000EE2434F8EF3400F9E8FCE9FDEE2435F577
:1019100082EF3400F583E0F8EE2437F582EF3400EF
:10192000F583E0F50AE508850AF0A4F508AAF08534
:101930000AF0E509A42AF509E82508F8E43509F9CB
:101940007A257B001213E2EA8C828D83F0F874070B
:1019500058F97401B900028004C333D9FCFAE813C2
:101960001313541FF8EE28F8EF3400F9E8245DF55E
:1019700082E93400F583E05A6008EE2434F582EF02
:10198000802CEE2434F582EF3400F583E0C0E0EEE5
:101990002436F582EF3400F583E0F5F0D0E084A83A
:1019A000F0EE28F8EF3400F9E82438F582E9340045
:1019B000F583E0F912237F02183574EF1215499070
:1019C0000478E064086005E06407702A9061C8E06C
:1019D00060249004A6E0F4601DE0F875F005A4C84A
:1019E000AAF02AF974A828FE740439FF8E828F8326
:1019F000A3A3A3E07003021AEA906060E0C0E0EEE7
:101A00002468F582EF3400F583D0E0F0750CFA75A8
:101A10000D07750800750900E5D914F50AE5D954D4
:101A200003F50E60177403650E605CE50A6010EE46
:101A30002467F582EF3400F583E07003021ACF903B
:101A400007F5E06401602AEE2482F582EF3400F5A8
:101A500083E06004780480027800850A08E508C302
:101A600098FA95E0FB122BBE8A088B09EA450970AB
:101A700005122F548074EE2482F582EF3400F58332
:101A8000E070048A0C8B0DE50A6012850C82850DCE
:101A900083F50BE5D9F0A3150BE50B70F6EE248268
:101AA000F582EF3400F583E0604474FC250AF50A02
:101AB000780C121639AC0AA90EEEFAEFFB122D9231
:101AC0007402121483E97026AA08AB091235CC7986
:101AD0003D8E828F83A3A3A3A3E0FA7B00122AA4E6
:101AE000EEFAEFFB122D02122DF2790080747403CE
:101AF000650E6056850A107511007810121639AC03
:101B00000CAD0DAA08AB09122D6E7402121483EEEF
:101B10002468F582EF3400F583E064807004747FFC
:101B20008001E0F50C780C12163DE50EF50C780CF2
:101B300012163DA90AAC08AD099004A6E0FA7B0094
:101B4000122A6274021214838013900478E06408ED
:101B5000700BAC0CAD0DEEFAEFFB122DC2122F6024
:101B600079017F0A0215F574F512154974FC1214F7
:101B70006DEAFEEBFF8908A2AFE433F509C2AF803E
:101B80006AEE2463F8EF3400F97A007B00A2AFE438
:101B900033F50AC2AF88828983E0FCA3E0FDEC4DF7
:101BA000603A88828983E0FAA3E0FB8A828B83E033
:101BB000FCA3E0FD88828983ECF0A3EDF08A828BA0
:101BC00083E4F0A3F088828983E0FCA3E0FDEC4D80
:101BD000700A88828983A3A3E4F0A3F0E50AA2E057
:101BE00092AF1235CC9007C5E004F0EE2463F58285
:101BF000EF3400F583E0F8A3E0F9E849603DEE2416
:101C000063F582EF3400F583E02402FAA3E03400A8
:101C1000FBEA2402F50AEB3400F50B780A121639B8
:101C20008A828B83E0FCA3E0F9EEFAEFFB122D32FF
:101C30007402121483E97003021B819007C5E060EF
:101C4000639007C6E0F89007C5E0C398500C740293
:101C5000650870509007C7E0604A8E828F83A3A307
:101C6000A3A3E0851882851983F0A3E4F09007C54B
:101C7000E0F874021214B9E8F0A3E4F09007C5E0AC
:101C8000F89007C4E028F074021214B9AC82AD8356
:101C9000851882851983AA82AB837901122A6E90F6
:101CA00007C5E4F0E509A2E092AF740412148302C0
:101CB0001835FFFF851B87851CC622C0E0C0D0E811
:101CC000C0E0E9C0E0EAC0E0EBC0E0ECC0E0EDC09D
:101CD000E0EEC0E0C008C009C00AC00BC082C083EB
:101CE000C0F0A2AFE433FEC2AF759B00906182E00A
:101CF000A2E05012E591A2E0500C7591FE740165CE
:101D00001B70031219BAE0A2E55051E591A2E5500B
:101D10004B7591DF900478E064076005E06408701B
:101D2000237401651B703579019004A6E0FA75F003
:101D300005A4CAA8F028FB74A82AFA74043BFB1275
:101D40001B678018E0640D701390049AE004F0643F
:101D5000287002E4F07A00E0F9122F66906182E0C8
:101D6000A2E64003021E02E591A2E64003021E0223
:101D70007591BF900478E064057008122E6A122EE7
:101D8000768003122E70751B00122ED6E99004790E
:101D9000F07900122EB8122C4E7A017B0090047755
:101DA000E0F91231BE907803E0644270559007F973
:101DB000E014F0704DC2AF121DBA00781ED0E0F6EC
:101DC00018D0E0F6E59F540770057509FF8003758C
:101DD000097FC4C0E0781DE6F50808E65509F50955
:101DE000740B780812144BD0E02508F8906270E06C
:101DF000A2E740F8E8C333906272F0906270E0D2DC
:101E0000E0F0906181E0A2E35009E5E9A2E350032C
:101E100075E9F7A3E0A2E75009E591A2E750037541
:101E2000917FEEA2E092AFD0F0D083D082D00BD0E1
:101E30000AD009D008D0E0FED0E0FDD0E0FCD0E030
:101E4000FBD0E0FAD0E0F9D0E0F8D0D0D0E032C05A
:101E5000E0C0D0C082C083906183E0A2E05009E579
:101E6000BFA2E0500375BFFEE0A2E15009E5BFA2AA
:101E7000E1500375BFFDE0A2E25009E5BFA2E250C8
:101E80000375BFFBE0A2E35009E5BFA2E350037571
:101E9000BFF7E0A2E45009E5BFA2E4500375BFEF2D
:101EA000E0A2E55009E5BFA2E5500375BFDFE0A25F
:101EB000E65009E5BFA2E6500375BFBFD083D082CC
:101EC0008088C0E0C0D0E8C0E0E9C0E0EAC0E0EB54
:101ED000C0E0ECC0E0EDC0E0C0F0E5A7A2E6500F26
:101EE000E5A1A2E6500953A7BF75A1BF121F27E5C0
:101EF000A7A2E5500CE5A1A2E5500653A7DF75A106
:101F0000DFE5A7A2E15009E5A1A2E1500375A1FD1B
:101F1000E5A7A2E2500CE5A1A2E2500653A7FB758B
:101F2000A1FBD0F0021E3874F8121549751B019000
:101F30000478E064067015122E168A828B83A3A3A0
:101F4000A3A3A3A3E0FAA3E0FB122E58A2AFE433AD
:101F5000FED2AF90047EE0640170187A207B00907E
:101F60000477E0F91232427A207B00900477E0F99E
:101F70001231C4906182E0D2E6F09007F6E0602171
:101F800085C61C801690047DE064017008E5C65487
:101F9000F84405F5C653BEFC121CB47401651B6001
:101FA000E4EEA2E092AF7F010215F574E912154943
:101FB00074F812146D851882851983ECF0A3EDF086
:101FC0008A088B09900478E024F7C39405500675BD
:101FD0000801022142122E168A0A8B0BAE0AAF0BA1
:101FE000EE4F700302213FAC08AD0974021214B920
:101FF000AA82AB83122E888E828F83A3A3750CFFD7
:10200000750DFF750EFF750F00780C1212EC74023F
:102010001214B97510FF7511FF7512FF7513007852
:10202000101212EC780C7910121067502A780C7983
:10203000101212997508017509C8750A00750B0010
:102040007808790C1210675052850C08850D0985A7
:102050000E0A850F0B80507514017515C875160092
:1020600075170085100885110985120A85130B78EC
:1020700008790C12129978147908121067401C75AF
:102080000800750900750A00750B017808791012AF
:1020900012997808790C121260800C750801750984
:1020A00000750A00750B0074097808121241750C4E
:1020B00019F50DF50EF50F7808790C1211268E82A0
:1020C0008F83A3A3A3A3A3A3E0F8A3E0F97AD07B13
:1020D000031213E2880C890DE4F50EF50F780879E8
:1020E0000C12126074061214B9E0F8A3E0F97AD069
:1020F0007B031213E2E8FA8A0CE4F50D7808790CF8
:1021000012106750077808790C121299900478E041
:102110006408600AE064066005E06405702D750CD3
:102120000D780C79081210674021750CF4750DFFBD
:10213000750EFF750FFF7808790C121260800C7510
:102140000800750900750A00750B0085188285194D
:1021500083E0F8A3E0F583888278081213347408CA
:102160001214837F100215F574F7121549122E9A76
:102170009007F4E064017010906245E4F0A3F0531E
:10218000F4F343FE0C5390F3122E46E5C6548044FC
:1021900049F5C6E59E547F644970F8906185740FD7
:1021A000F09007F2E0F47002A3E0604E9007F3E0D5
:1021B000600814601B14602E8040750801750900CA
:1021C0009007F2E0780812145AE508F45280802A49
:1021D0007508017509009007F2E0780812145AE5B5
:1021E00008F4529080147508017509009007F2E018
:1021F000780812145AE508F452A079007F020215FB
:10220000F574F7121549E9FEEAFF74016E700C7A55
:10221000807B00900477E0F91231BE90372CE49374
:10222000F46008E493F9122C42800953C680E59EBD
:10223000547F70FA122E4C9007F4E0640170031280
:102240002C5A9007F2E0F47002A3E0604B9007F381
:10225000E0600814601A14602C803D75080175094F
:10226000009007F2E0780812145AE50842808028AE
:102270007508017509009007F2E0780812145AE514
:1022800008429080137508017509009007F2E07804
:102290000812145AE50842A0122E9A122E168A0825
:1022A0008B09A808A909E8496015E5E170FCE82454
:1022B00014F582E93400F583E0F46003E0F5E1749D
:1022C000016F700A7A01900477E0F912321202214C
:1022D000FC74ED1215498A088B098C0A8D0B741356
:1022E0001214B9780C1213257808790C121067753E
:1022F00010017511C8751200751300501278087915
:102300000C12129978107908121067501680107804
:102310000C79081212997810790C12106740047920
:1023200001800279007F0C0215F574ED1215498ABF
:10233000088B098C0A8D0B74131214B9780C1213C4
:1023400025780C790812106740117808790C121260
:1023500099AA08AB09AC0AAD0B8022751000751163
:10236000007512007513017810790C12129978100B
:102370007908121260AA10AB11AC12AD1380A6C07E
:1023800082C083E9906000F0D083D08222C2AF0285
:10239000000022C0E0C0D0E8C0E0E9C0E0E5A8D27B
:1023A000AFC2C7751A00A2E7A2E792AFD0E0F9D09A
:1023B000E0F8D0D0D0E032C0E0C0D0E8C0E0E9C062
:1023C000E0EAC0E0C082C083A2AFE433FAD2AFE556
:1023D000C1C0E0901001E0F8748028F582E4340F69
:1023E000F583D0E0F0901000E0F8A3E0687006E517
:1023F00095901003F0901001E004F0C39480400227
:10240000E4F0A3E4F0EAA2E092AFD083D082D0E07F
:10241000FAD0E0F9D0E0F8D0D0D0E032C0E0C0D0BF
:10242000E8C0E0E9C0E0C008C009C082C083A2AF34
:10243000E433F9D2AF901084E0F8A3E06870085359
:102440009AFBA374018025C2E9901084E0F508741A
:10245000012508F074042508F582E43410F583E0C2
:10246000F5C1901084E0C394804002E4F0E9A2E05A
:1024700092AFD083D082D009D0088095C0E0C0D080
:10248000E8C0E0E9C0E0E5A8D2AF758A00C2EBA2DF
:10249000E7A2E792AF022411120BC9858604120B42
:1024A000C99B8604120BC9CA8604120BC900870493
:1024B000120BC9178704120BC92E8704120BC965AA
:1024C0008704120BC9B88704120BC9CF8704120BFB
:1024D000C9008004120BC9178004120BC94880047C
:1024E000120BC9838004120BC9AD8004120BC9D72B
:1024F0008004120BC9EE8004120BC9058104120B73
:10250000C91C8104120BC9458104120BC9588104EE
:10251000120BC96E8104120BC9988104120BC9C237
:10252000F201120BC9C6F301120BC9F3F301120B2E
:10253000C949F401120BC96CF401120BC980F401F2
:10254000120BC982F401120BC9A5F401120BC9B414
:10255000F501120BC978F601120BC94DF701120BE8
:10256000C9BEF701120BC94AF801120BC94DF80197
:10257000120BC9D5F801120BC910F901120BC9775A
:10258000F901120BC97AF901120BC9B1F901120B49
:10259000C9DAF901120BC985FA01120BC90FFB0147
:1025A000120BC95EFB01120BC96BFB01120BC96E4A
:1025B000FB01120BC9CEFB01120BC9D9FB01120B97
:1025C000C958FC01120BC95BFC01120BC96EFC015E
:1025D000120BC971FC01120BC900FD01120BC91AC3
:1025E000FD01120BC92AFD01120BC95AFD01120B84
:1025F000C967FD01120BC96AFD01120BC9EBFD0190
:10260000120BC9D9FE01120BC98BFF01120BC9AD08
:10261000DE02120BC9A5DF02120BC9D9DF02120BB1
:10262000C95BE002120BC97BE002120BC9C3E002D6
:10263000120BC916E102120BC97AE102120BC9078B
:10264000E202120BC9C1E202120BC9D0E502120B61
:10265000C95BE702120BC97EE702120BC95DDD03FD
:10266000120BC9FADE03120BC95EDF03120BC9BDE0
:10267000DF03120BC9CBDF03120BC9F4DF03120B0C
:10268000C9E9B303120BC911B403120BC93FB40358
:10269000120BC976B403120BC9D4B403120BC91FB1
:1026A000B503120BC96AB503120BC9AAB503120B05
:1026B000C9F0B503120BC91EB603120BC9DBB60372
:1026C000120BC9E5B603120BC9F2B603120BC925EA
:1026D000B703120BC9F1B703120BC9FDB703120BF5
:1026E000C915B803120BC91FB803120BC99DB80353
:1026F000120BC99B8D04120BC9A98D04120BC9C101
:102700008D04120BC9D98D04120BC9F18D04120B63
:10271000C9C09C02120BC96C9D02120BC9E79D0235
:10272000120BC9089F02120BC9449F02120BC9ED7C
:102730009F02120BC9D4A002120BC938A202120BBD
:10274000C98FA202120BC910A302120BC900A40266
:10275000120BC94DA402120BC9D3A402120BC90556
:10276000A502120BC919A702120BC95BA702120B13
:10277000C979A702120BC91BA802120BC9E3A80250
:10278000120BC9F0AA02120BC908E103120BC91EF1
:10279000E103120BC944E103120BC960E203120BFF
:1027A000C96AE203120BC99FE303120BC997E40342
:1027B000120BC98FCC03120BC933CD03120BC966A0
:1027C000CD03120BC9B0CD03120BC973CF03120B8B
:1027D000C93AD001120BC9B3D001120BC9C3D00141
:1027E000120BC9A9D101120BC9C0D101120BC9CA60
:1027F000D101120BC9EFD101120BC9FAD101120B91
:10280000C9E4D201120BC947D301120BC9FDD30190
:10281000120BC9E4D501120BC99DD701120BC9795E
:10282000D801120BC92DD901120BC96ADC01120B98
:10283000C918DD01120BC987DE01120BC907E001BF
:10284000120BC9AEE001120BC9F7E001120BC92E41
:10285000E101120BC9CBE101120BC956E201120BC7
:10286000C933E301120BC988E301120BC9E7E40184
:10287000120BC9F7E401120BC924E501120BC97B45
:10288000E501120BC924E601120BC92BE701120B5B
:10289000C9F5E701120BC955E901120BC998E90105
:1028A000120BC93DEA01120BC963EA01120BC9718F
:1028B000EC01120BC976EC01120BC97BEE01120B75
:1028C000C9C8EE01120BC93BEF01120BC96EEF0133
:1028D000120BC910F001120BC9B9F001120BC9F1AA
:1028E000F001120BC9F4F001120BC93CF101120BFB
:1028F000C97EF101120BC9D5F101120BC9BDEE035E
:10290000120BC9D0EE03120BC9DEEE03120BC9265F
:10291000EF03120BC93CEF03120BC983EF03120B39
:10292000C997F003120BC924F103120BC96FF1030D
:10293000120BC9DF8A01120BC9EF8A01120BC952AF
:102940008B01120BC9978B01120BC94D8C01120B15
:10295000C9288D01120BC9518D01120BC9818D013E
:10296000120BC9C18F01120BC9A89101120BC980AA
:102970009301120BC9C49401120BC92B9701120BBE
:10298000C9399801120BC98B9901120BC9959A018B
:10299000120BC9D79A01120BC90F9B01120BC93137
:1029A0009B01120BC9949B01120BC956A001120B7B
:1029B000C9EBA001120BC93FA101120BC966A1010D
:1029C000120BC9A4A101120BC9C3A101120BC91D8D
:1029D000A201120BC91DA301120BC9A2A301120B64
:1029E000C9BA9C03120BC9C49C03120BC96C9D038A
:1029F000120BC9AF9D03120BC9CA9D03120BC95A12
:102A00009E03120BC9829E03120BC9BA9E03120BBE
:102A1000C9F19E03120BC91A9F03120BC9549F03DD
:102A2000120BC9699F03120BC936A003120BC959B7
:102A3000A003120BC97BA003120BC990A003120BB9
:102A4000C916A103120BC950A103120BC9C8A103D7
:102A5000120BC911A203120BC93BA203120BC966C8
:102A6000A203120BC9878A04120BC909AB02120B0D
:102A7000C937AB02120BC992AC02120BC972AD027C
:102A8000120BC991AD02120BC90EAE02120BC95145
:102A9000AE02120BC9CCAF02120BC93BB002120B33
:102AA000C966B202120BC9EAB402120BC99BB50285
:102AB000120BC991B602120BC931B702120BC92F02
:102AC000B802120BC9BAB802120BC9E68704120B7E
:102AD000C94F8804120BC9A38804120BC9D28804F9
:102AE000120BC9F38804120BC910D103120BC97D54
:102AF000D103120BC9C4D103120BC9DCD203120BD0
:102B0000C9D8D303120BC9BBD403120BC9D8F8021E
:102B1000120BC91AF902120BC9F3F902120BC9ED13
:102B2000FA02120BC9CFFB02120BC938FC02120BBE
:102B3000C954FD02120BC9C0FD02120BC9C3FD022C
:102B4000120BC9ECFD02120BC966FE02120BC90B77
:102B5000FF02120BC920FF02120BC966FF02120B03
:102B6000C97FFF02120BC982FF02120BC9A1E40345
:102B7000120BC9DDE403120BC91BE503120BC9E5F7
:102B8000E503120BC954E603120BC98FE603120BBF
:102B9000C9CDE603120BC9FDE603120BC924E703F6
:102BA000120BC992E703120BC9D4E703120BC90930
:102BB000A401120BC928A601120BC90BA801120B04
:102BC000C947A801120BC974A801120BC93BA9017E
:102BD000120BC986A901120BC9D1A901120BC9E3B5
:102BE000A901120BC923AA01120BC957AA01120B82
:102BF000C9A5AA01120BC9D6AA01120BC9F9AA01CB
:102C0000120BC980AB01120BC968AC01120BC9557C
:102C1000AD01120BC94EAE01120BC95DB001120B12
:102C2000C9FFB501120BC94FB601120BC9C6B801D5
:102C3000120BC9D4FB03120BC989FD03120BC91077
:102C40005500120BC9BF5500120BC9EC5500120BF1
:102C5000C9365600120BC96C5700120BC902590035
:102C6000120BC9775900120BC9B85900120BC90AC7
:102C70005A00120BC97B5B00120BC9C05D00120B1E
:102C8000C9BA5E00120BC9D95E00120BC9F85E000A
:102C9000120BC9FB5E00120BC92C6000120BC92479
:102CA0006100120BC9106200120BC9806200120B86
:102CB000C9F26200120BC9796300120BC954640097
:102CC000120BC9296500120BC9086600120BC993C3
:102CD0006600120BC9016700120BC9756700120B61
:102CE000C9A06700120BC95F6800120BC94C6B00CA
:102CF000120BC9956B00120BC9D86B00120BC9518E
:102D00006C00120BC9E96C00120BC9DA6D00120BD2
:102D1000C9FF6D00120BC9456E00120BC96F6E0022
:102D2000120BC9B76E00120BC9326F00120BC98C9F
:102D30006F00120BC9F57000120BC9A37100120BC2
:102D4000C9E47100120BC9147200120BC96272003F
:102D5000120BC96E7200120BC94C7300120BC97DA5
:102D60007300120BC9AE7300120BC92E7400120B44
:102D7000C9667400120BC9B87400120BC9F574004F
:102D8000120BC9127700120BC9387900120BC92334
:102D90007B00120BC90D7D00120BC9EB7F00120BDB
:102DA000C98EA203120BC9D9A603120BC91DA80311
:102DB000120BC96C8E02120BC9249102120BC92A84
:102DC0009102120BC9E49302120BC9B19602120BC5
:102DD000C925B903120BC9C9B903120BC99BBA03A0
:102DE000120BC9C5BA03120BC913BD03120BC930AC
:102DF0003700120BC97A3700120BC9BB4500120B02
:102E0000C9404700120BC9634800120BC9D44E00D9
:102E1000120BC9CF4F00120BC90C5000120BC92F57
:102E20005000120BC9715000120BC97B5000120BDD
:102E3000C9695100120BC95F5200120BC9F8520048
:102E4000120BC98FD903120BC925DA03120BC93B28
:102E5000DA03120BC9B1DA03120BC925DB03120B1B
:102E6000C963DB03120BC9D7DB03120BC950DC03A8
:102E7000120BC959DC03120BC965DC03120BC97AAA
:102E8000DC03120BC9B8DC03120BC9CEDC03120B36
:102E9000C92DDD03120BC9719603120BC97E96036F
:102EA000120BC9989603120BC9D79603120BC915BA
:102EB0009703120BC97A9703120BC98F9703120B52
:102EC000C9A69703120BC9B49703120BC9C3970382
:102ED000120BC9D89703120BC9ED9703120BC9F84F
:102EE0009703120BC9049803120BC9119803120B14
:102EF000C9209803120BC92B9803120BC9509803D1
:102F0000120BC9F79803120BC90C9903120BC921B4
:102F10009903120BC93B9903120BC9569903120B63
:102F2000C9739903120BC97E9903120BC93A9A030C
:102F3000120BC9269B03120BC94B9B03120BC956DC
:102F40009B03120BC96B9B03120BC97F9B03120BD4
:102F5000C9E09B03120BC9E69B03120BC9EC9B0350
:102F6000120BC9F29B03120BC90A9C03120BC93D39
:102F70009C03120BC957D402120BC979D402120B4D
:102F8000C959D502120BC930D802120BC95CD9023B
:102F9000120BC980DA02120BC932DB02120BC9D341
:102FA000DB02120BC940B902120BC9C4B902120BE1
:102FB000C973BA02120BC9D2BB02120BC9F3BD020C
:102FC000120BC9DFBE02120BC914BF02120BC936A5
:102FD000BF02120BC9E5BF02120BC9DDC102120B01
:102FE000C906C202120BC998C202120BC9CAC20298
:102FF000120BC9D7C202120BC92EC302120BC9543D
:10300000C302120BC9C1C502120BC9C4C602120BFE
:10301000C91CC702120BC9008002120BC90A810227
:10302000120BC9F18102120BC9FB8102120BC91DDF
:103030008202120BC9298202120BC9C28302120B2F
:10304000C9F18302120BC90D8502120BC9668502F4
:10305000120BC9CC8602120BC9AB8702120BC9072F
:103060008802120BC9748802120BC9AF8802120BB6
:10307000C9EE8802120BC9A78B02120BC9C18B02C1
:10308000120BC94D8C02120BC95B8C02120BC9B416
:103090008C02120BC9C28C02120BC9358D02120BA5
:1030A000C9998D02120BC9E38D02120BC9AA8104C2
:1030B000120BC9CF8104120BC9418204120BC9F64D
:1030C0008703120BC9FF8703120BC9088803120B71
:1030D000C9DF8803120BC9908A03120BC9C68A0381
:1030E000120BC9008B03120BC9368B03120BC9706C
:1030F0008B03120BC9A48B03120BC9D08B03120BC9
:10310000C9198C03120BC9538C03120BC99C8C0375
:10311000120BC9F48C03120BC9298D03120BC9843D
:103120008D03120BC9BE8D03120BC90F8E03120B38
:10313000C9458E03120BC97F8E03120BC9A28E03E1
:10314000120BC9099004120BC9359004120BC990D7
:103150009004120BC99A9004120BC9AA9004120B86
:10316000C9DAF002120BC9E4F002120BC922F10213
:10317000120BC96BF102120BC9A5F102120BC9FBAC
:10318000F102120BC91CF202120BC9A1F402120BBC
:10319000C9AAF402120BC9F5F402120BC91EF502FA
:1031A000120BC928F502120BC994F502120BC92A99
:1031B000F602120BC974F602120BC9A4F602120B26
:1031C000C92DF702120BC96DF702120BC9A5F70240
:1031D000120BC9B7F702120BC9D6F702120BC9DFDF
:1031E000F702120BC9AEF802120BC9A48C04120B21
:1031F000C9DFFD03120BC915FE03120BC94BFE03F9
:10320000120BC994FF03120BC95B9104120BC97115
:103210009104120BC97B9104120BC9C59104120BC6
:10322000C903C803120BC918C803120BC9C8C803C5
:10323000120BC908C903120BC921C903120BC955C6
:10324000C903120BC9A2C903120BC9D6C903120BB9
:10325000C918CA03120BC91CCC03120BC982CC03B8
:10326000120BC9539204120BC9EC8404120BC9153A
:103270008504120BC93E8504120BC9D98504120BB3
:10328000C9F18504120BC9338604120BC94AC30362
:10329000120BC9B2C503120BC957C603120BC910D2
:1032A000C703120BC930AE03120BC96FAE03120B6A
:1032B000C9F8AE03120BC90DAF03120BC958AF0307
:1032C000120BC98CAF03120BC9CBAF03120BC9DAB7
:1032D000AF03120BC98CB003120BC9E5B003120B7C
:1032E000C934B103120BC98AB103120BC97FB203EF
:1032F000120BC974B303120BC9B1B303120BC94249
:103300008F03120BC97C8F03120BC9B18F03120BF1
:10331000C9F68F03120BC95B9003120BC9B590035A
:10332000120BC9E69003120BC9259103120BC910A9
:103330009203120BC9409203120BC96F9203120B36
:10334000C9FF9203120BC94C9303120BC987930355
:10335000120BC9B59403120BC91D9503120BC92595
:103360009603120BC9F39104120BC9DFBA01120BB9
:10337000C95FBD01120BC9D2BE01120BC9CFBF017B
:10338000120BC958C001120BC9DCC001120BC901D4
:10339000C101120BC951C101120BC9E6C401120BC4
:1033A000C95AC501120BC946C601120BC980C60114
:1033B000120BC9C0C601120BC96BC801120BC99C04
:1033C000C801120BC9EFC801120BC938C901120B91
:1033D000C9A6C901120BC9D8C901120BC9F0C9018C
:1033E000120BC905CB01120BC915CB01120BC93346
:1033F000CC01120BC955CC01120BC98BCC01120B9D
:10340000C934CE01120BC9ADCE01120BC9ECCE01ED
:10341000120BC903D001120BC9A9E802120BC9088B
:10342000E902120BC994E902120BC994EA02120BC9
:10343000C99DEB02120BC94BEC02120BC983EF02C0
:10344000120BC99AEF02120BC9AFEF02120BC9A7F8
:10345000F002120BC9538F04120BC9648F04120BB4
:10346000C9B29204120BC9F19204120BC9BD9304A4
:10347000120BC98A8E04120BC99A8E04120BC9B2A0
:103480008E04120BC9468F04120BC9A08B04120BB9
:10349000C9258C04120BC98B8C04120BC9E87F0060
:1034A000120BC984EB03120BC999EB03120BC9AFC2
:1034B000EC03120BC931ED03120BC9A5ED03120B7E
:1034C000C9BFED03120BC9D6ED03120BC9E9ED0319
:1034D000120BC901EE03120BC916EE03120BC9370A
:1034E000EE03120BC988EE03120BC97DD503120B34
:1034F000C98ED503120BC90BD603120BC9E0D60334
:10350000120BC9B2D803120BC90CD903120BC96331
:10351000D903120BC976D903120BC9F87F00120B1D
:10352000C9A5F903120BC92AFB03120BC98BFB03B4
:10353000120BC9D1FB03120BC91EF703120BC9945E
:10354000F703120BC92BF803120BC9C2F803120BB5
:10355000C9E0F803120BC9F0F803120BC94BF903C9
:10356000120BC95FF903120BC96DF903120BC91CC9
:10357000E803120BC937E803120BC966E803120B04
:10358000C995E803120BC9C1E803120BC90AE90384
:10359000120BC95BE903120BC99CE903120BC9DBCF
:1035A000E903120BC927EA03120BC98CEA03120BB9
:1035B000C9E0EA03120BC9B49004120BC91B9104B1
:1035C000120BC9309104120BC94F8304120BC99F0F
:1035D0008304120BC9288404120BC98E8404120BB5
:1035E000C999F103120BC9C3F103120BC989F20384
:1035F000120BC964F303120BC9EBF303120BC900DE
:103600008003120BC9BD8003120BC9F88003120B93
:10361000C9208103120BC9828103120BC9CE810319
:10362000120BC92E8203120BC9C18203120BC9C02F
:103630008303120BC94F8503120BC9D28503120BEA
:10364000C9398603120BC9508603120BC95A870366
:10365000120BC9988703120BC960A803120BC98803
:10366000A803120BC963A903120BC9A3A903120B68
:10367000C9398904120BC9738904120BC9F789046B
:10368000120BC93FBE03120BC958BE03120BC96B04
:10369000BE03120BC985BE03120BC9B1BE03120BC8
:1036A000C926C003120BC90BC103120BC907C20301
:1036B000120BC928C303120BC96AC702120BC96EC9
:1036C000C802120BC94DCA02120BC9F1CB02120B70
:1036D000C939CD02120BC95CCD02120BC9D9CF0278
:1036E000120BC92BD002120BC9BFD002120BC9ACEE
:1036F000D202120BC921D302120BC95DF403120BC3
:10370000C9A1F603120BC9E2F603120BC9FB92041E
:10371000120BC9CEFF03120BC9419304120BC977D8
:103720009304120BC99F9304FFFFFFFFFFFFFFFFEE
:10373000C082C083784B790888828983A3A3A3A31E
:10374000A3A3E4F088828983A3A3A3A3A374FFF0B7
:10375000E82418F8E93400F9E864AB7003E9640878
:1037600070D690084D74FFF090084CE4F090084B30
:10377000F090084EF0A3F002502874EC1214DD9083
:10378000084EE0F508A3E0F509E5084509700612C2
:103790002C4E0245B6850882850983E01460181412
:1037A000601524FE601124C47003023FBC24C07065
:1037B00003023FBC0245B6E0F9122E048A0A8B0BC5
:1037C000AE0AAF0B9004A5E07003023BBA122CF6D0
:1037D000E9F875F005A4C8AAF02AF974A828F50C30
:1037E000740439F50D850C82F583E0F50AA3E0F544
:1037F0000BAC0AFDEEFAEFFB122DFEE9F50E74029A
:10380000650E7003023B628E828F83E024FE600AA5
:1038100024FE7003023A4C0245B6EE65087003EFD1
:1038200065096021122C6C9007D9E0640170169034
:1038300007D8E070107901122F24122EF4122F1ED7
:103840007900122F2AE50E6021E5082415F582E59E
:10385000093400F583E060129007D4E0F8A3E0F9A2
:10386000A3E0687003A3E0697042122E828A0C8B79
:103870000D8C0E8D0F7510037511007512007513E8
:1038800000780C79101212607510FF7511FF751217
:10389000FF780C79101212D98E828F83A3A3E50CC6
:1038A000F0A3E50DF0A3E50EF0A3E4F0E508241580
:1038B000F582E5093400F583E064016003023964B0
:1038C000850A82850B83A3A3750CF1750DFF750E18
:1038D000FF750FFF780C121273780C1216358E825A
:1038E0008F83A3A3C082C0839007D6E0F508A3E02E
:1038F00085080CF50DE4F50EF50FD083D082780C19
:10390000121273AA0CAB0DAC0EAD0F1222D17404BF
:10391000121483E9701F8E828F83A3A3C082C08399
:103920009007D6E0F508A3E0F509E4F50AF50BD019
:1039300083D0828014850A82850B83A3A37508F146
:103940007509FF750AFF750BFF7808121273750C65
:10395000FF750DFF750EFF750F007808790C1212B8
:10396000D9023EB4EE240EF582EF3400F583121630
:103970004C8E828F83A3A31213431222D17404129C
:103980001483E9640160030244D7850A82850B83AE
:10399000A3A3750CF1750DFF750EFF750FFF780C65
:1039A000121273780C1216358E828F83A3A3C082F5
:1039B000C0839007D6E0F508A3E085080CF50DE478
:1039C000F50EF50FD083D082780C121273AA0CABCF
:1039D0000DAC0EAD0F1222D17404121483E9701FC6
:1039E0008E828F83A3A3C082C0839007D6E0F508A0
:1039F000A3E0F509E4F50AF50BD083D082801485A5
:103A00000A82850B83A3A37508F17509FF750AFF68
:103A1000750BFF7808121273750CFF750DFF750E8C
:103A2000FF750F007808790C1212D9EE240EF5827A
:103A3000EF3400F58378081213349007DCE0642734
:103A4000700474258002E004F00244D7EE6508702B
:103A500003EF650960319007F0E0F9122C728508D8
:103A600082850983E06402701E9007D9E0640170CA
:103A7000169007D8E070107900122F24122EF4123D
:103A80002F1E7901122F2AE50E60129007EAE0F846
:103A9000A3E0F9A3E0687003A3E0697039122E82F5
:103AA0008A0C8B0D8C0E8D0F75100375110075121D
:103AB00000751300780C79101212607510FF7511E3
:103AC000FF7512FF780C79101212D98E828F83A3A2
:103AD000A3780C121334850A82850B83A3A3750C7B
:103AE000F1750DFF750EFF750FFF780C12127378CC
:103AF0000C1216358E828F83A3A3C082C0839007D9
:103B0000ECE0F508A3E085080CF50DE4F50EF50FE3
:103B1000D083D082780C121273AA0CAB0DAC0EAD10
:103B20000F1222D17404121483E9701F8E828F83C6
:103B3000A3A3C082C0839007ECE0F508A3E0F509D9
:103B4000E4F50AF50BD083D0828014850A82850BB8
:103B500083A3A37508F17509FF750AFF750BFF02B2
:103B600042C0850882850983E0640270139007D9FA
:103B7000E06401700B9007D8E070057900122F24E3
:103B8000E50C2404FEE50D3400FF8E828F83E0F9FE
:103B9000122E3A8E828F83E09004A6F07902FA7595
:103BA000F005A4CAA8F028FB74A82AFA74043BFB09
:103BB000121B67AA0AAB0B0245B3EE65087003EF50
:103BC00065098E828F836003023DD6E024FE600A81
:103BD00024FE7003023D130245AFEE2415F582EF7B
:103BE0003400F583E0604C9007D4E0F8A3E0F9A33B
:103BF000E0687003A3E069603A122E828A088B099C
:103C00008C0A8D0B750C0A750D00750E00750F0072
:103C10007808790C12126078081216358E828F831C
:103C2000A3A31213431222D17404121483E9600374
:103C30000245AF122E828A088B098C0A8D0B750CF7
:103C400003750D00750E00750F007808790C1212BF
:103C500060750CFF750DFF750EFF7808790C121258
:103C6000D98E828F83A3A37808121334EE2415F51E
:103C700082EF3400F583E0640170328E828F83A37B
:103C8000A3C082C0839007D6E0F508A3E0F509E45D
:103C9000F50AD083D0827808121273EE240EF582D2
:103CA000EF3400F58378081213340245AFEE240E8A
:103CB000F582EF3400F58312164C8E828F83A3A316
:103CC0001213431222D17404121483E964016003B5
:103CD0000245AF8E828F83A3A3C082C0839007D694
:103CE000E0F508A3E0F509E4F50AD083D08278086E
:103CF000121273EE240EF582EF3400F58378081269
:103D000013349007DCE06427700474258002E0041B
:103D10000245AE9007EAE0F8A3E0F9A3E06870037B
:103D2000A3E0696037122E828A088B098C0A8D0BFA
:103D3000750C0A750D00750E00750F007808790C6A
:103D400012126078081216358E828F83A3A3121385
:103D5000431222D17404121483E97077EE2402F521
:103D600008EF3400F509122E828A0C8B0D8C0E8D13
:103D70000F751003751100751200751300780C791A
:103D8000101212607510FF7511FF7512FF780C7913
:103D9000101212D9850882850983780C1213348594
:103DA0000882850983C082C0839007ECE0F508A3F0
:103DB000E0F509E4F50AF50BD083D08278081212F9
:103DC00073EE240EF582EF3400F583780812133475
:103DD000122C780245AFE024FE600A24FE70030234
:103DE0003EC60245B6122C6C9007D9E064017016ED
:103DF0009007D8E070107901122F24122EF4122FA0
:103E00001E7900122F2A9007D4E0F8A3E0F9A3E06E
:103E1000687003A3E0696037122E828A088B098CD0
:103E20000A8D0B750C0A750D00750E00750F007864
:103E300008790C12126078081216358E828F83A3CF
:103E4000A31213431222D17404121483E97074EE86
:103E50002402F508EF3400F509122E828A0C8B0D2E
:103E60008C0E8D0F751003751100751200751300FF
:103E7000780C79101212607510FF7511FF7512FF22
:103E8000780C79101212D9850882850983780C1272
:103E90001334850882850983C082C0839007D6E0E9
:103EA000F508A3E0F509E4F50AF50BD083D0827894
:103EB00008121273EE240EF582EF3400F5837808B1
:103EC0001213340244D79007F0E0F9122C728508DF
:103ED00082850983E06402701E9007D9E064017056
:103EE000169007D8E070107900122F24122EF412C9
:103EF0002F1E7901122F2A9007EAE0F8A3E0F9A318
:103F0000E0687003A3E0696037122E828A088B098B
:103F10008C0A8D0B750C0A750D00750E00750F005F
:103F20007808790C12126078081216358E828F8309
:103F3000A3A31213431222D17404121483E97079DB
:103F4000EE2402F8EF3400F988088909122E828ADB
:103F50000C8B0D8C0E8D0F751003751100751200F2
:103F6000751300780C79101212607510FF7511FF2F
:103F70007512FF780C79101212D985088285098391
:103F8000780C121334850882850983C082C083901F
:103F900007ECE0F508A3E0F509E4F50AF50BD0839A
:103FA000D0827808121273EE240EF582EF3400F5F9
:103FB000837808121334122C780245A99004A5E0E6
:103FC00070030243CD122CF6E9F875F005A4C8AAD7
:103FD000F02AF974A828F510740439F511851082B7
:103FE000F583E0F508A3E0F5099004A6E0F875F084
:103FF00005A4C8AAF02AF974A828F50C740439F5A8
:104000000D90084CE0540770030242DBA3E0F91264
:104010002E048A0A8B0BAE0AAF0BAC08AD09122D29
:10402000FEE9F50E7402650E70030242DB850C8218
:10403000850D83A3A3A3A3E0F875F08AA4C8AAF012
:104040002AF974B028F50A740839F50BAA0AFB128C
:104050002E2EAA0AAB0B122E28751280751300782B
:10406000121216397C007D60E50A2406FAE50B344D
:1040700001FB122D6E7402121483A80AA90B906121
:1040800095E0C0E0E82486F582E93401F583D0E0CC
:10409000F0906196E0C0E0E82487F582E93401F50C
:1040A00083D0E0F0906197E0C0E0E82488F582E9F1
:1040B0003401F583D0E0F0906198E0C0E0E8248915
:1040C000F582E93401F583D0E0F08E828F83E0241D
:1040D000FE600A24FE70030241E60242DB122C6CF1
:1040E0009007D9E0640170119007D8E0700B122E90
:1040F000F4122F1E7900122F2AE50E60129007D4B9
:10410000E0F8A3E0F9A3E0687003A3E06970361259
:104110002E828A0C8B0D8C0E8D0F7510037511007D
:10412000751200780C79101212607510FF7511FF6E
:104130007512FF780C79101212D98E828F83A3A387
:10414000780C121334850882850983A3A3750CF1BA
:10415000750DFF750EFF750FFF780C121273780C3A
:104160001216358E828F83A3A3C082C0839007D698
:10417000E0F50CA3E0F50DE4F50EF50FD083D08249
:10418000780C121273AA0CAB0DAC0EAD0F1222D12B
:104190007404121483E9701F8E828F83A3A3C082DC
:1041A000C0839007D6E0F508A3E0F509E4F50AF529
:1041B0000BD083D0828014850882850983A3A375E0
:1041C00008F17509FF750AFF750BFF780812127365
:1041D000750CFF750DFF750EFF750F007808790CD3
:1041E0001212D90244C89007F0E0F9122C72E50EC1
:1041F00060129007EAE0F8A3E0F9A3E0687003A377
:10420000E0697036122E828A0C8B0D8C0E8D0F7524
:104210001003751100751200780C79101212607578
:1042200010FF7511FF7512FF780C79101212D98EDC
:10423000828F83A3A3780C121334850882850983A7
:10424000A3A3750CF1750DFF750EFF750FFF780CAC
:10425000121273780C1216358E828F83A3A3C0823C
:10426000C0839007ECE0F50CA3E0F50DE4F50EF546
:104270000FD083D082780C121273AA0CAB0DAC0E47
:10428000AD0F1222D17404121483E9701F8E828F35
:1042900083A3A3C082C0839007ECE0F508A3E0F5F8
:1042A00009E4F50AF50BD083D08280148508828555
:1042B0000983A3A37508F17509FF750AFF750BFF44
:1042C0007808121273750CFF750DFF750EFF750FD0
:1042D000007808790C1212D9024597E510650C7028
:1042E00004E511650D70030243AB850C82850D83D7
:1042F000A3A3A3E0700302438F850C82850D83A3E3
:10430000A3A3A3E0F875F08AA4C8AAF02AF974B0B0
:1043100028FE740839FFEEFAEFFB122E2EEEFAEFAC
:10432000FB122E28750A80750B00780A1216397C4C
:10433000007D60EE2406FAEF3401FB122D6E74024C
:10434000121483906195E0C0E0EE2486F582EF348C
:1043500001F583D0E0F0906196E0C0E0EE2487F5AF
:1043600082EF3401F583D0E0F0906197E0C0E0EE99
:104370002488F582EF3401F583D0E0F0906198E075
:10438000C0E0EE2489F582EF3401F583D0E0F0E55A
:10439000102404FEE5113400FF8E828F83E0F912B1
:1043A0002E3A8E828F83E09004A6F079029004A6C4
:1043B000E0FA75F005A4CAA8F028FB74A82AFA74DC
:1043C000043BFB121B67AA08AB090245B390084CDB
:1043D000E0540770030245B6A3E0F9122E048A08E0
:1043E0008B09AE08AF098E828F83E024FE600A2419
:1043F000FE70030244DF0245B6122C6C9007D9E030
:10440000640170169007D8E070107901122F241201
:104410002EF4122F1E7900122F2A9007D4E0F8A351
:10442000E0F9A3E0687003A3E0696037122E828A86
:10443000088B098C0A8D0B750C0A750D00750E0022
:10444000750F007808790C12126078081216358EF4
:10445000828F83A3A31213431222D17404121483F4
:10446000E97074EE2402F508EF3400F509122E828B
:104470008A0C8B0D8C0E8D0F751003751100751243
:1044800000751300780C79101212607510FF751109
:10449000FF7512FF780C79101212D98508828509F0
:1044A00083780C121334850882850983C082C08307
:1044B0009007D6E0F508A3E0F509E4F50AF50BD07E
:1044C00083D0827808121273EE240EF582EF340046
:1044D000F583780812133490084D74020245AE90AB
:1044E00007F0E0F9122C729007EAE0F8A3E0F9A3D4
:1044F000E0687003A3E0696037122E828A088B0996
:104500008C0A8D0B750C0A750D00750E00750F0069
:104510007808790C12126078081216358E828F8313
:10452000A3A31213431222D17404121483E97076E8
:10453000EE2402F8EF3400F988088909122E828AE5
:104540000C8B0D8C0E8D0F751003751100751200FC
:10455000751300780C79101212607510FF7511FF39
:104560007512FF780C79101212D98508828509839B
:10457000780C121334850882850983C082C0839029
:1045800007ECE0F508A3E0F509E4F50AF50BD083A4
:10459000D0827808121273EE240EF582EF3400F503
:1045A000837808121334122C7890084D7404F0EEBE
:1045B000FAEFFB122DF87F0C0215AF74F01214DD28
:1045C000EAFEEBFFEE2402F8EF3400F988088909CF
:1045D000EE2406F8EF3400F9880A890B8882F58307
:1045E000121650850882850983121343122E5E74B9
:1045F00002121483850A82850B8312165085088265
:10460000850983121343122E527402121483EE246E
:104610000EF582EF3400F583121343122E648E825E
:104620008F83E06440701CEE2412F8EF3400F988A8
:10463000828983E0906064F088828983A3E090603F
:10464000658006906064E4F0A3F090084EEEF0A35D
:10465000EFF0EE2416F582EF3400F583E0F8A3E0E6
:10466000F58388821214DB906054E4F0A3F0A3F089
:10467000A3F0A3F0A3F0A3F0A3F0A3F0A3F0A3F0A2
:10468000A3F0906182E0C2E6F07591BFEE2415F5CB
:1046900082EF3400F583E064017003122E9AE5E1A5
:1046A00070FCEE2414F582EF3400F583E0F460032F
:1046B000E0F5E1EE2415F582EF3400F5837401F0A6
:1046C00090047EE064017073122E828A088B098C3C
:1046D0000A8D0B78081216358E828F83A3A31213CE
:1046E0004312232A74041214838A088B098C0A8DBE
:1046F0000B750C05750D00750E00750F00780879A7
:104700000C1210A674037808121228E50824F4F598
:1047100008E5093401F5099007F6E060031231E875
:10472000E4F50AF50B78081216357A207B00900420
:1047300077E0F912323674041214837F080215AF41
:1047400074EA1214DDEAFEEBFF8C148D15EE4F7047
:104750000302485C122E828A088B098C0A8D0B7525
:104760000C01750D00750E00750F007808790C129C
:104770001260750CFF750DFF750EFF7808790C122D
:1047800012D98E828F83E0640270149007D4E0F80F
:10479000A3E0F9A3E0687003A3E06970248017E048
:1047A0006404701D9007EAE0F8A3E0F9A3E06870E4
:1047B00003A3E069700B8E828F83A3A37808121382
:1047C0003475101A751100751200751300780812EF
:1047D0001635851482851583A3A312134312232A49
:1047E00074041214838A0C8B0D8C0E8D0F78107943
:1047F0000C1210674066851482851583A3A3750C7F
:10480000E7750DFF750EFF750FFF780C12127378A8
:104810000C1216358E828F83A3A31213431222D15A
:104820007404121483E97034750C07750D00750E4D
:1048300000750F007808790C12126078081216358E
:104840008E828F83A3A31213431222D174041214F5
:1048500083E97004790080067901800279027F0E75
:104860000215AF74F01214DD890874FF6508600347
:104870000249F190084CE054077003024ECD7A00D3
:10488000784B790888828983A3A3A3A3A3E0640457
:10489000703FEA75F018A4F8A9F0745128F58274F5
:1048A0000839F583E0640170377A00784B7908881D
:1048B000828983A3A3A3A3A3E064046003024946FF
:1048C00088828983A3A3A3A3A3A3E0640170778054
:1048D000630AE82418F8E93400F9EAC3940440A410
:1048E0007A00784B790888828983A3A3A3A3A3E0E5
:1048F00064017067EA75F018A4F8A9F0745128F5FE
:1049000082740839F583E0640170627A00784B792B
:104910000888828983A3A3A3A3A3E06401600302A0
:1049200049CD88828983A3A3A3A3A3A3E0640160E4
:10493000030249CDEA75F018A4F8A9F0745028FADA
:10494000740839024ECA0AE82418F8E93400F9EA72
:10495000C3940450030248AF024ECD0AE82418F86D
:10496000E93400F9EAC3940450030248E67A007877
:104970004B790888828983A3A3A3A3A3E064027070
:1049800061EA75F018A4F8A9F0745128F58274084A
:1049900039F583E0640170597A00784B7908888290
:1049A0008983A3A3A3A3A3E06402707A8882898386
:1049B000A3A3A3A3A3A3E06401706BEA75F018A4FA
:1049C000F8A9F0745028FA740839FB806F0AE824BB
:1049D00018F8E93400F9EAC39404500302491102BB
:1049E0004ECD0AE82418F8E93400F9EAC3940440EB
:1049F000827A00784B790888828983A3A3A3A3A332
:104A0000E06508703A88828983A3A3A3A3A3A3E0E7
:104A10006401702BEA75F018A4F8A9F0745028FE10
:104A2000740839FF802C0AE82418F8E93400F9EA00
:104A3000C39404500302499E7A007B00024ED10ABF
:104A4000E82418F8E93400F9EAC3940440A97E0088
:104A50007F007A00784B790888828983A3A3A3A377
:104A6000A3E06508701BEA75F018A4F8A9F074516A
:104A700028F582740839F583E0640170137A0180A7
:104A8000110AE82418F8E93400F9EAC3940440C88C
:104A90007A00E508146010147003024C0824FE70BC
:104AA00003024D1B024ECD7B00784B79088882892A
:104AB00083A3A3A3A3A3E064027052EB75F018A430
:104AC000F8A9F0745128F582740839F583E064017F
:104AD000704A7B00784B790888828983A3A3A3A3BB
:104AE000A3E064026003024B7688828983A3A3A3B8
:104AF000A3A3A3E06401707EEB75F018A4F8A9F0FD
:104B0000745028F50A740839F50B024B8E0BE82413
:104B100018F8E93400F9EBC3940440917B00784B1A
:104B2000790888828983A3A3A3A3A3E06404600314
:104B3000024BCFEB75F018A4F8A9F0745128F58258
:104B4000740839F583E064016003024BE17B00786F
:104B50004B790888828983A3A3A3A3A3E06404609C
:104B600003024BEC88828983A3A3A3A3A3A3E064DD
:104B7000017079024D6F0BE82418F8E93400F9EB65
:104B8000C394045003024AD8750A00750B00EAA2C8
:104B9000E05035850A82850B83A3A3750CF6750D4D
:104BA000FF750EFF750FFF780C121273780C12163A
:104BB000358E828F83A3A31213431222D174041261
:104BC0001483E97003024EC7AA0AAB0B024ED10B45
:104BD000E82418F8E93400F9EBC394045003024BBD
:104BE00022EAA2E0501BEEFAEFFB80190BE8241832
:104BF000F8E93400F9EBC394045003024B53024E1E
:104C0000147A007B00024ED17B00784B79088882B1
:104C10008983A3A3A3A3A3E064047040EB75F018F9
:104C2000A4F8A9F0745128F582740839F583E0647A
:104C30000170387B00784B790888828983A3A3A30D
:104C4000A3A3E064046003024CCD88828983A3A3FC
:104C5000A3A3A3A3E064017074024D6F0BE82418B2
:104C6000F8E93400F9EBC3940440A37B00784B7956
:104C70000888828983A3A3A3A3A3E064017063EBE4
:104C800075F018A4F8A9F0745128F582740839F564
:104C900083E06401705B7B00784B790888828983AC
:104CA000A3A3A3A3A3E06401705288828983A3A372
:104CB000A3A3A3A3E064017043EB75F018A4F8A9C3
:104CC000F0745028F50A740839F50B80440BE82479
:104CD00018F8E93400F9EBC394045003024C39028C
:104CE0004E140BE82418F8E93400F9EBC39404409F
:104CF00080EAA2E0501EEEFAEFFB801C0BE82418BD
:104D0000F8E93400F9EBC394044091750A00750B7F
:104D100000024E1A7A007B00024ED17B00784B795C
:104D20000888828983A3A3A3A3A3E064017055EB41
:104D300075F018A4F8A9F0745128F582740839F5B3
:104D400083E06401704D7B00784B79088882898309
:104D5000A3A3A3A3A3E064016003024E0288828997
:104D600083A3A3A3A3A3A3E064016003024E02EB09
:104D700075F018A4F8A9F0745028F50A740839F5EC
:104D80000B024E1A0BE82418F8E93400F9EBC3942F
:104D900004408E7B00784B790888828983A3A3A383
:104DA000A3A3E064026003024E59EB75F018A4F867
:104DB000A9F0745128F582740839F583E064016024
:104DC00003024E6B7B00784B790888828983A3A30A
:104DD000A3A3A3E064026003024E7288828983A3C6
:104DE000A3A3A3A3A3E064016003024E72EB75F0DA
:104DF00018A4F8A9F0745028F50A740839F50B02C4
:104E00004E8A0BE82418F8E93400F9EBC3940450F7
:104E100003024D4C750A00750B00EAA2E040030244
:104E20004BC8850A82850B83A3A3750CF6750DFF0D
:104E3000750EFF750FFF780C121273780C12163571
:104E40008E828F83A3A31213431222D174041214EF
:104E500083E96003024BC8806E0BE82418F8E9343C
:104E600000F9EBC394045003024D99EAA2E0505DAF
:104E700080550BE82418F8E93400F9EBC39404508A
:104E800003024DCA750A00750B00EAA2E040030256
:104E90004BC8850A82850B83A3A3750CF6750DFF9D
:104EA000750EFF750FFF780C121273780C12163501
:104EB0008E828F83A3A31213431222D1740412147F
:104EC00083E96003024BC8EEFAEFFB80047A007BB3
:104ED0000002473B74F61214DD8909750800784B0F
:104EE000790888828983A3A3A3A3A3A3E060030214
:104EF0004FB0E50875F018A4F8A9F0745028FE74B6
:104F00000839FF8E828F83A37401F08E828F83E530
:104F100009F0122E828E828F83A3A312134F8E82EA
:104F20008F83A3A3A3A3A3A3E4F0A3F0EE240EF521
:104F300082EF3400F58374FFF0A3F0A3F0A3F0EE4A
:104F40002414F582EF3400F5837401F0EE2415F596
:104F500082EF3400F5837401F0EE2416F582EF340D
:104F600000F583E4F0A3F090084CE04509F09008C8
:104F70004BE004F06401600C7480650960067440C5
:104F800065097019E50875F018A4F8A9F07450289F
:104F9000F8740839F990084EE8F0A3E9F0E50875CF
:104FA000F018A4F8A9F0745028FA740839FB801896
:104FB0000508E82418F8E93400F9E508C39404501A
:104FC00003024EE27A007B0080007F020215AFC030
:104FD00082C0838A828B83E0F8A3E0F98A828B8384
:104FE000E4F0A3F088828983A3F088828983E0F4C7
:104FF000F890084CE058F090084BE014F0700B90DB
:10500000084EE4F0A3F0900478F0801CC082C083C6
:1050100090084BE0600A90084EE0FAA3E0FB8004A1
:105020007A007B008002E0F9D083D082020BC6C0F8
:1050300082C083E9FB7A00784B790888828983A350
:10504000A3A3A3A3E06B7016EA75F018A4F8A9F067
:10505000745128F582740839F583E0F980110AE863
:105060002418F8E93400F9EAC3940440CE790080AA
:10507000B7C082C08390084B02502674F61214DD2C
:10508000EAFEEBFF9061D0E0C0E0EE2400F582EF95
:105090003401F583D0E0F09061D7E0F89061D5E07D
:1050A000C398547FC0E0EE2401F582EF3401F5830C
:1050B000D0E0F09061D6E0C398547FC0E0EE2402C7
:1050C000F582EF3401F583D0E0F0701A9061C5E00D
:1050D000A2E45012E0A2E7500DEE2402F582EF3474
:1050E00001F5837480F0122F4EEE2401F582EF3427
:1050F00001F583E07034EE2402F582EF3401F5838C
:10510000E070279061C5E0A2E4501FE0A2E7501ACA
:10511000EE2402F582EF3401F5837480F0EE240171
:10512000F582EF3401F5837480F075E1957800EE37
:105130002400F582EF3401F583E060279061D3E02D
:10514000C0E08808EE2508F582EF3400F583D0E052
:10515000F008EE2400F582EF3401F583E0F9E8C3AE
:105160009940D975E191024FCA74F61214DDEAFE36
:10517000EBFF9061C8E0C0E0EE2403F582EF34015C
:10518000F583D0E0F09061CFE0F89061CDE0C39876
:10519000547FC0E0EE2404F582EF3401F583D0E0C3
:1051A000F09061CEE0C398547FC0E0EE2405F58214
:1051B000EF3401F583D0E0F0701A9061C5E0A2E011
:1051C0005012E0A2E3500DEE2405F582EF3401F514
:1051D000837480F0122F54EE2404F582EF3401F52D
:1051E00083E07034EE2405F582EF3401F583E0703E
:1051F000279061C5E0A2E0501FE0A2E3501AEE2420
:1052000005F582EF3401F5837480F0EE2404F58215
:10521000EF3401F5837480F0122F5A7A00EE2403E4
:10522000F582EF3401F583E0602F9061CBE0C0E0C0
:105230008A08EE2508F8EF3400F9E82480F582E9C1
:105240003400F583D0E0F00AEE2403F582EF340158
:10525000F583E0F8EAC39840D175E181024FCA7442
:10526000F41214DD8908A808E875F08AA4C8AAF029
:105270002AF974B028FE740839FFEEFAEFFB122EFB
:105280002EEEFAEFFB122E28750A80750B00780AB5
:105290001216397C007D60EE2406FAEF3401FB1211
:1052A0002D6E7402121483906195E0C0E0EE2486A6
:1052B000F582EF3401F583D0E0F0906196E0C0E034
:1052C000EE2487F582EF3401F583D0E0F09061970A
:1052D000E0C0E0EE2488F582EF3401F583D0E0F001
:1052E000906198E0C0E0EE2489F582EF3401F58307
:1052F000D0E0F07F040215AF74F21214DD8908A823
:1053000008E875F08AA4C8AAF02AF974B028F874DD
:105310000839F99061C6E0FDE054F0F075E1817C58
:1053200000E82403F582E93401F583E0602B8C0A60
:10533000E8250AFAE93400FBEA2480F582EB340020
:10534000F583E09061CAF00CE82403F582E93401AA
:10535000F583E0FAECC39A40D5E82405F582E934F8
:1053600001F583E060049061CEF0E82404F582E961
:105370003401F583E060049061CDF0ED9061C6F0FA
:10538000A808E875F08AA4C8AAF02AF974B028F829
:10539000740839F9E0FCE0540FF075E1917A00E807
:1053A0002400F582E93401F583E060238A0AE825C8
:1053B0000AF582E93400F583E09061D2F00AE8242E
:1053C00000F582E93401F583E0FBEAC39B40DDE8A8
:1053D0002402F582E93401F583E060049061D6F09F
:1053E000E82401F582E93401F583E060049061D599
:1053F000F0EC9061C6F0850882AE82EEF875F08A16
:10540000A4C8AAF02AF974B028F50A740839F50B73
:10541000750C80750D00780C121639E50A2406FC0F
:10542000E50B3401FD7A007B60122D6E74021214BC
:1054300083A80AA90BE82486F582E93401F583E004
:10544000906195F0E82487F582E93401F583E090D6
:105450006196F0E82488F582E93401F583E09061F3
:1054600097F0E82489F582E93401F583E0906198AA
:10547000F0EE75F005A4CEA8F028FF74A82EF582F2
:1054800074043FF583E0F8A3E0F5838882E064804C
:10549000704190124574B0F0A3742DF0A37498F08D
:1054A000A3742DF0A374B0F0A3742DF0A374B0F026
:1054B000A3742DF0A37498F0A3742DF0A374B0F02E
:1054C000A3742DF0A374B6F0A3742DF09004787437
:1054D0000880059004787407F09012537498F0A334
:1054E000742DF0A37498F0A3742DF0A37498F0A316
:1054F000742DF0A37498F0A3742DF0A37498F0A306
:10550000742DF0A37498F0A3742DF07F060215AFEC
:10551000C082C0839061907404F0A37448F0A374B7
:1055200002F09061807440F09061BC7403F090616F
:10553000877419F0906265741BF0906249E0C3941F
:105540001390619C400A7409F090606674018007B2
:10555000740DF0906066E4F090619A7433F0A37477
:1055600055F09061A0743AF09007F4E0640170097E
:10557000C29190047C7467800590047C7461F09003
:10558000372AE493906186F090372CE493F46027F7
:10559000E493540FF8906185E0686012E5C654808A
:1055A0004449F5C6E59E547F644970F8E8F053C657
:1055B00080E59E547F70FA7905122F480259B1C0D8
:1055C00082C083E9540FF9906185E0696012E5C6F5
:1055D00054804449F5C6E59E547F644970F8E9F06B
:1055E00053C680E59E547F70FA0259B1C082C083D1
:1055F000E5A8F853A87E906181E4F0A3F0A3F0C27F
:10560000BA539AFEC289759B00C2C275E9007591B2
:105610000075BF0075A91175B905906181F0A3747B
:10562000C0F0A3E4F0D2BA439A0174805842A802B1
:1056300059B1F00259B1C082C08374F812146D9050
:10564000047AE0F8A3E0F9E8497003025764900493
:105650007AE0544060237908851882851983AA82EC
:10566000AB83122D50851882851983AA82AB8312D1
:105670002A4A90047AE054BFF0E054806010790C1C
:105680007A1A7B08122D5090047AE0547FF0E0A241
:10569000E0503190619A7433F0A37455F09061A09A
:1056A000743AF09007F4E064017009C29190047CB0
:1056B0007467800590047C7461F0122A5090047A1B
:1056C000E054FEF0E05402603190619A743FF0A320
:1056D000745AF09061A0747FF09007F4E064017058
:1056E00009D29190047C7471800590047C746AF0F6
:1056F000122A5090047AE054FDF0E05404601390B4
:105700003728E493906186F0122A5690047AE05488
:10571000FBF0E054086013903729E493906186F021
:10572000122A5690047AE054F7F0E0541060139077
:10573000372AE493906186F0122A5690047AE05456
:10574000EFF0E05420600A122A5690047AE054DF09
:10575000F0A3E05401600D122C5A122A5C90047BD5
:10576000E054FEF074081214830259B174EC121460
:10577000DD74F412146D851882851983AC82AD83B3
:1057800075838A75828C740412138090372893F481
:1057900060030258F8907808E0C39402500302585E
:1057A000D874041214B9AC82AD837583897582EA0A
:1057B0007408121380851882851983858212858367
:1057C0001374041214B9AC82AD83750EFF750FFF0C
:1057D0007FFF7E00750C48750D78801574086E701B
:1057E0000302586C74096E700302586C740A6E6080
:1057F0007B850C82850D8378081213258C828D831E
:10580000A909E50AC9F8881074187808121228E561
:10581000104508F8C3E098A3E099850C82850D83B4
:10582000780812132540188C828D8374187808121A
:105830001228E5104508F8E0C398F8A3E0801C742E
:10584000187808121228E5104508FAE9FB8C828DB9
:1058500083E0F8A3E0F9EAC398F8EB99F9C3E89577
:105860000EE9950F5006880E890FEEFF0EE50C2409
:1058700004F50CE50D3400F50DEEC394135003024E
:1058800057DC74FF650E700474FF650F60238F088A
:105890007402780812145A74482508F58274783511
:1058A00009F5837808121325851282851383E5088C
:1058B000F0EC2402FCED3400FD851282851383A3F5
:1058C000858212858313740C1214B9E5826C7003FF
:1058D000E5836D60030257CA7508017509007808F1
:1058E00012163974021214B9AC82AD837ACA7B0DD8
:1058F00012348E7402121483740C1214837F0C02FF
:1059000015AFC082C0839061AE7468F0A3746AF072
:1059100090624574FBF0A304F053F4FD43FE029043
:1059200007F47401F09061A0E0643A90619A7023EA
:105930007433F0A37455F09061A0743AF07401646C
:10594000017009C29190047C7467802890047C7473
:10595000618021743FF0A3745AF09061A0747FF0CD
:10596000740164017009D29190047C747180059077
:10597000047C746A025632C082C0839007D2E0640D
:105980000170119007D8E064016019E07006A3E08F
:10599000640160109007E9E06401700C9007EFE08B
:1059A00064017004790C800279008005E0F912230B
:1059B0007FD083D082020BC6C082C0839007DC7484
:1059C00025F09007DA7401F0A3E4F07A01FB122EBF
:1059D000C49007C8E0F8A3E0C82416F582E83400B4
:1059E000F583747EF0A3742CF09007D9E064017005
:1059F000169007D8E070107901122F24122EF4129D
:105A00002F1E7900122F300259B1C082C08374FA60
:105A100012146D9007D1E064017008122C66900793
:105A2000D1E4F075E1F19007C8E0F8A3E0C82415CF
:105A3000F582E83400F5837401F09007D3E0640147
:105A40007076908A09C082851882851983AC82ADF0
:105A50008375838AD082740612138075D90D9007DE
:105A6000CAE0C4333354C04403F5D978C8790788F1
:105A7000828983A3A3A3E0F5D988828983A3A8821E
:105A8000A983E864CE7003E9640770E38518828512
:105A90001983A882A98388828983E0F5D9A3A88283
:105AA000A98374061214B9E582687003E5836970EE
:105AB000E575E195790180027900122ECA901245B0
:105AC00074CEF0A3742DF0A374D4F0A3742DF0A3BE
:105AD00074CEF0A3742DF0A374CEF0A3742DF0A3B4
:105AE0007498F0A3742DF0A37498F0A3742DF0A310
:105AF00074DAF0A3742DF09012537498F0A3742DFF
:105B0000F0A37498F0A3742DF0A37498F0A3742DEF
:105B1000F0A37498F0A3742DF0A37498F0A3742DDF
:105B2000F0A37498F0A3742DF09007CAE0F97ACB33
:105B30007B07122EA69007DCE0F912237F79011271
:105B40002ED07AD67BBE7C897D8E122EE87A557B4C
:105B5000557C557D00122EB27900122F3C9007C85B
:105B6000E0F8A3E0C82414F582E83400F583741645
:105B7000F09004787405F00402576674F71214DD8F
:105B80008908A808E875F005A4C8AAF02AF974A83D
:105B900028FE740439FF9007E1E0F97AE27B0712EE
:105BA0002EA69007EFE0701A7900122F069007B723
:105BB000E070047900800279017AB87B07122EAC7C
:105BC00080057901122F0675E1F175D9239007E15F
:105BD000E0C4333354C04405F5D978DF79078882AF
:105BE0008983A3A3A3E0F5D988828983A3A882A986
:105BF00083E864E57003E9640770E375D90075D93B
:105C00000075D90075D90075D90075D900EEF8EF87
:105C1000F9E82404FAE93400FBE82422F582E934A7
:105C200000F583E0F5D988828983A3A882A983EA55
:105C3000687002EB6970E2EEF8EFF9E824031AE904
:105C40003400FBE82426F582E93400F583E0F5D939
:105C500088828983A3A882A983EA687002EB6970AD
:105C6000E2EE242BF582EF3400F583E0F5D9EE2443
:105C70002CF582EF3400F583E0F5D9EE242DF58282
:105C8000EF3400F583E0F5D9EE242EF582EF3400F1
:105C9000F583E0F5D9EE242FF582EF3400F583E0AB
:105CA000F5D9EE2430F582EF3400F583E0F5D9EE36
:105CB0002431F582EF3400F583E0F5D9EE2432F596
:105CC00082EF3400F583E0F5D9EE2433F582EF342A
:105CD00000F583E0F5D9EEF8EFF9E82405FAE934A8
:105CE00000FBE8245DF582E93400F583E0F5D9880E
:105CF000828983A3A882A983EA687002EB6970E2B3
:105D0000EE2437F582EF3400F583E0541FF8EE24DB
:105D10002AF582EF3400F583E0C43354E048F5D926
:105D200075E195901245749EF0A3742DF0A374A4B0
:105D3000F0A3742DF0A37498F0A3742DF0A37498BD
:105D4000F0A3742DF0A37498F0A3742DF0A37498AD
:105D5000F0A3742DF0A374AAF0A3742DF090125345
:105D60007498F0A3742DF0A37498F0A3742DF0A38D
:105D70007498F0A3742DF0A37498F0A3742DF0A37D
:105D80007498F0A3742DF0A37498F0A3742DF09080
:105D900007EEE0F912237F7AD67BBE7C897D8E12D6
:105DA0002EE87A557B557C557D00122EB290600D01
:105DB000E4F07901122F3C9004787406F0026374C9
:105DC00074E81214DD9007DFE0F8A3E0F583888221
:105DD000A3A3780C1213259007F0E0FAF875F005EC
:105DE000A4C8ACF02CF974D628F582740439F58374
:105DF000E0FEA3E0FFEEC333FEEF33FF8E14F51594
:105E0000751600751700850C08850D09850E0A8525
:105E10000F0B7510047511007512007513007808CA
:105E200079101212607808121635850C08850D0954
:105E3000850E0A850F0B78087914121260780C7998
:105E400014121126E4F516F5177808791412129930
:105E50008A0C750D007403780C12145AE50D3395F5
:105E6000E0F50EF50F7808790C121260750CFF75CD
:105E70000DFF750EFF7808790C1212D9AA08AB092C
:105E8000AC0A7D0012232A74041214838A088B0939
:105E9000A808A909C3EE98EF995006E82EF8E93F43
:105EA000F9E890600EF0E9A3F0EEA3F0EFA3F09014
:105EB000600D74C1F07F100215AFC082C0839007DF
:105EC000C8E0F8A3E0C82406F582E83400F583E4CE
:105ED000F0A3F09007DC0259ACC082C0839007DFCA
:105EE000E0F8A3E0C82406F582E83400F583E4F086
:105EF000A3F09007EE0259AC020BC674F61214DD43
:105F00009061D0E0F87480C398FCEA2482F582EBBB
:105F10003400F583E06004780480027800E8240E01
:105F2000F8ECC39850030260277C0C9007FAE4F069
:105F3000EA2476F582EB3400F583E09007FBF0EA83
:105F40002477F8EB3400F988828983E09007FCF02D
:105F500088828983A3E09007FDF0EA2479F8EB3486
:105F600000F988828983E09007FEF088828983A304
:105F7000E09007FFF0EA247BF8EB3400F98882898F
:105F800083E0900800F088828983A3E0900801F004
:105F9000EA247DF8EB3400F988828983E0900802D6
:105FA000F088828983A3E0900803F0EA2474F8EB78
:105FB0003400F98A828B83A3A3A3A3A3E0FEA3E00A
:105FC000FF88828983E02EF0A3E03FF088828983F6
:105FD000E0900804F088828983A3E0900805F0EA45
:105FE0002482F582EB3400F583E060177508FA75BA
:105FF000090778081216397903122D8C74021214CD
:10600000837C1074012CF5D975D9037582FA7583D8
:1060100007ECFEE0F5D9A31EEE70F875E195790462
:10602000122EEE79018002790002652474F61214B2
:10603000DD9061D0E0F87480C398FCEA2482F58298
:10604000EB3400F583E06004780480027800E824F3
:106050000AF8ECC398500302611F7508089007FA0C
:106060007401F07CBE7D0778FB79077E058C828DFC
:1060700083E088828983F08C828D83A3AC82AD8398
:1060800088828983A3A882A9831EEE70E0EA248017
:10609000FCEB3400FD8A828B83A3A3A3A3A3E0FEC1
:1060A000A3E0FF8C828D83E02EF0A3E03FF08C8292
:1060B0008D83E088828983F08C828D83A3AC82AD4E
:1060C0008388828983A308A9838C828D83E0888258
:1060D0008983F0EA2482F582EB3400F583E0601ACC
:1060E0007508FA75090778081216397C08790312C1
:1060F0002D8C740212148375080C74012508F5D9CF
:1061000075D9037582FA758307AE08E0F5D9A31E29
:10611000EE70F875E1957904122EEE79018002791E
:106120000002652474F71214DDEAFEEBFF9061D0E3
:10613000E0600302620B75D91875D90375D903EEB7
:10614000F8EFF9E82408FAE93400FBE8249BF5822B
:10615000E93400F583E0F5D988828983A3A882A970
:1061600083EA687002EB6970E2EE24A3F582EF34F3
:1061700000F583E0F5D9EE24A4F582EF3400F58331
:10618000E0F5D9EE2493F582EF3400F583E582241F
:1061900008F8E5833400F9E0F5D9A3E865827003D7
:1061A000E9658370F2EE2487F582EF3400F583E52C
:1061B000822404F8E5833400F9E0F5D9A3E8658288
:1061C0007003E9658370F275E1957908EE2493FA1E
:1061D000EF3400FB122D447904EE2487FAEF3400EB
:1061E000FB122D447904122EEEEE246FF582EF346B
:1061F00000F583E0F8A3E0F9EE2471F582EF3400B6
:10620000F583E8F0A3E9F079018002790002637474
:1062100074F61214DDEAFEEBFF9007FA7406F075CF
:1062200008FA75090778081216397C017903122DCE
:106230008C740212148375D90675D9037582FA75A8
:106240008307E0F5D9A3E58264FF7004E583640762
:1062500070F075E195900478E06408701EEE246F8C
:10626000F582EF3400F583E0F8A3E0F9EE2471F550
:1062700082EF3400F583E8F0A3E9F07901026524A8
:1062800074F61214DDEAFEEBFF9061D0E0705E90D0
:1062900007FA740AF07508FA7509077808121639B2
:1062A0007C017903122D8C740212148375D9067542
:1062B000D9037582FA758307E0F5D9A3E58264FFF7
:1062C0007004E583640770F075E195EE246FF58244
:1062D000EF3400F583E0F8A3E0F9EE2471F582EFE6
:1062E0003400F583E8F0A3E9F07901800279000237
:1062F000652474F61214DDEAFEEBFF9061D0E070C5
:106300006678019007FA740BF0900478E0640770E7
:10631000197508FA75090778081216397C0179038E
:10632000122D8C74021214837805740128F5D97526
:10633000D9037582FA758307E8FAE0F5D9A31AEA5A
:1063400070F875E195EE246FF582EF3400F583E087
:10635000F8A3E0F9EE2471F582EF3400F583E8F05C
:10636000A3E9F0790180027900026524F0EEA2E051
:1063700092AF79007F010215AF74F61214DDEAFEC8
:10638000EBFF9061D0E0F87480C398FAEE2482F5B8
:1063900082EF3400F583E06004780480027800E83E
:1063A000240BF8EAC398500302644F7D099007FA62
:1063B0007408F0EE24E4F8EF3400F97AFB7B077CF4
:1063C0000888828983E08A828B83F088828983A30C
:1063D000A882A9838A828B83A3AA82AB831CEC70D8
:1063E000E0EE2482F582EF3400F583E0601D75084D
:1063F000FA75090778081216397C097903EEFAEF65
:10640000FB122D8C74021214837D0D74012DF5D9AD
:1064100075D9037582FA7583078D08E0F5D9A31540
:1064200008E50870F675E1957904122EEEEE246FFA
:10643000F582EF3400F583E0F8A3E0F9EE2471F57E
:1064400082EF3400F583E8F0A3E9F0790180027966
:106450000002652474F61214DDEAFEEBFF9061D0B1
:10646000E0F87480C398FAEE2482F582EF3400F5E8
:1064700083E06004780480027800E82408F8EAC326
:1064800098500302652278069007FA740CF0900485
:1064900095E09007FBF0900496E09007FCF09004E4
:1064A00097E09007FDF0900498E09007FEF09004CC
:1064B00099E09007FFF0EE2482F582EF3400F58337
:1064C000E0601B7508FA75090778081216397C0612
:1064D0007903EEFA122D8C7402121483780A740177
:1064E00028F5D975D9037582FA7583078808E0F510
:1064F000D9A31508E50870F675E1957904122EEE1A
:10650000EE246FF582EF3400F583E0F8A3E0F9EEB6
:106510002471F582EF3400F583E8F0A3E9F0790106
:10652000800279007F020215AF74F61214DDEAFED4
:10653000EBFF9061D0E0F87480C398FAEE2482F506
:1065400082EF3400F583E06004780480027800E88C
:106550002404F8EAC398500302660378029007FA0D
:10656000E8F0EE24F6F582EF3400F583E09007FBC7
:10657000F0EE2482F582EF3400F583E0601B7508AD
:10658000FA75090778081216397C027903EEFA12B7
:106590002D8C74021214837806740128F5D975D9EC
:1065A000037582FA7583078808E0F5D9A31508E515
:1065B0000870F675E195EE2473F582EF3400F583EB
:1065C000E4F0EE247FF582EF3400F583E4F0EE246E
:1065D0001DF582EF3400F583E4F0A3F07904122E68
:1065E000EEEE240DF582EF3400F583E0F8A3E0F938
:1065F000EE2471F582EF3400F583E8F0A3E9F07939
:10660000018002790002652474F61214DD9061D0D5
:10661000E0F87480C398FCEA2482F582EB3400F53C
:1066200083E06004780480027800E82404F8ECC376
:1066300098405B79029007FA7407F0EA24F7F58234
:10664000EB3400F583E09007FBF0EA2482F582EB5F
:106650003400F583E060187508FA750907780812A8
:1066600016397C0209122D8C740212148379067477
:106670000129F5D975D9037582FA758307E9F8E020
:10668000F5D9A318E870F875E195790180027900D1
:1066900002652474F51214DDE9FCA2AFE433F50AB7
:1066A000C2AF7D0080010DEA246EF582EB3400F567
:1066B00083E0F8EDC398501A8D08EA2508F8EB340A
